{
	"pdh.sol": {
		"pdh": {
			"abi": [
				{
					"inputs": [
						{
							"internalType": "string",
							"name": "_name",
							"type": "string"
						},
						{
							"internalType": "string",
							"name": "_dob",
							"type": "string"
						},
						{
							"internalType": "string",
							"name": "_gender",
							"type": "string"
						},
						{
							"internalType": "string",
							"name": "_bloodtype",
							"type": "string"
						},
						{
							"internalType": "string[]",
							"name": "_allergies",
							"type": "string[]"
						},
						{
							"internalType": "string[]",
							"name": "_medicalHistory",
							"type": "string[]"
						},
						{
							"internalType": "string[]",
							"name": "_medications",
							"type": "string[]"
						},
						{
							"internalType": "string",
							"name": "_emergencyContact",
							"type": "string"
						}
					],
					"name": "addPatientRecord",
					"outputs": [],
					"stateMutability": "nonpayable",
					"type": "function"
				},
				{
					"inputs": [
						{
							"internalType": "uint256",
							"name": "_patientId",
							"type": "uint256"
						},
						{
							"internalType": "string",
							"name": "_pin",
							"type": "string"
						}
					],
					"name": "emergencyAccess",
					"outputs": [
						{
							"internalType": "string",
							"name": "",
							"type": "string"
						},
						{
							"internalType": "string",
							"name": "",
							"type": "string"
						},
						{
							"internalType": "string",
							"name": "",
							"type": "string"
						},
						{
							"internalType": "string",
							"name": "",
							"type": "string"
						}
					],
					"stateMutability": "view",
					"type": "function"
				},
				{
					"inputs": [
						{
							"internalType": "uint256",
							"name": "_patientId",
							"type": "uint256"
						},
						{
							"internalType": "address",
							"name": "_provider",
							"type": "address"
						}
					],
					"name": "grantAccess",
					"outputs": [],
					"stateMutability": "nonpayable",
					"type": "function"
				},
				{
					"inputs": [],
					"name": "nextPatientId",
					"outputs": [
						{
							"internalType": "uint256",
							"name": "",
							"type": "uint256"
						}
					],
					"stateMutability": "view",
					"type": "function"
				},
				{
					"inputs": [
						{
							"internalType": "uint256",
							"name": "",
							"type": "uint256"
						}
					],
					"name": "patientRecords",
					"outputs": [
						{
							"internalType": "uint256",
							"name": "patientId",
							"type": "uint256"
						},
						{
							"internalType": "string",
							"name": "name",
							"type": "string"
						},
						{
							"internalType": "string",
							"name": "dob",
							"type": "string"
						},
						{
							"internalType": "string",
							"name": "gender",
							"type": "string"
						},
						{
							"internalType": "string",
							"name": "bloodType",
							"type": "string"
						},
						{
							"internalType": "string",
							"name": "emergencyContact",
							"type": "string"
						},
						{
							"internalType": "uint256",
							"name": "accessLevel",
							"type": "uint256"
						},
						{
							"internalType": "uint256",
							"name": "timestamp",
							"type": "uint256"
						}
					],
					"stateMutability": "view",
					"type": "function"
				},
				{
					"inputs": [
						{
							"internalType": "uint256",
							"name": "_patientId",
							"type": "uint256"
						},
						{
							"internalType": "address",
							"name": "_provider",
							"type": "address"
						}
					],
					"name": "revokeAccess",
					"outputs": [],
					"stateMutability": "nonpayable",
					"type": "function"
				},
				{
					"inputs": [
						{
							"internalType": "uint256",
							"name": "_patientId",
							"type": "uint256"
						},
						{
							"internalType": "string",
							"name": "_pin",
							"type": "string"
						}
					],
					"name": "setEmergencyPin",
					"outputs": [],
					"stateMutability": "nonpayable",
					"type": "function"
				},
				{
					"inputs": [
						{
							"internalType": "uint256",
							"name": "_patientId",
							"type": "uint256"
						},
						{
							"internalType": "string",
							"name": "_name",
							"type": "string"
						},
						{
							"internalType": "string",
							"name": "_dob",
							"type": "string"
						},
						{
							"internalType": "string",
							"name": "_gender",
							"type": "string"
						},
						{
							"internalType": "string",
							"name": "_bloodType",
							"type": "string"
						},
						{
							"internalType": "string[]",
							"name": "_allergies",
							"type": "string[]"
						},
						{
							"internalType": "string[]",
							"name": "_medicalHistory",
							"type": "string[]"
						},
						{
							"internalType": "string[]",
							"name": "_medications",
							"type": "string[]"
						},
						{
							"internalType": "string",
							"name": "_emergencyContact",
							"type": "string"
						}
					],
					"name": "updatePatientRecord",
					"outputs": [],
					"stateMutability": "nonpayable",
					"type": "function"
				},
				{
					"inputs": [
						{
							"internalType": "uint256",
							"name": "_patientId",
							"type": "uint256"
						},
						{
							"internalType": "string",
							"name": "_proof",
							"type": "string"
						}
					],
					"name": "verifyAllergy",
					"outputs": [
						{
							"internalType": "bool",
							"name": "",
							"type": "bool"
						}
					],
					"stateMutability": "view",
					"type": "function"
				},
				{
					"inputs": [
						{
							"internalType": "uint256",
							"name": "_patientId",
							"type": "uint256"
						},
						{
							"internalType": "string",
							"name": "_proof",
							"type": "string"
						}
					],
					"name": "verifyBloodType",
					"outputs": [
						{
							"internalType": "bool",
							"name": "",
							"type": "bool"
						}
					],
					"stateMutability": "view",
					"type": "function"
				}
			],
			"devdoc": {
				"kind": "dev",
				"methods": {},
				"version": 1
			},
			"evm": {
				"assembly": "    /* \"pdh.sol\":61:5821  contract pdh {... */\n  0x80\n  dup1\n  0x40\n  mstore\n  jumpi(tag_1, callvalue)\n  dataSize(sub_0)\n  swap1\n  dup2\n  dataOffset(sub_0)\n  dup3\n  codecopy\n  return\ntag_1:\n  0x00\n  dup1\n  revert\nstop\n\nsub_0: assembly {\n        /* \"pdh.sol\":61:5821  contract pdh {... */\n      mstore(0x40, 0x80)\n      jumpi(tag_18, iszero(lt(calldatasize, 0x04)))\n      0x00\n      dup1\n      revert\n    tag_18:\n      shr(0xe0, calldataload(0x00))\n      dup1\n      0x3c2bc6a1\n      eq\n      tag_20\n      jumpi\n      dup1\n      0x65dd152c\n      eq\n      tag_22\n      jumpi\n      dup1\n      0xa2b50896\n      eq\n      tag_24\n      jumpi\n      dup1\n      0xb1131795\n      eq\n      tag_26\n      jumpi\n      dup1\n      0xb38deff0\n      eq\n      tag_28\n      jumpi\n      dup1\n      0xd3d188a1\n      eq\n      tag_30\n      jumpi\n      dup1\n      0xd42dbee7\n      eq\n      tag_32\n      jumpi\n      dup1\n      0xd9a5ec1b\n      eq\n      tag_34\n      jumpi\n      dup1\n      0xe5f27aa3\n      eq\n      tag_36\n      jumpi\n      0xecc7fae4\n      eq\n      tag_38\n      jumpi\n      0x00\n      dup1\n      revert\n    tag_38:\n      jumpi(tag_65, callvalue)\n      jumpi(tag_65, slt(add(not(0x03), calldatasize), 0x0100))\n      calldataload(0x04)\n      sub(shl(0x40, 0x01), 0x01)\n      dup2\n      gt\n      tag_65\n      jumpi\n      tag_46\n      swap1\n      calldatasize\n      swap1\n      0x04\n      add\n      tag_2\n      jump\t// in\n    tag_46:\n      calldataload(0x24)\n      sub(shl(0x40, 0x01), 0x01)\n      dup2\n      gt\n      tag_65\n      jumpi\n      tag_49\n      swap1\n      calldatasize\n      swap1\n      0x04\n      add\n      tag_2\n      jump\t// in\n    tag_49:\n      calldataload(0x44)\n      sub(shl(0x40, 0x01), 0x01)\n      dup2\n      gt\n      tag_65\n      jumpi\n      tag_52\n      swap1\n      calldatasize\n      swap1\n      0x04\n      add\n      tag_2\n      jump\t// in\n    tag_52:\n      swap2\n      calldataload(0x64)\n      sub(shl(0x40, 0x01), 0x01)\n      dup2\n      gt\n      tag_65\n      jumpi\n      tag_55\n      swap1\n      calldatasize\n      swap1\n      0x04\n      add\n      tag_2\n      jump\t// in\n    tag_55:\n      calldataload(0x84)\n      sub(shl(0x40, 0x01), 0x01)\n      dup2\n      gt\n      tag_65\n      jumpi\n      tag_58\n      swap1\n      calldatasize\n      swap1\n      0x04\n      add\n      tag_6\n      jump\t// in\n    tag_58:\n      swap2\n      calldataload(0xa4)\n      sub(shl(0x40, 0x01), 0x01)\n      dup2\n      gt\n      tag_65\n      jumpi\n      tag_61\n      swap1\n      calldatasize\n      swap1\n      0x04\n      add\n      tag_6\n      jump\t// in\n    tag_61:\n      calldataload(0xc4)\n      sub(shl(0x40, 0x01), 0x01)\n      dup2\n      gt\n      tag_65\n      jumpi\n      tag_64\n      swap1\n      calldatasize\n      swap1\n      0x04\n      add\n      tag_6\n      jump\t// in\n    tag_64:\n      calldataload(0xe4)\n      sub(shl(0x40, 0x01), 0x01)\n      dup2\n      gt\n      tag_65\n      jumpi\n      tag_67\n      swap1\n      calldatasize\n      swap1\n      0x04\n      add\n      tag_2\n      jump\t// in\n    tag_67:\n      swap2\n        /* \"pdh.sol\":922:935  nextPatientId */\n      0x01\n        /* \"pdh.sol\":61:5821  contract pdh {... */\n      sload\n      swap6\n      0x20\n      swap6\n      mload(0x40)\n      swap10\n      tag_68\n      dup9\n      dup13\n      tag_1\n      jump\t// in\n    tag_68:\n      0x00\n      dup12\n      mstore\n      0x00\n      calldatasize\n      dup2\n      calldatacopy\n      mload(0x40)\n      swap10\n      0x0180\n      dup12\n      add\n      dup12\n      dup2\n      lt\n      sub(shl(0x40, 0x01), 0x01)\n      dup3\n      gt\n      or\n      tag_149\n      jumpi\n      0x40\n      mstore\n      dup10\n      dup12\n      mstore\n        /* \"pdh.sol\":976:1303  PatientRecord(... */\n      dup9\n      dup12\n      add\n        /* \"pdh.sol\":61:5821  contract pdh {... */\n      swap8\n      dup9\n      mstore\n      0x40\n        /* \"pdh.sol\":976:1303  PatientRecord(... */\n      dup12\n      add\n        /* \"pdh.sol\":61:5821  contract pdh {... */\n      swap1\n      dup2\n      mstore\n      0x60\n        /* \"pdh.sol\":976:1303  PatientRecord(... */\n      dup12\n      add\n        /* \"pdh.sol\":61:5821  contract pdh {... */\n      swap2\n      dup3\n      mstore\n      0x80\n        /* \"pdh.sol\":976:1303  PatientRecord(... */\n      dup12\n      add\n        /* \"pdh.sol\":61:5821  contract pdh {... */\n      swap3\n      dup4\n      mstore\n      0xa0\n        /* \"pdh.sol\":976:1303  PatientRecord(... */\n      dup12\n      add\n        /* \"pdh.sol\":61:5821  contract pdh {... */\n      swap4\n      dup5\n      mstore\n      0xc0\n        /* \"pdh.sol\":976:1303  PatientRecord(... */\n      dup12\n      add\n        /* \"pdh.sol\":61:5821  contract pdh {... */\n      swap5\n      dup6\n      mstore\n      0xe0\n        /* \"pdh.sol\":976:1303  PatientRecord(... */\n      dup12\n      add\n        /* \"pdh.sol\":61:5821  contract pdh {... */\n      swap6\n      dup7\n      mstore\n      0x0100\n        /* \"pdh.sol\":976:1303  PatientRecord(... */\n      dup12\n      add\n        /* \"pdh.sol\":61:5821  contract pdh {... */\n      swap7\n      dup8\n      mstore\n        /* \"pdh.sol\":976:1303  PatientRecord(... */\n      0x0120\n      dup12\n      add\n        /* \"pdh.sol\":61:5821  contract pdh {... */\n      swap8\n      0x00\n      dup10\n      mstore\n        /* \"pdh.sol\":976:1303  PatientRecord(... */\n      0x0140\n      dup13\n      add\n        /* \"pdh.sol\":61:5821  contract pdh {... */\n      swap13\n      dup14\n      mstore\n        /* \"pdh.sol\":976:1303  PatientRecord(... */\n      0x0160\n      dup13\n      add\n        /* \"pdh.sol\":1276:1291  block.timestamp */\n      swap11\n      timestamp\n        /* \"pdh.sol\":61:5821  contract pdh {... */\n      dup13\n      mstore\n      0x00\n      mstore\n      0x00\n      dup11\n      mstore\n      keccak256(0x00, 0x40)\n      swap12\n      mload\n      dup13\n      sstore\n        /* \"pdh.sol\":922:935  nextPatientId */\n      0x01\n        /* \"pdh.sol\":61:5821  contract pdh {... */\n      dup13\n      add\n      swap1\n      mload\n      dup1\n      mload\n      swap1\n      sub(shl(0x40, 0x01), 0x01)\n      dup3\n      gt\n      tag_149\n      jumpi\n      tag_73\n      dup4\n      sload\n      tag_7\n      jump\t// in\n    tag_73:\n      dup13\n      0x1f\n      dup3\n      gt\n      tag_74\n      jumpi\n    tag_75:\n      pop\n      pop\n      dup12\n      swap1\n      0x1f\n      dup4\n      gt\n      0x01\n      eq\n      tag_76\n      jumpi\n      tag_78\n      swap3\n      swap2\n      0x00\n      swap2\n      dup4\n      tag_144\n      jumpi\n    tag_80:\n      pop\n      pop\n      dup2\n      0x01\n      shl\n      swap2\n      not(0x00)\n      swap1\n      0x03\n      shl\n      shr\n      not\n      and\n      or\n      swap1\n      jump\n    tag_78:\n      swap1\n      sstore\n    tag_81:\n      mload\n      dup1\n      mload\n      0x02\n      dup13\n      add\n      swap2\n      sub(shl(0x40, 0x01), 0x01)\n      dup3\n      gt\n      tag_149\n      jumpi\n      tag_84\n      dup4\n      sload\n      tag_7\n      jump\t// in\n    tag_84:\n      dup12\n      0x1f\n      dup3\n      gt\n      tag_85\n      jumpi\n    tag_86:\n      pop\n      pop\n      dup11\n      swap1\n      0x1f\n      dup4\n      gt\n      0x01\n      eq\n      tag_87\n      jumpi\n      tag_89\n      swap3\n      swap2\n      0x00\n      swap2\n      dup4\n      tag_144\n      jumpi\n      pop\n      pop\n      dup2\n      0x01\n      shl\n      swap2\n      not(0x00)\n      swap1\n      0x03\n      shl\n      shr\n      not\n      and\n      or\n      swap1\n      jump\n    tag_89:\n      swap1\n      sstore\n    tag_92:\n      mload\n      dup1\n      mload\n      0x03\n      dup12\n      add\n      swap2\n      sub(shl(0x40, 0x01), 0x01)\n      dup3\n      gt\n      tag_149\n      jumpi\n      tag_95\n      dup4\n      sload\n      tag_7\n      jump\t// in\n    tag_95:\n      0x1f\n      dup2\n      gt\n      tag_96\n      jumpi\n    tag_97:\n      pop\n      dup10\n      swap1\n      0x1f\n      dup4\n      gt\n      0x01\n      eq\n      tag_98\n      jumpi\n      tag_100\n      swap3\n      swap2\n      0x00\n      swap2\n      dup4\n      tag_144\n      jumpi\n      pop\n      pop\n      dup2\n      0x01\n      shl\n      swap2\n      not(0x00)\n      swap1\n      0x03\n      shl\n      shr\n      not\n      and\n      or\n      swap1\n      jump\n    tag_100:\n      swap1\n      sstore\n    tag_103:\n      mload\n      dup1\n      mload\n      0x04\n      dup11\n      add\n      swap2\n      sub(shl(0x40, 0x01), 0x01)\n      dup3\n      gt\n      tag_149\n      jumpi\n      tag_106\n      dup4\n      sload\n      tag_7\n      jump\t// in\n    tag_106:\n      0x1f\n      dup2\n      gt\n      tag_107\n      jumpi\n    tag_108:\n      pop\n      dup9\n      swap1\n      0x1f\n      dup4\n      gt\n      0x01\n      eq\n      tag_109\n      jumpi\n      tag_111\n      swap3\n      swap2\n      0x00\n      swap2\n      dup4\n      tag_144\n      jumpi\n      pop\n      pop\n      dup2\n      0x01\n      shl\n      swap2\n      not(0x00)\n      swap1\n      0x03\n      shl\n      shr\n      not\n      and\n      or\n      swap1\n      jump\n    tag_111:\n      swap1\n      sstore\n    tag_114:\n      mload\n      dup1\n      mload\n      0x05\n      dup10\n      add\n      swap2\n      shl(0x40, 0x01)\n      dup3\n      gt\n      tag_149\n      jumpi\n      dup8\n      swap1\n      dup4\n      sload\n      dup4\n      dup6\n      sstore\n      dup1\n      dup5\n      lt\n      tag_117\n      jumpi\n    tag_118:\n      pop\n      add\n      swap2\n      0x00\n      mstore\n      dup7\n      0x00\n      keccak256\n      0x00\n      swap3\n    tag_119:\n      dup3\n      dup5\n      lt\n      tag_120\n      jumpi\n      pop\n      pop\n      pop\n      pop\n      0x06\n      dup8\n      add\n      swap1\n      mload\n      dup1\n      mload\n      swap1\n      shl(0x40, 0x01)\n      dup3\n      gt\n      tag_149\n      jumpi\n      dup7\n      swap1\n      dup4\n      sload\n      dup4\n      dup6\n      sstore\n      dup1\n      dup5\n      lt\n      tag_124\n      jumpi\n    tag_125:\n      pop\n      add\n      swap2\n      0x00\n      mstore\n      dup6\n      0x00\n      keccak256\n      0x00\n      swap3\n    tag_126:\n      dup3\n      dup5\n      lt\n      tag_127\n      jumpi\n      pop\n      pop\n      pop\n      pop\n      0x07\n      dup7\n      add\n      swap1\n      mload\n      dup1\n      mload\n      swap1\n      shl(0x40, 0x01)\n      dup3\n      gt\n      tag_149\n      jumpi\n      dup6\n      swap1\n      dup4\n      sload\n      dup4\n      dup6\n      sstore\n      dup1\n      dup5\n      lt\n      tag_131\n      jumpi\n    tag_132:\n      pop\n      add\n      swap2\n      0x00\n      mstore\n      dup5\n      0x00\n      keccak256\n      0x00\n      swap3\n    tag_133:\n      dup3\n      dup5\n      lt\n      tag_134\n      jumpi\n      pop\n      pop\n      pop\n      pop\n      0x08\n      dup6\n      add\n      swap1\n      mload\n      dup1\n      mload\n      swap1\n      sub(shl(0x40, 0x01), 0x01)\n      dup3\n      gt\n      tag_149\n      jumpi\n      tag_138\n      dup4\n      sload\n      tag_7\n      jump\t// in\n    tag_138:\n      0x1f\n      dup2\n      gt\n      tag_139\n      jumpi\n    tag_140:\n      pop\n      dup5\n      swap1\n      0x1f\n      dup4\n      gt\n      0x01\n      eq\n      tag_141\n      jumpi\n      tag_143\n      swap3\n      swap2\n      0x00\n      swap2\n      dup4\n      tag_144\n      jumpi\n      pop\n      pop\n      dup2\n      0x01\n      shl\n      swap2\n      not(0x00)\n      swap1\n      0x03\n      shl\n      shr\n      not\n      and\n      or\n      swap1\n      jump\n    tag_143:\n      swap1\n      sstore\n    tag_146:\n      mload\n      0x09\n      dup5\n      add\n      sstore\n      0x0a\n      dup4\n      add\n      swap4\n      mload\n      swap1\n      dup2\n      mload\n      swap2\n      sub(shl(0x40, 0x01), 0x01)\n      dup4\n      gt\n      tag_149\n      jumpi\n      shl(0x40, 0x01)\n      dup4\n      gt\n      tag_149\n      jumpi\n      dup2\n      swap1\n      dup7\n      sload\n      dup5\n      dup9\n      sstore\n      dup1\n      dup6\n      lt\n      tag_151\n      jumpi\n    tag_152:\n      pop\n      add\n      swap5\n      0x00\n      mstore\n      dup1\n      0x00\n      keccak256\n      swap1\n      0x00\n    tag_153:\n      dup4\n      dup2\n      lt\n      tag_154\n      jumpi\n      dup5\n      mload\n      0x0b\n      dup8\n      add\n      sstore\n        /* \"pdh.sol\":922:935  nextPatientId */\n      0x01\n        /* \"pdh.sol\":61:5821  contract pdh {... */\n      sload\n      not(0x00)\n      dup2\n      eq\n      tag_156\n      jumpi\n        /* \"pdh.sol\":922:935  nextPatientId */\n      0x01\n        /* \"pdh.sol\":61:5821  contract pdh {... */\n      add\n        /* \"pdh.sol\":922:935  nextPatientId */\n      0x01\n        /* \"pdh.sol\":61:5821  contract pdh {... */\n      sstore\n      0x00\n      dup1\n      return\n    tag_156:\n      mstore(0x00, shl(0xe0, 0x4e487b71))\n      mstore(0x04, 0x11)\n      revert(0x00, 0x24)\n    tag_154:\n      dup7\n      mload\n      sub(shl(0xa0, 0x01), 0x01)\n      and\n      dup4\n      dup3\n      add\n      sstore\n      swap6\n      dup2\n      add\n      swap6\n        /* \"pdh.sol\":922:935  nextPatientId */\n      0x01\n        /* \"pdh.sol\":61:5821  contract pdh {... */\n      add\n      jump(tag_153)\n    tag_151:\n      tag_158\n      swap1\n      dup9\n      0x00\n      mstore\n      dup6\n      dup5\n      0x00\n      keccak256\n      swap2\n      dup3\n      add\n      swap2\n      add\n      tag_13\n      jump\t// in\n    tag_158:\n      0x00\n      jump(tag_152)\n    tag_149:\n      mstore(0x00, shl(0xe0, 0x4e487b71))\n      mstore(0x04, 0x41)\n      revert(0x00, 0x24)\n    tag_144:\n      add\n      mload\n      swap1\n      pop\n      0x00\n      dup1\n      jump(tag_80)\n    tag_141:\n        /* \"pdh.sol\":5396:5418  abi.encodePacked(_pin) */\n      swap1\n      not(0x1f)\n        /* \"pdh.sol\":61:5821  contract pdh {... */\n      dup4\n      and\n      swap2\n      dup5\n      0x00\n      mstore\n      dup7\n      0x00\n      keccak256\n      swap3\n      0x00\n    tag_159:\n      dup9\n      dup3\n      dup3\n      lt\n      tag_160\n      jumpi\n      pop\n      pop\n      swap1\n      dup5\n        /* \"pdh.sol\":922:935  nextPatientId */\n      0x01\n        /* \"pdh.sol\":61:5821  contract pdh {... */\n      swap6\n      swap5\n      swap4\n      swap3\n      lt\n      tag_162\n      jumpi\n    tag_163:\n      pop\n      pop\n      pop\n      dup2\n      shl\n      add\n      swap1\n      sstore\n      jump(tag_146)\n    tag_162:\n      add\n      mload\n      not(0x00)\n      0xf8\n      dup5\n      0x03\n      shl\n      and\n      shr\n      not\n      and\n      swap1\n      sstore\n      0x00\n      dup1\n      dup1\n      jump(tag_163)\n    tag_160:\n        /* \"pdh.sol\":922:935  nextPatientId */\n      0x01\n        /* \"pdh.sol\":61:5821  contract pdh {... */\n      dup6\n      swap7\n      dup3\n      swap4\n      swap7\n      dup7\n      add\n      mload\n      dup2\n      sstore\n      add\n      swap6\n      add\n      swap4\n      add\n      jump(tag_159)\n    tag_139:\n      tag_164\n      swap1\n      dup5\n      0x00\n      mstore\n      dup7\n      0x00\n      keccak256\n      0x1f\n      dup6\n      add\n      0x05\n      shr\n      dup2\n      add\n      swap2\n      dup9\n      dup7\n      lt\n      tag_165\n      jumpi\n    tag_166:\n      0x1f\n      add\n      0x05\n      shr\n      add\n      swap1\n      tag_13\n      jump\t// in\n    tag_164:\n      0x00\n      jump(tag_140)\n    tag_165:\n      swap1\n      swap2\n      pop\n      dup2\n      swap1\n      jump(tag_166)\n    tag_134:\n      dup1\n      mload\n      swap1\n      dup2\n      mload\n      sub(shl(0x40, 0x01), 0x01)\n      dup2\n      gt\n      tag_149\n      jumpi\n      dup9\n      swap3\n      tag_169\n      dup6\n      sload\n      tag_7\n      jump\t// in\n    tag_169:\n      0x1f\n      dup2\n      gt\n      tag_170\n      jumpi\n    tag_171:\n      pop\n      dup4\n      swap1\n      0x1f\n      dup4\n      gt\n      0x01\n      eq\n      tag_172\n      jumpi\n      dup3\n        /* \"pdh.sol\":922:935  nextPatientId */\n      0x01\n        /* \"pdh.sol\":61:5821  contract pdh {... */\n      swap6\n      swap4\n      dup7\n      swap6\n      swap4\n      tag_174\n      swap4\n      0x00\n      swap3\n      tag_144\n      jumpi\n      pop\n      pop\n      dup2\n      0x01\n      shl\n      swap2\n      not(0x00)\n      swap1\n      0x03\n      shl\n      shr\n      not\n      and\n      or\n      swap1\n      jump\n    tag_174:\n      dup6\n      sstore\n    tag_177:\n      add\n      swap3\n      add\n      swap4\n      add\n      swap3\n      swap1\n      jump(tag_133)\n    tag_172:\n        /* \"pdh.sol\":5396:5418  abi.encodePacked(_pin) */\n      swap4\n      swap3\n      swap2\n      swap1\n      not(0x1f)\n        /* \"pdh.sol\":61:5821  contract pdh {... */\n      dup3\n      and\n      swap1\n      dup7\n      0x00\n      mstore\n      dup5\n      0x00\n      keccak256\n      swap2\n      0x00\n    tag_178:\n      dup2\n      dup2\n      lt\n      tag_179\n      jumpi\n      pop\n      swap2\n      dup4\n      swap2\n        /* \"pdh.sol\":922:935  nextPatientId */\n      0x01\n        /* \"pdh.sol\":61:5821  contract pdh {... */\n      swap8\n      dup9\n      swap8\n      swap7\n      swap6\n      dup9\n      swap6\n      lt\n      tag_181\n      jumpi\n    tag_182:\n      pop\n      pop\n      pop\n      dup2\n      shl\n      add\n      dup6\n      sstore\n      jump(tag_177)\n    tag_181:\n      add\n      mload\n      not(0x00)\n      0xf8\n      dup5\n      0x03\n      shl\n      and\n      shr\n      not\n      and\n      swap1\n      sstore\n      0x00\n      dup1\n      dup1\n      jump(tag_182)\n    tag_179:\n      dup8\n      dup4\n      add\n      mload\n      dup5\n      sstore\n      dup14\n      swap7\n        /* \"pdh.sol\":922:935  nextPatientId */\n      0x01\n        /* \"pdh.sol\":61:5821  contract pdh {... */\n      swap1\n      swap5\n      add\n      swap4\n      swap3\n      dup4\n      add\n      swap3\n      add\n      jump(tag_178)\n    tag_170:\n      tag_183\n      swap1\n      dup7\n      0x00\n      mstore\n      dup6\n      0x00\n      keccak256\n      0x1f\n      dup6\n      add\n      0x05\n      shr\n      dup2\n      add\n      swap2\n      dup8\n      dup7\n      lt\n      tag_165\n      jumpi\n      0x1f\n      add\n      0x05\n      shr\n      add\n      swap1\n      tag_13\n      jump\t// in\n    tag_183:\n      0x00\n      jump(tag_171)\n    tag_131:\n      dup5\n      0x00\n      mstore\n      dup4\n      dup4\n      0x00\n      keccak256\n      swap2\n      dup3\n      add\n      swap2\n      add\n    tag_186:\n      dup2\n      dup2\n      lt\n      tag_187\n      jumpi\n      pop\n      jump(tag_132)\n    tag_187:\n        /* \"pdh.sol\":922:935  nextPatientId */\n      0x01\n        /* \"pdh.sol\":61:5821  contract pdh {... */\n      swap2\n      swap3\n      swap4\n      pop\n      tag_189\n      dup2\n      sload\n      tag_7\n      jump\t// in\n    tag_189:\n      dup1\n      tag_190\n      jumpi\n    tag_191:\n      pop\n      add\n      swap1\n      dup8\n      swap3\n      swap2\n      jump(tag_186)\n    tag_190:\n      0x1f\n      dup2\n      gt\n      dup4\n      eq\n      tag_192\n      jumpi\n      pop\n      0x00\n      dup2\n      sstore\n    tag_194:\n      0x00\n      jump(tag_191)\n    tag_192:\n      tag_195\n      swap1\n      dup3\n      0x00\n      mstore\n      dup4\n      0x1f\n      dup13\n      0x00\n      keccak256\n      swap3\n      add\n      0x05\n      shr\n      dup3\n      add\n      swap2\n      add\n      tag_13\n      jump\t// in\n    tag_195:\n      dup1\n      0x00\n      mstore\n      0x00\n      dup10\n      dup2\n      keccak256\n      dup2\n      dup4\n      sstore\n      sstore\n      jump(tag_194)\n    tag_127:\n      dup1\n      mload\n      swap1\n      dup2\n      mload\n      sub(shl(0x40, 0x01), 0x01)\n      dup2\n      gt\n      tag_149\n      jumpi\n      dup10\n      swap3\n      tag_198\n      dup6\n      sload\n      tag_7\n      jump\t// in\n    tag_198:\n      0x1f\n      dup2\n      gt\n      tag_199\n      jumpi\n    tag_200:\n      pop\n      dup4\n      swap1\n      0x1f\n      dup4\n      gt\n      0x01\n      eq\n      tag_201\n      jumpi\n      dup3\n        /* \"pdh.sol\":922:935  nextPatientId */\n      0x01\n        /* \"pdh.sol\":61:5821  contract pdh {... */\n      swap6\n      swap4\n      dup7\n      swap6\n      swap4\n      tag_203\n      swap4\n      0x00\n      swap3\n      tag_144\n      jumpi\n      pop\n      pop\n      dup2\n      0x01\n      shl\n      swap2\n      not(0x00)\n      swap1\n      0x03\n      shl\n      shr\n      not\n      and\n      or\n      swap1\n      jump\n    tag_203:\n      dup6\n      sstore\n    tag_206:\n      add\n      swap3\n      add\n      swap4\n      add\n      swap3\n      swap1\n      jump(tag_126)\n    tag_201:\n        /* \"pdh.sol\":5396:5418  abi.encodePacked(_pin) */\n      swap4\n      swap3\n      swap2\n      swap1\n      not(0x1f)\n        /* \"pdh.sol\":61:5821  contract pdh {... */\n      dup3\n      and\n      swap1\n      dup7\n      0x00\n      mstore\n      dup5\n      0x00\n      keccak256\n      swap2\n      0x00\n    tag_207:\n      dup2\n      dup2\n      lt\n      tag_208\n      jumpi\n      pop\n      swap2\n      dup4\n      swap2\n        /* \"pdh.sol\":922:935  nextPatientId */\n      0x01\n        /* \"pdh.sol\":61:5821  contract pdh {... */\n      swap8\n      dup9\n      swap8\n      swap7\n      swap6\n      dup9\n      swap6\n      lt\n      tag_210\n      jumpi\n    tag_211:\n      pop\n      pop\n      pop\n      dup2\n      shl\n      add\n      dup6\n      sstore\n      jump(tag_206)\n    tag_210:\n      add\n      mload\n      not(0x00)\n      0xf8\n      dup5\n      0x03\n      shl\n      and\n      shr\n      not\n      and\n      swap1\n      sstore\n      0x00\n      dup1\n      dup1\n      jump(tag_211)\n    tag_208:\n      dup8\n      dup4\n      add\n      mload\n      dup5\n      sstore\n      dup15\n      swap7\n        /* \"pdh.sol\":922:935  nextPatientId */\n      0x01\n        /* \"pdh.sol\":61:5821  contract pdh {... */\n      swap1\n      swap5\n      add\n      swap4\n      swap3\n      dup4\n      add\n      swap3\n      add\n      jump(tag_207)\n    tag_199:\n      tag_212\n      swap1\n      dup7\n      0x00\n      mstore\n      dup6\n      0x00\n      keccak256\n      0x1f\n      dup6\n      add\n      0x05\n      shr\n      dup2\n      add\n      swap2\n      dup8\n      dup7\n      lt\n      tag_165\n      jumpi\n      0x1f\n      add\n      0x05\n      shr\n      add\n      swap1\n      tag_13\n      jump\t// in\n    tag_212:\n      0x00\n      jump(tag_200)\n    tag_124:\n      dup5\n      0x00\n      mstore\n      dup4\n      dup4\n      0x00\n      keccak256\n      swap2\n      dup3\n      add\n      swap2\n      add\n    tag_215:\n      dup2\n      dup2\n      lt\n      tag_216\n      jumpi\n      pop\n      jump(tag_125)\n    tag_216:\n        /* \"pdh.sol\":922:935  nextPatientId */\n      0x01\n        /* \"pdh.sol\":61:5821  contract pdh {... */\n      swap2\n      swap3\n      swap4\n      pop\n      tag_218\n      dup2\n      sload\n      tag_7\n      jump\t// in\n    tag_218:\n      dup1\n      tag_219\n      jumpi\n    tag_220:\n      pop\n      add\n      swap1\n      dup9\n      swap3\n      swap2\n      jump(tag_215)\n    tag_219:\n      0x1f\n      dup2\n      gt\n      dup4\n      eq\n      tag_221\n      jumpi\n      pop\n      0x00\n      dup2\n      sstore\n    tag_223:\n      0x00\n      jump(tag_220)\n    tag_221:\n      tag_224\n      swap1\n      dup3\n      0x00\n      mstore\n      dup4\n      0x1f\n      dup14\n      0x00\n      keccak256\n      swap3\n      add\n      0x05\n      shr\n      dup3\n      add\n      swap2\n      add\n      tag_13\n      jump\t// in\n    tag_224:\n      dup1\n      0x00\n      mstore\n      0x00\n      dup11\n      dup2\n      keccak256\n      dup2\n      dup4\n      sstore\n      sstore\n      jump(tag_223)\n    tag_120:\n      dup1\n      mload\n      swap1\n      dup2\n      mload\n      sub(shl(0x40, 0x01), 0x01)\n      dup2\n      gt\n      tag_149\n      jumpi\n      dup11\n      swap3\n      tag_227\n      dup6\n      sload\n      tag_7\n      jump\t// in\n    tag_227:\n      0x1f\n      dup2\n      gt\n      tag_228\n      jumpi\n    tag_229:\n      pop\n      dup4\n      swap1\n      0x1f\n      dup4\n      gt\n      0x01\n      eq\n      tag_230\n      jumpi\n      dup3\n        /* \"pdh.sol\":922:935  nextPatientId */\n      0x01\n        /* \"pdh.sol\":61:5821  contract pdh {... */\n      swap6\n      swap4\n      dup7\n      swap6\n      swap4\n      tag_232\n      swap4\n      0x00\n      swap3\n      tag_144\n      jumpi\n      pop\n      pop\n      dup2\n      0x01\n      shl\n      swap2\n      not(0x00)\n      swap1\n      0x03\n      shl\n      shr\n      not\n      and\n      or\n      swap1\n      jump\n    tag_232:\n      dup6\n      sstore\n    tag_235:\n      add\n      swap3\n      add\n      swap4\n      add\n      swap3\n      swap1\n      jump(tag_119)\n    tag_230:\n        /* \"pdh.sol\":5396:5418  abi.encodePacked(_pin) */\n      swap4\n      swap3\n      swap2\n      swap1\n      not(0x1f)\n        /* \"pdh.sol\":61:5821  contract pdh {... */\n      dup3\n      and\n      swap1\n      dup7\n      0x00\n      mstore\n      dup5\n      0x00\n      keccak256\n      swap2\n      0x00\n    tag_236:\n      dup2\n      dup2\n      lt\n      tag_237\n      jumpi\n      pop\n      swap2\n      dup4\n      swap2\n        /* \"pdh.sol\":922:935  nextPatientId */\n      0x01\n        /* \"pdh.sol\":61:5821  contract pdh {... */\n      swap8\n      dup9\n      swap8\n      swap7\n      swap6\n      dup9\n      swap6\n      lt\n      tag_239\n      jumpi\n    tag_240:\n      pop\n      pop\n      pop\n      dup2\n      shl\n      add\n      dup6\n      sstore\n      jump(tag_235)\n    tag_239:\n      add\n      mload\n      not(0x00)\n      0xf8\n      dup5\n      0x03\n      shl\n      and\n      shr\n      not\n      and\n      swap1\n      sstore\n      0x00\n      dup1\n      dup1\n      jump(tag_240)\n    tag_237:\n      dup8\n      dup4\n      add\n      mload\n      dup5\n      sstore\n      dup16\n      swap7\n        /* \"pdh.sol\":922:935  nextPatientId */\n      0x01\n        /* \"pdh.sol\":61:5821  contract pdh {... */\n      swap1\n      swap5\n      add\n      swap4\n      swap3\n      dup4\n      add\n      swap3\n      add\n      jump(tag_236)\n    tag_228:\n      tag_241\n      swap1\n      dup7\n      0x00\n      mstore\n      dup6\n      0x00\n      keccak256\n      0x1f\n      dup6\n      add\n      0x05\n      shr\n      dup2\n      add\n      swap2\n      dup8\n      dup7\n      lt\n      tag_165\n      jumpi\n      0x1f\n      add\n      0x05\n      shr\n      add\n      swap1\n      tag_13\n      jump\t// in\n    tag_241:\n      0x00\n      jump(tag_229)\n    tag_117:\n      dup5\n      0x00\n      mstore\n      dup4\n      dup4\n      0x00\n      keccak256\n      swap2\n      dup3\n      add\n      swap2\n      add\n    tag_244:\n      dup2\n      dup2\n      lt\n      tag_245\n      jumpi\n      pop\n      jump(tag_118)\n    tag_245:\n        /* \"pdh.sol\":922:935  nextPatientId */\n      0x01\n        /* \"pdh.sol\":61:5821  contract pdh {... */\n      swap2\n      swap3\n      swap4\n      tag_247\n      dup3\n      sload\n      tag_7\n      jump\t// in\n    tag_247:\n      dup1\n      tag_248\n      jumpi\n    tag_249:\n      pop\n      pop\n      add\n      swap1\n      dup10\n      swap3\n      swap2\n      jump(tag_244)\n    tag_248:\n      0x1f\n      dup2\n      gt\n      dup5\n      eq\n      tag_250\n      jumpi\n      pop\n      pop\n      0x00\n      dup2\n      sstore\n    tag_252:\n      dup11\n      0x00\n      jump(tag_249)\n    tag_250:\n      dup4\n      0x1f\n      tag_253\n      swap4\n      dup6\n      0x00\n      mstore\n      0x00\n      keccak256\n      swap3\n      add\n      0x05\n      shr\n      dup3\n      add\n      swap2\n      add\n      tag_13\n      jump\t// in\n    tag_253:\n      dup1\n      0x00\n      mstore\n      0x00\n      dup12\n      dup2\n      keccak256\n      dup2\n      dup4\n      sstore\n      sstore\n      jump(tag_252)\n    tag_109:\n        /* \"pdh.sol\":5396:5418  abi.encodePacked(_pin) */\n      swap1\n      not(0x1f)\n        /* \"pdh.sol\":61:5821  contract pdh {... */\n      dup4\n      and\n      swap2\n      dup5\n      0x00\n      mstore\n      dup11\n      0x00\n      keccak256\n      swap3\n      0x00\n    tag_254:\n      dup13\n      dup3\n      dup3\n      lt\n      tag_255\n      jumpi\n      pop\n      pop\n      swap1\n      dup5\n        /* \"pdh.sol\":922:935  nextPatientId */\n      0x01\n        /* \"pdh.sol\":61:5821  contract pdh {... */\n      swap6\n      swap5\n      swap4\n      swap3\n      lt\n      tag_257\n      jumpi\n    tag_258:\n      pop\n      pop\n      pop\n      dup2\n      shl\n      add\n      swap1\n      sstore\n      jump(tag_114)\n    tag_257:\n      add\n      mload\n      not(0x00)\n      0xf8\n      dup5\n      0x03\n      shl\n      and\n      shr\n      not\n      and\n      swap1\n      sstore\n      0x00\n      dup1\n      dup1\n      jump(tag_258)\n    tag_255:\n        /* \"pdh.sol\":922:935  nextPatientId */\n      0x01\n        /* \"pdh.sol\":61:5821  contract pdh {... */\n      dup6\n      swap7\n      dup3\n      swap4\n      swap7\n      dup7\n      add\n      mload\n      dup2\n      sstore\n      add\n      swap6\n      add\n      swap4\n      add\n      jump(tag_254)\n    tag_107:\n      tag_259\n      swap1\n      dup5\n      0x00\n      mstore\n      dup11\n      0x00\n      keccak256\n      0x1f\n      dup6\n      add\n      0x05\n      shr\n      dup2\n      add\n      swap2\n      dup13\n      dup7\n      lt\n      tag_165\n      jumpi\n      0x1f\n      add\n      0x05\n      shr\n      add\n      swap1\n      tag_13\n      jump\t// in\n    tag_259:\n      0x00\n      jump(tag_108)\n    tag_98:\n        /* \"pdh.sol\":5396:5418  abi.encodePacked(_pin) */\n      swap1\n      not(0x1f)\n        /* \"pdh.sol\":61:5821  contract pdh {... */\n      dup4\n      and\n      swap2\n      dup5\n      0x00\n      mstore\n      dup12\n      0x00\n      keccak256\n      swap3\n      0x00\n    tag_262:\n      dup14\n      dup3\n      dup3\n      lt\n      tag_263\n      jumpi\n      pop\n      pop\n      swap1\n      dup5\n        /* \"pdh.sol\":922:935  nextPatientId */\n      0x01\n        /* \"pdh.sol\":61:5821  contract pdh {... */\n      swap6\n      swap5\n      swap4\n      swap3\n      lt\n      tag_265\n      jumpi\n    tag_266:\n      pop\n      pop\n      pop\n      dup2\n      shl\n      add\n      swap1\n      sstore\n      jump(tag_103)\n    tag_265:\n      add\n      mload\n      not(0x00)\n      0xf8\n      dup5\n      0x03\n      shl\n      and\n      shr\n      not\n      and\n      swap1\n      sstore\n      0x00\n      dup1\n      dup1\n      jump(tag_266)\n    tag_263:\n        /* \"pdh.sol\":922:935  nextPatientId */\n      0x01\n        /* \"pdh.sol\":61:5821  contract pdh {... */\n      dup6\n      swap7\n      dup3\n      swap4\n      swap7\n      dup7\n      add\n      mload\n      dup2\n      sstore\n      add\n      swap6\n      add\n      swap4\n      add\n      jump(tag_262)\n    tag_96:\n      tag_267\n      swap1\n      dup5\n      0x00\n      mstore\n      dup12\n      0x00\n      keccak256\n      0x1f\n      dup6\n      add\n      0x05\n      shr\n      dup2\n      add\n      swap2\n      dup14\n      dup7\n      lt\n      tag_165\n      jumpi\n      0x1f\n      add\n      0x05\n      shr\n      add\n      swap1\n      tag_13\n      jump\t// in\n    tag_267:\n      0x00\n      jump(tag_97)\n    tag_87:\n      0x00\n      dup5\n      dup2\n      mstore\n      dup13\n      dup2\n      keccak256\n      swap3\n        /* \"pdh.sol\":5396:5418  abi.encodePacked(_pin) */\n      swap2\n      swap1\n      not(0x1f)\n        /* \"pdh.sol\":61:5821  contract pdh {... */\n      dup6\n      and\n      swap1\n      dup15\n    tag_270:\n      dup3\n      dup3\n      lt\n      tag_271\n      jumpi\n      pop\n      pop\n      swap1\n      dup5\n        /* \"pdh.sol\":922:935  nextPatientId */\n      0x01\n        /* \"pdh.sol\":61:5821  contract pdh {... */\n      swap6\n      swap5\n      swap4\n      swap3\n      lt\n      tag_273\n      jumpi\n    tag_274:\n      pop\n      pop\n      pop\n      dup2\n      shl\n      add\n      swap1\n      sstore\n      jump(tag_92)\n    tag_273:\n      add\n      mload\n      not(0x00)\n      0xf8\n      dup5\n      0x03\n      shl\n      and\n      shr\n      not\n      and\n      swap1\n      sstore\n      0x00\n      dup1\n      dup1\n      jump(tag_274)\n    tag_271:\n        /* \"pdh.sol\":922:935  nextPatientId */\n      0x01\n        /* \"pdh.sol\":61:5821  contract pdh {... */\n      dup6\n      swap7\n      dup3\n      swap4\n      swap7\n      dup7\n      add\n      mload\n      dup2\n      sstore\n      add\n      swap6\n      add\n      swap4\n      add\n      dup15\n      jump(tag_270)\n    tag_85:\n      tag_275\n      swap2\n      dup6\n      0x00\n      mstore\n      dup2\n      0x00\n      keccak256\n      swap1\n      0x1f\n      dup7\n      add\n      0x05\n      shr\n      dup3\n      add\n      swap3\n      dup7\n      lt\n      tag_165\n      jumpi\n      0x1f\n      add\n      0x05\n      shr\n      add\n      swap1\n      tag_13\n      jump\t// in\n    tag_275:\n      0x00\n      dup12\n      jump(tag_86)\n    tag_76:\n      0x00\n      dup5\n      dup2\n      mstore\n      dup14\n      dup2\n      keccak256\n      swap3\n        /* \"pdh.sol\":5396:5418  abi.encodePacked(_pin) */\n      swap2\n      swap1\n      not(0x1f)\n        /* \"pdh.sol\":61:5821  contract pdh {... */\n      dup6\n      and\n      swap1\n        /* \"pdh.sol\":5396:5418  abi.encodePacked(_pin) */\n      dup16\n        /* \"pdh.sol\":61:5821  contract pdh {... */\n    tag_278:\n      dup3\n      dup3\n      lt\n      tag_279\n      jumpi\n      pop\n      pop\n      swap1\n      dup5\n        /* \"pdh.sol\":922:935  nextPatientId */\n      0x01\n        /* \"pdh.sol\":61:5821  contract pdh {... */\n      swap6\n      swap5\n      swap4\n      swap3\n      lt\n      tag_281\n      jumpi\n    tag_282:\n      pop\n      pop\n      pop\n      dup2\n      shl\n      add\n      swap1\n      sstore\n      jump(tag_81)\n    tag_281:\n      add\n      mload\n      not(0x00)\n      0xf8\n      dup5\n      0x03\n      shl\n      and\n      shr\n      not\n      and\n      swap1\n      sstore\n      0x00\n      dup1\n      dup1\n      jump(tag_282)\n    tag_279:\n        /* \"pdh.sol\":922:935  nextPatientId */\n      0x01\n        /* \"pdh.sol\":61:5821  contract pdh {... */\n      dup6\n      swap7\n      dup3\n      swap4\n      swap7\n      dup7\n      add\n      mload\n      dup2\n      sstore\n      add\n      swap6\n      add\n      swap4\n      add\n      dup16\n      jump(tag_278)\n    tag_74:\n      tag_283\n      swap2\n      dup6\n      0x00\n      mstore\n      dup2\n      0x00\n      keccak256\n      swap1\n      0x1f\n      dup7\n      add\n      0x05\n      shr\n      dup3\n      add\n      swap3\n      dup7\n      lt\n      tag_165\n      jumpi\n      0x1f\n      add\n      0x05\n      shr\n      add\n      swap1\n      tag_13\n      jump\t// in\n    tag_283:\n      0x00\n      dup13\n      jump(tag_75)\n    tag_65:\n      0x00\n      dup1\n      revert\n    tag_36:\n      jumpi(tag_65, callvalue)\n      0x20\n      tag_288\n      calldatasize\n      tag_3\n      jump\t// in\n    tag_288:\n      swap1\n        /* \"pdh.sol\":2830:2899  require(_patientId < nextPatientId, \"Patient record does not exist.\") */\n      tag_289\n        /* \"pdh.sol\":2851:2864  nextPatientId */\n      0x01\n        /* \"pdh.sol\":61:5821  contract pdh {... */\n      sload\n        /* \"pdh.sol\":2838:2864  _patientId < nextPatientId */\n      dup3\n      lt\n        /* \"pdh.sol\":2830:2899  require(_patientId < nextPatientId, \"Patient record does not exist.\") */\n      tag_9\n      jump\t// in\n    tag_289:\n        /* \"pdh.sol\":61:5821  contract pdh {... */\n      0x00\n      mstore\n      0x00\n      dup3\n      mstore\n      0x04\n      tag_290\n        /* \"pdh.sol\":3193:3227  abi.encodePacked(record.bloodType) */\n      tag_291\n        /* \"pdh.sol\":61:5821  contract pdh {... */\n      keccak256(0x00, 0x40)\n        /* \"pdh.sol\":3026:3035  tx.origin */\n      swap4\n      origin\n        /* \"pdh.sol\":3012:3022  msg.sender */\n      caller\n        /* \"pdh.sol\":3012:3035  msg.sender == tx.origin */\n      eq\n        /* \"pdh.sol\":3012:3071  msg.sender == tx.origin || isAuthorized(record, msg.sender) */\n      dup1\n      iszero\n      tag_292\n      jumpi\n        /* \"pdh.sol\":61:5821  contract pdh {... */\n    tag_293:\n        /* \"pdh.sol\":2990:3124  require(... */\n      tag_294\n      swap1\n      tag_15\n      jump\t// in\n    tag_294:\n        /* \"pdh.sol\":61:5821  contract pdh {... */\n      mload(0x40)\n        /* \"pdh.sol\":3154:3178  abi.encodePacked(_proof) */\n      tag_295\n      dup8\n      dup3\n      dup2\n      dup1\n      dup3\n      add\n        /* \"pdh.sol\":61:5821  contract pdh {... */\n      swap6\n      dup1\n      mload\n      swap2\n      dup3\n      swap2\n      add\n      dup8\n      mcopy\n      dup2\n      add\n      0x00\n      dup4\n      dup3\n      add\n      mstore\n        /* \"pdh.sol\":3154:3178  abi.encodePacked(_proof) */\n      sub\n      add\n        /* \"pdh.sol\":5396:5418  abi.encodePacked(_pin) */\n      not(0x1f)\n        /* \"pdh.sol\":3154:3178  abi.encodePacked(_proof) */\n      dup2\n      add\n      dup4\n      mstore\n      dup3\n      tag_1\n      jump\t// in\n    tag_295:\n        /* \"pdh.sol\":61:5821  contract pdh {... */\n      mload\n        /* \"pdh.sol\":3144:3179  keccak256(abi.encodePacked(_proof)) */\n      swap1\n      keccak256\n        /* \"pdh.sol\":61:5821  contract pdh {... */\n      swap4\n      mload(0x40)\n        /* \"pdh.sol\":3193:3227  abi.encodePacked(record.bloodType) */\n      swap3\n      dup4\n      swap2\n      dup8\n      dup4\n      add\n        /* \"pdh.sol\":3210:3226  record.bloodType */\n      swap6\n      dup7\n      swap2\n      add\n        /* \"pdh.sol\":61:5821  contract pdh {... */\n      tag_10\n      jump\t// in\n    tag_290:\n        /* \"pdh.sol\":3193:3227  abi.encodePacked(record.bloodType) */\n      sub\n        /* \"pdh.sol\":5396:5418  abi.encodePacked(_pin) */\n      not(0x1f)\n        /* \"pdh.sol\":3193:3227  abi.encodePacked(record.bloodType) */\n      dup2\n      add\n      dup4\n      mstore\n      dup3\n      tag_1\n      jump\t// in\n    tag_291:\n        /* \"pdh.sol\":61:5821  contract pdh {... */\n      mload\n        /* \"pdh.sol\":3183:3228  keccak256(abi.encodePacked(record.bloodType)) */\n      swap1\n      keccak256\n        /* \"pdh.sol\":3144:3228  keccak256(abi.encodePacked(_proof)) == keccak256(abi.encodePacked(record.bloodType)) */\n      eq\n        /* \"pdh.sol\":61:5821  contract pdh {... */\n      mload(0x40)\n      swap1\n      dup2\n      mstore\n      return\n        /* \"pdh.sol\":3012:3071  msg.sender == tx.origin || isAuthorized(record, msg.sender) */\n    tag_292:\n        /* \"pdh.sol\":3012:3022  msg.sender */\n      pop\n        /* \"pdh.sol\":2990:3124  require(... */\n      tag_294\n        /* \"pdh.sol\":3039:3071  isAuthorized(record, msg.sender) */\n      tag_296\n        /* \"pdh.sol\":3012:3022  msg.sender */\n      caller\n        /* \"pdh.sol\":3039:3071  isAuthorized(record, msg.sender) */\n      dup8\n      tag_17\n      jump\t// in\n    tag_296:\n        /* \"pdh.sol\":3012:3071  msg.sender == tx.origin || isAuthorized(record, msg.sender) */\n      swap1\n      pop\n      jump(tag_293)\n        /* \"pdh.sol\":61:5821  contract pdh {... */\n    tag_34:\n      jumpi(tag_65, callvalue)\n      tag_299\n      calldatasize\n      tag_5\n      jump\t// in\n    tag_299:\n      swap1\n        /* \"pdh.sol\":4319:4388  require(_patientId < nextPatientId, \"Patient record does not exist.\") */\n      tag_300\n        /* \"pdh.sol\":4340:4353  nextPatientId */\n      0x01\n        /* \"pdh.sol\":61:5821  contract pdh {... */\n      sload\n        /* \"pdh.sol\":4327:4353  _patientId < nextPatientId */\n      dup3\n      lt\n        /* \"pdh.sol\":4319:4388  require(_patientId < nextPatientId, \"Patient record does not exist.\") */\n      tag_9\n      jump\t// in\n    tag_300:\n        /* \"pdh.sol\":61:5821  contract pdh {... */\n      0x00\n      swap1\n      dup2\n      mstore\n      0x20\n      dup2\n      swap1\n      mstore\n      0x40\n      dup2\n      keccak256\n        /* \"pdh.sol\":4503:4529  record.authorizedProviders */\n      0x0a\n      add\n      swap2\n      sub(shl(0xa0, 0x01), 0x01)\n        /* \"pdh.sol\":61:5821  contract pdh {... */\n      and\n      swap1\n        /* \"pdh.sol\":4538:4541  i++ */\n    tag_301:\n        /* \"pdh.sol\":61:5821  contract pdh {... */\n      dup3\n      sload\n        /* \"pdh.sol\":4499:4536  i < record.authorizedProviders.length */\n      dup1\n      dup3\n      lt\n      iszero\n      tag_302\n      jumpi\n        /* \"pdh.sol\":4562:4591  record.authorizedProviders[i] */\n      dup3\n      tag_304\n      dup4\n      dup7\n      tag_11\n      jump\t// in\n    tag_304:\n        /* \"pdh.sol\":61:5821  contract pdh {... */\n      swap1\n      sload\n      0x03\n      swap2\n      swap1\n      swap2\n      shl\n      shr\n      sub(shl(0xa0, 0x01), 0x01)\n      and\n        /* \"pdh.sol\":4562:4604  record.authorizedProviders[i] == _provider */\n      eq\n        /* \"pdh.sol\":4558:4813  if (record.authorizedProviders[i] == _provider) {... */\n      tag_305\n      jumpi\n        /* \"pdh.sol\":4538:4541  i++ */\n      pop\n        /* \"pdh.sol\":4340:4353  nextPatientId */\n      0x01\n        /* \"pdh.sol\":61:5821  contract pdh {... */\n      add\n        /* \"pdh.sol\":4484:4497  uint256 i = 0 */\n      jump(tag_301)\n        /* \"pdh.sol\":4558:4813  if (record.authorizedProviders[i] == _provider) {... */\n    tag_305:\n      not(0x00)\n        /* \"pdh.sol\":61:5821  contract pdh {... */\n      dup2\n      add\n      swap3\n      pop\n      dup3\n      gt\n      tag_156\n      jumpi\n        /* \"pdh.sol\":4625:4654  record.authorizedProviders[i] */\n      tag_309\n        /* \"pdh.sol\":4657:4722  record.authorizedProviders[record.authorizedProviders.length - 1] */\n      tag_310\n        /* \"pdh.sol\":4625:4722  record.authorizedProviders[i] = record.authorizedProviders[record.authorizedProviders.length - 1] */\n      tag_311\n        /* \"pdh.sol\":4657:4722  record.authorizedProviders[record.authorizedProviders.length - 1] */\n      swap4\n      dup6\n      tag_11\n      jump\t// in\n    tag_310:\n        /* \"pdh.sol\":61:5821  contract pdh {... */\n      swap1\n      sload\n      0x03\n      swap2\n      swap1\n      swap2\n      shl\n      shr\n      sub(shl(0xa0, 0x01), 0x01)\n      and\n      swap2\n        /* \"pdh.sol\":4625:4654  record.authorizedProviders[i] */\n      dup5\n      tag_11\n      jump\t// in\n    tag_309:\n        /* \"pdh.sol\":61:5821  contract pdh {... */\n      dup2\n      sload\n      sub(shl(0xa0, 0x01), 0x01)\n      swap4\n      dup5\n      and\n      0x03\n      swap3\n      swap1\n      swap3\n      shl\n      swap2\n      dup3\n      shl\n      swap4\n      swap1\n      swap2\n      shl\n      not\n      and\n      swap2\n      swap1\n      swap2\n      or\n      swap1\n      sstore\n      jump\n        /* \"pdh.sol\":4625:4722  record.authorizedProviders[i] = record.authorizedProviders[record.authorizedProviders.length - 1] */\n    tag_311:\n        /* \"pdh.sol\":61:5821  contract pdh {... */\n      dup1\n      sload\n      dup1\n      iszero\n      tag_312\n      jumpi\n      not(0x00)\n      add\n      swap1\n      tag_314\n      dup3\n      dup3\n      tag_11\n      jump\t// in\n    tag_314:\n      dup2\n      sload\n      sub(shl(0xa0, 0x01), 0x01)\n      0x03\n      swap3\n      swap1\n      swap3\n      shl\n      swap2\n      swap1\n      swap2\n      shl\n      not\n      and\n      swap1\n      sstore\n      sstore\n      stop\n    tag_312:\n      mstore(0x00, shl(0xe0, 0x4e487b71))\n      mstore(0x04, 0x31)\n      revert(0x00, 0x24)\n        /* \"pdh.sol\":4499:4536  i < record.authorizedProviders.length */\n    tag_302:\n        /* \"pdh.sol\":61:5821  contract pdh {... */\n      stop\n    tag_32:\n      jumpi(tag_65, callvalue)\n      0x20\n      tag_318\n      tag_319\n      calldatasize\n      tag_3\n      jump\t// in\n    tag_319:\n      swap1\n      tag_16\n      jump\t// in\n    tag_318:\n      mload(0x40)\n      swap1\n      iszero\n      iszero\n      dup2\n      mstore\n      return\n    tag_30:\n      jumpi(tag_65, callvalue)\n      jumpi(tag_65, slt(add(not(0x03), calldatasize), 0x20))\n      mstore(0x00, calldataload(0x04))\n      mstore(0x20, 0x00)\n      0x20\n      keccak256(0x00, 0x40)\n      dup1\n      sload\n        /* \"pdh.sol\":466:521  mapping(uint256 => PatientRecord) public patientRecords */\n      swap1\n      tag_324\n        /* \"pdh.sol\":61:5821  contract pdh {... */\n      0x01\n        /* \"pdh.sol\":466:521  mapping(uint256 => PatientRecord) public patientRecords */\n      dup3\n      add\n      tag_8\n      jump\t// in\n    tag_324:\n        /* \"pdh.sol\":61:5821  contract pdh {... */\n      tag_325\n        /* \"pdh.sol\":466:521  mapping(uint256 => PatientRecord) public patientRecords */\n      tag_326\n      0x02\n      dup5\n      add\n      tag_8\n      jump\t// in\n    tag_326:\n        /* \"pdh.sol\":61:5821  contract pdh {... */\n      tag_327\n        /* \"pdh.sol\":466:521  mapping(uint256 => PatientRecord) public patientRecords */\n      tag_328\n      0x03\n      dup7\n      add\n      tag_8\n      jump\t// in\n    tag_328:\n        /* \"pdh.sol\":61:5821  contract pdh {... */\n      tag_329\n        /* \"pdh.sol\":466:521  mapping(uint256 => PatientRecord) public patientRecords */\n      tag_330\n        /* \"pdh.sol\":61:5821  contract pdh {... */\n      0x04\n        /* \"pdh.sol\":466:521  mapping(uint256 => PatientRecord) public patientRecords */\n      dup9\n      add\n      tag_8\n      jump\t// in\n    tag_330:\n      swap2\n        /* \"pdh.sol\":61:5821  contract pdh {... */\n      tag_331\n        /* \"pdh.sol\":466:521  mapping(uint256 => PatientRecord) public patientRecords */\n      tag_332\n      0x08\n      dup11\n      add\n      tag_8\n      jump\t// in\n    tag_332:\n      swap6\n        /* \"pdh.sol\":61:5821  contract pdh {... */\n      tag_333\n        /* \"pdh.sol\":466:521  mapping(uint256 => PatientRecord) public patientRecords */\n      0x0b\n      0x09\n      dup13\n      add\n        /* \"pdh.sol\":61:5821  contract pdh {... */\n      sload\n        /* \"pdh.sol\":466:521  mapping(uint256 => PatientRecord) public patientRecords */\n      swap12\n      add\n        /* \"pdh.sol\":61:5821  contract pdh {... */\n      sload\n      swap10\n      0x0100\n      mload(0x40)\n      swap15\n      dup16\n      swap15\n      dup16\n      swap1\n      dup2\n      mstore\n      add\n      mstore\n      0x0100\n      dup14\n      add\n      swap1\n      tag_4\n      jump\t// in\n    tag_333:\n      swap1\n      dup12\n      dup3\n      sub\n      0x40\n      dup14\n      add\n      mstore\n      tag_4\n      jump\t// in\n    tag_331:\n      swap1\n      dup10\n      dup3\n      sub\n      0x60\n      dup12\n      add\n      mstore\n      tag_4\n      jump\t// in\n    tag_329:\n      swap1\n      dup8\n      dup3\n      sub\n      0x80\n      dup10\n      add\n      mstore\n      tag_4\n      jump\t// in\n    tag_327:\n      swap1\n      dup6\n      dup3\n      sub\n      0xa0\n      dup8\n      add\n      mstore\n      tag_4\n      jump\t// in\n    tag_325:\n      swap2\n      0xc0\n      dup5\n      add\n      mstore\n      0xe0\n      dup4\n      add\n      mstore\n      sub\n      swap1\n      return\n    tag_28:\n      jumpi(tag_65, callvalue)\n      tag_336\n      calldatasize\n      tag_3\n      jump\t// in\n    tag_336:\n      swap1\n        /* \"pdh.sol\":4983:5052  require(_patientId < nextPatientId, \"Patient record does not exist.\") */\n      tag_337\n        /* \"pdh.sol\":5004:5017  nextPatientId */\n      0x01\n        /* \"pdh.sol\":61:5821  contract pdh {... */\n      sload\n        /* \"pdh.sol\":4991:5017  _patientId < nextPatientId */\n      dup3\n      lt\n        /* \"pdh.sol\":4983:5052  require(_patientId < nextPatientId, \"Patient record does not exist.\") */\n      tag_9\n      jump\t// in\n    tag_337:\n        /* \"pdh.sol\":61:5821  contract pdh {... */\n      0x00\n      mstore\n        /* \"pdh.sol\":5063:5076  emergencyPins */\n      0x02\n        /* \"pdh.sol\":61:5821  contract pdh {... */\n      0x20\n      mstore\n      keccak256(0x00, 0x40)\n      dup2\n      mload\n      sub(shl(0x40, 0x01), 0x01)\n      dup2\n      gt\n      tag_149\n      jumpi\n      tag_340\n      dup3\n      sload\n      tag_7\n      jump\t// in\n    tag_340:\n      0x1f\n      dup2\n      gt\n      tag_341\n      jumpi\n    tag_342:\n      pop\n      0x20\n      swap3\n      0x1f\n      dup3\n      gt\n      0x01\n      eq\n      tag_343\n      jumpi\n      tag_345\n      swap3\n      swap4\n      dup3\n      swap2\n      0x00\n      swap3\n      tag_346\n      jumpi\n      pop\n      pop\n      dup2\n      0x01\n      shl\n      swap2\n      not(0x00)\n      swap1\n      0x03\n      shl\n      shr\n      not\n      and\n      or\n      swap1\n      jump\n    tag_345:\n      swap1\n      sstore\n      stop\n    tag_346:\n      add\n      mload\n      swap1\n      pop\n      dup5\n      dup1\n      jump(tag_80)\n    tag_343:\n        /* \"pdh.sol\":5396:5418  abi.encodePacked(_pin) */\n      not(0x1f)\n        /* \"pdh.sol\":61:5821  contract pdh {... */\n      dup3\n      and\n      swap4\n      dup4\n      0x00\n      mstore\n      dup1\n      0x00\n      keccak256\n      swap2\n      0x00\n    tag_349:\n      dup7\n      dup2\n      lt\n      tag_350\n      jumpi\n      pop\n      dup4\n        /* \"pdh.sol\":5004:5017  nextPatientId */\n      0x01\n        /* \"pdh.sol\":61:5821  contract pdh {... */\n      swap6\n      swap7\n      lt\n      tag_352\n      jumpi\n    tag_353:\n      pop\n      pop\n      pop\n      dup2\n      shl\n      add\n      swap1\n      sstore\n      stop\n    tag_352:\n      add\n      mload\n      not(0x00)\n      0xf8\n      dup5\n      0x03\n      shl\n      and\n      shr\n      not\n      and\n      swap1\n      sstore\n      dup4\n      dup1\n      dup1\n      jump(tag_353)\n    tag_350:\n      swap2\n      swap3\n      0x20\n        /* \"pdh.sol\":5004:5017  nextPatientId */\n      0x01\n        /* \"pdh.sol\":61:5821  contract pdh {... */\n      dup2\n      swap3\n      dup7\n      dup6\n      add\n      mload\n      dup2\n      sstore\n      add\n      swap5\n      add\n      swap3\n      add\n      jump(tag_349)\n    tag_341:\n      tag_354\n      swap1\n      dup4\n      0x00\n      mstore\n      keccak256(0x00, 0x20)\n      0x1f\n      dup5\n      add\n      0x05\n      shr\n      dup2\n      add\n      swap2\n      0x20\n      dup6\n      lt\n      tag_165\n      jumpi\n      0x1f\n      add\n      0x05\n      shr\n      add\n      swap1\n      tag_13\n      jump\t// in\n    tag_354:\n      dup4\n      jump(tag_342)\n    tag_26:\n      jumpi(tag_65, callvalue)\n      jumpi(tag_65, slt(add(not(0x03), calldatasize), 0x00))\n      0x20\n        /* \"pdh.sol\":528:556  uint256 public nextPatientId */\n      0x01\n        /* \"pdh.sol\":61:5821  contract pdh {... */\n      sload\n      mload(0x40)\n      swap1\n      dup2\n      mstore\n      return\n    tag_24:\n      jumpi(tag_65, callvalue)\n      jumpi(tag_65, slt(add(not(0x03), calldatasize), 0x0120))\n      calldataload(0x04)\n      calldataload(0x24)\n      sub(shl(0x40, 0x01), 0x01)\n      dup2\n      gt\n      tag_65\n      jumpi\n      tag_367\n      swap1\n      calldatasize\n      swap1\n      0x04\n      add\n      tag_2\n      jump\t// in\n    tag_367:\n      calldataload(0x44)\n      sub(shl(0x40, 0x01), 0x01)\n      dup2\n      gt\n      tag_65\n      jumpi\n      tag_370\n      swap1\n      calldatasize\n      swap1\n      0x04\n      add\n      tag_2\n      jump\t// in\n    tag_370:\n      calldataload(0x64)\n      sub(shl(0x40, 0x01), 0x01)\n      dup2\n      gt\n      tag_65\n      jumpi\n      tag_373\n      swap1\n      calldatasize\n      swap1\n      0x04\n      add\n      tag_2\n      jump\t// in\n    tag_373:\n      calldataload(0x84)\n      sub(shl(0x40, 0x01), 0x01)\n      dup2\n      gt\n      tag_65\n      jumpi\n      tag_376\n      swap1\n      calldatasize\n      swap1\n      0x04\n      add\n      tag_2\n      jump\t// in\n    tag_376:\n      calldataload(0xa4)\n      sub(shl(0x40, 0x01), 0x01)\n      dup2\n      gt\n      tag_65\n      jumpi\n      tag_379\n      swap1\n      calldatasize\n      swap1\n      0x04\n      add\n      tag_6\n      jump\t// in\n    tag_379:\n      swap1\n      calldataload(0xc4)\n      sub(shl(0x40, 0x01), 0x01)\n      dup2\n      gt\n      tag_65\n      jumpi\n      tag_382\n      swap1\n      calldatasize\n      swap1\n      0x04\n      add\n      tag_6\n      jump\t// in\n    tag_382:\n      swap3\n      calldataload(0xe4)\n      sub(shl(0x40, 0x01), 0x01)\n      dup2\n      gt\n      tag_65\n      jumpi\n      tag_385\n      swap1\n      calldatasize\n      swap1\n      0x04\n      add\n      tag_6\n      jump\t// in\n    tag_385:\n      swap5\n      calldataload(0x0104)\n      sub(shl(0x40, 0x01), 0x01)\n      dup2\n      gt\n      tag_65\n      jumpi\n      tag_388\n      swap1\n      calldatasize\n      swap1\n      0x04\n      add\n      tag_2\n      jump\t// in\n    tag_388:\n      swap8\n        /* \"pdh.sol\":1718:1787  require(_patientId < nextPatientId, \"Patient record does not exist.\") */\n      tag_389\n        /* \"pdh.sol\":61:5821  contract pdh {... */\n      sload(0x01)\n        /* \"pdh.sol\":1726:1752  _patientId < nextPatientId */\n      dup3\n      lt\n        /* \"pdh.sol\":1718:1787  require(_patientId < nextPatientId, \"Patient record does not exist.\") */\n      tag_9\n      jump\t// in\n    tag_389:\n        /* \"pdh.sol\":61:5821  contract pdh {... */\n      0x00\n      mstore\n      mstore(0x20, 0x00)\n      keccak256(0x00, 0x40)\n        /* \"pdh.sol\":1868:1879  record.name */\n      swap7\n        /* \"pdh.sol\":61:5821  contract pdh {... */\n      0x01\n        /* \"pdh.sol\":1868:1879  record.name */\n      dup9\n      add\n        /* \"pdh.sol\":61:5821  contract pdh {... */\n      swap1\n      dup1\n      mload\n      swap1\n      sub(shl(0x40, 0x01), 0x01)\n      dup3\n      gt\n      tag_149\n      jumpi\n      tag_392\n      dup4\n      sload\n      tag_7\n      jump\t// in\n    tag_392:\n      0x1f\n      dup2\n      gt\n      tag_393\n      jumpi\n    tag_394:\n      pop\n      0x20\n      swap1\n      0x1f\n      dup4\n      gt\n      0x01\n      eq\n      tag_395\n      jumpi\n      tag_397\n      swap3\n      swap2\n      0x00\n      swap2\n      dup4\n      tag_482\n      jumpi\n      pop\n      pop\n      dup2\n      0x01\n      shl\n      swap2\n      not(0x00)\n      swap1\n      0x03\n      shl\n      shr\n      not\n      and\n      or\n      swap1\n      jump\n    tag_397:\n      swap1\n      sstore\n    tag_400:\n      dup1\n      mload\n        /* \"pdh.sol\":1898:1908  record.dob */\n      0x02\n      dup9\n      add\n      swap2\n      sub(shl(0x40, 0x01), 0x01)\n        /* \"pdh.sol\":61:5821  contract pdh {... */\n      dup3\n      gt\n      tag_149\n      jumpi\n      tag_403\n      dup4\n      sload\n      tag_7\n      jump\t// in\n    tag_403:\n      0x1f\n      dup2\n      gt\n      tag_404\n      jumpi\n    tag_405:\n      pop\n      0x20\n      swap1\n      0x1f\n      dup4\n      gt\n      0x01\n      eq\n      tag_406\n      jumpi\n      tag_408\n      swap3\n      swap2\n      0x00\n      swap2\n      dup4\n      tag_409\n      jumpi\n      pop\n      pop\n      dup2\n      0x01\n      shl\n      swap2\n      not(0x00)\n      swap1\n      0x03\n      shl\n      shr\n      not\n      and\n      or\n      swap1\n      jump\n    tag_408:\n      swap1\n      sstore\n    tag_411:\n      dup1\n      mload\n        /* \"pdh.sol\":1926:1939  record.gender */\n      0x03\n      dup8\n      add\n      swap2\n      sub(shl(0x40, 0x01), 0x01)\n        /* \"pdh.sol\":61:5821  contract pdh {... */\n      dup3\n      gt\n      tag_149\n      jumpi\n      tag_414\n      dup4\n      sload\n      tag_7\n      jump\t// in\n    tag_414:\n      0x1f\n      dup2\n      gt\n      tag_415\n      jumpi\n    tag_416:\n      pop\n      0x20\n      swap1\n      0x1f\n      dup4\n      gt\n      0x01\n      eq\n      tag_417\n      jumpi\n      tag_419\n      swap3\n      swap2\n      0x00\n      swap2\n      dup4\n      tag_420\n      jumpi\n      pop\n      pop\n      dup2\n      0x01\n      shl\n      swap2\n      not(0x00)\n      swap1\n      0x03\n      shl\n      shr\n      not\n      and\n      or\n      swap1\n      jump\n    tag_419:\n      swap1\n      sstore\n    tag_422:\n      dup1\n      mload\n      0x04\n        /* \"pdh.sol\":1960:1976  record.bloodType */\n      dup7\n      add\n      swap2\n      sub(shl(0x40, 0x01), 0x01)\n        /* \"pdh.sol\":61:5821  contract pdh {... */\n      dup3\n      gt\n      tag_149\n      jumpi\n      tag_425\n      dup4\n      sload\n      tag_7\n      jump\t// in\n    tag_425:\n      0x1f\n      dup2\n      gt\n      tag_426\n      jumpi\n    tag_427:\n      pop\n      0x20\n      swap1\n      0x1f\n      dup4\n      gt\n      0x01\n      eq\n      tag_428\n      jumpi\n      tag_430\n      swap3\n      swap2\n      0x00\n      swap2\n      dup4\n      tag_431\n      jumpi\n      pop\n      pop\n      dup2\n      0x01\n      shl\n      swap2\n      not(0x00)\n      swap1\n      0x03\n      shl\n      shr\n      not\n      and\n      or\n      swap1\n      jump\n    tag_430:\n      swap1\n      sstore\n    tag_433:\n      dup1\n      mload\n        /* \"pdh.sol\":2000:2016  record.allergies */\n      0x05\n      dup6\n      add\n      swap2\n      shl(0x40, 0x01)\n        /* \"pdh.sol\":61:5821  contract pdh {... */\n      dup3\n      gt\n      tag_149\n      jumpi\n      dup3\n      sload\n      dup3\n      dup5\n      sstore\n      dup1\n      dup4\n      lt\n      tag_436\n      jumpi\n    tag_437:\n      pop\n      0x20\n      add\n      swap2\n      0x00\n      mstore\n      keccak256(0x00, 0x20)\n      swap2\n      0x00\n      swap1\n    tag_438:\n      dup3\n      dup3\n      lt\n      tag_439\n      jumpi\n        /* \"pdh.sol\":2040:2061  record.medicalHistory */\n      pop\n      pop\n      pop\n      pop\n      0x06\n      dup4\n      add\n        /* \"pdh.sol\":61:5821  contract pdh {... */\n      swap1\n      dup1\n      mload\n      swap1\n      shl(0x40, 0x01)\n      dup3\n      gt\n      tag_149\n      jumpi\n      dup3\n      sload\n      dup3\n      dup5\n      sstore\n      dup1\n      dup4\n      lt\n      tag_443\n      jumpi\n    tag_444:\n      pop\n      0x20\n      add\n      swap2\n      0x00\n      mstore\n      keccak256(0x00, 0x20)\n      swap2\n      0x00\n      swap1\n    tag_445:\n      dup3\n      dup3\n      lt\n      tag_446\n      jumpi\n        /* \"pdh.sol\":2090:2108  record.medications */\n      pop\n      pop\n      pop\n      pop\n      0x07\n      dup3\n      add\n        /* \"pdh.sol\":61:5821  contract pdh {... */\n      swap1\n      dup1\n      mload\n      swap1\n      shl(0x40, 0x01)\n      dup3\n      gt\n      tag_149\n      jumpi\n      dup3\n      sload\n      dup3\n      dup5\n      sstore\n      dup1\n      dup4\n      lt\n      tag_450\n      jumpi\n    tag_451:\n      pop\n      0x20\n      add\n      swap2\n      0x00\n      mstore\n      keccak256(0x00, 0x20)\n      swap2\n      0x00\n      swap1\n    tag_452:\n      dup3\n      dup3\n      lt\n      tag_453\n      jumpi\n        /* \"pdh.sol\":2134:2157  record.emergencyContact */\n      dup6\n      dup6\n      0x08\n      dup2\n      add\n        /* \"pdh.sol\":61:5821  contract pdh {... */\n      dup3\n      mload\n      sub(shl(0x40, 0x01), 0x01)\n      dup2\n      gt\n      tag_149\n      jumpi\n      tag_457\n      dup3\n      sload\n      tag_7\n      jump\t// in\n    tag_457:\n      0x1f\n      dup2\n      gt\n      tag_458\n      jumpi\n    tag_459:\n      pop\n      0x20\n      0x1f\n      dup3\n      gt\n      0x01\n      eq\n      tag_460\n      jumpi\n      dup2\n      swap1\n      tag_462\n      swap4\n      swap5\n      swap6\n      0x00\n      swap3\n      tag_463\n      jumpi\n      pop\n      pop\n      dup2\n      0x01\n      shl\n      swap2\n      not(0x00)\n      swap1\n      0x03\n      shl\n      shr\n      not\n      and\n      or\n      swap1\n      jump\n    tag_462:\n      swap1\n      sstore\n    tag_465:\n        /* \"pdh.sol\":2188:2204  record.timestamp */\n      0x0b\n        /* \"pdh.sol\":2207:2222  block.timestamp */\n      timestamp\n        /* \"pdh.sol\":2188:2204  record.timestamp */\n      swap2\n      add\n        /* \"pdh.sol\":61:5821  contract pdh {... */\n      sstore\n      0x00\n      dup1\n      return\n    tag_463:\n      add\n      mload\n      swap1\n      pop\n      dup6\n      dup1\n      jump(tag_80)\n    tag_460:\n        /* \"pdh.sol\":5396:5418  abi.encodePacked(_pin) */\n      not(0x1f)\n        /* \"pdh.sol\":61:5821  contract pdh {... */\n      dup3\n      and\n      swap1\n      dup4\n      0x00\n      mstore\n      dup1\n      0x00\n      keccak256\n      swap2\n      0x00\n    tag_466:\n      dup2\n      dup2\n      lt\n      tag_467\n      jumpi\n      pop\n      swap6\n      dup4\n      0x01\n      swap6\n      swap7\n      swap8\n      lt\n      tag_469\n      jumpi\n    tag_470:\n      pop\n      pop\n      pop\n      dup2\n      shl\n      add\n      swap1\n      sstore\n      jump(tag_465)\n    tag_469:\n      add\n      mload\n      not(0x00)\n      0xf8\n      dup5\n        /* \"pdh.sol\":1926:1939  record.gender */\n      0x03\n        /* \"pdh.sol\":61:5821  contract pdh {... */\n      shl\n      and\n      shr\n      not\n      and\n      swap1\n      sstore\n      dup5\n      dup1\n      dup1\n      jump(tag_470)\n    tag_467:\n      swap2\n      swap3\n      0x20\n      0x01\n      dup2\n      swap3\n      dup7\n      dup12\n      add\n      mload\n      dup2\n      sstore\n      add\n      swap5\n      add\n      swap3\n      add\n      jump(tag_466)\n    tag_458:\n      tag_471\n      swap1\n      dup4\n      0x00\n      mstore\n      keccak256(0x00, 0x20)\n      0x1f\n      dup5\n      add\n        /* \"pdh.sol\":2000:2016  record.allergies */\n      0x05\n        /* \"pdh.sol\":61:5821  contract pdh {... */\n      shr\n      dup2\n      add\n      swap2\n      0x20\n      dup6\n      lt\n      tag_165\n      jumpi\n      0x1f\n      add\n        /* \"pdh.sol\":2000:2016  record.allergies */\n      0x05\n        /* \"pdh.sol\":61:5821  contract pdh {... */\n      shr\n      add\n      swap1\n      tag_13\n      jump\t// in\n    tag_471:\n      dup5\n      jump(tag_459)\n    tag_453:\n      dup1\n      mload\n      dup1\n      mload\n      swap1\n      sub(shl(0x40, 0x01), 0x01)\n      dup3\n      gt\n      tag_149\n      jumpi\n      tag_476\n      dup7\n      sload\n      tag_7\n      jump\t// in\n    tag_476:\n      0x1f\n      dup2\n      gt\n      tag_477\n      jumpi\n    tag_478:\n      pop\n      0x20\n      swap1\n      0x1f\n      dup4\n      gt\n      0x01\n      eq\n      tag_479\n      jumpi\n      swap3\n      tag_481\n      dup4\n      0x01\n      swap6\n      swap5\n      0x20\n      swap5\n      dup8\n      swap7\n      0x00\n      swap3\n      tag_482\n      jumpi\n      pop\n      pop\n      dup2\n      0x01\n      shl\n      swap2\n      not(0x00)\n      swap1\n      0x03\n      shl\n      shr\n      not\n      and\n      or\n      swap1\n      jump\n    tag_481:\n      dup8\n      sstore\n    tag_484:\n      add\n      swap5\n      add\n      swap2\n      add\n      swap1\n      swap3\n      jump(tag_452)\n    tag_482:\n      add\n      mload\n      swap1\n      pop\n      dup13\n      dup1\n      jump(tag_80)\n    tag_479:\n        /* \"pdh.sol\":5396:5418  abi.encodePacked(_pin) */\n      swap1\n      not(0x1f)\n        /* \"pdh.sol\":61:5821  contract pdh {... */\n      dup4\n      and\n      swap2\n      dup8\n      0x00\n      mstore\n      dup2\n      0x00\n      keccak256\n      swap3\n      0x00\n    tag_485:\n      dup2\n      dup2\n      lt\n      tag_486\n      jumpi\n      pop\n      swap4\n      0x20\n      swap4\n      0x01\n      swap7\n      swap4\n      dup8\n      swap7\n      swap4\n      dup4\n      dup9\n      swap6\n      lt\n      tag_488\n      jumpi\n    tag_489:\n      pop\n      pop\n      pop\n      dup2\n      shl\n      add\n      dup8\n      sstore\n      jump(tag_484)\n    tag_488:\n      add\n      mload\n      not(0x00)\n      0xf8\n      dup5\n        /* \"pdh.sol\":1926:1939  record.gender */\n      0x03\n        /* \"pdh.sol\":61:5821  contract pdh {... */\n      shl\n      and\n      shr\n      not\n      and\n      swap1\n      sstore\n      dup12\n      dup1\n      dup1\n      jump(tag_489)\n    tag_486:\n      swap3\n      swap4\n      0x20\n      0x01\n      dup2\n      swap3\n      dup8\n      dup7\n      add\n      mload\n      dup2\n      sstore\n      add\n      swap6\n      add\n      swap4\n      add\n      jump(tag_485)\n    tag_477:\n      tag_490\n      swap1\n      dup8\n      0x00\n      mstore\n      keccak256(0x00, 0x20)\n      0x1f\n      dup6\n      add\n        /* \"pdh.sol\":2000:2016  record.allergies */\n      0x05\n        /* \"pdh.sol\":61:5821  contract pdh {... */\n      shr\n      dup2\n      add\n      swap2\n      0x20\n      dup7\n      lt\n      tag_165\n      jumpi\n      0x1f\n      add\n        /* \"pdh.sol\":2000:2016  record.allergies */\n      0x05\n        /* \"pdh.sol\":61:5821  contract pdh {... */\n      shr\n      add\n      swap1\n      tag_13\n      jump\t// in\n    tag_490:\n      dup9\n      jump(tag_478)\n    tag_450:\n      dup4\n      0x00\n      mstore\n      dup3\n      keccak256(0x00, 0x20)\n      swap2\n      dup3\n      add\n      swap2\n      add\n    tag_493:\n      dup2\n      dup2\n      lt\n      tag_494\n      jumpi\n      pop\n      jump(tag_451)\n    tag_494:\n      dup1\n      tag_496\n      0x01\n      swap3\n      sload\n      tag_7\n      jump\t// in\n    tag_496:\n      dup1\n      tag_497\n      jumpi\n    tag_498:\n      pop\n      add\n      jump(tag_493)\n    tag_497:\n      0x1f\n      dup2\n      gt\n      dup4\n      eq\n      tag_499\n      jumpi\n      pop\n      0x00\n      dup2\n      sstore\n    tag_501:\n      dup9\n      jump(tag_498)\n    tag_499:\n      tag_502\n      swap1\n      dup3\n      0x00\n      mstore\n      dup4\n      0x1f\n      keccak256(0x00, 0x20)\n      swap3\n      add\n        /* \"pdh.sol\":2000:2016  record.allergies */\n      0x05\n        /* \"pdh.sol\":61:5821  contract pdh {... */\n      shr\n      dup3\n      add\n      swap2\n      add\n      tag_13\n      jump\t// in\n    tag_502:\n      dup1\n      0x00\n      mstore\n      0x00\n      0x20\n      dup2\n      keccak256\n      dup2\n      dup4\n      sstore\n      sstore\n      jump(tag_501)\n    tag_446:\n      dup1\n      mload\n      dup1\n      mload\n      swap1\n      sub(shl(0x40, 0x01), 0x01)\n      dup3\n      gt\n      tag_149\n      jumpi\n      tag_505\n      dup7\n      sload\n      tag_7\n      jump\t// in\n    tag_505:\n      0x1f\n      dup2\n      gt\n      tag_506\n      jumpi\n    tag_507:\n      pop\n      0x20\n      swap1\n      0x1f\n      dup4\n      gt\n      0x01\n      eq\n      tag_508\n      jumpi\n      swap3\n      tag_510\n      dup4\n      0x01\n      swap6\n      swap5\n      0x20\n      swap5\n      dup8\n      swap7\n      0x00\n      swap3\n      tag_511\n      jumpi\n      pop\n      pop\n      dup2\n      0x01\n      shl\n      swap2\n      not(0x00)\n      swap1\n      0x03\n      shl\n      shr\n      not\n      and\n      or\n      swap1\n      jump\n    tag_510:\n      dup8\n      sstore\n    tag_513:\n      add\n      swap5\n      add\n      swap2\n      add\n      swap1\n      swap3\n      jump(tag_445)\n    tag_511:\n      add\n      mload\n      swap1\n      pop\n      dup14\n      dup1\n      jump(tag_80)\n    tag_508:\n        /* \"pdh.sol\":5396:5418  abi.encodePacked(_pin) */\n      swap1\n      not(0x1f)\n        /* \"pdh.sol\":61:5821  contract pdh {... */\n      dup4\n      and\n      swap2\n      dup8\n      0x00\n      mstore\n      dup2\n      0x00\n      keccak256\n      swap3\n      0x00\n    tag_514:\n      dup2\n      dup2\n      lt\n      tag_515\n      jumpi\n      pop\n      swap4\n      0x20\n      swap4\n      0x01\n      swap7\n      swap4\n      dup8\n      swap7\n      swap4\n      dup4\n      dup9\n      swap6\n      lt\n      tag_517\n      jumpi\n    tag_518:\n      pop\n      pop\n      pop\n      dup2\n      shl\n      add\n      dup8\n      sstore\n      jump(tag_513)\n    tag_517:\n      add\n      mload\n      not(0x00)\n      0xf8\n      dup5\n        /* \"pdh.sol\":1926:1939  record.gender */\n      0x03\n        /* \"pdh.sol\":61:5821  contract pdh {... */\n      shl\n      and\n      shr\n      not\n      and\n      swap1\n      sstore\n      dup13\n      dup1\n      dup1\n      jump(tag_518)\n    tag_515:\n      swap3\n      swap4\n      0x20\n      0x01\n      dup2\n      swap3\n      dup8\n      dup7\n      add\n      mload\n      dup2\n      sstore\n      add\n      swap6\n      add\n      swap4\n      add\n      jump(tag_514)\n    tag_506:\n      tag_519\n      swap1\n      dup8\n      0x00\n      mstore\n      keccak256(0x00, 0x20)\n      0x1f\n      dup6\n      add\n        /* \"pdh.sol\":2000:2016  record.allergies */\n      0x05\n        /* \"pdh.sol\":61:5821  contract pdh {... */\n      shr\n      dup2\n      add\n      swap2\n      0x20\n      dup7\n      lt\n      tag_165\n      jumpi\n      0x1f\n      add\n        /* \"pdh.sol\":2000:2016  record.allergies */\n      0x05\n        /* \"pdh.sol\":61:5821  contract pdh {... */\n      shr\n      add\n      swap1\n      tag_13\n      jump\t// in\n    tag_519:\n      dup10\n      jump(tag_507)\n    tag_443:\n      dup4\n      0x00\n      mstore\n      dup3\n      keccak256(0x00, 0x20)\n      swap2\n      dup3\n      add\n      swap2\n      add\n    tag_522:\n      dup2\n      dup2\n      lt\n      tag_523\n      jumpi\n      pop\n      jump(tag_444)\n    tag_523:\n      dup1\n      tag_525\n      0x01\n      swap3\n      sload\n      tag_7\n      jump\t// in\n    tag_525:\n      dup1\n      tag_526\n      jumpi\n    tag_527:\n      pop\n      add\n      jump(tag_522)\n    tag_526:\n      0x1f\n      dup2\n      gt\n      dup4\n      eq\n      tag_528\n      jumpi\n      pop\n      0x00\n      dup2\n      sstore\n    tag_530:\n      dup10\n      jump(tag_527)\n    tag_528:\n      tag_531\n      swap1\n      dup3\n      0x00\n      mstore\n      dup4\n      0x1f\n      keccak256(0x00, 0x20)\n      swap3\n      add\n        /* \"pdh.sol\":2000:2016  record.allergies */\n      0x05\n        /* \"pdh.sol\":61:5821  contract pdh {... */\n      shr\n      dup3\n      add\n      swap2\n      add\n      tag_13\n      jump\t// in\n    tag_531:\n      dup1\n      0x00\n      mstore\n      0x00\n      0x20\n      dup2\n      keccak256\n      dup2\n      dup4\n      sstore\n      sstore\n      jump(tag_530)\n    tag_439:\n      dup1\n      mload\n      dup1\n      mload\n      swap1\n      sub(shl(0x40, 0x01), 0x01)\n      dup3\n      gt\n      tag_149\n      jumpi\n      tag_534\n      dup7\n      sload\n      tag_7\n      jump\t// in\n    tag_534:\n      0x1f\n      dup2\n      gt\n      tag_535\n      jumpi\n    tag_536:\n      pop\n      0x20\n      swap1\n      0x1f\n      dup4\n      gt\n      0x01\n      eq\n      tag_537\n      jumpi\n      swap3\n      tag_539\n      dup4\n      0x01\n      swap6\n      swap5\n      0x20\n      swap5\n      dup8\n      swap7\n      0x00\n      swap3\n      tag_540\n      jumpi\n      pop\n      pop\n      dup2\n      0x01\n      shl\n      swap2\n      not(0x00)\n      swap1\n      0x03\n      shl\n      shr\n      not\n      and\n      or\n      swap1\n      jump\n    tag_539:\n      dup8\n      sstore\n    tag_542:\n      add\n      swap5\n      add\n      swap2\n      add\n      swap1\n      swap3\n      jump(tag_438)\n    tag_540:\n      add\n      mload\n      swap1\n      pop\n      dup15\n      dup1\n      jump(tag_80)\n    tag_537:\n        /* \"pdh.sol\":5396:5418  abi.encodePacked(_pin) */\n      swap1\n      not(0x1f)\n        /* \"pdh.sol\":61:5821  contract pdh {... */\n      dup4\n      and\n      swap2\n      dup8\n      0x00\n      mstore\n      dup2\n      0x00\n      keccak256\n      swap3\n      0x00\n    tag_543:\n      dup2\n      dup2\n      lt\n      tag_544\n      jumpi\n      pop\n      swap4\n      0x20\n      swap4\n      0x01\n      swap7\n      swap4\n      dup8\n      swap7\n      swap4\n      dup4\n      dup9\n      swap6\n      lt\n      tag_546\n      jumpi\n    tag_547:\n      pop\n      pop\n      pop\n      dup2\n      shl\n      add\n      dup8\n      sstore\n      jump(tag_542)\n    tag_546:\n      add\n      mload\n      not(0x00)\n      0xf8\n      dup5\n        /* \"pdh.sol\":1926:1939  record.gender */\n      0x03\n        /* \"pdh.sol\":61:5821  contract pdh {... */\n      shl\n      and\n      shr\n      not\n      and\n      swap1\n      sstore\n      dup14\n      dup1\n      dup1\n      jump(tag_547)\n    tag_544:\n      swap3\n      swap4\n      0x20\n      0x01\n      dup2\n      swap3\n      dup8\n      dup7\n      add\n      mload\n      dup2\n      sstore\n      add\n      swap6\n      add\n      swap4\n      add\n      jump(tag_543)\n    tag_535:\n      tag_548\n      swap1\n      dup8\n      0x00\n      mstore\n      keccak256(0x00, 0x20)\n      0x1f\n      dup6\n      add\n        /* \"pdh.sol\":2000:2016  record.allergies */\n      0x05\n        /* \"pdh.sol\":61:5821  contract pdh {... */\n      shr\n      dup2\n      add\n      swap2\n      0x20\n      dup7\n      lt\n      tag_165\n      jumpi\n      0x1f\n      add\n        /* \"pdh.sol\":2000:2016  record.allergies */\n      0x05\n        /* \"pdh.sol\":61:5821  contract pdh {... */\n      shr\n      add\n      swap1\n      tag_13\n      jump\t// in\n    tag_548:\n      dup11\n      jump(tag_536)\n    tag_436:\n      dup4\n      0x00\n      mstore\n      dup3\n      keccak256(0x00, 0x20)\n      swap2\n      dup3\n      add\n      swap2\n      add\n    tag_551:\n      dup2\n      dup2\n      lt\n      tag_552\n      jumpi\n      pop\n      jump(tag_437)\n    tag_552:\n      dup1\n      tag_554\n      0x01\n      swap3\n      sload\n      tag_7\n      jump\t// in\n    tag_554:\n      dup1\n      tag_555\n      jumpi\n    tag_556:\n      pop\n      add\n      jump(tag_551)\n    tag_555:\n      0x1f\n      dup2\n      gt\n      dup4\n      eq\n      tag_557\n      jumpi\n      pop\n      0x00\n      dup2\n      sstore\n    tag_559:\n      dup11\n      jump(tag_556)\n    tag_557:\n      tag_560\n      swap1\n      dup3\n      0x00\n      mstore\n      dup4\n      0x1f\n      keccak256(0x00, 0x20)\n      swap3\n      add\n        /* \"pdh.sol\":2000:2016  record.allergies */\n      0x05\n        /* \"pdh.sol\":61:5821  contract pdh {... */\n      shr\n      dup3\n      add\n      swap2\n      add\n      tag_13\n      jump\t// in\n    tag_560:\n      dup1\n      0x00\n      mstore\n      0x00\n      0x20\n      dup2\n      keccak256\n      dup2\n      dup4\n      sstore\n      sstore\n      jump(tag_559)\n    tag_431:\n      add\n      mload\n      swap1\n      pop\n      dup10\n      dup1\n      jump(tag_80)\n    tag_428:\n        /* \"pdh.sol\":5396:5418  abi.encodePacked(_pin) */\n      swap1\n      not(0x1f)\n        /* \"pdh.sol\":61:5821  contract pdh {... */\n      dup4\n      and\n      swap2\n      dup5\n      0x00\n      mstore\n      dup2\n      0x00\n      keccak256\n      swap3\n      0x00\n    tag_561:\n      dup2\n      dup2\n      lt\n      tag_562\n      jumpi\n      pop\n      swap1\n      dup5\n      0x01\n      swap6\n      swap5\n      swap4\n      swap3\n      lt\n      tag_564\n      jumpi\n    tag_565:\n      pop\n      pop\n      pop\n      dup2\n      shl\n      add\n      swap1\n      sstore\n      jump(tag_433)\n    tag_564:\n      add\n      mload\n      not(0x00)\n      0xf8\n      dup5\n        /* \"pdh.sol\":1926:1939  record.gender */\n      0x03\n        /* \"pdh.sol\":61:5821  contract pdh {... */\n      shl\n      and\n      shr\n      not\n      and\n      swap1\n      sstore\n      dup9\n      dup1\n      dup1\n      jump(tag_565)\n    tag_562:\n      swap3\n      swap4\n      0x20\n      0x01\n      dup2\n      swap3\n      dup8\n      dup7\n      add\n      mload\n      dup2\n      sstore\n      add\n      swap6\n      add\n      swap4\n      add\n      jump(tag_561)\n    tag_426:\n      tag_566\n      swap1\n      dup5\n      0x00\n      mstore\n      keccak256(0x00, 0x20)\n      0x1f\n      dup6\n      add\n      0x05\n      shr\n      dup2\n      add\n      swap2\n      0x20\n      dup7\n      lt\n      tag_165\n      jumpi\n      0x1f\n      add\n      0x05\n      shr\n      add\n      swap1\n      tag_13\n      jump\t// in\n    tag_566:\n      dup9\n      jump(tag_427)\n    tag_420:\n      add\n      mload\n      swap1\n      pop\n      dup11\n      dup1\n      jump(tag_80)\n    tag_417:\n        /* \"pdh.sol\":5396:5418  abi.encodePacked(_pin) */\n      swap1\n      not(0x1f)\n        /* \"pdh.sol\":61:5821  contract pdh {... */\n      dup4\n      and\n      swap2\n      dup5\n      0x00\n      mstore\n      dup2\n      0x00\n      keccak256\n      swap3\n      0x00\n    tag_569:\n      dup2\n      dup2\n      lt\n      tag_570\n      jumpi\n      pop\n      swap1\n      dup5\n      0x01\n      swap6\n      swap5\n      swap4\n      swap3\n      lt\n      tag_572\n      jumpi\n    tag_573:\n      pop\n      pop\n      pop\n      dup2\n      shl\n      add\n      swap1\n      sstore\n      jump(tag_422)\n    tag_572:\n      add\n      mload\n      not(0x00)\n      0xf8\n      dup5\n        /* \"pdh.sol\":1926:1939  record.gender */\n      0x03\n        /* \"pdh.sol\":61:5821  contract pdh {... */\n      shl\n      and\n      shr\n      not\n      and\n      swap1\n      sstore\n      dup10\n      dup1\n      dup1\n      jump(tag_573)\n    tag_570:\n      swap3\n      swap4\n      0x20\n      0x01\n      dup2\n      swap3\n      dup8\n      dup7\n      add\n      mload\n      dup2\n      sstore\n      add\n      swap6\n      add\n      swap4\n      add\n      jump(tag_569)\n    tag_415:\n      tag_574\n      swap1\n      dup5\n      0x00\n      mstore\n      keccak256(0x00, 0x20)\n      0x1f\n      dup6\n      add\n      0x05\n      shr\n      dup2\n      add\n      swap2\n      0x20\n      dup7\n      lt\n      tag_165\n      jumpi\n      0x1f\n      add\n      0x05\n      shr\n      add\n      swap1\n      tag_13\n      jump\t// in\n    tag_574:\n      dup10\n      jump(tag_416)\n    tag_409:\n      add\n      mload\n      swap1\n      pop\n      dup12\n      dup1\n      jump(tag_80)\n    tag_406:\n        /* \"pdh.sol\":5396:5418  abi.encodePacked(_pin) */\n      swap1\n      not(0x1f)\n        /* \"pdh.sol\":61:5821  contract pdh {... */\n      dup4\n      and\n      swap2\n      dup5\n      0x00\n      mstore\n      dup2\n      0x00\n      keccak256\n      swap3\n      0x00\n    tag_577:\n      dup2\n      dup2\n      lt\n      tag_578\n      jumpi\n      pop\n      swap1\n      dup5\n      0x01\n      swap6\n      swap5\n      swap4\n      swap3\n      lt\n      tag_580\n      jumpi\n    tag_581:\n      pop\n      pop\n      pop\n      dup2\n      shl\n      add\n      swap1\n      sstore\n      jump(tag_411)\n    tag_580:\n      add\n      mload\n      not(0x00)\n      0xf8\n      dup5\n      0x03\n      shl\n      and\n      shr\n      not\n      and\n      swap1\n      sstore\n      dup11\n      dup1\n      dup1\n      jump(tag_581)\n    tag_578:\n      swap3\n      swap4\n      0x20\n      0x01\n      dup2\n      swap3\n      dup8\n      dup7\n      add\n      mload\n      dup2\n      sstore\n      add\n      swap6\n      add\n      swap4\n      add\n      jump(tag_577)\n    tag_404:\n      tag_582\n      swap1\n      dup5\n      0x00\n      mstore\n      keccak256(0x00, 0x20)\n      0x1f\n      dup6\n      add\n      0x05\n      shr\n      dup2\n      add\n      swap2\n      0x20\n      dup7\n      lt\n      tag_165\n      jumpi\n      0x1f\n      add\n      0x05\n      shr\n      add\n      swap1\n      tag_13\n      jump\t// in\n    tag_582:\n      dup11\n      jump(tag_405)\n    tag_395:\n        /* \"pdh.sol\":5396:5418  abi.encodePacked(_pin) */\n      swap1\n      not(0x1f)\n        /* \"pdh.sol\":61:5821  contract pdh {... */\n      dup4\n      and\n      swap2\n      dup5\n      0x00\n      mstore\n      dup2\n      0x00\n      keccak256\n      swap3\n      0x00\n    tag_585:\n      dup2\n      dup2\n      lt\n      tag_586\n      jumpi\n      pop\n      swap1\n      dup5\n      0x01\n      swap6\n      swap5\n      swap4\n      swap3\n      lt\n      tag_588\n      jumpi\n    tag_589:\n      pop\n      pop\n      pop\n      dup2\n      shl\n      add\n      swap1\n      sstore\n      jump(tag_400)\n    tag_588:\n      add\n      mload\n      not(0x00)\n      0xf8\n      dup5\n      0x03\n      shl\n      and\n      shr\n      not\n      and\n      swap1\n      sstore\n      dup12\n      dup1\n      dup1\n      jump(tag_589)\n    tag_586:\n      swap3\n      swap4\n      0x20\n      0x01\n      dup2\n      swap3\n      dup8\n      dup7\n      add\n      mload\n      dup2\n      sstore\n      add\n      swap6\n      add\n      swap4\n      add\n      jump(tag_585)\n    tag_393:\n      tag_590\n      swap1\n      dup5\n      0x00\n      mstore\n      keccak256(0x00, 0x20)\n      0x1f\n      dup6\n      add\n      0x05\n      shr\n      dup2\n      add\n      swap2\n      0x20\n      dup7\n      lt\n      tag_165\n      jumpi\n      0x1f\n      add\n      0x05\n      shr\n      add\n      swap1\n      tag_13\n      jump\t// in\n    tag_590:\n      dup12\n      jump(tag_394)\n    tag_22:\n      jumpi(tag_65, callvalue)\n      tag_595\n      calldatasize\n      tag_5\n      jump\t// in\n    tag_595:\n      swap1\n        /* \"pdh.sol\":2321:2390  require(_patientId < nextPatientId, \"Patient record does not exist.\") */\n      tag_596\n        /* \"pdh.sol\":2342:2355  nextPatientId */\n      0x01\n        /* \"pdh.sol\":61:5821  contract pdh {... */\n      sload\n        /* \"pdh.sol\":2329:2355  _patientId < nextPatientId */\n      dup3\n      lt\n        /* \"pdh.sol\":2321:2390  require(_patientId < nextPatientId, \"Patient record does not exist.\") */\n      tag_9\n      jump\t// in\n    tag_596:\n        /* \"pdh.sol\":61:5821  contract pdh {... */\n      0x00\n      swap1\n      dup2\n      mstore\n      0x20\n      dup2\n      swap1\n      mstore\n      0x40\n      dup2\n      keccak256\n        /* \"pdh.sol\":2505:2531  record.authorizedProviders */\n      0x0a\n      add\n        /* \"pdh.sol\":61:5821  contract pdh {... */\n      dup1\n      sload\n      swap3\n        /* \"pdh.sol\":2486:2499  uint256 i = 0 */\n      swap2\n      sub(shl(0xa0, 0x01), 0x01)\n        /* \"pdh.sol\":61:5821  contract pdh {... */\n      dup4\n      and\n      swap1\n        /* \"pdh.sol\":2501:2538  i < record.authorizedProviders.length */\n    tag_597:\n      dup5\n      dup2\n      lt\n      tag_598\n      jumpi\n        /* \"pdh.sol\":61:5821  contract pdh {... */\n      pop\n      pop\n      shl(0x40, 0x01)\n      dup4\n      lt\n      iszero\n      tag_149\n      jumpi\n      dup3\n      tag_309\n      swap2\n        /* \"pdh.sol\":2342:2355  nextPatientId */\n      0x01\n        /* \"pdh.sol\":61:5821  contract pdh {... */\n      tag_302\n      swap6\n      add\n      dup2\n      sstore\n      tag_11\n      jump\t// in\n        /* \"pdh.sol\":2540:2543  i++ */\n    tag_598:\n        /* \"pdh.sol\":2568:2597  record.authorizedProviders[i] */\n      dup2\n      tag_604\n      dup3\n      dup6\n      tag_11\n      jump\t// in\n    tag_604:\n        /* \"pdh.sol\":61:5821  contract pdh {... */\n      swap1\n      sload\n      0x03\n      swap2\n      swap1\n      swap2\n      shl\n      shr\n      sub(shl(0xa0, 0x01), 0x01)\n      and\n        /* \"pdh.sol\":2568:2610  record.authorizedProviders[i] != _provider */\n      eq\n        /* \"pdh.sol\":61:5821  contract pdh {... */\n      tag_605\n      jumpi\n        /* \"pdh.sol\":2342:2355  nextPatientId */\n      0x01\n        /* \"pdh.sol\":61:5821  contract pdh {... */\n      add\n        /* \"pdh.sol\":2486:2499  uint256 i = 0 */\n      jump(tag_597)\n        /* \"pdh.sol\":61:5821  contract pdh {... */\n    tag_605:\n      mload(0x40)\n      shl(0xe5, 0x461bcd)\n      dup2\n      mstore\n      0x20\n      0x04\n      dup3\n      add\n      mstore\n      0x1c\n      0x24\n      dup3\n      add\n      mstore\n      0x50726f766964657220616c726561647920686173206163636573732e00000000\n      0x44\n      dup3\n      add\n      mstore\n      0x64\n      swap1\n      revert\n    tag_20:\n      jumpi(tag_65, callvalue)\n      tag_609\n      calldatasize\n      tag_3\n      jump\t// in\n    tag_609:\n        /* \"pdh.sol\":5284:5353  require(_patientId < nextPatientId, \"Patient record does not exist.\") */\n      tag_610\n        /* \"pdh.sol\":5305:5318  nextPatientId */\n      0x01\n        /* \"pdh.sol\":61:5821  contract pdh {... */\n      sload\n        /* \"pdh.sol\":5292:5318  _patientId < nextPatientId */\n      dup4\n      lt\n        /* \"pdh.sol\":5284:5353  require(_patientId < nextPatientId, \"Patient record does not exist.\") */\n      tag_9\n      jump\t// in\n    tag_610:\n        /* \"pdh.sol\":61:5821  contract pdh {... */\n      mload(0x40)\n        /* \"pdh.sol\":5396:5418  abi.encodePacked(_pin) */\n      tag_611\n      0x20\n      dup3\n      dup2\n      dup1\n      dup3\n      add\n        /* \"pdh.sol\":61:5821  contract pdh {... */\n      swap6\n      dup1\n      mload\n      swap2\n      dup3\n      swap2\n      add\n      dup8\n      mcopy\n      dup2\n      add\n      0x00\n      dup4\n      dup3\n      add\n      mstore\n        /* \"pdh.sol\":5396:5418  abi.encodePacked(_pin) */\n      sub\n      add\n      not(0x1f)\n      dup2\n      add\n      dup4\n      mstore\n      dup3\n      tag_1\n      jump\t// in\n    tag_611:\n        /* \"pdh.sol\":61:5821  contract pdh {... */\n      mload\n        /* \"pdh.sol\":5386:5419  keccak256(abi.encodePacked(_pin)) */\n      swap1\n      keccak256\n        /* \"pdh.sol\":61:5821  contract pdh {... */\n      dup2\n      0x00\n      mstore\n        /* \"pdh.sol\":5450:5463  emergencyPins */\n      0x02\n        /* \"pdh.sol\":5396:5418  abi.encodePacked(_pin) */\n      0x20\n        /* \"pdh.sol\":61:5821  contract pdh {... */\n      mstore\n      keccak256(0x00, 0x40)\n      mload(0x40)\n        /* \"pdh.sol\":5433:5476  abi.encodePacked(emergencyPins[_patientId]) */\n      tag_612\n      dup2\n        /* \"pdh.sol\":61:5821  contract pdh {... */\n      tag_290\n        /* \"pdh.sol\":5396:5418  abi.encodePacked(_pin) */\n      0x20\n        /* \"pdh.sol\":5433:5476  abi.encodePacked(emergencyPins[_patientId]) */\n      dup3\n      add\n        /* \"pdh.sol\":61:5821  contract pdh {... */\n      dup1\n      swap6\n      tag_10\n      jump\t// in\n        /* \"pdh.sol\":5433:5476  abi.encodePacked(emergencyPins[_patientId]) */\n    tag_612:\n        /* \"pdh.sol\":61:5821  contract pdh {... */\n      mload\n        /* \"pdh.sol\":5423:5477  keccak256(abi.encodePacked(emergencyPins[_patientId])) */\n      swap1\n      keccak256\n        /* \"pdh.sol\":5386:5477  keccak256(abi.encodePacked(_pin)) == keccak256(abi.encodePacked(emergencyPins[_patientId])) */\n      sub\n        /* \"pdh.sol\":61:5821  contract pdh {... */\n      tag_614\n      jumpi\n      0x00\n      mstore\n      0x00\n        /* \"pdh.sol\":5396:5418  abi.encodePacked(_pin) */\n      0x20\n        /* \"pdh.sol\":61:5821  contract pdh {... */\n      mstore\n      keccak256(0x00, 0x40)\n        /* \"pdh.sol\":5695:5711  record.allergies */\n      0x05\n      dup2\n      add\n        /* \"pdh.sol\":61:5821  contract pdh {... */\n      swap1\n      dup2\n      sload\n        /* \"pdh.sol\":5695:5722  record.allergies.length > 0 */\n      iszero\n      iszero\n        /* \"pdh.sol\":5695:5761  record.allergies.length > 0 ? record.allergies[0] : \"No allergies\" */\n      0x00\n      eq\n      tag_616\n      jumpi\n        /* \"pdh.sol\":61:5821  contract pdh {... */\n      dup2\n      sload\n      iszero\n      tag_618\n      jumpi\n      tag_620\n      swap2\n      0x00\n      mstore\n      tag_621\n      tag_622\n        /* \"pdh.sol\":5396:5418  abi.encodePacked(_pin) */\n      0x20\n        /* \"pdh.sol\":61:5821  contract pdh {... */\n      0x00\n      keccak256\n      tag_8\n      jump\t// in\n    tag_622:\n        /* \"pdh.sol\":5695:5761  record.allergies.length > 0 ? record.allergies[0] : \"No allergies\" */\n      swap2\n    tag_623:\n        /* \"pdh.sol\":61:5821  contract pdh {... */\n      tag_624\n      tag_625\n        /* \"pdh.sol\":5305:5318  nextPatientId */\n      0x01\n        /* \"pdh.sol\":5638:5649  record.name */\n      dup4\n      add\n        /* \"pdh.sol\":61:5821  contract pdh {... */\n      tag_8\n      jump\t// in\n    tag_625:\n        /* \"pdh.sol\":5664:5680  record.bloodType */\n      swap4\n        /* \"pdh.sol\":61:5821  contract pdh {... */\n      tag_626\n      tag_627\n        /* \"pdh.sol\":5776:5799  record.emergencyContact */\n      0x08\n        /* \"pdh.sol\":61:5821  contract pdh {... */\n      tag_628\n      0x04\n        /* \"pdh.sol\":5664:5680  record.bloodType */\n      dup8\n      add\n        /* \"pdh.sol\":61:5821  contract pdh {... */\n      tag_8\n      jump\t// in\n    tag_628:\n        /* \"pdh.sol\":5776:5799  record.emergencyContact */\n      swap6\n      add\n        /* \"pdh.sol\":61:5821  contract pdh {... */\n      tag_8\n      jump\t// in\n    tag_627:\n      swap4\n      mload(0x40)\n      swap8\n      dup9\n      swap8\n      0x80\n      dup10\n      mstore\n      0x80\n      dup10\n      add\n      swap1\n      tag_4\n      jump\t// in\n    tag_620:\n      swap1\n      dup8\n      dup3\n      sub\n        /* \"pdh.sol\":5396:5418  abi.encodePacked(_pin) */\n      0x20\n        /* \"pdh.sol\":61:5821  contract pdh {... */\n      dup10\n      add\n      mstore\n      tag_4\n      jump\t// in\n    tag_626:\n      swap1\n      dup6\n      dup3\n      sub\n      0x40\n      dup8\n      add\n      mstore\n      tag_4\n      jump\t// in\n    tag_624:\n      swap1\n      dup4\n      dup3\n      sub\n      0x60\n      dup6\n      add\n      mstore\n      tag_4\n      jump\t// in\n    tag_621:\n      sub\n      swap1\n      return\n    tag_618:\n      mstore(0x00, shl(0xe0, 0x4e487b71))\n      mstore(0x04, 0x32)\n      revert(0x00, 0x24)\n        /* \"pdh.sol\":5695:5761  record.allergies.length > 0 ? record.allergies[0] : \"No allergies\" */\n    tag_616:\n        /* \"pdh.sol\":61:5821  contract pdh {... */\n      tag_620\n      swap2\n      pop\n      tag_621\n      mload(0x40)\n      tag_629\n      0x40\n      dup3\n      tag_1\n      jump\t// in\n    tag_629:\n      0x0c\n      dup2\n      mstore\n      shl(0xa0, 0x4e6f20616c6c657267696573)\n        /* \"pdh.sol\":5396:5418  abi.encodePacked(_pin) */\n      0x20\n        /* \"pdh.sol\":61:5821  contract pdh {... */\n      dup3\n      add\n      mstore\n        /* \"pdh.sol\":5695:5761  record.allergies.length > 0 ? record.allergies[0] : \"No allergies\" */\n      swap2\n      jump(tag_623)\n        /* \"pdh.sol\":61:5821  contract pdh {... */\n    tag_614:\n      mload(0x40)\n      shl(0xe5, 0x461bcd)\n      dup2\n      mstore\n        /* \"pdh.sol\":5396:5418  abi.encodePacked(_pin) */\n      0x20\n        /* \"pdh.sol\":61:5821  contract pdh {... */\n      0x04\n      dup3\n      add\n      mstore\n      0x0c\n      0x24\n      dup3\n      add\n      mstore\n      shl(0xa1, 0x24b73b30b634b2102824a717)\n      0x44\n      dup3\n      add\n      mstore\n      0x64\n      swap1\n      revert\n    tag_1:\n      swap1\n      0x1f\n        /* \"pdh.sol\":5396:5418  abi.encodePacked(_pin) */\n      dup1\n      not\n        /* \"pdh.sol\":61:5821  contract pdh {... */\n      swap2\n      add\n      and\n      dup2\n      add\n      swap1\n      dup2\n      lt\n      sub(shl(0x40, 0x01), 0x01)\n      dup3\n      gt\n      or\n      tag_149\n      jumpi\n      0x40\n      mstore\n      jump\t// out\n    tag_2:\n      dup2\n      0x1f\n      dup3\n      add\n      slt\n      iszero\n      tag_65\n      jumpi\n      dup1\n      calldataload\n      swap1\n      sub(shl(0x40, 0x01), 0x01)\n      dup3\n      gt\n      tag_149\n      jumpi\n      mload(0x40)\n      swap3\n      tag_636\n        /* \"pdh.sol\":5396:5418  abi.encodePacked(_pin) */\n      0x1f\n        /* \"pdh.sol\":61:5821  contract pdh {... */\n      dup5\n      add\n      not(0x1f)\n      and\n      0x20\n      add\n      dup6\n      tag_1\n      jump\t// in\n    tag_636:\n      dup3\n      dup5\n      mstore\n      0x20\n      dup4\n      dup4\n      add\n      add\n      gt\n      tag_65\n      jumpi\n      dup2\n      0x00\n      swap3\n      0x20\n      dup1\n      swap4\n      add\n      dup4\n      dup7\n      add\n      calldatacopy\n      dup4\n      add\n      add\n      mstore\n      swap1\n      jump\t// out\n    tag_3:\n      swap1\n      0x40\n      not(0x03)\n      dup4\n      add\n      slt\n      tag_65\n      jumpi\n      calldataload(0x04)\n      swap2\n      calldataload(0x24)\n      swap1\n      sub(shl(0x40, 0x01), 0x01)\n      dup3\n      gt\n      tag_65\n      jumpi\n      tag_643\n      swap2\n      0x04\n      add\n      tag_2\n      jump\t// in\n    tag_643:\n      swap1\n      jump\t// out\n    tag_4:\n      dup1\n      mload\n      dup1\n      dup4\n      mstore\n      0x20\n      swap3\n      swap2\n      dup2\n      swap1\n      dup5\n      add\n      dup5\n      dup5\n      add\n      mcopy\n      0x00\n      dup3\n      dup3\n      add\n      dup5\n      add\n      mstore\n      0x1f\n      add\n      not(0x1f)\n      and\n      add\n      add\n      swap1\n      jump\t// out\n    tag_5:\n      0x40\n      swap1\n      not(0x03)\n      add\n      slt\n      tag_65\n      jumpi\n      calldataload(0x04)\n      swap1\n      calldataload(0x24)\n      sub(shl(0xa0, 0x01), 0x01)\n      dup2\n      and\n      dup2\n      sub\n      tag_65\n      jumpi\n      swap1\n      jump\t// out\n    tag_6:\n      swap1\n      dup1\n      0x1f\n      dup4\n      add\n      slt\n      iszero\n      tag_65\n      jumpi\n      dup2\n      calldataload\n      swap2\n      sub(shl(0x40, 0x01), 0x01)\n      dup4\n      gt\n      tag_149\n      jumpi\n      dup3\n      0x05\n      shl\n      swap1\n      0x20\n      dup3\n      add\n      swap4\n      tag_652\n      mload(0x40)\n      swap6\n      dup7\n      tag_1\n      jump\t// in\n    tag_652:\n      dup5\n      mstore\n      0x20\n      dup1\n      dup6\n      add\n      swap3\n      dup3\n      add\n      add\n      swap2\n      dup4\n      dup4\n      gt\n      tag_65\n      jumpi\n      0x20\n      dup3\n      add\n      swap1\n    tag_655:\n      dup4\n      dup3\n      lt\n      tag_656\n      jumpi\n      pop\n      pop\n      pop\n      pop\n      pop\n      swap1\n      jump\t// out\n    tag_656:\n      dup2\n      calldataload\n      sub(shl(0x40, 0x01), 0x01)\n      dup2\n      gt\n      tag_65\n      jumpi\n      0x20\n      swap2\n      tag_660\n      dup8\n      dup5\n      dup1\n      swap5\n      dup9\n      add\n      add\n      tag_2\n      jump\t// in\n    tag_660:\n      dup2\n      mstore\n      add\n      swap2\n      add\n      swap1\n      jump(tag_655)\n    tag_7:\n      swap1\n      0x01\n      dup3\n      dup2\n      shr\n      swap3\n      and\n      dup1\n      iszero\n      tag_661\n      jumpi\n    tag_662:\n      0x20\n      dup4\n      lt\n      eq\n      tag_663\n      jumpi\n      jump\t// out\n    tag_663:\n      mstore(0x00, shl(0xe0, 0x4e487b71))\n      mstore(0x04, 0x22)\n      revert(0x00, 0x24)\n    tag_661:\n      swap2\n      0x7f\n      and\n      swap2\n      jump(tag_662)\n    tag_8:\n      swap1\n      mload(0x40)\n      swap2\n      dup3\n      0x00\n      dup3\n      sload\n      swap3\n      tag_665\n      dup5\n      tag_7\n      jump\t// in\n    tag_665:\n      dup1\n      dup5\n      mstore\n      swap4\n      0x01\n      dup2\n      and\n      swap1\n      dup2\n      iszero\n      tag_666\n      jumpi\n      pop\n      0x01\n      eq\n      tag_668\n      jumpi\n    tag_669:\n      pop\n      tag_670\n      swap3\n      pop\n      sub\n      dup4\n      tag_1\n      jump\t// in\n    tag_670:\n      jump\t// out\n    tag_668:\n      swap1\n      pop\n      0x00\n      swap3\n      swap2\n      swap3\n      mstore\n      keccak256(0x00, 0x20)\n      swap1\n      0x00\n      swap2\n    tag_671:\n      dup2\n      dup4\n      lt\n      tag_672\n      jumpi\n      pop\n      pop\n      swap1\n      0x20\n      tag_670\n      swap3\n      dup3\n      add\n      add\n      0x00\n      jump(tag_669)\n    tag_672:\n      0x20\n      swap2\n      swap4\n      pop\n      dup1\n      0x01\n      swap2\n      sload\n      dup4\n      dup6\n      dup10\n      add\n      add\n      mstore\n      add\n      swap2\n      add\n      swap1\n      swap2\n      dup5\n      swap3\n      jump(tag_671)\n    tag_666:\n      swap1\n      pop\n      0x20\n      swap3\n      pop\n      tag_670\n      swap5\n      swap2\n      pop\n      not(0xff)\n      and\n      dup3\n      dup5\n      add\n      mstore\n      iszero\n      iszero\n      0x05\n      shl\n      dup3\n      add\n      add\n      0x00\n      jump(tag_669)\n    tag_9:\n      iszero\n      tag_674\n      jumpi\n      jump\t// out\n    tag_674:\n      mload(0x40)\n      shl(0xe5, 0x461bcd)\n      dup2\n      mstore\n      0x20\n      0x04\n      dup3\n      add\n      mstore\n      0x1e\n      0x24\n      dup3\n      add\n      mstore\n      0x50617469656e74207265636f726420646f6573206e6f742065786973742e0000\n      0x44\n      dup3\n      add\n      mstore\n      0x64\n      swap1\n      revert\n    tag_10:\n      0x00\n      swap3\n      swap2\n      dup2\n      sload\n      swap2\n      tag_676\n      dup4\n      tag_7\n      jump\t// in\n    tag_676:\n      swap3\n      0x01\n      dup2\n      and\n      swap1\n      dup2\n      iszero\n      tag_677\n      jumpi\n      pop\n      0x01\n      eq\n      tag_679\n      jumpi\n      pop\n      pop\n      pop\n      jump\t// out\n    tag_679:\n      swap1\n      swap2\n      swap3\n      swap4\n      pop\n      0x00\n      mstore\n      keccak256(0x00, 0x20)\n      0x00\n      swap1\n    tag_681:\n      dup4\n      dup3\n      lt\n      tag_682\n      jumpi\n      pop\n      pop\n      add\n      swap1\n      jump\t// out\n    tag_682:\n      0x01\n      dup2\n      0x20\n      swap3\n      sload\n      dup5\n      dup7\n      add\n      mstore\n      add\n      swap2\n      add\n      swap1\n      jump(tag_681)\n    tag_677:\n      not(0xff)\n      and\n      dup4\n      mstore\n      pop\n      pop\n      dup2\n      iszero\n      iszero\n      swap1\n      swap2\n      mul\n      add\n      swap2\n      pop\n      jump\t// out\n    tag_11:\n      dup1\n      sload\n      dup3\n      lt\n      iszero\n      tag_618\n      jumpi\n      0x00\n      mstore\n      keccak256(0x00, 0x20)\n      add\n      swap1\n      0x00\n      swap1\n      jump\t// out\n    tag_13:\n      dup2\n      dup2\n      lt\n      tag_687\n      jumpi\n      pop\n      pop\n      jump\t// out\n    tag_687:\n      0x00\n      dup2\n      sstore\n      0x01\n      add\n      jump(tag_13)\n    tag_15:\n      iszero\n      tag_689\n      jumpi\n      jump\t// out\n    tag_689:\n      mload(0x40)\n      shl(0xe5, 0x461bcd)\n      dup2\n      mstore\n      0x20\n      0x04\n      dup3\n      add\n      mstore\n      0x19\n      0x24\n      dup3\n      add\n      mstore\n      0x4e6f7420617574686f72697a656420746f207665726966792e00000000000000\n      0x44\n      dup3\n      add\n      mstore\n      0x64\n      swap1\n      revert\n        /* \"pdh.sol\":3244:3903  function verifyAllergy(uint256 _patientId, string memory _proof) public view returns (bool) {... */\n    tag_16:\n        /* \"pdh.sol\":3347:3416  require(_patientId < nextPatientId, \"Patient record does not exist.\") */\n      tag_691\n        /* \"pdh.sol\":3368:3381  nextPatientId */\n      0x01\n        /* \"pdh.sol\":61:5821  contract pdh {... */\n      sload\n        /* \"pdh.sol\":3355:3381  _patientId < nextPatientId */\n      dup3\n      lt\n        /* \"pdh.sol\":3347:3416  require(_patientId < nextPatientId, \"Patient record does not exist.\") */\n      tag_9\n      jump\t// in\n    tag_691:\n        /* \"pdh.sol\":61:5821  contract pdh {... */\n      0x00\n      mstore\n      mstore(0x20, 0x00)\n      keccak256(0x00, 0x40)\n        /* \"pdh.sol\":3543:3552  tx.origin */\n      swap1\n      origin\n        /* \"pdh.sol\":3529:3539  msg.sender */\n      caller\n        /* \"pdh.sol\":3529:3552  msg.sender == tx.origin */\n      eq\n        /* \"pdh.sol\":3529:3588  msg.sender == tx.origin || isAuthorized(record, msg.sender) */\n      dup1\n      iszero\n      tag_692\n      jumpi\n        /* \"pdh.sol\":3244:3903  function verifyAllergy(uint256 _patientId, string memory _proof) public view returns (bool) {... */\n    tag_693:\n        /* \"pdh.sol\":3507:3641  require(... */\n      tag_694\n      swap1\n      tag_15\n      jump\t// in\n    tag_694:\n        /* \"pdh.sol\":3678:3694  record.allergies */\n      0x05\n        /* \"pdh.sol\":61:5821  contract pdh {... */\n      0x00\n        /* \"pdh.sol\":3678:3694  record.allergies */\n      swap3\n      add\n        /* \"pdh.sol\":61:5821  contract pdh {... */\n      swap1\n      dup2\n      sload\n        /* \"pdh.sol\":3654:3873  for (uint256 i = 0; i < record.allergies.length; i++) {... */\n      swap3\n        /* \"pdh.sol\":3674:3701  i < record.allergies.length */\n    tag_695:\n      dup4\n      dup2\n      lt\n      tag_696\n      jumpi\n        /* \"pdh.sol\":3883:3895  return false */\n      pop\n      pop\n      pop\n      pop\n        /* \"pdh.sol\":61:5821  contract pdh {... */\n      0x00\n        /* \"pdh.sol\":3244:3903  function verifyAllergy(uint256 _patientId, string memory _proof) public view returns (bool) {... */\n      swap1\n      jump\t// out\n        /* \"pdh.sol\":3703:3706  i++ */\n    tag_696:\n        /* \"pdh.sol\":61:5821  contract pdh {... */\n      mload(0x40)\n      0x20\n        /* \"pdh.sol\":3737:3761  abi.encodePacked(_proof) */\n      dup2\n      add\n        /* \"pdh.sol\":61:5821  contract pdh {... */\n      swap1\n        /* \"pdh.sol\":3737:3761  abi.encodePacked(_proof) */\n      tag_698\n        /* \"pdh.sol\":61:5821  contract pdh {... */\n      0x20\n      dup3\n      dup7\n      mload\n      dup1\n      dup4\n      dup10\n      add\n      dup8\n      mcopy\n      dup2\n      add\n      0x00\n      dup4\n      dup3\n      add\n      mstore\n        /* \"pdh.sol\":3737:3761  abi.encodePacked(_proof) */\n      sub\n      add\n        /* \"pdh.sol\":5396:5418  abi.encodePacked(_pin) */\n      not(0x1f)\n        /* \"pdh.sol\":3737:3761  abi.encodePacked(_proof) */\n      dup2\n      add\n      dup4\n      mstore\n      dup3\n      tag_1\n      jump\t// in\n    tag_698:\n        /* \"pdh.sol\":61:5821  contract pdh {... */\n      mload\n        /* \"pdh.sol\":3727:3762  keccak256(abi.encodePacked(_proof)) */\n      swap1\n      keccak256\n        /* \"pdh.sol\":3793:3812  record.allergies[i] */\n      tag_699\n      dup3\n      dup6\n      tag_11\n      jump\t// in\n    tag_699:\n        /* \"pdh.sol\":61:5821  contract pdh {... */\n      pop\n      mload(0x40)\n        /* \"pdh.sol\":3776:3813  abi.encodePacked(record.allergies[i]) */\n      tag_700\n      dup2\n        /* \"pdh.sol\":61:5821  contract pdh {... */\n      tag_290\n      0x20\n        /* \"pdh.sol\":3776:3813  abi.encodePacked(record.allergies[i]) */\n      dup3\n      add\n        /* \"pdh.sol\":61:5821  contract pdh {... */\n      dup1\n      swap6\n      tag_10\n      jump\t// in\n        /* \"pdh.sol\":3776:3813  abi.encodePacked(record.allergies[i]) */\n    tag_700:\n        /* \"pdh.sol\":61:5821  contract pdh {... */\n      mload\n        /* \"pdh.sol\":3766:3814  keccak256(abi.encodePacked(record.allergies[i])) */\n      swap1\n      keccak256\n        /* \"pdh.sol\":3727:3814  keccak256(abi.encodePacked(_proof)) == keccak256(abi.encodePacked(record.allergies[i])) */\n      eq\n        /* \"pdh.sol\":3723:3862  if (keccak256(abi.encodePacked(_proof)) == keccak256(abi.encodePacked(record.allergies[i]))) {... */\n      tag_702\n      jumpi\n        /* \"pdh.sol\":3368:3381  nextPatientId */\n      0x01\n        /* \"pdh.sol\":61:5821  contract pdh {... */\n      add\n        /* \"pdh.sol\":3659:3672  uint256 i = 0 */\n      jump(tag_695)\n        /* \"pdh.sol\":3723:3862  if (keccak256(abi.encodePacked(_proof)) == keccak256(abi.encodePacked(record.allergies[i]))) {... */\n    tag_702:\n        /* \"pdh.sol\":3835:3846  return true */\n      pop\n      pop\n      pop\n      pop\n        /* \"pdh.sol\":3368:3381  nextPatientId */\n      0x01\n        /* \"pdh.sol\":3835:3846  return true */\n      swap1\n      jump\t// out\n        /* \"pdh.sol\":3529:3588  msg.sender == tx.origin || isAuthorized(record, msg.sender) */\n    tag_692:\n        /* \"pdh.sol\":3529:3539  msg.sender */\n      pop\n        /* \"pdh.sol\":3507:3641  require(... */\n      tag_694\n        /* \"pdh.sol\":3556:3588  isAuthorized(record, msg.sender) */\n      tag_704\n        /* \"pdh.sol\":3529:3539  msg.sender */\n      caller\n        /* \"pdh.sol\":3556:3588  isAuthorized(record, msg.sender) */\n      dup5\n      tag_17\n      jump\t// in\n    tag_704:\n        /* \"pdh.sol\":3529:3588  msg.sender == tx.origin || isAuthorized(record, msg.sender) */\n      swap1\n      pop\n      jump(tag_693)\n        /* \"pdh.sol\":3911:4232  function isAuthorized(PatientRecord storage record, address _caller) internal view returns (bool) {... */\n    tag_17:\n      swap1\n        /* \"pdh.sol\":61:5821  contract pdh {... */\n      0x00\n        /* \"pdh.sol\":4079:4082  i++ */\n    tag_705:\n        /* \"pdh.sol\":4044:4070  record.authorizedProviders */\n      0x0a\n      dup4\n      add\n        /* \"pdh.sol\":61:5821  contract pdh {... */\n      dup1\n      sload\n        /* \"pdh.sol\":4040:4077  i < record.authorizedProviders.length */\n      dup3\n      lt\n      iszero\n      tag_706\n      jumpi\n        /* \"pdh.sol\":4103:4132  record.authorizedProviders[i] */\n      dup2\n      tag_708\n      swap2\n      tag_11\n      jump\t// in\n    tag_708:\n        /* \"pdh.sol\":61:5821  contract pdh {... */\n      swap1\n      sload\n      0x03\n      swap2\n      swap1\n      swap2\n      shl\n      shr\n      sub(shl(0xa0, 0x01), 0x01)\n      swap1\n      dup2\n      and\n      swap1\n      dup4\n      and\n        /* \"pdh.sol\":4103:4143  record.authorizedProviders[i] == _caller */\n      eq\n        /* \"pdh.sol\":4099:4191  if (record.authorizedProviders[i] == _caller) {... */\n      tag_709\n      jumpi\n        /* \"pdh.sol\":61:5821  contract pdh {... */\n      0x01\n      add\n        /* \"pdh.sol\":4025:4038  uint256 i = 0 */\n      jump(tag_705)\n        /* \"pdh.sol\":4099:4191  if (record.authorizedProviders[i] == _caller) {... */\n    tag_709:\n        /* \"pdh.sol\":4164:4175  return true */\n      pop\n      pop\n      pop\n        /* \"pdh.sol\":61:5821  contract pdh {... */\n      0x01\n        /* \"pdh.sol\":4164:4175  return true */\n      swap1\n      jump\t// out\n        /* \"pdh.sol\":4040:4077  i < record.authorizedProviders.length */\n    tag_706:\n      pop\n      pop\n      pop\n      pop\n        /* \"pdh.sol\":61:5821  contract pdh {... */\n      0x00\n        /* \"pdh.sol\":3911:4232  function isAuthorized(PatientRecord storage record, address _caller) internal view returns (bool) {... */\n      swap1\n      jump\t// out\n\n    auxdata: 0xa2646970667358221220bae310c7c5e254c6a6a689f1a3b86e55c34b2f086d5f0a54be2bbcde6c63f85764736f6c634300081a0033\n}\n",
				"bytecode": {
					"linkReferences": {},
					"object": "60808060405234601557612335908161001a8239f35b5f80fdfe60806040526004361015610011575f80fd5b5f3560e01c80633c2bc6a114611cdb57806365dd152c14611c08578063a2b50896146110c8578063b1131795146110ab578063b38deff014610f96578063d3d188a114610eba578063d42dbee714610e97578063d9a5ec1b14610d8a578063e5f27aa314610cd75763ecc7fae414610087575f80fd5b34610cd357610100366003190112610cd3576004356001600160401b038111610cd3576100b8903690600401611e91565b6024356001600160401b038111610cd3576100d7903690600401611e91565b6044356001600160401b038111610cd3576100f6903690600401611e91565b916064356001600160401b038111610cd357610116903690600401611e91565b6084356001600160401b038111610cd357610135903690600401611f62565b9160a4356001600160401b038111610cd357610155903690600401611f62565b60c4356001600160401b038111610cd357610174903690600401611f62565b60e4356001600160401b038111610cd357610193903690600401611e91565b9160015495602095604051996101a9888c611e70565b5f8b525f368137604051996101808b018b81106001600160401b0382111761055357604052898b52888b0197885260408b0190815260608b0191825260808b0192835260a08b0193845260c08b0194855260e08b019586526101008b019687526101208b01975f89526101408c019c8d526101608c019a428c525f525f8a5260405f209b518c5560018c0190518051906001600160401b038211610553576102518354611feb565b8c601f8211610ca4575b50508b90601f8311600114610c3f5761028b92915f9183610567575b50508160011b915f199060031b1c19161790565b90555b51805160028c01916001600160401b038211610553576102ae8354611feb565b8b601f8211610c10575b50508a90601f8311600114610bab576102e792915f91836105675750508160011b915f199060031b1c19161790565b90555b51805160038b01916001600160401b0382116105535761030a8354611feb565b601f8111610b7d575b508990601f8311600114610b1a5761034192915f91836105675750508160011b915f199060031b1c19161790565b90555b51805160048a01916001600160401b038211610553576103648354611feb565b601f8111610aec575b508890601f8311600114610a895761039b92915f91836105675750508160011b915f199060031b1c19161790565b90555b5180516005890191600160401b82116105535787908354838555808410610a0d575b5001915f52865f205f925b82841061090a5750505050600687019051805190600160401b8211610553578690835483855580841061088f575b5001915f52855f205f925b82841061078c5750505050600786019051805190600160401b82116105535785908354838555808410610711575b5001915f52845f205f925b82841061060e57505050506008850190518051906001600160401b038211610553576104698354611feb565b601f81116105d5575b508490601f8311600114610572576104a092915f91836105675750508160011b915f199060031b1c19161790565b90555b516009840155600a83019351908151916001600160401b03831161055357600160401b83116105535781908654848855808510610538575b5001945f52805f20905f5b83811061051d578451600b8701556001545f198114610509576001016001555f80f35b634e487b7160e01b5f52601160045260245ffd5b86516001600160a01b031683820155958101956001016104e6565b61054d90885f5285845f20918201910161218e565b5f6104db565b634e487b7160e01b5f52604160045260245ffd5b015190505f80610277565b90601f19831691845f52865f20925f5b888282106105bf5750509084600195949392106105a7575b505050811b0190556104a3565b01515f1960f88460031b161c191690555f808061059a565b6001859682939686015181550195019301610582565b6105fe90845f52865f20601f850160051c810191888610610604575b601f0160051c019061218e565b5f610472565b90915081906105f1565b80519081516001600160401b03811161055357889261062d8554611feb565b601f81116106e3575b508390601f831160011461067957826001959386959361066a935f926105675750508160011b915f199060031b1c19161790565b85555b0192019301929061043d565b93929190601f19821690865f52845f20915f5b8181106106cb5750918391600197889796958895106106b3575b505050811b01855561066d565b01515f1960f88460031b161c191690555f80806106a6565b8783015184558d96600190940193928301920161068c565b61070b90865f52855f20601f850160051c81019187861061060457601f0160051c019061218e565b5f610636565b845f5283835f2091820191015b81811061072b5750610432565b60019192935061073b8154611feb565b8061074c575b50019087929161071e565b601f8111831461076157505f81555b5f610741565b61077c90825f5283601f8c5f20920160051c8201910161218e565b805f525f8981208183555561075b565b80519081516001600160401b0381116105535789926107ab8554611feb565b601f8111610861575b508390601f83116001146107f75782600195938695936107e8935f926105675750508160011b915f199060031b1c19161790565b85555b01920193019290610404565b93929190601f19821690865f52845f20915f5b818110610849575091839160019788979695889510610831575b505050811b0185556107eb565b01515f1960f88460031b161c191690555f8080610824565b8783015184558e96600190940193928301920161080a565b61088990865f52855f20601f850160051c81019187861061060457601f0160051c019061218e565b5f6107b4565b845f5283835f2091820191015b8181106108a957506103f9565b6001919293506108b98154611feb565b806108ca575b50019088929161089c565b601f811183146108df57505f81555b5f6108bf565b6108fa90825f5283601f8d5f20920160051c8201910161218e565b805f525f8a8120818355556108d9565b80519081516001600160401b038111610553578a926109298554611feb565b601f81116109df575b508390601f8311600114610975578260019593869593610966935f926105675750508160011b915f199060031b1c19161790565b85555b019201930192906103cb565b93929190601f19821690865f52845f20915f5b8181106109c75750918391600197889796958895106109af575b505050811b018555610969565b01515f1960f88460031b161c191690555f80806109a2565b8783015184558f966001909401939283019201610988565b610a0790865f52855f20601f850160051c81019187861061060457601f0160051c019061218e565b5f610932565b845f5283835f2091820191015b818110610a2757506103c0565b6001919293610a368254611feb565b80610a48575b50500190899291610a1a565b601f81118414610a5f5750505f81555b8a5f610a3c565b83601f610a7993855f525f20920160051c8201910161218e565b805f525f8b812081835555610a58565b90601f19831691845f528a5f20925f5b8c828210610ad6575050908460019594939210610abe575b505050811b01905561039e565b01515f1960f88460031b161c191690555f8080610ab1565b6001859682939686015181550195019301610a99565b610b1490845f528a5f20601f850160051c8101918c861061060457601f0160051c019061218e565b5f61036d565b90601f19831691845f528b5f20925f5b8d828210610b67575050908460019594939210610b4f575b505050811b019055610344565b01515f1960f88460031b161c191690555f8080610b42565b6001859682939686015181550195019301610b2a565b610ba590845f528b5f20601f850160051c8101918d861061060457601f0160051c019061218e565b5f610313565b5f8481528c8120929190601f198516908e5b828210610bf9575050908460019594939210610be1575b505050811b0190556102ea565b01515f1960f88460031b161c191690555f8080610bd4565b60018596829396860151815501950193018e610bbd565b610c3891855f52815f2090601f860160051c820192861061060457601f0160051c019061218e565b5f8b6102b8565b5f8481528d8120929190601f198516908f5b828210610c8d575050908460019594939210610c75575b505050811b01905561028e565b01515f1960f88460031b161c191690555f8080610c68565b60018596829396860151815501950193018f610c51565b610ccc91855f52815f2090601f860160051c820192861061060457601f0160051c019061218e565b5f8c61025b565b5f80fd5b34610cd3576020610ce736611ee6565b90610cf560015482106120c3565b5f525f82526004610d5b610d6960405f20933233148015610d75575b610d1a906121a4565b604051610d4587828180820195805191829101875e81015f838201520301601f198101835282611e70565b519020936040519283918783019586910161210f565b03601f198101835282611e70565b51902014604051908152f35b50610d1a610d8333876122b1565b9050610d11565b34610cd357610d9836611f3c565b90610da660015482106120c3565b5f908152602081905260408120600a01916001600160a01b0316905b825480821015610e955782610dd78386612179565b905460039190911b1c6001600160a01b031614610df75750600101610dc2565b5f1981019250821161050957610e2c610e13610e509385612179565b905460039190911b1c6001600160a01b03169184612179565b81546001600160a01b0393841660039290921b91821b9390911b1916919091179055565b80548015610e81575f190190610e668282612179565b81546001600160a01b0360039290921b9190911b1916905555005b634e487b7160e01b5f52603160045260245ffd5b005b34610cd3576020610eb0610eaa36611ee6565b906121f0565b6040519015158152f35b34610cd3576020366003190112610cd3576004355f525f602052602060405f20805490610ee960018201612023565b610f87610ef860028401612023565b610f79610f0760038601612023565b610f6b610f1660048801612023565b91610f5d610f2660088a01612023565b95610f4f600b60098c01549b0154996101006040519e8f9e8f90815201526101008d0190611f18565b908b820360408d0152611f18565b9089820360608b0152611f18565b908782036080890152611f18565b9085820360a0870152611f18565b9160c084015260e08301520390f35b34610cd357610fa436611ee6565b90610fb260015482106120c3565b5f52600260205260405f2081516001600160401b03811161055357610fd78254611feb565b601f811161107b575b50602092601f821160011461101f57611010929382915f926110145750508160011b915f199060031b1c19161790565b9055005b015190508480610277565b601f19821693835f52805f20915f5b868110611063575083600195961061104b575b505050811b019055005b01515f1960f88460031b161c19169055838080611041565b9192602060018192868501518155019401920161102e565b6110a590835f5260205f20601f840160051c8101916020851061060457601f0160051c019061218e565b83610fe0565b34610cd3575f366003190112610cd3576020600154604051908152f35b34610cd357610120366003190112610cd3576004356024356001600160401b038111610cd3576110fc903690600401611e91565b6044356001600160401b038111610cd35761111b903690600401611e91565b6064356001600160401b038111610cd35761113a903690600401611e91565b6084356001600160401b038111610cd357611159903690600401611e91565b60a4356001600160401b038111610cd357611178903690600401611f62565b9060c4356001600160401b038111610cd357611198903690600401611f62565b9260e4356001600160401b038111610cd3576111b8903690600401611f62565b94610104356001600160401b038111610cd3576111d9903690600401611e91565b976111e760015482106120c3565b5f525f60205260405f209660018801908051906001600160401b038211610553576112128354611feb565b601f8111611bd8575b50602090601f8311600114611b755761124a92915f91836115725750508160011b915f199060031b1c19161790565b90555b805160028801916001600160401b0382116105535761126c8354611feb565b601f8111611b45575b50602090601f8311600114611ae2576112a492915f9183611ad75750508160011b915f199060031b1c19161790565b90555b805160038701916001600160401b038211610553576112c68354611feb565b601f8111611aa7575b50602090601f8311600114611a44576112fe92915f9183611a395750508160011b915f199060031b1c19161790565b90555b805160048601916001600160401b038211610553576113208354611feb565b601f8111611a09575b50602090601f83116001146119a65761135892915f918361199b5750508160011b915f199060031b1c19161790565b90555b80516005850191600160401b8211610553578254828455808310611924575b50602001915f5260205f20915f905b82821061181457505050506006830190805190600160401b821161055357825482845580831061179d575b50602001915f5260205f20915f905b82821061168d57505050506007820190805190600160401b8211610553578254828455808310611616575b50602001915f5260205f20915f905b8282106115065785856008810182516001600160401b038111610553576114248254611feb565b601f81116114d6575b506020601f821160011461147557819061145d9394955f9261146a5750508160011b915f199060031b1c19161790565b90555b600b429101555f80f35b015190508580610277565b601f19821690835f52805f20915f5b8181106114be575095836001959697106114a6575b505050811b019055611460565b01515f1960f88460031b161c19169055848080611499565b9192602060018192868b015181550194019201611484565b61150090835f5260205f20601f840160051c8101916020851061060457601f0160051c019061218e565b8461142d565b80518051906001600160401b038211610553576115238654611feb565b601f81116115e6575b50602090601f831160011461157d5792611563836001959460209487965f926115725750508160011b915f199060031b1c19161790565b87555b019401910190926113fd565b015190508c80610277565b90601f19831691875f52815f20925f5b8181106115ce57509360209360019693879693838895106115b6575b505050811b018755611566565b01515f1960f88460031b161c191690558b80806115a9565b9293602060018192878601518155019501930161158d565b61161090875f5260205f20601f850160051c8101916020861061060457601f0160051c019061218e565b8861152c565b835f528260205f2091820191015b81811061163157506113ee565b8061163e60019254611feb565b8061164b575b5001611624565b601f8111831461166057505f81555b88611644565b61167c90825f5283601f60205f20920160051c8201910161218e565b805f525f602081208183555561165a565b80518051906001600160401b038211610553576116aa8654611feb565b601f811161176d575b50602090601f831160011461170457926116ea836001959460209487965f926116f95750508160011b915f199060031b1c19161790565b87555b019401910190926113c3565b015190508d80610277565b90601f19831691875f52815f20925f5b818110611755575093602093600196938796938388951061173d575b505050811b0187556116ed565b01515f1960f88460031b161c191690558c8080611730565b92936020600181928786015181550195019301611714565b61179790875f5260205f20601f850160051c8101916020861061060457601f0160051c019061218e565b896116b3565b835f528260205f2091820191015b8181106117b857506113b4565b806117c560019254611feb565b806117d2575b50016117ab565b601f811183146117e757505f81555b896117cb565b61180390825f5283601f60205f20920160051c8201910161218e565b805f525f60208120818355556117e1565b80518051906001600160401b038211610553576118318654611feb565b601f81116118f4575b50602090601f831160011461188b5792611871836001959460209487965f926118805750508160011b915f199060031b1c19161790565b87555b01940191019092611389565b015190508e80610277565b90601f19831691875f52815f20925f5b8181106118dc57509360209360019693879693838895106118c4575b505050811b018755611874565b01515f1960f88460031b161c191690558d80806118b7565b9293602060018192878601518155019501930161189b565b61191e90875f5260205f20601f850160051c8101916020861061060457601f0160051c019061218e565b8a61183a565b835f528260205f2091820191015b81811061193f575061137a565b8061194c60019254611feb565b80611959575b5001611932565b601f8111831461196e57505f81555b8a611952565b61198a90825f5283601f60205f20920160051c8201910161218e565b805f525f6020812081835555611968565b015190508980610277565b90601f19831691845f52815f20925f5b8181106119f157509084600195949392106119d9575b505050811b01905561135b565b01515f1960f88460031b161c191690558880806119cc565b929360206001819287860151815501950193016119b6565b611a3390845f5260205f20601f850160051c8101916020861061060457601f0160051c019061218e565b88611329565b015190508a80610277565b90601f19831691845f52815f20925f5b818110611a8f5750908460019594939210611a77575b505050811b019055611301565b01515f1960f88460031b161c19169055898080611a6a565b92936020600181928786015181550195019301611a54565b611ad190845f5260205f20601f850160051c8101916020861061060457601f0160051c019061218e565b896112cf565b015190508b80610277565b90601f19831691845f52815f20925f5b818110611b2d5750908460019594939210611b15575b505050811b0190556112a7565b01515f1960f88460031b161c191690558a8080611b08565b92936020600181928786015181550195019301611af2565b611b6f90845f5260205f20601f850160051c8101916020861061060457601f0160051c019061218e565b8a611275565b90601f19831691845f52815f20925f5b818110611bc05750908460019594939210611ba8575b505050811b01905561124d565b01515f1960f88460031b161c191690558b8080611b9b565b92936020600181928786015181550195019301611b85565b611c0290845f5260205f20601f850160051c8101916020861061060457601f0160051c019061218e565b8b61121b565b34610cd357611c1636611f3c565b90611c2460015482106120c3565b5f908152602081905260408120600a01805492916001600160a01b038316905b848110611c6c575050600160401b8310156105535782610e2c916001610e9595018155612179565b81611c778285612179565b905460039190911b1c6001600160a01b031614611c9657600101611c44565b60405162461bcd60e51b815260206004820152601c60248201527f50726f766964657220616c726561647920686173206163636573732e000000006044820152606490fd5b34610cd357611ce936611ee6565b611cf660015483106120c3565b604051611d226020828180820195805191829101875e81015f838201520301601f198101835282611e70565b519020815f52600260205260405f20604051611d4681610d5b60208201809561210f565b51902003611e3c575f525f60205260405f206005810190815415155f14611e0757815415611df357611dc5915f52611def611d8360205f20612023565b915b611de1611d9460018301612023565b93611dd3611db06008611da960048701612023565b9501612023565b93604051978897608089526080890190611f18565b908782036020890152611f18565b908582036040870152611f18565b908382036060850152611f18565b0390f35b634e487b7160e01b5f52603260045260245ffd5b611dc59150611def604051611e1d604082611e70565b600c81526b4e6f20616c6c65726769657360a01b602082015291611d85565b60405162461bcd60e51b815260206004820152600c60248201526b24b73b30b634b2102824a71760a11b6044820152606490fd5b90601f801991011681019081106001600160401b0382111761055357604052565b81601f82011215610cd3578035906001600160401b0382116105535760405192611ec5601f8401601f191660200185611e70565b82845260208383010111610cd357815f926020809301838601378301015290565b906040600319830112610cd35760043591602435906001600160401b038211610cd357611f1591600401611e91565b90565b805180835260209291819084018484015e5f828201840152601f01601f1916010190565b6040906003190112610cd357600435906024356001600160a01b0381168103610cd35790565b9080601f83011215610cd3578135916001600160401b038311610553578260051b906020820193611f966040519586611e70565b845260208085019282010191838311610cd35760208201905b838210611fbe57505050505090565b81356001600160401b038111610cd357602091611fe087848094880101611e91565b815201910190611faf565b90600182811c92168015612019575b602083101461200557565b634e487b7160e01b5f52602260045260245ffd5b91607f1691611ffa565b9060405191825f82549261203684611feb565b80845293600181169081156120a1575060011461205d575b5061205b92500383611e70565b565b90505f9291925260205f20905f915b81831061208557505090602061205b928201015f61204e565b602091935080600191548385890101520191019091849261206c565b90506020925061205b94915060ff191682840152151560051b8201015f61204e565b156120ca57565b60405162461bcd60e51b815260206004820152601e60248201527f50617469656e74207265636f726420646f6573206e6f742065786973742e00006044820152606490fd5b5f929181549161211e83611feb565b9260018116908115612166575060011461213757505050565b90919293505f5260205f205f905b8382106121525750500190565b600181602092548486015201910190612145565b60ff191683525050811515909102019150565b8054821015611df3575f5260205f2001905f90565b818110612199575050565b5f815560010161218e565b156121ab57565b60405162461bcd60e51b815260206004820152601960248201527f4e6f7420617574686f72697a656420746f207665726966792e000000000000006044820152606490fd5b6121fd60015482106120c3565b5f525f60205260405f2090323314801561229c575b61221b906121a4565b60055f9201908154925b83811061223457505050505f90565b6040516020810190612260602082865180838901875e81015f838201520301601f198101835282611e70565b51902061226d8285612179565b5060405161228381610d5b60208201809561210f565b5190201461229357600101612225565b50505050600190565b5061221b6122aa33846122b1565b9050612212565b905f5b600a830180548210156122f757816122cb91612179565b905460039190911b1c6001600160a01b03908116908316146122ef576001016122b4565b505050600190565b505050505f9056fea2646970667358221220bae310c7c5e254c6a6a689f1a3b86e55c34b2f086d5f0a54be2bbcde6c63f85764736f6c634300081a0033",
					"opcodes": "PUSH1 0x80 DUP1 PUSH1 0x40 MSTORE CALLVALUE PUSH1 0x15 JUMPI PUSH2 0x2335 SWAP1 DUP2 PUSH2 0x1A DUP3 CODECOPY RETURN JUMPDEST PUSH0 DUP1 REVERT INVALID PUSH1 0x80 PUSH1 0x40 MSTORE PUSH1 0x4 CALLDATASIZE LT ISZERO PUSH2 0x11 JUMPI PUSH0 DUP1 REVERT JUMPDEST PUSH0 CALLDATALOAD PUSH1 0xE0 SHR DUP1 PUSH4 0x3C2BC6A1 EQ PUSH2 0x1CDB JUMPI DUP1 PUSH4 0x65DD152C EQ PUSH2 0x1C08 JUMPI DUP1 PUSH4 0xA2B50896 EQ PUSH2 0x10C8 JUMPI DUP1 PUSH4 0xB1131795 EQ PUSH2 0x10AB JUMPI DUP1 PUSH4 0xB38DEFF0 EQ PUSH2 0xF96 JUMPI DUP1 PUSH4 0xD3D188A1 EQ PUSH2 0xEBA JUMPI DUP1 PUSH4 0xD42DBEE7 EQ PUSH2 0xE97 JUMPI DUP1 PUSH4 0xD9A5EC1B EQ PUSH2 0xD8A JUMPI DUP1 PUSH4 0xE5F27AA3 EQ PUSH2 0xCD7 JUMPI PUSH4 0xECC7FAE4 EQ PUSH2 0x87 JUMPI PUSH0 DUP1 REVERT JUMPDEST CALLVALUE PUSH2 0xCD3 JUMPI PUSH2 0x100 CALLDATASIZE PUSH1 0x3 NOT ADD SLT PUSH2 0xCD3 JUMPI PUSH1 0x4 CALLDATALOAD PUSH1 0x1 PUSH1 0x1 PUSH1 0x40 SHL SUB DUP2 GT PUSH2 0xCD3 JUMPI PUSH2 0xB8 SWAP1 CALLDATASIZE SWAP1 PUSH1 0x4 ADD PUSH2 0x1E91 JUMP JUMPDEST PUSH1 0x24 CALLDATALOAD PUSH1 0x1 PUSH1 0x1 PUSH1 0x40 SHL SUB DUP2 GT PUSH2 0xCD3 JUMPI PUSH2 0xD7 SWAP1 CALLDATASIZE SWAP1 PUSH1 0x4 ADD PUSH2 0x1E91 JUMP JUMPDEST PUSH1 0x44 CALLDATALOAD PUSH1 0x1 PUSH1 0x1 PUSH1 0x40 SHL SUB DUP2 GT PUSH2 0xCD3 JUMPI PUSH2 0xF6 SWAP1 CALLDATASIZE SWAP1 PUSH1 0x4 ADD PUSH2 0x1E91 JUMP JUMPDEST SWAP2 PUSH1 0x64 CALLDATALOAD PUSH1 0x1 PUSH1 0x1 PUSH1 0x40 SHL SUB DUP2 GT PUSH2 0xCD3 JUMPI PUSH2 0x116 SWAP1 CALLDATASIZE SWAP1 PUSH1 0x4 ADD PUSH2 0x1E91 JUMP JUMPDEST PUSH1 0x84 CALLDATALOAD PUSH1 0x1 PUSH1 0x1 PUSH1 0x40 SHL SUB DUP2 GT PUSH2 0xCD3 JUMPI PUSH2 0x135 SWAP1 CALLDATASIZE SWAP1 PUSH1 0x4 ADD PUSH2 0x1F62 JUMP JUMPDEST SWAP2 PUSH1 0xA4 CALLDATALOAD PUSH1 0x1 PUSH1 0x1 PUSH1 0x40 SHL SUB DUP2 GT PUSH2 0xCD3 JUMPI PUSH2 0x155 SWAP1 CALLDATASIZE SWAP1 PUSH1 0x4 ADD PUSH2 0x1F62 JUMP JUMPDEST PUSH1 0xC4 CALLDATALOAD PUSH1 0x1 PUSH1 0x1 PUSH1 0x40 SHL SUB DUP2 GT PUSH2 0xCD3 JUMPI PUSH2 0x174 SWAP1 CALLDATASIZE SWAP1 PUSH1 0x4 ADD PUSH2 0x1F62 JUMP JUMPDEST PUSH1 0xE4 CALLDATALOAD PUSH1 0x1 PUSH1 0x1 PUSH1 0x40 SHL SUB DUP2 GT PUSH2 0xCD3 JUMPI PUSH2 0x193 SWAP1 CALLDATASIZE SWAP1 PUSH1 0x4 ADD PUSH2 0x1E91 JUMP JUMPDEST SWAP2 PUSH1 0x1 SLOAD SWAP6 PUSH1 0x20 SWAP6 PUSH1 0x40 MLOAD SWAP10 PUSH2 0x1A9 DUP9 DUP13 PUSH2 0x1E70 JUMP JUMPDEST PUSH0 DUP12 MSTORE PUSH0 CALLDATASIZE DUP2 CALLDATACOPY PUSH1 0x40 MLOAD SWAP10 PUSH2 0x180 DUP12 ADD DUP12 DUP2 LT PUSH1 0x1 PUSH1 0x1 PUSH1 0x40 SHL SUB DUP3 GT OR PUSH2 0x553 JUMPI PUSH1 0x40 MSTORE DUP10 DUP12 MSTORE DUP9 DUP12 ADD SWAP8 DUP9 MSTORE PUSH1 0x40 DUP12 ADD SWAP1 DUP2 MSTORE PUSH1 0x60 DUP12 ADD SWAP2 DUP3 MSTORE PUSH1 0x80 DUP12 ADD SWAP3 DUP4 MSTORE PUSH1 0xA0 DUP12 ADD SWAP4 DUP5 MSTORE PUSH1 0xC0 DUP12 ADD SWAP5 DUP6 MSTORE PUSH1 0xE0 DUP12 ADD SWAP6 DUP7 MSTORE PUSH2 0x100 DUP12 ADD SWAP7 DUP8 MSTORE PUSH2 0x120 DUP12 ADD SWAP8 PUSH0 DUP10 MSTORE PUSH2 0x140 DUP13 ADD SWAP13 DUP14 MSTORE PUSH2 0x160 DUP13 ADD SWAP11 TIMESTAMP DUP13 MSTORE PUSH0 MSTORE PUSH0 DUP11 MSTORE PUSH1 0x40 PUSH0 KECCAK256 SWAP12 MLOAD DUP13 SSTORE PUSH1 0x1 DUP13 ADD SWAP1 MLOAD DUP1 MLOAD SWAP1 PUSH1 0x1 PUSH1 0x1 PUSH1 0x40 SHL SUB DUP3 GT PUSH2 0x553 JUMPI PUSH2 0x251 DUP4 SLOAD PUSH2 0x1FEB JUMP JUMPDEST DUP13 PUSH1 0x1F DUP3 GT PUSH2 0xCA4 JUMPI JUMPDEST POP POP DUP12 SWAP1 PUSH1 0x1F DUP4 GT PUSH1 0x1 EQ PUSH2 0xC3F JUMPI PUSH2 0x28B SWAP3 SWAP2 PUSH0 SWAP2 DUP4 PUSH2 0x567 JUMPI JUMPDEST POP POP DUP2 PUSH1 0x1 SHL SWAP2 PUSH0 NOT SWAP1 PUSH1 0x3 SHL SHR NOT AND OR SWAP1 JUMP JUMPDEST SWAP1 SSTORE JUMPDEST MLOAD DUP1 MLOAD PUSH1 0x2 DUP13 ADD SWAP2 PUSH1 0x1 PUSH1 0x1 PUSH1 0x40 SHL SUB DUP3 GT PUSH2 0x553 JUMPI PUSH2 0x2AE DUP4 SLOAD PUSH2 0x1FEB JUMP JUMPDEST DUP12 PUSH1 0x1F DUP3 GT PUSH2 0xC10 JUMPI JUMPDEST POP POP DUP11 SWAP1 PUSH1 0x1F DUP4 GT PUSH1 0x1 EQ PUSH2 0xBAB JUMPI PUSH2 0x2E7 SWAP3 SWAP2 PUSH0 SWAP2 DUP4 PUSH2 0x567 JUMPI POP POP DUP2 PUSH1 0x1 SHL SWAP2 PUSH0 NOT SWAP1 PUSH1 0x3 SHL SHR NOT AND OR SWAP1 JUMP JUMPDEST SWAP1 SSTORE JUMPDEST MLOAD DUP1 MLOAD PUSH1 0x3 DUP12 ADD SWAP2 PUSH1 0x1 PUSH1 0x1 PUSH1 0x40 SHL SUB DUP3 GT PUSH2 0x553 JUMPI PUSH2 0x30A DUP4 SLOAD PUSH2 0x1FEB JUMP JUMPDEST PUSH1 0x1F DUP2 GT PUSH2 0xB7D JUMPI JUMPDEST POP DUP10 SWAP1 PUSH1 0x1F DUP4 GT PUSH1 0x1 EQ PUSH2 0xB1A JUMPI PUSH2 0x341 SWAP3 SWAP2 PUSH0 SWAP2 DUP4 PUSH2 0x567 JUMPI POP POP DUP2 PUSH1 0x1 SHL SWAP2 PUSH0 NOT SWAP1 PUSH1 0x3 SHL SHR NOT AND OR SWAP1 JUMP JUMPDEST SWAP1 SSTORE JUMPDEST MLOAD DUP1 MLOAD PUSH1 0x4 DUP11 ADD SWAP2 PUSH1 0x1 PUSH1 0x1 PUSH1 0x40 SHL SUB DUP3 GT PUSH2 0x553 JUMPI PUSH2 0x364 DUP4 SLOAD PUSH2 0x1FEB JUMP JUMPDEST PUSH1 0x1F DUP2 GT PUSH2 0xAEC JUMPI JUMPDEST POP DUP9 SWAP1 PUSH1 0x1F DUP4 GT PUSH1 0x1 EQ PUSH2 0xA89 JUMPI PUSH2 0x39B SWAP3 SWAP2 PUSH0 SWAP2 DUP4 PUSH2 0x567 JUMPI POP POP DUP2 PUSH1 0x1 SHL SWAP2 PUSH0 NOT SWAP1 PUSH1 0x3 SHL SHR NOT AND OR SWAP1 JUMP JUMPDEST SWAP1 SSTORE JUMPDEST MLOAD DUP1 MLOAD PUSH1 0x5 DUP10 ADD SWAP2 PUSH1 0x1 PUSH1 0x40 SHL DUP3 GT PUSH2 0x553 JUMPI DUP8 SWAP1 DUP4 SLOAD DUP4 DUP6 SSTORE DUP1 DUP5 LT PUSH2 0xA0D JUMPI JUMPDEST POP ADD SWAP2 PUSH0 MSTORE DUP7 PUSH0 KECCAK256 PUSH0 SWAP3 JUMPDEST DUP3 DUP5 LT PUSH2 0x90A JUMPI POP POP POP POP PUSH1 0x6 DUP8 ADD SWAP1 MLOAD DUP1 MLOAD SWAP1 PUSH1 0x1 PUSH1 0x40 SHL DUP3 GT PUSH2 0x553 JUMPI DUP7 SWAP1 DUP4 SLOAD DUP4 DUP6 SSTORE DUP1 DUP5 LT PUSH2 0x88F JUMPI JUMPDEST POP ADD SWAP2 PUSH0 MSTORE DUP6 PUSH0 KECCAK256 PUSH0 SWAP3 JUMPDEST DUP3 DUP5 LT PUSH2 0x78C JUMPI POP POP POP POP PUSH1 0x7 DUP7 ADD SWAP1 MLOAD DUP1 MLOAD SWAP1 PUSH1 0x1 PUSH1 0x40 SHL DUP3 GT PUSH2 0x553 JUMPI DUP6 SWAP1 DUP4 SLOAD DUP4 DUP6 SSTORE DUP1 DUP5 LT PUSH2 0x711 JUMPI JUMPDEST POP ADD SWAP2 PUSH0 MSTORE DUP5 PUSH0 KECCAK256 PUSH0 SWAP3 JUMPDEST DUP3 DUP5 LT PUSH2 0x60E JUMPI POP POP POP POP PUSH1 0x8 DUP6 ADD SWAP1 MLOAD DUP1 MLOAD SWAP1 PUSH1 0x1 PUSH1 0x1 PUSH1 0x40 SHL SUB DUP3 GT PUSH2 0x553 JUMPI PUSH2 0x469 DUP4 SLOAD PUSH2 0x1FEB JUMP JUMPDEST PUSH1 0x1F DUP2 GT PUSH2 0x5D5 JUMPI JUMPDEST POP DUP5 SWAP1 PUSH1 0x1F DUP4 GT PUSH1 0x1 EQ PUSH2 0x572 JUMPI PUSH2 0x4A0 SWAP3 SWAP2 PUSH0 SWAP2 DUP4 PUSH2 0x567 JUMPI POP POP DUP2 PUSH1 0x1 SHL SWAP2 PUSH0 NOT SWAP1 PUSH1 0x3 SHL SHR NOT AND OR SWAP1 JUMP JUMPDEST SWAP1 SSTORE JUMPDEST MLOAD PUSH1 0x9 DUP5 ADD SSTORE PUSH1 0xA DUP4 ADD SWAP4 MLOAD SWAP1 DUP2 MLOAD SWAP2 PUSH1 0x1 PUSH1 0x1 PUSH1 0x40 SHL SUB DUP4 GT PUSH2 0x553 JUMPI PUSH1 0x1 PUSH1 0x40 SHL DUP4 GT PUSH2 0x553 JUMPI DUP2 SWAP1 DUP7 SLOAD DUP5 DUP9 SSTORE DUP1 DUP6 LT PUSH2 0x538 JUMPI JUMPDEST POP ADD SWAP5 PUSH0 MSTORE DUP1 PUSH0 KECCAK256 SWAP1 PUSH0 JUMPDEST DUP4 DUP2 LT PUSH2 0x51D JUMPI DUP5 MLOAD PUSH1 0xB DUP8 ADD SSTORE PUSH1 0x1 SLOAD PUSH0 NOT DUP2 EQ PUSH2 0x509 JUMPI PUSH1 0x1 ADD PUSH1 0x1 SSTORE PUSH0 DUP1 RETURN JUMPDEST PUSH4 0x4E487B71 PUSH1 0xE0 SHL PUSH0 MSTORE PUSH1 0x11 PUSH1 0x4 MSTORE PUSH1 0x24 PUSH0 REVERT JUMPDEST DUP7 MLOAD PUSH1 0x1 PUSH1 0x1 PUSH1 0xA0 SHL SUB AND DUP4 DUP3 ADD SSTORE SWAP6 DUP2 ADD SWAP6 PUSH1 0x1 ADD PUSH2 0x4E6 JUMP JUMPDEST PUSH2 0x54D SWAP1 DUP9 PUSH0 MSTORE DUP6 DUP5 PUSH0 KECCAK256 SWAP2 DUP3 ADD SWAP2 ADD PUSH2 0x218E JUMP JUMPDEST PUSH0 PUSH2 0x4DB JUMP JUMPDEST PUSH4 0x4E487B71 PUSH1 0xE0 SHL PUSH0 MSTORE PUSH1 0x41 PUSH1 0x4 MSTORE PUSH1 0x24 PUSH0 REVERT JUMPDEST ADD MLOAD SWAP1 POP PUSH0 DUP1 PUSH2 0x277 JUMP JUMPDEST SWAP1 PUSH1 0x1F NOT DUP4 AND SWAP2 DUP5 PUSH0 MSTORE DUP7 PUSH0 KECCAK256 SWAP3 PUSH0 JUMPDEST DUP9 DUP3 DUP3 LT PUSH2 0x5BF JUMPI POP POP SWAP1 DUP5 PUSH1 0x1 SWAP6 SWAP5 SWAP4 SWAP3 LT PUSH2 0x5A7 JUMPI JUMPDEST POP POP POP DUP2 SHL ADD SWAP1 SSTORE PUSH2 0x4A3 JUMP JUMPDEST ADD MLOAD PUSH0 NOT PUSH1 0xF8 DUP5 PUSH1 0x3 SHL AND SHR NOT AND SWAP1 SSTORE PUSH0 DUP1 DUP1 PUSH2 0x59A JUMP JUMPDEST PUSH1 0x1 DUP6 SWAP7 DUP3 SWAP4 SWAP7 DUP7 ADD MLOAD DUP2 SSTORE ADD SWAP6 ADD SWAP4 ADD PUSH2 0x582 JUMP JUMPDEST PUSH2 0x5FE SWAP1 DUP5 PUSH0 MSTORE DUP7 PUSH0 KECCAK256 PUSH1 0x1F DUP6 ADD PUSH1 0x5 SHR DUP2 ADD SWAP2 DUP9 DUP7 LT PUSH2 0x604 JUMPI JUMPDEST PUSH1 0x1F ADD PUSH1 0x5 SHR ADD SWAP1 PUSH2 0x218E JUMP JUMPDEST PUSH0 PUSH2 0x472 JUMP JUMPDEST SWAP1 SWAP2 POP DUP2 SWAP1 PUSH2 0x5F1 JUMP JUMPDEST DUP1 MLOAD SWAP1 DUP2 MLOAD PUSH1 0x1 PUSH1 0x1 PUSH1 0x40 SHL SUB DUP2 GT PUSH2 0x553 JUMPI DUP9 SWAP3 PUSH2 0x62D DUP6 SLOAD PUSH2 0x1FEB JUMP JUMPDEST PUSH1 0x1F DUP2 GT PUSH2 0x6E3 JUMPI JUMPDEST POP DUP4 SWAP1 PUSH1 0x1F DUP4 GT PUSH1 0x1 EQ PUSH2 0x679 JUMPI DUP3 PUSH1 0x1 SWAP6 SWAP4 DUP7 SWAP6 SWAP4 PUSH2 0x66A SWAP4 PUSH0 SWAP3 PUSH2 0x567 JUMPI POP POP DUP2 PUSH1 0x1 SHL SWAP2 PUSH0 NOT SWAP1 PUSH1 0x3 SHL SHR NOT AND OR SWAP1 JUMP JUMPDEST DUP6 SSTORE JUMPDEST ADD SWAP3 ADD SWAP4 ADD SWAP3 SWAP1 PUSH2 0x43D JUMP JUMPDEST SWAP4 SWAP3 SWAP2 SWAP1 PUSH1 0x1F NOT DUP3 AND SWAP1 DUP7 PUSH0 MSTORE DUP5 PUSH0 KECCAK256 SWAP2 PUSH0 JUMPDEST DUP2 DUP2 LT PUSH2 0x6CB JUMPI POP SWAP2 DUP4 SWAP2 PUSH1 0x1 SWAP8 DUP9 SWAP8 SWAP7 SWAP6 DUP9 SWAP6 LT PUSH2 0x6B3 JUMPI JUMPDEST POP POP POP DUP2 SHL ADD DUP6 SSTORE PUSH2 0x66D JUMP JUMPDEST ADD MLOAD PUSH0 NOT PUSH1 0xF8 DUP5 PUSH1 0x3 SHL AND SHR NOT AND SWAP1 SSTORE PUSH0 DUP1 DUP1 PUSH2 0x6A6 JUMP JUMPDEST DUP8 DUP4 ADD MLOAD DUP5 SSTORE DUP14 SWAP7 PUSH1 0x1 SWAP1 SWAP5 ADD SWAP4 SWAP3 DUP4 ADD SWAP3 ADD PUSH2 0x68C JUMP JUMPDEST PUSH2 0x70B SWAP1 DUP7 PUSH0 MSTORE DUP6 PUSH0 KECCAK256 PUSH1 0x1F DUP6 ADD PUSH1 0x5 SHR DUP2 ADD SWAP2 DUP8 DUP7 LT PUSH2 0x604 JUMPI PUSH1 0x1F ADD PUSH1 0x5 SHR ADD SWAP1 PUSH2 0x218E JUMP JUMPDEST PUSH0 PUSH2 0x636 JUMP JUMPDEST DUP5 PUSH0 MSTORE DUP4 DUP4 PUSH0 KECCAK256 SWAP2 DUP3 ADD SWAP2 ADD JUMPDEST DUP2 DUP2 LT PUSH2 0x72B JUMPI POP PUSH2 0x432 JUMP JUMPDEST PUSH1 0x1 SWAP2 SWAP3 SWAP4 POP PUSH2 0x73B DUP2 SLOAD PUSH2 0x1FEB JUMP JUMPDEST DUP1 PUSH2 0x74C JUMPI JUMPDEST POP ADD SWAP1 DUP8 SWAP3 SWAP2 PUSH2 0x71E JUMP JUMPDEST PUSH1 0x1F DUP2 GT DUP4 EQ PUSH2 0x761 JUMPI POP PUSH0 DUP2 SSTORE JUMPDEST PUSH0 PUSH2 0x741 JUMP JUMPDEST PUSH2 0x77C SWAP1 DUP3 PUSH0 MSTORE DUP4 PUSH1 0x1F DUP13 PUSH0 KECCAK256 SWAP3 ADD PUSH1 0x5 SHR DUP3 ADD SWAP2 ADD PUSH2 0x218E JUMP JUMPDEST DUP1 PUSH0 MSTORE PUSH0 DUP10 DUP2 KECCAK256 DUP2 DUP4 SSTORE SSTORE PUSH2 0x75B JUMP JUMPDEST DUP1 MLOAD SWAP1 DUP2 MLOAD PUSH1 0x1 PUSH1 0x1 PUSH1 0x40 SHL SUB DUP2 GT PUSH2 0x553 JUMPI DUP10 SWAP3 PUSH2 0x7AB DUP6 SLOAD PUSH2 0x1FEB JUMP JUMPDEST PUSH1 0x1F DUP2 GT PUSH2 0x861 JUMPI JUMPDEST POP DUP4 SWAP1 PUSH1 0x1F DUP4 GT PUSH1 0x1 EQ PUSH2 0x7F7 JUMPI DUP3 PUSH1 0x1 SWAP6 SWAP4 DUP7 SWAP6 SWAP4 PUSH2 0x7E8 SWAP4 PUSH0 SWAP3 PUSH2 0x567 JUMPI POP POP DUP2 PUSH1 0x1 SHL SWAP2 PUSH0 NOT SWAP1 PUSH1 0x3 SHL SHR NOT AND OR SWAP1 JUMP JUMPDEST DUP6 SSTORE JUMPDEST ADD SWAP3 ADD SWAP4 ADD SWAP3 SWAP1 PUSH2 0x404 JUMP JUMPDEST SWAP4 SWAP3 SWAP2 SWAP1 PUSH1 0x1F NOT DUP3 AND SWAP1 DUP7 PUSH0 MSTORE DUP5 PUSH0 KECCAK256 SWAP2 PUSH0 JUMPDEST DUP2 DUP2 LT PUSH2 0x849 JUMPI POP SWAP2 DUP4 SWAP2 PUSH1 0x1 SWAP8 DUP9 SWAP8 SWAP7 SWAP6 DUP9 SWAP6 LT PUSH2 0x831 JUMPI JUMPDEST POP POP POP DUP2 SHL ADD DUP6 SSTORE PUSH2 0x7EB JUMP JUMPDEST ADD MLOAD PUSH0 NOT PUSH1 0xF8 DUP5 PUSH1 0x3 SHL AND SHR NOT AND SWAP1 SSTORE PUSH0 DUP1 DUP1 PUSH2 0x824 JUMP JUMPDEST DUP8 DUP4 ADD MLOAD DUP5 SSTORE DUP15 SWAP7 PUSH1 0x1 SWAP1 SWAP5 ADD SWAP4 SWAP3 DUP4 ADD SWAP3 ADD PUSH2 0x80A JUMP JUMPDEST PUSH2 0x889 SWAP1 DUP7 PUSH0 MSTORE DUP6 PUSH0 KECCAK256 PUSH1 0x1F DUP6 ADD PUSH1 0x5 SHR DUP2 ADD SWAP2 DUP8 DUP7 LT PUSH2 0x604 JUMPI PUSH1 0x1F ADD PUSH1 0x5 SHR ADD SWAP1 PUSH2 0x218E JUMP JUMPDEST PUSH0 PUSH2 0x7B4 JUMP JUMPDEST DUP5 PUSH0 MSTORE DUP4 DUP4 PUSH0 KECCAK256 SWAP2 DUP3 ADD SWAP2 ADD JUMPDEST DUP2 DUP2 LT PUSH2 0x8A9 JUMPI POP PUSH2 0x3F9 JUMP JUMPDEST PUSH1 0x1 SWAP2 SWAP3 SWAP4 POP PUSH2 0x8B9 DUP2 SLOAD PUSH2 0x1FEB JUMP JUMPDEST DUP1 PUSH2 0x8CA JUMPI JUMPDEST POP ADD SWAP1 DUP9 SWAP3 SWAP2 PUSH2 0x89C JUMP JUMPDEST PUSH1 0x1F DUP2 GT DUP4 EQ PUSH2 0x8DF JUMPI POP PUSH0 DUP2 SSTORE JUMPDEST PUSH0 PUSH2 0x8BF JUMP JUMPDEST PUSH2 0x8FA SWAP1 DUP3 PUSH0 MSTORE DUP4 PUSH1 0x1F DUP14 PUSH0 KECCAK256 SWAP3 ADD PUSH1 0x5 SHR DUP3 ADD SWAP2 ADD PUSH2 0x218E JUMP JUMPDEST DUP1 PUSH0 MSTORE PUSH0 DUP11 DUP2 KECCAK256 DUP2 DUP4 SSTORE SSTORE PUSH2 0x8D9 JUMP JUMPDEST DUP1 MLOAD SWAP1 DUP2 MLOAD PUSH1 0x1 PUSH1 0x1 PUSH1 0x40 SHL SUB DUP2 GT PUSH2 0x553 JUMPI DUP11 SWAP3 PUSH2 0x929 DUP6 SLOAD PUSH2 0x1FEB JUMP JUMPDEST PUSH1 0x1F DUP2 GT PUSH2 0x9DF JUMPI JUMPDEST POP DUP4 SWAP1 PUSH1 0x1F DUP4 GT PUSH1 0x1 EQ PUSH2 0x975 JUMPI DUP3 PUSH1 0x1 SWAP6 SWAP4 DUP7 SWAP6 SWAP4 PUSH2 0x966 SWAP4 PUSH0 SWAP3 PUSH2 0x567 JUMPI POP POP DUP2 PUSH1 0x1 SHL SWAP2 PUSH0 NOT SWAP1 PUSH1 0x3 SHL SHR NOT AND OR SWAP1 JUMP JUMPDEST DUP6 SSTORE JUMPDEST ADD SWAP3 ADD SWAP4 ADD SWAP3 SWAP1 PUSH2 0x3CB JUMP JUMPDEST SWAP4 SWAP3 SWAP2 SWAP1 PUSH1 0x1F NOT DUP3 AND SWAP1 DUP7 PUSH0 MSTORE DUP5 PUSH0 KECCAK256 SWAP2 PUSH0 JUMPDEST DUP2 DUP2 LT PUSH2 0x9C7 JUMPI POP SWAP2 DUP4 SWAP2 PUSH1 0x1 SWAP8 DUP9 SWAP8 SWAP7 SWAP6 DUP9 SWAP6 LT PUSH2 0x9AF JUMPI JUMPDEST POP POP POP DUP2 SHL ADD DUP6 SSTORE PUSH2 0x969 JUMP JUMPDEST ADD MLOAD PUSH0 NOT PUSH1 0xF8 DUP5 PUSH1 0x3 SHL AND SHR NOT AND SWAP1 SSTORE PUSH0 DUP1 DUP1 PUSH2 0x9A2 JUMP JUMPDEST DUP8 DUP4 ADD MLOAD DUP5 SSTORE DUP16 SWAP7 PUSH1 0x1 SWAP1 SWAP5 ADD SWAP4 SWAP3 DUP4 ADD SWAP3 ADD PUSH2 0x988 JUMP JUMPDEST PUSH2 0xA07 SWAP1 DUP7 PUSH0 MSTORE DUP6 PUSH0 KECCAK256 PUSH1 0x1F DUP6 ADD PUSH1 0x5 SHR DUP2 ADD SWAP2 DUP8 DUP7 LT PUSH2 0x604 JUMPI PUSH1 0x1F ADD PUSH1 0x5 SHR ADD SWAP1 PUSH2 0x218E JUMP JUMPDEST PUSH0 PUSH2 0x932 JUMP JUMPDEST DUP5 PUSH0 MSTORE DUP4 DUP4 PUSH0 KECCAK256 SWAP2 DUP3 ADD SWAP2 ADD JUMPDEST DUP2 DUP2 LT PUSH2 0xA27 JUMPI POP PUSH2 0x3C0 JUMP JUMPDEST PUSH1 0x1 SWAP2 SWAP3 SWAP4 PUSH2 0xA36 DUP3 SLOAD PUSH2 0x1FEB JUMP JUMPDEST DUP1 PUSH2 0xA48 JUMPI JUMPDEST POP POP ADD SWAP1 DUP10 SWAP3 SWAP2 PUSH2 0xA1A JUMP JUMPDEST PUSH1 0x1F DUP2 GT DUP5 EQ PUSH2 0xA5F JUMPI POP POP PUSH0 DUP2 SSTORE JUMPDEST DUP11 PUSH0 PUSH2 0xA3C JUMP JUMPDEST DUP4 PUSH1 0x1F PUSH2 0xA79 SWAP4 DUP6 PUSH0 MSTORE PUSH0 KECCAK256 SWAP3 ADD PUSH1 0x5 SHR DUP3 ADD SWAP2 ADD PUSH2 0x218E JUMP JUMPDEST DUP1 PUSH0 MSTORE PUSH0 DUP12 DUP2 KECCAK256 DUP2 DUP4 SSTORE SSTORE PUSH2 0xA58 JUMP JUMPDEST SWAP1 PUSH1 0x1F NOT DUP4 AND SWAP2 DUP5 PUSH0 MSTORE DUP11 PUSH0 KECCAK256 SWAP3 PUSH0 JUMPDEST DUP13 DUP3 DUP3 LT PUSH2 0xAD6 JUMPI POP POP SWAP1 DUP5 PUSH1 0x1 SWAP6 SWAP5 SWAP4 SWAP3 LT PUSH2 0xABE JUMPI JUMPDEST POP POP POP DUP2 SHL ADD SWAP1 SSTORE PUSH2 0x39E JUMP JUMPDEST ADD MLOAD PUSH0 NOT PUSH1 0xF8 DUP5 PUSH1 0x3 SHL AND SHR NOT AND SWAP1 SSTORE PUSH0 DUP1 DUP1 PUSH2 0xAB1 JUMP JUMPDEST PUSH1 0x1 DUP6 SWAP7 DUP3 SWAP4 SWAP7 DUP7 ADD MLOAD DUP2 SSTORE ADD SWAP6 ADD SWAP4 ADD PUSH2 0xA99 JUMP JUMPDEST PUSH2 0xB14 SWAP1 DUP5 PUSH0 MSTORE DUP11 PUSH0 KECCAK256 PUSH1 0x1F DUP6 ADD PUSH1 0x5 SHR DUP2 ADD SWAP2 DUP13 DUP7 LT PUSH2 0x604 JUMPI PUSH1 0x1F ADD PUSH1 0x5 SHR ADD SWAP1 PUSH2 0x218E JUMP JUMPDEST PUSH0 PUSH2 0x36D JUMP JUMPDEST SWAP1 PUSH1 0x1F NOT DUP4 AND SWAP2 DUP5 PUSH0 MSTORE DUP12 PUSH0 KECCAK256 SWAP3 PUSH0 JUMPDEST DUP14 DUP3 DUP3 LT PUSH2 0xB67 JUMPI POP POP SWAP1 DUP5 PUSH1 0x1 SWAP6 SWAP5 SWAP4 SWAP3 LT PUSH2 0xB4F JUMPI JUMPDEST POP POP POP DUP2 SHL ADD SWAP1 SSTORE PUSH2 0x344 JUMP JUMPDEST ADD MLOAD PUSH0 NOT PUSH1 0xF8 DUP5 PUSH1 0x3 SHL AND SHR NOT AND SWAP1 SSTORE PUSH0 DUP1 DUP1 PUSH2 0xB42 JUMP JUMPDEST PUSH1 0x1 DUP6 SWAP7 DUP3 SWAP4 SWAP7 DUP7 ADD MLOAD DUP2 SSTORE ADD SWAP6 ADD SWAP4 ADD PUSH2 0xB2A JUMP JUMPDEST PUSH2 0xBA5 SWAP1 DUP5 PUSH0 MSTORE DUP12 PUSH0 KECCAK256 PUSH1 0x1F DUP6 ADD PUSH1 0x5 SHR DUP2 ADD SWAP2 DUP14 DUP7 LT PUSH2 0x604 JUMPI PUSH1 0x1F ADD PUSH1 0x5 SHR ADD SWAP1 PUSH2 0x218E JUMP JUMPDEST PUSH0 PUSH2 0x313 JUMP JUMPDEST PUSH0 DUP5 DUP2 MSTORE DUP13 DUP2 KECCAK256 SWAP3 SWAP2 SWAP1 PUSH1 0x1F NOT DUP6 AND SWAP1 DUP15 JUMPDEST DUP3 DUP3 LT PUSH2 0xBF9 JUMPI POP POP SWAP1 DUP5 PUSH1 0x1 SWAP6 SWAP5 SWAP4 SWAP3 LT PUSH2 0xBE1 JUMPI JUMPDEST POP POP POP DUP2 SHL ADD SWAP1 SSTORE PUSH2 0x2EA JUMP JUMPDEST ADD MLOAD PUSH0 NOT PUSH1 0xF8 DUP5 PUSH1 0x3 SHL AND SHR NOT AND SWAP1 SSTORE PUSH0 DUP1 DUP1 PUSH2 0xBD4 JUMP JUMPDEST PUSH1 0x1 DUP6 SWAP7 DUP3 SWAP4 SWAP7 DUP7 ADD MLOAD DUP2 SSTORE ADD SWAP6 ADD SWAP4 ADD DUP15 PUSH2 0xBBD JUMP JUMPDEST PUSH2 0xC38 SWAP2 DUP6 PUSH0 MSTORE DUP2 PUSH0 KECCAK256 SWAP1 PUSH1 0x1F DUP7 ADD PUSH1 0x5 SHR DUP3 ADD SWAP3 DUP7 LT PUSH2 0x604 JUMPI PUSH1 0x1F ADD PUSH1 0x5 SHR ADD SWAP1 PUSH2 0x218E JUMP JUMPDEST PUSH0 DUP12 PUSH2 0x2B8 JUMP JUMPDEST PUSH0 DUP5 DUP2 MSTORE DUP14 DUP2 KECCAK256 SWAP3 SWAP2 SWAP1 PUSH1 0x1F NOT DUP6 AND SWAP1 DUP16 JUMPDEST DUP3 DUP3 LT PUSH2 0xC8D JUMPI POP POP SWAP1 DUP5 PUSH1 0x1 SWAP6 SWAP5 SWAP4 SWAP3 LT PUSH2 0xC75 JUMPI JUMPDEST POP POP POP DUP2 SHL ADD SWAP1 SSTORE PUSH2 0x28E JUMP JUMPDEST ADD MLOAD PUSH0 NOT PUSH1 0xF8 DUP5 PUSH1 0x3 SHL AND SHR NOT AND SWAP1 SSTORE PUSH0 DUP1 DUP1 PUSH2 0xC68 JUMP JUMPDEST PUSH1 0x1 DUP6 SWAP7 DUP3 SWAP4 SWAP7 DUP7 ADD MLOAD DUP2 SSTORE ADD SWAP6 ADD SWAP4 ADD DUP16 PUSH2 0xC51 JUMP JUMPDEST PUSH2 0xCCC SWAP2 DUP6 PUSH0 MSTORE DUP2 PUSH0 KECCAK256 SWAP1 PUSH1 0x1F DUP7 ADD PUSH1 0x5 SHR DUP3 ADD SWAP3 DUP7 LT PUSH2 0x604 JUMPI PUSH1 0x1F ADD PUSH1 0x5 SHR ADD SWAP1 PUSH2 0x218E JUMP JUMPDEST PUSH0 DUP13 PUSH2 0x25B JUMP JUMPDEST PUSH0 DUP1 REVERT JUMPDEST CALLVALUE PUSH2 0xCD3 JUMPI PUSH1 0x20 PUSH2 0xCE7 CALLDATASIZE PUSH2 0x1EE6 JUMP JUMPDEST SWAP1 PUSH2 0xCF5 PUSH1 0x1 SLOAD DUP3 LT PUSH2 0x20C3 JUMP JUMPDEST PUSH0 MSTORE PUSH0 DUP3 MSTORE PUSH1 0x4 PUSH2 0xD5B PUSH2 0xD69 PUSH1 0x40 PUSH0 KECCAK256 SWAP4 ORIGIN CALLER EQ DUP1 ISZERO PUSH2 0xD75 JUMPI JUMPDEST PUSH2 0xD1A SWAP1 PUSH2 0x21A4 JUMP JUMPDEST PUSH1 0x40 MLOAD PUSH2 0xD45 DUP8 DUP3 DUP2 DUP1 DUP3 ADD SWAP6 DUP1 MLOAD SWAP2 DUP3 SWAP2 ADD DUP8 MCOPY DUP2 ADD PUSH0 DUP4 DUP3 ADD MSTORE SUB ADD PUSH1 0x1F NOT DUP2 ADD DUP4 MSTORE DUP3 PUSH2 0x1E70 JUMP JUMPDEST MLOAD SWAP1 KECCAK256 SWAP4 PUSH1 0x40 MLOAD SWAP3 DUP4 SWAP2 DUP8 DUP4 ADD SWAP6 DUP7 SWAP2 ADD PUSH2 0x210F JUMP JUMPDEST SUB PUSH1 0x1F NOT DUP2 ADD DUP4 MSTORE DUP3 PUSH2 0x1E70 JUMP JUMPDEST MLOAD SWAP1 KECCAK256 EQ PUSH1 0x40 MLOAD SWAP1 DUP2 MSTORE RETURN JUMPDEST POP PUSH2 0xD1A PUSH2 0xD83 CALLER DUP8 PUSH2 0x22B1 JUMP JUMPDEST SWAP1 POP PUSH2 0xD11 JUMP JUMPDEST CALLVALUE PUSH2 0xCD3 JUMPI PUSH2 0xD98 CALLDATASIZE PUSH2 0x1F3C JUMP JUMPDEST SWAP1 PUSH2 0xDA6 PUSH1 0x1 SLOAD DUP3 LT PUSH2 0x20C3 JUMP JUMPDEST PUSH0 SWAP1 DUP2 MSTORE PUSH1 0x20 DUP2 SWAP1 MSTORE PUSH1 0x40 DUP2 KECCAK256 PUSH1 0xA ADD SWAP2 PUSH1 0x1 PUSH1 0x1 PUSH1 0xA0 SHL SUB AND SWAP1 JUMPDEST DUP3 SLOAD DUP1 DUP3 LT ISZERO PUSH2 0xE95 JUMPI DUP3 PUSH2 0xDD7 DUP4 DUP7 PUSH2 0x2179 JUMP JUMPDEST SWAP1 SLOAD PUSH1 0x3 SWAP2 SWAP1 SWAP2 SHL SHR PUSH1 0x1 PUSH1 0x1 PUSH1 0xA0 SHL SUB AND EQ PUSH2 0xDF7 JUMPI POP PUSH1 0x1 ADD PUSH2 0xDC2 JUMP JUMPDEST PUSH0 NOT DUP2 ADD SWAP3 POP DUP3 GT PUSH2 0x509 JUMPI PUSH2 0xE2C PUSH2 0xE13 PUSH2 0xE50 SWAP4 DUP6 PUSH2 0x2179 JUMP JUMPDEST SWAP1 SLOAD PUSH1 0x3 SWAP2 SWAP1 SWAP2 SHL SHR PUSH1 0x1 PUSH1 0x1 PUSH1 0xA0 SHL SUB AND SWAP2 DUP5 PUSH2 0x2179 JUMP JUMPDEST DUP2 SLOAD PUSH1 0x1 PUSH1 0x1 PUSH1 0xA0 SHL SUB SWAP4 DUP5 AND PUSH1 0x3 SWAP3 SWAP1 SWAP3 SHL SWAP2 DUP3 SHL SWAP4 SWAP1 SWAP2 SHL NOT AND SWAP2 SWAP1 SWAP2 OR SWAP1 SSTORE JUMP JUMPDEST DUP1 SLOAD DUP1 ISZERO PUSH2 0xE81 JUMPI PUSH0 NOT ADD SWAP1 PUSH2 0xE66 DUP3 DUP3 PUSH2 0x2179 JUMP JUMPDEST DUP2 SLOAD PUSH1 0x1 PUSH1 0x1 PUSH1 0xA0 SHL SUB PUSH1 0x3 SWAP3 SWAP1 SWAP3 SHL SWAP2 SWAP1 SWAP2 SHL NOT AND SWAP1 SSTORE SSTORE STOP JUMPDEST PUSH4 0x4E487B71 PUSH1 0xE0 SHL PUSH0 MSTORE PUSH1 0x31 PUSH1 0x4 MSTORE PUSH1 0x24 PUSH0 REVERT JUMPDEST STOP JUMPDEST CALLVALUE PUSH2 0xCD3 JUMPI PUSH1 0x20 PUSH2 0xEB0 PUSH2 0xEAA CALLDATASIZE PUSH2 0x1EE6 JUMP JUMPDEST SWAP1 PUSH2 0x21F0 JUMP JUMPDEST PUSH1 0x40 MLOAD SWAP1 ISZERO ISZERO DUP2 MSTORE RETURN JUMPDEST CALLVALUE PUSH2 0xCD3 JUMPI PUSH1 0x20 CALLDATASIZE PUSH1 0x3 NOT ADD SLT PUSH2 0xCD3 JUMPI PUSH1 0x4 CALLDATALOAD PUSH0 MSTORE PUSH0 PUSH1 0x20 MSTORE PUSH1 0x20 PUSH1 0x40 PUSH0 KECCAK256 DUP1 SLOAD SWAP1 PUSH2 0xEE9 PUSH1 0x1 DUP3 ADD PUSH2 0x2023 JUMP JUMPDEST PUSH2 0xF87 PUSH2 0xEF8 PUSH1 0x2 DUP5 ADD PUSH2 0x2023 JUMP JUMPDEST PUSH2 0xF79 PUSH2 0xF07 PUSH1 0x3 DUP7 ADD PUSH2 0x2023 JUMP JUMPDEST PUSH2 0xF6B PUSH2 0xF16 PUSH1 0x4 DUP9 ADD PUSH2 0x2023 JUMP JUMPDEST SWAP2 PUSH2 0xF5D PUSH2 0xF26 PUSH1 0x8 DUP11 ADD PUSH2 0x2023 JUMP JUMPDEST SWAP6 PUSH2 0xF4F PUSH1 0xB PUSH1 0x9 DUP13 ADD SLOAD SWAP12 ADD SLOAD SWAP10 PUSH2 0x100 PUSH1 0x40 MLOAD SWAP15 DUP16 SWAP15 DUP16 SWAP1 DUP2 MSTORE ADD MSTORE PUSH2 0x100 DUP14 ADD SWAP1 PUSH2 0x1F18 JUMP JUMPDEST SWAP1 DUP12 DUP3 SUB PUSH1 0x40 DUP14 ADD MSTORE PUSH2 0x1F18 JUMP JUMPDEST SWAP1 DUP10 DUP3 SUB PUSH1 0x60 DUP12 ADD MSTORE PUSH2 0x1F18 JUMP JUMPDEST SWAP1 DUP8 DUP3 SUB PUSH1 0x80 DUP10 ADD MSTORE PUSH2 0x1F18 JUMP JUMPDEST SWAP1 DUP6 DUP3 SUB PUSH1 0xA0 DUP8 ADD MSTORE PUSH2 0x1F18 JUMP JUMPDEST SWAP2 PUSH1 0xC0 DUP5 ADD MSTORE PUSH1 0xE0 DUP4 ADD MSTORE SUB SWAP1 RETURN JUMPDEST CALLVALUE PUSH2 0xCD3 JUMPI PUSH2 0xFA4 CALLDATASIZE PUSH2 0x1EE6 JUMP JUMPDEST SWAP1 PUSH2 0xFB2 PUSH1 0x1 SLOAD DUP3 LT PUSH2 0x20C3 JUMP JUMPDEST PUSH0 MSTORE PUSH1 0x2 PUSH1 0x20 MSTORE PUSH1 0x40 PUSH0 KECCAK256 DUP2 MLOAD PUSH1 0x1 PUSH1 0x1 PUSH1 0x40 SHL SUB DUP2 GT PUSH2 0x553 JUMPI PUSH2 0xFD7 DUP3 SLOAD PUSH2 0x1FEB JUMP JUMPDEST PUSH1 0x1F DUP2 GT PUSH2 0x107B JUMPI JUMPDEST POP PUSH1 0x20 SWAP3 PUSH1 0x1F DUP3 GT PUSH1 0x1 EQ PUSH2 0x101F JUMPI PUSH2 0x1010 SWAP3 SWAP4 DUP3 SWAP2 PUSH0 SWAP3 PUSH2 0x1014 JUMPI POP POP DUP2 PUSH1 0x1 SHL SWAP2 PUSH0 NOT SWAP1 PUSH1 0x3 SHL SHR NOT AND OR SWAP1 JUMP JUMPDEST SWAP1 SSTORE STOP JUMPDEST ADD MLOAD SWAP1 POP DUP5 DUP1 PUSH2 0x277 JUMP JUMPDEST PUSH1 0x1F NOT DUP3 AND SWAP4 DUP4 PUSH0 MSTORE DUP1 PUSH0 KECCAK256 SWAP2 PUSH0 JUMPDEST DUP7 DUP2 LT PUSH2 0x1063 JUMPI POP DUP4 PUSH1 0x1 SWAP6 SWAP7 LT PUSH2 0x104B JUMPI JUMPDEST POP POP POP DUP2 SHL ADD SWAP1 SSTORE STOP JUMPDEST ADD MLOAD PUSH0 NOT PUSH1 0xF8 DUP5 PUSH1 0x3 SHL AND SHR NOT AND SWAP1 SSTORE DUP4 DUP1 DUP1 PUSH2 0x1041 JUMP JUMPDEST SWAP2 SWAP3 PUSH1 0x20 PUSH1 0x1 DUP2 SWAP3 DUP7 DUP6 ADD MLOAD DUP2 SSTORE ADD SWAP5 ADD SWAP3 ADD PUSH2 0x102E JUMP JUMPDEST PUSH2 0x10A5 SWAP1 DUP4 PUSH0 MSTORE PUSH1 0x20 PUSH0 KECCAK256 PUSH1 0x1F DUP5 ADD PUSH1 0x5 SHR DUP2 ADD SWAP2 PUSH1 0x20 DUP6 LT PUSH2 0x604 JUMPI PUSH1 0x1F ADD PUSH1 0x5 SHR ADD SWAP1 PUSH2 0x218E JUMP JUMPDEST DUP4 PUSH2 0xFE0 JUMP JUMPDEST CALLVALUE PUSH2 0xCD3 JUMPI PUSH0 CALLDATASIZE PUSH1 0x3 NOT ADD SLT PUSH2 0xCD3 JUMPI PUSH1 0x20 PUSH1 0x1 SLOAD PUSH1 0x40 MLOAD SWAP1 DUP2 MSTORE RETURN JUMPDEST CALLVALUE PUSH2 0xCD3 JUMPI PUSH2 0x120 CALLDATASIZE PUSH1 0x3 NOT ADD SLT PUSH2 0xCD3 JUMPI PUSH1 0x4 CALLDATALOAD PUSH1 0x24 CALLDATALOAD PUSH1 0x1 PUSH1 0x1 PUSH1 0x40 SHL SUB DUP2 GT PUSH2 0xCD3 JUMPI PUSH2 0x10FC SWAP1 CALLDATASIZE SWAP1 PUSH1 0x4 ADD PUSH2 0x1E91 JUMP JUMPDEST PUSH1 0x44 CALLDATALOAD PUSH1 0x1 PUSH1 0x1 PUSH1 0x40 SHL SUB DUP2 GT PUSH2 0xCD3 JUMPI PUSH2 0x111B SWAP1 CALLDATASIZE SWAP1 PUSH1 0x4 ADD PUSH2 0x1E91 JUMP JUMPDEST PUSH1 0x64 CALLDATALOAD PUSH1 0x1 PUSH1 0x1 PUSH1 0x40 SHL SUB DUP2 GT PUSH2 0xCD3 JUMPI PUSH2 0x113A SWAP1 CALLDATASIZE SWAP1 PUSH1 0x4 ADD PUSH2 0x1E91 JUMP JUMPDEST PUSH1 0x84 CALLDATALOAD PUSH1 0x1 PUSH1 0x1 PUSH1 0x40 SHL SUB DUP2 GT PUSH2 0xCD3 JUMPI PUSH2 0x1159 SWAP1 CALLDATASIZE SWAP1 PUSH1 0x4 ADD PUSH2 0x1E91 JUMP JUMPDEST PUSH1 0xA4 CALLDATALOAD PUSH1 0x1 PUSH1 0x1 PUSH1 0x40 SHL SUB DUP2 GT PUSH2 0xCD3 JUMPI PUSH2 0x1178 SWAP1 CALLDATASIZE SWAP1 PUSH1 0x4 ADD PUSH2 0x1F62 JUMP JUMPDEST SWAP1 PUSH1 0xC4 CALLDATALOAD PUSH1 0x1 PUSH1 0x1 PUSH1 0x40 SHL SUB DUP2 GT PUSH2 0xCD3 JUMPI PUSH2 0x1198 SWAP1 CALLDATASIZE SWAP1 PUSH1 0x4 ADD PUSH2 0x1F62 JUMP JUMPDEST SWAP3 PUSH1 0xE4 CALLDATALOAD PUSH1 0x1 PUSH1 0x1 PUSH1 0x40 SHL SUB DUP2 GT PUSH2 0xCD3 JUMPI PUSH2 0x11B8 SWAP1 CALLDATASIZE SWAP1 PUSH1 0x4 ADD PUSH2 0x1F62 JUMP JUMPDEST SWAP5 PUSH2 0x104 CALLDATALOAD PUSH1 0x1 PUSH1 0x1 PUSH1 0x40 SHL SUB DUP2 GT PUSH2 0xCD3 JUMPI PUSH2 0x11D9 SWAP1 CALLDATASIZE SWAP1 PUSH1 0x4 ADD PUSH2 0x1E91 JUMP JUMPDEST SWAP8 PUSH2 0x11E7 PUSH1 0x1 SLOAD DUP3 LT PUSH2 0x20C3 JUMP JUMPDEST PUSH0 MSTORE PUSH0 PUSH1 0x20 MSTORE PUSH1 0x40 PUSH0 KECCAK256 SWAP7 PUSH1 0x1 DUP9 ADD SWAP1 DUP1 MLOAD SWAP1 PUSH1 0x1 PUSH1 0x1 PUSH1 0x40 SHL SUB DUP3 GT PUSH2 0x553 JUMPI PUSH2 0x1212 DUP4 SLOAD PUSH2 0x1FEB JUMP JUMPDEST PUSH1 0x1F DUP2 GT PUSH2 0x1BD8 JUMPI JUMPDEST POP PUSH1 0x20 SWAP1 PUSH1 0x1F DUP4 GT PUSH1 0x1 EQ PUSH2 0x1B75 JUMPI PUSH2 0x124A SWAP3 SWAP2 PUSH0 SWAP2 DUP4 PUSH2 0x1572 JUMPI POP POP DUP2 PUSH1 0x1 SHL SWAP2 PUSH0 NOT SWAP1 PUSH1 0x3 SHL SHR NOT AND OR SWAP1 JUMP JUMPDEST SWAP1 SSTORE JUMPDEST DUP1 MLOAD PUSH1 0x2 DUP9 ADD SWAP2 PUSH1 0x1 PUSH1 0x1 PUSH1 0x40 SHL SUB DUP3 GT PUSH2 0x553 JUMPI PUSH2 0x126C DUP4 SLOAD PUSH2 0x1FEB JUMP JUMPDEST PUSH1 0x1F DUP2 GT PUSH2 0x1B45 JUMPI JUMPDEST POP PUSH1 0x20 SWAP1 PUSH1 0x1F DUP4 GT PUSH1 0x1 EQ PUSH2 0x1AE2 JUMPI PUSH2 0x12A4 SWAP3 SWAP2 PUSH0 SWAP2 DUP4 PUSH2 0x1AD7 JUMPI POP POP DUP2 PUSH1 0x1 SHL SWAP2 PUSH0 NOT SWAP1 PUSH1 0x3 SHL SHR NOT AND OR SWAP1 JUMP JUMPDEST SWAP1 SSTORE JUMPDEST DUP1 MLOAD PUSH1 0x3 DUP8 ADD SWAP2 PUSH1 0x1 PUSH1 0x1 PUSH1 0x40 SHL SUB DUP3 GT PUSH2 0x553 JUMPI PUSH2 0x12C6 DUP4 SLOAD PUSH2 0x1FEB JUMP JUMPDEST PUSH1 0x1F DUP2 GT PUSH2 0x1AA7 JUMPI JUMPDEST POP PUSH1 0x20 SWAP1 PUSH1 0x1F DUP4 GT PUSH1 0x1 EQ PUSH2 0x1A44 JUMPI PUSH2 0x12FE SWAP3 SWAP2 PUSH0 SWAP2 DUP4 PUSH2 0x1A39 JUMPI POP POP DUP2 PUSH1 0x1 SHL SWAP2 PUSH0 NOT SWAP1 PUSH1 0x3 SHL SHR NOT AND OR SWAP1 JUMP JUMPDEST SWAP1 SSTORE JUMPDEST DUP1 MLOAD PUSH1 0x4 DUP7 ADD SWAP2 PUSH1 0x1 PUSH1 0x1 PUSH1 0x40 SHL SUB DUP3 GT PUSH2 0x553 JUMPI PUSH2 0x1320 DUP4 SLOAD PUSH2 0x1FEB JUMP JUMPDEST PUSH1 0x1F DUP2 GT PUSH2 0x1A09 JUMPI JUMPDEST POP PUSH1 0x20 SWAP1 PUSH1 0x1F DUP4 GT PUSH1 0x1 EQ PUSH2 0x19A6 JUMPI PUSH2 0x1358 SWAP3 SWAP2 PUSH0 SWAP2 DUP4 PUSH2 0x199B JUMPI POP POP DUP2 PUSH1 0x1 SHL SWAP2 PUSH0 NOT SWAP1 PUSH1 0x3 SHL SHR NOT AND OR SWAP1 JUMP JUMPDEST SWAP1 SSTORE JUMPDEST DUP1 MLOAD PUSH1 0x5 DUP6 ADD SWAP2 PUSH1 0x1 PUSH1 0x40 SHL DUP3 GT PUSH2 0x553 JUMPI DUP3 SLOAD DUP3 DUP5 SSTORE DUP1 DUP4 LT PUSH2 0x1924 JUMPI JUMPDEST POP PUSH1 0x20 ADD SWAP2 PUSH0 MSTORE PUSH1 0x20 PUSH0 KECCAK256 SWAP2 PUSH0 SWAP1 JUMPDEST DUP3 DUP3 LT PUSH2 0x1814 JUMPI POP POP POP POP PUSH1 0x6 DUP4 ADD SWAP1 DUP1 MLOAD SWAP1 PUSH1 0x1 PUSH1 0x40 SHL DUP3 GT PUSH2 0x553 JUMPI DUP3 SLOAD DUP3 DUP5 SSTORE DUP1 DUP4 LT PUSH2 0x179D JUMPI JUMPDEST POP PUSH1 0x20 ADD SWAP2 PUSH0 MSTORE PUSH1 0x20 PUSH0 KECCAK256 SWAP2 PUSH0 SWAP1 JUMPDEST DUP3 DUP3 LT PUSH2 0x168D JUMPI POP POP POP POP PUSH1 0x7 DUP3 ADD SWAP1 DUP1 MLOAD SWAP1 PUSH1 0x1 PUSH1 0x40 SHL DUP3 GT PUSH2 0x553 JUMPI DUP3 SLOAD DUP3 DUP5 SSTORE DUP1 DUP4 LT PUSH2 0x1616 JUMPI JUMPDEST POP PUSH1 0x20 ADD SWAP2 PUSH0 MSTORE PUSH1 0x20 PUSH0 KECCAK256 SWAP2 PUSH0 SWAP1 JUMPDEST DUP3 DUP3 LT PUSH2 0x1506 JUMPI DUP6 DUP6 PUSH1 0x8 DUP2 ADD DUP3 MLOAD PUSH1 0x1 PUSH1 0x1 PUSH1 0x40 SHL SUB DUP2 GT PUSH2 0x553 JUMPI PUSH2 0x1424 DUP3 SLOAD PUSH2 0x1FEB JUMP JUMPDEST PUSH1 0x1F DUP2 GT PUSH2 0x14D6 JUMPI JUMPDEST POP PUSH1 0x20 PUSH1 0x1F DUP3 GT PUSH1 0x1 EQ PUSH2 0x1475 JUMPI DUP2 SWAP1 PUSH2 0x145D SWAP4 SWAP5 SWAP6 PUSH0 SWAP3 PUSH2 0x146A JUMPI POP POP DUP2 PUSH1 0x1 SHL SWAP2 PUSH0 NOT SWAP1 PUSH1 0x3 SHL SHR NOT AND OR SWAP1 JUMP JUMPDEST SWAP1 SSTORE JUMPDEST PUSH1 0xB TIMESTAMP SWAP2 ADD SSTORE PUSH0 DUP1 RETURN JUMPDEST ADD MLOAD SWAP1 POP DUP6 DUP1 PUSH2 0x277 JUMP JUMPDEST PUSH1 0x1F NOT DUP3 AND SWAP1 DUP4 PUSH0 MSTORE DUP1 PUSH0 KECCAK256 SWAP2 PUSH0 JUMPDEST DUP2 DUP2 LT PUSH2 0x14BE JUMPI POP SWAP6 DUP4 PUSH1 0x1 SWAP6 SWAP7 SWAP8 LT PUSH2 0x14A6 JUMPI JUMPDEST POP POP POP DUP2 SHL ADD SWAP1 SSTORE PUSH2 0x1460 JUMP JUMPDEST ADD MLOAD PUSH0 NOT PUSH1 0xF8 DUP5 PUSH1 0x3 SHL AND SHR NOT AND SWAP1 SSTORE DUP5 DUP1 DUP1 PUSH2 0x1499 JUMP JUMPDEST SWAP2 SWAP3 PUSH1 0x20 PUSH1 0x1 DUP2 SWAP3 DUP7 DUP12 ADD MLOAD DUP2 SSTORE ADD SWAP5 ADD SWAP3 ADD PUSH2 0x1484 JUMP JUMPDEST PUSH2 0x1500 SWAP1 DUP4 PUSH0 MSTORE PUSH1 0x20 PUSH0 KECCAK256 PUSH1 0x1F DUP5 ADD PUSH1 0x5 SHR DUP2 ADD SWAP2 PUSH1 0x20 DUP6 LT PUSH2 0x604 JUMPI PUSH1 0x1F ADD PUSH1 0x5 SHR ADD SWAP1 PUSH2 0x218E JUMP JUMPDEST DUP5 PUSH2 0x142D JUMP JUMPDEST DUP1 MLOAD DUP1 MLOAD SWAP1 PUSH1 0x1 PUSH1 0x1 PUSH1 0x40 SHL SUB DUP3 GT PUSH2 0x553 JUMPI PUSH2 0x1523 DUP7 SLOAD PUSH2 0x1FEB JUMP JUMPDEST PUSH1 0x1F DUP2 GT PUSH2 0x15E6 JUMPI JUMPDEST POP PUSH1 0x20 SWAP1 PUSH1 0x1F DUP4 GT PUSH1 0x1 EQ PUSH2 0x157D JUMPI SWAP3 PUSH2 0x1563 DUP4 PUSH1 0x1 SWAP6 SWAP5 PUSH1 0x20 SWAP5 DUP8 SWAP7 PUSH0 SWAP3 PUSH2 0x1572 JUMPI POP POP DUP2 PUSH1 0x1 SHL SWAP2 PUSH0 NOT SWAP1 PUSH1 0x3 SHL SHR NOT AND OR SWAP1 JUMP JUMPDEST DUP8 SSTORE JUMPDEST ADD SWAP5 ADD SWAP2 ADD SWAP1 SWAP3 PUSH2 0x13FD JUMP JUMPDEST ADD MLOAD SWAP1 POP DUP13 DUP1 PUSH2 0x277 JUMP JUMPDEST SWAP1 PUSH1 0x1F NOT DUP4 AND SWAP2 DUP8 PUSH0 MSTORE DUP2 PUSH0 KECCAK256 SWAP3 PUSH0 JUMPDEST DUP2 DUP2 LT PUSH2 0x15CE JUMPI POP SWAP4 PUSH1 0x20 SWAP4 PUSH1 0x1 SWAP7 SWAP4 DUP8 SWAP7 SWAP4 DUP4 DUP9 SWAP6 LT PUSH2 0x15B6 JUMPI JUMPDEST POP POP POP DUP2 SHL ADD DUP8 SSTORE PUSH2 0x1566 JUMP JUMPDEST ADD MLOAD PUSH0 NOT PUSH1 0xF8 DUP5 PUSH1 0x3 SHL AND SHR NOT AND SWAP1 SSTORE DUP12 DUP1 DUP1 PUSH2 0x15A9 JUMP JUMPDEST SWAP3 SWAP4 PUSH1 0x20 PUSH1 0x1 DUP2 SWAP3 DUP8 DUP7 ADD MLOAD DUP2 SSTORE ADD SWAP6 ADD SWAP4 ADD PUSH2 0x158D JUMP JUMPDEST PUSH2 0x1610 SWAP1 DUP8 PUSH0 MSTORE PUSH1 0x20 PUSH0 KECCAK256 PUSH1 0x1F DUP6 ADD PUSH1 0x5 SHR DUP2 ADD SWAP2 PUSH1 0x20 DUP7 LT PUSH2 0x604 JUMPI PUSH1 0x1F ADD PUSH1 0x5 SHR ADD SWAP1 PUSH2 0x218E JUMP JUMPDEST DUP9 PUSH2 0x152C JUMP JUMPDEST DUP4 PUSH0 MSTORE DUP3 PUSH1 0x20 PUSH0 KECCAK256 SWAP2 DUP3 ADD SWAP2 ADD JUMPDEST DUP2 DUP2 LT PUSH2 0x1631 JUMPI POP PUSH2 0x13EE JUMP JUMPDEST DUP1 PUSH2 0x163E PUSH1 0x1 SWAP3 SLOAD PUSH2 0x1FEB JUMP JUMPDEST DUP1 PUSH2 0x164B JUMPI JUMPDEST POP ADD PUSH2 0x1624 JUMP JUMPDEST PUSH1 0x1F DUP2 GT DUP4 EQ PUSH2 0x1660 JUMPI POP PUSH0 DUP2 SSTORE JUMPDEST DUP9 PUSH2 0x1644 JUMP JUMPDEST PUSH2 0x167C SWAP1 DUP3 PUSH0 MSTORE DUP4 PUSH1 0x1F PUSH1 0x20 PUSH0 KECCAK256 SWAP3 ADD PUSH1 0x5 SHR DUP3 ADD SWAP2 ADD PUSH2 0x218E JUMP JUMPDEST DUP1 PUSH0 MSTORE PUSH0 PUSH1 0x20 DUP2 KECCAK256 DUP2 DUP4 SSTORE SSTORE PUSH2 0x165A JUMP JUMPDEST DUP1 MLOAD DUP1 MLOAD SWAP1 PUSH1 0x1 PUSH1 0x1 PUSH1 0x40 SHL SUB DUP3 GT PUSH2 0x553 JUMPI PUSH2 0x16AA DUP7 SLOAD PUSH2 0x1FEB JUMP JUMPDEST PUSH1 0x1F DUP2 GT PUSH2 0x176D JUMPI JUMPDEST POP PUSH1 0x20 SWAP1 PUSH1 0x1F DUP4 GT PUSH1 0x1 EQ PUSH2 0x1704 JUMPI SWAP3 PUSH2 0x16EA DUP4 PUSH1 0x1 SWAP6 SWAP5 PUSH1 0x20 SWAP5 DUP8 SWAP7 PUSH0 SWAP3 PUSH2 0x16F9 JUMPI POP POP DUP2 PUSH1 0x1 SHL SWAP2 PUSH0 NOT SWAP1 PUSH1 0x3 SHL SHR NOT AND OR SWAP1 JUMP JUMPDEST DUP8 SSTORE JUMPDEST ADD SWAP5 ADD SWAP2 ADD SWAP1 SWAP3 PUSH2 0x13C3 JUMP JUMPDEST ADD MLOAD SWAP1 POP DUP14 DUP1 PUSH2 0x277 JUMP JUMPDEST SWAP1 PUSH1 0x1F NOT DUP4 AND SWAP2 DUP8 PUSH0 MSTORE DUP2 PUSH0 KECCAK256 SWAP3 PUSH0 JUMPDEST DUP2 DUP2 LT PUSH2 0x1755 JUMPI POP SWAP4 PUSH1 0x20 SWAP4 PUSH1 0x1 SWAP7 SWAP4 DUP8 SWAP7 SWAP4 DUP4 DUP9 SWAP6 LT PUSH2 0x173D JUMPI JUMPDEST POP POP POP DUP2 SHL ADD DUP8 SSTORE PUSH2 0x16ED JUMP JUMPDEST ADD MLOAD PUSH0 NOT PUSH1 0xF8 DUP5 PUSH1 0x3 SHL AND SHR NOT AND SWAP1 SSTORE DUP13 DUP1 DUP1 PUSH2 0x1730 JUMP JUMPDEST SWAP3 SWAP4 PUSH1 0x20 PUSH1 0x1 DUP2 SWAP3 DUP8 DUP7 ADD MLOAD DUP2 SSTORE ADD SWAP6 ADD SWAP4 ADD PUSH2 0x1714 JUMP JUMPDEST PUSH2 0x1797 SWAP1 DUP8 PUSH0 MSTORE PUSH1 0x20 PUSH0 KECCAK256 PUSH1 0x1F DUP6 ADD PUSH1 0x5 SHR DUP2 ADD SWAP2 PUSH1 0x20 DUP7 LT PUSH2 0x604 JUMPI PUSH1 0x1F ADD PUSH1 0x5 SHR ADD SWAP1 PUSH2 0x218E JUMP JUMPDEST DUP10 PUSH2 0x16B3 JUMP JUMPDEST DUP4 PUSH0 MSTORE DUP3 PUSH1 0x20 PUSH0 KECCAK256 SWAP2 DUP3 ADD SWAP2 ADD JUMPDEST DUP2 DUP2 LT PUSH2 0x17B8 JUMPI POP PUSH2 0x13B4 JUMP JUMPDEST DUP1 PUSH2 0x17C5 PUSH1 0x1 SWAP3 SLOAD PUSH2 0x1FEB JUMP JUMPDEST DUP1 PUSH2 0x17D2 JUMPI JUMPDEST POP ADD PUSH2 0x17AB JUMP JUMPDEST PUSH1 0x1F DUP2 GT DUP4 EQ PUSH2 0x17E7 JUMPI POP PUSH0 DUP2 SSTORE JUMPDEST DUP10 PUSH2 0x17CB JUMP JUMPDEST PUSH2 0x1803 SWAP1 DUP3 PUSH0 MSTORE DUP4 PUSH1 0x1F PUSH1 0x20 PUSH0 KECCAK256 SWAP3 ADD PUSH1 0x5 SHR DUP3 ADD SWAP2 ADD PUSH2 0x218E JUMP JUMPDEST DUP1 PUSH0 MSTORE PUSH0 PUSH1 0x20 DUP2 KECCAK256 DUP2 DUP4 SSTORE SSTORE PUSH2 0x17E1 JUMP JUMPDEST DUP1 MLOAD DUP1 MLOAD SWAP1 PUSH1 0x1 PUSH1 0x1 PUSH1 0x40 SHL SUB DUP3 GT PUSH2 0x553 JUMPI PUSH2 0x1831 DUP7 SLOAD PUSH2 0x1FEB JUMP JUMPDEST PUSH1 0x1F DUP2 GT PUSH2 0x18F4 JUMPI JUMPDEST POP PUSH1 0x20 SWAP1 PUSH1 0x1F DUP4 GT PUSH1 0x1 EQ PUSH2 0x188B JUMPI SWAP3 PUSH2 0x1871 DUP4 PUSH1 0x1 SWAP6 SWAP5 PUSH1 0x20 SWAP5 DUP8 SWAP7 PUSH0 SWAP3 PUSH2 0x1880 JUMPI POP POP DUP2 PUSH1 0x1 SHL SWAP2 PUSH0 NOT SWAP1 PUSH1 0x3 SHL SHR NOT AND OR SWAP1 JUMP JUMPDEST DUP8 SSTORE JUMPDEST ADD SWAP5 ADD SWAP2 ADD SWAP1 SWAP3 PUSH2 0x1389 JUMP JUMPDEST ADD MLOAD SWAP1 POP DUP15 DUP1 PUSH2 0x277 JUMP JUMPDEST SWAP1 PUSH1 0x1F NOT DUP4 AND SWAP2 DUP8 PUSH0 MSTORE DUP2 PUSH0 KECCAK256 SWAP3 PUSH0 JUMPDEST DUP2 DUP2 LT PUSH2 0x18DC JUMPI POP SWAP4 PUSH1 0x20 SWAP4 PUSH1 0x1 SWAP7 SWAP4 DUP8 SWAP7 SWAP4 DUP4 DUP9 SWAP6 LT PUSH2 0x18C4 JUMPI JUMPDEST POP POP POP DUP2 SHL ADD DUP8 SSTORE PUSH2 0x1874 JUMP JUMPDEST ADD MLOAD PUSH0 NOT PUSH1 0xF8 DUP5 PUSH1 0x3 SHL AND SHR NOT AND SWAP1 SSTORE DUP14 DUP1 DUP1 PUSH2 0x18B7 JUMP JUMPDEST SWAP3 SWAP4 PUSH1 0x20 PUSH1 0x1 DUP2 SWAP3 DUP8 DUP7 ADD MLOAD DUP2 SSTORE ADD SWAP6 ADD SWAP4 ADD PUSH2 0x189B JUMP JUMPDEST PUSH2 0x191E SWAP1 DUP8 PUSH0 MSTORE PUSH1 0x20 PUSH0 KECCAK256 PUSH1 0x1F DUP6 ADD PUSH1 0x5 SHR DUP2 ADD SWAP2 PUSH1 0x20 DUP7 LT PUSH2 0x604 JUMPI PUSH1 0x1F ADD PUSH1 0x5 SHR ADD SWAP1 PUSH2 0x218E JUMP JUMPDEST DUP11 PUSH2 0x183A JUMP JUMPDEST DUP4 PUSH0 MSTORE DUP3 PUSH1 0x20 PUSH0 KECCAK256 SWAP2 DUP3 ADD SWAP2 ADD JUMPDEST DUP2 DUP2 LT PUSH2 0x193F JUMPI POP PUSH2 0x137A JUMP JUMPDEST DUP1 PUSH2 0x194C PUSH1 0x1 SWAP3 SLOAD PUSH2 0x1FEB JUMP JUMPDEST DUP1 PUSH2 0x1959 JUMPI JUMPDEST POP ADD PUSH2 0x1932 JUMP JUMPDEST PUSH1 0x1F DUP2 GT DUP4 EQ PUSH2 0x196E JUMPI POP PUSH0 DUP2 SSTORE JUMPDEST DUP11 PUSH2 0x1952 JUMP JUMPDEST PUSH2 0x198A SWAP1 DUP3 PUSH0 MSTORE DUP4 PUSH1 0x1F PUSH1 0x20 PUSH0 KECCAK256 SWAP3 ADD PUSH1 0x5 SHR DUP3 ADD SWAP2 ADD PUSH2 0x218E JUMP JUMPDEST DUP1 PUSH0 MSTORE PUSH0 PUSH1 0x20 DUP2 KECCAK256 DUP2 DUP4 SSTORE SSTORE PUSH2 0x1968 JUMP JUMPDEST ADD MLOAD SWAP1 POP DUP10 DUP1 PUSH2 0x277 JUMP JUMPDEST SWAP1 PUSH1 0x1F NOT DUP4 AND SWAP2 DUP5 PUSH0 MSTORE DUP2 PUSH0 KECCAK256 SWAP3 PUSH0 JUMPDEST DUP2 DUP2 LT PUSH2 0x19F1 JUMPI POP SWAP1 DUP5 PUSH1 0x1 SWAP6 SWAP5 SWAP4 SWAP3 LT PUSH2 0x19D9 JUMPI JUMPDEST POP POP POP DUP2 SHL ADD SWAP1 SSTORE PUSH2 0x135B JUMP JUMPDEST ADD MLOAD PUSH0 NOT PUSH1 0xF8 DUP5 PUSH1 0x3 SHL AND SHR NOT AND SWAP1 SSTORE DUP9 DUP1 DUP1 PUSH2 0x19CC JUMP JUMPDEST SWAP3 SWAP4 PUSH1 0x20 PUSH1 0x1 DUP2 SWAP3 DUP8 DUP7 ADD MLOAD DUP2 SSTORE ADD SWAP6 ADD SWAP4 ADD PUSH2 0x19B6 JUMP JUMPDEST PUSH2 0x1A33 SWAP1 DUP5 PUSH0 MSTORE PUSH1 0x20 PUSH0 KECCAK256 PUSH1 0x1F DUP6 ADD PUSH1 0x5 SHR DUP2 ADD SWAP2 PUSH1 0x20 DUP7 LT PUSH2 0x604 JUMPI PUSH1 0x1F ADD PUSH1 0x5 SHR ADD SWAP1 PUSH2 0x218E JUMP JUMPDEST DUP9 PUSH2 0x1329 JUMP JUMPDEST ADD MLOAD SWAP1 POP DUP11 DUP1 PUSH2 0x277 JUMP JUMPDEST SWAP1 PUSH1 0x1F NOT DUP4 AND SWAP2 DUP5 PUSH0 MSTORE DUP2 PUSH0 KECCAK256 SWAP3 PUSH0 JUMPDEST DUP2 DUP2 LT PUSH2 0x1A8F JUMPI POP SWAP1 DUP5 PUSH1 0x1 SWAP6 SWAP5 SWAP4 SWAP3 LT PUSH2 0x1A77 JUMPI JUMPDEST POP POP POP DUP2 SHL ADD SWAP1 SSTORE PUSH2 0x1301 JUMP JUMPDEST ADD MLOAD PUSH0 NOT PUSH1 0xF8 DUP5 PUSH1 0x3 SHL AND SHR NOT AND SWAP1 SSTORE DUP10 DUP1 DUP1 PUSH2 0x1A6A JUMP JUMPDEST SWAP3 SWAP4 PUSH1 0x20 PUSH1 0x1 DUP2 SWAP3 DUP8 DUP7 ADD MLOAD DUP2 SSTORE ADD SWAP6 ADD SWAP4 ADD PUSH2 0x1A54 JUMP JUMPDEST PUSH2 0x1AD1 SWAP1 DUP5 PUSH0 MSTORE PUSH1 0x20 PUSH0 KECCAK256 PUSH1 0x1F DUP6 ADD PUSH1 0x5 SHR DUP2 ADD SWAP2 PUSH1 0x20 DUP7 LT PUSH2 0x604 JUMPI PUSH1 0x1F ADD PUSH1 0x5 SHR ADD SWAP1 PUSH2 0x218E JUMP JUMPDEST DUP10 PUSH2 0x12CF JUMP JUMPDEST ADD MLOAD SWAP1 POP DUP12 DUP1 PUSH2 0x277 JUMP JUMPDEST SWAP1 PUSH1 0x1F NOT DUP4 AND SWAP2 DUP5 PUSH0 MSTORE DUP2 PUSH0 KECCAK256 SWAP3 PUSH0 JUMPDEST DUP2 DUP2 LT PUSH2 0x1B2D JUMPI POP SWAP1 DUP5 PUSH1 0x1 SWAP6 SWAP5 SWAP4 SWAP3 LT PUSH2 0x1B15 JUMPI JUMPDEST POP POP POP DUP2 SHL ADD SWAP1 SSTORE PUSH2 0x12A7 JUMP JUMPDEST ADD MLOAD PUSH0 NOT PUSH1 0xF8 DUP5 PUSH1 0x3 SHL AND SHR NOT AND SWAP1 SSTORE DUP11 DUP1 DUP1 PUSH2 0x1B08 JUMP JUMPDEST SWAP3 SWAP4 PUSH1 0x20 PUSH1 0x1 DUP2 SWAP3 DUP8 DUP7 ADD MLOAD DUP2 SSTORE ADD SWAP6 ADD SWAP4 ADD PUSH2 0x1AF2 JUMP JUMPDEST PUSH2 0x1B6F SWAP1 DUP5 PUSH0 MSTORE PUSH1 0x20 PUSH0 KECCAK256 PUSH1 0x1F DUP6 ADD PUSH1 0x5 SHR DUP2 ADD SWAP2 PUSH1 0x20 DUP7 LT PUSH2 0x604 JUMPI PUSH1 0x1F ADD PUSH1 0x5 SHR ADD SWAP1 PUSH2 0x218E JUMP JUMPDEST DUP11 PUSH2 0x1275 JUMP JUMPDEST SWAP1 PUSH1 0x1F NOT DUP4 AND SWAP2 DUP5 PUSH0 MSTORE DUP2 PUSH0 KECCAK256 SWAP3 PUSH0 JUMPDEST DUP2 DUP2 LT PUSH2 0x1BC0 JUMPI POP SWAP1 DUP5 PUSH1 0x1 SWAP6 SWAP5 SWAP4 SWAP3 LT PUSH2 0x1BA8 JUMPI JUMPDEST POP POP POP DUP2 SHL ADD SWAP1 SSTORE PUSH2 0x124D JUMP JUMPDEST ADD MLOAD PUSH0 NOT PUSH1 0xF8 DUP5 PUSH1 0x3 SHL AND SHR NOT AND SWAP1 SSTORE DUP12 DUP1 DUP1 PUSH2 0x1B9B JUMP JUMPDEST SWAP3 SWAP4 PUSH1 0x20 PUSH1 0x1 DUP2 SWAP3 DUP8 DUP7 ADD MLOAD DUP2 SSTORE ADD SWAP6 ADD SWAP4 ADD PUSH2 0x1B85 JUMP JUMPDEST PUSH2 0x1C02 SWAP1 DUP5 PUSH0 MSTORE PUSH1 0x20 PUSH0 KECCAK256 PUSH1 0x1F DUP6 ADD PUSH1 0x5 SHR DUP2 ADD SWAP2 PUSH1 0x20 DUP7 LT PUSH2 0x604 JUMPI PUSH1 0x1F ADD PUSH1 0x5 SHR ADD SWAP1 PUSH2 0x218E JUMP JUMPDEST DUP12 PUSH2 0x121B JUMP JUMPDEST CALLVALUE PUSH2 0xCD3 JUMPI PUSH2 0x1C16 CALLDATASIZE PUSH2 0x1F3C JUMP JUMPDEST SWAP1 PUSH2 0x1C24 PUSH1 0x1 SLOAD DUP3 LT PUSH2 0x20C3 JUMP JUMPDEST PUSH0 SWAP1 DUP2 MSTORE PUSH1 0x20 DUP2 SWAP1 MSTORE PUSH1 0x40 DUP2 KECCAK256 PUSH1 0xA ADD DUP1 SLOAD SWAP3 SWAP2 PUSH1 0x1 PUSH1 0x1 PUSH1 0xA0 SHL SUB DUP4 AND SWAP1 JUMPDEST DUP5 DUP2 LT PUSH2 0x1C6C JUMPI POP POP PUSH1 0x1 PUSH1 0x40 SHL DUP4 LT ISZERO PUSH2 0x553 JUMPI DUP3 PUSH2 0xE2C SWAP2 PUSH1 0x1 PUSH2 0xE95 SWAP6 ADD DUP2 SSTORE PUSH2 0x2179 JUMP JUMPDEST DUP2 PUSH2 0x1C77 DUP3 DUP6 PUSH2 0x2179 JUMP JUMPDEST SWAP1 SLOAD PUSH1 0x3 SWAP2 SWAP1 SWAP2 SHL SHR PUSH1 0x1 PUSH1 0x1 PUSH1 0xA0 SHL SUB AND EQ PUSH2 0x1C96 JUMPI PUSH1 0x1 ADD PUSH2 0x1C44 JUMP JUMPDEST PUSH1 0x40 MLOAD PUSH3 0x461BCD PUSH1 0xE5 SHL DUP2 MSTORE PUSH1 0x20 PUSH1 0x4 DUP3 ADD MSTORE PUSH1 0x1C PUSH1 0x24 DUP3 ADD MSTORE PUSH32 0x50726F766964657220616C726561647920686173206163636573732E00000000 PUSH1 0x44 DUP3 ADD MSTORE PUSH1 0x64 SWAP1 REVERT JUMPDEST CALLVALUE PUSH2 0xCD3 JUMPI PUSH2 0x1CE9 CALLDATASIZE PUSH2 0x1EE6 JUMP JUMPDEST PUSH2 0x1CF6 PUSH1 0x1 SLOAD DUP4 LT PUSH2 0x20C3 JUMP JUMPDEST PUSH1 0x40 MLOAD PUSH2 0x1D22 PUSH1 0x20 DUP3 DUP2 DUP1 DUP3 ADD SWAP6 DUP1 MLOAD SWAP2 DUP3 SWAP2 ADD DUP8 MCOPY DUP2 ADD PUSH0 DUP4 DUP3 ADD MSTORE SUB ADD PUSH1 0x1F NOT DUP2 ADD DUP4 MSTORE DUP3 PUSH2 0x1E70 JUMP JUMPDEST MLOAD SWAP1 KECCAK256 DUP2 PUSH0 MSTORE PUSH1 0x2 PUSH1 0x20 MSTORE PUSH1 0x40 PUSH0 KECCAK256 PUSH1 0x40 MLOAD PUSH2 0x1D46 DUP2 PUSH2 0xD5B PUSH1 0x20 DUP3 ADD DUP1 SWAP6 PUSH2 0x210F JUMP JUMPDEST MLOAD SWAP1 KECCAK256 SUB PUSH2 0x1E3C JUMPI PUSH0 MSTORE PUSH0 PUSH1 0x20 MSTORE PUSH1 0x40 PUSH0 KECCAK256 PUSH1 0x5 DUP2 ADD SWAP1 DUP2 SLOAD ISZERO ISZERO PUSH0 EQ PUSH2 0x1E07 JUMPI DUP2 SLOAD ISZERO PUSH2 0x1DF3 JUMPI PUSH2 0x1DC5 SWAP2 PUSH0 MSTORE PUSH2 0x1DEF PUSH2 0x1D83 PUSH1 0x20 PUSH0 KECCAK256 PUSH2 0x2023 JUMP JUMPDEST SWAP2 JUMPDEST PUSH2 0x1DE1 PUSH2 0x1D94 PUSH1 0x1 DUP4 ADD PUSH2 0x2023 JUMP JUMPDEST SWAP4 PUSH2 0x1DD3 PUSH2 0x1DB0 PUSH1 0x8 PUSH2 0x1DA9 PUSH1 0x4 DUP8 ADD PUSH2 0x2023 JUMP JUMPDEST SWAP6 ADD PUSH2 0x2023 JUMP JUMPDEST SWAP4 PUSH1 0x40 MLOAD SWAP8 DUP9 SWAP8 PUSH1 0x80 DUP10 MSTORE PUSH1 0x80 DUP10 ADD SWAP1 PUSH2 0x1F18 JUMP JUMPDEST SWAP1 DUP8 DUP3 SUB PUSH1 0x20 DUP10 ADD MSTORE PUSH2 0x1F18 JUMP JUMPDEST SWAP1 DUP6 DUP3 SUB PUSH1 0x40 DUP8 ADD MSTORE PUSH2 0x1F18 JUMP JUMPDEST SWAP1 DUP4 DUP3 SUB PUSH1 0x60 DUP6 ADD MSTORE PUSH2 0x1F18 JUMP JUMPDEST SUB SWAP1 RETURN JUMPDEST PUSH4 0x4E487B71 PUSH1 0xE0 SHL PUSH0 MSTORE PUSH1 0x32 PUSH1 0x4 MSTORE PUSH1 0x24 PUSH0 REVERT JUMPDEST PUSH2 0x1DC5 SWAP2 POP PUSH2 0x1DEF PUSH1 0x40 MLOAD PUSH2 0x1E1D PUSH1 0x40 DUP3 PUSH2 0x1E70 JUMP JUMPDEST PUSH1 0xC DUP2 MSTORE PUSH12 0x4E6F20616C6C657267696573 PUSH1 0xA0 SHL PUSH1 0x20 DUP3 ADD MSTORE SWAP2 PUSH2 0x1D85 JUMP JUMPDEST PUSH1 0x40 MLOAD PUSH3 0x461BCD PUSH1 0xE5 SHL DUP2 MSTORE PUSH1 0x20 PUSH1 0x4 DUP3 ADD MSTORE PUSH1 0xC PUSH1 0x24 DUP3 ADD MSTORE PUSH12 0x24B73B30B634B2102824A717 PUSH1 0xA1 SHL PUSH1 0x44 DUP3 ADD MSTORE PUSH1 0x64 SWAP1 REVERT JUMPDEST SWAP1 PUSH1 0x1F DUP1 NOT SWAP2 ADD AND DUP2 ADD SWAP1 DUP2 LT PUSH1 0x1 PUSH1 0x1 PUSH1 0x40 SHL SUB DUP3 GT OR PUSH2 0x553 JUMPI PUSH1 0x40 MSTORE JUMP JUMPDEST DUP2 PUSH1 0x1F DUP3 ADD SLT ISZERO PUSH2 0xCD3 JUMPI DUP1 CALLDATALOAD SWAP1 PUSH1 0x1 PUSH1 0x1 PUSH1 0x40 SHL SUB DUP3 GT PUSH2 0x553 JUMPI PUSH1 0x40 MLOAD SWAP3 PUSH2 0x1EC5 PUSH1 0x1F DUP5 ADD PUSH1 0x1F NOT AND PUSH1 0x20 ADD DUP6 PUSH2 0x1E70 JUMP JUMPDEST DUP3 DUP5 MSTORE PUSH1 0x20 DUP4 DUP4 ADD ADD GT PUSH2 0xCD3 JUMPI DUP2 PUSH0 SWAP3 PUSH1 0x20 DUP1 SWAP4 ADD DUP4 DUP7 ADD CALLDATACOPY DUP4 ADD ADD MSTORE SWAP1 JUMP JUMPDEST SWAP1 PUSH1 0x40 PUSH1 0x3 NOT DUP4 ADD SLT PUSH2 0xCD3 JUMPI PUSH1 0x4 CALLDATALOAD SWAP2 PUSH1 0x24 CALLDATALOAD SWAP1 PUSH1 0x1 PUSH1 0x1 PUSH1 0x40 SHL SUB DUP3 GT PUSH2 0xCD3 JUMPI PUSH2 0x1F15 SWAP2 PUSH1 0x4 ADD PUSH2 0x1E91 JUMP JUMPDEST SWAP1 JUMP JUMPDEST DUP1 MLOAD DUP1 DUP4 MSTORE PUSH1 0x20 SWAP3 SWAP2 DUP2 SWAP1 DUP5 ADD DUP5 DUP5 ADD MCOPY PUSH0 DUP3 DUP3 ADD DUP5 ADD MSTORE PUSH1 0x1F ADD PUSH1 0x1F NOT AND ADD ADD SWAP1 JUMP JUMPDEST PUSH1 0x40 SWAP1 PUSH1 0x3 NOT ADD SLT PUSH2 0xCD3 JUMPI PUSH1 0x4 CALLDATALOAD SWAP1 PUSH1 0x24 CALLDATALOAD PUSH1 0x1 PUSH1 0x1 PUSH1 0xA0 SHL SUB DUP2 AND DUP2 SUB PUSH2 0xCD3 JUMPI SWAP1 JUMP JUMPDEST SWAP1 DUP1 PUSH1 0x1F DUP4 ADD SLT ISZERO PUSH2 0xCD3 JUMPI DUP2 CALLDATALOAD SWAP2 PUSH1 0x1 PUSH1 0x1 PUSH1 0x40 SHL SUB DUP4 GT PUSH2 0x553 JUMPI DUP3 PUSH1 0x5 SHL SWAP1 PUSH1 0x20 DUP3 ADD SWAP4 PUSH2 0x1F96 PUSH1 0x40 MLOAD SWAP6 DUP7 PUSH2 0x1E70 JUMP JUMPDEST DUP5 MSTORE PUSH1 0x20 DUP1 DUP6 ADD SWAP3 DUP3 ADD ADD SWAP2 DUP4 DUP4 GT PUSH2 0xCD3 JUMPI PUSH1 0x20 DUP3 ADD SWAP1 JUMPDEST DUP4 DUP3 LT PUSH2 0x1FBE JUMPI POP POP POP POP POP SWAP1 JUMP JUMPDEST DUP2 CALLDATALOAD PUSH1 0x1 PUSH1 0x1 PUSH1 0x40 SHL SUB DUP2 GT PUSH2 0xCD3 JUMPI PUSH1 0x20 SWAP2 PUSH2 0x1FE0 DUP8 DUP5 DUP1 SWAP5 DUP9 ADD ADD PUSH2 0x1E91 JUMP JUMPDEST DUP2 MSTORE ADD SWAP2 ADD SWAP1 PUSH2 0x1FAF JUMP JUMPDEST SWAP1 PUSH1 0x1 DUP3 DUP2 SHR SWAP3 AND DUP1 ISZERO PUSH2 0x2019 JUMPI JUMPDEST PUSH1 0x20 DUP4 LT EQ PUSH2 0x2005 JUMPI JUMP JUMPDEST PUSH4 0x4E487B71 PUSH1 0xE0 SHL PUSH0 MSTORE PUSH1 0x22 PUSH1 0x4 MSTORE PUSH1 0x24 PUSH0 REVERT JUMPDEST SWAP2 PUSH1 0x7F AND SWAP2 PUSH2 0x1FFA JUMP JUMPDEST SWAP1 PUSH1 0x40 MLOAD SWAP2 DUP3 PUSH0 DUP3 SLOAD SWAP3 PUSH2 0x2036 DUP5 PUSH2 0x1FEB JUMP JUMPDEST DUP1 DUP5 MSTORE SWAP4 PUSH1 0x1 DUP2 AND SWAP1 DUP2 ISZERO PUSH2 0x20A1 JUMPI POP PUSH1 0x1 EQ PUSH2 0x205D JUMPI JUMPDEST POP PUSH2 0x205B SWAP3 POP SUB DUP4 PUSH2 0x1E70 JUMP JUMPDEST JUMP JUMPDEST SWAP1 POP PUSH0 SWAP3 SWAP2 SWAP3 MSTORE PUSH1 0x20 PUSH0 KECCAK256 SWAP1 PUSH0 SWAP2 JUMPDEST DUP2 DUP4 LT PUSH2 0x2085 JUMPI POP POP SWAP1 PUSH1 0x20 PUSH2 0x205B SWAP3 DUP3 ADD ADD PUSH0 PUSH2 0x204E JUMP JUMPDEST PUSH1 0x20 SWAP2 SWAP4 POP DUP1 PUSH1 0x1 SWAP2 SLOAD DUP4 DUP6 DUP10 ADD ADD MSTORE ADD SWAP2 ADD SWAP1 SWAP2 DUP5 SWAP3 PUSH2 0x206C JUMP JUMPDEST SWAP1 POP PUSH1 0x20 SWAP3 POP PUSH2 0x205B SWAP5 SWAP2 POP PUSH1 0xFF NOT AND DUP3 DUP5 ADD MSTORE ISZERO ISZERO PUSH1 0x5 SHL DUP3 ADD ADD PUSH0 PUSH2 0x204E JUMP JUMPDEST ISZERO PUSH2 0x20CA JUMPI JUMP JUMPDEST PUSH1 0x40 MLOAD PUSH3 0x461BCD PUSH1 0xE5 SHL DUP2 MSTORE PUSH1 0x20 PUSH1 0x4 DUP3 ADD MSTORE PUSH1 0x1E PUSH1 0x24 DUP3 ADD MSTORE PUSH32 0x50617469656E74207265636F726420646F6573206E6F742065786973742E0000 PUSH1 0x44 DUP3 ADD MSTORE PUSH1 0x64 SWAP1 REVERT JUMPDEST PUSH0 SWAP3 SWAP2 DUP2 SLOAD SWAP2 PUSH2 0x211E DUP4 PUSH2 0x1FEB JUMP JUMPDEST SWAP3 PUSH1 0x1 DUP2 AND SWAP1 DUP2 ISZERO PUSH2 0x2166 JUMPI POP PUSH1 0x1 EQ PUSH2 0x2137 JUMPI POP POP POP JUMP JUMPDEST SWAP1 SWAP2 SWAP3 SWAP4 POP PUSH0 MSTORE PUSH1 0x20 PUSH0 KECCAK256 PUSH0 SWAP1 JUMPDEST DUP4 DUP3 LT PUSH2 0x2152 JUMPI POP POP ADD SWAP1 JUMP JUMPDEST PUSH1 0x1 DUP2 PUSH1 0x20 SWAP3 SLOAD DUP5 DUP7 ADD MSTORE ADD SWAP2 ADD SWAP1 PUSH2 0x2145 JUMP JUMPDEST PUSH1 0xFF NOT AND DUP4 MSTORE POP POP DUP2 ISZERO ISZERO SWAP1 SWAP2 MUL ADD SWAP2 POP JUMP JUMPDEST DUP1 SLOAD DUP3 LT ISZERO PUSH2 0x1DF3 JUMPI PUSH0 MSTORE PUSH1 0x20 PUSH0 KECCAK256 ADD SWAP1 PUSH0 SWAP1 JUMP JUMPDEST DUP2 DUP2 LT PUSH2 0x2199 JUMPI POP POP JUMP JUMPDEST PUSH0 DUP2 SSTORE PUSH1 0x1 ADD PUSH2 0x218E JUMP JUMPDEST ISZERO PUSH2 0x21AB JUMPI JUMP JUMPDEST PUSH1 0x40 MLOAD PUSH3 0x461BCD PUSH1 0xE5 SHL DUP2 MSTORE PUSH1 0x20 PUSH1 0x4 DUP3 ADD MSTORE PUSH1 0x19 PUSH1 0x24 DUP3 ADD MSTORE PUSH32 0x4E6F7420617574686F72697A656420746F207665726966792E00000000000000 PUSH1 0x44 DUP3 ADD MSTORE PUSH1 0x64 SWAP1 REVERT JUMPDEST PUSH2 0x21FD PUSH1 0x1 SLOAD DUP3 LT PUSH2 0x20C3 JUMP JUMPDEST PUSH0 MSTORE PUSH0 PUSH1 0x20 MSTORE PUSH1 0x40 PUSH0 KECCAK256 SWAP1 ORIGIN CALLER EQ DUP1 ISZERO PUSH2 0x229C JUMPI JUMPDEST PUSH2 0x221B SWAP1 PUSH2 0x21A4 JUMP JUMPDEST PUSH1 0x5 PUSH0 SWAP3 ADD SWAP1 DUP2 SLOAD SWAP3 JUMPDEST DUP4 DUP2 LT PUSH2 0x2234 JUMPI POP POP POP POP PUSH0 SWAP1 JUMP JUMPDEST PUSH1 0x40 MLOAD PUSH1 0x20 DUP2 ADD SWAP1 PUSH2 0x2260 PUSH1 0x20 DUP3 DUP7 MLOAD DUP1 DUP4 DUP10 ADD DUP8 MCOPY DUP2 ADD PUSH0 DUP4 DUP3 ADD MSTORE SUB ADD PUSH1 0x1F NOT DUP2 ADD DUP4 MSTORE DUP3 PUSH2 0x1E70 JUMP JUMPDEST MLOAD SWAP1 KECCAK256 PUSH2 0x226D DUP3 DUP6 PUSH2 0x2179 JUMP JUMPDEST POP PUSH1 0x40 MLOAD PUSH2 0x2283 DUP2 PUSH2 0xD5B PUSH1 0x20 DUP3 ADD DUP1 SWAP6 PUSH2 0x210F JUMP JUMPDEST MLOAD SWAP1 KECCAK256 EQ PUSH2 0x2293 JUMPI PUSH1 0x1 ADD PUSH2 0x2225 JUMP JUMPDEST POP POP POP POP PUSH1 0x1 SWAP1 JUMP JUMPDEST POP PUSH2 0x221B PUSH2 0x22AA CALLER DUP5 PUSH2 0x22B1 JUMP JUMPDEST SWAP1 POP PUSH2 0x2212 JUMP JUMPDEST SWAP1 PUSH0 JUMPDEST PUSH1 0xA DUP4 ADD DUP1 SLOAD DUP3 LT ISZERO PUSH2 0x22F7 JUMPI DUP2 PUSH2 0x22CB SWAP2 PUSH2 0x2179 JUMP JUMPDEST SWAP1 SLOAD PUSH1 0x3 SWAP2 SWAP1 SWAP2 SHL SHR PUSH1 0x1 PUSH1 0x1 PUSH1 0xA0 SHL SUB SWAP1 DUP2 AND SWAP1 DUP4 AND EQ PUSH2 0x22EF JUMPI PUSH1 0x1 ADD PUSH2 0x22B4 JUMP JUMPDEST POP POP POP PUSH1 0x1 SWAP1 JUMP JUMPDEST POP POP POP POP PUSH0 SWAP1 JUMP INVALID LOG2 PUSH5 0x6970667358 0x22 SLT KECCAK256 0xBA 0xE3 LT 0xC7 0xC5 0xE2 SLOAD 0xC6 0xA6 0xA6 DUP10 CALL LOG3 0xB8 PUSH15 0x55C34B2F086D5F0A54BE2BBCDE6C63 0xF8 JUMPI PUSH5 0x736F6C6343 STOP ADDMOD BYTE STOP CALLER "
				},
				"gasEstimates": {
					"creation": {
						"codeDepositCost": "1802600",
						"executionCost": "1908",
						"totalCost": "1804508"
					},
					"external": {
						"addPatientRecord(string,string,string,string,string[],string[],string[],string)": "infinite",
						"emergencyAccess(uint256,string)": "infinite",
						"grantAccess(uint256,address)": "53269",
						"nextPatientId()": "2314",
						"patientRecords(uint256)": "infinite",
						"revokeAccess(uint256,address)": "infinite",
						"setEmergencyPin(uint256,string)": "infinite",
						"updatePatientRecord(uint256,string,string,string,string,string[],string[],string[],string)": "infinite",
						"verifyAllergy(uint256,string)": "infinite",
						"verifyBloodType(uint256,string)": "infinite"
					},
					"internal": {
						"isAuthorized(struct pdh.PatientRecord storage pointer,address)": "infinite"
					}
				},
				"methodIdentifiers": {
					"addPatientRecord(string,string,string,string,string[],string[],string[],string)": "ecc7fae4",
					"emergencyAccess(uint256,string)": "3c2bc6a1",
					"grantAccess(uint256,address)": "65dd152c",
					"nextPatientId()": "b1131795",
					"patientRecords(uint256)": "d3d188a1",
					"revokeAccess(uint256,address)": "d9a5ec1b",
					"setEmergencyPin(uint256,string)": "b38deff0",
					"updatePatientRecord(uint256,string,string,string,string,string[],string[],string[],string)": "a2b50896",
					"verifyAllergy(uint256,string)": "d42dbee7",
					"verifyBloodType(uint256,string)": "e5f27aa3"
				}
			},
			"storageLayout": {
				"storage": [
					{
						"astId": 35,
						"contract": "pdh.sol:pdh",
						"label": "patientRecords",
						"offset": 0,
						"slot": "0",
						"type": "t_mapping(t_uint256,t_struct(PatientRecord)30_storage)"
					},
					{
						"astId": 37,
						"contract": "pdh.sol:pdh",
						"label": "nextPatientId",
						"offset": 0,
						"slot": "1",
						"type": "t_uint256"
					},
					{
						"astId": 476,
						"contract": "pdh.sol:pdh",
						"label": "emergencyPins",
						"offset": 0,
						"slot": "2",
						"type": "t_mapping(t_uint256,t_string_storage)"
					}
				],
				"types": {
					"t_address": {
						"encoding": "inplace",
						"label": "address",
						"numberOfBytes": "20"
					},
					"t_array(t_address)dyn_storage": {
						"base": "t_address",
						"encoding": "dynamic_array",
						"label": "address[]",
						"numberOfBytes": "32"
					},
					"t_array(t_string_storage)dyn_storage": {
						"base": "t_string_storage",
						"encoding": "dynamic_array",
						"label": "string[]",
						"numberOfBytes": "32"
					},
					"t_mapping(t_uint256,t_string_storage)": {
						"encoding": "mapping",
						"key": "t_uint256",
						"label": "mapping(uint256 => string)",
						"numberOfBytes": "32",
						"value": "t_string_storage"
					},
					"t_mapping(t_uint256,t_struct(PatientRecord)30_storage)": {
						"encoding": "mapping",
						"key": "t_uint256",
						"label": "mapping(uint256 => struct pdh.PatientRecord)",
						"numberOfBytes": "32",
						"value": "t_struct(PatientRecord)30_storage"
					},
					"t_string_storage": {
						"encoding": "bytes",
						"label": "string",
						"numberOfBytes": "32"
					},
					"t_struct(PatientRecord)30_storage": {
						"encoding": "inplace",
						"label": "struct pdh.PatientRecord",
						"members": [
							{
								"astId": 3,
								"contract": "pdh.sol:pdh",
								"label": "patientId",
								"offset": 0,
								"slot": "0",
								"type": "t_uint256"
							},
							{
								"astId": 5,
								"contract": "pdh.sol:pdh",
								"label": "name",
								"offset": 0,
								"slot": "1",
								"type": "t_string_storage"
							},
							{
								"astId": 7,
								"contract": "pdh.sol:pdh",
								"label": "dob",
								"offset": 0,
								"slot": "2",
								"type": "t_string_storage"
							},
							{
								"astId": 9,
								"contract": "pdh.sol:pdh",
								"label": "gender",
								"offset": 0,
								"slot": "3",
								"type": "t_string_storage"
							},
							{
								"astId": 11,
								"contract": "pdh.sol:pdh",
								"label": "bloodType",
								"offset": 0,
								"slot": "4",
								"type": "t_string_storage"
							},
							{
								"astId": 14,
								"contract": "pdh.sol:pdh",
								"label": "allergies",
								"offset": 0,
								"slot": "5",
								"type": "t_array(t_string_storage)dyn_storage"
							},
							{
								"astId": 17,
								"contract": "pdh.sol:pdh",
								"label": "medicalHistory",
								"offset": 0,
								"slot": "6",
								"type": "t_array(t_string_storage)dyn_storage"
							},
							{
								"astId": 20,
								"contract": "pdh.sol:pdh",
								"label": "medications",
								"offset": 0,
								"slot": "7",
								"type": "t_array(t_string_storage)dyn_storage"
							},
							{
								"astId": 22,
								"contract": "pdh.sol:pdh",
								"label": "emergencyContact",
								"offset": 0,
								"slot": "8",
								"type": "t_string_storage"
							},
							{
								"astId": 24,
								"contract": "pdh.sol:pdh",
								"label": "accessLevel",
								"offset": 0,
								"slot": "9",
								"type": "t_uint256"
							},
							{
								"astId": 27,
								"contract": "pdh.sol:pdh",
								"label": "authorizedProviders",
								"offset": 0,
								"slot": "10",
								"type": "t_array(t_address)dyn_storage"
							},
							{
								"astId": 29,
								"contract": "pdh.sol:pdh",
								"label": "timestamp",
								"offset": 0,
								"slot": "11",
								"type": "t_uint256"
							}
						],
						"numberOfBytes": "384"
					},
					"t_uint256": {
						"encoding": "inplace",
						"label": "uint256",
						"numberOfBytes": "32"
					}
				}
			},
			"userdoc": {
				"kind": "user",
				"methods": {},
				"version": 1
			}
		}
	}
}