{
	"healthr.sol": {
		"Healthr": {
			"abi": [
				{
					"anonymous": false,
					"inputs": [
						{
							"indexed": true,
							"internalType": "uint256",
							"name": "patientId",
							"type": "uint256"
						},
						{
							"indexed": false,
							"internalType": "address",
							"name": "provider",
							"type": "address"
						}
					],
					"name": "AccessGranted",
					"type": "event"
				},
				{
					"anonymous": false,
					"inputs": [
						{
							"indexed": true,
							"internalType": "uint256",
							"name": "patientId",
							"type": "uint256"
						},
						{
							"indexed": false,
							"internalType": "address",
							"name": "provider",
							"type": "address"
						}
					],
					"name": "AccessRevoked",
					"type": "event"
				},
				{
					"anonymous": false,
					"inputs": [
						{
							"indexed": true,
							"internalType": "uint256",
							"name": "patientId",
							"type": "uint256"
						},
						{
							"indexed": false,
							"internalType": "address",
							"name": "owner",
							"type": "address"
						},
						{
							"indexed": false,
							"internalType": "bytes32",
							"name": "ipfsHash",
							"type": "bytes32"
						}
					],
					"name": "RecordAdded",
					"type": "event"
				},
				{
					"anonymous": false,
					"inputs": [
						{
							"indexed": true,
							"internalType": "uint256",
							"name": "patientId",
							"type": "uint256"
						},
						{
							"indexed": false,
							"internalType": "bytes32",
							"name": "ipfsHash",
							"type": "bytes32"
						}
					],
					"name": "RecordUpdated",
					"type": "event"
				},
				{
					"inputs": [
						{
							"internalType": "bytes32",
							"name": "_ipfsHash",
							"type": "bytes32"
						},
						{
							"internalType": "bytes32[]",
							"name": "_fieldHashes",
							"type": "bytes32[]"
						},
						{
							"internalType": "string[]",
							"name": "_fieldNames",
							"type": "string[]"
						}
					],
					"name": "addPatientRecord",
					"outputs": [],
					"stateMutability": "nonpayable",
					"type": "function"
				},
				{
					"inputs": [
						{
							"internalType": "uint256",
							"name": "_patientId",
							"type": "uint256"
						},
						{
							"internalType": "string",
							"name": "_pin",
							"type": "string"
						}
					],
					"name": "emergencyAccess",
					"outputs": [
						{
							"internalType": "bytes32",
							"name": "ipfsHash",
							"type": "bytes32"
						}
					],
					"stateMutability": "view",
					"type": "function"
				},
				{
					"inputs": [
						{
							"internalType": "uint256",
							"name": "_patientId",
							"type": "uint256"
						}
					],
					"name": "getRecordReference",
					"outputs": [
						{
							"internalType": "bytes32",
							"name": "ipfsHash",
							"type": "bytes32"
						},
						{
							"internalType": "uint256",
							"name": "timestamp",
							"type": "uint256"
						}
					],
					"stateMutability": "view",
					"type": "function"
				},
				{
					"inputs": [
						{
							"internalType": "uint256",
							"name": "_patientId",
							"type": "uint256"
						},
						{
							"internalType": "address",
							"name": "_provider",
							"type": "address"
						}
					],
					"name": "grantAccess",
					"outputs": [],
					"stateMutability": "nonpayable",
					"type": "function"
				},
				{
					"inputs": [],
					"name": "nextPatientId",
					"outputs": [
						{
							"internalType": "uint256",
							"name": "",
							"type": "uint256"
						}
					],
					"stateMutability": "view",
					"type": "function"
				},
				{
					"inputs": [
						{
							"internalType": "uint256",
							"name": "",
							"type": "uint256"
						}
					],
					"name": "patientRecords",
					"outputs": [
						{
							"internalType": "uint256",
							"name": "patientId",
							"type": "uint256"
						},
						{
							"internalType": "address",
							"name": "owner",
							"type": "address"
						},
						{
							"internalType": "bytes32",
							"name": "ipfsHash",
							"type": "bytes32"
						},
						{
							"internalType": "uint256",
							"name": "accessLevel",
							"type": "uint256"
						},
						{
							"internalType": "uint256",
							"name": "timestamp",
							"type": "uint256"
						},
						{
							"internalType": "bytes32",
							"name": "emergencyPinHash",
							"type": "bytes32"
						}
					],
					"stateMutability": "view",
					"type": "function"
				},
				{
					"inputs": [
						{
							"internalType": "uint256",
							"name": "_patientId",
							"type": "uint256"
						},
						{
							"internalType": "address",
							"name": "_provider",
							"type": "address"
						}
					],
					"name": "revokeAccess",
					"outputs": [],
					"stateMutability": "nonpayable",
					"type": "function"
				},
				{
					"inputs": [
						{
							"internalType": "uint256",
							"name": "_patientId",
							"type": "uint256"
						},
						{
							"internalType": "string",
							"name": "_pin",
							"type": "string"
						}
					],
					"name": "setEmergencyPin",
					"outputs": [],
					"stateMutability": "nonpayable",
					"type": "function"
				},
				{
					"inputs": [
						{
							"internalType": "uint256",
							"name": "_patientId",
							"type": "uint256"
						},
						{
							"internalType": "bytes32",
							"name": "_ipfsHash",
							"type": "bytes32"
						},
						{
							"internalType": "bytes32[]",
							"name": "_fieldHashes",
							"type": "bytes32[]"
						},
						{
							"internalType": "string[]",
							"name": "_fieldNames",
							"type": "string[]"
						}
					],
					"name": "updatePatientRecord",
					"outputs": [],
					"stateMutability": "nonpayable",
					"type": "function"
				},
				{
					"inputs": [
						{
							"internalType": "uint256",
							"name": "_patientId",
							"type": "uint256"
						},
						{
							"internalType": "string",
							"name": "_fieldName",
							"type": "string"
						},
						{
							"internalType": "string",
							"name": "_fieldValue",
							"type": "string"
						}
					],
					"name": "verifyRecordField",
					"outputs": [
						{
							"internalType": "bool",
							"name": "",
							"type": "bool"
						}
					],
					"stateMutability": "view",
					"type": "function"
				}
			],
			"devdoc": {
				"kind": "dev",
				"methods": {},
				"version": 1
			},
			"evm": {
				"assembly": "    /* \"healthr.sol\":61:5725  contract Healthr {... */\n  0x80\n  dup1\n  0x40\n  mstore\n  jumpi(tag_1, callvalue)\n  dataSize(sub_0)\n  swap1\n  dup2\n  dataOffset(sub_0)\n  dup3\n  codecopy\n  return\ntag_1:\n  0x00\n  dup1\n  revert\nstop\n\nsub_0: assembly {\n        /* \"healthr.sol\":61:5725  contract Healthr {... */\n      mstore(0x40, 0x80)\n      jumpi(tag_13, iszero(lt(calldatasize, 0x04)))\n      0x00\n      dup1\n      revert\n    tag_13:\n      shr(0xe0, calldataload(0x00))\n      dup1\n      0x1b424e7a\n      eq\n      tag_15\n      jumpi\n      dup1\n      0x3c2bc6a1\n      eq\n      tag_17\n      jumpi\n      dup1\n      0x63893e46\n      eq\n      tag_19\n      jumpi\n      dup1\n      0x65dd152c\n      eq\n      tag_21\n      jumpi\n      dup1\n      0x65e87a19\n      eq\n      tag_23\n      jumpi\n      dup1\n      0xb1131795\n      eq\n      tag_25\n      jumpi\n      dup1\n      0xb38deff0\n      eq\n      tag_27\n      jumpi\n      dup1\n      0xb39e07e4\n      eq\n      tag_29\n      jumpi\n      dup1\n      0xd3d188a1\n      eq\n      tag_31\n      jumpi\n      0xd9a5ec1b\n      eq\n      tag_33\n      jumpi\n      0x00\n      dup1\n      revert\n    tag_33:\n      jumpi(tag_35, callvalue)\n      tag_37\n      calldatasize\n      tag_7\n      jump\t// in\n    tag_37:\n      dup2\n      0x00\n      mstore\n      mstore(0x20, 0x00)\n        /* \"healthr.sol\":916:998  require(msg.sender == patientRecords[_patientId].owner, \"Only patient can modify\") */\n      tag_38\n        /* \"healthr.sol\":61:5725  contract Healthr {... */\n      0x01\n      dup1\n      0xa0\n      shl\n      sub\n        /* \"healthr.sol\":938:970  patientRecords[_patientId].owner */\n      0x01\n        /* \"healthr.sol\":61:5725  contract Healthr {... */\n      keccak256(0x00, 0x40)\n        /* \"healthr.sol\":938:970  patientRecords[_patientId].owner */\n      add\n        /* \"healthr.sol\":61:5725  contract Healthr {... */\n      sload\n      and\n        /* \"healthr.sol\":924:934  msg.sender */\n      caller\n        /* \"healthr.sol\":924:970  msg.sender == patientRecords[_patientId].owner */\n      eq\n        /* \"healthr.sol\":916:998  require(msg.sender == patientRecords[_patientId].owner, \"Only patient can modify\") */\n      tag_12\n      jump\t// in\n    tag_38:\n        /* \"healthr.sol\":3238:3298  require(_patientId < nextPatientId, \"Record does not exist\") */\n      tag_39\n        /* \"healthr.sol\":938:970  patientRecords[_patientId].owner */\n      0x01\n        /* \"healthr.sol\":61:5725  contract Healthr {... */\n      sload\n        /* \"healthr.sol\":3246:3272  _patientId < nextPatientId */\n      dup4\n      lt\n        /* \"healthr.sol\":3238:3298  require(_patientId < nextPatientId, \"Record does not exist\") */\n      tag_8\n      jump\t// in\n    tag_39:\n        /* \"healthr.sol\":61:5725  contract Healthr {... */\n      0x00\n      dup3\n      dup2\n      mstore\n      0x20\n      dup2\n      dup2\n      mstore\n      0x40\n      dup1\n      dup4\n      keccak256\n      sub(shl(0xa0, 0x01), 0x01)\n      dup6\n      and\n      dup5\n      mstore\n        /* \"healthr.sol\":3317:3363  patientRecords[_patientId].authorizedProviders */\n      0x03\n      add\n        /* \"healthr.sol\":61:5725  contract Healthr {... */\n      swap1\n      swap2\n      mstore\n      swap1\n      keccak256\n      sload\n      0xff\n      and\n      iszero\n      tag_40\n      jumpi\n      0x00\n      dup3\n      dup2\n      mstore\n      0x20\n      dup2\n      dup2\n      mstore\n      0x40\n      dup1\n      dup4\n      keccak256\n      sub(shl(0xa0, 0x01), 0x01)\n      swap1\n      swap5\n      and\n      dup1\n      dup5\n      mstore\n        /* \"healthr.sol\":3317:3363  patientRecords[_patientId].authorizedProviders */\n      0x03\n        /* \"healthr.sol\":3423:3469  patientRecords[_patientId].authorizedProviders */\n      swap5\n      swap1\n      swap5\n      add\n        /* \"healthr.sol\":61:5725  contract Healthr {... */\n      dup3\n      mstore\n      swap2\n      dup3\n      swap1\n      keccak256\n      dup1\n      sload\n      not(0xff)\n      and\n      swap1\n      sstore\n      swap1\n      mload\n      swap2\n      dup3\n      mstore\n        /* \"healthr.sol\":3504:3540  AccessRevoked(_patientId, _provider) */\n      0x125883b94692baebecad9f111ed97ffa626523bbbadc6b0ef85ee1b56b9e52d5\n      swap2\n      log2\n        /* \"healthr.sol\":61:5725  contract Healthr {... */\n      stop\n    tag_40:\n      mload(0x40)\n      shl(0xe5, 0x461bcd)\n      dup2\n      mstore\n      0x20\n      0x04\n      dup3\n      add\n      mstore\n      0x17\n      0x24\n      dup3\n      add\n      mstore\n      0x50726f7669646572206e6f7420617574686f72697a6564000000000000000000\n      0x44\n      dup3\n      add\n      mstore\n      0x64\n      swap1\n      revert\n    tag_35:\n      0x00\n      dup1\n      revert\n    tag_31:\n      jumpi(tag_35, callvalue)\n      jumpi(tag_35, slt(add(not(0x03), calldatasize), 0x20))\n      mstore(0x00, calldataload(0x04))\n      mstore(0x20, 0x00)\n      0xc0\n      keccak256(0x00, 0x40)\n      dup1\n      sload\n      swap1\n      0x01\n      dup1\n      0xa0\n      shl\n      sub\n      0x01\n        /* \"healthr.sol\":466:521  mapping(uint256 => PatientRecord) public patientRecords */\n      dup3\n      add\n        /* \"healthr.sol\":61:5725  contract Healthr {... */\n      sload\n      and\n        /* \"healthr.sol\":466:521  mapping(uint256 => PatientRecord) public patientRecords */\n      swap1\n      0x02\n      dup2\n      add\n        /* \"healthr.sol\":61:5725  contract Healthr {... */\n      sload\n        /* \"healthr.sol\":466:521  mapping(uint256 => PatientRecord) public patientRecords */\n      0x05\n      dup3\n      add\n        /* \"healthr.sol\":61:5725  contract Healthr {... */\n      sload\n        /* \"healthr.sol\":466:521  mapping(uint256 => PatientRecord) public patientRecords */\n      swap1\n      0x07\n      0x06\n      dup5\n      add\n        /* \"healthr.sol\":61:5725  contract Healthr {... */\n      sload\n        /* \"healthr.sol\":466:521  mapping(uint256 => PatientRecord) public patientRecords */\n      swap4\n      add\n        /* \"healthr.sol\":61:5725  contract Healthr {... */\n      sload\n      swap4\n      mload(0x40)\n      swap6\n      dup7\n      mstore\n      0x20\n      dup7\n      add\n      mstore\n      0x40\n      dup6\n      add\n      mstore\n      0x60\n      dup5\n      add\n      mstore\n      0x80\n      dup4\n      add\n      mstore\n      0xa0\n      dup3\n      add\n      mstore\n      return\n    tag_29:\n      jumpi(tag_35, callvalue)\n      jumpi(tag_35, slt(add(not(0x03), calldatasize), 0x20))\n      calldataload(0x04)\n        /* \"healthr.sol\":4084:4144  require(_patientId < nextPatientId, \"Record does not exist\") */\n      tag_50\n        /* \"healthr.sol\":61:5725  contract Healthr {... */\n      sload(0x01)\n        /* \"healthr.sol\":4092:4118  _patientId < nextPatientId */\n      dup3\n      lt\n        /* \"healthr.sol\":4084:4144  require(_patientId < nextPatientId, \"Record does not exist\") */\n      tag_8\n      jump\t// in\n    tag_50:\n        /* \"healthr.sol\":61:5725  contract Healthr {... */\n      0x00\n      mstore\n      mstore(0x20, 0x00)\n      keccak256(0x00, 0x40)\n      0x01\n      dup1\n      0xa0\n      shl\n      sub\n      0x01\n        /* \"healthr.sol\":4269:4281  record.owner */\n      dup3\n      add\n        /* \"healthr.sol\":61:5725  contract Healthr {... */\n      sload\n      and\n        /* \"healthr.sol\":4255:4265  msg.sender */\n      caller\n        /* \"healthr.sol\":4255:4281  msg.sender == record.owner */\n      eq\n        /* \"healthr.sol\":4255:4337  msg.sender == record.owner || ... */\n      dup1\n      iszero\n      tag_51\n      jumpi\n        /* \"healthr.sol\":61:5725  contract Healthr {... */\n    tag_52:\n      iszero\n      tag_53\n      jumpi\n        /* \"healthr.sol\":4408:4423  record.ipfsHash */\n      dup1\n        /* \"healthr.sol\":4425:4441  record.timestamp */\n      0x06\n        /* \"healthr.sol\":4408:4423  record.ipfsHash */\n      0x02\n        /* \"healthr.sol\":61:5725  contract Healthr {... */\n      0x40\n        /* \"healthr.sol\":4408:4423  record.ipfsHash */\n      swap4\n      add\n        /* \"healthr.sol\":61:5725  contract Healthr {... */\n      sload\n        /* \"healthr.sol\":4425:4441  record.timestamp */\n      swap2\n      add\n        /* \"healthr.sol\":61:5725  contract Healthr {... */\n      sload\n      dup3\n      mload\n      swap2\n      dup3\n      mstore\n      0x20\n      dup3\n      add\n      mstore\n      return\n    tag_53:\n      mload(0x40)\n      shl(0xe5, 0x461bcd)\n      dup2\n      mstore\n      0x20\n      0x04\n      dup3\n      add\n      mstore\n      0x0e\n      0x24\n      dup3\n      add\n      mstore\n      shl(0x92, 0x139bdd08185d5d1a1bdc9a5e9959)\n      0x44\n      dup3\n      add\n      mstore\n      0x64\n      swap1\n      revert\n        /* \"healthr.sol\":4255:4337  msg.sender == record.owner || ... */\n    tag_51:\n      pop\n        /* \"healthr.sol\":4255:4265  msg.sender */\n      caller\n      0x00\n        /* \"healthr.sol\":61:5725  contract Healthr {... */\n      swap1\n      dup2\n      mstore\n        /* \"healthr.sol\":4299:4325  record.authorizedProviders */\n      0x03\n      dup3\n      add\n        /* \"healthr.sol\":61:5725  contract Healthr {... */\n      0x20\n      mstore\n      0x40\n      swap1\n      keccak256\n      sload\n      0xff\n      and\n        /* \"healthr.sol\":4255:4337  msg.sender == record.owner || ... */\n      jump(tag_52)\n        /* \"healthr.sol\":61:5725  contract Healthr {... */\n    tag_27:\n      jumpi(tag_35, callvalue)\n      tag_57\n      calldatasize\n      tag_3\n      jump\t// in\n    tag_57:\n      dup2\n      0x00\n      mstore\n      mstore(0x20, 0x00)\n        /* \"healthr.sol\":916:998  require(msg.sender == patientRecords[_patientId].owner, \"Only patient can modify\") */\n      tag_58\n        /* \"healthr.sol\":61:5725  contract Healthr {... */\n      0x01\n      dup1\n      0xa0\n      shl\n      sub\n        /* \"healthr.sol\":938:970  patientRecords[_patientId].owner */\n      0x01\n        /* \"healthr.sol\":61:5725  contract Healthr {... */\n      keccak256(0x00, 0x40)\n        /* \"healthr.sol\":938:970  patientRecords[_patientId].owner */\n      add\n        /* \"healthr.sol\":61:5725  contract Healthr {... */\n      sload\n      and\n        /* \"healthr.sol\":924:934  msg.sender */\n      caller\n        /* \"healthr.sol\":924:970  msg.sender == patientRecords[_patientId].owner */\n      eq\n        /* \"healthr.sol\":916:998  require(msg.sender == patientRecords[_patientId].owner, \"Only patient can modify\") */\n      tag_12\n      jump\t// in\n    tag_58:\n        /* \"healthr.sol\":3715:3775  require(_patientId < nextPatientId, \"Record does not exist\") */\n      tag_59\n        /* \"healthr.sol\":938:970  patientRecords[_patientId].owner */\n      0x01\n        /* \"healthr.sol\":61:5725  contract Healthr {... */\n      sload\n        /* \"healthr.sol\":3723:3749  _patientId < nextPatientId */\n      dup4\n      lt\n        /* \"healthr.sol\":3715:3775  require(_patientId < nextPatientId, \"Record does not exist\") */\n      tag_8\n      jump\t// in\n    tag_59:\n        /* \"healthr.sol\":61:5725  contract Healthr {... */\n      mload(0x40)\n        /* \"healthr.sol\":3842:3864  abi.encodePacked(_pin) */\n      tag_60\n        /* \"healthr.sol\":61:5725  contract Healthr {... */\n      0x20\n        /* \"healthr.sol\":3842:3864  abi.encodePacked(_pin) */\n      dup3\n      dup2\n      dup1\n      dup3\n      add\n        /* \"healthr.sol\":61:5725  contract Healthr {... */\n      swap6\n      dup1\n      mload\n      swap2\n      dup3\n      swap2\n      add\n      dup8\n      mcopy\n      dup2\n      add\n      0x00\n      dup4\n      dup3\n      add\n      mstore\n        /* \"healthr.sol\":3842:3864  abi.encodePacked(_pin) */\n      sub\n      add\n        /* \"healthr.sol\":5620:5649  abi.encodePacked(_fieldValue) */\n      not(0x1f)\n        /* \"healthr.sol\":3842:3864  abi.encodePacked(_pin) */\n      dup2\n      add\n      dup4\n      mstore\n      dup3\n      tag_1\n      jump\t// in\n    tag_60:\n        /* \"healthr.sol\":61:5725  contract Healthr {... */\n      mload\n        /* \"healthr.sol\":3832:3865  keccak256(abi.encodePacked(_pin)) */\n      swap1\n      keccak256\n        /* \"healthr.sol\":61:5725  contract Healthr {... */\n      swap1\n      0x00\n      mstore\n      mstore(0x20, 0x00)\n        /* \"healthr.sol\":3786:3829  patientRecords[_patientId].emergencyPinHash */\n      0x07\n        /* \"healthr.sol\":61:5725  contract Healthr {... */\n      keccak256(0x00, 0x40)\n        /* \"healthr.sol\":3786:3829  patientRecords[_patientId].emergencyPinHash */\n      add\n        /* \"healthr.sol\":61:5725  contract Healthr {... */\n      sstore\n      0x00\n      dup1\n      return\n    tag_25:\n      jumpi(tag_35, callvalue)\n      jumpi(tag_35, slt(add(not(0x03), calldatasize), 0x00))\n      0x20\n        /* \"healthr.sol\":528:556  uint256 public nextPatientId */\n      0x01\n        /* \"healthr.sol\":61:5725  contract Healthr {... */\n      sload\n      mload(0x40)\n      swap1\n      dup2\n      mstore\n      return\n    tag_23:\n      jumpi(tag_35, callvalue)\n      jumpi(tag_35, slt(add(not(0x03), calldatasize), 0x80))\n      calldataload(0x24)\n      calldataload(0x04)\n      calldataload(0x44)\n      0xffffffffffffffff\n      dup2\n      gt\n      tag_35\n      jumpi\n      tag_71\n      swap1\n      calldatasize\n      swap1\n      0x04\n      add\n      tag_5\n      jump\t// in\n    tag_71:\n      calldataload(0x64)\n      0xffffffffffffffff\n      dup2\n      gt\n      tag_35\n      jumpi\n      swap1\n      tag_74\n      dup5\n      swap3\n      calldatasize\n      swap1\n      0x04\n      add\n      tag_6\n      jump\t// in\n    tag_74:\n      swap1\n      dup4\n      0x00\n      mstore\n      mstore(0x20, 0x00)\n        /* \"healthr.sol\":916:998  require(msg.sender == patientRecords[_patientId].owner, \"Only patient can modify\") */\n      tag_75\n        /* \"healthr.sol\":61:5725  contract Healthr {... */\n      0x01\n      dup1\n      0xa0\n      shl\n      sub\n      0x01\n      keccak256(0x00, 0x40)\n        /* \"healthr.sol\":938:970  patientRecords[_patientId].owner */\n      add\n        /* \"healthr.sol\":61:5725  contract Healthr {... */\n      sload\n      and\n        /* \"healthr.sol\":924:934  msg.sender */\n      caller\n        /* \"healthr.sol\":924:970  msg.sender == patientRecords[_patientId].owner */\n      eq\n        /* \"healthr.sol\":916:998  require(msg.sender == patientRecords[_patientId].owner, \"Only patient can modify\") */\n      tag_12\n      jump\t// in\n    tag_75:\n        /* \"healthr.sol\":2055:2115  require(_patientId < nextPatientId, \"Record does not exist\") */\n      tag_76\n        /* \"healthr.sol\":61:5725  contract Healthr {... */\n      sload(0x01)\n        /* \"healthr.sol\":2063:2089  _patientId < nextPatientId */\n      dup6\n      lt\n        /* \"healthr.sol\":2055:2115  require(_patientId < nextPatientId, \"Record does not exist\") */\n      tag_8\n      jump\t// in\n    tag_76:\n        /* \"healthr.sol\":2126:2204  require(_fieldHashes.length == _fieldNames.length, \"Mismatch in field counts\") */\n      tag_77\n        /* \"healthr.sol\":61:5725  contract Healthr {... */\n      dup2\n      mload\n      dup4\n      mload\n        /* \"healthr.sol\":2134:2175  _fieldHashes.length == _fieldNames.length */\n      eq\n        /* \"healthr.sol\":2126:2204  require(_fieldHashes.length == _fieldNames.length, \"Mismatch in field counts\") */\n      tag_10\n      jump\t// in\n    tag_77:\n        /* \"healthr.sol\":61:5725  contract Healthr {... */\n      dup4\n      0x00\n      mstore\n      mstore(0x20, 0x00)\n      keccak256(0x00, 0x40)\n        /* \"healthr.sol\":2293:2308  record.ipfsHash */\n      swap4\n      dup4\n      0x02\n      dup7\n      add\n        /* \"healthr.sol\":61:5725  contract Healthr {... */\n      sstore\n        /* \"healthr.sol\":2350:2365  block.timestamp */\n      timestamp\n        /* \"healthr.sol\":2331:2347  record.timestamp */\n      0x06\n      dup7\n      add\n        /* \"healthr.sol\":61:5725  contract Healthr {... */\n      sstore\n      0x04\n      0x00\n        /* \"healthr.sol\":2447:2465  record.fieldHashes */\n      swap6\n      add\n        /* \"healthr.sol\":2386:2511  for (uint i = 0; i < _fieldNames.length; i++) {... */\n      swap5\n        /* \"healthr.sol\":2427:2430  i++ */\n    tag_78:\n        /* \"healthr.sol\":61:5725  contract Healthr {... */\n      dup4\n      mload\n        /* \"healthr.sol\":2403:2425  i < _fieldNames.length */\n      dup2\n      lt\n      iszero\n      tag_79\n      jumpi\n        /* \"healthr.sol\":2484:2499  _fieldHashes[i] */\n      dup1\n      tag_81\n        /* \"healthr.sol\":61:5725  contract Healthr {... */\n      0x01\n        /* \"healthr.sol\":2484:2499  _fieldHashes[i] */\n      swap3\n      dup6\n      tag_11\n      jump\t// in\n    tag_81:\n        /* \"healthr.sol\":61:5725  contract Healthr {... */\n      mload\n      tag_82\n        /* \"healthr.sol\":2466:2480  _fieldNames[i] */\n      dup9\n      tag_83\n      dup5\n      dup10\n      tag_11\n      jump\t// in\n    tag_83:\n      mload\n        /* \"healthr.sol\":61:5725  contract Healthr {... */\n      tag_9\n      jump\t// in\n    tag_82:\n      sstore\n      add\n        /* \"healthr.sol\":2391:2401  uint i = 0 */\n      jump(tag_78)\n        /* \"healthr.sol\":2403:2425  i < _fieldNames.length */\n    tag_79:\n      pop\n        /* \"healthr.sol\":2536:2572  RecordUpdated(_patientId, _ipfsHash) */\n      0x0fef1e979d0b74e703ce41335e4adc7465be6b6511ce6870d8d76b85a2cd987c\n        /* \"healthr.sol\":61:5725  contract Healthr {... */\n      0x20\n        /* \"healthr.sol\":2403:2425  i < _fieldNames.length */\n      dup6\n        /* \"healthr.sol\":61:5725  contract Healthr {... */\n      mload(0x40)\n      swap1\n      dup2\n      mstore\n        /* \"healthr.sol\":2536:2572  RecordUpdated(_patientId, _ipfsHash) */\n      log2\n        /* \"healthr.sol\":61:5725  contract Healthr {... */\n      stop\n    tag_21:\n      jumpi(tag_35, callvalue)\n      tag_86\n      calldatasize\n      tag_7\n      jump\t// in\n    tag_86:\n      dup2\n      0x00\n      mstore\n      mstore(0x20, 0x00)\n        /* \"healthr.sol\":916:998  require(msg.sender == patientRecords[_patientId].owner, \"Only patient can modify\") */\n      tag_87\n        /* \"healthr.sol\":61:5725  contract Healthr {... */\n      0x01\n      dup1\n      0xa0\n      shl\n      sub\n        /* \"healthr.sol\":938:970  patientRecords[_patientId].owner */\n      0x01\n        /* \"healthr.sol\":61:5725  contract Healthr {... */\n      keccak256(0x00, 0x40)\n        /* \"healthr.sol\":938:970  patientRecords[_patientId].owner */\n      add\n        /* \"healthr.sol\":61:5725  contract Healthr {... */\n      sload\n      and\n        /* \"healthr.sol\":924:934  msg.sender */\n      caller\n        /* \"healthr.sol\":924:970  msg.sender == patientRecords[_patientId].owner */\n      eq\n        /* \"healthr.sol\":916:998  require(msg.sender == patientRecords[_patientId].owner, \"Only patient can modify\") */\n      tag_12\n      jump\t// in\n    tag_87:\n        /* \"healthr.sol\":2750:2810  require(_patientId < nextPatientId, \"Record does not exist\") */\n      tag_88\n        /* \"healthr.sol\":938:970  patientRecords[_patientId].owner */\n      0x01\n        /* \"healthr.sol\":61:5725  contract Healthr {... */\n      sload\n        /* \"healthr.sol\":2758:2784  _patientId < nextPatientId */\n      dup4\n      lt\n        /* \"healthr.sol\":2750:2810  require(_patientId < nextPatientId, \"Record does not exist\") */\n      tag_8\n      jump\t// in\n    tag_88:\n        /* \"healthr.sol\":61:5725  contract Healthr {... */\n      0x00\n      dup3\n      dup2\n      mstore\n      0x20\n      dup2\n      dup2\n      mstore\n      0x40\n      dup1\n      dup4\n      keccak256\n      sub(shl(0xa0, 0x01), 0x01)\n      dup6\n      and\n      dup5\n      mstore\n        /* \"healthr.sol\":2830:2876  patientRecords[_patientId].authorizedProviders */\n      0x03\n      add\n        /* \"healthr.sol\":61:5725  contract Healthr {... */\n      swap1\n      swap2\n      mstore\n      swap1\n      keccak256\n      sload\n      0xff\n      and\n      tag_89\n      jumpi\n      0x00\n      dup3\n      dup2\n      mstore\n      0x20\n      dup2\n      dup2\n      mstore\n      0x40\n      dup1\n      dup4\n      keccak256\n      sub(shl(0xa0, 0x01), 0x01)\n      swap1\n      swap5\n      and\n      dup1\n      dup5\n      mstore\n        /* \"healthr.sol\":2830:2876  patientRecords[_patientId].authorizedProviders */\n      0x03\n        /* \"healthr.sol\":2940:2986  patientRecords[_patientId].authorizedProviders */\n      swap5\n      swap1\n      swap5\n      add\n        /* \"healthr.sol\":61:5725  contract Healthr {... */\n      dup3\n      mstore\n      swap2\n      dup3\n      swap1\n      keccak256\n      dup1\n      sload\n      not(0xff)\n      and\n      0x01\n      or\n      swap1\n      sstore\n      swap1\n      mload\n      swap2\n      dup3\n      mstore\n        /* \"healthr.sol\":3020:3056  AccessGranted(_patientId, _provider) */\n      0x3c3a9147a1fc73dd51a32f4d10c43d457e8cb826eb6f35cac6349eb965ba82b4\n      swap2\n      log2\n        /* \"healthr.sol\":61:5725  contract Healthr {... */\n      stop\n    tag_89:\n      mload(0x40)\n      shl(0xe5, 0x461bcd)\n      dup2\n      mstore\n      0x20\n      0x04\n      dup3\n      add\n      mstore\n      0x1b\n      0x24\n      dup3\n      add\n      mstore\n      0x50726f766964657220616c726561647920617574686f72697a65640000000000\n      0x44\n      dup3\n      add\n      mstore\n      0x64\n      swap1\n      revert\n    tag_19:\n      jumpi(tag_35, callvalue)\n      jumpi(tag_35, slt(add(not(0x03), calldatasize), 0x60))\n      calldataload(0x04)\n      calldataload(0x24)\n      0xffffffffffffffff\n      dup2\n      gt\n      tag_35\n      jumpi\n      tag_97\n      swap1\n      calldatasize\n      swap1\n      0x04\n      add\n      tag_5\n      jump\t// in\n    tag_97:\n      calldataload(0x44)\n      0xffffffffffffffff\n      dup2\n      gt\n      tag_35\n      jumpi\n      tag_100\n      dup4\n      swap2\n      calldatasize\n      swap1\n      0x04\n      add\n      tag_6\n      jump\t// in\n    tag_100:\n        /* \"healthr.sol\":1214:1292  require(_fieldHashes.length == _fieldNames.length, \"Mismatch in field counts\") */\n      tag_101\n        /* \"healthr.sol\":61:5725  contract Healthr {... */\n      dup4\n      mload\n      dup3\n      mload\n        /* \"healthr.sol\":1222:1263  _fieldHashes.length == _fieldNames.length */\n      eq\n        /* \"healthr.sol\":1214:1292  require(_fieldHashes.length == _fieldNames.length, \"Mismatch in field counts\") */\n      tag_10\n      jump\t// in\n    tag_101:\n        /* \"healthr.sol\":61:5725  contract Healthr {... */\n      sload(0x01)\n      swap3\n      dup4\n      0x00\n      mstore\n      mstore(0x20, 0x00)\n      keccak256(0x00, 0x40)\n      swap4\n      dup1\n      dup6\n      sstore\n      0x01\n        /* \"healthr.sol\":1463:1475  record.owner */\n      dup6\n      add\n        /* \"healthr.sol\":1478:1488  msg.sender */\n      caller\n        /* \"healthr.sol\":61:5725  contract Healthr {... */\n      shl(0xa0, 0xffffffffffffffffffffffff)\n      dup3\n      sload\n      and\n      or\n      swap1\n      sstore\n        /* \"healthr.sol\":1499:1514  record.ipfsHash */\n      dup4\n      0x02\n      dup7\n      add\n        /* \"healthr.sol\":61:5725  contract Healthr {... */\n      sstore\n        /* \"healthr.sol\":1556:1571  block.timestamp */\n      timestamp\n        /* \"healthr.sol\":1537:1553  record.timestamp */\n      0x06\n      dup7\n      add\n        /* \"healthr.sol\":61:5725  contract Healthr {... */\n      sstore\n      0x04\n      0x00\n        /* \"healthr.sol\":1653:1671  record.fieldHashes */\n      swap6\n      add\n        /* \"healthr.sol\":1592:1717  for (uint i = 0; i < _fieldNames.length; i++) {... */\n      swap5\n        /* \"healthr.sol\":1633:1636  i++ */\n    tag_102:\n        /* \"healthr.sol\":61:5725  contract Healthr {... */\n      dup4\n      mload\n        /* \"healthr.sol\":1609:1631  i < _fieldNames.length */\n      dup2\n      lt\n      iszero\n      tag_103\n      jumpi\n        /* \"healthr.sol\":1690:1705  _fieldHashes[i] */\n      dup1\n      tag_105\n        /* \"healthr.sol\":61:5725  contract Healthr {... */\n      0x01\n        /* \"healthr.sol\":1690:1705  _fieldHashes[i] */\n      swap3\n      dup6\n      tag_11\n      jump\t// in\n    tag_105:\n        /* \"healthr.sol\":61:5725  contract Healthr {... */\n      mload\n      tag_106\n        /* \"healthr.sol\":1672:1686  _fieldNames[i] */\n      dup9\n      tag_83\n      dup5\n      dup10\n      tag_11\n      jump\t// in\n        /* \"healthr.sol\":61:5725  contract Healthr {... */\n    tag_106:\n      sstore\n      add\n        /* \"healthr.sol\":1597:1607  uint i = 0 */\n      jump(tag_102)\n        /* \"healthr.sol\":1609:1631  i < _fieldNames.length */\n    tag_103:\n      pop\n      dup4\n        /* \"healthr.sol\":61:5725  contract Healthr {... */\n      sload(0x01)\n      not(0x00)\n      dup2\n      eq\n      tag_108\n      jumpi\n        /* \"healthr.sol\":1768:1813  RecordAdded(patientId, msg.sender, _ipfsHash) */\n      0xbbf4486ce56a8bb18798d25a2ef88158d76aac87bfb156491906d126855f4428\n        /* \"healthr.sol\":61:5725  contract Healthr {... */\n      swap2\n      0x01\n      0x40\n      swap3\n      add\n      0x01\n      sstore\n      dup2\n      mload\n        /* \"healthr.sol\":1478:1488  msg.sender */\n      swap1\n      caller\n        /* \"healthr.sol\":61:5725  contract Healthr {... */\n      dup3\n      mstore\n      0x20\n      dup3\n      add\n      mstore\n        /* \"healthr.sol\":1768:1813  RecordAdded(patientId, msg.sender, _ipfsHash) */\n      log2\n        /* \"healthr.sol\":61:5725  contract Healthr {... */\n      stop\n    tag_108:\n      mstore(0x00, shl(0xe0, 0x4e487b71))\n      mstore(0x04, 0x11)\n      revert(0x00, 0x24)\n    tag_17:\n      jumpi(tag_35, callvalue)\n      tag_112\n      calldatasize\n      tag_3\n      jump\t// in\n    tag_112:\n      swap1\n        /* \"healthr.sol\":4634:4694  require(_patientId < nextPatientId, \"Record does not exist\") */\n      tag_113\n        /* \"healthr.sol\":4655:4668  nextPatientId */\n      0x01\n        /* \"healthr.sol\":61:5725  contract Healthr {... */\n      sload\n        /* \"healthr.sol\":4642:4668  _patientId < nextPatientId */\n      dup3\n      lt\n        /* \"healthr.sol\":4634:4694  require(_patientId < nextPatientId, \"Record does not exist\") */\n      tag_8\n      jump\t// in\n    tag_113:\n        /* \"healthr.sol\":61:5725  contract Healthr {... */\n      0x00\n      mstore\n      mstore(0x20, 0x00)\n      keccak256(0x00, 0x40)\n      swap1\n      mload(0x40)\n        /* \"healthr.sol\":4815:4837  abi.encodePacked(_pin) */\n      tag_114\n        /* \"healthr.sol\":61:5725  contract Healthr {... */\n      0x20\n        /* \"healthr.sol\":4815:4837  abi.encodePacked(_pin) */\n      dup3\n      dup2\n      dup1\n      dup3\n      add\n        /* \"healthr.sol\":61:5725  contract Healthr {... */\n      swap6\n      dup1\n      mload\n      swap2\n      dup3\n      swap2\n      add\n      dup8\n      mcopy\n      dup2\n      add\n      0x00\n      dup4\n      dup3\n      add\n      mstore\n        /* \"healthr.sol\":4815:4837  abi.encodePacked(_pin) */\n      sub\n      add\n        /* \"healthr.sol\":5620:5649  abi.encodePacked(_fieldValue) */\n      not(0x1f)\n        /* \"healthr.sol\":4815:4837  abi.encodePacked(_pin) */\n      dup2\n      add\n      dup4\n      mstore\n      dup3\n      tag_1\n      jump\t// in\n    tag_114:\n        /* \"healthr.sol\":61:5725  contract Healthr {... */\n      mload\n        /* \"healthr.sol\":4805:4838  keccak256(abi.encodePacked(_pin)) */\n      swap1\n      keccak256\n        /* \"healthr.sol\":4842:4865  record.emergencyPinHash */\n      0x07\n      dup3\n      add\n        /* \"healthr.sol\":61:5725  contract Healthr {... */\n      sload\n        /* \"healthr.sol\":4805:4865  keccak256(abi.encodePacked(_pin)) == record.emergencyPinHash */\n      sub\n        /* \"healthr.sol\":61:5725  contract Healthr {... */\n      tag_115\n      jumpi\n        /* \"healthr.sol\":4942:4957  record.ipfsHash */\n      0x02\n        /* \"healthr.sol\":61:5725  contract Healthr {... */\n      0x20\n        /* \"healthr.sol\":4942:4957  record.ipfsHash */\n      swap2\n      add\n        /* \"healthr.sol\":61:5725  contract Healthr {... */\n      sload\n      mload(0x40)\n      swap1\n      dup2\n      mstore\n      return\n    tag_115:\n      mload(0x40)\n      shl(0xe5, 0x461bcd)\n      dup2\n      mstore\n      0x20\n      0x04\n      dup3\n      add\n      mstore\n      0x15\n      0x24\n      dup3\n      add\n      mstore\n      shl(0x59, 0x24b73b30b634b21032b6b2b933b2b731bc902824a7)\n      0x44\n      dup3\n      add\n      mstore\n      0x64\n      swap1\n      revert\n    tag_15:\n      jumpi(tag_35, callvalue)\n      jumpi(tag_35, slt(add(not(0x03), calldatasize), 0x60))\n      calldataload(0x04)\n      calldataload(0x24)\n      0xffffffffffffffff\n      dup2\n      gt\n      tag_35\n      jumpi\n      tag_123\n      swap1\n      calldatasize\n      swap1\n      0x04\n      add\n      tag_2\n      jump\t// in\n    tag_123:\n      swap1\n      calldataload(0x44)\n      0xffffffffffffffff\n      dup2\n      gt\n      tag_35\n      jumpi\n      tag_126\n      swap1\n      calldatasize\n      swap1\n      0x04\n      add\n      tag_2\n      jump\t// in\n    tag_126:\n      swap1\n        /* \"healthr.sol\":5182:5242  require(_patientId < nextPatientId, \"Record does not exist\") */\n      tag_127\n        /* \"healthr.sol\":61:5725  contract Healthr {... */\n      sload(0x01)\n        /* \"healthr.sol\":5190:5216  _patientId < nextPatientId */\n      dup3\n      lt\n        /* \"healthr.sol\":5182:5242  require(_patientId < nextPatientId, \"Record does not exist\") */\n      tag_8\n      jump\t// in\n    tag_127:\n        /* \"healthr.sol\":61:5725  contract Healthr {... */\n      0x00\n      mstore\n      mstore(0x20, 0x00)\n      keccak256(0x00, 0x40)\n        /* \"healthr.sol\":5426:5464  record.authorizedProviders[msg.sender] */\n      swap1\n        /* \"healthr.sol\":61:5725  contract Healthr {... */\n      0x01\n      dup1\n      0xa0\n      shl\n      sub\n        /* \"healthr.sol\":5453:5463  msg.sender */\n      caller\n        /* \"healthr.sol\":61:5725  contract Healthr {... */\n      and\n      0x00\n      mstore\n        /* \"healthr.sol\":5426:5452  record.authorizedProviders */\n      0x03\n      dup3\n      add\n        /* \"healthr.sol\":61:5725  contract Healthr {... */\n      0x20\n      mstore\n      and(sload(keccak256(0x00, 0x40)), 0xff)\n        /* \"healthr.sol\":5426:5494  record.authorizedProviders[msg.sender] && msg.sender != record.owner */\n      dup1\n      tag_128\n      jumpi\n        /* \"healthr.sol\":61:5725  contract Healthr {... */\n    tag_129:\n      iszero\n      tag_130\n      jumpi\n      0x20\n      swap3\n      0x04\n      tag_132\n      swap3\n      mload(0x40)\n        /* \"healthr.sol\":5620:5649  abi.encodePacked(_fieldValue) */\n      tag_133\n      dup8\n      dup3\n      dup2\n      dup1\n      dup3\n      add\n        /* \"healthr.sol\":61:5725  contract Healthr {... */\n      swap6\n      dup1\n      mload\n      swap2\n      dup3\n      swap2\n      add\n      dup8\n      mcopy\n      dup2\n      add\n      0x00\n      dup4\n      dup3\n      add\n      mstore\n        /* \"healthr.sol\":5620:5649  abi.encodePacked(_fieldValue) */\n      sub\n      add\n      not(0x1f)\n      dup2\n      add\n      dup4\n      mstore\n      dup3\n      tag_1\n      jump\t// in\n    tag_133:\n        /* \"healthr.sol\":61:5725  contract Healthr {... */\n      mload\n        /* \"healthr.sol\":5610:5650  keccak256(abi.encodePacked(_fieldValue)) */\n      swap1\n      keccak256\n        /* \"healthr.sol\":5668:5686  record.fieldHashes */\n      swap4\n      add\n        /* \"healthr.sol\":61:5725  contract Healthr {... */\n      swap1\n      tag_9\n      jump\t// in\n    tag_132:\n      sload\n        /* \"healthr.sol\":5668:5714  record.fieldHashes[_fieldName] == expectedHash */\n      eq\n        /* \"healthr.sol\":61:5725  contract Healthr {... */\n      mload(0x40)\n      swap1\n      dup2\n      mstore\n      return\n    tag_130:\n      mload(0x40)\n      shl(0xe5, 0x461bcd)\n      dup2\n      mstore\n      0x20\n      0x04\n      dup3\n      add\n      mstore\n      0x2c\n      0x24\n      dup3\n      add\n      mstore\n      0x4f6e6c7920617574686f72697a65642070726f7669646572732063616e207665\n      0x44\n      dup3\n      add\n      mstore\n      shl(0xa0, 0x72696679207265636f726473)\n      0x64\n      dup3\n      add\n      mstore\n      0x84\n      swap1\n      revert\n        /* \"healthr.sol\":5426:5494  record.authorizedProviders[msg.sender] && msg.sender != record.owner */\n    tag_128:\n      pop\n        /* \"healthr.sol\":61:5725  contract Healthr {... */\n      0x01\n        /* \"healthr.sol\":5482:5494  record.owner */\n      dup3\n      add\n        /* \"healthr.sol\":61:5725  contract Healthr {... */\n      sload\n      sub(shl(0xa0, 0x01), 0x01)\n      and\n        /* \"healthr.sol\":5453:5463  msg.sender */\n      caller\n        /* \"healthr.sol\":5468:5494  msg.sender != record.owner */\n      eq\n      iszero\n        /* \"healthr.sol\":5426:5494  record.authorizedProviders[msg.sender] && msg.sender != record.owner */\n      jump(tag_129)\n        /* \"healthr.sol\":61:5725  contract Healthr {... */\n    tag_1:\n      swap1\n      0x1f\n        /* \"healthr.sol\":5620:5649  abi.encodePacked(_fieldValue) */\n      dup1\n      not\n        /* \"healthr.sol\":61:5725  contract Healthr {... */\n      swap2\n      add\n      and\n      dup2\n      add\n      swap1\n      dup2\n      lt\n      0xffffffffffffffff\n      dup3\n      gt\n      or\n      tag_134\n      jumpi\n      0x40\n      mstore\n      jump\t// out\n    tag_134:\n      mstore(0x00, shl(0xe0, 0x4e487b71))\n      mstore(0x04, 0x41)\n      revert(0x00, 0x24)\n    tag_2:\n      dup2\n      0x1f\n      dup3\n      add\n      slt\n      iszero\n      tag_35\n      jumpi\n      dup1\n      calldataload\n      swap1\n      0xffffffffffffffff\n      dup3\n      gt\n      tag_134\n      jumpi\n      mload(0x40)\n      swap3\n      tag_140\n        /* \"healthr.sol\":5620:5649  abi.encodePacked(_fieldValue) */\n      0x1f\n        /* \"healthr.sol\":61:5725  contract Healthr {... */\n      dup5\n      add\n      not(0x1f)\n      and\n      0x20\n      add\n      dup6\n      tag_1\n      jump\t// in\n    tag_140:\n      dup3\n      dup5\n      mstore\n      0x20\n      dup4\n      dup4\n      add\n      add\n      gt\n      tag_35\n      jumpi\n      dup2\n      0x00\n      swap3\n      0x20\n      dup1\n      swap4\n      add\n      dup4\n      dup7\n      add\n      calldatacopy\n      dup4\n      add\n      add\n      mstore\n      swap1\n      jump\t// out\n    tag_3:\n      swap1\n      0x40\n      not(0x03)\n      dup4\n      add\n      slt\n      tag_35\n      jumpi\n      calldataload(0x04)\n      swap2\n      calldataload(0x24)\n      swap1\n      0xffffffffffffffff\n      dup3\n      gt\n      tag_35\n      jumpi\n      tag_147\n      swap2\n      0x04\n      add\n      tag_2\n      jump\t// in\n    tag_147:\n      swap1\n      jump\t// out\n    tag_4:\n      0xffffffffffffffff\n      dup2\n      gt\n      tag_134\n      jumpi\n      0x05\n      shl\n      0x20\n      add\n      swap1\n      jump\t// out\n    tag_5:\n      swap1\n      dup1\n      0x1f\n      dup4\n      add\n      slt\n      iszero\n      tag_35\n      jumpi\n      dup2\n      calldataload\n      tag_152\n      dup2\n      tag_4\n      jump\t// in\n    tag_152:\n      swap3\n      tag_153\n      mload(0x40)\n      swap5\n      dup6\n      tag_1\n      jump\t// in\n    tag_153:\n      dup2\n      dup5\n      mstore\n      0x20\n      dup1\n      dup6\n      add\n      swap3\n      0x05\n      shl\n      dup3\n      add\n      add\n      swap3\n      dup4\n      gt\n      tag_35\n      jumpi\n      0x20\n      add\n      swap1\n    tag_156:\n      dup3\n      dup3\n      lt\n      tag_157\n      jumpi\n      pop\n      pop\n      pop\n      swap1\n      jump\t// out\n    tag_157:\n      dup2\n      calldataload\n      dup2\n      mstore\n      0x20\n      swap2\n      dup3\n      add\n      swap2\n      add\n      jump(tag_156)\n    tag_6:\n      swap1\n      dup1\n      0x1f\n      dup4\n      add\n      slt\n      iszero\n      tag_35\n      jumpi\n      dup2\n      calldataload\n      tag_161\n      dup2\n      tag_4\n      jump\t// in\n    tag_161:\n      swap3\n      tag_162\n      mload(0x40)\n      swap5\n      dup6\n      tag_1\n      jump\t// in\n    tag_162:\n      dup2\n      dup5\n      mstore\n      0x20\n      dup1\n      dup6\n      add\n      swap3\n      0x05\n      shl\n      dup3\n      add\n      add\n      swap2\n      dup4\n      dup4\n      gt\n      tag_35\n      jumpi\n      0x20\n      dup3\n      add\n      swap1\n    tag_165:\n      dup4\n      dup3\n      lt\n      tag_166\n      jumpi\n      pop\n      pop\n      pop\n      pop\n      pop\n      swap1\n      jump\t// out\n    tag_166:\n      dup2\n      calldataload\n      0xffffffffffffffff\n      dup2\n      gt\n      tag_35\n      jumpi\n      0x20\n      swap2\n      tag_170\n      dup8\n      dup5\n      dup1\n      swap5\n      dup9\n      add\n      add\n      tag_2\n      jump\t// in\n    tag_170:\n      dup2\n      mstore\n      add\n      swap2\n      add\n      swap1\n      jump(tag_165)\n    tag_7:\n      0x40\n      swap1\n      not(0x03)\n      add\n      slt\n      tag_35\n      jumpi\n      calldataload(0x04)\n      swap1\n      calldataload(0x24)\n      sub(shl(0xa0, 0x01), 0x01)\n      dup2\n      and\n      dup2\n      sub\n      tag_35\n      jumpi\n      swap1\n      jump\t// out\n    tag_8:\n      iszero\n      tag_175\n      jumpi\n      jump\t// out\n    tag_175:\n      mload(0x40)\n      shl(0xe5, 0x461bcd)\n      dup2\n      mstore\n      0x20\n      0x04\n      dup3\n      add\n      mstore\n      0x15\n      0x24\n      dup3\n      add\n      mstore\n      shl(0x5a, 0x149958dbdc9908191bd95cc81b9bdd08195e1a5cdd)\n      0x44\n      dup3\n      add\n      mstore\n      0x64\n      swap1\n      revert\n    tag_9:\n      mload(0x40)\n      dup2\n      mload\n      swap1\n      swap3\n      0x20\n      swap3\n      dup5\n      swap3\n      swap1\n      dup2\n      swap1\n      dup6\n      add\n      dup5\n      mcopy\n      dup3\n      add\n      swap1\n      dup2\n      mstore\n      sub\n      add\n      swap1\n      keccak256\n      swap1\n      jump\t// out\n    tag_10:\n      iszero\n      tag_177\n      jumpi\n      jump\t// out\n    tag_177:\n      mload(0x40)\n      shl(0xe5, 0x461bcd)\n      dup2\n      mstore\n      0x20\n      0x04\n      dup3\n      add\n      mstore\n      0x18\n      0x24\n      dup3\n      add\n      mstore\n      0x4d69736d6174636820696e206669656c6420636f756e74730000000000000000\n      0x44\n      dup3\n      add\n      mstore\n      0x64\n      swap1\n      revert\n    tag_11:\n      dup1\n      mload\n      dup3\n      lt\n      iszero\n      tag_179\n      jumpi\n      0x20\n      swap2\n      0x05\n      shl\n      add\n      add\n      swap1\n      jump\t// out\n    tag_179:\n      mstore(0x00, shl(0xe0, 0x4e487b71))\n      mstore(0x04, 0x32)\n      revert(0x00, 0x24)\n    tag_12:\n      iszero\n      tag_181\n      jumpi\n      jump\t// out\n    tag_181:\n      mload(0x40)\n      shl(0xe5, 0x461bcd)\n      dup2\n      mstore\n      0x20\n      0x04\n      dup3\n      add\n      mstore\n      0x17\n      0x24\n      dup3\n      add\n      mstore\n      0x4f6e6c792070617469656e742063616e206d6f64696679000000000000000000\n      0x44\n      dup3\n      add\n      mstore\n      0x64\n      swap1\n      revert\n\n    auxdata: 0xa2646970667358221220390db10fc9df92088fd2b1c61e9143bbe6a1b2b9827357e89e36f3ade537f61c64736f6c634300081a0033\n}\n",
				"bytecode": {
					"linkReferences": {},
					"object": "60808060405234601557610bb3908161001a8239f35b5f80fdfe60806040526004361015610011575f80fd5b5f3560e01c80631b424e7a146107345780633c2bc6a11461068857806363893e461461055f57806365dd152c1461045757806365e87a1914610343578063b113179514610326578063b38deff0146102a8578063b39e07e4146101f9578063d3d188a1146101915763d9a5ec1b14610087575f80fd5b3461018d5761009536610a34565b815f525f6020526100b660018060a01b03600160405f200154163314610b31565b6100c36001548310610a5a565b5f828152602081815260408083206001600160a01b038516845260030190915290205460ff1615610148575f828152602081815260408083206001600160a01b03909416808452600394909401825291829020805460ff1916905590519182527f125883b94692baebecad9f111ed97ffa626523bbbadc6b0ef85ee1b56b9e52d591a2005b60405162461bcd60e51b815260206004820152601760248201527f50726f7669646572206e6f7420617574686f72697a65640000000000000000006044820152606490fd5b5f80fd5b3461018d57602036600319011261018d576004355f525f60205260c060405f2080549060018060a01b036001820154169060028101546005820154906007600684015493015493604051958652602086015260408501526060840152608083015260a0820152f35b3461018d57602036600319011261018d5760043561021a6001548210610a5a565b5f525f60205260405f2060018060a01b036001820154163314801561028e575b15610258578060066002604093015491015482519182526020820152f35b60405162461bcd60e51b815260206004820152600e60248201526d139bdd08185d5d1a1bdc9a5e995960921b6044820152606490fd5b50335f90815260038201602052604090205460ff1661023a565b3461018d576102b63661090d565b815f525f6020526102d760018060a01b03600160405f200154163314610b31565b6102e46001548310610a5a565b6040516103106020828180820195805191829101875e81015f838201520301601f198101835282610881565b519020905f525f602052600760405f2001555f80f35b3461018d575f36600319011261018d576020600154604051908152f35b3461018d57608036600319011261018d5760243560043560443567ffffffffffffffff811161018d5761037a903690600401610958565b60643567ffffffffffffffff811161018d579061039c849236906004016109b5565b90835f525f6020526103be60018060a01b03600160405f200154163314610b31565b6103cb6001548510610a5a565b6103d88151835114610abd565b835f525f60205260405f209383600286015542600686015560045f9501945b8351811015610429578061040d60019285610b09565b516104228861041c8489610b09565b51610a9e565b55016103f7565b507f0fef1e979d0b74e703ce41335e4adc7465be6b6511ce6870d8d76b85a2cd987c602085604051908152a2005b3461018d5761046536610a34565b815f525f60205261048660018060a01b03600160405f200154163314610b31565b6104936001548310610a5a565b5f828152602081815260408083206001600160a01b038516845260030190915290205460ff1661051a575f828152602081815260408083206001600160a01b03909416808452600394909401825291829020805460ff1916600117905590519182527f3c3a9147a1fc73dd51a32f4d10c43d457e8cb826eb6f35cac6349eb965ba82b491a2005b60405162461bcd60e51b815260206004820152601b60248201527f50726f766964657220616c726561647920617574686f72697a656400000000006044820152606490fd5b3461018d57606036600319011261018d5760043560243567ffffffffffffffff811161018d57610593903690600401610958565b60443567ffffffffffffffff811161018d576105b4839136906004016109b5565b6105c18351825114610abd565b60015492835f525f60205260405f209380855560018501336bffffffffffffffffffffffff60a01b82541617905583600286015542600686015560045f9501945b835181101561062e578061061860019285610b09565b516106278861041c8489610b09565b5501610602565b50836001545f198114610674577fbbf4486ce56a8bb18798d25a2ef88158d76aac87bfb156491906d126855f4428916001604092016001558151903382526020820152a2005b634e487b7160e01b5f52601160045260245ffd5b3461018d576106963661090d565b906106a46001548210610a5a565b5f525f60205260405f20906040516106db6020828180820195805191829101875e81015f838201520301601f198101835282610881565b5190206007820154036106f75760026020910154604051908152f35b60405162461bcd60e51b815260206004820152601560248201527424b73b30b634b21032b6b2b933b2b731bc902824a760591b6044820152606490fd5b3461018d57606036600319011261018d5760043560243567ffffffffffffffff811161018d576107689036906004016108b7565b9060443567ffffffffffffffff811161018d576107899036906004016108b7565b906107976001548210610a5a565b5f525f60205260405f209060018060a01b0333165f526003820160205260ff60405f2054168061086a575b15610810576020926004610806926040516107fb87828180820195805191829101875e81015f838201520301601f198101835282610881565b519020930190610a9e565b5414604051908152f35b60405162461bcd60e51b815260206004820152602c60248201527f4f6e6c7920617574686f72697a65642070726f7669646572732063616e20766560448201526b72696679207265636f72647360a01b6064820152608490fd5b5060018201546001600160a01b03163314156107c2565b90601f8019910116810190811067ffffffffffffffff8211176108a357604052565b634e487b7160e01b5f52604160045260245ffd5b81601f8201121561018d5780359067ffffffffffffffff82116108a357604051926108ec601f8401601f191660200185610881565b8284526020838301011161018d57815f926020809301838601378301015290565b90604060031983011261018d57600435916024359067ffffffffffffffff821161018d5761093d916004016108b7565b90565b67ffffffffffffffff81116108a35760051b60200190565b9080601f8301121561018d57813561096f81610940565b9261097d6040519485610881565b81845260208085019260051b82010192831161018d57602001905b8282106109a55750505090565b8135815260209182019101610998565b9080601f8301121561018d5781356109cc81610940565b926109da6040519485610881565b81845260208085019260051b8201019183831161018d5760208201905b838210610a0657505050505090565b813567ffffffffffffffff811161018d57602091610a29878480948801016108b7565b8152019101906109f7565b604090600319011261018d57600435906024356001600160a01b038116810361018d5790565b15610a6157565b60405162461bcd60e51b8152602060048201526015602482015274149958dbdc9908191bd95cc81b9bdd08195e1a5cdd605a1b6044820152606490fd5b6040518151909260209284929081908501845e82019081520301902090565b15610ac457565b60405162461bcd60e51b815260206004820152601860248201527f4d69736d6174636820696e206669656c6420636f756e747300000000000000006044820152606490fd5b8051821015610b1d5760209160051b010190565b634e487b7160e01b5f52603260045260245ffd5b15610b3857565b60405162461bcd60e51b815260206004820152601760248201527f4f6e6c792070617469656e742063616e206d6f646966790000000000000000006044820152606490fdfea2646970667358221220390db10fc9df92088fd2b1c61e9143bbe6a1b2b9827357e89e36f3ade537f61c64736f6c634300081a0033",
					"opcodes": "PUSH1 0x80 DUP1 PUSH1 0x40 MSTORE CALLVALUE PUSH1 0x15 JUMPI PUSH2 0xBB3 SWAP1 DUP2 PUSH2 0x1A DUP3 CODECOPY RETURN JUMPDEST PUSH0 DUP1 REVERT INVALID PUSH1 0x80 PUSH1 0x40 MSTORE PUSH1 0x4 CALLDATASIZE LT ISZERO PUSH2 0x11 JUMPI PUSH0 DUP1 REVERT JUMPDEST PUSH0 CALLDATALOAD PUSH1 0xE0 SHR DUP1 PUSH4 0x1B424E7A EQ PUSH2 0x734 JUMPI DUP1 PUSH4 0x3C2BC6A1 EQ PUSH2 0x688 JUMPI DUP1 PUSH4 0x63893E46 EQ PUSH2 0x55F JUMPI DUP1 PUSH4 0x65DD152C EQ PUSH2 0x457 JUMPI DUP1 PUSH4 0x65E87A19 EQ PUSH2 0x343 JUMPI DUP1 PUSH4 0xB1131795 EQ PUSH2 0x326 JUMPI DUP1 PUSH4 0xB38DEFF0 EQ PUSH2 0x2A8 JUMPI DUP1 PUSH4 0xB39E07E4 EQ PUSH2 0x1F9 JUMPI DUP1 PUSH4 0xD3D188A1 EQ PUSH2 0x191 JUMPI PUSH4 0xD9A5EC1B EQ PUSH2 0x87 JUMPI PUSH0 DUP1 REVERT JUMPDEST CALLVALUE PUSH2 0x18D JUMPI PUSH2 0x95 CALLDATASIZE PUSH2 0xA34 JUMP JUMPDEST DUP2 PUSH0 MSTORE PUSH0 PUSH1 0x20 MSTORE PUSH2 0xB6 PUSH1 0x1 DUP1 PUSH1 0xA0 SHL SUB PUSH1 0x1 PUSH1 0x40 PUSH0 KECCAK256 ADD SLOAD AND CALLER EQ PUSH2 0xB31 JUMP JUMPDEST PUSH2 0xC3 PUSH1 0x1 SLOAD DUP4 LT PUSH2 0xA5A JUMP JUMPDEST PUSH0 DUP3 DUP2 MSTORE PUSH1 0x20 DUP2 DUP2 MSTORE PUSH1 0x40 DUP1 DUP4 KECCAK256 PUSH1 0x1 PUSH1 0x1 PUSH1 0xA0 SHL SUB DUP6 AND DUP5 MSTORE PUSH1 0x3 ADD SWAP1 SWAP2 MSTORE SWAP1 KECCAK256 SLOAD PUSH1 0xFF AND ISZERO PUSH2 0x148 JUMPI PUSH0 DUP3 DUP2 MSTORE PUSH1 0x20 DUP2 DUP2 MSTORE PUSH1 0x40 DUP1 DUP4 KECCAK256 PUSH1 0x1 PUSH1 0x1 PUSH1 0xA0 SHL SUB SWAP1 SWAP5 AND DUP1 DUP5 MSTORE PUSH1 0x3 SWAP5 SWAP1 SWAP5 ADD DUP3 MSTORE SWAP2 DUP3 SWAP1 KECCAK256 DUP1 SLOAD PUSH1 0xFF NOT AND SWAP1 SSTORE SWAP1 MLOAD SWAP2 DUP3 MSTORE PUSH32 0x125883B94692BAEBECAD9F111ED97FFA626523BBBADC6B0EF85EE1B56B9E52D5 SWAP2 LOG2 STOP JUMPDEST PUSH1 0x40 MLOAD PUSH3 0x461BCD PUSH1 0xE5 SHL DUP2 MSTORE PUSH1 0x20 PUSH1 0x4 DUP3 ADD MSTORE PUSH1 0x17 PUSH1 0x24 DUP3 ADD MSTORE PUSH32 0x50726F7669646572206E6F7420617574686F72697A6564000000000000000000 PUSH1 0x44 DUP3 ADD MSTORE PUSH1 0x64 SWAP1 REVERT JUMPDEST PUSH0 DUP1 REVERT JUMPDEST CALLVALUE PUSH2 0x18D JUMPI PUSH1 0x20 CALLDATASIZE PUSH1 0x3 NOT ADD SLT PUSH2 0x18D JUMPI PUSH1 0x4 CALLDATALOAD PUSH0 MSTORE PUSH0 PUSH1 0x20 MSTORE PUSH1 0xC0 PUSH1 0x40 PUSH0 KECCAK256 DUP1 SLOAD SWAP1 PUSH1 0x1 DUP1 PUSH1 0xA0 SHL SUB PUSH1 0x1 DUP3 ADD SLOAD AND SWAP1 PUSH1 0x2 DUP2 ADD SLOAD PUSH1 0x5 DUP3 ADD SLOAD SWAP1 PUSH1 0x7 PUSH1 0x6 DUP5 ADD SLOAD SWAP4 ADD SLOAD SWAP4 PUSH1 0x40 MLOAD SWAP6 DUP7 MSTORE PUSH1 0x20 DUP7 ADD MSTORE PUSH1 0x40 DUP6 ADD MSTORE PUSH1 0x60 DUP5 ADD MSTORE PUSH1 0x80 DUP4 ADD MSTORE PUSH1 0xA0 DUP3 ADD MSTORE RETURN JUMPDEST CALLVALUE PUSH2 0x18D JUMPI PUSH1 0x20 CALLDATASIZE PUSH1 0x3 NOT ADD SLT PUSH2 0x18D JUMPI PUSH1 0x4 CALLDATALOAD PUSH2 0x21A PUSH1 0x1 SLOAD DUP3 LT PUSH2 0xA5A JUMP JUMPDEST PUSH0 MSTORE PUSH0 PUSH1 0x20 MSTORE PUSH1 0x40 PUSH0 KECCAK256 PUSH1 0x1 DUP1 PUSH1 0xA0 SHL SUB PUSH1 0x1 DUP3 ADD SLOAD AND CALLER EQ DUP1 ISZERO PUSH2 0x28E JUMPI JUMPDEST ISZERO PUSH2 0x258 JUMPI DUP1 PUSH1 0x6 PUSH1 0x2 PUSH1 0x40 SWAP4 ADD SLOAD SWAP2 ADD SLOAD DUP3 MLOAD SWAP2 DUP3 MSTORE PUSH1 0x20 DUP3 ADD MSTORE RETURN JUMPDEST PUSH1 0x40 MLOAD PUSH3 0x461BCD PUSH1 0xE5 SHL DUP2 MSTORE PUSH1 0x20 PUSH1 0x4 DUP3 ADD MSTORE PUSH1 0xE PUSH1 0x24 DUP3 ADD MSTORE PUSH14 0x139BDD08185D5D1A1BDC9A5E9959 PUSH1 0x92 SHL PUSH1 0x44 DUP3 ADD MSTORE PUSH1 0x64 SWAP1 REVERT JUMPDEST POP CALLER PUSH0 SWAP1 DUP2 MSTORE PUSH1 0x3 DUP3 ADD PUSH1 0x20 MSTORE PUSH1 0x40 SWAP1 KECCAK256 SLOAD PUSH1 0xFF AND PUSH2 0x23A JUMP JUMPDEST CALLVALUE PUSH2 0x18D JUMPI PUSH2 0x2B6 CALLDATASIZE PUSH2 0x90D JUMP JUMPDEST DUP2 PUSH0 MSTORE PUSH0 PUSH1 0x20 MSTORE PUSH2 0x2D7 PUSH1 0x1 DUP1 PUSH1 0xA0 SHL SUB PUSH1 0x1 PUSH1 0x40 PUSH0 KECCAK256 ADD SLOAD AND CALLER EQ PUSH2 0xB31 JUMP JUMPDEST PUSH2 0x2E4 PUSH1 0x1 SLOAD DUP4 LT PUSH2 0xA5A JUMP JUMPDEST PUSH1 0x40 MLOAD PUSH2 0x310 PUSH1 0x20 DUP3 DUP2 DUP1 DUP3 ADD SWAP6 DUP1 MLOAD SWAP2 DUP3 SWAP2 ADD DUP8 MCOPY DUP2 ADD PUSH0 DUP4 DUP3 ADD MSTORE SUB ADD PUSH1 0x1F NOT DUP2 ADD DUP4 MSTORE DUP3 PUSH2 0x881 JUMP JUMPDEST MLOAD SWAP1 KECCAK256 SWAP1 PUSH0 MSTORE PUSH0 PUSH1 0x20 MSTORE PUSH1 0x7 PUSH1 0x40 PUSH0 KECCAK256 ADD SSTORE PUSH0 DUP1 RETURN JUMPDEST CALLVALUE PUSH2 0x18D JUMPI PUSH0 CALLDATASIZE PUSH1 0x3 NOT ADD SLT PUSH2 0x18D JUMPI PUSH1 0x20 PUSH1 0x1 SLOAD PUSH1 0x40 MLOAD SWAP1 DUP2 MSTORE RETURN JUMPDEST CALLVALUE PUSH2 0x18D JUMPI PUSH1 0x80 CALLDATASIZE PUSH1 0x3 NOT ADD SLT PUSH2 0x18D JUMPI PUSH1 0x24 CALLDATALOAD PUSH1 0x4 CALLDATALOAD PUSH1 0x44 CALLDATALOAD PUSH8 0xFFFFFFFFFFFFFFFF DUP2 GT PUSH2 0x18D JUMPI PUSH2 0x37A SWAP1 CALLDATASIZE SWAP1 PUSH1 0x4 ADD PUSH2 0x958 JUMP JUMPDEST PUSH1 0x64 CALLDATALOAD PUSH8 0xFFFFFFFFFFFFFFFF DUP2 GT PUSH2 0x18D JUMPI SWAP1 PUSH2 0x39C DUP5 SWAP3 CALLDATASIZE SWAP1 PUSH1 0x4 ADD PUSH2 0x9B5 JUMP JUMPDEST SWAP1 DUP4 PUSH0 MSTORE PUSH0 PUSH1 0x20 MSTORE PUSH2 0x3BE PUSH1 0x1 DUP1 PUSH1 0xA0 SHL SUB PUSH1 0x1 PUSH1 0x40 PUSH0 KECCAK256 ADD SLOAD AND CALLER EQ PUSH2 0xB31 JUMP JUMPDEST PUSH2 0x3CB PUSH1 0x1 SLOAD DUP6 LT PUSH2 0xA5A JUMP JUMPDEST PUSH2 0x3D8 DUP2 MLOAD DUP4 MLOAD EQ PUSH2 0xABD JUMP JUMPDEST DUP4 PUSH0 MSTORE PUSH0 PUSH1 0x20 MSTORE PUSH1 0x40 PUSH0 KECCAK256 SWAP4 DUP4 PUSH1 0x2 DUP7 ADD SSTORE TIMESTAMP PUSH1 0x6 DUP7 ADD SSTORE PUSH1 0x4 PUSH0 SWAP6 ADD SWAP5 JUMPDEST DUP4 MLOAD DUP2 LT ISZERO PUSH2 0x429 JUMPI DUP1 PUSH2 0x40D PUSH1 0x1 SWAP3 DUP6 PUSH2 0xB09 JUMP JUMPDEST MLOAD PUSH2 0x422 DUP9 PUSH2 0x41C DUP5 DUP10 PUSH2 0xB09 JUMP JUMPDEST MLOAD PUSH2 0xA9E JUMP JUMPDEST SSTORE ADD PUSH2 0x3F7 JUMP JUMPDEST POP PUSH32 0xFEF1E979D0B74E703CE41335E4ADC7465BE6B6511CE6870D8D76B85A2CD987C PUSH1 0x20 DUP6 PUSH1 0x40 MLOAD SWAP1 DUP2 MSTORE LOG2 STOP JUMPDEST CALLVALUE PUSH2 0x18D JUMPI PUSH2 0x465 CALLDATASIZE PUSH2 0xA34 JUMP JUMPDEST DUP2 PUSH0 MSTORE PUSH0 PUSH1 0x20 MSTORE PUSH2 0x486 PUSH1 0x1 DUP1 PUSH1 0xA0 SHL SUB PUSH1 0x1 PUSH1 0x40 PUSH0 KECCAK256 ADD SLOAD AND CALLER EQ PUSH2 0xB31 JUMP JUMPDEST PUSH2 0x493 PUSH1 0x1 SLOAD DUP4 LT PUSH2 0xA5A JUMP JUMPDEST PUSH0 DUP3 DUP2 MSTORE PUSH1 0x20 DUP2 DUP2 MSTORE PUSH1 0x40 DUP1 DUP4 KECCAK256 PUSH1 0x1 PUSH1 0x1 PUSH1 0xA0 SHL SUB DUP6 AND DUP5 MSTORE PUSH1 0x3 ADD SWAP1 SWAP2 MSTORE SWAP1 KECCAK256 SLOAD PUSH1 0xFF AND PUSH2 0x51A JUMPI PUSH0 DUP3 DUP2 MSTORE PUSH1 0x20 DUP2 DUP2 MSTORE PUSH1 0x40 DUP1 DUP4 KECCAK256 PUSH1 0x1 PUSH1 0x1 PUSH1 0xA0 SHL SUB SWAP1 SWAP5 AND DUP1 DUP5 MSTORE PUSH1 0x3 SWAP5 SWAP1 SWAP5 ADD DUP3 MSTORE SWAP2 DUP3 SWAP1 KECCAK256 DUP1 SLOAD PUSH1 0xFF NOT AND PUSH1 0x1 OR SWAP1 SSTORE SWAP1 MLOAD SWAP2 DUP3 MSTORE PUSH32 0x3C3A9147A1FC73DD51A32F4D10C43D457E8CB826EB6F35CAC6349EB965BA82B4 SWAP2 LOG2 STOP JUMPDEST PUSH1 0x40 MLOAD PUSH3 0x461BCD PUSH1 0xE5 SHL DUP2 MSTORE PUSH1 0x20 PUSH1 0x4 DUP3 ADD MSTORE PUSH1 0x1B PUSH1 0x24 DUP3 ADD MSTORE PUSH32 0x50726F766964657220616C726561647920617574686F72697A65640000000000 PUSH1 0x44 DUP3 ADD MSTORE PUSH1 0x64 SWAP1 REVERT JUMPDEST CALLVALUE PUSH2 0x18D JUMPI PUSH1 0x60 CALLDATASIZE PUSH1 0x3 NOT ADD SLT PUSH2 0x18D JUMPI PUSH1 0x4 CALLDATALOAD PUSH1 0x24 CALLDATALOAD PUSH8 0xFFFFFFFFFFFFFFFF DUP2 GT PUSH2 0x18D JUMPI PUSH2 0x593 SWAP1 CALLDATASIZE SWAP1 PUSH1 0x4 ADD PUSH2 0x958 JUMP JUMPDEST PUSH1 0x44 CALLDATALOAD PUSH8 0xFFFFFFFFFFFFFFFF DUP2 GT PUSH2 0x18D JUMPI PUSH2 0x5B4 DUP4 SWAP2 CALLDATASIZE SWAP1 PUSH1 0x4 ADD PUSH2 0x9B5 JUMP JUMPDEST PUSH2 0x5C1 DUP4 MLOAD DUP3 MLOAD EQ PUSH2 0xABD JUMP JUMPDEST PUSH1 0x1 SLOAD SWAP3 DUP4 PUSH0 MSTORE PUSH0 PUSH1 0x20 MSTORE PUSH1 0x40 PUSH0 KECCAK256 SWAP4 DUP1 DUP6 SSTORE PUSH1 0x1 DUP6 ADD CALLER PUSH12 0xFFFFFFFFFFFFFFFFFFFFFFFF PUSH1 0xA0 SHL DUP3 SLOAD AND OR SWAP1 SSTORE DUP4 PUSH1 0x2 DUP7 ADD SSTORE TIMESTAMP PUSH1 0x6 DUP7 ADD SSTORE PUSH1 0x4 PUSH0 SWAP6 ADD SWAP5 JUMPDEST DUP4 MLOAD DUP2 LT ISZERO PUSH2 0x62E JUMPI DUP1 PUSH2 0x618 PUSH1 0x1 SWAP3 DUP6 PUSH2 0xB09 JUMP JUMPDEST MLOAD PUSH2 0x627 DUP9 PUSH2 0x41C DUP5 DUP10 PUSH2 0xB09 JUMP JUMPDEST SSTORE ADD PUSH2 0x602 JUMP JUMPDEST POP DUP4 PUSH1 0x1 SLOAD PUSH0 NOT DUP2 EQ PUSH2 0x674 JUMPI PUSH32 0xBBF4486CE56A8BB18798D25A2EF88158D76AAC87BFB156491906D126855F4428 SWAP2 PUSH1 0x1 PUSH1 0x40 SWAP3 ADD PUSH1 0x1 SSTORE DUP2 MLOAD SWAP1 CALLER DUP3 MSTORE PUSH1 0x20 DUP3 ADD MSTORE LOG2 STOP JUMPDEST PUSH4 0x4E487B71 PUSH1 0xE0 SHL PUSH0 MSTORE PUSH1 0x11 PUSH1 0x4 MSTORE PUSH1 0x24 PUSH0 REVERT JUMPDEST CALLVALUE PUSH2 0x18D JUMPI PUSH2 0x696 CALLDATASIZE PUSH2 0x90D JUMP JUMPDEST SWAP1 PUSH2 0x6A4 PUSH1 0x1 SLOAD DUP3 LT PUSH2 0xA5A JUMP JUMPDEST PUSH0 MSTORE PUSH0 PUSH1 0x20 MSTORE PUSH1 0x40 PUSH0 KECCAK256 SWAP1 PUSH1 0x40 MLOAD PUSH2 0x6DB PUSH1 0x20 DUP3 DUP2 DUP1 DUP3 ADD SWAP6 DUP1 MLOAD SWAP2 DUP3 SWAP2 ADD DUP8 MCOPY DUP2 ADD PUSH0 DUP4 DUP3 ADD MSTORE SUB ADD PUSH1 0x1F NOT DUP2 ADD DUP4 MSTORE DUP3 PUSH2 0x881 JUMP JUMPDEST MLOAD SWAP1 KECCAK256 PUSH1 0x7 DUP3 ADD SLOAD SUB PUSH2 0x6F7 JUMPI PUSH1 0x2 PUSH1 0x20 SWAP2 ADD SLOAD PUSH1 0x40 MLOAD SWAP1 DUP2 MSTORE RETURN JUMPDEST PUSH1 0x40 MLOAD PUSH3 0x461BCD PUSH1 0xE5 SHL DUP2 MSTORE PUSH1 0x20 PUSH1 0x4 DUP3 ADD MSTORE PUSH1 0x15 PUSH1 0x24 DUP3 ADD MSTORE PUSH21 0x24B73B30B634B21032B6B2B933B2B731BC902824A7 PUSH1 0x59 SHL PUSH1 0x44 DUP3 ADD MSTORE PUSH1 0x64 SWAP1 REVERT JUMPDEST CALLVALUE PUSH2 0x18D JUMPI PUSH1 0x60 CALLDATASIZE PUSH1 0x3 NOT ADD SLT PUSH2 0x18D JUMPI PUSH1 0x4 CALLDATALOAD PUSH1 0x24 CALLDATALOAD PUSH8 0xFFFFFFFFFFFFFFFF DUP2 GT PUSH2 0x18D JUMPI PUSH2 0x768 SWAP1 CALLDATASIZE SWAP1 PUSH1 0x4 ADD PUSH2 0x8B7 JUMP JUMPDEST SWAP1 PUSH1 0x44 CALLDATALOAD PUSH8 0xFFFFFFFFFFFFFFFF DUP2 GT PUSH2 0x18D JUMPI PUSH2 0x789 SWAP1 CALLDATASIZE SWAP1 PUSH1 0x4 ADD PUSH2 0x8B7 JUMP JUMPDEST SWAP1 PUSH2 0x797 PUSH1 0x1 SLOAD DUP3 LT PUSH2 0xA5A JUMP JUMPDEST PUSH0 MSTORE PUSH0 PUSH1 0x20 MSTORE PUSH1 0x40 PUSH0 KECCAK256 SWAP1 PUSH1 0x1 DUP1 PUSH1 0xA0 SHL SUB CALLER AND PUSH0 MSTORE PUSH1 0x3 DUP3 ADD PUSH1 0x20 MSTORE PUSH1 0xFF PUSH1 0x40 PUSH0 KECCAK256 SLOAD AND DUP1 PUSH2 0x86A JUMPI JUMPDEST ISZERO PUSH2 0x810 JUMPI PUSH1 0x20 SWAP3 PUSH1 0x4 PUSH2 0x806 SWAP3 PUSH1 0x40 MLOAD PUSH2 0x7FB DUP8 DUP3 DUP2 DUP1 DUP3 ADD SWAP6 DUP1 MLOAD SWAP2 DUP3 SWAP2 ADD DUP8 MCOPY DUP2 ADD PUSH0 DUP4 DUP3 ADD MSTORE SUB ADD PUSH1 0x1F NOT DUP2 ADD DUP4 MSTORE DUP3 PUSH2 0x881 JUMP JUMPDEST MLOAD SWAP1 KECCAK256 SWAP4 ADD SWAP1 PUSH2 0xA9E JUMP JUMPDEST SLOAD EQ PUSH1 0x40 MLOAD SWAP1 DUP2 MSTORE RETURN JUMPDEST PUSH1 0x40 MLOAD PUSH3 0x461BCD PUSH1 0xE5 SHL DUP2 MSTORE PUSH1 0x20 PUSH1 0x4 DUP3 ADD MSTORE PUSH1 0x2C PUSH1 0x24 DUP3 ADD MSTORE PUSH32 0x4F6E6C7920617574686F72697A65642070726F7669646572732063616E207665 PUSH1 0x44 DUP3 ADD MSTORE PUSH12 0x72696679207265636F726473 PUSH1 0xA0 SHL PUSH1 0x64 DUP3 ADD MSTORE PUSH1 0x84 SWAP1 REVERT JUMPDEST POP PUSH1 0x1 DUP3 ADD SLOAD PUSH1 0x1 PUSH1 0x1 PUSH1 0xA0 SHL SUB AND CALLER EQ ISZERO PUSH2 0x7C2 JUMP JUMPDEST SWAP1 PUSH1 0x1F DUP1 NOT SWAP2 ADD AND DUP2 ADD SWAP1 DUP2 LT PUSH8 0xFFFFFFFFFFFFFFFF DUP3 GT OR PUSH2 0x8A3 JUMPI PUSH1 0x40 MSTORE JUMP JUMPDEST PUSH4 0x4E487B71 PUSH1 0xE0 SHL PUSH0 MSTORE PUSH1 0x41 PUSH1 0x4 MSTORE PUSH1 0x24 PUSH0 REVERT JUMPDEST DUP2 PUSH1 0x1F DUP3 ADD SLT ISZERO PUSH2 0x18D JUMPI DUP1 CALLDATALOAD SWAP1 PUSH8 0xFFFFFFFFFFFFFFFF DUP3 GT PUSH2 0x8A3 JUMPI PUSH1 0x40 MLOAD SWAP3 PUSH2 0x8EC PUSH1 0x1F DUP5 ADD PUSH1 0x1F NOT AND PUSH1 0x20 ADD DUP6 PUSH2 0x881 JUMP JUMPDEST DUP3 DUP5 MSTORE PUSH1 0x20 DUP4 DUP4 ADD ADD GT PUSH2 0x18D JUMPI DUP2 PUSH0 SWAP3 PUSH1 0x20 DUP1 SWAP4 ADD DUP4 DUP7 ADD CALLDATACOPY DUP4 ADD ADD MSTORE SWAP1 JUMP JUMPDEST SWAP1 PUSH1 0x40 PUSH1 0x3 NOT DUP4 ADD SLT PUSH2 0x18D JUMPI PUSH1 0x4 CALLDATALOAD SWAP2 PUSH1 0x24 CALLDATALOAD SWAP1 PUSH8 0xFFFFFFFFFFFFFFFF DUP3 GT PUSH2 0x18D JUMPI PUSH2 0x93D SWAP2 PUSH1 0x4 ADD PUSH2 0x8B7 JUMP JUMPDEST SWAP1 JUMP JUMPDEST PUSH8 0xFFFFFFFFFFFFFFFF DUP2 GT PUSH2 0x8A3 JUMPI PUSH1 0x5 SHL PUSH1 0x20 ADD SWAP1 JUMP JUMPDEST SWAP1 DUP1 PUSH1 0x1F DUP4 ADD SLT ISZERO PUSH2 0x18D JUMPI DUP2 CALLDATALOAD PUSH2 0x96F DUP2 PUSH2 0x940 JUMP JUMPDEST SWAP3 PUSH2 0x97D PUSH1 0x40 MLOAD SWAP5 DUP6 PUSH2 0x881 JUMP JUMPDEST DUP2 DUP5 MSTORE PUSH1 0x20 DUP1 DUP6 ADD SWAP3 PUSH1 0x5 SHL DUP3 ADD ADD SWAP3 DUP4 GT PUSH2 0x18D JUMPI PUSH1 0x20 ADD SWAP1 JUMPDEST DUP3 DUP3 LT PUSH2 0x9A5 JUMPI POP POP POP SWAP1 JUMP JUMPDEST DUP2 CALLDATALOAD DUP2 MSTORE PUSH1 0x20 SWAP2 DUP3 ADD SWAP2 ADD PUSH2 0x998 JUMP JUMPDEST SWAP1 DUP1 PUSH1 0x1F DUP4 ADD SLT ISZERO PUSH2 0x18D JUMPI DUP2 CALLDATALOAD PUSH2 0x9CC DUP2 PUSH2 0x940 JUMP JUMPDEST SWAP3 PUSH2 0x9DA PUSH1 0x40 MLOAD SWAP5 DUP6 PUSH2 0x881 JUMP JUMPDEST DUP2 DUP5 MSTORE PUSH1 0x20 DUP1 DUP6 ADD SWAP3 PUSH1 0x5 SHL DUP3 ADD ADD SWAP2 DUP4 DUP4 GT PUSH2 0x18D JUMPI PUSH1 0x20 DUP3 ADD SWAP1 JUMPDEST DUP4 DUP3 LT PUSH2 0xA06 JUMPI POP POP POP POP POP SWAP1 JUMP JUMPDEST DUP2 CALLDATALOAD PUSH8 0xFFFFFFFFFFFFFFFF DUP2 GT PUSH2 0x18D JUMPI PUSH1 0x20 SWAP2 PUSH2 0xA29 DUP8 DUP5 DUP1 SWAP5 DUP9 ADD ADD PUSH2 0x8B7 JUMP JUMPDEST DUP2 MSTORE ADD SWAP2 ADD SWAP1 PUSH2 0x9F7 JUMP JUMPDEST PUSH1 0x40 SWAP1 PUSH1 0x3 NOT ADD SLT PUSH2 0x18D JUMPI PUSH1 0x4 CALLDATALOAD SWAP1 PUSH1 0x24 CALLDATALOAD PUSH1 0x1 PUSH1 0x1 PUSH1 0xA0 SHL SUB DUP2 AND DUP2 SUB PUSH2 0x18D JUMPI SWAP1 JUMP JUMPDEST ISZERO PUSH2 0xA61 JUMPI JUMP JUMPDEST PUSH1 0x40 MLOAD PUSH3 0x461BCD PUSH1 0xE5 SHL DUP2 MSTORE PUSH1 0x20 PUSH1 0x4 DUP3 ADD MSTORE PUSH1 0x15 PUSH1 0x24 DUP3 ADD MSTORE PUSH21 0x149958DBDC9908191BD95CC81B9BDD08195E1A5CDD PUSH1 0x5A SHL PUSH1 0x44 DUP3 ADD MSTORE PUSH1 0x64 SWAP1 REVERT JUMPDEST PUSH1 0x40 MLOAD DUP2 MLOAD SWAP1 SWAP3 PUSH1 0x20 SWAP3 DUP5 SWAP3 SWAP1 DUP2 SWAP1 DUP6 ADD DUP5 MCOPY DUP3 ADD SWAP1 DUP2 MSTORE SUB ADD SWAP1 KECCAK256 SWAP1 JUMP JUMPDEST ISZERO PUSH2 0xAC4 JUMPI JUMP JUMPDEST PUSH1 0x40 MLOAD PUSH3 0x461BCD PUSH1 0xE5 SHL DUP2 MSTORE PUSH1 0x20 PUSH1 0x4 DUP3 ADD MSTORE PUSH1 0x18 PUSH1 0x24 DUP3 ADD MSTORE PUSH32 0x4D69736D6174636820696E206669656C6420636F756E74730000000000000000 PUSH1 0x44 DUP3 ADD MSTORE PUSH1 0x64 SWAP1 REVERT JUMPDEST DUP1 MLOAD DUP3 LT ISZERO PUSH2 0xB1D JUMPI PUSH1 0x20 SWAP2 PUSH1 0x5 SHL ADD ADD SWAP1 JUMP JUMPDEST PUSH4 0x4E487B71 PUSH1 0xE0 SHL PUSH0 MSTORE PUSH1 0x32 PUSH1 0x4 MSTORE PUSH1 0x24 PUSH0 REVERT JUMPDEST ISZERO PUSH2 0xB38 JUMPI JUMP JUMPDEST PUSH1 0x40 MLOAD PUSH3 0x461BCD PUSH1 0xE5 SHL DUP2 MSTORE PUSH1 0x20 PUSH1 0x4 DUP3 ADD MSTORE PUSH1 0x17 PUSH1 0x24 DUP3 ADD MSTORE PUSH32 0x4F6E6C792070617469656E742063616E206D6F64696679000000000000000000 PUSH1 0x44 DUP3 ADD MSTORE PUSH1 0x64 SWAP1 REVERT INVALID LOG2 PUSH5 0x6970667358 0x22 SLT KECCAK256 CODECOPY 0xD 0xB1 0xF 0xC9 0xDF SWAP3 ADDMOD DUP16 0xD2 0xB1 0xC6 0x1E SWAP2 NUMBER 0xBB 0xE6 LOG1 0xB2 0xB9 DUP3 PUSH20 0x57E89E36F3ADE537F61C64736F6C634300081A00 CALLER "
				},
				"gasEstimates": {
					"creation": {
						"codeDepositCost": "599000",
						"executionCost": "639",
						"totalCost": "599639"
					},
					"external": {
						"addPatientRecord(bytes32,bytes32[],string[])": "infinite",
						"emergencyAccess(uint256,string)": "infinite",
						"getRecordReference(uint256)": "11115",
						"grantAccess(uint256,address)": "32742",
						"nextPatientId()": "2358",
						"patientRecords(uint256)": "13141",
						"revokeAccess(uint256,address)": "32868",
						"setEmergencyPin(uint256,string)": "infinite",
						"updatePatientRecord(uint256,bytes32,bytes32[],string[])": "infinite",
						"verifyRecordField(uint256,string,string)": "infinite"
					}
				},
				"methodIdentifiers": {
					"addPatientRecord(bytes32,bytes32[],string[])": "63893e46",
					"emergencyAccess(uint256,string)": "3c2bc6a1",
					"getRecordReference(uint256)": "b39e07e4",
					"grantAccess(uint256,address)": "65dd152c",
					"nextPatientId()": "b1131795",
					"patientRecords(uint256)": "d3d188a1",
					"revokeAccess(uint256,address)": "d9a5ec1b",
					"setEmergencyPin(uint256,string)": "b38deff0",
					"updatePatientRecord(uint256,bytes32,bytes32[],string[])": "65e87a19",
					"verifyRecordField(uint256,string,string)": "1b424e7a"
				}
			},
			"storageLayout": {
				"storage": [
					{
						"astId": 27,
						"contract": "healthr.sol:Healthr",
						"label": "patientRecords",
						"offset": 0,
						"slot": "0",
						"type": "t_mapping(t_uint256,t_struct(PatientRecord)22_storage)"
					},
					{
						"astId": 29,
						"contract": "healthr.sol:Healthr",
						"label": "nextPatientId",
						"offset": 0,
						"slot": "1",
						"type": "t_uint256"
					}
				],
				"types": {
					"t_address": {
						"encoding": "inplace",
						"label": "address",
						"numberOfBytes": "20"
					},
					"t_bool": {
						"encoding": "inplace",
						"label": "bool",
						"numberOfBytes": "1"
					},
					"t_bytes32": {
						"encoding": "inplace",
						"label": "bytes32",
						"numberOfBytes": "32"
					},
					"t_mapping(t_address,t_bool)": {
						"encoding": "mapping",
						"key": "t_address",
						"label": "mapping(address => bool)",
						"numberOfBytes": "32",
						"value": "t_bool"
					},
					"t_mapping(t_string_memory_ptr,t_bytes32)": {
						"encoding": "mapping",
						"key": "t_string_memory_ptr",
						"label": "mapping(string => bytes32)",
						"numberOfBytes": "32",
						"value": "t_bytes32"
					},
					"t_mapping(t_uint256,t_struct(PatientRecord)22_storage)": {
						"encoding": "mapping",
						"key": "t_uint256",
						"label": "mapping(uint256 => struct Healthr.PatientRecord)",
						"numberOfBytes": "32",
						"value": "t_struct(PatientRecord)22_storage"
					},
					"t_string_memory_ptr": {
						"encoding": "bytes",
						"label": "string",
						"numberOfBytes": "32"
					},
					"t_struct(PatientRecord)22_storage": {
						"encoding": "inplace",
						"label": "struct Healthr.PatientRecord",
						"members": [
							{
								"astId": 3,
								"contract": "healthr.sol:Healthr",
								"label": "patientId",
								"offset": 0,
								"slot": "0",
								"type": "t_uint256"
							},
							{
								"astId": 5,
								"contract": "healthr.sol:Healthr",
								"label": "owner",
								"offset": 0,
								"slot": "1",
								"type": "t_address"
							},
							{
								"astId": 7,
								"contract": "healthr.sol:Healthr",
								"label": "ipfsHash",
								"offset": 0,
								"slot": "2",
								"type": "t_bytes32"
							},
							{
								"astId": 11,
								"contract": "healthr.sol:Healthr",
								"label": "authorizedProviders",
								"offset": 0,
								"slot": "3",
								"type": "t_mapping(t_address,t_bool)"
							},
							{
								"astId": 15,
								"contract": "healthr.sol:Healthr",
								"label": "fieldHashes",
								"offset": 0,
								"slot": "4",
								"type": "t_mapping(t_string_memory_ptr,t_bytes32)"
							},
							{
								"astId": 17,
								"contract": "healthr.sol:Healthr",
								"label": "accessLevel",
								"offset": 0,
								"slot": "5",
								"type": "t_uint256"
							},
							{
								"astId": 19,
								"contract": "healthr.sol:Healthr",
								"label": "timestamp",
								"offset": 0,
								"slot": "6",
								"type": "t_uint256"
							},
							{
								"astId": 21,
								"contract": "healthr.sol:Healthr",
								"label": "emergencyPinHash",
								"offset": 0,
								"slot": "7",
								"type": "t_bytes32"
							}
						],
						"numberOfBytes": "256"
					},
					"t_uint256": {
						"encoding": "inplace",
						"label": "uint256",
						"numberOfBytes": "32"
					}
				}
			},
			"userdoc": {
				"kind": "user",
				"methods": {},
				"version": 1
			}
		}
	}
}