{
	"pass.sol": {
		"pass": {
			"abi": [
				{
					"anonymous": false,
					"inputs": [
						{
							"indexed": false,
							"internalType": "uint256",
							"name": "id",
							"type": "uint256"
						},
						{
							"indexed": false,
							"internalType": "string",
							"name": "email",
							"type": "string"
						}
					],
					"name": "signup",
					"type": "event"
				},
				{
					"anonymous": false,
					"inputs": [
						{
							"indexed": false,
							"internalType": "uint256",
							"name": "id",
							"type": "uint256"
						},
						{
							"indexed": false,
							"internalType": "string",
							"name": "email",
							"type": "string"
						}
					],
					"name": "successlogin",
					"type": "event"
				},
				{
					"inputs": [
						{
							"internalType": "string",
							"name": "email",
							"type": "string"
						},
						{
							"internalType": "string",
							"name": "password",
							"type": "string"
						}
					],
					"name": "login",
					"outputs": [
						{
							"internalType": "bool",
							"name": "",
							"type": "bool"
						},
						{
							"internalType": "uint256",
							"name": "",
							"type": "uint256"
						}
					],
					"stateMutability": "view",
					"type": "function"
				},
				{
					"inputs": [
						{
							"internalType": "string",
							"name": "email",
							"type": "string"
						},
						{
							"internalType": "string",
							"name": "password",
							"type": "string"
						}
					],
					"name": "usignUp",
					"outputs": [
						{
							"internalType": "string",
							"name": "",
							"type": "string"
						}
					],
					"stateMutability": "nonpayable",
					"type": "function"
				}
			],
			"devdoc": {
				"kind": "dev",
				"methods": {},
				"version": 1
			},
			"evm": {
				"assembly": "    /* \"pass.sol\":61:1499  contract pass {... */\n  mstore(0x40, 0x80)\n  callvalue\n  dup1\n  iszero\n  tag_1\n  jumpi\n  0x00\n  dup1\n  revert\ntag_1:\n  pop\n  dataSize(sub_0)\n  dup1\n  dataOffset(sub_0)\n  0x00\n  codecopy\n  0x00\n  return\nstop\n\nsub_0: assembly {\n        /* \"pass.sol\":61:1499  contract pass {... */\n      mstore(0x40, 0x80)\n      callvalue\n      dup1\n      iszero\n      tag_1\n      jumpi\n      0x00\n      dup1\n      revert\n    tag_1:\n      pop\n      jumpi(tag_2, lt(calldatasize, 0x04))\n      shr(0xe0, calldataload(0x00))\n      dup1\n      0x30d15983\n      eq\n      tag_3\n      jumpi\n      dup1\n      0x58467dbc\n      eq\n      tag_4\n      jumpi\n    tag_2:\n      0x00\n      dup1\n      revert\n        /* \"pass.sol\":573:1107  function usignUp(string memory email, string memory password) public returns (string memory) {... */\n    tag_3:\n      tag_5\n      0x04\n      dup1\n      calldatasize\n      sub\n      dup2\n      add\n      swap1\n      tag_6\n      swap2\n      swap1\n      tag_7\n      jump\t// in\n    tag_6:\n      tag_8\n      jump\t// in\n    tag_5:\n      mload(0x40)\n      tag_9\n      swap2\n      swap1\n      tag_10\n      jump\t// in\n    tag_9:\n      mload(0x40)\n      dup1\n      swap2\n      sub\n      swap1\n      return\n        /* \"pass.sol\":1115:1496  function login(string memory email, string memory password) public view returns (bool, uint256) {... */\n    tag_4:\n      tag_11\n      0x04\n      dup1\n      calldatasize\n      sub\n      dup2\n      add\n      swap1\n      tag_12\n      swap2\n      swap1\n      tag_7\n      jump\t// in\n    tag_12:\n      tag_13\n      jump\t// in\n    tag_11:\n      mload(0x40)\n      tag_14\n      swap3\n      swap2\n      swap1\n      tag_15\n      jump\t// in\n    tag_14:\n      mload(0x40)\n      dup1\n      swap2\n      sub\n      swap1\n      return\n        /* \"pass.sol\":573:1107  function usignUp(string memory email, string memory password) public returns (string memory) {... */\n    tag_8:\n        /* \"pass.sol\":651:664  string memory */\n      0x60\n        /* \"pass.sol\":707:708  0 */\n      0x00\n        /* \"pass.sol\":691:696  email */\n      dup4\n        /* \"pass.sol\":685:704  bytes(email).length */\n      mload\n        /* \"pass.sol\":685:708  bytes(email).length > 0 */\n      gt\n        /* \"pass.sol\":677:733  require(bytes(email).length > 0, \"email can't be empty\") */\n      tag_17\n      jumpi\n      mload(0x40)\n      0x08c379a000000000000000000000000000000000000000000000000000000000\n      dup2\n      mstore\n      0x04\n      add\n      tag_18\n      swap1\n      tag_19\n      jump\t// in\n    tag_18:\n      mload(0x40)\n      dup1\n      swap2\n      sub\n      swap1\n      revert\n    tag_17:\n        /* \"pass.sol\":777:778  0 */\n      0x00\n        /* \"pass.sol\":758:766  password */\n      dup3\n        /* \"pass.sol\":752:774  bytes(password).length */\n      mload\n        /* \"pass.sol\":752:778  bytes(password).length > 0 */\n      gt\n        /* \"pass.sol\":744:806  require(bytes(password).length > 0, \"password can't be empty\") */\n      tag_20\n      jumpi\n      mload(0x40)\n      0x08c379a000000000000000000000000000000000000000000000000000000000\n      dup2\n      mstore\n      0x04\n      add\n      tag_21\n      swap1\n      tag_22\n      jump\t// in\n    tag_21:\n      mload(0x40)\n      dup1\n      swap2\n      sub\n      swap1\n      revert\n    tag_20:\n        /* \"pass.sol\":826:836  registered */\n      0x00\n        /* \"pass.sol\":837:842  email */\n      dup4\n        /* \"pass.sol\":826:843  registered[email] */\n      mload(0x40)\n      tag_23\n      swap2\n      swap1\n      tag_24\n      jump\t// in\n    tag_23:\n      swap1\n      dup2\n      mstore\n      0x20\n      add\n      mload(0x40)\n      dup1\n      swap2\n      sub\n      swap1\n      keccak256\n      0x00\n      swap1\n      sload\n      swap1\n      0x0100\n      exp\n      swap1\n      div\n      0xff\n      and\n        /* \"pass.sol\":825:843  !registered[email] */\n      iszero\n        /* \"pass.sol\":817:867  require(!registered[email], \"email already exist\") */\n      tag_25\n      jumpi\n      mload(0x40)\n      0x08c379a000000000000000000000000000000000000000000000000000000000\n      dup2\n      mstore\n      0x04\n      add\n      tag_26\n      swap1\n      tag_27\n      jump\t// in\n    tag_26:\n      mload(0x40)\n      dup1\n      swap2\n      sub\n      swap1\n      revert\n    tag_25:\n        /* \"pass.sol\":878:891  uint256 newId */\n      0x00\n        /* \"pass.sol\":894:911  generateid(email) */\n      tag_28\n        /* \"pass.sol\":905:910  email */\n      dup5\n        /* \"pass.sol\":894:904  generateid */\n      tag_29\n        /* \"pass.sol\":894:911  generateid(email) */\n      jump\t// in\n    tag_28:\n        /* \"pass.sol\":878:911  uint256 newId = generateid(email) */\n      swap1\n      pop\n        /* \"pass.sol\":937:994  user(newId, email, keccak256(abi.encodePacked(password))) */\n      mload(0x40)\n      dup1\n      0x60\n      add\n      0x40\n      mstore\n      dup1\n        /* \"pass.sol\":942:947  newId */\n      dup3\n        /* \"pass.sol\":937:994  user(newId, email, keccak256(abi.encodePacked(password))) */\n      dup2\n      mstore\n      0x20\n      add\n        /* \"pass.sol\":949:954  email */\n      dup6\n        /* \"pass.sol\":937:994  user(newId, email, keccak256(abi.encodePacked(password))) */\n      dup2\n      mstore\n      0x20\n      add\n        /* \"pass.sol\":983:991  password */\n      dup5\n        /* \"pass.sol\":966:992  abi.encodePacked(password) */\n      add(0x20, mload(0x40))\n      tag_30\n      swap2\n      swap1\n      tag_24\n      jump\t// in\n    tag_30:\n      mload(0x40)\n      0x20\n      dup2\n      dup4\n      sub\n      sub\n      dup2\n      mstore\n      swap1\n      0x40\n      mstore\n        /* \"pass.sol\":956:993  keccak256(abi.encodePacked(password)) */\n      dup1\n      mload\n      swap1\n      0x20\n      add\n      keccak256\n        /* \"pass.sol\":937:994  user(newId, email, keccak256(abi.encodePacked(password))) */\n      dup2\n      mstore\n      pop\n        /* \"pass.sol\":922:927  users */\n      0x01\n        /* \"pass.sol\":928:933  email */\n      dup6\n        /* \"pass.sol\":922:934  users[email] */\n      mload(0x40)\n      tag_31\n      swap2\n      swap1\n      tag_24\n      jump\t// in\n    tag_31:\n      swap1\n      dup2\n      mstore\n      0x20\n      add\n      mload(0x40)\n      dup1\n      swap2\n      sub\n      swap1\n      keccak256\n        /* \"pass.sol\":922:994  users[email] = user(newId, email, keccak256(abi.encodePacked(password))) */\n      0x00\n      dup3\n      add\n      mload\n      dup2\n      0x00\n      add\n      sstore\n      0x20\n      dup3\n      add\n      mload\n      dup2\n      0x01\n      add\n      swap1\n      dup2\n      tag_32\n      swap2\n      swap1\n      tag_33\n      jump\t// in\n    tag_32:\n      pop\n      0x40\n      dup3\n      add\n      mload\n      dup2\n      0x02\n      add\n      sstore\n      swap1\n      pop\n      pop\n        /* \"pass.sol\":1025:1029  true */\n      0x01\n        /* \"pass.sol\":1005:1015  registered */\n      0x00\n        /* \"pass.sol\":1016:1021  email */\n      dup6\n        /* \"pass.sol\":1005:1022  registered[email] */\n      mload(0x40)\n      tag_34\n      swap2\n      swap1\n      tag_24\n      jump\t// in\n    tag_34:\n      swap1\n      dup2\n      mstore\n      0x20\n      add\n      mload(0x40)\n      dup1\n      swap2\n      sub\n      swap1\n      keccak256\n      0x00\n        /* \"pass.sol\":1005:1029  registered[email] = true */\n      0x0100\n      exp\n      dup2\n      sload\n      dup2\n      0xff\n      mul\n      not\n      and\n      swap1\n      dup4\n      iszero\n      iszero\n      mul\n      or\n      swap1\n      sstore\n      pop\n        /* \"pass.sol\":1045:1065  signup(newId, email) */\n      0xdab9743d128d36549a2c6a6aa30fbe68eb5bf3204be7a61067338234dc859cc4\n        /* \"pass.sol\":1052:1057  newId */\n      dup2\n        /* \"pass.sol\":1059:1064  email */\n      dup6\n        /* \"pass.sol\":1045:1065  signup(newId, email) */\n      mload(0x40)\n      tag_35\n      swap3\n      swap2\n      swap1\n      tag_36\n      jump\t// in\n    tag_35:\n      mload(0x40)\n      dup1\n      swap2\n      sub\n      swap1\n      log1\n        /* \"pass.sol\":1076:1099  return \"signup success\" */\n      mload(0x40)\n      dup1\n      0x40\n      add\n      0x40\n      mstore\n      dup1\n      0x0e\n      dup2\n      mstore\n      0x20\n      add\n      0x7369676e75702073756363657373000000000000000000000000000000000000\n      dup2\n      mstore\n      pop\n      swap2\n      pop\n      pop\n        /* \"pass.sol\":573:1107  function usignUp(string memory email, string memory password) public returns (string memory) {... */\n      swap3\n      swap2\n      pop\n      pop\n      jump\t// out\n        /* \"pass.sol\":1115:1496  function login(string memory email, string memory password) public view returns (bool, uint256) {... */\n    tag_13:\n        /* \"pass.sol\":1196:1200  bool */\n      0x00\n        /* \"pass.sol\":1202:1209  uint256 */\n      dup1\n        /* \"pass.sol\":1227:1237  registered */\n      0x00\n        /* \"pass.sol\":1238:1243  email */\n      dup5\n        /* \"pass.sol\":1227:1244  registered[email] */\n      mload(0x40)\n      tag_38\n      swap2\n      swap1\n      tag_24\n      jump\t// in\n    tag_38:\n      swap1\n      dup2\n      mstore\n      0x20\n      add\n      mload(0x40)\n      dup1\n      swap2\n      sub\n      swap1\n      keccak256\n      0x00\n      swap1\n      sload\n      swap1\n      0x0100\n      exp\n      swap1\n      div\n      0xff\n      and\n        /* \"pass.sol\":1222:1291  if (!registered[email]) {... */\n      tag_39\n      jumpi\n        /* \"pass.sol\":1269:1274  false */\n      0x00\n        /* \"pass.sol\":1276:1277  0 */\n      dup1\n        /* \"pass.sol\":1261:1278  return (false, 0) */\n      swap2\n      pop\n      swap2\n      pop\n      jump(tag_37)\n        /* \"pass.sol\":1222:1291  if (!registered[email]) {... */\n    tag_39:\n        /* \"pass.sol\":1303:1319  user memory User */\n      0x00\n        /* \"pass.sol\":1322:1327  users */\n      0x01\n        /* \"pass.sol\":1328:1333  email */\n      dup6\n        /* \"pass.sol\":1322:1334  users[email] */\n      mload(0x40)\n      tag_40\n      swap2\n      swap1\n      tag_24\n      jump\t// in\n    tag_40:\n      swap1\n      dup2\n      mstore\n      0x20\n      add\n      mload(0x40)\n      dup1\n      swap2\n      sub\n      swap1\n      keccak256\n        /* \"pass.sol\":1303:1334  user memory User = users[email] */\n      mload(0x40)\n      dup1\n      0x60\n      add\n      0x40\n      mstore\n      swap1\n      dup2\n      0x00\n      dup3\n      add\n      sload\n      dup2\n      mstore\n      0x20\n      add\n      0x01\n      dup3\n      add\n      dup1\n      sload\n      tag_41\n      swap1\n      tag_42\n      jump\t// in\n    tag_41:\n      dup1\n      0x1f\n      add\n      0x20\n      dup1\n      swap2\n      div\n      mul\n      0x20\n      add\n      mload(0x40)\n      swap1\n      dup2\n      add\n      0x40\n      mstore\n      dup1\n      swap3\n      swap2\n      swap1\n      dup2\n      dup2\n      mstore\n      0x20\n      add\n      dup3\n      dup1\n      sload\n      tag_43\n      swap1\n      tag_42\n      jump\t// in\n    tag_43:\n      dup1\n      iszero\n      tag_44\n      jumpi\n      dup1\n      0x1f\n      lt\n      tag_45\n      jumpi\n      0x0100\n      dup1\n      dup4\n      sload\n      div\n      mul\n      dup4\n      mstore\n      swap2\n      0x20\n      add\n      swap2\n      jump(tag_44)\n    tag_45:\n      dup3\n      add\n      swap2\n      swap1\n      0x00\n      mstore\n      keccak256(0x00, 0x20)\n      swap1\n    tag_46:\n      dup2\n      sload\n      dup2\n      mstore\n      swap1\n      0x01\n      add\n      swap1\n      0x20\n      add\n      dup1\n      dup4\n      gt\n      tag_46\n      jumpi\n      dup3\n      swap1\n      sub\n      0x1f\n      and\n      dup3\n      add\n      swap2\n    tag_44:\n      pop\n      pop\n      pop\n      pop\n      pop\n      dup2\n      mstore\n      0x20\n      add\n      0x02\n      dup3\n      add\n      sload\n      dup2\n      mstore\n      pop\n      pop\n      swap1\n      pop\n        /* \"pass.sol\":1397:1405  password */\n      dup4\n        /* \"pass.sol\":1380:1406  abi.encodePacked(password) */\n      add(0x20, mload(0x40))\n      tag_47\n      swap2\n      swap1\n      tag_24\n      jump\t// in\n    tag_47:\n      mload(0x40)\n      0x20\n      dup2\n      dup4\n      sub\n      sub\n      dup2\n      mstore\n      swap1\n      0x40\n      mstore\n        /* \"pass.sol\":1370:1407  keccak256(abi.encodePacked(password)) */\n      dup1\n      mload\n      swap1\n      0x20\n      add\n      keccak256\n        /* \"pass.sol\":1349:1353  User */\n      dup2\n        /* \"pass.sol\":1349:1366  User.passwordhash */\n      0x40\n      add\n      mload\n        /* \"pass.sol\":1349:1407  User.passwordhash != keccak256(abi.encodePacked(password)) */\n      eq\n        /* \"pass.sol\":1345:1454  if (User.passwordhash != keccak256(abi.encodePacked(password))) {... */\n      tag_48\n      jumpi\n        /* \"pass.sol\":1432:1437  false */\n      0x00\n        /* \"pass.sol\":1439:1440  0 */\n      dup1\n        /* \"pass.sol\":1424:1441  return (false, 0) */\n      swap3\n      pop\n      swap3\n      pop\n      pop\n      jump(tag_37)\n        /* \"pass.sol\":1345:1454  if (User.passwordhash != keccak256(abi.encodePacked(password))) {... */\n    tag_48:\n        /* \"pass.sol\":1474:1478  true */\n      0x01\n        /* \"pass.sol\":1480:1484  User */\n      dup2\n        /* \"pass.sol\":1480:1487  User.id */\n      0x00\n      add\n      mload\n        /* \"pass.sol\":1466:1488  return (true, User.id) */\n      swap3\n      pop\n      swap3\n      pop\n      pop\n        /* \"pass.sol\":1115:1496  function login(string memory email, string memory password) public view returns (bool, uint256) {... */\n    tag_37:\n      swap3\n      pop\n      swap3\n      swap1\n      pop\n      jump\t// out\n        /* \"pass.sol\":385:565  function generateid(string memory email) private view returns (uint256) {... */\n    tag_29:\n        /* \"pass.sol\":448:455  uint256 */\n      0x00\n        /* \"pass.sol\":550:557  1000000 */\n      0x0f4240\n        /* \"pass.sol\":510:515  email */\n      dup3\n        /* \"pass.sol\":517:532  block.timestamp */\n      timestamp\n        /* \"pass.sol\":534:544  msg.sender */\n      caller\n        /* \"pass.sol\":493:545  abi.encodePacked(email, block.timestamp, msg.sender) */\n      add(0x20, mload(0x40))\n      tag_50\n      swap4\n      swap3\n      swap2\n      swap1\n      tag_51\n      jump\t// in\n    tag_50:\n      mload(0x40)\n      0x20\n      dup2\n      dup4\n      sub\n      sub\n      dup2\n      mstore\n      swap1\n      0x40\n      mstore\n        /* \"pass.sol\":483:546  keccak256(abi.encodePacked(email, block.timestamp, msg.sender)) */\n      dup1\n      mload\n      swap1\n      0x20\n      add\n      keccak256\n        /* \"pass.sol\":475:547  uint256(keccak256(abi.encodePacked(email, block.timestamp, msg.sender))) */\n      0x00\n      shr\n        /* \"pass.sol\":475:557  uint256(keccak256(abi.encodePacked(email, block.timestamp, msg.sender))) % 1000000 */\n      tag_52\n      swap2\n      swap1\n      tag_53\n      jump\t// in\n    tag_52:\n        /* \"pass.sol\":468:557  return uint256(keccak256(abi.encodePacked(email, block.timestamp, msg.sender))) % 1000000 */\n      swap1\n      pop\n        /* \"pass.sol\":385:565  function generateid(string memory email) private view returns (uint256) {... */\n      swap2\n      swap1\n      pop\n      jump\t// out\n        /* \"#utility.yul\":7:82   */\n    tag_54:\n        /* \"#utility.yul\":40:46   */\n      0x00\n        /* \"#utility.yul\":73:75   */\n      0x40\n        /* \"#utility.yul\":67:76   */\n      mload\n        /* \"#utility.yul\":57:76   */\n      swap1\n      pop\n        /* \"#utility.yul\":7:82   */\n      swap1\n      jump\t// out\n        /* \"#utility.yul\":88:205   */\n    tag_55:\n        /* \"#utility.yul\":197:198   */\n      0x00\n        /* \"#utility.yul\":194:195   */\n      dup1\n        /* \"#utility.yul\":187:199   */\n      revert\n        /* \"#utility.yul\":211:328   */\n    tag_56:\n        /* \"#utility.yul\":320:321   */\n      0x00\n        /* \"#utility.yul\":317:318   */\n      dup1\n        /* \"#utility.yul\":310:322   */\n      revert\n        /* \"#utility.yul\":334:451   */\n    tag_57:\n        /* \"#utility.yul\":443:444   */\n      0x00\n        /* \"#utility.yul\":440:441   */\n      dup1\n        /* \"#utility.yul\":433:445   */\n      revert\n        /* \"#utility.yul\":457:574   */\n    tag_58:\n        /* \"#utility.yul\":566:567   */\n      0x00\n        /* \"#utility.yul\":563:564   */\n      dup1\n        /* \"#utility.yul\":556:568   */\n      revert\n        /* \"#utility.yul\":580:682   */\n    tag_59:\n        /* \"#utility.yul\":621:627   */\n      0x00\n        /* \"#utility.yul\":672:674   */\n      0x1f\n        /* \"#utility.yul\":668:675   */\n      not\n        /* \"#utility.yul\":663:665   */\n      0x1f\n        /* \"#utility.yul\":656:661   */\n      dup4\n        /* \"#utility.yul\":652:666   */\n      add\n        /* \"#utility.yul\":648:676   */\n      and\n        /* \"#utility.yul\":638:676   */\n      swap1\n      pop\n        /* \"#utility.yul\":580:682   */\n      swap2\n      swap1\n      pop\n      jump\t// out\n        /* \"#utility.yul\":688:868   */\n    tag_60:\n        /* \"#utility.yul\":736:813   */\n      0x4e487b7100000000000000000000000000000000000000000000000000000000\n        /* \"#utility.yul\":733:734   */\n      0x00\n        /* \"#utility.yul\":726:814   */\n      mstore\n        /* \"#utility.yul\":833:837   */\n      0x41\n        /* \"#utility.yul\":830:831   */\n      0x04\n        /* \"#utility.yul\":823:838   */\n      mstore\n        /* \"#utility.yul\":857:861   */\n      0x24\n        /* \"#utility.yul\":854:855   */\n      0x00\n        /* \"#utility.yul\":847:862   */\n      revert\n        /* \"#utility.yul\":874:1155   */\n    tag_61:\n        /* \"#utility.yul\":957:984   */\n      tag_117\n        /* \"#utility.yul\":979:983   */\n      dup3\n        /* \"#utility.yul\":957:984   */\n      tag_59\n      jump\t// in\n    tag_117:\n        /* \"#utility.yul\":949:955   */\n      dup2\n        /* \"#utility.yul\":945:985   */\n      add\n        /* \"#utility.yul\":1087:1093   */\n      dup2\n        /* \"#utility.yul\":1075:1085   */\n      dup2\n        /* \"#utility.yul\":1072:1094   */\n      lt\n        /* \"#utility.yul\":1051:1069   */\n      0xffffffffffffffff\n        /* \"#utility.yul\":1039:1049   */\n      dup3\n        /* \"#utility.yul\":1036:1070   */\n      gt\n        /* \"#utility.yul\":1033:1095   */\n      or\n        /* \"#utility.yul\":1030:1118   */\n      iszero\n      tag_118\n      jumpi\n        /* \"#utility.yul\":1098:1116   */\n      tag_119\n      tag_60\n      jump\t// in\n    tag_119:\n        /* \"#utility.yul\":1030:1118   */\n    tag_118:\n        /* \"#utility.yul\":1138:1148   */\n      dup1\n        /* \"#utility.yul\":1134:1136   */\n      0x40\n        /* \"#utility.yul\":1127:1149   */\n      mstore\n        /* \"#utility.yul\":917:1155   */\n      pop\n        /* \"#utility.yul\":874:1155   */\n      pop\n      pop\n      jump\t// out\n        /* \"#utility.yul\":1161:1290   */\n    tag_62:\n        /* \"#utility.yul\":1195:1201   */\n      0x00\n        /* \"#utility.yul\":1222:1242   */\n      tag_121\n      tag_54\n      jump\t// in\n    tag_121:\n        /* \"#utility.yul\":1212:1242   */\n      swap1\n      pop\n        /* \"#utility.yul\":1251:1284   */\n      tag_122\n        /* \"#utility.yul\":1279:1283   */\n      dup3\n        /* \"#utility.yul\":1271:1277   */\n      dup3\n        /* \"#utility.yul\":1251:1284   */\n      tag_61\n      jump\t// in\n    tag_122:\n        /* \"#utility.yul\":1161:1290   */\n      swap2\n      swap1\n      pop\n      jump\t// out\n        /* \"#utility.yul\":1296:1604   */\n    tag_63:\n        /* \"#utility.yul\":1358:1362   */\n      0x00\n        /* \"#utility.yul\":1448:1466   */\n      0xffffffffffffffff\n        /* \"#utility.yul\":1440:1446   */\n      dup3\n        /* \"#utility.yul\":1437:1467   */\n      gt\n        /* \"#utility.yul\":1434:1490   */\n      iszero\n      tag_124\n      jumpi\n        /* \"#utility.yul\":1470:1488   */\n      tag_125\n      tag_60\n      jump\t// in\n    tag_125:\n        /* \"#utility.yul\":1434:1490   */\n    tag_124:\n        /* \"#utility.yul\":1508:1537   */\n      tag_126\n        /* \"#utility.yul\":1530:1536   */\n      dup3\n        /* \"#utility.yul\":1508:1537   */\n      tag_59\n      jump\t// in\n    tag_126:\n        /* \"#utility.yul\":1500:1537   */\n      swap1\n      pop\n        /* \"#utility.yul\":1592:1596   */\n      0x20\n        /* \"#utility.yul\":1586:1590   */\n      dup2\n        /* \"#utility.yul\":1582:1597   */\n      add\n        /* \"#utility.yul\":1574:1597   */\n      swap1\n      pop\n        /* \"#utility.yul\":1296:1604   */\n      swap2\n      swap1\n      pop\n      jump\t// out\n        /* \"#utility.yul\":1610:1758   */\n    tag_64:\n        /* \"#utility.yul\":1708:1714   */\n      dup3\n        /* \"#utility.yul\":1703:1706   */\n      dup2\n        /* \"#utility.yul\":1698:1701   */\n      dup4\n        /* \"#utility.yul\":1685:1715   */\n      calldatacopy\n        /* \"#utility.yul\":1749:1750   */\n      0x00\n        /* \"#utility.yul\":1740:1746   */\n      dup4\n        /* \"#utility.yul\":1735:1738   */\n      dup4\n        /* \"#utility.yul\":1731:1747   */\n      add\n        /* \"#utility.yul\":1724:1751   */\n      mstore\n        /* \"#utility.yul\":1610:1758   */\n      pop\n      pop\n      pop\n      jump\t// out\n        /* \"#utility.yul\":1764:2189   */\n    tag_65:\n        /* \"#utility.yul\":1842:1847   */\n      0x00\n        /* \"#utility.yul\":1867:1933   */\n      tag_129\n        /* \"#utility.yul\":1883:1932   */\n      tag_130\n        /* \"#utility.yul\":1925:1931   */\n      dup5\n        /* \"#utility.yul\":1883:1932   */\n      tag_63\n      jump\t// in\n    tag_130:\n        /* \"#utility.yul\":1867:1933   */\n      tag_62\n      jump\t// in\n    tag_129:\n        /* \"#utility.yul\":1858:1933   */\n      swap1\n      pop\n        /* \"#utility.yul\":1956:1962   */\n      dup3\n        /* \"#utility.yul\":1949:1954   */\n      dup2\n        /* \"#utility.yul\":1942:1963   */\n      mstore\n        /* \"#utility.yul\":1994:1998   */\n      0x20\n        /* \"#utility.yul\":1987:1992   */\n      dup2\n        /* \"#utility.yul\":1983:1999   */\n      add\n        /* \"#utility.yul\":2032:2035   */\n      dup5\n        /* \"#utility.yul\":2023:2029   */\n      dup5\n        /* \"#utility.yul\":2018:2021   */\n      dup5\n        /* \"#utility.yul\":2014:2030   */\n      add\n        /* \"#utility.yul\":2011:2036   */\n      gt\n        /* \"#utility.yul\":2008:2120   */\n      iszero\n      tag_131\n      jumpi\n        /* \"#utility.yul\":2039:2118   */\n      tag_132\n      tag_58\n      jump\t// in\n    tag_132:\n        /* \"#utility.yul\":2008:2120   */\n    tag_131:\n        /* \"#utility.yul\":2129:2183   */\n      tag_133\n        /* \"#utility.yul\":2176:2182   */\n      dup5\n        /* \"#utility.yul\":2171:2174   */\n      dup3\n        /* \"#utility.yul\":2166:2169   */\n      dup6\n        /* \"#utility.yul\":2129:2183   */\n      tag_64\n      jump\t// in\n    tag_133:\n        /* \"#utility.yul\":1848:2189   */\n      pop\n        /* \"#utility.yul\":1764:2189   */\n      swap4\n      swap3\n      pop\n      pop\n      pop\n      jump\t// out\n        /* \"#utility.yul\":2209:2549   */\n    tag_66:\n        /* \"#utility.yul\":2265:2270   */\n      0x00\n        /* \"#utility.yul\":2314:2317   */\n      dup3\n        /* \"#utility.yul\":2307:2311   */\n      0x1f\n        /* \"#utility.yul\":2299:2305   */\n      dup4\n        /* \"#utility.yul\":2295:2312   */\n      add\n        /* \"#utility.yul\":2291:2318   */\n      slt\n        /* \"#utility.yul\":2281:2403   */\n      tag_135\n      jumpi\n        /* \"#utility.yul\":2322:2401   */\n      tag_136\n      tag_57\n      jump\t// in\n    tag_136:\n        /* \"#utility.yul\":2281:2403   */\n    tag_135:\n        /* \"#utility.yul\":2439:2445   */\n      dup2\n        /* \"#utility.yul\":2426:2446   */\n      calldataload\n        /* \"#utility.yul\":2464:2543   */\n      tag_137\n        /* \"#utility.yul\":2539:2542   */\n      dup5\n        /* \"#utility.yul\":2531:2537   */\n      dup3\n        /* \"#utility.yul\":2524:2528   */\n      0x20\n        /* \"#utility.yul\":2516:2522   */\n      dup7\n        /* \"#utility.yul\":2512:2529   */\n      add\n        /* \"#utility.yul\":2464:2543   */\n      tag_65\n      jump\t// in\n    tag_137:\n        /* \"#utility.yul\":2455:2543   */\n      swap2\n      pop\n        /* \"#utility.yul\":2271:2549   */\n      pop\n        /* \"#utility.yul\":2209:2549   */\n      swap3\n      swap2\n      pop\n      pop\n      jump\t// out\n        /* \"#utility.yul\":2555:3389   */\n    tag_7:\n        /* \"#utility.yul\":2643:2649   */\n      0x00\n        /* \"#utility.yul\":2651:2657   */\n      dup1\n        /* \"#utility.yul\":2700:2702   */\n      0x40\n        /* \"#utility.yul\":2688:2697   */\n      dup4\n        /* \"#utility.yul\":2679:2686   */\n      dup6\n        /* \"#utility.yul\":2675:2698   */\n      sub\n        /* \"#utility.yul\":2671:2703   */\n      slt\n        /* \"#utility.yul\":2668:2787   */\n      iszero\n      tag_139\n      jumpi\n        /* \"#utility.yul\":2706:2785   */\n      tag_140\n      tag_55\n      jump\t// in\n    tag_140:\n        /* \"#utility.yul\":2668:2787   */\n    tag_139:\n        /* \"#utility.yul\":2854:2855   */\n      0x00\n        /* \"#utility.yul\":2843:2852   */\n      dup4\n        /* \"#utility.yul\":2839:2856   */\n      add\n        /* \"#utility.yul\":2826:2857   */\n      calldataload\n        /* \"#utility.yul\":2884:2902   */\n      0xffffffffffffffff\n        /* \"#utility.yul\":2876:2882   */\n      dup2\n        /* \"#utility.yul\":2873:2903   */\n      gt\n        /* \"#utility.yul\":2870:2987   */\n      iszero\n      tag_141\n      jumpi\n        /* \"#utility.yul\":2906:2985   */\n      tag_142\n      tag_56\n      jump\t// in\n    tag_142:\n        /* \"#utility.yul\":2870:2987   */\n    tag_141:\n        /* \"#utility.yul\":3011:3074   */\n      tag_143\n        /* \"#utility.yul\":3066:3073   */\n      dup6\n        /* \"#utility.yul\":3057:3063   */\n      dup3\n        /* \"#utility.yul\":3046:3055   */\n      dup7\n        /* \"#utility.yul\":3042:3064   */\n      add\n        /* \"#utility.yul\":3011:3074   */\n      tag_66\n      jump\t// in\n    tag_143:\n        /* \"#utility.yul\":3001:3074   */\n      swap3\n      pop\n        /* \"#utility.yul\":2797:3084   */\n      pop\n        /* \"#utility.yul\":3151:3153   */\n      0x20\n        /* \"#utility.yul\":3140:3149   */\n      dup4\n        /* \"#utility.yul\":3136:3154   */\n      add\n        /* \"#utility.yul\":3123:3155   */\n      calldataload\n        /* \"#utility.yul\":3182:3200   */\n      0xffffffffffffffff\n        /* \"#utility.yul\":3174:3180   */\n      dup2\n        /* \"#utility.yul\":3171:3201   */\n      gt\n        /* \"#utility.yul\":3168:3285   */\n      iszero\n      tag_144\n      jumpi\n        /* \"#utility.yul\":3204:3283   */\n      tag_145\n      tag_56\n      jump\t// in\n    tag_145:\n        /* \"#utility.yul\":3168:3285   */\n    tag_144:\n        /* \"#utility.yul\":3309:3372   */\n      tag_146\n        /* \"#utility.yul\":3364:3371   */\n      dup6\n        /* \"#utility.yul\":3355:3361   */\n      dup3\n        /* \"#utility.yul\":3344:3353   */\n      dup7\n        /* \"#utility.yul\":3340:3362   */\n      add\n        /* \"#utility.yul\":3309:3372   */\n      tag_66\n      jump\t// in\n    tag_146:\n        /* \"#utility.yul\":3299:3372   */\n      swap2\n      pop\n        /* \"#utility.yul\":3094:3382   */\n      pop\n        /* \"#utility.yul\":2555:3389   */\n      swap3\n      pop\n      swap3\n      swap1\n      pop\n      jump\t// out\n        /* \"#utility.yul\":3395:3494   */\n    tag_67:\n        /* \"#utility.yul\":3447:3453   */\n      0x00\n        /* \"#utility.yul\":3481:3486   */\n      dup2\n        /* \"#utility.yul\":3475:3487   */\n      mload\n        /* \"#utility.yul\":3465:3487   */\n      swap1\n      pop\n        /* \"#utility.yul\":3395:3494   */\n      swap2\n      swap1\n      pop\n      jump\t// out\n        /* \"#utility.yul\":3500:3669   */\n    tag_68:\n        /* \"#utility.yul\":3584:3595   */\n      0x00\n        /* \"#utility.yul\":3618:3624   */\n      dup3\n        /* \"#utility.yul\":3613:3616   */\n      dup3\n        /* \"#utility.yul\":3606:3625   */\n      mstore\n        /* \"#utility.yul\":3658:3662   */\n      0x20\n        /* \"#utility.yul\":3653:3656   */\n      dup3\n        /* \"#utility.yul\":3649:3663   */\n      add\n        /* \"#utility.yul\":3634:3663   */\n      swap1\n      pop\n        /* \"#utility.yul\":3500:3669   */\n      swap3\n      swap2\n      pop\n      pop\n      jump\t// out\n        /* \"#utility.yul\":3675:3814   */\n    tag_69:\n        /* \"#utility.yul\":3764:3770   */\n      dup3\n        /* \"#utility.yul\":3759:3762   */\n      dup2\n        /* \"#utility.yul\":3754:3757   */\n      dup4\n        /* \"#utility.yul\":3748:3771   */\n      mcopy\n        /* \"#utility.yul\":3805:3806   */\n      0x00\n        /* \"#utility.yul\":3796:3802   */\n      dup4\n        /* \"#utility.yul\":3791:3794   */\n      dup4\n        /* \"#utility.yul\":3787:3803   */\n      add\n        /* \"#utility.yul\":3780:3807   */\n      mstore\n        /* \"#utility.yul\":3675:3814   */\n      pop\n      pop\n      pop\n      jump\t// out\n        /* \"#utility.yul\":3820:4197   */\n    tag_70:\n        /* \"#utility.yul\":3908:3911   */\n      0x00\n        /* \"#utility.yul\":3936:3975   */\n      tag_151\n        /* \"#utility.yul\":3969:3974   */\n      dup3\n        /* \"#utility.yul\":3936:3975   */\n      tag_67\n      jump\t// in\n    tag_151:\n        /* \"#utility.yul\":3991:4062   */\n      tag_152\n        /* \"#utility.yul\":4055:4061   */\n      dup2\n        /* \"#utility.yul\":4050:4053   */\n      dup6\n        /* \"#utility.yul\":3991:4062   */\n      tag_68\n      jump\t// in\n    tag_152:\n        /* \"#utility.yul\":3984:4062   */\n      swap4\n      pop\n        /* \"#utility.yul\":4071:4136   */\n      tag_153\n        /* \"#utility.yul\":4129:4135   */\n      dup2\n        /* \"#utility.yul\":4124:4127   */\n      dup6\n        /* \"#utility.yul\":4117:4121   */\n      0x20\n        /* \"#utility.yul\":4110:4115   */\n      dup7\n        /* \"#utility.yul\":4106:4122   */\n      add\n        /* \"#utility.yul\":4071:4136   */\n      tag_69\n      jump\t// in\n    tag_153:\n        /* \"#utility.yul\":4161:4190   */\n      tag_154\n        /* \"#utility.yul\":4183:4189   */\n      dup2\n        /* \"#utility.yul\":4161:4190   */\n      tag_59\n      jump\t// in\n    tag_154:\n        /* \"#utility.yul\":4156:4159   */\n      dup5\n        /* \"#utility.yul\":4152:4191   */\n      add\n        /* \"#utility.yul\":4145:4191   */\n      swap2\n      pop\n        /* \"#utility.yul\":3912:4197   */\n      pop\n        /* \"#utility.yul\":3820:4197   */\n      swap3\n      swap2\n      pop\n      pop\n      jump\t// out\n        /* \"#utility.yul\":4203:4516   */\n    tag_10:\n        /* \"#utility.yul\":4316:4320   */\n      0x00\n        /* \"#utility.yul\":4354:4356   */\n      0x20\n        /* \"#utility.yul\":4343:4352   */\n      dup3\n        /* \"#utility.yul\":4339:4357   */\n      add\n        /* \"#utility.yul\":4331:4357   */\n      swap1\n      pop\n        /* \"#utility.yul\":4403:4412   */\n      dup2\n        /* \"#utility.yul\":4397:4401   */\n      dup2\n        /* \"#utility.yul\":4393:4413   */\n      sub\n        /* \"#utility.yul\":4389:4390   */\n      0x00\n        /* \"#utility.yul\":4378:4387   */\n      dup4\n        /* \"#utility.yul\":4374:4391   */\n      add\n        /* \"#utility.yul\":4367:4414   */\n      mstore\n        /* \"#utility.yul\":4431:4509   */\n      tag_156\n        /* \"#utility.yul\":4504:4508   */\n      dup2\n        /* \"#utility.yul\":4495:4501   */\n      dup5\n        /* \"#utility.yul\":4431:4509   */\n      tag_70\n      jump\t// in\n    tag_156:\n        /* \"#utility.yul\":4423:4509   */\n      swap1\n      pop\n        /* \"#utility.yul\":4203:4516   */\n      swap3\n      swap2\n      pop\n      pop\n      jump\t// out\n        /* \"#utility.yul\":4522:4612   */\n    tag_71:\n        /* \"#utility.yul\":4556:4563   */\n      0x00\n        /* \"#utility.yul\":4599:4604   */\n      dup2\n        /* \"#utility.yul\":4592:4605   */\n      iszero\n        /* \"#utility.yul\":4585:4606   */\n      iszero\n        /* \"#utility.yul\":4574:4606   */\n      swap1\n      pop\n        /* \"#utility.yul\":4522:4612   */\n      swap2\n      swap1\n      pop\n      jump\t// out\n        /* \"#utility.yul\":4618:4727   */\n    tag_72:\n        /* \"#utility.yul\":4699:4720   */\n      tag_159\n        /* \"#utility.yul\":4714:4719   */\n      dup2\n        /* \"#utility.yul\":4699:4720   */\n      tag_71\n      jump\t// in\n    tag_159:\n        /* \"#utility.yul\":4694:4697   */\n      dup3\n        /* \"#utility.yul\":4687:4721   */\n      mstore\n        /* \"#utility.yul\":4618:4727   */\n      pop\n      pop\n      jump\t// out\n        /* \"#utility.yul\":4733:4810   */\n    tag_73:\n        /* \"#utility.yul\":4770:4777   */\n      0x00\n        /* \"#utility.yul\":4799:4804   */\n      dup2\n        /* \"#utility.yul\":4788:4804   */\n      swap1\n      pop\n        /* \"#utility.yul\":4733:4810   */\n      swap2\n      swap1\n      pop\n      jump\t// out\n        /* \"#utility.yul\":4816:4934   */\n    tag_74:\n        /* \"#utility.yul\":4903:4927   */\n      tag_162\n        /* \"#utility.yul\":4921:4926   */\n      dup2\n        /* \"#utility.yul\":4903:4927   */\n      tag_73\n      jump\t// in\n    tag_162:\n        /* \"#utility.yul\":4898:4901   */\n      dup3\n        /* \"#utility.yul\":4891:4928   */\n      mstore\n        /* \"#utility.yul\":4816:4934   */\n      pop\n      pop\n      jump\t// out\n        /* \"#utility.yul\":4940:5260   */\n    tag_15:\n        /* \"#utility.yul\":5055:5059   */\n      0x00\n        /* \"#utility.yul\":5093:5095   */\n      0x40\n        /* \"#utility.yul\":5082:5091   */\n      dup3\n        /* \"#utility.yul\":5078:5096   */\n      add\n        /* \"#utility.yul\":5070:5096   */\n      swap1\n      pop\n        /* \"#utility.yul\":5106:5171   */\n      tag_164\n        /* \"#utility.yul\":5168:5169   */\n      0x00\n        /* \"#utility.yul\":5157:5166   */\n      dup4\n        /* \"#utility.yul\":5153:5170   */\n      add\n        /* \"#utility.yul\":5144:5150   */\n      dup6\n        /* \"#utility.yul\":5106:5171   */\n      tag_72\n      jump\t// in\n    tag_164:\n        /* \"#utility.yul\":5181:5253   */\n      tag_165\n        /* \"#utility.yul\":5249:5251   */\n      0x20\n        /* \"#utility.yul\":5238:5247   */\n      dup4\n        /* \"#utility.yul\":5234:5252   */\n      add\n        /* \"#utility.yul\":5225:5231   */\n      dup5\n        /* \"#utility.yul\":5181:5253   */\n      tag_74\n      jump\t// in\n    tag_165:\n        /* \"#utility.yul\":4940:5260   */\n      swap4\n      swap3\n      pop\n      pop\n      pop\n      jump\t// out\n        /* \"#utility.yul\":5266:5436   */\n    tag_75:\n        /* \"#utility.yul\":5406:5428   */\n      0x656d61696c2063616e277420626520656d707479000000000000000000000000\n        /* \"#utility.yul\":5402:5403   */\n      0x00\n        /* \"#utility.yul\":5394:5400   */\n      dup3\n        /* \"#utility.yul\":5390:5404   */\n      add\n        /* \"#utility.yul\":5383:5429   */\n      mstore\n        /* \"#utility.yul\":5266:5436   */\n      pop\n      jump\t// out\n        /* \"#utility.yul\":5442:5808   */\n    tag_76:\n        /* \"#utility.yul\":5584:5587   */\n      0x00\n        /* \"#utility.yul\":5605:5672   */\n      tag_168\n        /* \"#utility.yul\":5669:5671   */\n      0x14\n        /* \"#utility.yul\":5664:5667   */\n      dup4\n        /* \"#utility.yul\":5605:5672   */\n      tag_68\n      jump\t// in\n    tag_168:\n        /* \"#utility.yul\":5598:5672   */\n      swap2\n      pop\n        /* \"#utility.yul\":5681:5774   */\n      tag_169\n        /* \"#utility.yul\":5770:5773   */\n      dup3\n        /* \"#utility.yul\":5681:5774   */\n      tag_75\n      jump\t// in\n    tag_169:\n        /* \"#utility.yul\":5799:5801   */\n      0x20\n        /* \"#utility.yul\":5794:5797   */\n      dup3\n        /* \"#utility.yul\":5790:5802   */\n      add\n        /* \"#utility.yul\":5783:5802   */\n      swap1\n      pop\n        /* \"#utility.yul\":5442:5808   */\n      swap2\n      swap1\n      pop\n      jump\t// out\n        /* \"#utility.yul\":5814:6233   */\n    tag_19:\n        /* \"#utility.yul\":5980:5984   */\n      0x00\n        /* \"#utility.yul\":6018:6020   */\n      0x20\n        /* \"#utility.yul\":6007:6016   */\n      dup3\n        /* \"#utility.yul\":6003:6021   */\n      add\n        /* \"#utility.yul\":5995:6021   */\n      swap1\n      pop\n        /* \"#utility.yul\":6067:6076   */\n      dup2\n        /* \"#utility.yul\":6061:6065   */\n      dup2\n        /* \"#utility.yul\":6057:6077   */\n      sub\n        /* \"#utility.yul\":6053:6054   */\n      0x00\n        /* \"#utility.yul\":6042:6051   */\n      dup4\n        /* \"#utility.yul\":6038:6055   */\n      add\n        /* \"#utility.yul\":6031:6078   */\n      mstore\n        /* \"#utility.yul\":6095:6226   */\n      tag_171\n        /* \"#utility.yul\":6221:6225   */\n      dup2\n        /* \"#utility.yul\":6095:6226   */\n      tag_76\n      jump\t// in\n    tag_171:\n        /* \"#utility.yul\":6087:6226   */\n      swap1\n      pop\n        /* \"#utility.yul\":5814:6233   */\n      swap2\n      swap1\n      pop\n      jump\t// out\n        /* \"#utility.yul\":6239:6412   */\n    tag_77:\n        /* \"#utility.yul\":6379:6404   */\n      0x70617373776f72642063616e277420626520656d707479000000000000000000\n        /* \"#utility.yul\":6375:6376   */\n      0x00\n        /* \"#utility.yul\":6367:6373   */\n      dup3\n        /* \"#utility.yul\":6363:6377   */\n      add\n        /* \"#utility.yul\":6356:6405   */\n      mstore\n        /* \"#utility.yul\":6239:6412   */\n      pop\n      jump\t// out\n        /* \"#utility.yul\":6418:6784   */\n    tag_78:\n        /* \"#utility.yul\":6560:6563   */\n      0x00\n        /* \"#utility.yul\":6581:6648   */\n      tag_174\n        /* \"#utility.yul\":6645:6647   */\n      0x17\n        /* \"#utility.yul\":6640:6643   */\n      dup4\n        /* \"#utility.yul\":6581:6648   */\n      tag_68\n      jump\t// in\n    tag_174:\n        /* \"#utility.yul\":6574:6648   */\n      swap2\n      pop\n        /* \"#utility.yul\":6657:6750   */\n      tag_175\n        /* \"#utility.yul\":6746:6749   */\n      dup3\n        /* \"#utility.yul\":6657:6750   */\n      tag_77\n      jump\t// in\n    tag_175:\n        /* \"#utility.yul\":6775:6777   */\n      0x20\n        /* \"#utility.yul\":6770:6773   */\n      dup3\n        /* \"#utility.yul\":6766:6778   */\n      add\n        /* \"#utility.yul\":6759:6778   */\n      swap1\n      pop\n        /* \"#utility.yul\":6418:6784   */\n      swap2\n      swap1\n      pop\n      jump\t// out\n        /* \"#utility.yul\":6790:7209   */\n    tag_22:\n        /* \"#utility.yul\":6956:6960   */\n      0x00\n        /* \"#utility.yul\":6994:6996   */\n      0x20\n        /* \"#utility.yul\":6983:6992   */\n      dup3\n        /* \"#utility.yul\":6979:6997   */\n      add\n        /* \"#utility.yul\":6971:6997   */\n      swap1\n      pop\n        /* \"#utility.yul\":7043:7052   */\n      dup2\n        /* \"#utility.yul\":7037:7041   */\n      dup2\n        /* \"#utility.yul\":7033:7053   */\n      sub\n        /* \"#utility.yul\":7029:7030   */\n      0x00\n        /* \"#utility.yul\":7018:7027   */\n      dup4\n        /* \"#utility.yul\":7014:7031   */\n      add\n        /* \"#utility.yul\":7007:7054   */\n      mstore\n        /* \"#utility.yul\":7071:7202   */\n      tag_177\n        /* \"#utility.yul\":7197:7201   */\n      dup2\n        /* \"#utility.yul\":7071:7202   */\n      tag_78\n      jump\t// in\n    tag_177:\n        /* \"#utility.yul\":7063:7202   */\n      swap1\n      pop\n        /* \"#utility.yul\":6790:7209   */\n      swap2\n      swap1\n      pop\n      jump\t// out\n        /* \"#utility.yul\":7215:7363   */\n    tag_79:\n        /* \"#utility.yul\":7317:7328   */\n      0x00\n        /* \"#utility.yul\":7354:7357   */\n      dup2\n        /* \"#utility.yul\":7339:7357   */\n      swap1\n      pop\n        /* \"#utility.yul\":7215:7363   */\n      swap3\n      swap2\n      pop\n      pop\n      jump\t// out\n        /* \"#utility.yul\":7369:7759   */\n    tag_80:\n        /* \"#utility.yul\":7475:7478   */\n      0x00\n        /* \"#utility.yul\":7503:7542   */\n      tag_180\n        /* \"#utility.yul\":7536:7541   */\n      dup3\n        /* \"#utility.yul\":7503:7542   */\n      tag_67\n      jump\t// in\n    tag_180:\n        /* \"#utility.yul\":7558:7647   */\n      tag_181\n        /* \"#utility.yul\":7640:7646   */\n      dup2\n        /* \"#utility.yul\":7635:7638   */\n      dup6\n        /* \"#utility.yul\":7558:7647   */\n      tag_79\n      jump\t// in\n    tag_181:\n        /* \"#utility.yul\":7551:7647   */\n      swap4\n      pop\n        /* \"#utility.yul\":7656:7721   */\n      tag_182\n        /* \"#utility.yul\":7714:7720   */\n      dup2\n        /* \"#utility.yul\":7709:7712   */\n      dup6\n        /* \"#utility.yul\":7702:7706   */\n      0x20\n        /* \"#utility.yul\":7695:7700   */\n      dup7\n        /* \"#utility.yul\":7691:7707   */\n      add\n        /* \"#utility.yul\":7656:7721   */\n      tag_69\n      jump\t// in\n    tag_182:\n        /* \"#utility.yul\":7746:7752   */\n      dup1\n        /* \"#utility.yul\":7741:7744   */\n      dup5\n        /* \"#utility.yul\":7737:7753   */\n      add\n        /* \"#utility.yul\":7730:7753   */\n      swap2\n      pop\n        /* \"#utility.yul\":7479:7759   */\n      pop\n        /* \"#utility.yul\":7369:7759   */\n      swap3\n      swap2\n      pop\n      pop\n      jump\t// out\n        /* \"#utility.yul\":7765:8040   */\n    tag_24:\n        /* \"#utility.yul\":7897:7900   */\n      0x00\n        /* \"#utility.yul\":7919:8014   */\n      tag_184\n        /* \"#utility.yul\":8010:8013   */\n      dup3\n        /* \"#utility.yul\":8001:8007   */\n      dup5\n        /* \"#utility.yul\":7919:8014   */\n      tag_80\n      jump\t// in\n    tag_184:\n        /* \"#utility.yul\":7912:8014   */\n      swap2\n      pop\n        /* \"#utility.yul\":8031:8034   */\n      dup2\n        /* \"#utility.yul\":8024:8034   */\n      swap1\n      pop\n        /* \"#utility.yul\":7765:8040   */\n      swap3\n      swap2\n      pop\n      pop\n      jump\t// out\n        /* \"#utility.yul\":8046:8215   */\n    tag_81:\n        /* \"#utility.yul\":8186:8207   */\n      0x656d61696c20616c726561647920657869737400000000000000000000000000\n        /* \"#utility.yul\":8182:8183   */\n      0x00\n        /* \"#utility.yul\":8174:8180   */\n      dup3\n        /* \"#utility.yul\":8170:8184   */\n      add\n        /* \"#utility.yul\":8163:8208   */\n      mstore\n        /* \"#utility.yul\":8046:8215   */\n      pop\n      jump\t// out\n        /* \"#utility.yul\":8221:8587   */\n    tag_82:\n        /* \"#utility.yul\":8363:8366   */\n      0x00\n        /* \"#utility.yul\":8384:8451   */\n      tag_187\n        /* \"#utility.yul\":8448:8450   */\n      0x13\n        /* \"#utility.yul\":8443:8446   */\n      dup4\n        /* \"#utility.yul\":8384:8451   */\n      tag_68\n      jump\t// in\n    tag_187:\n        /* \"#utility.yul\":8377:8451   */\n      swap2\n      pop\n        /* \"#utility.yul\":8460:8553   */\n      tag_188\n        /* \"#utility.yul\":8549:8552   */\n      dup3\n        /* \"#utility.yul\":8460:8553   */\n      tag_81\n      jump\t// in\n    tag_188:\n        /* \"#utility.yul\":8578:8580   */\n      0x20\n        /* \"#utility.yul\":8573:8576   */\n      dup3\n        /* \"#utility.yul\":8569:8581   */\n      add\n        /* \"#utility.yul\":8562:8581   */\n      swap1\n      pop\n        /* \"#utility.yul\":8221:8587   */\n      swap2\n      swap1\n      pop\n      jump\t// out\n        /* \"#utility.yul\":8593:9012   */\n    tag_27:\n        /* \"#utility.yul\":8759:8763   */\n      0x00\n        /* \"#utility.yul\":8797:8799   */\n      0x20\n        /* \"#utility.yul\":8786:8795   */\n      dup3\n        /* \"#utility.yul\":8782:8800   */\n      add\n        /* \"#utility.yul\":8774:8800   */\n      swap1\n      pop\n        /* \"#utility.yul\":8846:8855   */\n      dup2\n        /* \"#utility.yul\":8840:8844   */\n      dup2\n        /* \"#utility.yul\":8836:8856   */\n      sub\n        /* \"#utility.yul\":8832:8833   */\n      0x00\n        /* \"#utility.yul\":8821:8830   */\n      dup4\n        /* \"#utility.yul\":8817:8834   */\n      add\n        /* \"#utility.yul\":8810:8857   */\n      mstore\n        /* \"#utility.yul\":8874:9005   */\n      tag_190\n        /* \"#utility.yul\":9000:9004   */\n      dup2\n        /* \"#utility.yul\":8874:9005   */\n      tag_82\n      jump\t// in\n    tag_190:\n        /* \"#utility.yul\":8866:9005   */\n      swap1\n      pop\n        /* \"#utility.yul\":8593:9012   */\n      swap2\n      swap1\n      pop\n      jump\t// out\n        /* \"#utility.yul\":9018:9198   */\n    tag_83:\n        /* \"#utility.yul\":9066:9143   */\n      0x4e487b7100000000000000000000000000000000000000000000000000000000\n        /* \"#utility.yul\":9063:9064   */\n      0x00\n        /* \"#utility.yul\":9056:9144   */\n      mstore\n        /* \"#utility.yul\":9163:9167   */\n      0x22\n        /* \"#utility.yul\":9160:9161   */\n      0x04\n        /* \"#utility.yul\":9153:9168   */\n      mstore\n        /* \"#utility.yul\":9187:9191   */\n      0x24\n        /* \"#utility.yul\":9184:9185   */\n      0x00\n        /* \"#utility.yul\":9177:9192   */\n      revert\n        /* \"#utility.yul\":9204:9524   */\n    tag_42:\n        /* \"#utility.yul\":9248:9254   */\n      0x00\n        /* \"#utility.yul\":9285:9286   */\n      0x02\n        /* \"#utility.yul\":9279:9283   */\n      dup3\n        /* \"#utility.yul\":9275:9287   */\n      div\n        /* \"#utility.yul\":9265:9287   */\n      swap1\n      pop\n        /* \"#utility.yul\":9332:9333   */\n      0x01\n        /* \"#utility.yul\":9326:9330   */\n      dup3\n        /* \"#utility.yul\":9322:9334   */\n      and\n        /* \"#utility.yul\":9353:9371   */\n      dup1\n        /* \"#utility.yul\":9343:9424   */\n      tag_193\n      jumpi\n        /* \"#utility.yul\":9409:9413   */\n      0x7f\n        /* \"#utility.yul\":9401:9407   */\n      dup3\n        /* \"#utility.yul\":9397:9414   */\n      and\n        /* \"#utility.yul\":9387:9414   */\n      swap2\n      pop\n        /* \"#utility.yul\":9343:9424   */\n    tag_193:\n        /* \"#utility.yul\":9471:9473   */\n      0x20\n        /* \"#utility.yul\":9463:9469   */\n      dup3\n        /* \"#utility.yul\":9460:9474   */\n      lt\n        /* \"#utility.yul\":9440:9458   */\n      dup2\n        /* \"#utility.yul\":9437:9475   */\n      sub\n        /* \"#utility.yul\":9434:9518   */\n      tag_194\n      jumpi\n        /* \"#utility.yul\":9490:9508   */\n      tag_195\n      tag_83\n      jump\t// in\n    tag_195:\n        /* \"#utility.yul\":9434:9518   */\n    tag_194:\n        /* \"#utility.yul\":9255:9524   */\n      pop\n        /* \"#utility.yul\":9204:9524   */\n      swap2\n      swap1\n      pop\n      jump\t// out\n        /* \"#utility.yul\":9530:9671   */\n    tag_84:\n        /* \"#utility.yul\":9579:9583   */\n      0x00\n        /* \"#utility.yul\":9602:9605   */\n      dup2\n        /* \"#utility.yul\":9594:9605   */\n      swap1\n      pop\n        /* \"#utility.yul\":9625:9628   */\n      dup2\n        /* \"#utility.yul\":9622:9623   */\n      0x00\n        /* \"#utility.yul\":9615:9629   */\n      mstore\n        /* \"#utility.yul\":9659:9663   */\n      0x20\n        /* \"#utility.yul\":9656:9657   */\n      0x00\n        /* \"#utility.yul\":9646:9664   */\n      keccak256\n        /* \"#utility.yul\":9638:9664   */\n      swap1\n      pop\n        /* \"#utility.yul\":9530:9671   */\n      swap2\n      swap1\n      pop\n      jump\t// out\n        /* \"#utility.yul\":9677:9770   */\n    tag_85:\n        /* \"#utility.yul\":9714:9720   */\n      0x00\n        /* \"#utility.yul\":9761:9763   */\n      0x20\n        /* \"#utility.yul\":9756:9758   */\n      0x1f\n        /* \"#utility.yul\":9749:9754   */\n      dup4\n        /* \"#utility.yul\":9745:9759   */\n      add\n        /* \"#utility.yul\":9741:9764   */\n      div\n        /* \"#utility.yul\":9731:9764   */\n      swap1\n      pop\n        /* \"#utility.yul\":9677:9770   */\n      swap2\n      swap1\n      pop\n      jump\t// out\n        /* \"#utility.yul\":9776:9883   */\n    tag_86:\n        /* \"#utility.yul\":9820:9828   */\n      0x00\n        /* \"#utility.yul\":9870:9875   */\n      dup3\n        /* \"#utility.yul\":9864:9868   */\n      dup3\n        /* \"#utility.yul\":9860:9876   */\n      shl\n        /* \"#utility.yul\":9839:9876   */\n      swap1\n      pop\n        /* \"#utility.yul\":9776:9883   */\n      swap3\n      swap2\n      pop\n      pop\n      jump\t// out\n        /* \"#utility.yul\":9889:10282   */\n    tag_87:\n        /* \"#utility.yul\":9958:9964   */\n      0x00\n        /* \"#utility.yul\":10008:10009   */\n      0x08\n        /* \"#utility.yul\":9996:10006   */\n      dup4\n        /* \"#utility.yul\":9992:10010   */\n      mul\n        /* \"#utility.yul\":10031:10128   */\n      tag_200\n        /* \"#utility.yul\":10061:10127   */\n      0xffffffffffffffffffffffffffffffffffffffffffffffffffffffffffffffff\n        /* \"#utility.yul\":10050:10059   */\n      dup3\n        /* \"#utility.yul\":10031:10128   */\n      tag_86\n      jump\t// in\n    tag_200:\n        /* \"#utility.yul\":10149:10188   */\n      tag_201\n        /* \"#utility.yul\":10179:10187   */\n      dup7\n        /* \"#utility.yul\":10168:10177   */\n      dup4\n        /* \"#utility.yul\":10149:10188   */\n      tag_86\n      jump\t// in\n    tag_201:\n        /* \"#utility.yul\":10137:10188   */\n      swap6\n      pop\n        /* \"#utility.yul\":10221:10225   */\n      dup1\n        /* \"#utility.yul\":10217:10226   */\n      not\n        /* \"#utility.yul\":10210:10215   */\n      dup5\n        /* \"#utility.yul\":10206:10227   */\n      and\n        /* \"#utility.yul\":10197:10227   */\n      swap4\n      pop\n        /* \"#utility.yul\":10270:10274   */\n      dup1\n        /* \"#utility.yul\":10260:10268   */\n      dup7\n        /* \"#utility.yul\":10256:10275   */\n      and\n        /* \"#utility.yul\":10249:10254   */\n      dup5\n        /* \"#utility.yul\":10246:10276   */\n      or\n        /* \"#utility.yul\":10236:10276   */\n      swap3\n      pop\n        /* \"#utility.yul\":9965:10282   */\n      pop\n      pop\n        /* \"#utility.yul\":9889:10282   */\n      swap4\n      swap3\n      pop\n      pop\n      pop\n      jump\t// out\n        /* \"#utility.yul\":10288:10348   */\n    tag_88:\n        /* \"#utility.yul\":10316:10319   */\n      0x00\n        /* \"#utility.yul\":10337:10342   */\n      dup2\n        /* \"#utility.yul\":10330:10342   */\n      swap1\n      pop\n        /* \"#utility.yul\":10288:10348   */\n      swap2\n      swap1\n      pop\n      jump\t// out\n        /* \"#utility.yul\":10354:10496   */\n    tag_89:\n        /* \"#utility.yul\":10404:10413   */\n      0x00\n        /* \"#utility.yul\":10437:10490   */\n      tag_204\n        /* \"#utility.yul\":10455:10489   */\n      tag_205\n        /* \"#utility.yul\":10464:10488   */\n      tag_206\n        /* \"#utility.yul\":10482:10487   */\n      dup5\n        /* \"#utility.yul\":10464:10488   */\n      tag_73\n      jump\t// in\n    tag_206:\n        /* \"#utility.yul\":10455:10489   */\n      tag_88\n      jump\t// in\n    tag_205:\n        /* \"#utility.yul\":10437:10490   */\n      tag_73\n      jump\t// in\n    tag_204:\n        /* \"#utility.yul\":10424:10490   */\n      swap1\n      pop\n        /* \"#utility.yul\":10354:10496   */\n      swap2\n      swap1\n      pop\n      jump\t// out\n        /* \"#utility.yul\":10502:10577   */\n    tag_90:\n        /* \"#utility.yul\":10545:10548   */\n      0x00\n        /* \"#utility.yul\":10566:10571   */\n      dup2\n        /* \"#utility.yul\":10559:10571   */\n      swap1\n      pop\n        /* \"#utility.yul\":10502:10577   */\n      swap2\n      swap1\n      pop\n      jump\t// out\n        /* \"#utility.yul\":10583:10852   */\n    tag_91:\n        /* \"#utility.yul\":10693:10732   */\n      tag_209\n        /* \"#utility.yul\":10724:10731   */\n      dup4\n        /* \"#utility.yul\":10693:10732   */\n      tag_89\n      jump\t// in\n    tag_209:\n        /* \"#utility.yul\":10754:10845   */\n      tag_210\n        /* \"#utility.yul\":10803:10844   */\n      tag_211\n        /* \"#utility.yul\":10827:10843   */\n      dup3\n        /* \"#utility.yul\":10803:10844   */\n      tag_90\n      jump\t// in\n    tag_211:\n        /* \"#utility.yul\":10795:10801   */\n      dup5\n        /* \"#utility.yul\":10788:10792   */\n      dup5\n        /* \"#utility.yul\":10782:10793   */\n      sload\n        /* \"#utility.yul\":10754:10845   */\n      tag_87\n      jump\t// in\n    tag_210:\n        /* \"#utility.yul\":10748:10752   */\n      dup3\n        /* \"#utility.yul\":10741:10846   */\n      sstore\n        /* \"#utility.yul\":10659:10852   */\n      pop\n        /* \"#utility.yul\":10583:10852   */\n      pop\n      pop\n      pop\n      jump\t// out\n        /* \"#utility.yul\":10858:10931   */\n    tag_92:\n        /* \"#utility.yul\":10903:10906   */\n      0x00\n        /* \"#utility.yul\":10858:10931   */\n      swap1\n      jump\t// out\n        /* \"#utility.yul\":10937:11126   */\n    tag_93:\n        /* \"#utility.yul\":11014:11046   */\n      tag_214\n      tag_92\n      jump\t// in\n    tag_214:\n        /* \"#utility.yul\":11055:11120   */\n      tag_215\n        /* \"#utility.yul\":11113:11119   */\n      dup2\n        /* \"#utility.yul\":11105:11111   */\n      dup5\n        /* \"#utility.yul\":11099:11103   */\n      dup5\n        /* \"#utility.yul\":11055:11120   */\n      tag_91\n      jump\t// in\n    tag_215:\n        /* \"#utility.yul\":10990:11126   */\n      pop\n        /* \"#utility.yul\":10937:11126   */\n      pop\n      pop\n      jump\t// out\n        /* \"#utility.yul\":11132:11318   */\n    tag_94:\n        /* \"#utility.yul\":11192:11312   */\n    tag_217:\n        /* \"#utility.yul\":11209:11212   */\n      dup2\n        /* \"#utility.yul\":11202:11207   */\n      dup2\n        /* \"#utility.yul\":11199:11213   */\n      lt\n        /* \"#utility.yul\":11192:11312   */\n      iszero\n      tag_219\n      jumpi\n        /* \"#utility.yul\":11263:11302   */\n      tag_220\n        /* \"#utility.yul\":11300:11301   */\n      0x00\n        /* \"#utility.yul\":11293:11298   */\n      dup3\n        /* \"#utility.yul\":11263:11302   */\n      tag_93\n      jump\t// in\n    tag_220:\n        /* \"#utility.yul\":11236:11237   */\n      0x01\n        /* \"#utility.yul\":11229:11234   */\n      dup2\n        /* \"#utility.yul\":11225:11238   */\n      add\n        /* \"#utility.yul\":11216:11238   */\n      swap1\n      pop\n        /* \"#utility.yul\":11192:11312   */\n      jump(tag_217)\n    tag_219:\n        /* \"#utility.yul\":11132:11318   */\n      pop\n      pop\n      jump\t// out\n        /* \"#utility.yul\":11324:11867   */\n    tag_95:\n        /* \"#utility.yul\":11425:11427   */\n      0x1f\n        /* \"#utility.yul\":11420:11423   */\n      dup3\n        /* \"#utility.yul\":11417:11428   */\n      gt\n        /* \"#utility.yul\":11414:11860   */\n      iszero\n      tag_222\n      jumpi\n        /* \"#utility.yul\":11459:11497   */\n      tag_223\n        /* \"#utility.yul\":11491:11496   */\n      dup2\n        /* \"#utility.yul\":11459:11497   */\n      tag_84\n      jump\t// in\n    tag_223:\n        /* \"#utility.yul\":11543:11572   */\n      tag_224\n        /* \"#utility.yul\":11561:11571   */\n      dup5\n        /* \"#utility.yul\":11543:11572   */\n      tag_85\n      jump\t// in\n    tag_224:\n        /* \"#utility.yul\":11533:11541   */\n      dup2\n        /* \"#utility.yul\":11529:11573   */\n      add\n        /* \"#utility.yul\":11726:11728   */\n      0x20\n        /* \"#utility.yul\":11714:11724   */\n      dup6\n        /* \"#utility.yul\":11711:11729   */\n      lt\n        /* \"#utility.yul\":11708:11757   */\n      iszero\n      tag_225\n      jumpi\n        /* \"#utility.yul\":11747:11755   */\n      dup2\n        /* \"#utility.yul\":11732:11755   */\n      swap1\n      pop\n        /* \"#utility.yul\":11708:11757   */\n    tag_225:\n        /* \"#utility.yul\":11770:11850   */\n      tag_226\n        /* \"#utility.yul\":11826:11848   */\n      tag_227\n        /* \"#utility.yul\":11844:11847   */\n      dup6\n        /* \"#utility.yul\":11826:11848   */\n      tag_85\n      jump\t// in\n    tag_227:\n        /* \"#utility.yul\":11816:11824   */\n      dup4\n        /* \"#utility.yul\":11812:11849   */\n      add\n        /* \"#utility.yul\":11799:11810   */\n      dup3\n        /* \"#utility.yul\":11770:11850   */\n      tag_94\n      jump\t// in\n    tag_226:\n        /* \"#utility.yul\":11429:11860   */\n      pop\n      pop\n        /* \"#utility.yul\":11414:11860   */\n    tag_222:\n        /* \"#utility.yul\":11324:11867   */\n      pop\n      pop\n      pop\n      jump\t// out\n        /* \"#utility.yul\":11873:11990   */\n    tag_96:\n        /* \"#utility.yul\":11927:11935   */\n      0x00\n        /* \"#utility.yul\":11977:11982   */\n      dup3\n        /* \"#utility.yul\":11971:11975   */\n      dup3\n        /* \"#utility.yul\":11967:11983   */\n      shr\n        /* \"#utility.yul\":11946:11983   */\n      swap1\n      pop\n        /* \"#utility.yul\":11873:11990   */\n      swap3\n      swap2\n      pop\n      pop\n      jump\t// out\n        /* \"#utility.yul\":11996:12165   */\n    tag_97:\n        /* \"#utility.yul\":12040:12046   */\n      0x00\n        /* \"#utility.yul\":12073:12124   */\n      tag_230\n        /* \"#utility.yul\":12121:12122   */\n      0x00\n        /* \"#utility.yul\":12117:12123   */\n      not\n        /* \"#utility.yul\":12109:12114   */\n      dup5\n        /* \"#utility.yul\":12106:12107   */\n      0x08\n        /* \"#utility.yul\":12102:12115   */\n      mul\n        /* \"#utility.yul\":12073:12124   */\n      tag_96\n      jump\t// in\n    tag_230:\n        /* \"#utility.yul\":12069:12125   */\n      not\n        /* \"#utility.yul\":12154:12158   */\n      dup1\n        /* \"#utility.yul\":12148:12152   */\n      dup4\n        /* \"#utility.yul\":12144:12159   */\n      and\n        /* \"#utility.yul\":12134:12159   */\n      swap2\n      pop\n        /* \"#utility.yul\":12047:12165   */\n      pop\n        /* \"#utility.yul\":11996:12165   */\n      swap3\n      swap2\n      pop\n      pop\n      jump\t// out\n        /* \"#utility.yul\":12170:12465   */\n    tag_98:\n        /* \"#utility.yul\":12246:12250   */\n      0x00\n        /* \"#utility.yul\":12392:12421   */\n      tag_232\n        /* \"#utility.yul\":12417:12420   */\n      dup4\n        /* \"#utility.yul\":12411:12415   */\n      dup4\n        /* \"#utility.yul\":12392:12421   */\n      tag_97\n      jump\t// in\n    tag_232:\n        /* \"#utility.yul\":12384:12421   */\n      swap2\n      pop\n        /* \"#utility.yul\":12454:12457   */\n      dup3\n        /* \"#utility.yul\":12451:12452   */\n      0x02\n        /* \"#utility.yul\":12447:12458   */\n      mul\n        /* \"#utility.yul\":12441:12445   */\n      dup3\n        /* \"#utility.yul\":12438:12459   */\n      or\n        /* \"#utility.yul\":12430:12459   */\n      swap1\n      pop\n        /* \"#utility.yul\":12170:12465   */\n      swap3\n      swap2\n      pop\n      pop\n      jump\t// out\n        /* \"#utility.yul\":12470:13865   */\n    tag_33:\n        /* \"#utility.yul\":12587:12624   */\n      tag_234\n        /* \"#utility.yul\":12620:12623   */\n      dup3\n        /* \"#utility.yul\":12587:12624   */\n      tag_67\n      jump\t// in\n    tag_234:\n        /* \"#utility.yul\":12689:12707   */\n      0xffffffffffffffff\n        /* \"#utility.yul\":12681:12687   */\n      dup2\n        /* \"#utility.yul\":12678:12708   */\n      gt\n        /* \"#utility.yul\":12675:12731   */\n      iszero\n      tag_235\n      jumpi\n        /* \"#utility.yul\":12711:12729   */\n      tag_236\n      tag_60\n      jump\t// in\n    tag_236:\n        /* \"#utility.yul\":12675:12731   */\n    tag_235:\n        /* \"#utility.yul\":12755:12793   */\n      tag_237\n        /* \"#utility.yul\":12787:12791   */\n      dup3\n        /* \"#utility.yul\":12781:12792   */\n      sload\n        /* \"#utility.yul\":12755:12793   */\n      tag_42\n      jump\t// in\n    tag_237:\n        /* \"#utility.yul\":12840:12907   */\n      tag_238\n        /* \"#utility.yul\":12900:12906   */\n      dup3\n        /* \"#utility.yul\":12892:12898   */\n      dup3\n        /* \"#utility.yul\":12886:12890   */\n      dup6\n        /* \"#utility.yul\":12840:12907   */\n      tag_95\n      jump\t// in\n    tag_238:\n        /* \"#utility.yul\":12934:12935   */\n      0x00\n        /* \"#utility.yul\":12958:12962   */\n      0x20\n        /* \"#utility.yul\":12945:12962   */\n      swap1\n      pop\n        /* \"#utility.yul\":12990:12992   */\n      0x1f\n        /* \"#utility.yul\":12982:12988   */\n      dup4\n        /* \"#utility.yul\":12979:12993   */\n      gt\n        /* \"#utility.yul\":13007:13008   */\n      0x01\n        /* \"#utility.yul\":13002:13620   */\n      dup2\n      eq\n      tag_240\n      jumpi\n        /* \"#utility.yul\":13664:13665   */\n      0x00\n        /* \"#utility.yul\":13681:13687   */\n      dup5\n        /* \"#utility.yul\":13678:13755   */\n      iszero\n      tag_241\n      jumpi\n        /* \"#utility.yul\":13730:13739   */\n      dup3\n        /* \"#utility.yul\":13725:13728   */\n      dup8\n        /* \"#utility.yul\":13721:13740   */\n      add\n        /* \"#utility.yul\":13715:13741   */\n      mload\n        /* \"#utility.yul\":13706:13741   */\n      swap1\n      pop\n        /* \"#utility.yul\":13678:13755   */\n    tag_241:\n        /* \"#utility.yul\":13781:13848   */\n      tag_242\n        /* \"#utility.yul\":13841:13847   */\n      dup6\n        /* \"#utility.yul\":13834:13839   */\n      dup3\n        /* \"#utility.yul\":13781:13848   */\n      tag_98\n      jump\t// in\n    tag_242:\n        /* \"#utility.yul\":13775:13779   */\n      dup7\n        /* \"#utility.yul\":13768:13849   */\n      sstore\n        /* \"#utility.yul\":13637:13859   */\n      pop\n        /* \"#utility.yul\":12972:13859   */\n      jump(tag_239)\n        /* \"#utility.yul\":13002:13620   */\n    tag_240:\n        /* \"#utility.yul\":13054:13058   */\n      0x1f\n        /* \"#utility.yul\":13050:13059   */\n      not\n        /* \"#utility.yul\":13042:13048   */\n      dup5\n        /* \"#utility.yul\":13038:13060   */\n      and\n        /* \"#utility.yul\":13088:13125   */\n      tag_243\n        /* \"#utility.yul\":13120:13124   */\n      dup7\n        /* \"#utility.yul\":13088:13125   */\n      tag_84\n      jump\t// in\n    tag_243:\n        /* \"#utility.yul\":13147:13148   */\n      0x00\n        /* \"#utility.yul\":13161:13369   */\n    tag_244:\n        /* \"#utility.yul\":13175:13182   */\n      dup3\n        /* \"#utility.yul\":13172:13173   */\n      dup2\n        /* \"#utility.yul\":13169:13183   */\n      lt\n        /* \"#utility.yul\":13161:13369   */\n      iszero\n      tag_246\n      jumpi\n        /* \"#utility.yul\":13254:13263   */\n      dup5\n        /* \"#utility.yul\":13249:13252   */\n      dup10\n        /* \"#utility.yul\":13245:13264   */\n      add\n        /* \"#utility.yul\":13239:13265   */\n      mload\n        /* \"#utility.yul\":13231:13237   */\n      dup3\n        /* \"#utility.yul\":13224:13266   */\n      sstore\n        /* \"#utility.yul\":13305:13306   */\n      0x01\n        /* \"#utility.yul\":13297:13303   */\n      dup3\n        /* \"#utility.yul\":13293:13307   */\n      add\n        /* \"#utility.yul\":13283:13307   */\n      swap2\n      pop\n        /* \"#utility.yul\":13352:13354   */\n      0x20\n        /* \"#utility.yul\":13341:13350   */\n      dup6\n        /* \"#utility.yul\":13337:13355   */\n      add\n        /* \"#utility.yul\":13324:13355   */\n      swap5\n      pop\n        /* \"#utility.yul\":13198:13202   */\n      0x20\n        /* \"#utility.yul\":13195:13196   */\n      dup2\n        /* \"#utility.yul\":13191:13203   */\n      add\n        /* \"#utility.yul\":13186:13203   */\n      swap1\n      pop\n        /* \"#utility.yul\":13161:13369   */\n      jump(tag_244)\n    tag_246:\n        /* \"#utility.yul\":13397:13403   */\n      dup7\n        /* \"#utility.yul\":13388:13395   */\n      dup4\n        /* \"#utility.yul\":13385:13404   */\n      lt\n        /* \"#utility.yul\":13382:13561   */\n      iszero\n      tag_247\n      jumpi\n        /* \"#utility.yul\":13455:13464   */\n      dup5\n        /* \"#utility.yul\":13450:13453   */\n      dup10\n        /* \"#utility.yul\":13446:13465   */\n      add\n        /* \"#utility.yul\":13440:13466   */\n      mload\n        /* \"#utility.yul\":13498:13546   */\n      tag_248\n        /* \"#utility.yul\":13540:13544   */\n      0x1f\n        /* \"#utility.yul\":13532:13538   */\n      dup10\n        /* \"#utility.yul\":13528:13545   */\n      and\n        /* \"#utility.yul\":13517:13526   */\n      dup3\n        /* \"#utility.yul\":13498:13546   */\n      tag_97\n      jump\t// in\n    tag_248:\n        /* \"#utility.yul\":13490:13496   */\n      dup4\n        /* \"#utility.yul\":13483:13547   */\n      sstore\n        /* \"#utility.yul\":13405:13561   */\n      pop\n        /* \"#utility.yul\":13382:13561   */\n    tag_247:\n        /* \"#utility.yul\":13607:13608   */\n      0x01\n        /* \"#utility.yul\":13603:13604   */\n      0x02\n        /* \"#utility.yul\":13595:13601   */\n      dup9\n        /* \"#utility.yul\":13591:13605   */\n      mul\n        /* \"#utility.yul\":13587:13609   */\n      add\n        /* \"#utility.yul\":13581:13585   */\n      dup9\n        /* \"#utility.yul\":13574:13610   */\n      sstore\n        /* \"#utility.yul\":13009:13620   */\n      pop\n      pop\n      pop\n        /* \"#utility.yul\":12972:13859   */\n    tag_239:\n      pop\n        /* \"#utility.yul\":12562:13865   */\n      pop\n      pop\n      pop\n        /* \"#utility.yul\":12470:13865   */\n      pop\n      pop\n      jump\t// out\n        /* \"#utility.yul\":13871:14294   */\n    tag_36:\n        /* \"#utility.yul\":14012:14016   */\n      0x00\n        /* \"#utility.yul\":14050:14052   */\n      0x40\n        /* \"#utility.yul\":14039:14048   */\n      dup3\n        /* \"#utility.yul\":14035:14053   */\n      add\n        /* \"#utility.yul\":14027:14053   */\n      swap1\n      pop\n        /* \"#utility.yul\":14063:14134   */\n      tag_250\n        /* \"#utility.yul\":14131:14132   */\n      0x00\n        /* \"#utility.yul\":14120:14129   */\n      dup4\n        /* \"#utility.yul\":14116:14133   */\n      add\n        /* \"#utility.yul\":14107:14113   */\n      dup6\n        /* \"#utility.yul\":14063:14134   */\n      tag_74\n      jump\t// in\n    tag_250:\n        /* \"#utility.yul\":14181:14190   */\n      dup2\n        /* \"#utility.yul\":14175:14179   */\n      dup2\n        /* \"#utility.yul\":14171:14191   */\n      sub\n        /* \"#utility.yul\":14166:14168   */\n      0x20\n        /* \"#utility.yul\":14155:14164   */\n      dup4\n        /* \"#utility.yul\":14151:14169   */\n      add\n        /* \"#utility.yul\":14144:14192   */\n      mstore\n        /* \"#utility.yul\":14209:14287   */\n      tag_251\n        /* \"#utility.yul\":14282:14286   */\n      dup2\n        /* \"#utility.yul\":14273:14279   */\n      dup5\n        /* \"#utility.yul\":14209:14287   */\n      tag_70\n      jump\t// in\n    tag_251:\n        /* \"#utility.yul\":14201:14287   */\n      swap1\n      pop\n        /* \"#utility.yul\":13871:14294   */\n      swap4\n      swap3\n      pop\n      pop\n      pop\n      jump\t// out\n        /* \"#utility.yul\":14300:14379   */\n    tag_99:\n        /* \"#utility.yul\":14339:14346   */\n      0x00\n        /* \"#utility.yul\":14368:14373   */\n      dup2\n        /* \"#utility.yul\":14357:14373   */\n      swap1\n      pop\n        /* \"#utility.yul\":14300:14379   */\n      swap2\n      swap1\n      pop\n      jump\t// out\n        /* \"#utility.yul\":14385:14542   */\n    tag_100:\n        /* \"#utility.yul\":14490:14535   */\n      tag_254\n        /* \"#utility.yul\":14510:14534   */\n      tag_255\n        /* \"#utility.yul\":14528:14533   */\n      dup3\n        /* \"#utility.yul\":14510:14534   */\n      tag_73\n      jump\t// in\n    tag_255:\n        /* \"#utility.yul\":14490:14535   */\n      tag_99\n      jump\t// in\n    tag_254:\n        /* \"#utility.yul\":14485:14488   */\n      dup3\n        /* \"#utility.yul\":14478:14536   */\n      mstore\n        /* \"#utility.yul\":14385:14542   */\n      pop\n      pop\n      jump\t// out\n        /* \"#utility.yul\":14548:14674   */\n    tag_101:\n        /* \"#utility.yul\":14585:14592   */\n      0x00\n        /* \"#utility.yul\":14625:14667   */\n      0xffffffffffffffffffffffffffffffffffffffff\n        /* \"#utility.yul\":14618:14623   */\n      dup3\n        /* \"#utility.yul\":14614:14668   */\n      and\n        /* \"#utility.yul\":14603:14668   */\n      swap1\n      pop\n        /* \"#utility.yul\":14548:14674   */\n      swap2\n      swap1\n      pop\n      jump\t// out\n        /* \"#utility.yul\":14680:14776   */\n    tag_102:\n        /* \"#utility.yul\":14717:14724   */\n      0x00\n        /* \"#utility.yul\":14746:14770   */\n      tag_258\n        /* \"#utility.yul\":14764:14769   */\n      dup3\n        /* \"#utility.yul\":14746:14770   */\n      tag_101\n      jump\t// in\n    tag_258:\n        /* \"#utility.yul\":14735:14770   */\n      swap1\n      pop\n        /* \"#utility.yul\":14680:14776   */\n      swap2\n      swap1\n      pop\n      jump\t// out\n        /* \"#utility.yul\":14782:14876   */\n    tag_103:\n        /* \"#utility.yul\":14815:14823   */\n      0x00\n        /* \"#utility.yul\":14863:14868   */\n      dup2\n        /* \"#utility.yul\":14859:14861   */\n      0x60\n        /* \"#utility.yul\":14855:14869   */\n      shl\n        /* \"#utility.yul\":14834:14869   */\n      swap1\n      pop\n        /* \"#utility.yul\":14782:14876   */\n      swap2\n      swap1\n      pop\n      jump\t// out\n        /* \"#utility.yul\":14882:14976   */\n    tag_104:\n        /* \"#utility.yul\":14921:14928   */\n      0x00\n        /* \"#utility.yul\":14950:14970   */\n      tag_261\n        /* \"#utility.yul\":14964:14969   */\n      dup3\n        /* \"#utility.yul\":14950:14970   */\n      tag_103\n      jump\t// in\n    tag_261:\n        /* \"#utility.yul\":14939:14970   */\n      swap1\n      pop\n        /* \"#utility.yul\":14882:14976   */\n      swap2\n      swap1\n      pop\n      jump\t// out\n        /* \"#utility.yul\":14982:15082   */\n    tag_105:\n        /* \"#utility.yul\":15021:15028   */\n      0x00\n        /* \"#utility.yul\":15050:15076   */\n      tag_263\n        /* \"#utility.yul\":15070:15075   */\n      dup3\n        /* \"#utility.yul\":15050:15076   */\n      tag_104\n      jump\t// in\n    tag_263:\n        /* \"#utility.yul\":15039:15076   */\n      swap1\n      pop\n        /* \"#utility.yul\":14982:15082   */\n      swap2\n      swap1\n      pop\n      jump\t// out\n        /* \"#utility.yul\":15088:15245   */\n    tag_106:\n        /* \"#utility.yul\":15193:15238   */\n      tag_265\n        /* \"#utility.yul\":15213:15237   */\n      tag_266\n        /* \"#utility.yul\":15231:15236   */\n      dup3\n        /* \"#utility.yul\":15213:15237   */\n      tag_102\n      jump\t// in\n    tag_266:\n        /* \"#utility.yul\":15193:15238   */\n      tag_105\n      jump\t// in\n    tag_265:\n        /* \"#utility.yul\":15188:15191   */\n      dup3\n        /* \"#utility.yul\":15181:15239   */\n      mstore\n        /* \"#utility.yul\":15088:15245   */\n      pop\n      pop\n      jump\t// out\n        /* \"#utility.yul\":15251:15808   */\n    tag_51:\n        /* \"#utility.yul\":15439:15442   */\n      0x00\n        /* \"#utility.yul\":15461:15556   */\n      tag_268\n        /* \"#utility.yul\":15552:15555   */\n      dup3\n        /* \"#utility.yul\":15543:15549   */\n      dup7\n        /* \"#utility.yul\":15461:15556   */\n      tag_80\n      jump\t// in\n    tag_268:\n        /* \"#utility.yul\":15454:15556   */\n      swap2\n      pop\n        /* \"#utility.yul\":15566:15641   */\n      tag_269\n        /* \"#utility.yul\":15637:15640   */\n      dup3\n        /* \"#utility.yul\":15628:15634   */\n      dup6\n        /* \"#utility.yul\":15566:15641   */\n      tag_100\n      jump\t// in\n    tag_269:\n        /* \"#utility.yul\":15666:15668   */\n      0x20\n        /* \"#utility.yul\":15661:15664   */\n      dup3\n        /* \"#utility.yul\":15657:15669   */\n      add\n        /* \"#utility.yul\":15650:15669   */\n      swap2\n      pop\n        /* \"#utility.yul\":15679:15754   */\n      tag_270\n        /* \"#utility.yul\":15750:15753   */\n      dup3\n        /* \"#utility.yul\":15741:15747   */\n      dup5\n        /* \"#utility.yul\":15679:15754   */\n      tag_106\n      jump\t// in\n    tag_270:\n        /* \"#utility.yul\":15779:15781   */\n      0x14\n        /* \"#utility.yul\":15774:15777   */\n      dup3\n        /* \"#utility.yul\":15770:15782   */\n      add\n        /* \"#utility.yul\":15763:15782   */\n      swap2\n      pop\n        /* \"#utility.yul\":15799:15802   */\n      dup2\n        /* \"#utility.yul\":15792:15802   */\n      swap1\n      pop\n        /* \"#utility.yul\":15251:15808   */\n      swap5\n      swap4\n      pop\n      pop\n      pop\n      pop\n      jump\t// out\n        /* \"#utility.yul\":15814:15994   */\n    tag_107:\n        /* \"#utility.yul\":15862:15939   */\n      0x4e487b7100000000000000000000000000000000000000000000000000000000\n        /* \"#utility.yul\":15859:15860   */\n      0x00\n        /* \"#utility.yul\":15852:15940   */\n      mstore\n        /* \"#utility.yul\":15959:15963   */\n      0x12\n        /* \"#utility.yul\":15956:15957   */\n      0x04\n        /* \"#utility.yul\":15949:15964   */\n      mstore\n        /* \"#utility.yul\":15983:15987   */\n      0x24\n        /* \"#utility.yul\":15980:15981   */\n      0x00\n        /* \"#utility.yul\":15973:15988   */\n      revert\n        /* \"#utility.yul\":16000:16176   */\n    tag_53:\n        /* \"#utility.yul\":16032:16033   */\n      0x00\n        /* \"#utility.yul\":16049:16069   */\n      tag_273\n        /* \"#utility.yul\":16067:16068   */\n      dup3\n        /* \"#utility.yul\":16049:16069   */\n      tag_73\n      jump\t// in\n    tag_273:\n        /* \"#utility.yul\":16044:16069   */\n      swap2\n      pop\n        /* \"#utility.yul\":16083:16103   */\n      tag_274\n        /* \"#utility.yul\":16101:16102   */\n      dup4\n        /* \"#utility.yul\":16083:16103   */\n      tag_73\n      jump\t// in\n    tag_274:\n        /* \"#utility.yul\":16078:16103   */\n      swap3\n      pop\n        /* \"#utility.yul\":16122:16123   */\n      dup3\n        /* \"#utility.yul\":16112:16147   */\n      tag_275\n      jumpi\n        /* \"#utility.yul\":16127:16145   */\n      tag_276\n      tag_107\n      jump\t// in\n    tag_276:\n        /* \"#utility.yul\":16112:16147   */\n    tag_275:\n        /* \"#utility.yul\":16168:16169   */\n      dup3\n        /* \"#utility.yul\":16165:16166   */\n      dup3\n        /* \"#utility.yul\":16161:16170   */\n      mod\n        /* \"#utility.yul\":16156:16170   */\n      swap1\n      pop\n        /* \"#utility.yul\":16000:16176   */\n      swap3\n      swap2\n      pop\n      pop\n      jump\t// out\n\n    auxdata: 0xa2646970667358221220e173ab9cf7096e7893ce7a7ec79abb6b9849ec31c913fc72406ca9bb5799fdcc64736f6c634300081a0033\n}\n",
				"bytecode": {
					"linkReferences": {},
					"object": "6080604052348015600e575f80fd5b50610ce68061001c5f395ff3fe608060405234801561000f575f80fd5b5060043610610034575f3560e01c806330d159831461003857806358467dbc14610068575b5f80fd5b610052600480360381019061004d91906105b8565b610099565b60405161005f919061068e565b60405180910390f35b610082600480360381019061007d91906105b8565b6102ce565b6040516100909291906106e0565b60405180910390f35b60605f8351116100de576040517f08c379a00000000000000000000000000000000000000000000000000000000081526004016100d590610751565b60405180910390fd5b5f825111610121576040517f08c379a0000000000000000000000000000000000000000000000000000000008152600401610118906107b9565b60405180910390fd5b5f836040516101309190610811565b90815260200160405180910390205f9054906101000a900460ff161561018b576040517f08c379a000000000000000000000000000000000000000000000000000000000815260040161018290610871565b60405180910390fd5b5f61019584610428565b90506040518060600160405280828152602001858152602001846040516020016101bf9190610811565b604051602081830303815290604052805190602001208152506001856040516101e89190610811565b90815260200160405180910390205f820151815f015560208201518160010190816102139190610a89565b506040820151816002015590505060015f856040516102329190610811565b90815260200160405180910390205f6101000a81548160ff0219169083151502179055507fdab9743d128d36549a2c6a6aa30fbe68eb5bf3204be7a61067338234dc859cc48185604051610287929190610b58565b60405180910390a16040518060400160405280600e81526020017f7369676e7570207375636365737300000000000000000000000000000000000081525091505092915050565b5f805f846040516102df9190610811565b90815260200160405180910390205f9054906101000a900460ff16610309575f8091509150610421565b5f60018560405161031a9190610811565b90815260200160405180910390206040518060600160405290815f820154815260200160018201805461034c906108bc565b80601f0160208091040260200160405190810160405280929190818152602001828054610378906108bc565b80156103c35780601f1061039a576101008083540402835291602001916103c3565b820191905f5260205f20905b8154815290600101906020018083116103a657829003601f168201915b505050505081526020016002820154815250509050836040516020016103e99190610811565b60405160208183030381529060405280519060200120816040015114610415575f809250925050610421565b6001815f015192509250505b9250929050565b5f620f424082423360405160200161044293929190610c1b565b604051602081830303815290604052805190602001205f1c6104649190610c80565b9050919050565b5f604051905090565b5f80fd5b5f80fd5b5f80fd5b5f80fd5b5f601f19601f8301169050919050565b7f4e487b71000000000000000000000000000000000000000000000000000000005f52604160045260245ffd5b6104ca82610484565b810181811067ffffffffffffffff821117156104e9576104e8610494565b5b80604052505050565b5f6104fb61046b565b905061050782826104c1565b919050565b5f67ffffffffffffffff82111561052657610525610494565b5b61052f82610484565b9050602081019050919050565b828183375f83830152505050565b5f61055c6105578461050c565b6104f2565b90508281526020810184848401111561057857610577610480565b5b61058384828561053c565b509392505050565b5f82601f83011261059f5761059e61047c565b5b81356105af84826020860161054a565b91505092915050565b5f80604083850312156105ce576105cd610474565b5b5f83013567ffffffffffffffff8111156105eb576105ea610478565b5b6105f78582860161058b565b925050602083013567ffffffffffffffff81111561061857610617610478565b5b6106248582860161058b565b9150509250929050565b5f81519050919050565b5f82825260208201905092915050565b8281835e5f83830152505050565b5f6106608261062e565b61066a8185610638565b935061067a818560208601610648565b61068381610484565b840191505092915050565b5f6020820190508181035f8301526106a68184610656565b905092915050565b5f8115159050919050565b6106c2816106ae565b82525050565b5f819050919050565b6106da816106c8565b82525050565b5f6040820190506106f35f8301856106b9565b61070060208301846106d1565b9392505050565b7f656d61696c2063616e277420626520656d7074790000000000000000000000005f82015250565b5f61073b601483610638565b915061074682610707565b602082019050919050565b5f6020820190508181035f8301526107688161072f565b9050919050565b7f70617373776f72642063616e277420626520656d7074790000000000000000005f82015250565b5f6107a3601783610638565b91506107ae8261076f565b602082019050919050565b5f6020820190508181035f8301526107d081610797565b9050919050565b5f81905092915050565b5f6107eb8261062e565b6107f581856107d7565b9350610805818560208601610648565b80840191505092915050565b5f61081c82846107e1565b915081905092915050565b7f656d61696c20616c7265616479206578697374000000000000000000000000005f82015250565b5f61085b601383610638565b915061086682610827565b602082019050919050565b5f6020820190508181035f8301526108888161084f565b9050919050565b7f4e487b71000000000000000000000000000000000000000000000000000000005f52602260045260245ffd5b5f60028204905060018216806108d357607f821691505b6020821081036108e6576108e561088f565b5b50919050565b5f819050815f5260205f209050919050565b5f6020601f8301049050919050565b5f82821b905092915050565b5f600883026109487fffffffffffffffffffffffffffffffffffffffffffffffffffffffffffffffff8261090d565b610952868361090d565b95508019841693508086168417925050509392505050565b5f819050919050565b5f61098d610988610983846106c8565b61096a565b6106c8565b9050919050565b5f819050919050565b6109a683610973565b6109ba6109b282610994565b848454610919565b825550505050565b5f90565b6109ce6109c2565b6109d981848461099d565b505050565b5b818110156109fc576109f15f826109c6565b6001810190506109df565b5050565b601f821115610a4157610a12816108ec565b610a1b846108fe565b81016020851015610a2a578190505b610a3e610a36856108fe565b8301826109de565b50505b505050565b5f82821c905092915050565b5f610a615f1984600802610a46565b1980831691505092915050565b5f610a798383610a52565b9150826002028217905092915050565b610a928261062e565b67ffffffffffffffff811115610aab57610aaa610494565b5b610ab582546108bc565b610ac0828285610a00565b5f60209050601f831160018114610af1575f8415610adf578287015190505b610ae98582610a6e565b865550610b50565b601f198416610aff866108ec565b5f5b82811015610b2657848901518255600182019150602085019450602081019050610b01565b86831015610b435784890151610b3f601f891682610a52565b8355505b6001600288020188555050505b505050505050565b5f604082019050610b6b5f8301856106d1565b8181036020830152610b7d8184610656565b90509392505050565b5f819050919050565b610ba0610b9b826106c8565b610b86565b82525050565b5f73ffffffffffffffffffffffffffffffffffffffff82169050919050565b5f610bcf82610ba6565b9050919050565b5f8160601b9050919050565b5f610bec82610bd6565b9050919050565b5f610bfd82610be2565b9050919050565b610c15610c1082610bc5565b610bf3565b82525050565b5f610c2682866107e1565b9150610c328285610b8f565b602082019150610c428284610c04565b601482019150819050949350505050565b7f4e487b71000000000000000000000000000000000000000000000000000000005f52601260045260245ffd5b5f610c8a826106c8565b9150610c95836106c8565b925082610ca557610ca4610c53565b5b82820690509291505056fea2646970667358221220e173ab9cf7096e7893ce7a7ec79abb6b9849ec31c913fc72406ca9bb5799fdcc64736f6c634300081a0033",
					"opcodes": "PUSH1 0x80 PUSH1 0x40 MSTORE CALLVALUE DUP1 ISZERO PUSH1 0xE JUMPI PUSH0 DUP1 REVERT JUMPDEST POP PUSH2 0xCE6 DUP1 PUSH2 0x1C PUSH0 CODECOPY PUSH0 RETURN INVALID PUSH1 0x80 PUSH1 0x40 MSTORE CALLVALUE DUP1 ISZERO PUSH2 0xF JUMPI PUSH0 DUP1 REVERT JUMPDEST POP PUSH1 0x4 CALLDATASIZE LT PUSH2 0x34 JUMPI PUSH0 CALLDATALOAD PUSH1 0xE0 SHR DUP1 PUSH4 0x30D15983 EQ PUSH2 0x38 JUMPI DUP1 PUSH4 0x58467DBC EQ PUSH2 0x68 JUMPI JUMPDEST PUSH0 DUP1 REVERT JUMPDEST PUSH2 0x52 PUSH1 0x4 DUP1 CALLDATASIZE SUB DUP2 ADD SWAP1 PUSH2 0x4D SWAP2 SWAP1 PUSH2 0x5B8 JUMP JUMPDEST PUSH2 0x99 JUMP JUMPDEST PUSH1 0x40 MLOAD PUSH2 0x5F SWAP2 SWAP1 PUSH2 0x68E JUMP JUMPDEST PUSH1 0x40 MLOAD DUP1 SWAP2 SUB SWAP1 RETURN JUMPDEST PUSH2 0x82 PUSH1 0x4 DUP1 CALLDATASIZE SUB DUP2 ADD SWAP1 PUSH2 0x7D SWAP2 SWAP1 PUSH2 0x5B8 JUMP JUMPDEST PUSH2 0x2CE JUMP JUMPDEST PUSH1 0x40 MLOAD PUSH2 0x90 SWAP3 SWAP2 SWAP1 PUSH2 0x6E0 JUMP JUMPDEST PUSH1 0x40 MLOAD DUP1 SWAP2 SUB SWAP1 RETURN JUMPDEST PUSH1 0x60 PUSH0 DUP4 MLOAD GT PUSH2 0xDE JUMPI PUSH1 0x40 MLOAD PUSH32 0x8C379A000000000000000000000000000000000000000000000000000000000 DUP2 MSTORE PUSH1 0x4 ADD PUSH2 0xD5 SWAP1 PUSH2 0x751 JUMP JUMPDEST PUSH1 0x40 MLOAD DUP1 SWAP2 SUB SWAP1 REVERT JUMPDEST PUSH0 DUP3 MLOAD GT PUSH2 0x121 JUMPI PUSH1 0x40 MLOAD PUSH32 0x8C379A000000000000000000000000000000000000000000000000000000000 DUP2 MSTORE PUSH1 0x4 ADD PUSH2 0x118 SWAP1 PUSH2 0x7B9 JUMP JUMPDEST PUSH1 0x40 MLOAD DUP1 SWAP2 SUB SWAP1 REVERT JUMPDEST PUSH0 DUP4 PUSH1 0x40 MLOAD PUSH2 0x130 SWAP2 SWAP1 PUSH2 0x811 JUMP JUMPDEST SWAP1 DUP2 MSTORE PUSH1 0x20 ADD PUSH1 0x40 MLOAD DUP1 SWAP2 SUB SWAP1 KECCAK256 PUSH0 SWAP1 SLOAD SWAP1 PUSH2 0x100 EXP SWAP1 DIV PUSH1 0xFF AND ISZERO PUSH2 0x18B JUMPI PUSH1 0x40 MLOAD PUSH32 0x8C379A000000000000000000000000000000000000000000000000000000000 DUP2 MSTORE PUSH1 0x4 ADD PUSH2 0x182 SWAP1 PUSH2 0x871 JUMP JUMPDEST PUSH1 0x40 MLOAD DUP1 SWAP2 SUB SWAP1 REVERT JUMPDEST PUSH0 PUSH2 0x195 DUP5 PUSH2 0x428 JUMP JUMPDEST SWAP1 POP PUSH1 0x40 MLOAD DUP1 PUSH1 0x60 ADD PUSH1 0x40 MSTORE DUP1 DUP3 DUP2 MSTORE PUSH1 0x20 ADD DUP6 DUP2 MSTORE PUSH1 0x20 ADD DUP5 PUSH1 0x40 MLOAD PUSH1 0x20 ADD PUSH2 0x1BF SWAP2 SWAP1 PUSH2 0x811 JUMP JUMPDEST PUSH1 0x40 MLOAD PUSH1 0x20 DUP2 DUP4 SUB SUB DUP2 MSTORE SWAP1 PUSH1 0x40 MSTORE DUP1 MLOAD SWAP1 PUSH1 0x20 ADD KECCAK256 DUP2 MSTORE POP PUSH1 0x1 DUP6 PUSH1 0x40 MLOAD PUSH2 0x1E8 SWAP2 SWAP1 PUSH2 0x811 JUMP JUMPDEST SWAP1 DUP2 MSTORE PUSH1 0x20 ADD PUSH1 0x40 MLOAD DUP1 SWAP2 SUB SWAP1 KECCAK256 PUSH0 DUP3 ADD MLOAD DUP2 PUSH0 ADD SSTORE PUSH1 0x20 DUP3 ADD MLOAD DUP2 PUSH1 0x1 ADD SWAP1 DUP2 PUSH2 0x213 SWAP2 SWAP1 PUSH2 0xA89 JUMP JUMPDEST POP PUSH1 0x40 DUP3 ADD MLOAD DUP2 PUSH1 0x2 ADD SSTORE SWAP1 POP POP PUSH1 0x1 PUSH0 DUP6 PUSH1 0x40 MLOAD PUSH2 0x232 SWAP2 SWAP1 PUSH2 0x811 JUMP JUMPDEST SWAP1 DUP2 MSTORE PUSH1 0x20 ADD PUSH1 0x40 MLOAD DUP1 SWAP2 SUB SWAP1 KECCAK256 PUSH0 PUSH2 0x100 EXP DUP2 SLOAD DUP2 PUSH1 0xFF MUL NOT AND SWAP1 DUP4 ISZERO ISZERO MUL OR SWAP1 SSTORE POP PUSH32 0xDAB9743D128D36549A2C6A6AA30FBE68EB5BF3204BE7A61067338234DC859CC4 DUP2 DUP6 PUSH1 0x40 MLOAD PUSH2 0x287 SWAP3 SWAP2 SWAP1 PUSH2 0xB58 JUMP JUMPDEST PUSH1 0x40 MLOAD DUP1 SWAP2 SUB SWAP1 LOG1 PUSH1 0x40 MLOAD DUP1 PUSH1 0x40 ADD PUSH1 0x40 MSTORE DUP1 PUSH1 0xE DUP2 MSTORE PUSH1 0x20 ADD PUSH32 0x7369676E75702073756363657373000000000000000000000000000000000000 DUP2 MSTORE POP SWAP2 POP POP SWAP3 SWAP2 POP POP JUMP JUMPDEST PUSH0 DUP1 PUSH0 DUP5 PUSH1 0x40 MLOAD PUSH2 0x2DF SWAP2 SWAP1 PUSH2 0x811 JUMP JUMPDEST SWAP1 DUP2 MSTORE PUSH1 0x20 ADD PUSH1 0x40 MLOAD DUP1 SWAP2 SUB SWAP1 KECCAK256 PUSH0 SWAP1 SLOAD SWAP1 PUSH2 0x100 EXP SWAP1 DIV PUSH1 0xFF AND PUSH2 0x309 JUMPI PUSH0 DUP1 SWAP2 POP SWAP2 POP PUSH2 0x421 JUMP JUMPDEST PUSH0 PUSH1 0x1 DUP6 PUSH1 0x40 MLOAD PUSH2 0x31A SWAP2 SWAP1 PUSH2 0x811 JUMP JUMPDEST SWAP1 DUP2 MSTORE PUSH1 0x20 ADD PUSH1 0x40 MLOAD DUP1 SWAP2 SUB SWAP1 KECCAK256 PUSH1 0x40 MLOAD DUP1 PUSH1 0x60 ADD PUSH1 0x40 MSTORE SWAP1 DUP2 PUSH0 DUP3 ADD SLOAD DUP2 MSTORE PUSH1 0x20 ADD PUSH1 0x1 DUP3 ADD DUP1 SLOAD PUSH2 0x34C SWAP1 PUSH2 0x8BC JUMP JUMPDEST DUP1 PUSH1 0x1F ADD PUSH1 0x20 DUP1 SWAP2 DIV MUL PUSH1 0x20 ADD PUSH1 0x40 MLOAD SWAP1 DUP2 ADD PUSH1 0x40 MSTORE DUP1 SWAP3 SWAP2 SWAP1 DUP2 DUP2 MSTORE PUSH1 0x20 ADD DUP3 DUP1 SLOAD PUSH2 0x378 SWAP1 PUSH2 0x8BC JUMP JUMPDEST DUP1 ISZERO PUSH2 0x3C3 JUMPI DUP1 PUSH1 0x1F LT PUSH2 0x39A JUMPI PUSH2 0x100 DUP1 DUP4 SLOAD DIV MUL DUP4 MSTORE SWAP2 PUSH1 0x20 ADD SWAP2 PUSH2 0x3C3 JUMP JUMPDEST DUP3 ADD SWAP2 SWAP1 PUSH0 MSTORE PUSH1 0x20 PUSH0 KECCAK256 SWAP1 JUMPDEST DUP2 SLOAD DUP2 MSTORE SWAP1 PUSH1 0x1 ADD SWAP1 PUSH1 0x20 ADD DUP1 DUP4 GT PUSH2 0x3A6 JUMPI DUP3 SWAP1 SUB PUSH1 0x1F AND DUP3 ADD SWAP2 JUMPDEST POP POP POP POP POP DUP2 MSTORE PUSH1 0x20 ADD PUSH1 0x2 DUP3 ADD SLOAD DUP2 MSTORE POP POP SWAP1 POP DUP4 PUSH1 0x40 MLOAD PUSH1 0x20 ADD PUSH2 0x3E9 SWAP2 SWAP1 PUSH2 0x811 JUMP JUMPDEST PUSH1 0x40 MLOAD PUSH1 0x20 DUP2 DUP4 SUB SUB DUP2 MSTORE SWAP1 PUSH1 0x40 MSTORE DUP1 MLOAD SWAP1 PUSH1 0x20 ADD KECCAK256 DUP2 PUSH1 0x40 ADD MLOAD EQ PUSH2 0x415 JUMPI PUSH0 DUP1 SWAP3 POP SWAP3 POP POP PUSH2 0x421 JUMP JUMPDEST PUSH1 0x1 DUP2 PUSH0 ADD MLOAD SWAP3 POP SWAP3 POP POP JUMPDEST SWAP3 POP SWAP3 SWAP1 POP JUMP JUMPDEST PUSH0 PUSH3 0xF4240 DUP3 TIMESTAMP CALLER PUSH1 0x40 MLOAD PUSH1 0x20 ADD PUSH2 0x442 SWAP4 SWAP3 SWAP2 SWAP1 PUSH2 0xC1B JUMP JUMPDEST PUSH1 0x40 MLOAD PUSH1 0x20 DUP2 DUP4 SUB SUB DUP2 MSTORE SWAP1 PUSH1 0x40 MSTORE DUP1 MLOAD SWAP1 PUSH1 0x20 ADD KECCAK256 PUSH0 SHR PUSH2 0x464 SWAP2 SWAP1 PUSH2 0xC80 JUMP JUMPDEST SWAP1 POP SWAP2 SWAP1 POP JUMP JUMPDEST PUSH0 PUSH1 0x40 MLOAD SWAP1 POP SWAP1 JUMP JUMPDEST PUSH0 DUP1 REVERT JUMPDEST PUSH0 DUP1 REVERT JUMPDEST PUSH0 DUP1 REVERT JUMPDEST PUSH0 DUP1 REVERT JUMPDEST PUSH0 PUSH1 0x1F NOT PUSH1 0x1F DUP4 ADD AND SWAP1 POP SWAP2 SWAP1 POP JUMP JUMPDEST PUSH32 0x4E487B7100000000000000000000000000000000000000000000000000000000 PUSH0 MSTORE PUSH1 0x41 PUSH1 0x4 MSTORE PUSH1 0x24 PUSH0 REVERT JUMPDEST PUSH2 0x4CA DUP3 PUSH2 0x484 JUMP JUMPDEST DUP2 ADD DUP2 DUP2 LT PUSH8 0xFFFFFFFFFFFFFFFF DUP3 GT OR ISZERO PUSH2 0x4E9 JUMPI PUSH2 0x4E8 PUSH2 0x494 JUMP JUMPDEST JUMPDEST DUP1 PUSH1 0x40 MSTORE POP POP POP JUMP JUMPDEST PUSH0 PUSH2 0x4FB PUSH2 0x46B JUMP JUMPDEST SWAP1 POP PUSH2 0x507 DUP3 DUP3 PUSH2 0x4C1 JUMP JUMPDEST SWAP2 SWAP1 POP JUMP JUMPDEST PUSH0 PUSH8 0xFFFFFFFFFFFFFFFF DUP3 GT ISZERO PUSH2 0x526 JUMPI PUSH2 0x525 PUSH2 0x494 JUMP JUMPDEST JUMPDEST PUSH2 0x52F DUP3 PUSH2 0x484 JUMP JUMPDEST SWAP1 POP PUSH1 0x20 DUP2 ADD SWAP1 POP SWAP2 SWAP1 POP JUMP JUMPDEST DUP3 DUP2 DUP4 CALLDATACOPY PUSH0 DUP4 DUP4 ADD MSTORE POP POP POP JUMP JUMPDEST PUSH0 PUSH2 0x55C PUSH2 0x557 DUP5 PUSH2 0x50C JUMP JUMPDEST PUSH2 0x4F2 JUMP JUMPDEST SWAP1 POP DUP3 DUP2 MSTORE PUSH1 0x20 DUP2 ADD DUP5 DUP5 DUP5 ADD GT ISZERO PUSH2 0x578 JUMPI PUSH2 0x577 PUSH2 0x480 JUMP JUMPDEST JUMPDEST PUSH2 0x583 DUP5 DUP3 DUP6 PUSH2 0x53C JUMP JUMPDEST POP SWAP4 SWAP3 POP POP POP JUMP JUMPDEST PUSH0 DUP3 PUSH1 0x1F DUP4 ADD SLT PUSH2 0x59F JUMPI PUSH2 0x59E PUSH2 0x47C JUMP JUMPDEST JUMPDEST DUP2 CALLDATALOAD PUSH2 0x5AF DUP5 DUP3 PUSH1 0x20 DUP7 ADD PUSH2 0x54A JUMP JUMPDEST SWAP2 POP POP SWAP3 SWAP2 POP POP JUMP JUMPDEST PUSH0 DUP1 PUSH1 0x40 DUP4 DUP6 SUB SLT ISZERO PUSH2 0x5CE JUMPI PUSH2 0x5CD PUSH2 0x474 JUMP JUMPDEST JUMPDEST PUSH0 DUP4 ADD CALLDATALOAD PUSH8 0xFFFFFFFFFFFFFFFF DUP2 GT ISZERO PUSH2 0x5EB JUMPI PUSH2 0x5EA PUSH2 0x478 JUMP JUMPDEST JUMPDEST PUSH2 0x5F7 DUP6 DUP3 DUP7 ADD PUSH2 0x58B JUMP JUMPDEST SWAP3 POP POP PUSH1 0x20 DUP4 ADD CALLDATALOAD PUSH8 0xFFFFFFFFFFFFFFFF DUP2 GT ISZERO PUSH2 0x618 JUMPI PUSH2 0x617 PUSH2 0x478 JUMP JUMPDEST JUMPDEST PUSH2 0x624 DUP6 DUP3 DUP7 ADD PUSH2 0x58B JUMP JUMPDEST SWAP2 POP POP SWAP3 POP SWAP3 SWAP1 POP JUMP JUMPDEST PUSH0 DUP2 MLOAD SWAP1 POP SWAP2 SWAP1 POP JUMP JUMPDEST PUSH0 DUP3 DUP3 MSTORE PUSH1 0x20 DUP3 ADD SWAP1 POP SWAP3 SWAP2 POP POP JUMP JUMPDEST DUP3 DUP2 DUP4 MCOPY PUSH0 DUP4 DUP4 ADD MSTORE POP POP POP JUMP JUMPDEST PUSH0 PUSH2 0x660 DUP3 PUSH2 0x62E JUMP JUMPDEST PUSH2 0x66A DUP2 DUP6 PUSH2 0x638 JUMP JUMPDEST SWAP4 POP PUSH2 0x67A DUP2 DUP6 PUSH1 0x20 DUP7 ADD PUSH2 0x648 JUMP JUMPDEST PUSH2 0x683 DUP2 PUSH2 0x484 JUMP JUMPDEST DUP5 ADD SWAP2 POP POP SWAP3 SWAP2 POP POP JUMP JUMPDEST PUSH0 PUSH1 0x20 DUP3 ADD SWAP1 POP DUP2 DUP2 SUB PUSH0 DUP4 ADD MSTORE PUSH2 0x6A6 DUP2 DUP5 PUSH2 0x656 JUMP JUMPDEST SWAP1 POP SWAP3 SWAP2 POP POP JUMP JUMPDEST PUSH0 DUP2 ISZERO ISZERO SWAP1 POP SWAP2 SWAP1 POP JUMP JUMPDEST PUSH2 0x6C2 DUP2 PUSH2 0x6AE JUMP JUMPDEST DUP3 MSTORE POP POP JUMP JUMPDEST PUSH0 DUP2 SWAP1 POP SWAP2 SWAP1 POP JUMP JUMPDEST PUSH2 0x6DA DUP2 PUSH2 0x6C8 JUMP JUMPDEST DUP3 MSTORE POP POP JUMP JUMPDEST PUSH0 PUSH1 0x40 DUP3 ADD SWAP1 POP PUSH2 0x6F3 PUSH0 DUP4 ADD DUP6 PUSH2 0x6B9 JUMP JUMPDEST PUSH2 0x700 PUSH1 0x20 DUP4 ADD DUP5 PUSH2 0x6D1 JUMP JUMPDEST SWAP4 SWAP3 POP POP POP JUMP JUMPDEST PUSH32 0x656D61696C2063616E277420626520656D707479000000000000000000000000 PUSH0 DUP3 ADD MSTORE POP JUMP JUMPDEST PUSH0 PUSH2 0x73B PUSH1 0x14 DUP4 PUSH2 0x638 JUMP JUMPDEST SWAP2 POP PUSH2 0x746 DUP3 PUSH2 0x707 JUMP JUMPDEST PUSH1 0x20 DUP3 ADD SWAP1 POP SWAP2 SWAP1 POP JUMP JUMPDEST PUSH0 PUSH1 0x20 DUP3 ADD SWAP1 POP DUP2 DUP2 SUB PUSH0 DUP4 ADD MSTORE PUSH2 0x768 DUP2 PUSH2 0x72F JUMP JUMPDEST SWAP1 POP SWAP2 SWAP1 POP JUMP JUMPDEST PUSH32 0x70617373776F72642063616E277420626520656D707479000000000000000000 PUSH0 DUP3 ADD MSTORE POP JUMP JUMPDEST PUSH0 PUSH2 0x7A3 PUSH1 0x17 DUP4 PUSH2 0x638 JUMP JUMPDEST SWAP2 POP PUSH2 0x7AE DUP3 PUSH2 0x76F JUMP JUMPDEST PUSH1 0x20 DUP3 ADD SWAP1 POP SWAP2 SWAP1 POP JUMP JUMPDEST PUSH0 PUSH1 0x20 DUP3 ADD SWAP1 POP DUP2 DUP2 SUB PUSH0 DUP4 ADD MSTORE PUSH2 0x7D0 DUP2 PUSH2 0x797 JUMP JUMPDEST SWAP1 POP SWAP2 SWAP1 POP JUMP JUMPDEST PUSH0 DUP2 SWAP1 POP SWAP3 SWAP2 POP POP JUMP JUMPDEST PUSH0 PUSH2 0x7EB DUP3 PUSH2 0x62E JUMP JUMPDEST PUSH2 0x7F5 DUP2 DUP6 PUSH2 0x7D7 JUMP JUMPDEST SWAP4 POP PUSH2 0x805 DUP2 DUP6 PUSH1 0x20 DUP7 ADD PUSH2 0x648 JUMP JUMPDEST DUP1 DUP5 ADD SWAP2 POP POP SWAP3 SWAP2 POP POP JUMP JUMPDEST PUSH0 PUSH2 0x81C DUP3 DUP5 PUSH2 0x7E1 JUMP JUMPDEST SWAP2 POP DUP2 SWAP1 POP SWAP3 SWAP2 POP POP JUMP JUMPDEST PUSH32 0x656D61696C20616C726561647920657869737400000000000000000000000000 PUSH0 DUP3 ADD MSTORE POP JUMP JUMPDEST PUSH0 PUSH2 0x85B PUSH1 0x13 DUP4 PUSH2 0x638 JUMP JUMPDEST SWAP2 POP PUSH2 0x866 DUP3 PUSH2 0x827 JUMP JUMPDEST PUSH1 0x20 DUP3 ADD SWAP1 POP SWAP2 SWAP1 POP JUMP JUMPDEST PUSH0 PUSH1 0x20 DUP3 ADD SWAP1 POP DUP2 DUP2 SUB PUSH0 DUP4 ADD MSTORE PUSH2 0x888 DUP2 PUSH2 0x84F JUMP JUMPDEST SWAP1 POP SWAP2 SWAP1 POP JUMP JUMPDEST PUSH32 0x4E487B7100000000000000000000000000000000000000000000000000000000 PUSH0 MSTORE PUSH1 0x22 PUSH1 0x4 MSTORE PUSH1 0x24 PUSH0 REVERT JUMPDEST PUSH0 PUSH1 0x2 DUP3 DIV SWAP1 POP PUSH1 0x1 DUP3 AND DUP1 PUSH2 0x8D3 JUMPI PUSH1 0x7F DUP3 AND SWAP2 POP JUMPDEST PUSH1 0x20 DUP3 LT DUP2 SUB PUSH2 0x8E6 JUMPI PUSH2 0x8E5 PUSH2 0x88F JUMP JUMPDEST JUMPDEST POP SWAP2 SWAP1 POP JUMP JUMPDEST PUSH0 DUP2 SWAP1 POP DUP2 PUSH0 MSTORE PUSH1 0x20 PUSH0 KECCAK256 SWAP1 POP SWAP2 SWAP1 POP JUMP JUMPDEST PUSH0 PUSH1 0x20 PUSH1 0x1F DUP4 ADD DIV SWAP1 POP SWAP2 SWAP1 POP JUMP JUMPDEST PUSH0 DUP3 DUP3 SHL SWAP1 POP SWAP3 SWAP2 POP POP JUMP JUMPDEST PUSH0 PUSH1 0x8 DUP4 MUL PUSH2 0x948 PUSH32 0xFFFFFFFFFFFFFFFFFFFFFFFFFFFFFFFFFFFFFFFFFFFFFFFFFFFFFFFFFFFFFFFF DUP3 PUSH2 0x90D JUMP JUMPDEST PUSH2 0x952 DUP7 DUP4 PUSH2 0x90D JUMP JUMPDEST SWAP6 POP DUP1 NOT DUP5 AND SWAP4 POP DUP1 DUP7 AND DUP5 OR SWAP3 POP POP POP SWAP4 SWAP3 POP POP POP JUMP JUMPDEST PUSH0 DUP2 SWAP1 POP SWAP2 SWAP1 POP JUMP JUMPDEST PUSH0 PUSH2 0x98D PUSH2 0x988 PUSH2 0x983 DUP5 PUSH2 0x6C8 JUMP JUMPDEST PUSH2 0x96A JUMP JUMPDEST PUSH2 0x6C8 JUMP JUMPDEST SWAP1 POP SWAP2 SWAP1 POP JUMP JUMPDEST PUSH0 DUP2 SWAP1 POP SWAP2 SWAP1 POP JUMP JUMPDEST PUSH2 0x9A6 DUP4 PUSH2 0x973 JUMP JUMPDEST PUSH2 0x9BA PUSH2 0x9B2 DUP3 PUSH2 0x994 JUMP JUMPDEST DUP5 DUP5 SLOAD PUSH2 0x919 JUMP JUMPDEST DUP3 SSTORE POP POP POP POP JUMP JUMPDEST PUSH0 SWAP1 JUMP JUMPDEST PUSH2 0x9CE PUSH2 0x9C2 JUMP JUMPDEST PUSH2 0x9D9 DUP2 DUP5 DUP5 PUSH2 0x99D JUMP JUMPDEST POP POP POP JUMP JUMPDEST JUMPDEST DUP2 DUP2 LT ISZERO PUSH2 0x9FC JUMPI PUSH2 0x9F1 PUSH0 DUP3 PUSH2 0x9C6 JUMP JUMPDEST PUSH1 0x1 DUP2 ADD SWAP1 POP PUSH2 0x9DF JUMP JUMPDEST POP POP JUMP JUMPDEST PUSH1 0x1F DUP3 GT ISZERO PUSH2 0xA41 JUMPI PUSH2 0xA12 DUP2 PUSH2 0x8EC JUMP JUMPDEST PUSH2 0xA1B DUP5 PUSH2 0x8FE JUMP JUMPDEST DUP2 ADD PUSH1 0x20 DUP6 LT ISZERO PUSH2 0xA2A JUMPI DUP2 SWAP1 POP JUMPDEST PUSH2 0xA3E PUSH2 0xA36 DUP6 PUSH2 0x8FE JUMP JUMPDEST DUP4 ADD DUP3 PUSH2 0x9DE JUMP JUMPDEST POP POP JUMPDEST POP POP POP JUMP JUMPDEST PUSH0 DUP3 DUP3 SHR SWAP1 POP SWAP3 SWAP2 POP POP JUMP JUMPDEST PUSH0 PUSH2 0xA61 PUSH0 NOT DUP5 PUSH1 0x8 MUL PUSH2 0xA46 JUMP JUMPDEST NOT DUP1 DUP4 AND SWAP2 POP POP SWAP3 SWAP2 POP POP JUMP JUMPDEST PUSH0 PUSH2 0xA79 DUP4 DUP4 PUSH2 0xA52 JUMP JUMPDEST SWAP2 POP DUP3 PUSH1 0x2 MUL DUP3 OR SWAP1 POP SWAP3 SWAP2 POP POP JUMP JUMPDEST PUSH2 0xA92 DUP3 PUSH2 0x62E JUMP JUMPDEST PUSH8 0xFFFFFFFFFFFFFFFF DUP2 GT ISZERO PUSH2 0xAAB JUMPI PUSH2 0xAAA PUSH2 0x494 JUMP JUMPDEST JUMPDEST PUSH2 0xAB5 DUP3 SLOAD PUSH2 0x8BC JUMP JUMPDEST PUSH2 0xAC0 DUP3 DUP3 DUP6 PUSH2 0xA00 JUMP JUMPDEST PUSH0 PUSH1 0x20 SWAP1 POP PUSH1 0x1F DUP4 GT PUSH1 0x1 DUP2 EQ PUSH2 0xAF1 JUMPI PUSH0 DUP5 ISZERO PUSH2 0xADF JUMPI DUP3 DUP8 ADD MLOAD SWAP1 POP JUMPDEST PUSH2 0xAE9 DUP6 DUP3 PUSH2 0xA6E JUMP JUMPDEST DUP7 SSTORE POP PUSH2 0xB50 JUMP JUMPDEST PUSH1 0x1F NOT DUP5 AND PUSH2 0xAFF DUP7 PUSH2 0x8EC JUMP JUMPDEST PUSH0 JUMPDEST DUP3 DUP2 LT ISZERO PUSH2 0xB26 JUMPI DUP5 DUP10 ADD MLOAD DUP3 SSTORE PUSH1 0x1 DUP3 ADD SWAP2 POP PUSH1 0x20 DUP6 ADD SWAP5 POP PUSH1 0x20 DUP2 ADD SWAP1 POP PUSH2 0xB01 JUMP JUMPDEST DUP7 DUP4 LT ISZERO PUSH2 0xB43 JUMPI DUP5 DUP10 ADD MLOAD PUSH2 0xB3F PUSH1 0x1F DUP10 AND DUP3 PUSH2 0xA52 JUMP JUMPDEST DUP4 SSTORE POP JUMPDEST PUSH1 0x1 PUSH1 0x2 DUP9 MUL ADD DUP9 SSTORE POP POP POP JUMPDEST POP POP POP POP POP POP JUMP JUMPDEST PUSH0 PUSH1 0x40 DUP3 ADD SWAP1 POP PUSH2 0xB6B PUSH0 DUP4 ADD DUP6 PUSH2 0x6D1 JUMP JUMPDEST DUP2 DUP2 SUB PUSH1 0x20 DUP4 ADD MSTORE PUSH2 0xB7D DUP2 DUP5 PUSH2 0x656 JUMP JUMPDEST SWAP1 POP SWAP4 SWAP3 POP POP POP JUMP JUMPDEST PUSH0 DUP2 SWAP1 POP SWAP2 SWAP1 POP JUMP JUMPDEST PUSH2 0xBA0 PUSH2 0xB9B DUP3 PUSH2 0x6C8 JUMP JUMPDEST PUSH2 0xB86 JUMP JUMPDEST DUP3 MSTORE POP POP JUMP JUMPDEST PUSH0 PUSH20 0xFFFFFFFFFFFFFFFFFFFFFFFFFFFFFFFFFFFFFFFF DUP3 AND SWAP1 POP SWAP2 SWAP1 POP JUMP JUMPDEST PUSH0 PUSH2 0xBCF DUP3 PUSH2 0xBA6 JUMP JUMPDEST SWAP1 POP SWAP2 SWAP1 POP JUMP JUMPDEST PUSH0 DUP2 PUSH1 0x60 SHL SWAP1 POP SWAP2 SWAP1 POP JUMP JUMPDEST PUSH0 PUSH2 0xBEC DUP3 PUSH2 0xBD6 JUMP JUMPDEST SWAP1 POP SWAP2 SWAP1 POP JUMP JUMPDEST PUSH0 PUSH2 0xBFD DUP3 PUSH2 0xBE2 JUMP JUMPDEST SWAP1 POP SWAP2 SWAP1 POP JUMP JUMPDEST PUSH2 0xC15 PUSH2 0xC10 DUP3 PUSH2 0xBC5 JUMP JUMPDEST PUSH2 0xBF3 JUMP JUMPDEST DUP3 MSTORE POP POP JUMP JUMPDEST PUSH0 PUSH2 0xC26 DUP3 DUP7 PUSH2 0x7E1 JUMP JUMPDEST SWAP2 POP PUSH2 0xC32 DUP3 DUP6 PUSH2 0xB8F JUMP JUMPDEST PUSH1 0x20 DUP3 ADD SWAP2 POP PUSH2 0xC42 DUP3 DUP5 PUSH2 0xC04 JUMP JUMPDEST PUSH1 0x14 DUP3 ADD SWAP2 POP DUP2 SWAP1 POP SWAP5 SWAP4 POP POP POP POP JUMP JUMPDEST PUSH32 0x4E487B7100000000000000000000000000000000000000000000000000000000 PUSH0 MSTORE PUSH1 0x12 PUSH1 0x4 MSTORE PUSH1 0x24 PUSH0 REVERT JUMPDEST PUSH0 PUSH2 0xC8A DUP3 PUSH2 0x6C8 JUMP JUMPDEST SWAP2 POP PUSH2 0xC95 DUP4 PUSH2 0x6C8 JUMP JUMPDEST SWAP3 POP DUP3 PUSH2 0xCA5 JUMPI PUSH2 0xCA4 PUSH2 0xC53 JUMP JUMPDEST JUMPDEST DUP3 DUP3 MOD SWAP1 POP SWAP3 SWAP2 POP POP JUMP INVALID LOG2 PUSH5 0x6970667358 0x22 SLT KECCAK256 0xE1 PUSH20 0xAB9CF7096E7893CE7A7EC79ABB6B9849EC31C913 0xFC PUSH19 0x406CA9BB5799FDCC64736F6C634300081A0033 "
				},
				"gasEstimates": {
					"creation": {
						"codeDepositCost": "660400",
						"executionCost": "694",
						"totalCost": "661094"
					},
					"external": {
						"login(string,string)": "infinite",
						"usignUp(string,string)": "infinite"
					},
					"internal": {
						"generateid(string memory)": "infinite"
					}
				},
				"methodIdentifiers": {
					"login(string,string)": "58467dbc",
					"usignUp(string,string)": "30d15983"
				}
			},
			"storageLayout": {
				"storage": [
					{
						"astId": 12,
						"contract": "pass.sol:pass",
						"label": "registered",
						"offset": 0,
						"slot": "0",
						"type": "t_mapping(t_string_memory_ptr,t_bool)"
					},
					{
						"astId": 17,
						"contract": "pass.sol:pass",
						"label": "users",
						"offset": 0,
						"slot": "1",
						"type": "t_mapping(t_string_memory_ptr,t_struct(user)8_storage)"
					}
				],
				"types": {
					"t_bool": {
						"encoding": "inplace",
						"label": "bool",
						"numberOfBytes": "1"
					},
					"t_bytes32": {
						"encoding": "inplace",
						"label": "bytes32",
						"numberOfBytes": "32"
					},
					"t_mapping(t_string_memory_ptr,t_bool)": {
						"encoding": "mapping",
						"key": "t_string_memory_ptr",
						"label": "mapping(string => bool)",
						"numberOfBytes": "32",
						"value": "t_bool"
					},
					"t_mapping(t_string_memory_ptr,t_struct(user)8_storage)": {
						"encoding": "mapping",
						"key": "t_string_memory_ptr",
						"label": "mapping(string => struct pass.user)",
						"numberOfBytes": "32",
						"value": "t_struct(user)8_storage"
					},
					"t_string_memory_ptr": {
						"encoding": "bytes",
						"label": "string",
						"numberOfBytes": "32"
					},
					"t_string_storage": {
						"encoding": "bytes",
						"label": "string",
						"numberOfBytes": "32"
					},
					"t_struct(user)8_storage": {
						"encoding": "inplace",
						"label": "struct pass.user",
						"members": [
							{
								"astId": 3,
								"contract": "pass.sol:pass",
								"label": "id",
								"offset": 0,
								"slot": "0",
								"type": "t_uint256"
							},
							{
								"astId": 5,
								"contract": "pass.sol:pass",
								"label": "email",
								"offset": 0,
								"slot": "1",
								"type": "t_string_storage"
							},
							{
								"astId": 7,
								"contract": "pass.sol:pass",
								"label": "passwordhash",
								"offset": 0,
								"slot": "2",
								"type": "t_bytes32"
							}
						],
						"numberOfBytes": "96"
					},
					"t_uint256": {
						"encoding": "inplace",
						"label": "uint256",
						"numberOfBytes": "32"
					}
				}
			},
			"userdoc": {
				"kind": "user",
				"methods": {},
				"version": 1
			}
		}
	}
}