{
	"hsh.sol": {
		"hsh": {
			"abi": [
				{
					"inputs": [
						{
							"internalType": "bytes32",
							"name": "_nationalIDhash",
							"type": "bytes32"
						},
						{
							"internalType": "bytes32",
							"name": "_insuranceIDhash",
							"type": "bytes32"
						},
						{
							"internalType": "bytes32",
							"name": "_nameHash",
							"type": "bytes32"
						},
						{
							"internalType": "bytes32",
							"name": "_dobHash",
							"type": "bytes32"
						},
						{
							"internalType": "bytes32",
							"name": "_genderHash",
							"type": "bytes32"
						},
						{
							"internalType": "bytes32",
							"name": "_bloodTypeHash",
							"type": "bytes32"
						},
						{
							"internalType": "bytes32",
							"name": "_phoneHash",
							"type": "bytes32"
						},
						{
							"internalType": "bytes32",
							"name": "_addressHash",
							"type": "bytes32"
						},
						{
							"internalType": "bytes32[]",
							"name": "_allergiesHash",
							"type": "bytes32[]"
						},
						{
							"internalType": "bytes32[]",
							"name": "_medicalHistoryHash",
							"type": "bytes32[]"
						},
						{
							"internalType": "bytes32[]",
							"name": "_medicationsHash",
							"type": "bytes32[]"
						},
						{
							"internalType": "bytes32",
							"name": "_emergencyContactHash",
							"type": "bytes32"
						},
						{
							"internalType": "bytes32[]",
							"name": "_organDonorStatus",
							"type": "bytes32[]"
						},
						{
							"internalType": "bytes32[]",
							"name": "_vaccinationRecordsHash",
							"type": "bytes32[]"
						},
						{
							"internalType": "uint256",
							"name": "_lastcheckupTimestamp",
							"type": "uint256"
						},
						{
							"internalType": "bytes32",
							"name": "_doctorNotesHash",
							"type": "bytes32"
						},
						{
							"internalType": "bytes32[]",
							"name": "_wearableDeviceDataHash",
							"type": "bytes32[]"
						},
						{
							"internalType": "bytes32",
							"name": "_fitnessLevelHash",
							"type": "bytes32"
						},
						{
							"internalType": "bytes32",
							"name": "_dietPlanHash",
							"type": "bytes32"
						}
					],
					"name": "addPatientRecord",
					"outputs": [],
					"stateMutability": "nonpayable",
					"type": "function"
				},
				{
					"inputs": [
						{
							"internalType": "uint256",
							"name": "_patientId",
							"type": "uint256"
						},
						{
							"internalType": "string",
							"name": "_pin",
							"type": "string"
						}
					],
					"name": "emergencyAccess",
					"outputs": [
						{
							"internalType": "bytes32",
							"name": "nationalIDhash",
							"type": "bytes32"
						},
						{
							"internalType": "bytes32",
							"name": "insuranceIDhash",
							"type": "bytes32"
						},
						{
							"internalType": "bytes32",
							"name": "nameHash",
							"type": "bytes32"
						},
						{
							"internalType": "bytes32",
							"name": "dobHash",
							"type": "bytes32"
						},
						{
							"internalType": "bytes32",
							"name": "genderHash",
							"type": "bytes32"
						},
						{
							"internalType": "bytes32",
							"name": "bloodTypeHash",
							"type": "bytes32"
						},
						{
							"internalType": "bytes32",
							"name": "phoneHash",
							"type": "bytes32"
						},
						{
							"internalType": "bytes32",
							"name": "addressHash",
							"type": "bytes32"
						},
						{
							"internalType": "bytes32[]",
							"name": "allergiesHash",
							"type": "bytes32[]"
						},
						{
							"internalType": "bytes32[]",
							"name": "medicalHistoryHash",
							"type": "bytes32[]"
						},
						{
							"internalType": "bytes32[]",
							"name": "medicationsHash",
							"type": "bytes32[]"
						},
						{
							"internalType": "bytes32",
							"name": "emergencyContactHash",
							"type": "bytes32"
						},
						{
							"internalType": "bytes32[]",
							"name": "organDonorStatus",
							"type": "bytes32[]"
						},
						{
							"internalType": "bytes32[]",
							"name": "vaccinationRecordsHash",
							"type": "bytes32[]"
						},
						{
							"internalType": "uint256",
							"name": "lastcheckupTimestamp",
							"type": "uint256"
						},
						{
							"internalType": "bytes32",
							"name": "doctorNotesHash",
							"type": "bytes32"
						},
						{
							"internalType": "bytes32[]",
							"name": "wearableDeviceDataHash",
							"type": "bytes32[]"
						},
						{
							"internalType": "bytes32",
							"name": "fitnessLevelHash",
							"type": "bytes32"
						},
						{
							"internalType": "bytes32",
							"name": "dietPlanHash",
							"type": "bytes32"
						}
					],
					"stateMutability": "view",
					"type": "function"
				},
				{
					"inputs": [
						{
							"internalType": "uint256",
							"name": "_patientId",
							"type": "uint256"
						}
					],
					"name": "getNormalRecords",
					"outputs": [
						{
							"internalType": "bytes32",
							"name": "nameHash",
							"type": "bytes32"
						},
						{
							"internalType": "bytes32",
							"name": "dobHash",
							"type": "bytes32"
						},
						{
							"internalType": "bytes32",
							"name": "genderHash",
							"type": "bytes32"
						},
						{
							"internalType": "bytes32",
							"name": "phoneHash",
							"type": "bytes32"
						},
						{
							"internalType": "bytes32",
							"name": "addressHash",
							"type": "bytes32"
						},
						{
							"internalType": "bytes32",
							"name": "emergencyContactHash",
							"type": "bytes32"
						},
						{
							"internalType": "uint256",
							"name": "lastcheckupTimestamp",
							"type": "uint256"
						}
					],
					"stateMutability": "view",
					"type": "function"
				},
				{
					"inputs": [
						{
							"internalType": "uint256",
							"name": "_patientId",
							"type": "uint256"
						},
						{
							"internalType": "address",
							"name": "_provider",
							"type": "address"
						}
					],
					"name": "grantAccess",
					"outputs": [],
					"stateMutability": "nonpayable",
					"type": "function"
				},
				{
					"inputs": [],
					"name": "nextPatientId",
					"outputs": [
						{
							"internalType": "uint256",
							"name": "",
							"type": "uint256"
						}
					],
					"stateMutability": "view",
					"type": "function"
				},
				{
					"inputs": [
						{
							"internalType": "uint256",
							"name": "",
							"type": "uint256"
						}
					],
					"name": "patientRecords",
					"outputs": [
						{
							"internalType": "uint256",
							"name": "patientId",
							"type": "uint256"
						},
						{
							"internalType": "address",
							"name": "owner",
							"type": "address"
						},
						{
							"internalType": "bytes32",
							"name": "nationalIDhash",
							"type": "bytes32"
						},
						{
							"internalType": "bytes32",
							"name": "insuranceIDhash",
							"type": "bytes32"
						},
						{
							"internalType": "bytes32",
							"name": "nameHash",
							"type": "bytes32"
						},
						{
							"internalType": "bytes32",
							"name": "dobHash",
							"type": "bytes32"
						},
						{
							"internalType": "bytes32",
							"name": "genderHash",
							"type": "bytes32"
						},
						{
							"internalType": "bytes32",
							"name": "bloodTypeHash",
							"type": "bytes32"
						},
						{
							"internalType": "bytes32",
							"name": "phoneHash",
							"type": "bytes32"
						},
						{
							"internalType": "bytes32",
							"name": "addressHash",
							"type": "bytes32"
						},
						{
							"internalType": "bytes32",
							"name": "emergencyContactHash",
							"type": "bytes32"
						},
						{
							"internalType": "uint256",
							"name": "lastcheckupTimestamp",
							"type": "uint256"
						},
						{
							"internalType": "bytes32",
							"name": "doctorNotesHash",
							"type": "bytes32"
						},
						{
							"internalType": "bytes32",
							"name": "fitnessLevelHash",
							"type": "bytes32"
						},
						{
							"internalType": "bytes32",
							"name": "dietPlanHash",
							"type": "bytes32"
						},
						{
							"internalType": "uint256",
							"name": "accessLevel",
							"type": "uint256"
						},
						{
							"internalType": "uint256",
							"name": "timestamp",
							"type": "uint256"
						}
					],
					"stateMutability": "view",
					"type": "function"
				},
				{
					"inputs": [
						{
							"internalType": "uint256",
							"name": "_patientId",
							"type": "uint256"
						},
						{
							"internalType": "address",
							"name": "_provider",
							"type": "address"
						}
					],
					"name": "revokeAccess",
					"outputs": [],
					"stateMutability": "nonpayable",
					"type": "function"
				},
				{
					"inputs": [
						{
							"internalType": "uint256",
							"name": "_patientId",
							"type": "uint256"
						},
						{
							"internalType": "string",
							"name": "_pin",
							"type": "string"
						}
					],
					"name": "setEmergencyPin",
					"outputs": [],
					"stateMutability": "nonpayable",
					"type": "function"
				},
				{
					"inputs": [
						{
							"internalType": "uint256",
							"name": "_patientId",
							"type": "uint256"
						},
						{
							"internalType": "bytes32",
							"name": "_nationalIDhash",
							"type": "bytes32"
						},
						{
							"internalType": "bytes32",
							"name": "_insuranceIDhash",
							"type": "bytes32"
						},
						{
							"internalType": "bytes32",
							"name": "_nameHash",
							"type": "bytes32"
						},
						{
							"internalType": "bytes32",
							"name": "_dobHash",
							"type": "bytes32"
						},
						{
							"internalType": "bytes32",
							"name": "_genderHash",
							"type": "bytes32"
						},
						{
							"internalType": "bytes32",
							"name": "_bloodTypeHash",
							"type": "bytes32"
						},
						{
							"internalType": "bytes32",
							"name": "_phoneHash",
							"type": "bytes32"
						},
						{
							"internalType": "bytes32",
							"name": "_addressHash",
							"type": "bytes32"
						},
						{
							"internalType": "bytes32[]",
							"name": "_allergiesHash",
							"type": "bytes32[]"
						},
						{
							"internalType": "bytes32[]",
							"name": "_medicalHistoryHash",
							"type": "bytes32[]"
						},
						{
							"internalType": "bytes32[]",
							"name": "_medicationsHash",
							"type": "bytes32[]"
						},
						{
							"internalType": "bytes32",
							"name": "_emergencyContactHash",
							"type": "bytes32"
						},
						{
							"internalType": "bytes32[]",
							"name": "_organDonorStatus",
							"type": "bytes32[]"
						},
						{
							"internalType": "bytes32[]",
							"name": "_vaccinationRecordsHash",
							"type": "bytes32[]"
						},
						{
							"internalType": "uint256",
							"name": "_lastcheckupTimestamp",
							"type": "uint256"
						},
						{
							"internalType": "bytes32",
							"name": "_doctorNotesHash",
							"type": "bytes32"
						},
						{
							"internalType": "bytes32[]",
							"name": "_wearableDeviceDataHash",
							"type": "bytes32[]"
						},
						{
							"internalType": "bytes32",
							"name": "_fitnessLevelHash",
							"type": "bytes32"
						},
						{
							"internalType": "bytes32",
							"name": "_dietPlanHash",
							"type": "bytes32"
						}
					],
					"name": "updatePatientRecord",
					"outputs": [],
					"stateMutability": "nonpayable",
					"type": "function"
				},
				{
					"inputs": [
						{
							"internalType": "uint256",
							"name": "_patientId",
							"type": "uint256"
						},
						{
							"internalType": "bytes32",
							"name": "_proof",
							"type": "bytes32"
						}
					],
					"name": "verifyAllergy",
					"outputs": [
						{
							"internalType": "bool",
							"name": "",
							"type": "bool"
						}
					],
					"stateMutability": "view",
					"type": "function"
				},
				{
					"inputs": [
						{
							"internalType": "uint256",
							"name": "_patientId",
							"type": "uint256"
						},
						{
							"internalType": "bytes32",
							"name": "_proof",
							"type": "bytes32"
						}
					],
					"name": "verifyBloodType",
					"outputs": [
						{
							"internalType": "bool",
							"name": "",
							"type": "bool"
						}
					],
					"stateMutability": "view",
					"type": "function"
				},
				{
					"inputs": [
						{
							"internalType": "uint256",
							"name": "_patientId",
							"type": "uint256"
						},
						{
							"internalType": "bytes32",
							"name": "_proof",
							"type": "bytes32"
						}
					],
					"name": "verifyMedicalHistory",
					"outputs": [
						{
							"internalType": "bool",
							"name": "",
							"type": "bool"
						}
					],
					"stateMutability": "view",
					"type": "function"
				},
				{
					"inputs": [
						{
							"internalType": "uint256",
							"name": "_patientId",
							"type": "uint256"
						},
						{
							"internalType": "bytes32",
							"name": "_proof",
							"type": "bytes32"
						}
					],
					"name": "verifyMedications",
					"outputs": [
						{
							"internalType": "bool",
							"name": "",
							"type": "bool"
						}
					],
					"stateMutability": "view",
					"type": "function"
				},
				{
					"inputs": [
						{
							"internalType": "uint256",
							"name": "_patientId",
							"type": "uint256"
						},
						{
							"internalType": "bytes32",
							"name": "_proof",
							"type": "bytes32"
						}
					],
					"name": "verifydietPlanHash",
					"outputs": [
						{
							"internalType": "bool",
							"name": "",
							"type": "bool"
						}
					],
					"stateMutability": "view",
					"type": "function"
				},
				{
					"inputs": [
						{
							"internalType": "uint256",
							"name": "_patientId",
							"type": "uint256"
						},
						{
							"internalType": "bytes32",
							"name": "_proof",
							"type": "bytes32"
						}
					],
					"name": "verifydoctorNotesHash",
					"outputs": [
						{
							"internalType": "bool",
							"name": "",
							"type": "bool"
						}
					],
					"stateMutability": "view",
					"type": "function"
				},
				{
					"inputs": [
						{
							"internalType": "uint256",
							"name": "_patientId",
							"type": "uint256"
						},
						{
							"internalType": "bytes32",
							"name": "_proof",
							"type": "bytes32"
						}
					],
					"name": "verifyfitnessLevelHash",
					"outputs": [
						{
							"internalType": "bool",
							"name": "",
							"type": "bool"
						}
					],
					"stateMutability": "view",
					"type": "function"
				},
				{
					"inputs": [
						{
							"internalType": "uint256",
							"name": "_patientId",
							"type": "uint256"
						},
						{
							"internalType": "bytes32",
							"name": "_proof",
							"type": "bytes32"
						}
					],
					"name": "verifyinsuranceIDhash",
					"outputs": [
						{
							"internalType": "bool",
							"name": "",
							"type": "bool"
						}
					],
					"stateMutability": "view",
					"type": "function"
				},
				{
					"inputs": [
						{
							"internalType": "uint256",
							"name": "_patientId",
							"type": "uint256"
						},
						{
							"internalType": "bytes32",
							"name": "_proof",
							"type": "bytes32"
						}
					],
					"name": "verifynationalID",
					"outputs": [
						{
							"internalType": "bool",
							"name": "",
							"type": "bool"
						}
					],
					"stateMutability": "view",
					"type": "function"
				},
				{
					"inputs": [
						{
							"internalType": "uint256",
							"name": "_patientId",
							"type": "uint256"
						},
						{
							"internalType": "bytes32",
							"name": "_proof",
							"type": "bytes32"
						}
					],
					"name": "verifyorganDonorStatus",
					"outputs": [
						{
							"internalType": "bool",
							"name": "",
							"type": "bool"
						}
					],
					"stateMutability": "view",
					"type": "function"
				},
				{
					"inputs": [
						{
							"internalType": "uint256",
							"name": "_patientId",
							"type": "uint256"
						},
						{
							"internalType": "bytes32",
							"name": "_proof",
							"type": "bytes32"
						}
					],
					"name": "verifyvaccinationRecordsHash",
					"outputs": [
						{
							"internalType": "bool",
							"name": "",
							"type": "bool"
						}
					],
					"stateMutability": "view",
					"type": "function"
				},
				{
					"inputs": [
						{
							"internalType": "uint256",
							"name": "_patientId",
							"type": "uint256"
						},
						{
							"internalType": "bytes32",
							"name": "_proof",
							"type": "bytes32"
						}
					],
					"name": "verifywearableDeviceDataHash",
					"outputs": [
						{
							"internalType": "bool",
							"name": "",
							"type": "bool"
						}
					],
					"stateMutability": "view",
					"type": "function"
				}
			],
			"devdoc": {
				"kind": "dev",
				"methods": {},
				"version": 1
			},
			"evm": {
				"assembly": "    /* \"hsh.sol\":61:16088  contract hsh {... */\n  0x80\n  dup1\n  0x40\n  mstore\n  jumpi(tag_1, callvalue)\n  dataSize(sub_0)\n  swap1\n  dup2\n  dataOffset(sub_0)\n  dup3\n  codecopy\n  return\ntag_1:\n  0x00\n  dup1\n  revert\nstop\n\nsub_0: assembly {\n        /* \"hsh.sol\":61:16088  contract hsh {... */\n      mstore(0x40, 0x01a0)\n      jumpi(tag_19, iszero(lt(calldatasize, 0x04)))\n      0x00\n      dup1\n      revert\n    tag_19:\n      shr(0xe0, calldataload(0x00))\n      dup1\n      0x1f36bc11\n      eq\n      tag_21\n      jumpi\n      dup1\n      0x3c2bc6a1\n      eq\n      tag_23\n      jumpi\n      dup1\n      0x403ae760\n      eq\n      tag_25\n      jumpi\n      dup1\n      0x47003829\n      eq\n      tag_27\n      jumpi\n      dup1\n      0x541ccefe\n      eq\n      tag_29\n      jumpi\n      dup1\n      0x65dd152c\n      eq\n      tag_31\n      jumpi\n      dup1\n      0x7d6b63da\n      eq\n      tag_33\n      jumpi\n      dup1\n      0x7f153a38\n      eq\n      tag_35\n      jumpi\n      dup1\n      0x99473b68\n      eq\n      tag_37\n      jumpi\n      dup1\n      0xb072215e\n      eq\n      tag_39\n      jumpi\n      dup1\n      0xb1131795\n      eq\n      tag_41\n      jumpi\n      dup1\n      0xb1ddd00e\n      eq\n      tag_43\n      jumpi\n      dup1\n      0xb38deff0\n      eq\n      tag_45\n      jumpi\n      dup1\n      0xbb17c815\n      eq\n      tag_47\n      jumpi\n      dup1\n      0xc556b6a8\n      eq\n      tag_49\n      jumpi\n      dup1\n      0xc73b6156\n      eq\n      tag_51\n      jumpi\n      dup1\n      0xd267124d\n      eq\n      tag_53\n      jumpi\n      dup1\n      0xd3d188a1\n      eq\n      tag_55\n      jumpi\n      dup1\n      0xd9a5ec1b\n      eq\n      tag_57\n      jumpi\n      dup1\n      0xf23b525a\n      eq\n      tag_59\n      jumpi\n      0xffe77a9c\n      eq\n      tag_61\n      jumpi\n      0x00\n      dup1\n      revert\n    tag_61:\n      jumpi(tag_63, callvalue)\n      0x20\n      tag_65\n      tag_66\n      calldatasize\n      tag_1\n      jump\t// in\n    tag_66:\n      swap1\n      tag_17\n      jump\t// in\n    tag_65:\n      mload(0x40)\n      swap1\n      iszero\n      iszero\n      dup2\n      mstore\n      return\n    tag_63:\n      0x00\n      dup1\n      revert\n    tag_59:\n      jumpi(tag_63, callvalue)\n      jumpi(tag_63, slt(add(not(0x03), calldatasize), 0x0280))\n      calldataload(0x04)\n      calldataload(0x0124)\n      sub(shl(0x40, 0x01), 0x01)\n      dup2\n      gt\n      tag_63\n      jumpi\n      tag_73\n      swap1\n      calldatasize\n      swap1\n      0x04\n      add\n      tag_6\n      jump\t// in\n    tag_73:\n      swap1\n      calldataload(0x0144)\n      sub(shl(0x40, 0x01), 0x01)\n      dup2\n      gt\n      tag_63\n      jumpi\n      tag_76\n      swap1\n      calldatasize\n      swap1\n      0x04\n      add\n      tag_6\n      jump\t// in\n    tag_76:\n      calldataload(0x0164)\n      sub(shl(0x40, 0x01), 0x01)\n      dup2\n      gt\n      tag_63\n      jumpi\n      tag_79\n      swap1\n      calldatasize\n      swap1\n      0x04\n      add\n      tag_6\n      jump\t// in\n    tag_79:\n      calldataload(0x01a4)\n      sub(shl(0x40, 0x01), 0x01)\n      dup2\n      gt\n      tag_63\n      jumpi\n      tag_82\n      swap1\n      calldatasize\n      swap1\n      0x04\n      add\n      tag_6\n      jump\t// in\n    tag_82:\n      swap1\n      calldataload(0x01c4)\n      sub(shl(0x40, 0x01), 0x01)\n      dup2\n      gt\n      tag_63\n      jumpi\n      tag_85\n      swap1\n      calldatasize\n      swap1\n      0x04\n      add\n      tag_6\n      jump\t// in\n    tag_85:\n      swap3\n      calldataload(0x0224)\n      sub(shl(0x40, 0x01), 0x01)\n      dup2\n      gt\n      tag_63\n      jumpi\n      tag_88\n      swap1\n      calldatasize\n      swap1\n      0x04\n      add\n      tag_6\n      jump\t// in\n    tag_88:\n      swap5\n      dup1\n      0x00\n      mstore\n      mstore(0x20, 0x00)\n      0x01\n      dup1\n      0xa0\n      shl\n      sub\n      0x01\n      keccak256(0x00, 0x40)\n        /* \"hsh.sol\":1096:1128  patientRecords[_patientId].owner */\n      add\n        /* \"hsh.sol\":61:16088  contract hsh {... */\n      sload\n      and\n        /* \"hsh.sol\":1082:1092  msg.sender */\n      caller\n        /* \"hsh.sol\":1082:1128  msg.sender == patientRecords[_patientId].owner */\n      sub\n        /* \"hsh.sol\":61:16088  contract hsh {... */\n      tag_89\n      jumpi\n        /* \"hsh.sol\":3634:3703  require(_patientId < nextPatientId, \"Patient record does not exist.\") */\n      tag_91\n        /* \"hsh.sol\":61:16088  contract hsh {... */\n      sload(0x01)\n        /* \"hsh.sol\":3642:3668  _patientId < nextPatientId */\n      dup3\n      lt\n        /* \"hsh.sol\":3634:3703  require(_patientId < nextPatientId, \"Patient record does not exist.\") */\n      tag_7\n      jump\t// in\n    tag_91:\n        /* \"hsh.sol\":61:16088  contract hsh {... */\n      0x00\n      mstore\n      mstore(0x20, 0x00)\n      keccak256(0x00, 0x40)\n      swap6\n      calldataload(0x24)\n        /* \"hsh.sol\":3794:3815  record.nationalIDhash */\n      0x02\n      dup9\n      add\n        /* \"hsh.sol\":61:16088  contract hsh {... */\n      sstore\n      calldataload(0x44)\n        /* \"hsh.sol\":3844:3866  record.insuranceIDhash */\n      0x03\n      dup9\n      add\n        /* \"hsh.sol\":61:16088  contract hsh {... */\n      sstore\n      calldataload(0x64)\n      0x04\n        /* \"hsh.sol\":3896:3911  record.nameHash */\n      dup9\n      add\n        /* \"hsh.sol\":61:16088  contract hsh {... */\n      sstore\n      calldataload(0x84)\n        /* \"hsh.sol\":3934:3948  record.dobHash */\n      0x05\n      dup9\n      add\n        /* \"hsh.sol\":61:16088  contract hsh {... */\n      sstore\n      calldataload(0xa4)\n        /* \"hsh.sol\":3970:3987  record.genderHash */\n      0x06\n      dup9\n      add\n        /* \"hsh.sol\":61:16088  contract hsh {... */\n      sstore\n      calldataload(0xc4)\n        /* \"hsh.sol\":4012:4032  record.bloodTypeHash */\n      0x07\n      dup9\n      add\n        /* \"hsh.sol\":61:16088  contract hsh {... */\n      sstore\n      calldataload(0xe4)\n        /* \"hsh.sol\":4060:4076  record.phoneHash */\n      0x08\n      dup9\n      add\n        /* \"hsh.sol\":61:16088  contract hsh {... */\n      sstore\n      calldataload(0x0104)\n        /* \"hsh.sol\":4100:4118  record.addressHash */\n      0x09\n      dup9\n      add\n        /* \"hsh.sol\":61:16088  contract hsh {... */\n      sstore\n        /* \"hsh.sol\":4144:4164  record.allergiesHash */\n      0x0a\n      dup8\n      add\n        /* \"hsh.sol\":61:16088  contract hsh {... */\n      dup2\n      mload\n      swap2\n      sub(shl(0x40, 0x01), 0x01)\n      dup4\n      gt\n      tag_139\n      jumpi\n      shl(0x40, 0x01)\n      dup4\n      gt\n      tag_139\n      jumpi\n      dup2\n      sload\n      dup4\n      dup4\n      sstore\n      dup1\n      dup5\n      lt\n      tag_96\n      jumpi\n    tag_97:\n      pop\n      0x20\n      add\n      swap1\n      0x00\n      mstore\n      keccak256(0x00, 0x20)\n      0x00\n    tag_98:\n      dup4\n      dup2\n      lt\n      tag_99\n      jumpi\n        /* \"hsh.sol\":4192:4217  record.medicalHistoryHash */\n      pop\n      pop\n      pop\n      pop\n      0x0b\n      dup7\n      add\n        /* \"hsh.sol\":61:16088  contract hsh {... */\n      dup2\n      mload\n      swap2\n      sub(shl(0x40, 0x01), 0x01)\n      dup4\n      gt\n      tag_139\n      jumpi\n      shl(0x40, 0x01)\n      dup4\n      gt\n      tag_139\n      jumpi\n      dup2\n      sload\n      dup4\n      dup4\n      sstore\n      dup1\n      dup5\n      lt\n      tag_105\n      jumpi\n    tag_106:\n      pop\n      0x20\n      add\n      swap1\n      0x00\n      mstore\n      keccak256(0x00, 0x20)\n      0x00\n    tag_107:\n      dup4\n      dup2\n      lt\n      tag_108\n      jumpi\n        /* \"hsh.sol\":4250:4272  record.medicationsHash */\n      pop\n      pop\n      pop\n      pop\n      0x0c\n      dup6\n      add\n        /* \"hsh.sol\":61:16088  contract hsh {... */\n      dup2\n      mload\n      swap2\n      sub(shl(0x40, 0x01), 0x01)\n      dup4\n      gt\n      tag_139\n      jumpi\n      shl(0x40, 0x01)\n      dup4\n      gt\n      tag_139\n      jumpi\n      dup2\n      sload\n      dup4\n      dup4\n      sstore\n      dup1\n      dup5\n      lt\n      tag_114\n      jumpi\n    tag_115:\n      pop\n      0x20\n      add\n      swap1\n      0x00\n      mstore\n      keccak256(0x00, 0x20)\n      0x00\n    tag_116:\n      dup4\n      dup2\n      lt\n      tag_117\n      jumpi\n      pop\n      pop\n      pop\n      pop\n      calldataload(0x0184)\n        /* \"hsh.sol\":4302:4329  record.emergencyContactHash */\n      0x0d\n      dup6\n      add\n        /* \"hsh.sol\":61:16088  contract hsh {... */\n      sstore\n        /* \"hsh.sol\":4364:4387  record.organDonorStatus */\n      0x0e\n      dup5\n      add\n        /* \"hsh.sol\":61:16088  contract hsh {... */\n      dup2\n      mload\n      swap2\n      sub(shl(0x40, 0x01), 0x01)\n      dup4\n      gt\n      tag_139\n      jumpi\n      shl(0x40, 0x01)\n      dup4\n      gt\n      tag_139\n      jumpi\n      dup2\n      sload\n      dup4\n      dup4\n      sstore\n      dup1\n      dup5\n      lt\n      tag_123\n      jumpi\n    tag_124:\n      pop\n      0x20\n      add\n      swap1\n      0x00\n      mstore\n      keccak256(0x00, 0x20)\n      0x00\n    tag_125:\n      dup4\n      dup2\n      lt\n      tag_126\n      jumpi\n        /* \"hsh.sol\":4418:4447  record.vaccinationRecordsHash */\n      pop\n      pop\n      pop\n      pop\n      0x0f\n      dup4\n      add\n        /* \"hsh.sol\":61:16088  contract hsh {... */\n      dup2\n      mload\n      swap2\n      sub(shl(0x40, 0x01), 0x01)\n      dup4\n      gt\n      tag_139\n      jumpi\n      shl(0x40, 0x01)\n      dup4\n      gt\n      tag_139\n      jumpi\n      dup2\n      sload\n      dup4\n      dup4\n      sstore\n      dup1\n      dup5\n      lt\n      tag_132\n      jumpi\n    tag_133:\n      pop\n      0x20\n      add\n      swap1\n      0x00\n      mstore\n      keccak256(0x00, 0x20)\n      0x00\n    tag_134:\n      dup4\n      dup2\n      lt\n      tag_135\n      jumpi\n      dup6\n      dup6\n      calldataload(0x01e4)\n        /* \"hsh.sol\":4484:4511  record.lastcheckupTimestamp */\n      0x10\n      dup4\n      add\n        /* \"hsh.sol\":61:16088  contract hsh {... */\n      sstore\n      calldataload(0x0204)\n        /* \"hsh.sol\":4546:4568  record.doctorNotesHash */\n      0x11\n      dup4\n      add\n        /* \"hsh.sol\":61:16088  contract hsh {... */\n      sstore\n        /* \"hsh.sol\":4598:4627  record.wearableDeviceDataHash */\n      0x12\n      dup3\n      add\n        /* \"hsh.sol\":61:16088  contract hsh {... */\n      dup2\n      mload\n      swap2\n      sub(shl(0x40, 0x01), 0x01)\n      dup4\n      gt\n      tag_139\n      jumpi\n      shl(0x40, 0x01)\n      dup4\n      gt\n      tag_139\n      jumpi\n      dup2\n      sload\n      dup4\n      dup4\n      sstore\n      dup1\n      dup5\n      lt\n      tag_141\n      jumpi\n    tag_142:\n      pop\n      0x20\n      add\n      swap1\n      0x00\n      mstore\n      keccak256(0x00, 0x20)\n      0x00\n    tag_143:\n      dup4\n      dup2\n      lt\n      tag_144\n      jumpi\n      calldataload(0x0244)\n        /* \"hsh.sol\":4664:4687  record.fitnessLevelHash */\n      0x13\n      dup7\n      add\n        /* \"hsh.sol\":61:16088  contract hsh {... */\n      sstore\n      calldataload(0x0264)\n        /* \"hsh.sol\":4718:4737  record.dietPlanHash */\n      0x14\n      dup7\n      add\n        /* \"hsh.sol\":61:16088  contract hsh {... */\n      sstore\n        /* \"hsh.sol\":4783:4798  block.timestamp */\n      timestamp\n        /* \"hsh.sol\":4764:4780  record.timestamp */\n      0x17\n      dup7\n      add\n        /* \"hsh.sol\":61:16088  contract hsh {... */\n      sstore\n      stop\n    tag_144:\n      0x01\n      swap1\n      0x20\n      dup5\n      mload\n      swap5\n      add\n      swap4\n      dup2\n      dup5\n      add\n      sstore\n      add\n      jump(tag_143)\n    tag_141:\n      dup3\n      0x00\n      mstore\n      dup4\n      keccak256(0x00, 0x20)\n      swap2\n      dup3\n      add\n      swap2\n      add\n    tag_146:\n      dup2\n      dup2\n      lt\n      tag_147\n      jumpi\n      pop\n      jump(tag_142)\n    tag_147:\n      0x00\n      dup2\n      sstore\n      0x01\n      add\n      jump(tag_146)\n    tag_139:\n      mstore(0x00, shl(0xe0, 0x4e487b71))\n      mstore(0x04, 0x41)\n      revert(0x00, 0x24)\n    tag_135:\n      0x01\n      swap1\n      0x20\n      dup5\n      mload\n      swap5\n      add\n      swap4\n      dup2\n      dup5\n      add\n      sstore\n      add\n      jump(tag_134)\n    tag_132:\n      dup3\n      0x00\n      mstore\n      dup4\n      keccak256(0x00, 0x20)\n      swap2\n      dup3\n      add\n      swap2\n      add\n    tag_149:\n      dup2\n      dup2\n      lt\n      tag_150\n      jumpi\n      pop\n      jump(tag_133)\n    tag_150:\n      0x00\n      dup2\n      sstore\n      0x01\n      add\n      jump(tag_149)\n    tag_126:\n      0x01\n      swap1\n      0x20\n      dup5\n      mload\n      swap5\n      add\n      swap4\n      dup2\n      dup5\n      add\n      sstore\n      add\n      jump(tag_125)\n    tag_123:\n      dup3\n      0x00\n      mstore\n      dup4\n      keccak256(0x00, 0x20)\n      swap2\n      dup3\n      add\n      swap2\n      add\n    tag_152:\n      dup2\n      dup2\n      lt\n      tag_153\n      jumpi\n      pop\n      jump(tag_124)\n    tag_153:\n      0x00\n      dup2\n      sstore\n      0x01\n      add\n      jump(tag_152)\n    tag_117:\n      0x01\n      swap1\n      0x20\n      dup5\n      mload\n      swap5\n      add\n      swap4\n      dup2\n      dup5\n      add\n      sstore\n      add\n      jump(tag_116)\n    tag_114:\n      dup3\n      0x00\n      mstore\n      dup4\n      keccak256(0x00, 0x20)\n      swap2\n      dup3\n      add\n      swap2\n      add\n    tag_155:\n      dup2\n      dup2\n      lt\n      tag_156\n      jumpi\n      pop\n      jump(tag_115)\n    tag_156:\n      0x00\n      dup2\n      sstore\n      0x01\n      add\n      jump(tag_155)\n    tag_108:\n      0x01\n      swap1\n      0x20\n      dup5\n      mload\n      swap5\n      add\n      swap4\n      dup2\n      dup5\n      add\n      sstore\n      add\n      jump(tag_107)\n    tag_105:\n      dup3\n      0x00\n      mstore\n      dup4\n      keccak256(0x00, 0x20)\n      swap2\n      dup3\n      add\n      swap2\n      add\n    tag_158:\n      dup2\n      dup2\n      lt\n      tag_159\n      jumpi\n      pop\n      jump(tag_106)\n    tag_159:\n      0x00\n      dup2\n      sstore\n      0x01\n      add\n      jump(tag_158)\n    tag_99:\n      0x01\n      swap1\n      0x20\n      dup5\n      mload\n      swap5\n      add\n      swap4\n      dup2\n      dup5\n      add\n      sstore\n      add\n      jump(tag_98)\n    tag_96:\n      dup3\n      0x00\n      mstore\n      dup4\n      keccak256(0x00, 0x20)\n      swap2\n      dup3\n      add\n      swap2\n      add\n    tag_161:\n      dup2\n      dup2\n      lt\n      tag_162\n      jumpi\n      pop\n      jump(tag_97)\n    tag_162:\n      0x00\n      dup2\n      sstore\n      0x01\n      add\n      jump(tag_161)\n    tag_89:\n      mload(0x40)\n      shl(0xe5, 0x461bcd)\n      dup2\n      mstore\n      0x20\n      0x04\n      dup3\n      add\n      mstore\n      0x27\n      0x24\n      dup3\n      add\n      mstore\n      0x4f6e6c79207468652070617469656e742063616e207570646174652074686520\n      0x44\n      dup3\n      add\n      mstore\n      shl(0xc9, 0x3932b1b7b93217)\n      0x64\n      dup3\n      add\n      mstore\n      0x84\n      swap1\n      revert\n    tag_57:\n      jumpi(tag_63, callvalue)\n      tag_166\n      calldatasize\n      tag_5\n      jump\t// in\n    tag_166:\n      swap1\n        /* \"hsh.sol\":15567:15636  require(_patientId < nextPatientId, \"Patient record does not exist.\") */\n      tag_167\n        /* \"hsh.sol\":15588:15601  nextPatientId */\n      0x01\n        /* \"hsh.sol\":61:16088  contract hsh {... */\n      sload\n        /* \"hsh.sol\":15575:15601  _patientId < nextPatientId */\n      dup3\n      lt\n        /* \"hsh.sol\":15567:15636  require(_patientId < nextPatientId, \"Patient record does not exist.\") */\n      tag_7\n      jump\t// in\n    tag_167:\n        /* \"hsh.sol\":61:16088  contract hsh {... */\n      0x00\n      swap1\n      dup2\n      mstore\n      0x20\n      dup2\n      swap1\n      mstore\n      0x40\n      dup2\n      keccak256\n        /* \"hsh.sol\":15751:15777  record.authorizedProviders */\n      0x16\n      add\n      swap2\n      sub(shl(0xa0, 0x01), 0x01)\n        /* \"hsh.sol\":61:16088  contract hsh {... */\n      and\n      swap1\n        /* \"hsh.sol\":15786:15789  i++ */\n    tag_168:\n        /* \"hsh.sol\":61:16088  contract hsh {... */\n      dup3\n      sload\n        /* \"hsh.sol\":15747:15784  i < record.authorizedProviders.length */\n      dup1\n      dup3\n      lt\n      iszero\n      tag_169\n      jumpi\n        /* \"hsh.sol\":15810:15839  record.authorizedProviders[i] */\n      dup3\n      tag_171\n      dup4\n      dup7\n      tag_9\n      jump\t// in\n    tag_171:\n        /* \"hsh.sol\":61:16088  contract hsh {... */\n      swap1\n      sload\n      0x03\n      swap2\n      swap1\n      swap2\n      shl\n      shr\n      sub(shl(0xa0, 0x01), 0x01)\n      and\n        /* \"hsh.sol\":15810:15852  record.authorizedProviders[i] == _provider */\n      eq\n        /* \"hsh.sol\":15806:16061  if (record.authorizedProviders[i] == _provider) {... */\n      tag_172\n      jumpi\n        /* \"hsh.sol\":15786:15789  i++ */\n      pop\n        /* \"hsh.sol\":15588:15601  nextPatientId */\n      0x01\n        /* \"hsh.sol\":61:16088  contract hsh {... */\n      add\n        /* \"hsh.sol\":15732:15745  uint256 i = 0 */\n      jump(tag_168)\n        /* \"hsh.sol\":15806:16061  if (record.authorizedProviders[i] == _provider) {... */\n    tag_172:\n      not(0x00)\n        /* \"hsh.sol\":61:16088  contract hsh {... */\n      dup2\n      add\n      swap3\n      pop\n      dup3\n      gt\n      tag_174\n      jumpi\n        /* \"hsh.sol\":15873:15902  record.authorizedProviders[i] */\n      tag_176\n        /* \"hsh.sol\":15905:15970  record.authorizedProviders[record.authorizedProviders.length - 1] */\n      tag_177\n        /* \"hsh.sol\":15873:15970  record.authorizedProviders[i] = record.authorizedProviders[record.authorizedProviders.length - 1] */\n      tag_178\n        /* \"hsh.sol\":15905:15970  record.authorizedProviders[record.authorizedProviders.length - 1] */\n      swap4\n      dup6\n      tag_9\n      jump\t// in\n    tag_177:\n        /* \"hsh.sol\":61:16088  contract hsh {... */\n      swap1\n      sload\n      0x03\n      swap2\n      swap1\n      swap2\n      shl\n      shr\n      sub(shl(0xa0, 0x01), 0x01)\n      and\n      swap2\n        /* \"hsh.sol\":15873:15902  record.authorizedProviders[i] */\n      dup5\n      tag_9\n      jump\t// in\n    tag_176:\n        /* \"hsh.sol\":61:16088  contract hsh {... */\n      dup2\n      sload\n      sub(shl(0xa0, 0x01), 0x01)\n      swap4\n      dup5\n      and\n      0x03\n      swap3\n      swap1\n      swap3\n      shl\n      swap2\n      dup3\n      shl\n      swap4\n      swap1\n      swap2\n      shl\n      not\n      and\n      swap2\n      swap1\n      swap2\n      or\n      swap1\n      sstore\n      jump\n        /* \"hsh.sol\":15873:15970  record.authorizedProviders[i] = record.authorizedProviders[record.authorizedProviders.length - 1] */\n    tag_178:\n        /* \"hsh.sol\":61:16088  contract hsh {... */\n      dup1\n      sload\n      dup1\n      iszero\n      tag_179\n      jumpi\n      not(0x00)\n      add\n      swap1\n      tag_181\n      dup3\n      dup3\n      tag_9\n      jump\t// in\n    tag_181:\n      dup2\n      sload\n      sub(shl(0xa0, 0x01), 0x01)\n      0x03\n      swap3\n      swap1\n      swap3\n      shl\n      swap2\n      swap1\n      swap2\n      shl\n      not\n      and\n      swap1\n      sstore\n      sstore\n      stop\n    tag_179:\n      mstore(0x00, shl(0xe0, 0x4e487b71))\n      mstore(0x04, 0x31)\n      revert(0x00, 0x24)\n    tag_174:\n      mstore(0x00, shl(0xe0, 0x4e487b71))\n      mstore(0x04, 0x11)\n      revert(0x00, 0x24)\n        /* \"hsh.sol\":15747:15784  i < record.authorizedProviders.length */\n    tag_169:\n        /* \"hsh.sol\":61:16088  contract hsh {... */\n      stop\n    tag_55:\n      jumpi(tag_63, callvalue)\n      jumpi(tag_63, slt(add(not(0x03), calldatasize), 0x20))\n      mstore(0x00, calldataload(0x04))\n      mstore(0x20, 0x00)\n        /* \"hsh.sol\":923:978  mapping(uint256 => PatientRecord) public patientRecords */\n      0x17\n      0x15\n      0x14\n      0x13\n      0x11\n      0x10\n      0x0d\n      0x09\n      0x08\n      0x07\n      0x06\n      0x05\n        /* \"hsh.sol\":61:16088  contract hsh {... */\n      0x04\n        /* \"hsh.sol\":923:978  mapping(uint256 => PatientRecord) public patientRecords */\n      0x03\n      0x02\n        /* \"hsh.sol\":61:16088  contract hsh {... */\n      keccak256(0x00, 0x40)\n      swap15\n      dup16\n      swap15\n      dup16\n      swap15\n      dup16\n      swap15\n      dup16\n      swap15\n      dup16\n      swap15\n      dup16\n      swap15\n      dup16\n      swap15\n      dup16\n      swap15\n      dup16\n      swap15\n      dup16\n      swap15\n      dup16\n      swap15\n      dup16\n      swap15\n      dup16\n      swap15\n      dup16\n      swap15\n      dup16\n      sload\n      swap16\n      0x01\n      dup1\n      0xa0\n      shl\n      sub\n      0x01\n        /* \"hsh.sol\":923:978  mapping(uint256 => PatientRecord) public patientRecords */\n      dup3\n      add\n        /* \"hsh.sol\":61:16088  contract hsh {... */\n      sload\n      and\n      0xc0\n      mstore\n        /* \"hsh.sol\":923:978  mapping(uint256 => PatientRecord) public patientRecords */\n      add\n        /* \"hsh.sol\":61:16088  contract hsh {... */\n      sload\n        /* \"hsh.sol\":923:978  mapping(uint256 => PatientRecord) public patientRecords */\n      swap16\n      add\n        /* \"hsh.sol\":61:16088  contract hsh {... */\n      sload\n        /* \"hsh.sol\":923:978  mapping(uint256 => PatientRecord) public patientRecords */\n      swap16\n      add\n        /* \"hsh.sol\":61:16088  contract hsh {... */\n      sload\n        /* \"hsh.sol\":923:978  mapping(uint256 => PatientRecord) public patientRecords */\n      swap16\n      add\n        /* \"hsh.sol\":61:16088  contract hsh {... */\n      sload\n        /* \"hsh.sol\":923:978  mapping(uint256 => PatientRecord) public patientRecords */\n      swap16\n      add\n        /* \"hsh.sol\":61:16088  contract hsh {... */\n      sload\n        /* \"hsh.sol\":923:978  mapping(uint256 => PatientRecord) public patientRecords */\n      swap16\n      add\n        /* \"hsh.sol\":61:16088  contract hsh {... */\n      sload\n        /* \"hsh.sol\":923:978  mapping(uint256 => PatientRecord) public patientRecords */\n      swap16\n      add\n        /* \"hsh.sol\":61:16088  contract hsh {... */\n      sload\n        /* \"hsh.sol\":923:978  mapping(uint256 => PatientRecord) public patientRecords */\n      swap16\n      add\n        /* \"hsh.sol\":61:16088  contract hsh {... */\n      sload\n        /* \"hsh.sol\":923:978  mapping(uint256 => PatientRecord) public patientRecords */\n      swap16\n      add\n        /* \"hsh.sol\":61:16088  contract hsh {... */\n      sload\n        /* \"hsh.sol\":923:978  mapping(uint256 => PatientRecord) public patientRecords */\n      swap16\n      add\n        /* \"hsh.sol\":61:16088  contract hsh {... */\n      sload\n        /* \"hsh.sol\":923:978  mapping(uint256 => PatientRecord) public patientRecords */\n      swap16\n      add\n        /* \"hsh.sol\":61:16088  contract hsh {... */\n      sload\n        /* \"hsh.sol\":923:978  mapping(uint256 => PatientRecord) public patientRecords */\n      swap16\n      add\n        /* \"hsh.sol\":61:16088  contract hsh {... */\n      sload\n        /* \"hsh.sol\":923:978  mapping(uint256 => PatientRecord) public patientRecords */\n      swap16\n      add\n        /* \"hsh.sol\":61:16088  contract hsh {... */\n      sload\n        /* \"hsh.sol\":923:978  mapping(uint256 => PatientRecord) public patientRecords */\n      swap16\n      add\n        /* \"hsh.sol\":61:16088  contract hsh {... */\n      sload\n        /* \"hsh.sol\":923:978  mapping(uint256 => PatientRecord) public patientRecords */\n      swap16\n      add\n        /* \"hsh.sol\":61:16088  contract hsh {... */\n      sload\n      0x80\n      mstore\n      mstore(0xa0, mload(0x40))\n      mload(0xa0)\n      mstore\n      mstore(add(mload(0xa0), 0x20), mload(0xc0))\n      add(mload(0xa0), 0x40)\n      mstore\n      add(mload(0xa0), 0x60)\n      mstore\n      add(mload(0xa0), 0x80)\n      mstore\n      0xa0\n      dup1\n      mload\n      add\n      mstore\n      add(mload(0xa0), 0xc0)\n      mstore\n      add(mload(0xa0), 0xe0)\n      mstore\n      add(mload(0xa0), 0x0100)\n      mstore\n      add(mload(0xa0), 0x0120)\n      mstore\n      add(mload(0xa0), 0x0140)\n      mstore\n      add(mload(0xa0), 0x0160)\n      mstore\n      add(mload(0xa0), 0x0180)\n      mstore\n      add(mload(0xa0), 0x01a0)\n      mstore\n      add(mload(0xa0), 0x01c0)\n      mstore\n      add(mload(0xa0), 0x01e0)\n      mstore\n      mstore(add(mload(0xa0), 0x0200), mload(0x80))\n      return(mload(0xa0), 0x0220)\n    tag_53:\n      jumpi(tag_63, callvalue)\n      0x20\n      tag_189\n      calldatasize\n      tag_1\n      jump\t// in\n    tag_189:\n      swap1\n        /* \"hsh.sol\":5927:5996  require(_patientId < nextPatientId, \"Patient record does not exist.\") */\n      tag_190\n        /* \"hsh.sol\":5948:5961  nextPatientId */\n      0x01\n        /* \"hsh.sol\":61:16088  contract hsh {... */\n      sload\n        /* \"hsh.sol\":5935:5961  _patientId < nextPatientId */\n      dup3\n      lt\n        /* \"hsh.sol\":5927:5996  require(_patientId < nextPatientId, \"Patient record does not exist.\") */\n      tag_7\n      jump\t// in\n    tag_190:\n        /* \"hsh.sol\":61:16088  contract hsh {... */\n      0x00\n      mstore\n      0x00\n      dup3\n      mstore\n        /* \"hsh.sol\":6288:6310  record.insuranceIDhash */\n      0x03\n        /* \"hsh.sol\":61:16088  contract hsh {... */\n      keccak256(0x00, 0x40)\n        /* \"hsh.sol\":6123:6132  tx.origin */\n      swap2\n      origin\n        /* \"hsh.sol\":6109:6119  msg.sender */\n      caller\n        /* \"hsh.sol\":6109:6132  msg.sender == tx.origin */\n      eq\n        /* \"hsh.sol\":6109:6168  msg.sender == tx.origin || isAuthorized(record, msg.sender) */\n      dup1\n      iszero\n      tag_191\n      jumpi\n        /* \"hsh.sol\":61:16088  contract hsh {... */\n    tag_192:\n        /* \"hsh.sol\":6087:6221  require(... */\n      tag_193\n      swap1\n      tag_8\n      jump\t// in\n    tag_193:\n        /* \"hsh.sol\":61:16088  contract hsh {... */\n      mload(0x40)\n        /* \"hsh.sol\":6259:6283  abi.encodePacked(_proof) */\n      dup5\n      dup2\n      add\n        /* \"hsh.sol\":61:16088  contract hsh {... */\n      swap2\n      dup3\n      mstore\n        /* \"hsh.sol\":6259:6283  abi.encodePacked(_proof) */\n      dup5\n      dup2\n      mstore\n      tag_194\n        /* \"hsh.sol\":61:16088  contract hsh {... */\n      0x40\n        /* \"hsh.sol\":6259:6283  abi.encodePacked(_proof) */\n      dup3\n      tag_2\n      jump\t// in\n    tag_194:\n        /* \"hsh.sol\":61:16088  contract hsh {... */\n      mload\n        /* \"hsh.sol\":6249:6284  keccak256(abi.encodePacked(_proof)) */\n      swap1\n      keccak256\n        /* \"hsh.sol\":6288:6310  record.insuranceIDhash */\n      swap2\n      add\n        /* \"hsh.sol\":61:16088  contract hsh {... */\n      sload\n        /* \"hsh.sol\":6249:6310  keccak256(abi.encodePacked(_proof)) == record.insuranceIDhash */\n      eq\n        /* \"hsh.sol\":61:16088  contract hsh {... */\n      mload(0x40)\n      swap1\n      dup2\n      mstore\n      return\n        /* \"hsh.sol\":6109:6168  msg.sender == tx.origin || isAuthorized(record, msg.sender) */\n    tag_191:\n        /* \"hsh.sol\":6109:6119  msg.sender */\n      pop\n        /* \"hsh.sol\":6087:6221  require(... */\n      tag_193\n        /* \"hsh.sol\":6136:6168  isAuthorized(record, msg.sender) */\n      tag_195\n        /* \"hsh.sol\":6109:6119  msg.sender */\n      caller\n        /* \"hsh.sol\":6136:6168  isAuthorized(record, msg.sender) */\n      dup6\n      tag_18\n      jump\t// in\n    tag_195:\n        /* \"hsh.sol\":6109:6168  msg.sender == tx.origin || isAuthorized(record, msg.sender) */\n      swap1\n      pop\n      jump(tag_192)\n        /* \"hsh.sol\":61:16088  contract hsh {... */\n    tag_51:\n      jumpi(tag_63, callvalue)\n      0x20\n      tag_198\n      calldatasize\n      tag_1\n      jump\t// in\n    tag_198:\n      swap1\n        /* \"hsh.sol\":10297:10366  require(_patientId < nextPatientId, \"Patient record does not exist.\") */\n      tag_199\n        /* \"hsh.sol\":10318:10331  nextPatientId */\n      0x01\n        /* \"hsh.sol\":61:16088  contract hsh {... */\n      sload\n        /* \"hsh.sol\":10305:10331  _patientId < nextPatientId */\n      dup3\n      lt\n        /* \"hsh.sol\":10297:10366  require(_patientId < nextPatientId, \"Patient record does not exist.\") */\n      tag_7\n      jump\t// in\n    tag_199:\n        /* \"hsh.sol\":61:16088  contract hsh {... */\n      0x00\n      mstore\n      0x00\n      dup3\n      mstore\n        /* \"hsh.sol\":10658:10680  record.doctorNotesHash */\n      0x11\n        /* \"hsh.sol\":61:16088  contract hsh {... */\n      keccak256(0x00, 0x40)\n        /* \"hsh.sol\":10493:10502  tx.origin */\n      swap2\n      origin\n        /* \"hsh.sol\":10479:10489  msg.sender */\n      caller\n        /* \"hsh.sol\":10479:10502  msg.sender == tx.origin */\n      eq\n        /* \"hsh.sol\":10479:10538  msg.sender == tx.origin || isAuthorized(record, msg.sender) */\n      dup1\n      iszero\n      tag_191\n      jumpi\n        /* \"hsh.sol\":10457:10591  require(... */\n      tag_193\n      swap1\n      tag_8\n      jump\t// in\n        /* \"hsh.sol\":61:16088  contract hsh {... */\n    tag_49:\n      jumpi(tag_63, callvalue)\n      0x20\n      tag_207\n      calldatasize\n      tag_1\n      jump\t// in\n    tag_207:\n      swap1\n        /* \"hsh.sol\":12007:12076  require(_patientId < nextPatientId, \"Patient record does not exist.\") */\n      tag_208\n        /* \"hsh.sol\":12028:12041  nextPatientId */\n      0x01\n        /* \"hsh.sol\":61:16088  contract hsh {... */\n      sload\n        /* \"hsh.sol\":12015:12041  _patientId < nextPatientId */\n      dup3\n      lt\n        /* \"hsh.sol\":12007:12076  require(_patientId < nextPatientId, \"Patient record does not exist.\") */\n      tag_7\n      jump\t// in\n    tag_208:\n        /* \"hsh.sol\":61:16088  contract hsh {... */\n      0x00\n      mstore\n      0x00\n      dup3\n      mstore\n        /* \"hsh.sol\":12368:12387  record.dietPlanHash */\n      0x14\n        /* \"hsh.sol\":61:16088  contract hsh {... */\n      keccak256(0x00, 0x40)\n        /* \"hsh.sol\":12203:12212  tx.origin */\n      swap2\n      origin\n        /* \"hsh.sol\":12189:12199  msg.sender */\n      caller\n        /* \"hsh.sol\":12189:12212  msg.sender == tx.origin */\n      eq\n        /* \"hsh.sol\":12189:12248  msg.sender == tx.origin || isAuthorized(record, msg.sender) */\n      dup1\n      iszero\n      tag_191\n      jumpi\n        /* \"hsh.sol\":12167:12301  require(... */\n      tag_193\n      swap1\n      tag_8\n      jump\t// in\n        /* \"hsh.sol\":61:16088  contract hsh {... */\n    tag_47:\n      jumpi(tag_63, callvalue)\n      0x20\n      tag_216\n      calldatasize\n      tag_1\n      jump\t// in\n    tag_216:\n      swap1\n        /* \"hsh.sol\":5422:5491  require(_patientId < nextPatientId, \"Patient record does not exist.\") */\n      tag_217\n        /* \"hsh.sol\":5443:5456  nextPatientId */\n      0x01\n        /* \"hsh.sol\":61:16088  contract hsh {... */\n      sload\n        /* \"hsh.sol\":5430:5456  _patientId < nextPatientId */\n      dup3\n      lt\n        /* \"hsh.sol\":5422:5491  require(_patientId < nextPatientId, \"Patient record does not exist.\") */\n      tag_7\n      jump\t// in\n    tag_217:\n        /* \"hsh.sol\":61:16088  contract hsh {... */\n      0x00\n      mstore\n      0x00\n      dup3\n      mstore\n        /* \"hsh.sol\":5783:5804  record.nationalIDhash */\n      0x02\n        /* \"hsh.sol\":61:16088  contract hsh {... */\n      keccak256(0x00, 0x40)\n        /* \"hsh.sol\":5618:5627  tx.origin */\n      swap2\n      origin\n        /* \"hsh.sol\":5604:5614  msg.sender */\n      caller\n        /* \"hsh.sol\":5604:5627  msg.sender == tx.origin */\n      eq\n        /* \"hsh.sol\":5604:5663  msg.sender == tx.origin || isAuthorized(record, msg.sender) */\n      dup1\n      iszero\n      tag_191\n      jumpi\n        /* \"hsh.sol\":5582:5716  require(... */\n      tag_193\n      swap1\n      tag_8\n      jump\t// in\n        /* \"hsh.sol\":61:16088  contract hsh {... */\n    tag_45:\n      jumpi(tag_63, callvalue)\n      tag_225\n      calldatasize\n      tag_3\n      jump\t// in\n    tag_225:\n        /* \"hsh.sol\":13544:13613  require(_patientId < nextPatientId, \"Patient record does not exist.\") */\n      tag_226\n        /* \"hsh.sol\":13565:13578  nextPatientId */\n      0x01\n        /* \"hsh.sol\":61:16088  contract hsh {... */\n      sload\n        /* \"hsh.sol\":13552:13578  _patientId < nextPatientId */\n      dup4\n      lt\n        /* \"hsh.sol\":13544:13613  require(_patientId < nextPatientId, \"Patient record does not exist.\") */\n      tag_7\n      jump\t// in\n    tag_226:\n        /* \"hsh.sol\":61:16088  contract hsh {... */\n      mload(0x40)\n        /* \"hsh.sol\":13658:13680  abi.encodePacked(_pin) */\n      tag_227\n      0x20\n      dup3\n      dup2\n      dup1\n      dup3\n      add\n        /* \"hsh.sol\":61:16088  contract hsh {... */\n      swap6\n      dup1\n      mload\n      swap2\n      dup3\n      swap2\n      add\n      dup8\n      mcopy\n      dup2\n      add\n      0x00\n      dup4\n      dup3\n      add\n      mstore\n        /* \"hsh.sol\":13658:13680  abi.encodePacked(_pin) */\n      sub\n      add\n        /* \"hsh.sol\":14592:14614  abi.encodePacked(_pin) */\n      not(0x1f)\n        /* \"hsh.sol\":13658:13680  abi.encodePacked(_pin) */\n      dup2\n      add\n      dup4\n      mstore\n      dup3\n      tag_2\n      jump\t// in\n    tag_227:\n        /* \"hsh.sol\":61:16088  contract hsh {... */\n      mload\n        /* \"hsh.sol\":13648:13681  keccak256(abi.encodePacked(_pin)) */\n      swap1\n      keccak256\n        /* \"hsh.sol\":61:16088  contract hsh {... */\n      swap1\n      0x00\n      mstore\n        /* \"hsh.sol\":13620:13633  emergencyPins */\n      0x02\n        /* \"hsh.sol\":13658:13680  abi.encodePacked(_pin) */\n      0x20\n        /* \"hsh.sol\":61:16088  contract hsh {... */\n      mstore\n      keccak256(0x00, 0x40)\n      sstore\n      0x00\n      dup1\n      return\n    tag_43:\n      jumpi(tag_63, callvalue)\n      jumpi(tag_63, slt(add(not(0x03), calldatasize), 0x20))\n      calldataload(0x04)\n        /* \"hsh.sol\":12644:12713  require(_patientId < nextPatientId, \"Patient record does not exist.\") */\n      tag_232\n        /* \"hsh.sol\":61:16088  contract hsh {... */\n      sload(0x01)\n        /* \"hsh.sol\":12652:12678  _patientId < nextPatientId */\n      dup3\n      lt\n        /* \"hsh.sol\":12644:12713  require(_patientId < nextPatientId, \"Patient record does not exist.\") */\n      tag_7\n      jump\t// in\n    tag_232:\n        /* \"hsh.sol\":61:16088  contract hsh {... */\n      0x00\n      mstore\n      mstore(0x20, 0x00)\n      0xe0\n      keccak256(0x00, 0x40)\n      0x04\n        /* \"hsh.sol\":12818:12833  record.nameHash */\n      dup2\n      add\n        /* \"hsh.sol\":61:16088  contract hsh {... */\n      sload\n        /* \"hsh.sol\":12848:12862  record.dobHash */\n      swap1\n      0x05\n      dup2\n      add\n        /* \"hsh.sol\":61:16088  contract hsh {... */\n      sload\n        /* \"hsh.sol\":12877:12894  record.genderHash */\n      swap1\n      0x06\n      dup2\n      add\n        /* \"hsh.sol\":61:16088  contract hsh {... */\n      sload\n        /* \"hsh.sol\":12909:12925  record.phoneHash */\n      0x08\n      dup3\n      add\n        /* \"hsh.sol\":61:16088  contract hsh {... */\n      sload\n        /* \"hsh.sol\":12940:12958  record.addressHash */\n      0x09\n      dup4\n      add\n        /* \"hsh.sol\":61:16088  contract hsh {... */\n      sload\n        /* \"hsh.sol\":12973:13000  record.emergencyContactHash */\n      swap2\n        /* \"hsh.sol\":13015:13042  record.lastcheckupTimestamp */\n      0x10\n        /* \"hsh.sol\":12973:13000  record.emergencyContactHash */\n      0x0d\n      dup6\n      add\n        /* \"hsh.sol\":61:16088  contract hsh {... */\n      sload\n        /* \"hsh.sol\":13015:13042  record.lastcheckupTimestamp */\n      swap5\n      add\n        /* \"hsh.sol\":61:16088  contract hsh {... */\n      sload\n      swap5\n      mload(0x40)\n      swap7\n      dup8\n      mstore\n      0x20\n      dup8\n      add\n      mstore\n      0x40\n      dup7\n      add\n      mstore\n      0x60\n      dup6\n      add\n      mstore\n      0x80\n      dup5\n      add\n      mstore\n      0xa0\n      dup4\n      add\n      mstore\n      0xc0\n      dup3\n      add\n      mstore\n      return\n    tag_41:\n      jumpi(tag_63, callvalue)\n      jumpi(tag_63, slt(add(not(0x03), calldatasize), 0x00))\n      0x20\n        /* \"hsh.sol\":985:1013  uint256 public nextPatientId */\n      0x01\n        /* \"hsh.sol\":61:16088  contract hsh {... */\n      sload\n      mload(0x40)\n      swap1\n      dup2\n      mstore\n      return\n    tag_39:\n      jumpi(tag_63, callvalue)\n      0x20\n      tag_239\n      calldatasize\n      tag_1\n      jump\t// in\n    tag_239:\n      swap1\n        /* \"hsh.sol\":11503:11572  require(_patientId < nextPatientId, \"Patient record does not exist.\") */\n      tag_240\n        /* \"hsh.sol\":11524:11537  nextPatientId */\n      0x01\n        /* \"hsh.sol\":61:16088  contract hsh {... */\n      sload\n        /* \"hsh.sol\":11511:11537  _patientId < nextPatientId */\n      dup3\n      lt\n        /* \"hsh.sol\":11503:11572  require(_patientId < nextPatientId, \"Patient record does not exist.\") */\n      tag_7\n      jump\t// in\n    tag_240:\n        /* \"hsh.sol\":61:16088  contract hsh {... */\n      0x00\n      mstore\n      0x00\n      dup3\n      mstore\n        /* \"hsh.sol\":11864:11887  record.fitnessLevelHash */\n      0x13\n        /* \"hsh.sol\":61:16088  contract hsh {... */\n      keccak256(0x00, 0x40)\n        /* \"hsh.sol\":11699:11708  tx.origin */\n      swap2\n      origin\n        /* \"hsh.sol\":11685:11695  msg.sender */\n      caller\n        /* \"hsh.sol\":11685:11708  msg.sender == tx.origin */\n      eq\n        /* \"hsh.sol\":11685:11744  msg.sender == tx.origin || isAuthorized(record, msg.sender) */\n      dup1\n      iszero\n      tag_191\n      jumpi\n        /* \"hsh.sol\":11663:11797  require(... */\n      tag_193\n      swap1\n      tag_8\n      jump\t// in\n        /* \"hsh.sol\":61:16088  contract hsh {... */\n    tag_37:\n      jumpi(tag_63, callvalue)\n      0x20\n      tag_65\n      tag_249\n      calldatasize\n      tag_1\n      jump\t// in\n    tag_249:\n      swap1\n      tag_16\n      jump\t// in\n    tag_35:\n      jumpi(tag_63, callvalue)\n      0x20\n      tag_65\n      tag_253\n      calldatasize\n      tag_1\n      jump\t// in\n    tag_253:\n      swap1\n      tag_15\n      jump\t// in\n    tag_33:\n      jumpi(tag_63, callvalue)\n      jumpi(tag_63, slt(add(not(0x03), calldatasize), 0x0260))\n      calldataload(0x0104)\n      sub(shl(0x40, 0x01), 0x01)\n      dup2\n      gt\n      tag_63\n      jumpi\n      tag_260\n      swap1\n      calldatasize\n      swap1\n      0x04\n      add\n      tag_6\n      jump\t// in\n    tag_260:\n      calldataload(0x0124)\n      sub(shl(0x40, 0x01), 0x01)\n      dup2\n      gt\n      tag_63\n      jumpi\n      tag_263\n      swap1\n      calldatasize\n      swap1\n      0x04\n      add\n      tag_6\n      jump\t// in\n    tag_263:\n      swap1\n      calldataload(0x0144)\n      sub(shl(0x40, 0x01), 0x01)\n      dup2\n      gt\n      tag_63\n      jumpi\n      tag_266\n      swap1\n      calldatasize\n      swap1\n      0x04\n      add\n      tag_6\n      jump\t// in\n    tag_266:\n      swap2\n      calldataload(0x0184)\n      sub(shl(0x40, 0x01), 0x01)\n      dup2\n      gt\n      tag_63\n      jumpi\n      tag_269\n      swap1\n      calldatasize\n      swap1\n      0x04\n      add\n      tag_6\n      jump\t// in\n    tag_269:\n      swap1\n      calldataload(0x01a4)\n      sub(shl(0x40, 0x01), 0x01)\n      dup2\n      gt\n      tag_63\n      jumpi\n      tag_272\n      swap1\n      calldatasize\n      swap1\n      0x04\n      add\n      tag_6\n      jump\t// in\n    tag_272:\n      calldataload(0x0204)\n      sub(shl(0x40, 0x01), 0x01)\n      dup2\n      gt\n      tag_63\n      jumpi\n      tag_275\n      swap1\n      calldatasize\n      swap1\n      0x04\n      add\n      tag_6\n      jump\t// in\n    tag_275:\n      swap1\n      sload(0x01)\n      swap4\n      0x20\n      swap7\n      mload(0x40)\n      swap5\n      tag_276\n      dup10\n      dup8\n      tag_2\n      jump\t// in\n    tag_276:\n      0x00\n      dup7\n      mstore\n      0x00\n      calldatasize\n      dup2\n      calldatacopy\n      mload(0x40)\n      swap8\n      0x0300\n      dup10\n      add\n      dup10\n      dup2\n      lt\n      sub(shl(0x40, 0x01), 0x01)\n      dup3\n      gt\n      or\n      tag_139\n      jumpi\n      0x40\n      mstore\n      dup8\n      dup10\n      mstore\n        /* \"hsh.sol\":2087:2097  msg.sender */\n      caller\n        /* \"hsh.sol\":2035:2767  PatientRecord(... */\n      dup11\n      dup11\n      add\n        /* \"hsh.sol\":61:16088  contract hsh {... */\n      mstore\n      calldataload(0x04)\n      0x40\n        /* \"hsh.sol\":2035:2767  PatientRecord(... */\n      dup11\n      add\n        /* \"hsh.sol\":61:16088  contract hsh {... */\n      mstore\n      calldataload(0x24)\n      0x60\n        /* \"hsh.sol\":2035:2767  PatientRecord(... */\n      dup11\n      add\n        /* \"hsh.sol\":61:16088  contract hsh {... */\n      mstore\n      calldataload(0x44)\n      0x80\n        /* \"hsh.sol\":2035:2767  PatientRecord(... */\n      dup11\n      add\n        /* \"hsh.sol\":61:16088  contract hsh {... */\n      mstore\n      calldataload(0x64)\n      0xa0\n        /* \"hsh.sol\":2035:2767  PatientRecord(... */\n      dup11\n      add\n        /* \"hsh.sol\":61:16088  contract hsh {... */\n      mstore\n      calldataload(0x84)\n      0xc0\n        /* \"hsh.sol\":2035:2767  PatientRecord(... */\n      dup11\n      add\n        /* \"hsh.sol\":61:16088  contract hsh {... */\n      mstore\n      calldataload(0xa4)\n      0xe0\n        /* \"hsh.sol\":2035:2767  PatientRecord(... */\n      dup11\n      add\n        /* \"hsh.sol\":61:16088  contract hsh {... */\n      mstore\n      calldataload(0xc4)\n      0x0100\n        /* \"hsh.sol\":2035:2767  PatientRecord(... */\n      dup11\n      add\n        /* \"hsh.sol\":61:16088  contract hsh {... */\n      mstore\n      calldataload(0xe4)\n      0x0120\n        /* \"hsh.sol\":2035:2767  PatientRecord(... */\n      dup11\n      add\n        /* \"hsh.sol\":61:16088  contract hsh {... */\n      mstore\n      0x0140\n        /* \"hsh.sol\":2035:2767  PatientRecord(... */\n      dup10\n      add\n        /* \"hsh.sol\":61:16088  contract hsh {... */\n      mstore\n      0x0160\n        /* \"hsh.sol\":2035:2767  PatientRecord(... */\n      dup9\n      add\n        /* \"hsh.sol\":61:16088  contract hsh {... */\n      mstore\n      0x0180\n        /* \"hsh.sol\":2035:2767  PatientRecord(... */\n      dup8\n      add\n        /* \"hsh.sol\":61:16088  contract hsh {... */\n      mstore\n      calldataload(0x0164)\n      0x01a0\n        /* \"hsh.sol\":2035:2767  PatientRecord(... */\n      dup8\n      add\n        /* \"hsh.sol\":61:16088  contract hsh {... */\n      mstore\n      0x01c0\n        /* \"hsh.sol\":2035:2767  PatientRecord(... */\n      dup7\n      add\n        /* \"hsh.sol\":61:16088  contract hsh {... */\n      mstore\n      0x01e0\n        /* \"hsh.sol\":2035:2767  PatientRecord(... */\n      dup6\n      add\n        /* \"hsh.sol\":61:16088  contract hsh {... */\n      mstore\n      calldataload(0x01c4)\n      0x0200\n        /* \"hsh.sol\":2035:2767  PatientRecord(... */\n      dup6\n      add\n        /* \"hsh.sol\":61:16088  contract hsh {... */\n      mstore\n      calldataload(0x01e4)\n      0x0220\n        /* \"hsh.sol\":2035:2767  PatientRecord(... */\n      dup6\n      add\n        /* \"hsh.sol\":61:16088  contract hsh {... */\n      mstore\n      0x0240\n        /* \"hsh.sol\":2035:2767  PatientRecord(... */\n      dup5\n      add\n        /* \"hsh.sol\":61:16088  contract hsh {... */\n      mstore\n      calldataload(0x0224)\n      0x0260\n        /* \"hsh.sol\":2035:2767  PatientRecord(... */\n      dup5\n      add\n        /* \"hsh.sol\":61:16088  contract hsh {... */\n      mstore\n      calldataload(0x0244)\n        /* \"hsh.sol\":2035:2767  PatientRecord(... */\n      0x0280\n      dup5\n      add\n        /* \"hsh.sol\":61:16088  contract hsh {... */\n      mstore\n      0x00\n        /* \"hsh.sol\":2035:2767  PatientRecord(... */\n      0x02a0\n      dup5\n      add\n        /* \"hsh.sol\":61:16088  contract hsh {... */\n      mstore\n        /* \"hsh.sol\":2035:2767  PatientRecord(... */\n      0x02c0\n      dup4\n      add\n        /* \"hsh.sol\":61:16088  contract hsh {... */\n      mstore\n        /* \"hsh.sol\":2741:2756  block.timestamp */\n      timestamp\n        /* \"hsh.sol\":2035:2767  PatientRecord(... */\n      0x02e0\n      dup4\n      add\n        /* \"hsh.sol\":61:16088  contract hsh {... */\n      mstore\n      0x00\n      mstore\n      0x00\n      dup3\n      mstore\n      keccak256(0x00, 0x40)\n      swap2\n      dup2\n      mload\n      dup4\n      sstore\n      0x01\n      dup4\n      add\n      0x01\n      dup1\n      0xa0\n      shl\n      sub\n        /* \"hsh.sol\":2035:2767  PatientRecord(... */\n      dup3\n      dup5\n      add\n        /* \"hsh.sol\":61:16088  contract hsh {... */\n      mload\n      and\n      shl(0xa0, 0xffffffffffffffffffffffff)\n      dup3\n      sload\n      and\n      or\n      swap1\n      sstore\n      0x40\n        /* \"hsh.sol\":2035:2767  PatientRecord(... */\n      dup3\n      add\n        /* \"hsh.sol\":61:16088  contract hsh {... */\n      mload\n      0x02\n      dup5\n      add\n      sstore\n      0x60\n        /* \"hsh.sol\":2035:2767  PatientRecord(... */\n      dup3\n      add\n        /* \"hsh.sol\":61:16088  contract hsh {... */\n      mload\n      0x03\n      dup5\n      add\n      sstore\n      0x80\n        /* \"hsh.sol\":2035:2767  PatientRecord(... */\n      dup3\n      add\n        /* \"hsh.sol\":61:16088  contract hsh {... */\n      mload\n      0x04\n      dup5\n      add\n      sstore\n      0xa0\n        /* \"hsh.sol\":2035:2767  PatientRecord(... */\n      dup3\n      add\n        /* \"hsh.sol\":61:16088  contract hsh {... */\n      mload\n      0x05\n      dup5\n      add\n      sstore\n      0xc0\n        /* \"hsh.sol\":2035:2767  PatientRecord(... */\n      dup3\n      add\n        /* \"hsh.sol\":61:16088  contract hsh {... */\n      mload\n      0x06\n      dup5\n      add\n      sstore\n      0xe0\n        /* \"hsh.sol\":2035:2767  PatientRecord(... */\n      dup3\n      add\n        /* \"hsh.sol\":61:16088  contract hsh {... */\n      mload\n      0x07\n      dup5\n      add\n      sstore\n      0x0100\n        /* \"hsh.sol\":2035:2767  PatientRecord(... */\n      dup3\n      add\n        /* \"hsh.sol\":61:16088  contract hsh {... */\n      mload\n      0x08\n      dup5\n      add\n      sstore\n      0x0120\n        /* \"hsh.sol\":2035:2767  PatientRecord(... */\n      dup3\n      add\n        /* \"hsh.sol\":61:16088  contract hsh {... */\n      mload\n      0x09\n      dup5\n      add\n      sstore\n      0x0140\n        /* \"hsh.sol\":2035:2767  PatientRecord(... */\n      dup3\n      add\n        /* \"hsh.sol\":61:16088  contract hsh {... */\n      mload\n      dup1\n      mload\n      swap1\n      sub(shl(0x40, 0x01), 0x01)\n      dup3\n      gt\n      tag_139\n      jumpi\n      shl(0x40, 0x01)\n      dup3\n      gt\n      tag_139\n      jumpi\n      dup3\n      swap1\n      0x0a\n      dup7\n      add\n      sload\n      dup4\n      0x0a\n      dup9\n      add\n      sstore\n      dup1\n      dup5\n      lt\n      tag_283\n      jumpi\n    tag_284:\n      pop\n      add\n      0x0a\n      dup6\n      add\n      0x00\n      mstore\n      dup3\n      0x00\n      keccak256\n      0x00\n    tag_285:\n      dup4\n      dup2\n      lt\n      tag_286\n      jumpi\n      pop\n      pop\n      pop\n      pop\n      0x0b\n      dup4\n      add\n      0x0160\n        /* \"hsh.sol\":2035:2767  PatientRecord(... */\n      dup4\n      add\n        /* \"hsh.sol\":61:16088  contract hsh {... */\n      mload\n      swap1\n      dup2\n      mload\n      swap2\n      sub(shl(0x40, 0x01), 0x01)\n      dup4\n      gt\n      tag_139\n      jumpi\n      shl(0x40, 0x01)\n      dup4\n      gt\n      tag_139\n      jumpi\n      dup4\n      swap1\n      dup3\n      sload\n      dup5\n      dup5\n      sstore\n      dup1\n      dup6\n      lt\n      tag_292\n      jumpi\n    tag_293:\n      pop\n      add\n      swap1\n      0x00\n      mstore\n      dup3\n      0x00\n      keccak256\n      0x00\n    tag_294:\n      dup4\n      dup2\n      lt\n      tag_295\n      jumpi\n      pop\n      pop\n      pop\n      pop\n      0x0c\n      dup4\n      add\n      0x0180\n        /* \"hsh.sol\":2035:2767  PatientRecord(... */\n      dup4\n      add\n        /* \"hsh.sol\":61:16088  contract hsh {... */\n      mload\n      swap1\n      dup2\n      mload\n      swap2\n      sub(shl(0x40, 0x01), 0x01)\n      dup4\n      gt\n      tag_139\n      jumpi\n      shl(0x40, 0x01)\n      dup4\n      gt\n      tag_139\n      jumpi\n      dup4\n      swap1\n      dup3\n      sload\n      dup5\n      dup5\n      sstore\n      dup1\n      dup6\n      lt\n      tag_301\n      jumpi\n    tag_302:\n      pop\n      add\n      swap1\n      0x00\n      mstore\n      dup3\n      0x00\n      keccak256\n      0x00\n    tag_303:\n      dup4\n      dup2\n      lt\n      tag_304\n      jumpi\n        /* \"hsh.sol\":2035:2767  PatientRecord(... */\n      pop\n      pop\n      pop\n      pop\n        /* \"hsh.sol\":61:16088  contract hsh {... */\n      0x01a0\n        /* \"hsh.sol\":2035:2767  PatientRecord(... */\n      dup3\n      add\n        /* \"hsh.sol\":61:16088  contract hsh {... */\n      mload\n      0x0d\n      dup5\n      add\n      sstore\n      0x0e\n      dup4\n      add\n      0x01c0\n        /* \"hsh.sol\":2035:2767  PatientRecord(... */\n      dup4\n      add\n        /* \"hsh.sol\":61:16088  contract hsh {... */\n      mload\n      swap1\n      dup2\n      mload\n      swap2\n      sub(shl(0x40, 0x01), 0x01)\n      dup4\n      gt\n      tag_139\n      jumpi\n      shl(0x40, 0x01)\n      dup4\n      gt\n      tag_139\n      jumpi\n      dup4\n      swap1\n      dup3\n      sload\n      dup5\n      dup5\n      sstore\n      dup1\n      dup6\n      lt\n      tag_310\n      jumpi\n    tag_311:\n      pop\n      add\n      swap1\n      0x00\n      mstore\n      dup3\n      0x00\n      keccak256\n      0x00\n    tag_312:\n      dup4\n      dup2\n      lt\n      tag_313\n      jumpi\n      pop\n      pop\n      pop\n      pop\n      0x0f\n      dup4\n      add\n      0x01e0\n        /* \"hsh.sol\":2035:2767  PatientRecord(... */\n      dup4\n      add\n        /* \"hsh.sol\":61:16088  contract hsh {... */\n      mload\n      swap1\n      dup2\n      mload\n      swap2\n      sub(shl(0x40, 0x01), 0x01)\n      dup4\n      gt\n      tag_139\n      jumpi\n      shl(0x40, 0x01)\n      dup4\n      gt\n      tag_139\n      jumpi\n      dup4\n      swap1\n      dup3\n      sload\n      dup5\n      dup5\n      sstore\n      dup1\n      dup6\n      lt\n      tag_319\n      jumpi\n    tag_320:\n      pop\n      add\n      swap1\n      0x00\n      mstore\n      dup3\n      0x00\n      keccak256\n      0x00\n    tag_321:\n      dup4\n      dup2\n      lt\n      tag_322\n      jumpi\n        /* \"hsh.sol\":2035:2767  PatientRecord(... */\n      pop\n      pop\n      pop\n      pop\n        /* \"hsh.sol\":61:16088  contract hsh {... */\n      0x0200\n        /* \"hsh.sol\":2035:2767  PatientRecord(... */\n      dup3\n      add\n        /* \"hsh.sol\":61:16088  contract hsh {... */\n      mload\n      0x10\n      dup5\n      add\n      sstore\n      0x0220\n        /* \"hsh.sol\":2035:2767  PatientRecord(... */\n      dup3\n      add\n        /* \"hsh.sol\":61:16088  contract hsh {... */\n      mload\n      0x11\n      dup5\n      add\n      sstore\n      0x12\n      dup4\n      add\n      0x0240\n        /* \"hsh.sol\":2035:2767  PatientRecord(... */\n      dup4\n      add\n        /* \"hsh.sol\":61:16088  contract hsh {... */\n      mload\n      swap1\n      dup2\n      mload\n      swap2\n      sub(shl(0x40, 0x01), 0x01)\n      dup4\n      gt\n      tag_139\n      jumpi\n      shl(0x40, 0x01)\n      dup4\n      gt\n      tag_139\n      jumpi\n      dup4\n      swap1\n      dup3\n      sload\n      dup5\n      dup5\n      sstore\n      dup1\n      dup6\n      lt\n      tag_328\n      jumpi\n    tag_329:\n      pop\n      add\n      swap1\n      0x00\n      mstore\n      dup3\n      0x00\n      keccak256\n      0x00\n    tag_330:\n      dup4\n      dup2\n      lt\n      tag_331\n      jumpi\n        /* \"hsh.sol\":2035:2767  PatientRecord(... */\n      pop\n      pop\n      pop\n      pop\n        /* \"hsh.sol\":61:16088  contract hsh {... */\n      0x0260\n        /* \"hsh.sol\":2035:2767  PatientRecord(... */\n      dup3\n      add\n        /* \"hsh.sol\":61:16088  contract hsh {... */\n      mload\n      0x13\n      dup5\n      add\n      sstore\n        /* \"hsh.sol\":2035:2767  PatientRecord(... */\n      0x0280\n      dup3\n      add\n        /* \"hsh.sol\":61:16088  contract hsh {... */\n      mload\n      0x14\n      dup5\n      add\n      sstore\n        /* \"hsh.sol\":2035:2767  PatientRecord(... */\n      0x02a0\n      dup3\n      add\n        /* \"hsh.sol\":61:16088  contract hsh {... */\n      mload\n      0x15\n      dup5\n      add\n      sstore\n      0x16\n      dup4\n      add\n        /* \"hsh.sol\":2035:2767  PatientRecord(... */\n      0x02c0\n      dup4\n      add\n        /* \"hsh.sol\":61:16088  contract hsh {... */\n      mload\n      swap2\n      dup3\n      mload\n      swap3\n      sub(shl(0x40, 0x01), 0x01)\n      dup5\n      gt\n      tag_139\n      jumpi\n      shl(0x40, 0x01)\n      dup5\n      gt\n      tag_139\n      jumpi\n      dup2\n      swap1\n      dup4\n      sload\n      dup6\n      dup6\n      sstore\n      dup1\n      dup7\n      lt\n      tag_337\n      jumpi\n    tag_338:\n      pop\n      add\n      swap2\n      0x00\n      mstore\n      dup1\n      0x00\n      keccak256\n      swap1\n      0x00\n    tag_339:\n      dup5\n      dup2\n      lt\n      tag_340\n      jumpi\n        /* \"hsh.sol\":2035:2767  PatientRecord(... */\n      0x02e0\n      dup7\n      add\n        /* \"hsh.sol\":61:16088  contract hsh {... */\n      mload\n      0x17\n      dup9\n      add\n      sstore\n      sload(0x01)\n      not(0x00)\n      dup2\n      eq\n      tag_174\n      jumpi\n      0x01\n      add\n      0x01\n      sstore\n      0x00\n      dup1\n      return\n    tag_340:\n      dup4\n      mload\n      sub(shl(0xa0, 0x01), 0x01)\n      and\n      dup4\n      dup3\n      add\n      sstore\n      swap3\n      dup2\n      add\n      swap3\n      0x01\n      add\n      jump(tag_339)\n    tag_337:\n      dup5\n      0x00\n      mstore\n      dup6\n      dup4\n      0x00\n      keccak256\n      swap2\n      dup3\n      add\n      swap2\n      add\n    tag_344:\n      dup2\n      dup2\n      lt\n      tag_345\n      jumpi\n      pop\n      jump(tag_338)\n    tag_345:\n      0x00\n      dup2\n      sstore\n      dup5\n      swap4\n      pop\n      0x01\n      add\n      jump(tag_344)\n    tag_331:\n      dup3\n      mload\n      dup3\n      dup3\n      add\n      sstore\n      swap2\n      dup5\n      add\n      swap2\n      0x01\n      add\n      jump(tag_330)\n    tag_328:\n      dup4\n      0x00\n      mstore\n      dup5\n      dup4\n      0x00\n      keccak256\n      swap2\n      dup3\n      add\n      swap2\n      add\n    tag_347:\n      dup2\n      dup2\n      lt\n      tag_348\n      jumpi\n      pop\n      jump(tag_329)\n    tag_348:\n      0x00\n      dup2\n      sstore\n      dup7\n      swap4\n      pop\n      0x01\n      add\n      jump(tag_347)\n    tag_322:\n      dup3\n      mload\n      dup3\n      dup3\n      add\n      sstore\n      swap2\n      dup5\n      add\n      swap2\n      0x01\n      add\n      jump(tag_321)\n    tag_319:\n      dup4\n      0x00\n      mstore\n      dup5\n      dup4\n      0x00\n      keccak256\n      swap2\n      dup3\n      add\n      swap2\n      add\n    tag_350:\n      dup2\n      dup2\n      lt\n      tag_351\n      jumpi\n      pop\n      jump(tag_320)\n    tag_351:\n      0x00\n      dup2\n      sstore\n      dup7\n      swap4\n      pop\n      0x01\n      add\n      jump(tag_350)\n    tag_313:\n      dup3\n      mload\n      dup3\n      dup3\n      add\n      sstore\n      swap2\n      dup5\n      add\n      swap2\n      0x01\n      add\n      jump(tag_312)\n    tag_310:\n      dup4\n      0x00\n      mstore\n      dup5\n      dup4\n      0x00\n      keccak256\n      swap2\n      dup3\n      add\n      swap2\n      add\n    tag_353:\n      dup2\n      dup2\n      lt\n      tag_354\n      jumpi\n      pop\n      jump(tag_311)\n    tag_354:\n      0x00\n      dup2\n      sstore\n      dup7\n      swap4\n      pop\n      0x01\n      add\n      jump(tag_353)\n    tag_304:\n      dup3\n      mload\n      dup3\n      dup3\n      add\n      sstore\n      swap2\n      dup5\n      add\n      swap2\n      0x01\n      add\n      jump(tag_303)\n    tag_301:\n      dup4\n      0x00\n      mstore\n      dup5\n      dup4\n      0x00\n      keccak256\n      swap2\n      dup3\n      add\n      swap2\n      add\n    tag_356:\n      dup2\n      dup2\n      lt\n      tag_357\n      jumpi\n      pop\n      jump(tag_302)\n    tag_357:\n      0x00\n      dup2\n      sstore\n      dup7\n      swap4\n      pop\n      0x01\n      add\n      jump(tag_356)\n    tag_295:\n      dup3\n      mload\n      dup3\n      dup3\n      add\n      sstore\n      swap2\n      dup5\n      add\n      swap2\n      0x01\n      add\n      jump(tag_294)\n    tag_292:\n      dup4\n      0x00\n      mstore\n      dup5\n      dup4\n      0x00\n      keccak256\n      swap2\n      dup3\n      add\n      swap2\n      add\n    tag_359:\n      dup2\n      dup2\n      lt\n      tag_360\n      jumpi\n      pop\n      jump(tag_293)\n    tag_360:\n      0x00\n      dup2\n      sstore\n      dup7\n      swap4\n      pop\n      0x01\n      add\n      jump(tag_359)\n    tag_286:\n      dup3\n      mload\n      dup3\n      dup3\n      add\n      sstore\n      swap2\n      dup5\n      add\n      swap2\n      0x01\n      add\n      jump(tag_285)\n    tag_283:\n      0x0a\n      dup8\n      add\n      0x00\n      mstore\n      dup3\n      0x00\n      keccak256\n      swap1\n      dup5\n      dup3\n      add\n    tag_362:\n      dup2\n      dup4\n      add\n      dup2\n      lt\n      tag_363\n      jumpi\n      pop\n      pop\n      jump(tag_284)\n    tag_363:\n      0x00\n      dup2\n      sstore\n      dup7\n      swap5\n      pop\n      0x01\n      add\n      jump(tag_362)\n    tag_31:\n      jumpi(tag_63, callvalue)\n      tag_367\n      calldatasize\n      tag_5\n      jump\t// in\n    tag_367:\n      swap1\n        /* \"hsh.sol\":4896:4965  require(_patientId < nextPatientId, \"Patient record does not exist.\") */\n      tag_368\n        /* \"hsh.sol\":4917:4930  nextPatientId */\n      0x01\n        /* \"hsh.sol\":61:16088  contract hsh {... */\n      sload\n        /* \"hsh.sol\":4904:4930  _patientId < nextPatientId */\n      dup3\n      lt\n        /* \"hsh.sol\":4896:4965  require(_patientId < nextPatientId, \"Patient record does not exist.\") */\n      tag_7\n      jump\t// in\n    tag_368:\n        /* \"hsh.sol\":61:16088  contract hsh {... */\n      0x00\n      swap1\n      dup2\n      mstore\n      0x20\n      dup2\n      swap1\n      mstore\n      0x40\n      dup2\n      keccak256\n        /* \"hsh.sol\":5096:5122  record.authorizedProviders */\n      0x16\n      add\n        /* \"hsh.sol\":61:16088  contract hsh {... */\n      dup1\n      sload\n      swap3\n        /* \"hsh.sol\":5077:5090  uint256 i = 0 */\n      swap2\n      sub(shl(0xa0, 0x01), 0x01)\n        /* \"hsh.sol\":61:16088  contract hsh {... */\n      dup4\n      and\n      swap1\n        /* \"hsh.sol\":5092:5129  i < record.authorizedProviders.length */\n    tag_369:\n      dup5\n      dup2\n      lt\n      tag_370\n      jumpi\n        /* \"hsh.sol\":61:16088  contract hsh {... */\n      pop\n      pop\n      shl(0x40, 0x01)\n      dup4\n      lt\n      iszero\n      tag_139\n      jumpi\n      dup3\n      tag_176\n      swap2\n        /* \"hsh.sol\":4917:4930  nextPatientId */\n      0x01\n        /* \"hsh.sol\":61:16088  contract hsh {... */\n      tag_169\n      swap6\n      add\n      dup2\n      sstore\n      tag_9\n      jump\t// in\n        /* \"hsh.sol\":5131:5134  i++ */\n    tag_370:\n        /* \"hsh.sol\":5159:5188  record.authorizedProviders[i] */\n      dup2\n      tag_376\n      dup3\n      dup6\n      tag_9\n      jump\t// in\n    tag_376:\n        /* \"hsh.sol\":61:16088  contract hsh {... */\n      swap1\n      sload\n      0x03\n      swap2\n      swap1\n      swap2\n      shl\n      shr\n      sub(shl(0xa0, 0x01), 0x01)\n      and\n        /* \"hsh.sol\":5159:5201  record.authorizedProviders[i] != _provider */\n      eq\n        /* \"hsh.sol\":61:16088  contract hsh {... */\n      tag_377\n      jumpi\n        /* \"hsh.sol\":4917:4930  nextPatientId */\n      0x01\n        /* \"hsh.sol\":61:16088  contract hsh {... */\n      add\n        /* \"hsh.sol\":5077:5090  uint256 i = 0 */\n      jump(tag_369)\n        /* \"hsh.sol\":61:16088  contract hsh {... */\n    tag_377:\n      mload(0x40)\n      shl(0xe5, 0x461bcd)\n      dup2\n      mstore\n      0x20\n      0x04\n      dup3\n      add\n      mstore\n      0x1c\n      0x24\n      dup3\n      add\n      mstore\n      0x50726f766964657220616c726561647920686173206163636573732e00000000\n      0x44\n      dup3\n      add\n      mstore\n      0x64\n      swap1\n      revert\n    tag_29:\n      jumpi(tag_63, callvalue)\n      0x20\n      tag_65\n      tag_382\n      calldatasize\n      tag_1\n      jump\t// in\n    tag_382:\n      swap1\n      tag_13\n      jump\t// in\n    tag_27:\n      jumpi(tag_63, callvalue)\n      0x20\n      tag_65\n      tag_386\n      calldatasize\n      tag_1\n      jump\t// in\n    tag_386:\n      swap1\n      tag_12\n      jump\t// in\n    tag_25:\n      jumpi(tag_63, callvalue)\n      0x20\n      tag_389\n      calldatasize\n      tag_1\n      jump\t// in\n    tag_389:\n      swap1\n        /* \"hsh.sol\":6427:6496  require(_patientId < nextPatientId, \"Patient record does not exist.\") */\n      tag_390\n        /* \"hsh.sol\":6448:6461  nextPatientId */\n      0x01\n        /* \"hsh.sol\":61:16088  contract hsh {... */\n      sload\n        /* \"hsh.sol\":6435:6461  _patientId < nextPatientId */\n      dup3\n      lt\n        /* \"hsh.sol\":6427:6496  require(_patientId < nextPatientId, \"Patient record does not exist.\") */\n      tag_7\n      jump\t// in\n    tag_390:\n        /* \"hsh.sol\":61:16088  contract hsh {... */\n      0x00\n      mstore\n      0x00\n      dup3\n      mstore\n        /* \"hsh.sol\":6788:6808  record.bloodTypeHash */\n      0x07\n        /* \"hsh.sol\":61:16088  contract hsh {... */\n      keccak256(0x00, 0x40)\n        /* \"hsh.sol\":6623:6632  tx.origin */\n      swap2\n      origin\n        /* \"hsh.sol\":6609:6619  msg.sender */\n      caller\n        /* \"hsh.sol\":6609:6632  msg.sender == tx.origin */\n      eq\n        /* \"hsh.sol\":6609:6668  msg.sender == tx.origin || isAuthorized(record, msg.sender) */\n      dup1\n      iszero\n      tag_191\n      jumpi\n        /* \"hsh.sol\":6587:6721  require(... */\n      tag_193\n      swap1\n      tag_8\n      jump\t// in\n        /* \"hsh.sol\":61:16088  contract hsh {... */\n    tag_23:\n      jumpi(tag_63, callvalue)\n      tag_398\n      calldatasize\n      tag_3\n      jump\t// in\n    tag_398:\n        /* \"hsh.sol\":14488:14557  require(_patientId < nextPatientId, \"Patient record does not exist.\") */\n      tag_399\n        /* \"hsh.sol\":14509:14522  nextPatientId */\n      0x01\n        /* \"hsh.sol\":61:16088  contract hsh {... */\n      sload\n        /* \"hsh.sol\":14496:14522  _patientId < nextPatientId */\n      dup4\n      lt\n        /* \"hsh.sol\":14488:14557  require(_patientId < nextPatientId, \"Patient record does not exist.\") */\n      tag_7\n      jump\t// in\n    tag_399:\n        /* \"hsh.sol\":61:16088  contract hsh {... */\n      mload(0x40)\n        /* \"hsh.sol\":14592:14614  abi.encodePacked(_pin) */\n      tag_400\n      0x20\n      dup3\n      dup2\n      dup1\n      dup3\n      add\n        /* \"hsh.sol\":61:16088  contract hsh {... */\n      swap6\n      dup1\n      mload\n      swap2\n      dup3\n      swap2\n      add\n      dup8\n      mcopy\n      dup2\n      add\n      0x00\n      dup4\n      dup3\n      add\n      mstore\n        /* \"hsh.sol\":14592:14614  abi.encodePacked(_pin) */\n      sub\n      add\n      not(0x1f)\n      dup2\n      add\n      dup4\n      mstore\n      dup3\n      tag_2\n      jump\t// in\n    tag_400:\n        /* \"hsh.sol\":61:16088  contract hsh {... */\n      mload\n        /* \"hsh.sol\":14582:14615  keccak256(abi.encodePacked(_pin)) */\n      swap1\n      keccak256\n        /* \"hsh.sol\":61:16088  contract hsh {... */\n      dup2\n      0x00\n      mstore\n        /* \"hsh.sol\":14619:14632  emergencyPins */\n      0x02\n        /* \"hsh.sol\":14592:14614  abi.encodePacked(_pin) */\n      0x20\n        /* \"hsh.sol\":61:16088  contract hsh {... */\n      mstore\n      sload(keccak256(0x00, 0x40))\n        /* \"hsh.sol\":14582:14644  keccak256(abi.encodePacked(_pin)) == emergencyPins[_patientId] */\n      sub\n        /* \"hsh.sol\":61:16088  contract hsh {... */\n      tag_401\n      jumpi\n      0x00\n      mstore\n      0x00\n        /* \"hsh.sol\":14592:14614  abi.encodePacked(_pin) */\n      0x20\n        /* \"hsh.sol\":61:16088  contract hsh {... */\n      mstore\n      keccak256(0x00, 0x40)\n        /* \"hsh.sol\":14619:14632  emergencyPins */\n      0x02\n        /* \"hsh.sol\":14783:14804  record.nationalIDhash */\n      dup2\n      add\n        /* \"hsh.sol\":61:16088  contract hsh {... */\n      sload\n        /* \"hsh.sol\":14819:14841  record.insuranceIDhash */\n      swap1\n      0x03\n      dup2\n      add\n        /* \"hsh.sol\":61:16088  contract hsh {... */\n      sload\n      0x0160\n      mstore\n      0x04\n        /* \"hsh.sol\":14855:14870  record.nameHash */\n      dup2\n      add\n        /* \"hsh.sol\":61:16088  contract hsh {... */\n      sload\n      0x0180\n      mstore\n        /* \"hsh.sol\":14885:14899  record.dobHash */\n      0x05\n      dup2\n      add\n        /* \"hsh.sol\":61:16088  contract hsh {... */\n      sload\n        /* \"hsh.sol\":14913:14930  record.genderHash */\n      swap1\n      0x06\n      dup2\n      add\n        /* \"hsh.sol\":61:16088  contract hsh {... */\n      sload\n        /* \"hsh.sol\":14944:14964  record.bloodTypeHash */\n      swap3\n      0x07\n      dup3\n      add\n        /* \"hsh.sol\":61:16088  contract hsh {... */\n      sload\n        /* \"hsh.sol\":14978:14994  record.phoneHash */\n      0x08\n      dup4\n      add\n        /* \"hsh.sol\":61:16088  contract hsh {... */\n      sload\n        /* \"hsh.sol\":15009:15027  record.addressHash */\n      swap4\n      0x09\n      dup5\n      add\n        /* \"hsh.sol\":61:16088  contract hsh {... */\n      sload\n        /* \"hsh.sol\":15154:15181  record.emergencyContactHash */\n      swap6\n      0x0d\n      dup6\n      add\n        /* \"hsh.sol\":61:16088  contract hsh {... */\n      sload\n        /* \"hsh.sol\":15278:15305  record.lastcheckupTimestamp */\n      swap3\n      0x10\n      dup7\n      add\n        /* \"hsh.sol\":61:16088  contract hsh {... */\n      sload\n        /* \"hsh.sol\":15320:15342  record.doctorNotesHash */\n      swap8\n      0x11\n      dup8\n      add\n        /* \"hsh.sol\":61:16088  contract hsh {... */\n      sload\n        /* \"hsh.sol\":15401:15424  record.fitnessLevelHash */\n      swap8\n      0x13\n      dup9\n      add\n        /* \"hsh.sol\":61:16088  contract hsh {... */\n      sload\n      0x0140\n      mstore\n        /* \"hsh.sol\":15439:15458  record.dietPlanHash */\n      0x14\n      dup9\n      add\n        /* \"hsh.sol\":61:16088  contract hsh {... */\n      sload\n      0x0100\n      mstore\n        /* \"hsh.sol\":15042:15062  record.allergiesHash */\n      0x0a\n      dup9\n      add\n        /* \"hsh.sol\":61:16088  contract hsh {... */\n      tag_403\n      swap1\n      tag_11\n      jump\t// in\n    tag_403:\n        /* \"hsh.sol\":15077:15102  record.medicalHistoryHash */\n      swap3\n        /* \"hsh.sol\":61:16088  contract hsh {... */\n      tag_404\n        /* \"hsh.sol\":15077:15102  record.medicalHistoryHash */\n      0x0b\n      dup11\n      add\n        /* \"hsh.sol\":61:16088  contract hsh {... */\n      tag_11\n      jump\t// in\n    tag_404:\n        /* \"hsh.sol\":15117:15139  record.medicationsHash */\n      swap5\n        /* \"hsh.sol\":61:16088  contract hsh {... */\n      tag_405\n        /* \"hsh.sol\":15117:15139  record.medicationsHash */\n      0x0c\n      dup12\n      add\n        /* \"hsh.sol\":61:16088  contract hsh {... */\n      tag_11\n      jump\t// in\n    tag_405:\n        /* \"hsh.sol\":15196:15219  record.organDonorStatus */\n      swap7\n        /* \"hsh.sol\":61:16088  contract hsh {... */\n      tag_406\n        /* \"hsh.sol\":15196:15219  record.organDonorStatus */\n      0x0e\n      dup13\n      add\n        /* \"hsh.sol\":61:16088  contract hsh {... */\n      tag_11\n      jump\t// in\n    tag_406:\n        /* \"hsh.sol\":15234:15263  record.vaccinationRecordsHash */\n      swap10\n        /* \"hsh.sol\":61:16088  contract hsh {... */\n      tag_407\n        /* \"hsh.sol\":15234:15263  record.vaccinationRecordsHash */\n      0x0f\n      dup14\n      add\n        /* \"hsh.sol\":61:16088  contract hsh {... */\n      tag_11\n      jump\t// in\n    tag_407:\n        /* \"hsh.sol\":15357:15386  record.wearableDeviceDataHash */\n      swap12\n      0x12\n      add\n        /* \"hsh.sol\":61:16088  contract hsh {... */\n      tag_408\n      swap1\n      tag_11\n      jump\t// in\n    tag_408:\n        /* \"hsh.sol\":14762:15470  return (... */\n      0xe0\n      mstore\n        /* \"hsh.sol\":61:16088  contract hsh {... */\n      mstore(0x0120, mload(0x40))\n      mload(0x0120)\n      mstore\n      mload(0x0160)\n      mload(0x0120)\n        /* \"hsh.sol\":14592:14614  abi.encodePacked(_pin) */\n      0x20\n        /* \"hsh.sol\":61:16088  contract hsh {... */\n      add\n      mstore\n      mstore(add(0x40, mload(0x0120)), mload(0x0180))\n      add(0x60, mload(0x0120))\n      mstore\n      add(0x80, mload(0x0120))\n      mstore\n      add(0xa0, mload(0x0120))\n      mstore\n      add(0xc0, mload(0x0120))\n      mstore\n      add(0xe0, mload(0x0120))\n      mstore\n      add(0x0100, mload(0x0120))\n      0x0260\n      swap1\n      mstore\n      add(0x0260, mload(0x0120))\n      tag_409\n      swap2\n      tag_4\n      jump\t// in\n    tag_409:\n      mload(0x0120)\n      dup2\n      sub\n      add(0x0120, mload(0x0120))\n      mstore\n      tag_410\n      swap2\n      tag_4\n      jump\t// in\n    tag_410:\n      mload(0x0120)\n      dup2\n      sub\n      add(0x0140, mload(0x0120))\n      mstore\n      tag_411\n      swap2\n      tag_4\n      jump\t// in\n    tag_411:\n      swap1\n      add(0x0160, mload(0x0120))\n      mstore\n      mload(0x0120)\n      dup2\n      sub\n      add(0x0180, mload(0x0120))\n      mstore\n      tag_412\n      swap2\n      tag_4\n      jump\t// in\n    tag_412:\n      mload(0x0120)\n      dup2\n      sub\n      add(0x01a0, mload(0x0120))\n      mstore\n      tag_413\n      swap2\n      tag_4\n      jump\t// in\n    tag_413:\n      swap2\n      add(0x01c0, mload(0x0120))\n      mstore\n      add(0x01e0, mload(0x0120))\n      mstore\n      mload(0x0120)\n      dup2\n      sub\n      add(0x0200, mload(0x0120))\n      mstore\n      mload(0xe0)\n      swap1\n      tag_414\n      swap2\n      tag_4\n      jump\t// in\n    tag_414:\n      mstore(add(0x0220, mload(0x0120)), mload(0x0140))\n      mstore(add(0x0240, mload(0x0120)), mload(0x0100))\n      mload(0x0120)\n      swap1\n      sub\n      mload(0x0120)\n      return\n    tag_401:\n      mload(0x40)\n      shl(0xe5, 0x461bcd)\n      dup2\n      mstore\n        /* \"hsh.sol\":14592:14614  abi.encodePacked(_pin) */\n      0x20\n        /* \"hsh.sol\":61:16088  contract hsh {... */\n      0x04\n      dup3\n      add\n      mstore\n      0x0c\n      0x24\n      dup3\n      add\n      mstore\n      shl(0xa1, 0x24b73b30b634b2102824a717)\n      0x44\n      dup3\n      add\n      mstore\n      0x64\n      swap1\n      revert\n    tag_21:\n      jumpi(tag_63, callvalue)\n      0x20\n      tag_65\n      tag_418\n      calldatasize\n      tag_1\n      jump\t// in\n    tag_418:\n      swap1\n      tag_10\n      jump\t// in\n    tag_1:\n      0x40\n      swap1\n      not(0x03)\n      add\n      slt\n      tag_63\n      jumpi\n      calldataload(0x04)\n      swap1\n      calldataload(0x24)\n      swap1\n      jump\t// out\n    tag_2:\n      swap1\n      0x1f\n        /* \"hsh.sol\":14592:14614  abi.encodePacked(_pin) */\n      dup1\n      not\n        /* \"hsh.sol\":61:16088  contract hsh {... */\n      swap2\n      add\n      and\n      dup2\n      add\n      swap1\n      dup2\n      lt\n      sub(shl(0x40, 0x01), 0x01)\n      dup3\n      gt\n      or\n      tag_139\n      jumpi\n      0x40\n      mstore\n      jump\t// out\n    tag_3:\n      swap1\n      0x40\n      not(0x03)\n      dup4\n      add\n      slt\n      tag_63\n      jumpi\n      calldataload(0x04)\n      swap2\n      calldataload(0x24)\n      sub(shl(0x40, 0x01), 0x01)\n      dup2\n      gt\n      tag_63\n      jumpi\n      dup2\n      0x23\n      dup3\n      add\n      slt\n      iszero\n      tag_63\n      jumpi\n      dup1\n      0x04\n      add\n      calldataload\n      swap1\n      sub(shl(0x40, 0x01), 0x01)\n      dup3\n      gt\n      tag_139\n      jumpi\n      mload(0x40)\n      swap3\n      tag_431\n        /* \"hsh.sol\":14592:14614  abi.encodePacked(_pin) */\n      0x1f\n        /* \"hsh.sol\":61:16088  contract hsh {... */\n      dup5\n      add\n      not(0x1f)\n      and\n      0x20\n      add\n      dup6\n      tag_2\n      jump\t// in\n    tag_431:\n      dup3\n      dup5\n      mstore\n      0x24\n      dup4\n      dup4\n      add\n      add\n      gt\n      tag_63\n      jumpi\n      dup2\n      0x00\n      swap3\n      0x24\n      0x20\n      swap4\n      add\n      dup4\n      dup7\n      add\n      calldatacopy\n      dup4\n      add\n      add\n      mstore\n      swap1\n      jump\t// out\n    tag_4:\n      swap1\n      0x20\n      dup1\n      dup4\n      mload\n      swap3\n      dup4\n      dup2\n      mstore\n      add\n      swap3\n      add\n      swap1\n      0x00\n    tag_434:\n      dup2\n      dup2\n      lt\n      tag_435\n      jumpi\n      pop\n      pop\n      pop\n      swap1\n      jump\t// out\n    tag_435:\n      dup3\n      mload\n      dup5\n      mstore\n      0x20\n      swap4\n      dup5\n      add\n      swap4\n      swap1\n      swap3\n      add\n      swap2\n      0x01\n      add\n      jump(tag_434)\n    tag_5:\n      0x40\n      swap1\n      not(0x03)\n      add\n      slt\n      tag_63\n      jumpi\n      calldataload(0x04)\n      swap1\n      calldataload(0x24)\n      sub(shl(0xa0, 0x01), 0x01)\n      dup2\n      and\n      dup2\n      sub\n      tag_63\n      jumpi\n      swap1\n      jump\t// out\n    tag_6:\n      swap1\n      dup1\n      0x1f\n      dup4\n      add\n      slt\n      iszero\n      tag_63\n      jumpi\n      dup2\n      calldataload\n      swap2\n      sub(shl(0x40, 0x01), 0x01)\n      dup4\n      gt\n      tag_139\n      jumpi\n      dup3\n      0x05\n      shl\n      swap1\n      0x20\n      dup3\n      add\n      swap4\n      tag_445\n      mload(0x40)\n      swap6\n      dup7\n      tag_2\n      jump\t// in\n    tag_445:\n      dup5\n      mstore\n      0x20\n      dup1\n      dup6\n      add\n      swap3\n      dup3\n      add\n      add\n      swap3\n      dup4\n      gt\n      tag_63\n      jumpi\n      0x20\n      add\n      swap1\n    tag_448:\n      dup3\n      dup3\n      lt\n      tag_449\n      jumpi\n      pop\n      pop\n      pop\n      swap1\n      jump\t// out\n    tag_449:\n      dup2\n      calldataload\n      dup2\n      mstore\n      0x20\n      swap2\n      dup3\n      add\n      swap2\n      add\n      jump(tag_448)\n    tag_7:\n      iszero\n      tag_451\n      jumpi\n      jump\t// out\n    tag_451:\n      mload(0x40)\n      shl(0xe5, 0x461bcd)\n      dup2\n      mstore\n      0x20\n      0x04\n      dup3\n      add\n      mstore\n      0x1e\n      0x24\n      dup3\n      add\n      mstore\n      0x50617469656e74207265636f726420646f6573206e6f742065786973742e0000\n      0x44\n      dup3\n      add\n      mstore\n      0x64\n      swap1\n      revert\n    tag_8:\n      iszero\n      tag_453\n      jumpi\n      jump\t// out\n    tag_453:\n      mload(0x40)\n      shl(0xe5, 0x461bcd)\n      dup2\n      mstore\n      0x20\n      0x04\n      dup3\n      add\n      mstore\n      0x19\n      0x24\n      dup3\n      add\n      mstore\n      0x4e6f7420617574686f72697a656420746f207665726966792e00000000000000\n      0x44\n      dup3\n      add\n      mstore\n      0x64\n      swap1\n      revert\n    tag_9:\n      dup1\n      sload\n      dup3\n      lt\n      iszero\n      tag_455\n      jumpi\n      0x00\n      mstore\n      keccak256(0x00, 0x20)\n      add\n      swap1\n      0x00\n      swap1\n      jump\t// out\n    tag_455:\n      mstore(0x00, shl(0xe0, 0x4e487b71))\n      mstore(0x04, 0x32)\n      revert(0x00, 0x24)\n        /* \"hsh.sol\":9501:10178  function verifyvaccinationRecordsHash(uint256 _patientId, bytes32 _proof) public view returns (bool) {... */\n    tag_10:\n        /* \"hsh.sol\":9613:9682  require(_patientId < nextPatientId, \"Patient record does not exist.\") */\n      tag_457\n        /* \"hsh.sol\":9634:9647  nextPatientId */\n      0x01\n        /* \"hsh.sol\":61:16088  contract hsh {... */\n      sload\n        /* \"hsh.sol\":9621:9647  _patientId < nextPatientId */\n      dup3\n      lt\n        /* \"hsh.sol\":9613:9682  require(_patientId < nextPatientId, \"Patient record does not exist.\") */\n      tag_7\n      jump\t// in\n    tag_457:\n        /* \"hsh.sol\":61:16088  contract hsh {... */\n      0x00\n      mstore\n      mstore(0x20, 0x00)\n      keccak256(0x00, 0x40)\n        /* \"hsh.sol\":9822:9831  tx.origin */\n      swap1\n      origin\n        /* \"hsh.sol\":9808:9818  msg.sender */\n      caller\n        /* \"hsh.sol\":9808:9831  msg.sender == tx.origin */\n      eq\n        /* \"hsh.sol\":9808:9867  msg.sender == tx.origin || isAuthorized(record, msg.sender) */\n      dup1\n      iszero\n      tag_458\n      jumpi\n        /* \"hsh.sol\":9501:10178  function verifyvaccinationRecordsHash(uint256 _patientId, bytes32 _proof) public view returns (bool) {... */\n    tag_459:\n        /* \"hsh.sol\":9786:9920  require(... */\n      tag_460\n      swap1\n      tag_8\n      jump\t// in\n    tag_460:\n        /* \"hsh.sol\":9956:9985  record.vaccinationRecordsHash */\n      0x0f\n        /* \"hsh.sol\":61:16088  contract hsh {... */\n      0x00\n        /* \"hsh.sol\":9956:9985  record.vaccinationRecordsHash */\n      swap3\n      add\n        /* \"hsh.sol\":61:16088  contract hsh {... */\n      swap1\n      dup2\n      sload\n        /* \"hsh.sol\":9932:10148  for (uint256 i = 0; i < record.vaccinationRecordsHash.length; i++) {... */\n      swap3\n        /* \"hsh.sol\":9952:9992  i < record.vaccinationRecordsHash.length */\n    tag_461:\n      dup4\n      dup2\n      lt\n      tag_462\n      jumpi\n        /* \"hsh.sol\":10158:10170  return false */\n      pop\n      pop\n      pop\n      pop\n        /* \"hsh.sol\":61:16088  contract hsh {... */\n      0x00\n        /* \"hsh.sol\":9501:10178  function verifyvaccinationRecordsHash(uint256 _patientId, bytes32 _proof) public view returns (bool) {... */\n      swap1\n      jump\t// out\n        /* \"hsh.sol\":9994:9997  i++ */\n    tag_462:\n        /* \"hsh.sol\":61:16088  contract hsh {... */\n      mload(0x40)\n      0x20\n        /* \"hsh.sol\":10028:10052  abi.encodePacked(_proof) */\n      dup2\n      add\n        /* \"hsh.sol\":61:16088  contract hsh {... */\n      swap1\n      dup4\n      dup3\n      mstore\n      0x20\n        /* \"hsh.sol\":10028:10052  abi.encodePacked(_proof) */\n      dup2\n      mstore\n      tag_464\n        /* \"hsh.sol\":61:16088  contract hsh {... */\n      0x40\n        /* \"hsh.sol\":10028:10052  abi.encodePacked(_proof) */\n      dup3\n      tag_2\n      jump\t// in\n    tag_464:\n        /* \"hsh.sol\":61:16088  contract hsh {... */\n      mload\n        /* \"hsh.sol\":10018:10053  keccak256(abi.encodePacked(_proof)) */\n      swap1\n      keccak256\n        /* \"hsh.sol\":10057:10089  record.vaccinationRecordsHash[i] */\n      tag_465\n      dup3\n      dup6\n      tag_9\n      jump\t// in\n    tag_465:\n        /* \"hsh.sol\":61:16088  contract hsh {... */\n      swap1\n      sload\n      swap1\n      0x03\n      shl\n      shr\n        /* \"hsh.sol\":10018:10089  keccak256(abi.encodePacked(_proof)) == record.vaccinationRecordsHash[i] */\n      eq\n        /* \"hsh.sol\":10014:10137  if (keccak256(abi.encodePacked(_proof)) == record.vaccinationRecordsHash[i]) {... */\n      tag_466\n      jumpi\n        /* \"hsh.sol\":9634:9647  nextPatientId */\n      0x01\n        /* \"hsh.sol\":61:16088  contract hsh {... */\n      add\n        /* \"hsh.sol\":9937:9950  uint256 i = 0 */\n      jump(tag_461)\n        /* \"hsh.sol\":10014:10137  if (keccak256(abi.encodePacked(_proof)) == record.vaccinationRecordsHash[i]) {... */\n    tag_466:\n        /* \"hsh.sol\":10110:10121  return true */\n      pop\n      pop\n      pop\n      pop\n        /* \"hsh.sol\":9634:9647  nextPatientId */\n      0x01\n        /* \"hsh.sol\":10110:10121  return true */\n      swap1\n      jump\t// out\n        /* \"hsh.sol\":9808:9867  msg.sender == tx.origin || isAuthorized(record, msg.sender) */\n    tag_458:\n        /* \"hsh.sol\":9808:9818  msg.sender */\n      pop\n        /* \"hsh.sol\":9786:9920  require(... */\n      tag_460\n        /* \"hsh.sol\":9835:9867  isAuthorized(record, msg.sender) */\n      tag_468\n        /* \"hsh.sol\":9808:9818  msg.sender */\n      caller\n        /* \"hsh.sol\":9835:9867  isAuthorized(record, msg.sender) */\n      dup5\n      tag_18\n      jump\t// in\n    tag_468:\n        /* \"hsh.sol\":9808:9867  msg.sender == tx.origin || isAuthorized(record, msg.sender) */\n      swap1\n      pop\n      jump(tag_459)\n        /* \"hsh.sol\":61:16088  contract hsh {... */\n    tag_11:\n      swap1\n      mload(0x40)\n      swap2\n      dup3\n      dup2\n      sload\n      swap2\n      dup3\n      dup3\n      mstore\n      0x20\n      dup3\n      add\n      swap1\n      0x00\n      mstore\n      keccak256(0x00, 0x20)\n      swap3\n      0x00\n    tag_469:\n      dup2\n      dup2\n      lt\n      tag_470\n      jumpi\n      pop\n      pop\n      tag_472\n      swap3\n      pop\n      sub\n      dup4\n      tag_2\n      jump\t// in\n    tag_472:\n      jump\t// out\n    tag_470:\n      dup5\n      sload\n      dup4\n      mstore\n      0x01\n      swap5\n      dup6\n      add\n      swap5\n      dup8\n      swap5\n      pop\n      0x20\n      swap1\n      swap4\n      add\n      swap3\n      add\n      jump(tag_469)\n        /* \"hsh.sol\":8828:9487  function verifyorganDonorStatus(uint256 _patientId, bytes32 _proof) public view returns (bool) {... */\n    tag_12:\n        /* \"hsh.sol\":8934:9003  require(_patientId < nextPatientId, \"Patient record does not exist.\") */\n      tag_473\n        /* \"hsh.sol\":8955:8968  nextPatientId */\n      0x01\n        /* \"hsh.sol\":61:16088  contract hsh {... */\n      sload\n        /* \"hsh.sol\":8942:8968  _patientId < nextPatientId */\n      dup3\n      lt\n        /* \"hsh.sol\":8934:9003  require(_patientId < nextPatientId, \"Patient record does not exist.\") */\n      tag_7\n      jump\t// in\n    tag_473:\n        /* \"hsh.sol\":61:16088  contract hsh {... */\n      0x00\n      mstore\n      mstore(0x20, 0x00)\n      keccak256(0x00, 0x40)\n        /* \"hsh.sol\":9143:9152  tx.origin */\n      swap1\n      origin\n        /* \"hsh.sol\":9129:9139  msg.sender */\n      caller\n        /* \"hsh.sol\":9129:9152  msg.sender == tx.origin */\n      eq\n        /* \"hsh.sol\":9129:9188  msg.sender == tx.origin || isAuthorized(record, msg.sender) */\n      dup1\n      iszero\n      tag_474\n      jumpi\n        /* \"hsh.sol\":8828:9487  function verifyorganDonorStatus(uint256 _patientId, bytes32 _proof) public view returns (bool) {... */\n    tag_475:\n        /* \"hsh.sol\":9107:9241  require(... */\n      tag_476\n      swap1\n      tag_8\n      jump\t// in\n    tag_476:\n        /* \"hsh.sol\":9277:9300  record.organDonorStatus */\n      0x0e\n        /* \"hsh.sol\":61:16088  contract hsh {... */\n      0x00\n        /* \"hsh.sol\":9277:9300  record.organDonorStatus */\n      swap3\n      add\n        /* \"hsh.sol\":61:16088  contract hsh {... */\n      swap1\n      dup2\n      sload\n        /* \"hsh.sol\":9253:9457  for (uint256 i = 0; i < record.organDonorStatus.length; i++) {... */\n      swap3\n        /* \"hsh.sol\":9273:9307  i < record.organDonorStatus.length */\n    tag_477:\n      dup4\n      dup2\n      lt\n      tag_478\n      jumpi\n        /* \"hsh.sol\":9467:9479  return false */\n      pop\n      pop\n      pop\n      pop\n        /* \"hsh.sol\":61:16088  contract hsh {... */\n      0x00\n        /* \"hsh.sol\":8828:9487  function verifyorganDonorStatus(uint256 _patientId, bytes32 _proof) public view returns (bool) {... */\n      swap1\n      jump\t// out\n        /* \"hsh.sol\":9309:9312  i++ */\n    tag_478:\n        /* \"hsh.sol\":61:16088  contract hsh {... */\n      mload(0x40)\n      0x20\n        /* \"hsh.sol\":9343:9367  abi.encodePacked(_proof) */\n      dup2\n      add\n        /* \"hsh.sol\":61:16088  contract hsh {... */\n      swap1\n      dup4\n      dup3\n      mstore\n      0x20\n        /* \"hsh.sol\":9343:9367  abi.encodePacked(_proof) */\n      dup2\n      mstore\n      tag_480\n        /* \"hsh.sol\":61:16088  contract hsh {... */\n      0x40\n        /* \"hsh.sol\":9343:9367  abi.encodePacked(_proof) */\n      dup3\n      tag_2\n      jump\t// in\n    tag_480:\n        /* \"hsh.sol\":61:16088  contract hsh {... */\n      mload\n        /* \"hsh.sol\":9333:9368  keccak256(abi.encodePacked(_proof)) */\n      swap1\n      keccak256\n        /* \"hsh.sol\":9372:9398  record.organDonorStatus[i] */\n      tag_481\n      dup3\n      dup6\n      tag_9\n      jump\t// in\n    tag_481:\n        /* \"hsh.sol\":61:16088  contract hsh {... */\n      swap1\n      sload\n      swap1\n      0x03\n      shl\n      shr\n        /* \"hsh.sol\":9333:9398  keccak256(abi.encodePacked(_proof)) == record.organDonorStatus[i] */\n      eq\n        /* \"hsh.sol\":9329:9446  if (keccak256(abi.encodePacked(_proof)) == record.organDonorStatus[i]) {... */\n      tag_466\n      jumpi\n        /* \"hsh.sol\":8955:8968  nextPatientId */\n      0x01\n        /* \"hsh.sol\":61:16088  contract hsh {... */\n      add\n        /* \"hsh.sol\":9258:9271  uint256 i = 0 */\n      jump(tag_477)\n        /* \"hsh.sol\":9129:9188  msg.sender == tx.origin || isAuthorized(record, msg.sender) */\n    tag_474:\n        /* \"hsh.sol\":9129:9139  msg.sender */\n      pop\n        /* \"hsh.sol\":9107:9241  require(... */\n      tag_476\n        /* \"hsh.sol\":9156:9188  isAuthorized(record, msg.sender) */\n      tag_484\n        /* \"hsh.sol\":9129:9139  msg.sender */\n      caller\n        /* \"hsh.sol\":9156:9188  isAuthorized(record, msg.sender) */\n      dup5\n      tag_18\n      jump\t// in\n    tag_484:\n        /* \"hsh.sol\":9129:9188  msg.sender == tx.origin || isAuthorized(record, msg.sender) */\n      swap1\n      pop\n      jump(tag_475)\n        /* \"hsh.sol\":8162:8814  function verifyMedications(uint256 _patientId, bytes32 _proof) public view returns (bool) {... */\n    tag_13:\n        /* \"hsh.sol\":8263:8332  require(_patientId < nextPatientId, \"Patient record does not exist.\") */\n      tag_485\n        /* \"hsh.sol\":8284:8297  nextPatientId */\n      0x01\n        /* \"hsh.sol\":61:16088  contract hsh {... */\n      sload\n        /* \"hsh.sol\":8271:8297  _patientId < nextPatientId */\n      dup3\n      lt\n        /* \"hsh.sol\":8263:8332  require(_patientId < nextPatientId, \"Patient record does not exist.\") */\n      tag_7\n      jump\t// in\n    tag_485:\n        /* \"hsh.sol\":61:16088  contract hsh {... */\n      0x00\n      mstore\n      mstore(0x20, 0x00)\n      keccak256(0x00, 0x40)\n        /* \"hsh.sol\":8472:8481  tx.origin */\n      swap1\n      origin\n        /* \"hsh.sol\":8458:8468  msg.sender */\n      caller\n        /* \"hsh.sol\":8458:8481  msg.sender == tx.origin */\n      eq\n        /* \"hsh.sol\":8458:8517  msg.sender == tx.origin || isAuthorized(record, msg.sender) */\n      dup1\n      iszero\n      tag_486\n      jumpi\n        /* \"hsh.sol\":8162:8814  function verifyMedications(uint256 _patientId, bytes32 _proof) public view returns (bool) {... */\n    tag_487:\n        /* \"hsh.sol\":8436:8570  require(... */\n      tag_488\n      swap1\n      tag_8\n      jump\t// in\n    tag_488:\n        /* \"hsh.sol\":8606:8628  record.medicationsHash */\n      0x0c\n        /* \"hsh.sol\":61:16088  contract hsh {... */\n      0x00\n        /* \"hsh.sol\":8606:8628  record.medicationsHash */\n      swap3\n      add\n        /* \"hsh.sol\":61:16088  contract hsh {... */\n      swap1\n      dup2\n      sload\n        /* \"hsh.sol\":8582:8784  for (uint256 i = 0; i < record.medicationsHash.length; i++) {... */\n      swap3\n        /* \"hsh.sol\":8602:8635  i < record.medicationsHash.length */\n    tag_489:\n      dup4\n      dup2\n      lt\n      tag_490\n      jumpi\n        /* \"hsh.sol\":8794:8806  return false */\n      pop\n      pop\n      pop\n      pop\n        /* \"hsh.sol\":61:16088  contract hsh {... */\n      0x00\n        /* \"hsh.sol\":8162:8814  function verifyMedications(uint256 _patientId, bytes32 _proof) public view returns (bool) {... */\n      swap1\n      jump\t// out\n        /* \"hsh.sol\":8637:8640  i++ */\n    tag_490:\n        /* \"hsh.sol\":61:16088  contract hsh {... */\n      mload(0x40)\n      0x20\n        /* \"hsh.sol\":8671:8695  abi.encodePacked(_proof) */\n      dup2\n      add\n        /* \"hsh.sol\":61:16088  contract hsh {... */\n      swap1\n      dup4\n      dup3\n      mstore\n      0x20\n        /* \"hsh.sol\":8671:8695  abi.encodePacked(_proof) */\n      dup2\n      mstore\n      tag_492\n        /* \"hsh.sol\":61:16088  contract hsh {... */\n      0x40\n        /* \"hsh.sol\":8671:8695  abi.encodePacked(_proof) */\n      dup3\n      tag_2\n      jump\t// in\n    tag_492:\n        /* \"hsh.sol\":61:16088  contract hsh {... */\n      mload\n        /* \"hsh.sol\":8661:8696  keccak256(abi.encodePacked(_proof)) */\n      swap1\n      keccak256\n        /* \"hsh.sol\":8700:8725  record.medicationsHash[i] */\n      tag_493\n      dup3\n      dup6\n      tag_9\n      jump\t// in\n    tag_493:\n        /* \"hsh.sol\":61:16088  contract hsh {... */\n      swap1\n      sload\n      swap1\n      0x03\n      shl\n      shr\n        /* \"hsh.sol\":8661:8725  keccak256(abi.encodePacked(_proof)) == record.medicationsHash[i] */\n      eq\n        /* \"hsh.sol\":8657:8773  if (keccak256(abi.encodePacked(_proof)) == record.medicationsHash[i]) {... */\n      tag_466\n      jumpi\n        /* \"hsh.sol\":8284:8297  nextPatientId */\n      0x01\n        /* \"hsh.sol\":61:16088  contract hsh {... */\n      add\n        /* \"hsh.sol\":8587:8600  uint256 i = 0 */\n      jump(tag_489)\n        /* \"hsh.sol\":8458:8517  msg.sender == tx.origin || isAuthorized(record, msg.sender) */\n    tag_486:\n        /* \"hsh.sol\":8458:8468  msg.sender */\n      pop\n        /* \"hsh.sol\":8436:8570  require(... */\n      tag_488\n        /* \"hsh.sol\":8485:8517  isAuthorized(record, msg.sender) */\n      tag_496\n        /* \"hsh.sol\":8458:8468  msg.sender */\n      caller\n        /* \"hsh.sol\":8485:8517  isAuthorized(record, msg.sender) */\n      dup5\n      tag_18\n      jump\t// in\n    tag_496:\n        /* \"hsh.sol\":8458:8517  msg.sender == tx.origin || isAuthorized(record, msg.sender) */\n      swap1\n      pop\n      jump(tag_487)\n        /* \"hsh.sol\":6826:7473  function verifyAllergy(uint256 _patientId, bytes32 _proof) public view returns (bool) {... */\n    tag_15:\n        /* \"hsh.sol\":6923:6992  require(_patientId < nextPatientId, \"Patient record does not exist.\") */\n      tag_497\n        /* \"hsh.sol\":6944:6957  nextPatientId */\n      0x01\n        /* \"hsh.sol\":61:16088  contract hsh {... */\n      sload\n        /* \"hsh.sol\":6931:6957  _patientId < nextPatientId */\n      dup3\n      lt\n        /* \"hsh.sol\":6923:6992  require(_patientId < nextPatientId, \"Patient record does not exist.\") */\n      tag_7\n      jump\t// in\n    tag_497:\n        /* \"hsh.sol\":61:16088  contract hsh {... */\n      0x00\n      mstore\n      mstore(0x20, 0x00)\n      keccak256(0x00, 0x40)\n        /* \"hsh.sol\":7126:7135  tx.origin */\n      swap1\n      origin\n        /* \"hsh.sol\":7112:7122  msg.sender */\n      caller\n        /* \"hsh.sol\":7112:7135  msg.sender == tx.origin */\n      eq\n        /* \"hsh.sol\":7112:7171  msg.sender == tx.origin || isAuthorized(record, msg.sender) */\n      dup1\n      iszero\n      tag_498\n      jumpi\n        /* \"hsh.sol\":6826:7473  function verifyAllergy(uint256 _patientId, bytes32 _proof) public view returns (bool) {... */\n    tag_499:\n        /* \"hsh.sol\":7090:7224  require(... */\n      tag_500\n      swap1\n      tag_8\n      jump\t// in\n    tag_500:\n        /* \"hsh.sol\":7269:7289  record.allergiesHash */\n      0x0a\n        /* \"hsh.sol\":61:16088  contract hsh {... */\n      0x00\n        /* \"hsh.sol\":7269:7289  record.allergiesHash */\n      swap3\n      add\n        /* \"hsh.sol\":61:16088  contract hsh {... */\n      swap1\n      dup2\n      sload\n        /* \"hsh.sol\":7245:7443  for (uint256 i = 0; i < record.allergiesHash.length; i++) {... */\n      swap3\n        /* \"hsh.sol\":7265:7296  i < record.allergiesHash.length */\n    tag_501:\n      dup4\n      dup2\n      lt\n      tag_502\n      jumpi\n        /* \"hsh.sol\":7453:7465  return false */\n      pop\n      pop\n      pop\n      pop\n        /* \"hsh.sol\":61:16088  contract hsh {... */\n      0x00\n        /* \"hsh.sol\":6826:7473  function verifyAllergy(uint256 _patientId, bytes32 _proof) public view returns (bool) {... */\n      swap1\n      jump\t// out\n        /* \"hsh.sol\":7298:7301  i++ */\n    tag_502:\n        /* \"hsh.sol\":61:16088  contract hsh {... */\n      mload(0x40)\n      0x20\n        /* \"hsh.sol\":7332:7356  abi.encodePacked(_proof) */\n      dup2\n      add\n        /* \"hsh.sol\":61:16088  contract hsh {... */\n      swap1\n      dup4\n      dup3\n      mstore\n      0x20\n        /* \"hsh.sol\":7332:7356  abi.encodePacked(_proof) */\n      dup2\n      mstore\n      tag_504\n        /* \"hsh.sol\":61:16088  contract hsh {... */\n      0x40\n        /* \"hsh.sol\":7332:7356  abi.encodePacked(_proof) */\n      dup3\n      tag_2\n      jump\t// in\n    tag_504:\n        /* \"hsh.sol\":61:16088  contract hsh {... */\n      mload\n        /* \"hsh.sol\":7322:7357  keccak256(abi.encodePacked(_proof)) */\n      swap1\n      keccak256\n        /* \"hsh.sol\":7361:7384  record.allergiesHash[i] */\n      tag_505\n      dup3\n      dup6\n      tag_9\n      jump\t// in\n    tag_505:\n        /* \"hsh.sol\":61:16088  contract hsh {... */\n      swap1\n      sload\n      swap1\n      0x03\n      shl\n      shr\n        /* \"hsh.sol\":7322:7384  keccak256(abi.encodePacked(_proof)) == record.allergiesHash[i] */\n      eq\n        /* \"hsh.sol\":7318:7432  if (keccak256(abi.encodePacked(_proof)) == record.allergiesHash[i]) {... */\n      tag_466\n      jumpi\n        /* \"hsh.sol\":6944:6957  nextPatientId */\n      0x01\n        /* \"hsh.sol\":61:16088  contract hsh {... */\n      add\n        /* \"hsh.sol\":7250:7263  uint256 i = 0 */\n      jump(tag_501)\n        /* \"hsh.sol\":7112:7171  msg.sender == tx.origin || isAuthorized(record, msg.sender) */\n    tag_498:\n        /* \"hsh.sol\":7112:7122  msg.sender */\n      pop\n        /* \"hsh.sol\":7090:7224  require(... */\n      tag_500\n        /* \"hsh.sol\":7139:7171  isAuthorized(record, msg.sender) */\n      tag_508\n        /* \"hsh.sol\":7112:7122  msg.sender */\n      caller\n        /* \"hsh.sol\":7139:7171  isAuthorized(record, msg.sender) */\n      dup5\n      tag_18\n      jump\t// in\n    tag_508:\n        /* \"hsh.sol\":7112:7171  msg.sender == tx.origin || isAuthorized(record, msg.sender) */\n      swap1\n      pop\n      jump(tag_499)\n        /* \"hsh.sol\":7487:8148  function verifyMedicalHistory(uint256 _patientId, bytes32 _proof) public view returns (bool) {... */\n    tag_16:\n        /* \"hsh.sol\":7591:7660  require(_patientId < nextPatientId, \"Patient record does not exist.\") */\n      tag_509\n        /* \"hsh.sol\":7612:7625  nextPatientId */\n      0x01\n        /* \"hsh.sol\":61:16088  contract hsh {... */\n      sload\n        /* \"hsh.sol\":7599:7625  _patientId < nextPatientId */\n      dup3\n      lt\n        /* \"hsh.sol\":7591:7660  require(_patientId < nextPatientId, \"Patient record does not exist.\") */\n      tag_7\n      jump\t// in\n    tag_509:\n        /* \"hsh.sol\":61:16088  contract hsh {... */\n      0x00\n      mstore\n      mstore(0x20, 0x00)\n      keccak256(0x00, 0x40)\n        /* \"hsh.sol\":7800:7809  tx.origin */\n      swap1\n      origin\n        /* \"hsh.sol\":7786:7796  msg.sender */\n      caller\n        /* \"hsh.sol\":7786:7809  msg.sender == tx.origin */\n      eq\n        /* \"hsh.sol\":7786:7845  msg.sender == tx.origin || isAuthorized(record, msg.sender) */\n      dup1\n      iszero\n      tag_510\n      jumpi\n        /* \"hsh.sol\":7487:8148  function verifyMedicalHistory(uint256 _patientId, bytes32 _proof) public view returns (bool) {... */\n    tag_511:\n        /* \"hsh.sol\":7764:7898  require(... */\n      tag_512\n      swap1\n      tag_8\n      jump\t// in\n    tag_512:\n        /* \"hsh.sol\":7934:7959  record.medicalHistoryHash */\n      0x0b\n        /* \"hsh.sol\":61:16088  contract hsh {... */\n      0x00\n        /* \"hsh.sol\":7934:7959  record.medicalHistoryHash */\n      swap3\n      add\n        /* \"hsh.sol\":61:16088  contract hsh {... */\n      swap1\n      dup2\n      sload\n        /* \"hsh.sol\":7910:8118  for (uint256 i = 0; i < record.medicalHistoryHash.length; i++) {... */\n      swap3\n        /* \"hsh.sol\":7930:7966  i < record.medicalHistoryHash.length */\n    tag_513:\n      dup4\n      dup2\n      lt\n      tag_514\n      jumpi\n        /* \"hsh.sol\":8128:8140  return false */\n      pop\n      pop\n      pop\n      pop\n        /* \"hsh.sol\":61:16088  contract hsh {... */\n      0x00\n        /* \"hsh.sol\":7487:8148  function verifyMedicalHistory(uint256 _patientId, bytes32 _proof) public view returns (bool) {... */\n      swap1\n      jump\t// out\n        /* \"hsh.sol\":7968:7971  i++ */\n    tag_514:\n        /* \"hsh.sol\":61:16088  contract hsh {... */\n      mload(0x40)\n      0x20\n        /* \"hsh.sol\":8002:8026  abi.encodePacked(_proof) */\n      dup2\n      add\n        /* \"hsh.sol\":61:16088  contract hsh {... */\n      swap1\n      dup4\n      dup3\n      mstore\n      0x20\n        /* \"hsh.sol\":8002:8026  abi.encodePacked(_proof) */\n      dup2\n      mstore\n      tag_516\n        /* \"hsh.sol\":61:16088  contract hsh {... */\n      0x40\n        /* \"hsh.sol\":8002:8026  abi.encodePacked(_proof) */\n      dup3\n      tag_2\n      jump\t// in\n    tag_516:\n        /* \"hsh.sol\":61:16088  contract hsh {... */\n      mload\n        /* \"hsh.sol\":7992:8027  keccak256(abi.encodePacked(_proof)) */\n      swap1\n      keccak256\n        /* \"hsh.sol\":8031:8059  record.medicalHistoryHash[i] */\n      tag_517\n      dup3\n      dup6\n      tag_9\n      jump\t// in\n    tag_517:\n        /* \"hsh.sol\":61:16088  contract hsh {... */\n      swap1\n      sload\n      swap1\n      0x03\n      shl\n      shr\n        /* \"hsh.sol\":7992:8059  keccak256(abi.encodePacked(_proof)) == record.medicalHistoryHash[i] */\n      eq\n        /* \"hsh.sol\":7988:8107  if (keccak256(abi.encodePacked(_proof)) == record.medicalHistoryHash[i]) {... */\n      tag_466\n      jumpi\n        /* \"hsh.sol\":7612:7625  nextPatientId */\n      0x01\n        /* \"hsh.sol\":61:16088  contract hsh {... */\n      add\n        /* \"hsh.sol\":7915:7928  uint256 i = 0 */\n      jump(tag_513)\n        /* \"hsh.sol\":7786:7845  msg.sender == tx.origin || isAuthorized(record, msg.sender) */\n    tag_510:\n        /* \"hsh.sol\":7786:7796  msg.sender */\n      pop\n        /* \"hsh.sol\":7764:7898  require(... */\n      tag_512\n        /* \"hsh.sol\":7813:7845  isAuthorized(record, msg.sender) */\n      tag_520\n        /* \"hsh.sol\":7786:7796  msg.sender */\n      caller\n        /* \"hsh.sol\":7813:7845  isAuthorized(record, msg.sender) */\n      dup5\n      tag_18\n      jump\t// in\n    tag_520:\n        /* \"hsh.sol\":7786:7845  msg.sender == tx.origin || isAuthorized(record, msg.sender) */\n      swap1\n      pop\n      jump(tag_511)\n        /* \"hsh.sol\":10706:11383  function verifywearableDeviceDataHash(uint256 _patientId, bytes32 _proof) public view returns (bool) {... */\n    tag_17:\n        /* \"hsh.sol\":10818:10887  require(_patientId < nextPatientId, \"Patient record does not exist.\") */\n      tag_521\n        /* \"hsh.sol\":10839:10852  nextPatientId */\n      0x01\n        /* \"hsh.sol\":61:16088  contract hsh {... */\n      sload\n        /* \"hsh.sol\":10826:10852  _patientId < nextPatientId */\n      dup3\n      lt\n        /* \"hsh.sol\":10818:10887  require(_patientId < nextPatientId, \"Patient record does not exist.\") */\n      tag_7\n      jump\t// in\n    tag_521:\n        /* \"hsh.sol\":61:16088  contract hsh {... */\n      0x00\n      mstore\n      mstore(0x20, 0x00)\n      keccak256(0x00, 0x40)\n        /* \"hsh.sol\":11027:11036  tx.origin */\n      swap1\n      origin\n        /* \"hsh.sol\":11013:11023  msg.sender */\n      caller\n        /* \"hsh.sol\":11013:11036  msg.sender == tx.origin */\n      eq\n        /* \"hsh.sol\":11013:11072  msg.sender == tx.origin || isAuthorized(record, msg.sender) */\n      dup1\n      iszero\n      tag_522\n      jumpi\n        /* \"hsh.sol\":10706:11383  function verifywearableDeviceDataHash(uint256 _patientId, bytes32 _proof) public view returns (bool) {... */\n    tag_523:\n        /* \"hsh.sol\":10991:11125  require(... */\n      tag_524\n      swap1\n      tag_8\n      jump\t// in\n    tag_524:\n        /* \"hsh.sol\":11161:11190  record.wearableDeviceDataHash */\n      0x12\n        /* \"hsh.sol\":61:16088  contract hsh {... */\n      0x00\n        /* \"hsh.sol\":11161:11190  record.wearableDeviceDataHash */\n      swap3\n      add\n        /* \"hsh.sol\":61:16088  contract hsh {... */\n      swap1\n      dup2\n      sload\n        /* \"hsh.sol\":11137:11353  for (uint256 i = 0; i < record.wearableDeviceDataHash.length; i++) {... */\n      swap3\n        /* \"hsh.sol\":11157:11197  i < record.wearableDeviceDataHash.length */\n    tag_525:\n      dup4\n      dup2\n      lt\n      tag_526\n      jumpi\n        /* \"hsh.sol\":11363:11375  return false */\n      pop\n      pop\n      pop\n      pop\n        /* \"hsh.sol\":61:16088  contract hsh {... */\n      0x00\n        /* \"hsh.sol\":10706:11383  function verifywearableDeviceDataHash(uint256 _patientId, bytes32 _proof) public view returns (bool) {... */\n      swap1\n      jump\t// out\n        /* \"hsh.sol\":11199:11202  i++ */\n    tag_526:\n        /* \"hsh.sol\":61:16088  contract hsh {... */\n      mload(0x40)\n      0x20\n        /* \"hsh.sol\":11233:11257  abi.encodePacked(_proof) */\n      dup2\n      add\n        /* \"hsh.sol\":61:16088  contract hsh {... */\n      swap1\n      dup4\n      dup3\n      mstore\n      0x20\n        /* \"hsh.sol\":11233:11257  abi.encodePacked(_proof) */\n      dup2\n      mstore\n      tag_528\n        /* \"hsh.sol\":61:16088  contract hsh {... */\n      0x40\n        /* \"hsh.sol\":11233:11257  abi.encodePacked(_proof) */\n      dup3\n      tag_2\n      jump\t// in\n    tag_528:\n        /* \"hsh.sol\":61:16088  contract hsh {... */\n      mload\n        /* \"hsh.sol\":11223:11258  keccak256(abi.encodePacked(_proof)) */\n      swap1\n      keccak256\n        /* \"hsh.sol\":11262:11294  record.wearableDeviceDataHash[i] */\n      tag_529\n      dup3\n      dup6\n      tag_9\n      jump\t// in\n    tag_529:\n        /* \"hsh.sol\":61:16088  contract hsh {... */\n      swap1\n      sload\n      swap1\n      0x03\n      shl\n      shr\n        /* \"hsh.sol\":11223:11294  keccak256(abi.encodePacked(_proof)) == record.wearableDeviceDataHash[i] */\n      eq\n        /* \"hsh.sol\":11219:11342  if (keccak256(abi.encodePacked(_proof)) == record.wearableDeviceDataHash[i]) {... */\n      tag_466\n      jumpi\n        /* \"hsh.sol\":10839:10852  nextPatientId */\n      0x01\n        /* \"hsh.sol\":61:16088  contract hsh {... */\n      add\n        /* \"hsh.sol\":11142:11155  uint256 i = 0 */\n      jump(tag_525)\n        /* \"hsh.sol\":11013:11072  msg.sender == tx.origin || isAuthorized(record, msg.sender) */\n    tag_522:\n        /* \"hsh.sol\":11013:11023  msg.sender */\n      pop\n        /* \"hsh.sol\":10991:11125  require(... */\n      tag_524\n        /* \"hsh.sol\":11040:11072  isAuthorized(record, msg.sender) */\n      tag_532\n        /* \"hsh.sol\":11013:11023  msg.sender */\n      caller\n        /* \"hsh.sol\":11040:11072  isAuthorized(record, msg.sender) */\n      dup5\n      tag_18\n      jump\t// in\n    tag_532:\n        /* \"hsh.sol\":11013:11072  msg.sender == tx.origin || isAuthorized(record, msg.sender) */\n      swap1\n      pop\n      jump(tag_523)\n        /* \"hsh.sol\":13071:13392  function isAuthorized(PatientRecord storage record, address _caller) internal view returns (bool) {... */\n    tag_18:\n      swap1\n        /* \"hsh.sol\":61:16088  contract hsh {... */\n      0x00\n        /* \"hsh.sol\":13239:13242  i++ */\n    tag_533:\n        /* \"hsh.sol\":13204:13230  record.authorizedProviders */\n      0x16\n      dup4\n      add\n        /* \"hsh.sol\":61:16088  contract hsh {... */\n      dup1\n      sload\n        /* \"hsh.sol\":13200:13237  i < record.authorizedProviders.length */\n      dup3\n      lt\n      iszero\n      tag_534\n      jumpi\n        /* \"hsh.sol\":13263:13292  record.authorizedProviders[i] */\n      dup2\n      tag_536\n      swap2\n      tag_9\n      jump\t// in\n    tag_536:\n        /* \"hsh.sol\":61:16088  contract hsh {... */\n      swap1\n      sload\n      0x03\n      swap2\n      swap1\n      swap2\n      shl\n      shr\n      sub(shl(0xa0, 0x01), 0x01)\n      swap1\n      dup2\n      and\n      swap1\n      dup4\n      and\n        /* \"hsh.sol\":13263:13303  record.authorizedProviders[i] == _caller */\n      eq\n        /* \"hsh.sol\":13259:13351  if (record.authorizedProviders[i] == _caller) {... */\n      tag_537\n      jumpi\n        /* \"hsh.sol\":61:16088  contract hsh {... */\n      0x01\n      add\n        /* \"hsh.sol\":13185:13198  uint256 i = 0 */\n      jump(tag_533)\n        /* \"hsh.sol\":13259:13351  if (record.authorizedProviders[i] == _caller) {... */\n    tag_537:\n        /* \"hsh.sol\":13324:13335  return true */\n      pop\n      pop\n      pop\n        /* \"hsh.sol\":61:16088  contract hsh {... */\n      0x01\n        /* \"hsh.sol\":13324:13335  return true */\n      swap1\n      jump\t// out\n        /* \"hsh.sol\":13200:13237  i < record.authorizedProviders.length */\n    tag_534:\n      pop\n      pop\n      pop\n      pop\n        /* \"hsh.sol\":61:16088  contract hsh {... */\n      0x00\n        /* \"hsh.sol\":13071:13392  function isAuthorized(PatientRecord storage record, address _caller) internal view returns (bool) {... */\n      swap1\n      jump\t// out\n\n    auxdata: 0xa264697066735822122043371bb8186b2e2916435cdddbb2441b137e0ef2f99ccf28fb8f09c43e9c31e264736f6c634300081a0033\n}\n",
				"bytecode": {
					"linkReferences": {},
					"object": "60808060405234601557611b88908161001a8239f35b5f80fdfe6101a06040526004361015610012575f80fd5b5f3560e01c80631f36bc11146114ec5780633c2bc6a11461127f578063403ae76014611243578063470038291461122a578063541ccefe1461121157806365dd152c1461113e5780637d6b63da14610ae15780637f153a3814610ac857806399473b6814610aaf578063b072215e14610a73578063b113179514610a56578063b1ddd00e146109dc578063b38deff014610981578063bb17c81514610945578063c556b6a814610909578063c73b6156146108cd578063d267124d14610855578063d3d188a11461072a578063d9a5ec1b14610609578063f23b525a146101285763ffe77a9c14610101575f80fd5b3461012457602061011a61011436611505565b90611a70565b6040519015158152f35b5f80fd5b346101245761028036600319011261012457600435610124356001600160401b0381116101245761015d903690600401611610565b90610144356001600160401b0381116101245761017e903690600401611610565b610164356001600160401b0381116101245761019e903690600401611610565b6101a4356001600160401b038111610124576101be903690600401611610565b906101c4356001600160401b038111610124576101df903690600401611610565b92610224356001600160401b03811161012457610200903690600401611610565b94805f525f60205260018060a01b03600160405f2001541633036105b45761022b6001548210611678565b5f525f60205260405f2095602435600288015560443560038801556064356004880155608435600588015560a435600688015560c435600788015560e4356008880155610104356009880155600a87018151916001600160401b03831161047e57600160401b831161047e57815483835580841061058e575b50602001905f5260205f205f5b83811061057a5750505050600b86018151916001600160401b03831161047e57600160401b831161047e578154838355808410610554575b50602001905f5260205f205f5b8381106105405750505050600c85018151916001600160401b03831161047e57600160401b831161047e57815483835580841061051a575b50602001905f5260205f205f5b838110610506575050505061018435600d850155600e84018151916001600160401b03831161047e57600160401b831161047e5781548383558084106104e0575b50602001905f5260205f205f5b8381106104cc5750505050600f83018151916001600160401b03831161047e57600160401b831161047e5781548383558084106104a6575b50602001905f5260205f205f5b8381106104925785856101e4356010830155610204356011830155601282018151916001600160401b03831161047e57600160401b831161047e578154838355808410610458575b50602001905f5260205f205f5b83811061044457610244356013860155610264356014860155426017860155005b600190602084519401938184015501610423565b825f528360205f2091820191015b8181106104735750610416565b5f8155600101610466565b634e487b7160e01b5f52604160045260245ffd5b6001906020845194019381840155016103ce565b825f528360205f2091820191015b8181106104c157506103c1565b5f81556001016104b4565b600190602084519401938184015501610389565b825f528360205f2091820191015b8181106104fb575061037c565b5f81556001016104ee565b60019060208451940193818401550161033b565b825f528360205f2091820191015b818110610535575061032e565b5f8155600101610528565b6001906020845194019381840155016102f6565b825f528360205f2091820191015b81811061056f57506102e9565b5f8155600101610562565b6001906020845194019381840155016102b1565b825f528360205f2091820191015b8181106105a957506102a4565b5f815560010161059c565b60405162461bcd60e51b815260206004820152602760248201527f4f6e6c79207468652070617469656e742063616e2075706461746520746865206044820152663932b1b7b9321760c91b6064820152608490fd5b3461012457610617366115ea565b906106256001548210611678565b5f908152602081905260408120601601916001600160a01b0316905b82548082101561072857826106568386611710565b905460039190911b1c6001600160a01b0316146106765750600101610641565b5f19810192508211610714576106ab6106926106cf9385611710565b905460039190911b1c6001600160a01b03169184611710565b81546001600160a01b0393841660039290921b91821b9390911b1916919091179055565b80548015610700575f1901906106e58282611710565b81546001600160a01b0360039290921b9190911b1916905555005b634e487b7160e01b5f52603160045260245ffd5b634e487b7160e01b5f52601160045260245ffd5b005b34610124576020366003190112610124576004355f525f602052601760156014601360116010600d6009600860076006600560046003600260405f209e8f9e8f9e8f9e8f9e8f9e8f9e8f9e8f9e8f9e8f9e8f9e8f9e8f9e8f9e8f549f60018060a01b0360018201541660c05201549f01549f01549f01549f01549f01549f01549f01549f01549f01549f01549f01549f01549f01549f015460805260405160a05260a0515260c051602060a0510152604060a0510152606060a0510152608060a051015260a08051015260c060a051015260e060a051015261010060a051015261012060a051015261014060a051015261016060a051015261018060a05101526101a060a05101526101c060a05101526101e060a051015260805161020060a051015261022060a051f35b3461012457602061086536611505565b906108736001548210611678565b5f525f8252600360405f209132331480156108b8575b610892906116c4565b6040518481019182528481526108a960408261151b565b51902091015414604051908152f35b506108926108c63385611b04565b9050610889565b346101245760206108dd36611505565b906108eb6001548210611678565b5f525f8252601160405f209132331480156108b857610892906116c4565b3461012457602061091936611505565b906109276001548210611678565b5f525f8252601460405f209132331480156108b857610892906116c4565b3461012457602061095536611505565b906109636001548210611678565b5f525f8252600260405f209132331480156108b857610892906116c4565b346101245761098f3661153c565b61099c6001548310611678565b6040516109c86020828180820195805191829101875e81015f838201520301601f19810183528261151b565b519020905f52600260205260405f20555f80f35b34610124576020366003190112610124576004356109fd6001548210611678565b5f525f60205260e060405f20600481015490600581015490600681015460088201546009830154916010600d85015494015494604051968752602087015260408601526060850152608084015260a083015260c0820152f35b34610124575f366003190112610124576020600154604051908152f35b34610124576020610a8336611505565b90610a916001548210611678565b5f525f8252601360405f209132331480156108b857610892906116c4565b3461012457602061011a610ac236611505565b906119dc565b3461012457602061011a610adb36611505565b90611948565b346101245761026036600319011261012457610104356001600160401b03811161012457610b13903690600401611610565b610124356001600160401b03811161012457610b33903690600401611610565b90610144356001600160401b03811161012457610b54903690600401611610565b91610184356001600160401b03811161012457610b75903690600401611610565b906101a4356001600160401b03811161012457610b96903690600401611610565b610204356001600160401b03811161012457610bb6903690600401611610565b906001549360209660405194610bcc898761151b565b5f86525f3681376040519761030089018981106001600160401b0382111761047e57604052878952338a8a015260043560408a015260243560608a015260443560808a015260643560a08a015260843560c08a015260a43560e08a015260c4356101008a015260e4356101208a0152610140890152610160880152610180870152610164356101a08701526101c08601526101e08501526101c4356102008501526101e43561022085015261024084015261022435610260840152610244356102808401525f6102a08401526102c0830152426102e08301525f525f825260405f2091815183556001830160018060a01b0382840151166bffffffffffffffffffffffff60a01b82541617905560408201516002840155606082015160038401556080820151600484015560a0820151600584015560c0820151600684015560e08201516007840155610100820151600884015561012082015160098401556101408201518051906001600160401b03821161047e57600160401b821161047e578290600a86015483600a880155808410611112575b5001600a85015f52825f205f5b8381106111005750505050600b8301610160830151908151916001600160401b03831161047e57600160401b831161047e57839082548484558085106110d8575b5001905f52825f205f5b8381106110c65750505050600c8301610180830151908151916001600160401b03831161047e57600160401b831161047e578390825484845580851061109e575b5001905f52825f205f5b83811061108c57505050506101a0820151600d840155600e83016101c0830151908151916001600160401b03831161047e57600160401b831161047e5783908254848455808510611064575b5001905f52825f205f5b8381106110525750505050600f83016101e0830151908151916001600160401b03831161047e57600160401b831161047e578390825484845580851061102a575b5001905f52825f205f5b83811061101857505050506102008201516010840155610220820151601184015560128301610240830151908151916001600160401b03831161047e57600160401b831161047e5783908254848455808510610ff0575b5001905f52825f205f5b838110610fde5750505050610260820151601384015561028082015160148401556102a08201516015840155601683016102c0830151918251926001600160401b03841161047e57600160401b841161047e5781908354858555808610610fb6575b5001915f52805f20905f5b848110610f9b576102e086015160178801556001545f198114610714576001016001555f80f35b83516001600160a01b03168382015592810192600101610f74565b845f5285835f2091820191015b818110610fd05750610f69565b5f8155849350600101610fc3565b82518282015591840191600101610f07565b835f5284835f2091820191015b81811061100a5750610efd565b5f8155869350600101610ffd565b82518282015591840191600101610ea6565b835f5284835f2091820191015b8181106110445750610e9c565b5f8155869350600101611037565b82518282015591840191600101610e5b565b835f5284835f2091820191015b81811061107e5750610e51565b5f8155869350600101611071565b82518282015591840191600101610e05565b835f5284835f2091820191015b8181106110b85750610dfb565b5f81558693506001016110ab565b82518282015591840191600101610dba565b835f5284835f2091820191015b8181106110f25750610db0565b5f81558693506001016110e5565b82518282015591840191600101610d6f565b600a87015f52825f20908482015b8183018110611130575050610d62565b5f8155869450600101611120565b346101245761114c366115ea565b9061115a6001548210611678565b5f908152602081905260408120601601805492916001600160a01b038316905b8481106111a2575050600160401b83101561047e57826106ab91600161072895018155611710565b816111ad8285611710565b905460039190911b1c6001600160a01b0316146111cc5760010161117a565b60405162461bcd60e51b815260206004820152601c60248201527f50726f766964657220616c726561647920686173206163636573732e000000006044820152606490fd5b3461012457602061011a61122436611505565b906118b4565b3461012457602061011a61123d36611505565b90611820565b3461012457602061125336611505565b906112616001548210611678565b5f525f8252600760405f209132331480156108b857610892906116c4565b346101245761128d3661153c565b61129a6001548310611678565b6040516112c66020828180820195805191829101875e81015f838201520301601f19810183528261151b565b519020815f52600260205260405f2054036114b8575f525f60205260405f206002810154906003810154610160526004810154610180526005810154906006810154926007820154600883015493600984015495600d85015492601086015497601187015497601388015461014052601488015461010052600a880161134b906117d6565b92611358600b8a016117d6565b94611365600c8b016117d6565b96611372600e8c016117d6565b9961137f600f8d016117d6565b9b60120161138c906117d6565b60e052604051610120526101205152610160516101205160200152610180516101205160400152610120516060015261012051608001526101205160a001526101205160c001526101205160e001526101205161010001610260905261012051610260016113f9916115b7565b610120518103610120516101200152611411916115b7565b610120518103610120516101400152611429916115b7565b9061012051610160015261012051810361012051610180015261144b916115b7565b610120518103610120516101a00152611463916115b7565b91610120516101c00152610120516101e0015261012051810361012051610200015260e05190611492916115b7565b610140516101205161022001526101005161012051610240015261012051900361012051f35b60405162461bcd60e51b815260206004820152600c60248201526b24b73b30b634b2102824a71760a11b6044820152606490fd5b3461012457602061011a6114ff36611505565b90611739565b6040906003190112610124576004359060243590565b90601f801991011681019081106001600160401b0382111761047e57604052565b90604060031983011261012457600435916024356001600160401b0381116101245781602382011215610124578060040135906001600160401b03821161047e5760405192611595601f8401601f19166020018561151b565b8284526024838301011161012457815f92602460209301838601378301015290565b90602080835192838152019201905f5b8181106115d45750505090565b82518452602093840193909201916001016115c7565b604090600319011261012457600435906024356001600160a01b03811681036101245790565b9080601f83011215610124578135916001600160401b03831161047e578260051b906020820193611644604051958661151b565b845260208085019282010192831161012457602001905b8282106116685750505090565b813581526020918201910161165b565b1561167f57565b60405162461bcd60e51b815260206004820152601e60248201527f50617469656e74207265636f726420646f6573206e6f742065786973742e00006044820152606490fd5b156116cb57565b60405162461bcd60e51b815260206004820152601960248201527f4e6f7420617574686f72697a656420746f207665726966792e000000000000006044820152606490fd5b8054821015611725575f5260205f2001905f90565b634e487b7160e01b5f52603260045260245ffd5b6117466001548210611678565b5f525f60205260405f209032331480156117c1575b611764906116c4565b600f5f9201908154925b83811061177d57505050505f90565b60405160208101908382526020815261179760408261151b565b5190206117a48285611710565b90549060031b1c146117b85760010161176e565b50505050600190565b506117646117cf3384611b04565b905061175b565b90604051918281549182825260208201905f5260205f20925f5b8181106118075750506118059250038361151b565b565b84548352600194850194879450602090930192016117f0565b61182d6001548210611678565b5f525f60205260405f2090323314801561189f575b61184b906116c4565b600e5f9201908154925b83811061186457505050505f90565b60405160208101908382526020815261187e60408261151b565b51902061188b8285611710565b90549060031b1c146117b857600101611855565b5061184b6118ad3384611b04565b9050611842565b6118c16001548210611678565b5f525f60205260405f20903233148015611933575b6118df906116c4565b600c5f9201908154925b8381106118f857505050505f90565b60405160208101908382526020815261191260408261151b565b51902061191f8285611710565b90549060031b1c146117b8576001016118e9565b506118df6119413384611b04565b90506118d6565b6119556001548210611678565b5f525f60205260405f209032331480156119c7575b611973906116c4565b600a5f9201908154925b83811061198c57505050505f90565b6040516020810190838252602081526119a660408261151b565b5190206119b38285611710565b90549060031b1c146117b85760010161197d565b506119736119d53384611b04565b905061196a565b6119e96001548210611678565b5f525f60205260405f20903233148015611a5b575b611a07906116c4565b600b5f9201908154925b838110611a2057505050505f90565b604051602081019083825260208152611a3a60408261151b565b519020611a478285611710565b90549060031b1c146117b857600101611a11565b50611a07611a693384611b04565b90506119fe565b611a7d6001548210611678565b5f525f60205260405f20903233148015611aef575b611a9b906116c4565b60125f9201908154925b838110611ab457505050505f90565b604051602081019083825260208152611ace60408261151b565b519020611adb8285611710565b90549060031b1c146117b857600101611aa5565b50611a9b611afd3384611b04565b9050611a92565b905f5b601683018054821015611b4a5781611b1e91611710565b905460039190911b1c6001600160a01b0390811690831614611b4257600101611b07565b505050600190565b505050505f9056fea264697066735822122043371bb8186b2e2916435cdddbb2441b137e0ef2f99ccf28fb8f09c43e9c31e264736f6c634300081a0033",
					"opcodes": "PUSH1 0x80 DUP1 PUSH1 0x40 MSTORE CALLVALUE PUSH1 0x15 JUMPI PUSH2 0x1B88 SWAP1 DUP2 PUSH2 0x1A DUP3 CODECOPY RETURN JUMPDEST PUSH0 DUP1 REVERT INVALID PUSH2 0x1A0 PUSH1 0x40 MSTORE PUSH1 0x4 CALLDATASIZE LT ISZERO PUSH2 0x12 JUMPI PUSH0 DUP1 REVERT JUMPDEST PUSH0 CALLDATALOAD PUSH1 0xE0 SHR DUP1 PUSH4 0x1F36BC11 EQ PUSH2 0x14EC JUMPI DUP1 PUSH4 0x3C2BC6A1 EQ PUSH2 0x127F JUMPI DUP1 PUSH4 0x403AE760 EQ PUSH2 0x1243 JUMPI DUP1 PUSH4 0x47003829 EQ PUSH2 0x122A JUMPI DUP1 PUSH4 0x541CCEFE EQ PUSH2 0x1211 JUMPI DUP1 PUSH4 0x65DD152C EQ PUSH2 0x113E JUMPI DUP1 PUSH4 0x7D6B63DA EQ PUSH2 0xAE1 JUMPI DUP1 PUSH4 0x7F153A38 EQ PUSH2 0xAC8 JUMPI DUP1 PUSH4 0x99473B68 EQ PUSH2 0xAAF JUMPI DUP1 PUSH4 0xB072215E EQ PUSH2 0xA73 JUMPI DUP1 PUSH4 0xB1131795 EQ PUSH2 0xA56 JUMPI DUP1 PUSH4 0xB1DDD00E EQ PUSH2 0x9DC JUMPI DUP1 PUSH4 0xB38DEFF0 EQ PUSH2 0x981 JUMPI DUP1 PUSH4 0xBB17C815 EQ PUSH2 0x945 JUMPI DUP1 PUSH4 0xC556B6A8 EQ PUSH2 0x909 JUMPI DUP1 PUSH4 0xC73B6156 EQ PUSH2 0x8CD JUMPI DUP1 PUSH4 0xD267124D EQ PUSH2 0x855 JUMPI DUP1 PUSH4 0xD3D188A1 EQ PUSH2 0x72A JUMPI DUP1 PUSH4 0xD9A5EC1B EQ PUSH2 0x609 JUMPI DUP1 PUSH4 0xF23B525A EQ PUSH2 0x128 JUMPI PUSH4 0xFFE77A9C EQ PUSH2 0x101 JUMPI PUSH0 DUP1 REVERT JUMPDEST CALLVALUE PUSH2 0x124 JUMPI PUSH1 0x20 PUSH2 0x11A PUSH2 0x114 CALLDATASIZE PUSH2 0x1505 JUMP JUMPDEST SWAP1 PUSH2 0x1A70 JUMP JUMPDEST PUSH1 0x40 MLOAD SWAP1 ISZERO ISZERO DUP2 MSTORE RETURN JUMPDEST PUSH0 DUP1 REVERT JUMPDEST CALLVALUE PUSH2 0x124 JUMPI PUSH2 0x280 CALLDATASIZE PUSH1 0x3 NOT ADD SLT PUSH2 0x124 JUMPI PUSH1 0x4 CALLDATALOAD PUSH2 0x124 CALLDATALOAD PUSH1 0x1 PUSH1 0x1 PUSH1 0x40 SHL SUB DUP2 GT PUSH2 0x124 JUMPI PUSH2 0x15D SWAP1 CALLDATASIZE SWAP1 PUSH1 0x4 ADD PUSH2 0x1610 JUMP JUMPDEST SWAP1 PUSH2 0x144 CALLDATALOAD PUSH1 0x1 PUSH1 0x1 PUSH1 0x40 SHL SUB DUP2 GT PUSH2 0x124 JUMPI PUSH2 0x17E SWAP1 CALLDATASIZE SWAP1 PUSH1 0x4 ADD PUSH2 0x1610 JUMP JUMPDEST PUSH2 0x164 CALLDATALOAD PUSH1 0x1 PUSH1 0x1 PUSH1 0x40 SHL SUB DUP2 GT PUSH2 0x124 JUMPI PUSH2 0x19E SWAP1 CALLDATASIZE SWAP1 PUSH1 0x4 ADD PUSH2 0x1610 JUMP JUMPDEST PUSH2 0x1A4 CALLDATALOAD PUSH1 0x1 PUSH1 0x1 PUSH1 0x40 SHL SUB DUP2 GT PUSH2 0x124 JUMPI PUSH2 0x1BE SWAP1 CALLDATASIZE SWAP1 PUSH1 0x4 ADD PUSH2 0x1610 JUMP JUMPDEST SWAP1 PUSH2 0x1C4 CALLDATALOAD PUSH1 0x1 PUSH1 0x1 PUSH1 0x40 SHL SUB DUP2 GT PUSH2 0x124 JUMPI PUSH2 0x1DF SWAP1 CALLDATASIZE SWAP1 PUSH1 0x4 ADD PUSH2 0x1610 JUMP JUMPDEST SWAP3 PUSH2 0x224 CALLDATALOAD PUSH1 0x1 PUSH1 0x1 PUSH1 0x40 SHL SUB DUP2 GT PUSH2 0x124 JUMPI PUSH2 0x200 SWAP1 CALLDATASIZE SWAP1 PUSH1 0x4 ADD PUSH2 0x1610 JUMP JUMPDEST SWAP5 DUP1 PUSH0 MSTORE PUSH0 PUSH1 0x20 MSTORE PUSH1 0x1 DUP1 PUSH1 0xA0 SHL SUB PUSH1 0x1 PUSH1 0x40 PUSH0 KECCAK256 ADD SLOAD AND CALLER SUB PUSH2 0x5B4 JUMPI PUSH2 0x22B PUSH1 0x1 SLOAD DUP3 LT PUSH2 0x1678 JUMP JUMPDEST PUSH0 MSTORE PUSH0 PUSH1 0x20 MSTORE PUSH1 0x40 PUSH0 KECCAK256 SWAP6 PUSH1 0x24 CALLDATALOAD PUSH1 0x2 DUP9 ADD SSTORE PUSH1 0x44 CALLDATALOAD PUSH1 0x3 DUP9 ADD SSTORE PUSH1 0x64 CALLDATALOAD PUSH1 0x4 DUP9 ADD SSTORE PUSH1 0x84 CALLDATALOAD PUSH1 0x5 DUP9 ADD SSTORE PUSH1 0xA4 CALLDATALOAD PUSH1 0x6 DUP9 ADD SSTORE PUSH1 0xC4 CALLDATALOAD PUSH1 0x7 DUP9 ADD SSTORE PUSH1 0xE4 CALLDATALOAD PUSH1 0x8 DUP9 ADD SSTORE PUSH2 0x104 CALLDATALOAD PUSH1 0x9 DUP9 ADD SSTORE PUSH1 0xA DUP8 ADD DUP2 MLOAD SWAP2 PUSH1 0x1 PUSH1 0x1 PUSH1 0x40 SHL SUB DUP4 GT PUSH2 0x47E JUMPI PUSH1 0x1 PUSH1 0x40 SHL DUP4 GT PUSH2 0x47E JUMPI DUP2 SLOAD DUP4 DUP4 SSTORE DUP1 DUP5 LT PUSH2 0x58E JUMPI JUMPDEST POP PUSH1 0x20 ADD SWAP1 PUSH0 MSTORE PUSH1 0x20 PUSH0 KECCAK256 PUSH0 JUMPDEST DUP4 DUP2 LT PUSH2 0x57A JUMPI POP POP POP POP PUSH1 0xB DUP7 ADD DUP2 MLOAD SWAP2 PUSH1 0x1 PUSH1 0x1 PUSH1 0x40 SHL SUB DUP4 GT PUSH2 0x47E JUMPI PUSH1 0x1 PUSH1 0x40 SHL DUP4 GT PUSH2 0x47E JUMPI DUP2 SLOAD DUP4 DUP4 SSTORE DUP1 DUP5 LT PUSH2 0x554 JUMPI JUMPDEST POP PUSH1 0x20 ADD SWAP1 PUSH0 MSTORE PUSH1 0x20 PUSH0 KECCAK256 PUSH0 JUMPDEST DUP4 DUP2 LT PUSH2 0x540 JUMPI POP POP POP POP PUSH1 0xC DUP6 ADD DUP2 MLOAD SWAP2 PUSH1 0x1 PUSH1 0x1 PUSH1 0x40 SHL SUB DUP4 GT PUSH2 0x47E JUMPI PUSH1 0x1 PUSH1 0x40 SHL DUP4 GT PUSH2 0x47E JUMPI DUP2 SLOAD DUP4 DUP4 SSTORE DUP1 DUP5 LT PUSH2 0x51A JUMPI JUMPDEST POP PUSH1 0x20 ADD SWAP1 PUSH0 MSTORE PUSH1 0x20 PUSH0 KECCAK256 PUSH0 JUMPDEST DUP4 DUP2 LT PUSH2 0x506 JUMPI POP POP POP POP PUSH2 0x184 CALLDATALOAD PUSH1 0xD DUP6 ADD SSTORE PUSH1 0xE DUP5 ADD DUP2 MLOAD SWAP2 PUSH1 0x1 PUSH1 0x1 PUSH1 0x40 SHL SUB DUP4 GT PUSH2 0x47E JUMPI PUSH1 0x1 PUSH1 0x40 SHL DUP4 GT PUSH2 0x47E JUMPI DUP2 SLOAD DUP4 DUP4 SSTORE DUP1 DUP5 LT PUSH2 0x4E0 JUMPI JUMPDEST POP PUSH1 0x20 ADD SWAP1 PUSH0 MSTORE PUSH1 0x20 PUSH0 KECCAK256 PUSH0 JUMPDEST DUP4 DUP2 LT PUSH2 0x4CC JUMPI POP POP POP POP PUSH1 0xF DUP4 ADD DUP2 MLOAD SWAP2 PUSH1 0x1 PUSH1 0x1 PUSH1 0x40 SHL SUB DUP4 GT PUSH2 0x47E JUMPI PUSH1 0x1 PUSH1 0x40 SHL DUP4 GT PUSH2 0x47E JUMPI DUP2 SLOAD DUP4 DUP4 SSTORE DUP1 DUP5 LT PUSH2 0x4A6 JUMPI JUMPDEST POP PUSH1 0x20 ADD SWAP1 PUSH0 MSTORE PUSH1 0x20 PUSH0 KECCAK256 PUSH0 JUMPDEST DUP4 DUP2 LT PUSH2 0x492 JUMPI DUP6 DUP6 PUSH2 0x1E4 CALLDATALOAD PUSH1 0x10 DUP4 ADD SSTORE PUSH2 0x204 CALLDATALOAD PUSH1 0x11 DUP4 ADD SSTORE PUSH1 0x12 DUP3 ADD DUP2 MLOAD SWAP2 PUSH1 0x1 PUSH1 0x1 PUSH1 0x40 SHL SUB DUP4 GT PUSH2 0x47E JUMPI PUSH1 0x1 PUSH1 0x40 SHL DUP4 GT PUSH2 0x47E JUMPI DUP2 SLOAD DUP4 DUP4 SSTORE DUP1 DUP5 LT PUSH2 0x458 JUMPI JUMPDEST POP PUSH1 0x20 ADD SWAP1 PUSH0 MSTORE PUSH1 0x20 PUSH0 KECCAK256 PUSH0 JUMPDEST DUP4 DUP2 LT PUSH2 0x444 JUMPI PUSH2 0x244 CALLDATALOAD PUSH1 0x13 DUP7 ADD SSTORE PUSH2 0x264 CALLDATALOAD PUSH1 0x14 DUP7 ADD SSTORE TIMESTAMP PUSH1 0x17 DUP7 ADD SSTORE STOP JUMPDEST PUSH1 0x1 SWAP1 PUSH1 0x20 DUP5 MLOAD SWAP5 ADD SWAP4 DUP2 DUP5 ADD SSTORE ADD PUSH2 0x423 JUMP JUMPDEST DUP3 PUSH0 MSTORE DUP4 PUSH1 0x20 PUSH0 KECCAK256 SWAP2 DUP3 ADD SWAP2 ADD JUMPDEST DUP2 DUP2 LT PUSH2 0x473 JUMPI POP PUSH2 0x416 JUMP JUMPDEST PUSH0 DUP2 SSTORE PUSH1 0x1 ADD PUSH2 0x466 JUMP JUMPDEST PUSH4 0x4E487B71 PUSH1 0xE0 SHL PUSH0 MSTORE PUSH1 0x41 PUSH1 0x4 MSTORE PUSH1 0x24 PUSH0 REVERT JUMPDEST PUSH1 0x1 SWAP1 PUSH1 0x20 DUP5 MLOAD SWAP5 ADD SWAP4 DUP2 DUP5 ADD SSTORE ADD PUSH2 0x3CE JUMP JUMPDEST DUP3 PUSH0 MSTORE DUP4 PUSH1 0x20 PUSH0 KECCAK256 SWAP2 DUP3 ADD SWAP2 ADD JUMPDEST DUP2 DUP2 LT PUSH2 0x4C1 JUMPI POP PUSH2 0x3C1 JUMP JUMPDEST PUSH0 DUP2 SSTORE PUSH1 0x1 ADD PUSH2 0x4B4 JUMP JUMPDEST PUSH1 0x1 SWAP1 PUSH1 0x20 DUP5 MLOAD SWAP5 ADD SWAP4 DUP2 DUP5 ADD SSTORE ADD PUSH2 0x389 JUMP JUMPDEST DUP3 PUSH0 MSTORE DUP4 PUSH1 0x20 PUSH0 KECCAK256 SWAP2 DUP3 ADD SWAP2 ADD JUMPDEST DUP2 DUP2 LT PUSH2 0x4FB JUMPI POP PUSH2 0x37C JUMP JUMPDEST PUSH0 DUP2 SSTORE PUSH1 0x1 ADD PUSH2 0x4EE JUMP JUMPDEST PUSH1 0x1 SWAP1 PUSH1 0x20 DUP5 MLOAD SWAP5 ADD SWAP4 DUP2 DUP5 ADD SSTORE ADD PUSH2 0x33B JUMP JUMPDEST DUP3 PUSH0 MSTORE DUP4 PUSH1 0x20 PUSH0 KECCAK256 SWAP2 DUP3 ADD SWAP2 ADD JUMPDEST DUP2 DUP2 LT PUSH2 0x535 JUMPI POP PUSH2 0x32E JUMP JUMPDEST PUSH0 DUP2 SSTORE PUSH1 0x1 ADD PUSH2 0x528 JUMP JUMPDEST PUSH1 0x1 SWAP1 PUSH1 0x20 DUP5 MLOAD SWAP5 ADD SWAP4 DUP2 DUP5 ADD SSTORE ADD PUSH2 0x2F6 JUMP JUMPDEST DUP3 PUSH0 MSTORE DUP4 PUSH1 0x20 PUSH0 KECCAK256 SWAP2 DUP3 ADD SWAP2 ADD JUMPDEST DUP2 DUP2 LT PUSH2 0x56F JUMPI POP PUSH2 0x2E9 JUMP JUMPDEST PUSH0 DUP2 SSTORE PUSH1 0x1 ADD PUSH2 0x562 JUMP JUMPDEST PUSH1 0x1 SWAP1 PUSH1 0x20 DUP5 MLOAD SWAP5 ADD SWAP4 DUP2 DUP5 ADD SSTORE ADD PUSH2 0x2B1 JUMP JUMPDEST DUP3 PUSH0 MSTORE DUP4 PUSH1 0x20 PUSH0 KECCAK256 SWAP2 DUP3 ADD SWAP2 ADD JUMPDEST DUP2 DUP2 LT PUSH2 0x5A9 JUMPI POP PUSH2 0x2A4 JUMP JUMPDEST PUSH0 DUP2 SSTORE PUSH1 0x1 ADD PUSH2 0x59C JUMP JUMPDEST PUSH1 0x40 MLOAD PUSH3 0x461BCD PUSH1 0xE5 SHL DUP2 MSTORE PUSH1 0x20 PUSH1 0x4 DUP3 ADD MSTORE PUSH1 0x27 PUSH1 0x24 DUP3 ADD MSTORE PUSH32 0x4F6E6C79207468652070617469656E742063616E207570646174652074686520 PUSH1 0x44 DUP3 ADD MSTORE PUSH7 0x3932B1B7B93217 PUSH1 0xC9 SHL PUSH1 0x64 DUP3 ADD MSTORE PUSH1 0x84 SWAP1 REVERT JUMPDEST CALLVALUE PUSH2 0x124 JUMPI PUSH2 0x617 CALLDATASIZE PUSH2 0x15EA JUMP JUMPDEST SWAP1 PUSH2 0x625 PUSH1 0x1 SLOAD DUP3 LT PUSH2 0x1678 JUMP JUMPDEST PUSH0 SWAP1 DUP2 MSTORE PUSH1 0x20 DUP2 SWAP1 MSTORE PUSH1 0x40 DUP2 KECCAK256 PUSH1 0x16 ADD SWAP2 PUSH1 0x1 PUSH1 0x1 PUSH1 0xA0 SHL SUB AND SWAP1 JUMPDEST DUP3 SLOAD DUP1 DUP3 LT ISZERO PUSH2 0x728 JUMPI DUP3 PUSH2 0x656 DUP4 DUP7 PUSH2 0x1710 JUMP JUMPDEST SWAP1 SLOAD PUSH1 0x3 SWAP2 SWAP1 SWAP2 SHL SHR PUSH1 0x1 PUSH1 0x1 PUSH1 0xA0 SHL SUB AND EQ PUSH2 0x676 JUMPI POP PUSH1 0x1 ADD PUSH2 0x641 JUMP JUMPDEST PUSH0 NOT DUP2 ADD SWAP3 POP DUP3 GT PUSH2 0x714 JUMPI PUSH2 0x6AB PUSH2 0x692 PUSH2 0x6CF SWAP4 DUP6 PUSH2 0x1710 JUMP JUMPDEST SWAP1 SLOAD PUSH1 0x3 SWAP2 SWAP1 SWAP2 SHL SHR PUSH1 0x1 PUSH1 0x1 PUSH1 0xA0 SHL SUB AND SWAP2 DUP5 PUSH2 0x1710 JUMP JUMPDEST DUP2 SLOAD PUSH1 0x1 PUSH1 0x1 PUSH1 0xA0 SHL SUB SWAP4 DUP5 AND PUSH1 0x3 SWAP3 SWAP1 SWAP3 SHL SWAP2 DUP3 SHL SWAP4 SWAP1 SWAP2 SHL NOT AND SWAP2 SWAP1 SWAP2 OR SWAP1 SSTORE JUMP JUMPDEST DUP1 SLOAD DUP1 ISZERO PUSH2 0x700 JUMPI PUSH0 NOT ADD SWAP1 PUSH2 0x6E5 DUP3 DUP3 PUSH2 0x1710 JUMP JUMPDEST DUP2 SLOAD PUSH1 0x1 PUSH1 0x1 PUSH1 0xA0 SHL SUB PUSH1 0x3 SWAP3 SWAP1 SWAP3 SHL SWAP2 SWAP1 SWAP2 SHL NOT AND SWAP1 SSTORE SSTORE STOP JUMPDEST PUSH4 0x4E487B71 PUSH1 0xE0 SHL PUSH0 MSTORE PUSH1 0x31 PUSH1 0x4 MSTORE PUSH1 0x24 PUSH0 REVERT JUMPDEST PUSH4 0x4E487B71 PUSH1 0xE0 SHL PUSH0 MSTORE PUSH1 0x11 PUSH1 0x4 MSTORE PUSH1 0x24 PUSH0 REVERT JUMPDEST STOP JUMPDEST CALLVALUE PUSH2 0x124 JUMPI PUSH1 0x20 CALLDATASIZE PUSH1 0x3 NOT ADD SLT PUSH2 0x124 JUMPI PUSH1 0x4 CALLDATALOAD PUSH0 MSTORE PUSH0 PUSH1 0x20 MSTORE PUSH1 0x17 PUSH1 0x15 PUSH1 0x14 PUSH1 0x13 PUSH1 0x11 PUSH1 0x10 PUSH1 0xD PUSH1 0x9 PUSH1 0x8 PUSH1 0x7 PUSH1 0x6 PUSH1 0x5 PUSH1 0x4 PUSH1 0x3 PUSH1 0x2 PUSH1 0x40 PUSH0 KECCAK256 SWAP15 DUP16 SWAP15 DUP16 SWAP15 DUP16 SWAP15 DUP16 SWAP15 DUP16 SWAP15 DUP16 SWAP15 DUP16 SWAP15 DUP16 SWAP15 DUP16 SWAP15 DUP16 SWAP15 DUP16 SWAP15 DUP16 SWAP15 DUP16 SWAP15 DUP16 SWAP15 DUP16 SLOAD SWAP16 PUSH1 0x1 DUP1 PUSH1 0xA0 SHL SUB PUSH1 0x1 DUP3 ADD SLOAD AND PUSH1 0xC0 MSTORE ADD SLOAD SWAP16 ADD SLOAD SWAP16 ADD SLOAD SWAP16 ADD SLOAD SWAP16 ADD SLOAD SWAP16 ADD SLOAD SWAP16 ADD SLOAD SWAP16 ADD SLOAD SWAP16 ADD SLOAD SWAP16 ADD SLOAD SWAP16 ADD SLOAD SWAP16 ADD SLOAD SWAP16 ADD SLOAD SWAP16 ADD SLOAD SWAP16 ADD SLOAD PUSH1 0x80 MSTORE PUSH1 0x40 MLOAD PUSH1 0xA0 MSTORE PUSH1 0xA0 MLOAD MSTORE PUSH1 0xC0 MLOAD PUSH1 0x20 PUSH1 0xA0 MLOAD ADD MSTORE PUSH1 0x40 PUSH1 0xA0 MLOAD ADD MSTORE PUSH1 0x60 PUSH1 0xA0 MLOAD ADD MSTORE PUSH1 0x80 PUSH1 0xA0 MLOAD ADD MSTORE PUSH1 0xA0 DUP1 MLOAD ADD MSTORE PUSH1 0xC0 PUSH1 0xA0 MLOAD ADD MSTORE PUSH1 0xE0 PUSH1 0xA0 MLOAD ADD MSTORE PUSH2 0x100 PUSH1 0xA0 MLOAD ADD MSTORE PUSH2 0x120 PUSH1 0xA0 MLOAD ADD MSTORE PUSH2 0x140 PUSH1 0xA0 MLOAD ADD MSTORE PUSH2 0x160 PUSH1 0xA0 MLOAD ADD MSTORE PUSH2 0x180 PUSH1 0xA0 MLOAD ADD MSTORE PUSH2 0x1A0 PUSH1 0xA0 MLOAD ADD MSTORE PUSH2 0x1C0 PUSH1 0xA0 MLOAD ADD MSTORE PUSH2 0x1E0 PUSH1 0xA0 MLOAD ADD MSTORE PUSH1 0x80 MLOAD PUSH2 0x200 PUSH1 0xA0 MLOAD ADD MSTORE PUSH2 0x220 PUSH1 0xA0 MLOAD RETURN JUMPDEST CALLVALUE PUSH2 0x124 JUMPI PUSH1 0x20 PUSH2 0x865 CALLDATASIZE PUSH2 0x1505 JUMP JUMPDEST SWAP1 PUSH2 0x873 PUSH1 0x1 SLOAD DUP3 LT PUSH2 0x1678 JUMP JUMPDEST PUSH0 MSTORE PUSH0 DUP3 MSTORE PUSH1 0x3 PUSH1 0x40 PUSH0 KECCAK256 SWAP2 ORIGIN CALLER EQ DUP1 ISZERO PUSH2 0x8B8 JUMPI JUMPDEST PUSH2 0x892 SWAP1 PUSH2 0x16C4 JUMP JUMPDEST PUSH1 0x40 MLOAD DUP5 DUP2 ADD SWAP2 DUP3 MSTORE DUP5 DUP2 MSTORE PUSH2 0x8A9 PUSH1 0x40 DUP3 PUSH2 0x151B JUMP JUMPDEST MLOAD SWAP1 KECCAK256 SWAP2 ADD SLOAD EQ PUSH1 0x40 MLOAD SWAP1 DUP2 MSTORE RETURN JUMPDEST POP PUSH2 0x892 PUSH2 0x8C6 CALLER DUP6 PUSH2 0x1B04 JUMP JUMPDEST SWAP1 POP PUSH2 0x889 JUMP JUMPDEST CALLVALUE PUSH2 0x124 JUMPI PUSH1 0x20 PUSH2 0x8DD CALLDATASIZE PUSH2 0x1505 JUMP JUMPDEST SWAP1 PUSH2 0x8EB PUSH1 0x1 SLOAD DUP3 LT PUSH2 0x1678 JUMP JUMPDEST PUSH0 MSTORE PUSH0 DUP3 MSTORE PUSH1 0x11 PUSH1 0x40 PUSH0 KECCAK256 SWAP2 ORIGIN CALLER EQ DUP1 ISZERO PUSH2 0x8B8 JUMPI PUSH2 0x892 SWAP1 PUSH2 0x16C4 JUMP JUMPDEST CALLVALUE PUSH2 0x124 JUMPI PUSH1 0x20 PUSH2 0x919 CALLDATASIZE PUSH2 0x1505 JUMP JUMPDEST SWAP1 PUSH2 0x927 PUSH1 0x1 SLOAD DUP3 LT PUSH2 0x1678 JUMP JUMPDEST PUSH0 MSTORE PUSH0 DUP3 MSTORE PUSH1 0x14 PUSH1 0x40 PUSH0 KECCAK256 SWAP2 ORIGIN CALLER EQ DUP1 ISZERO PUSH2 0x8B8 JUMPI PUSH2 0x892 SWAP1 PUSH2 0x16C4 JUMP JUMPDEST CALLVALUE PUSH2 0x124 JUMPI PUSH1 0x20 PUSH2 0x955 CALLDATASIZE PUSH2 0x1505 JUMP JUMPDEST SWAP1 PUSH2 0x963 PUSH1 0x1 SLOAD DUP3 LT PUSH2 0x1678 JUMP JUMPDEST PUSH0 MSTORE PUSH0 DUP3 MSTORE PUSH1 0x2 PUSH1 0x40 PUSH0 KECCAK256 SWAP2 ORIGIN CALLER EQ DUP1 ISZERO PUSH2 0x8B8 JUMPI PUSH2 0x892 SWAP1 PUSH2 0x16C4 JUMP JUMPDEST CALLVALUE PUSH2 0x124 JUMPI PUSH2 0x98F CALLDATASIZE PUSH2 0x153C JUMP JUMPDEST PUSH2 0x99C PUSH1 0x1 SLOAD DUP4 LT PUSH2 0x1678 JUMP JUMPDEST PUSH1 0x40 MLOAD PUSH2 0x9C8 PUSH1 0x20 DUP3 DUP2 DUP1 DUP3 ADD SWAP6 DUP1 MLOAD SWAP2 DUP3 SWAP2 ADD DUP8 MCOPY DUP2 ADD PUSH0 DUP4 DUP3 ADD MSTORE SUB ADD PUSH1 0x1F NOT DUP2 ADD DUP4 MSTORE DUP3 PUSH2 0x151B JUMP JUMPDEST MLOAD SWAP1 KECCAK256 SWAP1 PUSH0 MSTORE PUSH1 0x2 PUSH1 0x20 MSTORE PUSH1 0x40 PUSH0 KECCAK256 SSTORE PUSH0 DUP1 RETURN JUMPDEST CALLVALUE PUSH2 0x124 JUMPI PUSH1 0x20 CALLDATASIZE PUSH1 0x3 NOT ADD SLT PUSH2 0x124 JUMPI PUSH1 0x4 CALLDATALOAD PUSH2 0x9FD PUSH1 0x1 SLOAD DUP3 LT PUSH2 0x1678 JUMP JUMPDEST PUSH0 MSTORE PUSH0 PUSH1 0x20 MSTORE PUSH1 0xE0 PUSH1 0x40 PUSH0 KECCAK256 PUSH1 0x4 DUP2 ADD SLOAD SWAP1 PUSH1 0x5 DUP2 ADD SLOAD SWAP1 PUSH1 0x6 DUP2 ADD SLOAD PUSH1 0x8 DUP3 ADD SLOAD PUSH1 0x9 DUP4 ADD SLOAD SWAP2 PUSH1 0x10 PUSH1 0xD DUP6 ADD SLOAD SWAP5 ADD SLOAD SWAP5 PUSH1 0x40 MLOAD SWAP7 DUP8 MSTORE PUSH1 0x20 DUP8 ADD MSTORE PUSH1 0x40 DUP7 ADD MSTORE PUSH1 0x60 DUP6 ADD MSTORE PUSH1 0x80 DUP5 ADD MSTORE PUSH1 0xA0 DUP4 ADD MSTORE PUSH1 0xC0 DUP3 ADD MSTORE RETURN JUMPDEST CALLVALUE PUSH2 0x124 JUMPI PUSH0 CALLDATASIZE PUSH1 0x3 NOT ADD SLT PUSH2 0x124 JUMPI PUSH1 0x20 PUSH1 0x1 SLOAD PUSH1 0x40 MLOAD SWAP1 DUP2 MSTORE RETURN JUMPDEST CALLVALUE PUSH2 0x124 JUMPI PUSH1 0x20 PUSH2 0xA83 CALLDATASIZE PUSH2 0x1505 JUMP JUMPDEST SWAP1 PUSH2 0xA91 PUSH1 0x1 SLOAD DUP3 LT PUSH2 0x1678 JUMP JUMPDEST PUSH0 MSTORE PUSH0 DUP3 MSTORE PUSH1 0x13 PUSH1 0x40 PUSH0 KECCAK256 SWAP2 ORIGIN CALLER EQ DUP1 ISZERO PUSH2 0x8B8 JUMPI PUSH2 0x892 SWAP1 PUSH2 0x16C4 JUMP JUMPDEST CALLVALUE PUSH2 0x124 JUMPI PUSH1 0x20 PUSH2 0x11A PUSH2 0xAC2 CALLDATASIZE PUSH2 0x1505 JUMP JUMPDEST SWAP1 PUSH2 0x19DC JUMP JUMPDEST CALLVALUE PUSH2 0x124 JUMPI PUSH1 0x20 PUSH2 0x11A PUSH2 0xADB CALLDATASIZE PUSH2 0x1505 JUMP JUMPDEST SWAP1 PUSH2 0x1948 JUMP JUMPDEST CALLVALUE PUSH2 0x124 JUMPI PUSH2 0x260 CALLDATASIZE PUSH1 0x3 NOT ADD SLT PUSH2 0x124 JUMPI PUSH2 0x104 CALLDATALOAD PUSH1 0x1 PUSH1 0x1 PUSH1 0x40 SHL SUB DUP2 GT PUSH2 0x124 JUMPI PUSH2 0xB13 SWAP1 CALLDATASIZE SWAP1 PUSH1 0x4 ADD PUSH2 0x1610 JUMP JUMPDEST PUSH2 0x124 CALLDATALOAD PUSH1 0x1 PUSH1 0x1 PUSH1 0x40 SHL SUB DUP2 GT PUSH2 0x124 JUMPI PUSH2 0xB33 SWAP1 CALLDATASIZE SWAP1 PUSH1 0x4 ADD PUSH2 0x1610 JUMP JUMPDEST SWAP1 PUSH2 0x144 CALLDATALOAD PUSH1 0x1 PUSH1 0x1 PUSH1 0x40 SHL SUB DUP2 GT PUSH2 0x124 JUMPI PUSH2 0xB54 SWAP1 CALLDATASIZE SWAP1 PUSH1 0x4 ADD PUSH2 0x1610 JUMP JUMPDEST SWAP2 PUSH2 0x184 CALLDATALOAD PUSH1 0x1 PUSH1 0x1 PUSH1 0x40 SHL SUB DUP2 GT PUSH2 0x124 JUMPI PUSH2 0xB75 SWAP1 CALLDATASIZE SWAP1 PUSH1 0x4 ADD PUSH2 0x1610 JUMP JUMPDEST SWAP1 PUSH2 0x1A4 CALLDATALOAD PUSH1 0x1 PUSH1 0x1 PUSH1 0x40 SHL SUB DUP2 GT PUSH2 0x124 JUMPI PUSH2 0xB96 SWAP1 CALLDATASIZE SWAP1 PUSH1 0x4 ADD PUSH2 0x1610 JUMP JUMPDEST PUSH2 0x204 CALLDATALOAD PUSH1 0x1 PUSH1 0x1 PUSH1 0x40 SHL SUB DUP2 GT PUSH2 0x124 JUMPI PUSH2 0xBB6 SWAP1 CALLDATASIZE SWAP1 PUSH1 0x4 ADD PUSH2 0x1610 JUMP JUMPDEST SWAP1 PUSH1 0x1 SLOAD SWAP4 PUSH1 0x20 SWAP7 PUSH1 0x40 MLOAD SWAP5 PUSH2 0xBCC DUP10 DUP8 PUSH2 0x151B JUMP JUMPDEST PUSH0 DUP7 MSTORE PUSH0 CALLDATASIZE DUP2 CALLDATACOPY PUSH1 0x40 MLOAD SWAP8 PUSH2 0x300 DUP10 ADD DUP10 DUP2 LT PUSH1 0x1 PUSH1 0x1 PUSH1 0x40 SHL SUB DUP3 GT OR PUSH2 0x47E JUMPI PUSH1 0x40 MSTORE DUP8 DUP10 MSTORE CALLER DUP11 DUP11 ADD MSTORE PUSH1 0x4 CALLDATALOAD PUSH1 0x40 DUP11 ADD MSTORE PUSH1 0x24 CALLDATALOAD PUSH1 0x60 DUP11 ADD MSTORE PUSH1 0x44 CALLDATALOAD PUSH1 0x80 DUP11 ADD MSTORE PUSH1 0x64 CALLDATALOAD PUSH1 0xA0 DUP11 ADD MSTORE PUSH1 0x84 CALLDATALOAD PUSH1 0xC0 DUP11 ADD MSTORE PUSH1 0xA4 CALLDATALOAD PUSH1 0xE0 DUP11 ADD MSTORE PUSH1 0xC4 CALLDATALOAD PUSH2 0x100 DUP11 ADD MSTORE PUSH1 0xE4 CALLDATALOAD PUSH2 0x120 DUP11 ADD MSTORE PUSH2 0x140 DUP10 ADD MSTORE PUSH2 0x160 DUP9 ADD MSTORE PUSH2 0x180 DUP8 ADD MSTORE PUSH2 0x164 CALLDATALOAD PUSH2 0x1A0 DUP8 ADD MSTORE PUSH2 0x1C0 DUP7 ADD MSTORE PUSH2 0x1E0 DUP6 ADD MSTORE PUSH2 0x1C4 CALLDATALOAD PUSH2 0x200 DUP6 ADD MSTORE PUSH2 0x1E4 CALLDATALOAD PUSH2 0x220 DUP6 ADD MSTORE PUSH2 0x240 DUP5 ADD MSTORE PUSH2 0x224 CALLDATALOAD PUSH2 0x260 DUP5 ADD MSTORE PUSH2 0x244 CALLDATALOAD PUSH2 0x280 DUP5 ADD MSTORE PUSH0 PUSH2 0x2A0 DUP5 ADD MSTORE PUSH2 0x2C0 DUP4 ADD MSTORE TIMESTAMP PUSH2 0x2E0 DUP4 ADD MSTORE PUSH0 MSTORE PUSH0 DUP3 MSTORE PUSH1 0x40 PUSH0 KECCAK256 SWAP2 DUP2 MLOAD DUP4 SSTORE PUSH1 0x1 DUP4 ADD PUSH1 0x1 DUP1 PUSH1 0xA0 SHL SUB DUP3 DUP5 ADD MLOAD AND PUSH12 0xFFFFFFFFFFFFFFFFFFFFFFFF PUSH1 0xA0 SHL DUP3 SLOAD AND OR SWAP1 SSTORE PUSH1 0x40 DUP3 ADD MLOAD PUSH1 0x2 DUP5 ADD SSTORE PUSH1 0x60 DUP3 ADD MLOAD PUSH1 0x3 DUP5 ADD SSTORE PUSH1 0x80 DUP3 ADD MLOAD PUSH1 0x4 DUP5 ADD SSTORE PUSH1 0xA0 DUP3 ADD MLOAD PUSH1 0x5 DUP5 ADD SSTORE PUSH1 0xC0 DUP3 ADD MLOAD PUSH1 0x6 DUP5 ADD SSTORE PUSH1 0xE0 DUP3 ADD MLOAD PUSH1 0x7 DUP5 ADD SSTORE PUSH2 0x100 DUP3 ADD MLOAD PUSH1 0x8 DUP5 ADD SSTORE PUSH2 0x120 DUP3 ADD MLOAD PUSH1 0x9 DUP5 ADD SSTORE PUSH2 0x140 DUP3 ADD MLOAD DUP1 MLOAD SWAP1 PUSH1 0x1 PUSH1 0x1 PUSH1 0x40 SHL SUB DUP3 GT PUSH2 0x47E JUMPI PUSH1 0x1 PUSH1 0x40 SHL DUP3 GT PUSH2 0x47E JUMPI DUP3 SWAP1 PUSH1 0xA DUP7 ADD SLOAD DUP4 PUSH1 0xA DUP9 ADD SSTORE DUP1 DUP5 LT PUSH2 0x1112 JUMPI JUMPDEST POP ADD PUSH1 0xA DUP6 ADD PUSH0 MSTORE DUP3 PUSH0 KECCAK256 PUSH0 JUMPDEST DUP4 DUP2 LT PUSH2 0x1100 JUMPI POP POP POP POP PUSH1 0xB DUP4 ADD PUSH2 0x160 DUP4 ADD MLOAD SWAP1 DUP2 MLOAD SWAP2 PUSH1 0x1 PUSH1 0x1 PUSH1 0x40 SHL SUB DUP4 GT PUSH2 0x47E JUMPI PUSH1 0x1 PUSH1 0x40 SHL DUP4 GT PUSH2 0x47E JUMPI DUP4 SWAP1 DUP3 SLOAD DUP5 DUP5 SSTORE DUP1 DUP6 LT PUSH2 0x10D8 JUMPI JUMPDEST POP ADD SWAP1 PUSH0 MSTORE DUP3 PUSH0 KECCAK256 PUSH0 JUMPDEST DUP4 DUP2 LT PUSH2 0x10C6 JUMPI POP POP POP POP PUSH1 0xC DUP4 ADD PUSH2 0x180 DUP4 ADD MLOAD SWAP1 DUP2 MLOAD SWAP2 PUSH1 0x1 PUSH1 0x1 PUSH1 0x40 SHL SUB DUP4 GT PUSH2 0x47E JUMPI PUSH1 0x1 PUSH1 0x40 SHL DUP4 GT PUSH2 0x47E JUMPI DUP4 SWAP1 DUP3 SLOAD DUP5 DUP5 SSTORE DUP1 DUP6 LT PUSH2 0x109E JUMPI JUMPDEST POP ADD SWAP1 PUSH0 MSTORE DUP3 PUSH0 KECCAK256 PUSH0 JUMPDEST DUP4 DUP2 LT PUSH2 0x108C JUMPI POP POP POP POP PUSH2 0x1A0 DUP3 ADD MLOAD PUSH1 0xD DUP5 ADD SSTORE PUSH1 0xE DUP4 ADD PUSH2 0x1C0 DUP4 ADD MLOAD SWAP1 DUP2 MLOAD SWAP2 PUSH1 0x1 PUSH1 0x1 PUSH1 0x40 SHL SUB DUP4 GT PUSH2 0x47E JUMPI PUSH1 0x1 PUSH1 0x40 SHL DUP4 GT PUSH2 0x47E JUMPI DUP4 SWAP1 DUP3 SLOAD DUP5 DUP5 SSTORE DUP1 DUP6 LT PUSH2 0x1064 JUMPI JUMPDEST POP ADD SWAP1 PUSH0 MSTORE DUP3 PUSH0 KECCAK256 PUSH0 JUMPDEST DUP4 DUP2 LT PUSH2 0x1052 JUMPI POP POP POP POP PUSH1 0xF DUP4 ADD PUSH2 0x1E0 DUP4 ADD MLOAD SWAP1 DUP2 MLOAD SWAP2 PUSH1 0x1 PUSH1 0x1 PUSH1 0x40 SHL SUB DUP4 GT PUSH2 0x47E JUMPI PUSH1 0x1 PUSH1 0x40 SHL DUP4 GT PUSH2 0x47E JUMPI DUP4 SWAP1 DUP3 SLOAD DUP5 DUP5 SSTORE DUP1 DUP6 LT PUSH2 0x102A JUMPI JUMPDEST POP ADD SWAP1 PUSH0 MSTORE DUP3 PUSH0 KECCAK256 PUSH0 JUMPDEST DUP4 DUP2 LT PUSH2 0x1018 JUMPI POP POP POP POP PUSH2 0x200 DUP3 ADD MLOAD PUSH1 0x10 DUP5 ADD SSTORE PUSH2 0x220 DUP3 ADD MLOAD PUSH1 0x11 DUP5 ADD SSTORE PUSH1 0x12 DUP4 ADD PUSH2 0x240 DUP4 ADD MLOAD SWAP1 DUP2 MLOAD SWAP2 PUSH1 0x1 PUSH1 0x1 PUSH1 0x40 SHL SUB DUP4 GT PUSH2 0x47E JUMPI PUSH1 0x1 PUSH1 0x40 SHL DUP4 GT PUSH2 0x47E JUMPI DUP4 SWAP1 DUP3 SLOAD DUP5 DUP5 SSTORE DUP1 DUP6 LT PUSH2 0xFF0 JUMPI JUMPDEST POP ADD SWAP1 PUSH0 MSTORE DUP3 PUSH0 KECCAK256 PUSH0 JUMPDEST DUP4 DUP2 LT PUSH2 0xFDE JUMPI POP POP POP POP PUSH2 0x260 DUP3 ADD MLOAD PUSH1 0x13 DUP5 ADD SSTORE PUSH2 0x280 DUP3 ADD MLOAD PUSH1 0x14 DUP5 ADD SSTORE PUSH2 0x2A0 DUP3 ADD MLOAD PUSH1 0x15 DUP5 ADD SSTORE PUSH1 0x16 DUP4 ADD PUSH2 0x2C0 DUP4 ADD MLOAD SWAP2 DUP3 MLOAD SWAP3 PUSH1 0x1 PUSH1 0x1 PUSH1 0x40 SHL SUB DUP5 GT PUSH2 0x47E JUMPI PUSH1 0x1 PUSH1 0x40 SHL DUP5 GT PUSH2 0x47E JUMPI DUP2 SWAP1 DUP4 SLOAD DUP6 DUP6 SSTORE DUP1 DUP7 LT PUSH2 0xFB6 JUMPI JUMPDEST POP ADD SWAP2 PUSH0 MSTORE DUP1 PUSH0 KECCAK256 SWAP1 PUSH0 JUMPDEST DUP5 DUP2 LT PUSH2 0xF9B JUMPI PUSH2 0x2E0 DUP7 ADD MLOAD PUSH1 0x17 DUP9 ADD SSTORE PUSH1 0x1 SLOAD PUSH0 NOT DUP2 EQ PUSH2 0x714 JUMPI PUSH1 0x1 ADD PUSH1 0x1 SSTORE PUSH0 DUP1 RETURN JUMPDEST DUP4 MLOAD PUSH1 0x1 PUSH1 0x1 PUSH1 0xA0 SHL SUB AND DUP4 DUP3 ADD SSTORE SWAP3 DUP2 ADD SWAP3 PUSH1 0x1 ADD PUSH2 0xF74 JUMP JUMPDEST DUP5 PUSH0 MSTORE DUP6 DUP4 PUSH0 KECCAK256 SWAP2 DUP3 ADD SWAP2 ADD JUMPDEST DUP2 DUP2 LT PUSH2 0xFD0 JUMPI POP PUSH2 0xF69 JUMP JUMPDEST PUSH0 DUP2 SSTORE DUP5 SWAP4 POP PUSH1 0x1 ADD PUSH2 0xFC3 JUMP JUMPDEST DUP3 MLOAD DUP3 DUP3 ADD SSTORE SWAP2 DUP5 ADD SWAP2 PUSH1 0x1 ADD PUSH2 0xF07 JUMP JUMPDEST DUP4 PUSH0 MSTORE DUP5 DUP4 PUSH0 KECCAK256 SWAP2 DUP3 ADD SWAP2 ADD JUMPDEST DUP2 DUP2 LT PUSH2 0x100A JUMPI POP PUSH2 0xEFD JUMP JUMPDEST PUSH0 DUP2 SSTORE DUP7 SWAP4 POP PUSH1 0x1 ADD PUSH2 0xFFD JUMP JUMPDEST DUP3 MLOAD DUP3 DUP3 ADD SSTORE SWAP2 DUP5 ADD SWAP2 PUSH1 0x1 ADD PUSH2 0xEA6 JUMP JUMPDEST DUP4 PUSH0 MSTORE DUP5 DUP4 PUSH0 KECCAK256 SWAP2 DUP3 ADD SWAP2 ADD JUMPDEST DUP2 DUP2 LT PUSH2 0x1044 JUMPI POP PUSH2 0xE9C JUMP JUMPDEST PUSH0 DUP2 SSTORE DUP7 SWAP4 POP PUSH1 0x1 ADD PUSH2 0x1037 JUMP JUMPDEST DUP3 MLOAD DUP3 DUP3 ADD SSTORE SWAP2 DUP5 ADD SWAP2 PUSH1 0x1 ADD PUSH2 0xE5B JUMP JUMPDEST DUP4 PUSH0 MSTORE DUP5 DUP4 PUSH0 KECCAK256 SWAP2 DUP3 ADD SWAP2 ADD JUMPDEST DUP2 DUP2 LT PUSH2 0x107E JUMPI POP PUSH2 0xE51 JUMP JUMPDEST PUSH0 DUP2 SSTORE DUP7 SWAP4 POP PUSH1 0x1 ADD PUSH2 0x1071 JUMP JUMPDEST DUP3 MLOAD DUP3 DUP3 ADD SSTORE SWAP2 DUP5 ADD SWAP2 PUSH1 0x1 ADD PUSH2 0xE05 JUMP JUMPDEST DUP4 PUSH0 MSTORE DUP5 DUP4 PUSH0 KECCAK256 SWAP2 DUP3 ADD SWAP2 ADD JUMPDEST DUP2 DUP2 LT PUSH2 0x10B8 JUMPI POP PUSH2 0xDFB JUMP JUMPDEST PUSH0 DUP2 SSTORE DUP7 SWAP4 POP PUSH1 0x1 ADD PUSH2 0x10AB JUMP JUMPDEST DUP3 MLOAD DUP3 DUP3 ADD SSTORE SWAP2 DUP5 ADD SWAP2 PUSH1 0x1 ADD PUSH2 0xDBA JUMP JUMPDEST DUP4 PUSH0 MSTORE DUP5 DUP4 PUSH0 KECCAK256 SWAP2 DUP3 ADD SWAP2 ADD JUMPDEST DUP2 DUP2 LT PUSH2 0x10F2 JUMPI POP PUSH2 0xDB0 JUMP JUMPDEST PUSH0 DUP2 SSTORE DUP7 SWAP4 POP PUSH1 0x1 ADD PUSH2 0x10E5 JUMP JUMPDEST DUP3 MLOAD DUP3 DUP3 ADD SSTORE SWAP2 DUP5 ADD SWAP2 PUSH1 0x1 ADD PUSH2 0xD6F JUMP JUMPDEST PUSH1 0xA DUP8 ADD PUSH0 MSTORE DUP3 PUSH0 KECCAK256 SWAP1 DUP5 DUP3 ADD JUMPDEST DUP2 DUP4 ADD DUP2 LT PUSH2 0x1130 JUMPI POP POP PUSH2 0xD62 JUMP JUMPDEST PUSH0 DUP2 SSTORE DUP7 SWAP5 POP PUSH1 0x1 ADD PUSH2 0x1120 JUMP JUMPDEST CALLVALUE PUSH2 0x124 JUMPI PUSH2 0x114C CALLDATASIZE PUSH2 0x15EA JUMP JUMPDEST SWAP1 PUSH2 0x115A PUSH1 0x1 SLOAD DUP3 LT PUSH2 0x1678 JUMP JUMPDEST PUSH0 SWAP1 DUP2 MSTORE PUSH1 0x20 DUP2 SWAP1 MSTORE PUSH1 0x40 DUP2 KECCAK256 PUSH1 0x16 ADD DUP1 SLOAD SWAP3 SWAP2 PUSH1 0x1 PUSH1 0x1 PUSH1 0xA0 SHL SUB DUP4 AND SWAP1 JUMPDEST DUP5 DUP2 LT PUSH2 0x11A2 JUMPI POP POP PUSH1 0x1 PUSH1 0x40 SHL DUP4 LT ISZERO PUSH2 0x47E JUMPI DUP3 PUSH2 0x6AB SWAP2 PUSH1 0x1 PUSH2 0x728 SWAP6 ADD DUP2 SSTORE PUSH2 0x1710 JUMP JUMPDEST DUP2 PUSH2 0x11AD DUP3 DUP6 PUSH2 0x1710 JUMP JUMPDEST SWAP1 SLOAD PUSH1 0x3 SWAP2 SWAP1 SWAP2 SHL SHR PUSH1 0x1 PUSH1 0x1 PUSH1 0xA0 SHL SUB AND EQ PUSH2 0x11CC JUMPI PUSH1 0x1 ADD PUSH2 0x117A JUMP JUMPDEST PUSH1 0x40 MLOAD PUSH3 0x461BCD PUSH1 0xE5 SHL DUP2 MSTORE PUSH1 0x20 PUSH1 0x4 DUP3 ADD MSTORE PUSH1 0x1C PUSH1 0x24 DUP3 ADD MSTORE PUSH32 0x50726F766964657220616C726561647920686173206163636573732E00000000 PUSH1 0x44 DUP3 ADD MSTORE PUSH1 0x64 SWAP1 REVERT JUMPDEST CALLVALUE PUSH2 0x124 JUMPI PUSH1 0x20 PUSH2 0x11A PUSH2 0x1224 CALLDATASIZE PUSH2 0x1505 JUMP JUMPDEST SWAP1 PUSH2 0x18B4 JUMP JUMPDEST CALLVALUE PUSH2 0x124 JUMPI PUSH1 0x20 PUSH2 0x11A PUSH2 0x123D CALLDATASIZE PUSH2 0x1505 JUMP JUMPDEST SWAP1 PUSH2 0x1820 JUMP JUMPDEST CALLVALUE PUSH2 0x124 JUMPI PUSH1 0x20 PUSH2 0x1253 CALLDATASIZE PUSH2 0x1505 JUMP JUMPDEST SWAP1 PUSH2 0x1261 PUSH1 0x1 SLOAD DUP3 LT PUSH2 0x1678 JUMP JUMPDEST PUSH0 MSTORE PUSH0 DUP3 MSTORE PUSH1 0x7 PUSH1 0x40 PUSH0 KECCAK256 SWAP2 ORIGIN CALLER EQ DUP1 ISZERO PUSH2 0x8B8 JUMPI PUSH2 0x892 SWAP1 PUSH2 0x16C4 JUMP JUMPDEST CALLVALUE PUSH2 0x124 JUMPI PUSH2 0x128D CALLDATASIZE PUSH2 0x153C JUMP JUMPDEST PUSH2 0x129A PUSH1 0x1 SLOAD DUP4 LT PUSH2 0x1678 JUMP JUMPDEST PUSH1 0x40 MLOAD PUSH2 0x12C6 PUSH1 0x20 DUP3 DUP2 DUP1 DUP3 ADD SWAP6 DUP1 MLOAD SWAP2 DUP3 SWAP2 ADD DUP8 MCOPY DUP2 ADD PUSH0 DUP4 DUP3 ADD MSTORE SUB ADD PUSH1 0x1F NOT DUP2 ADD DUP4 MSTORE DUP3 PUSH2 0x151B JUMP JUMPDEST MLOAD SWAP1 KECCAK256 DUP2 PUSH0 MSTORE PUSH1 0x2 PUSH1 0x20 MSTORE PUSH1 0x40 PUSH0 KECCAK256 SLOAD SUB PUSH2 0x14B8 JUMPI PUSH0 MSTORE PUSH0 PUSH1 0x20 MSTORE PUSH1 0x40 PUSH0 KECCAK256 PUSH1 0x2 DUP2 ADD SLOAD SWAP1 PUSH1 0x3 DUP2 ADD SLOAD PUSH2 0x160 MSTORE PUSH1 0x4 DUP2 ADD SLOAD PUSH2 0x180 MSTORE PUSH1 0x5 DUP2 ADD SLOAD SWAP1 PUSH1 0x6 DUP2 ADD SLOAD SWAP3 PUSH1 0x7 DUP3 ADD SLOAD PUSH1 0x8 DUP4 ADD SLOAD SWAP4 PUSH1 0x9 DUP5 ADD SLOAD SWAP6 PUSH1 0xD DUP6 ADD SLOAD SWAP3 PUSH1 0x10 DUP7 ADD SLOAD SWAP8 PUSH1 0x11 DUP8 ADD SLOAD SWAP8 PUSH1 0x13 DUP9 ADD SLOAD PUSH2 0x140 MSTORE PUSH1 0x14 DUP9 ADD SLOAD PUSH2 0x100 MSTORE PUSH1 0xA DUP9 ADD PUSH2 0x134B SWAP1 PUSH2 0x17D6 JUMP JUMPDEST SWAP3 PUSH2 0x1358 PUSH1 0xB DUP11 ADD PUSH2 0x17D6 JUMP JUMPDEST SWAP5 PUSH2 0x1365 PUSH1 0xC DUP12 ADD PUSH2 0x17D6 JUMP JUMPDEST SWAP7 PUSH2 0x1372 PUSH1 0xE DUP13 ADD PUSH2 0x17D6 JUMP JUMPDEST SWAP10 PUSH2 0x137F PUSH1 0xF DUP14 ADD PUSH2 0x17D6 JUMP JUMPDEST SWAP12 PUSH1 0x12 ADD PUSH2 0x138C SWAP1 PUSH2 0x17D6 JUMP JUMPDEST PUSH1 0xE0 MSTORE PUSH1 0x40 MLOAD PUSH2 0x120 MSTORE PUSH2 0x120 MLOAD MSTORE PUSH2 0x160 MLOAD PUSH2 0x120 MLOAD PUSH1 0x20 ADD MSTORE PUSH2 0x180 MLOAD PUSH2 0x120 MLOAD PUSH1 0x40 ADD MSTORE PUSH2 0x120 MLOAD PUSH1 0x60 ADD MSTORE PUSH2 0x120 MLOAD PUSH1 0x80 ADD MSTORE PUSH2 0x120 MLOAD PUSH1 0xA0 ADD MSTORE PUSH2 0x120 MLOAD PUSH1 0xC0 ADD MSTORE PUSH2 0x120 MLOAD PUSH1 0xE0 ADD MSTORE PUSH2 0x120 MLOAD PUSH2 0x100 ADD PUSH2 0x260 SWAP1 MSTORE PUSH2 0x120 MLOAD PUSH2 0x260 ADD PUSH2 0x13F9 SWAP2 PUSH2 0x15B7 JUMP JUMPDEST PUSH2 0x120 MLOAD DUP2 SUB PUSH2 0x120 MLOAD PUSH2 0x120 ADD MSTORE PUSH2 0x1411 SWAP2 PUSH2 0x15B7 JUMP JUMPDEST PUSH2 0x120 MLOAD DUP2 SUB PUSH2 0x120 MLOAD PUSH2 0x140 ADD MSTORE PUSH2 0x1429 SWAP2 PUSH2 0x15B7 JUMP JUMPDEST SWAP1 PUSH2 0x120 MLOAD PUSH2 0x160 ADD MSTORE PUSH2 0x120 MLOAD DUP2 SUB PUSH2 0x120 MLOAD PUSH2 0x180 ADD MSTORE PUSH2 0x144B SWAP2 PUSH2 0x15B7 JUMP JUMPDEST PUSH2 0x120 MLOAD DUP2 SUB PUSH2 0x120 MLOAD PUSH2 0x1A0 ADD MSTORE PUSH2 0x1463 SWAP2 PUSH2 0x15B7 JUMP JUMPDEST SWAP2 PUSH2 0x120 MLOAD PUSH2 0x1C0 ADD MSTORE PUSH2 0x120 MLOAD PUSH2 0x1E0 ADD MSTORE PUSH2 0x120 MLOAD DUP2 SUB PUSH2 0x120 MLOAD PUSH2 0x200 ADD MSTORE PUSH1 0xE0 MLOAD SWAP1 PUSH2 0x1492 SWAP2 PUSH2 0x15B7 JUMP JUMPDEST PUSH2 0x140 MLOAD PUSH2 0x120 MLOAD PUSH2 0x220 ADD MSTORE PUSH2 0x100 MLOAD PUSH2 0x120 MLOAD PUSH2 0x240 ADD MSTORE PUSH2 0x120 MLOAD SWAP1 SUB PUSH2 0x120 MLOAD RETURN JUMPDEST PUSH1 0x40 MLOAD PUSH3 0x461BCD PUSH1 0xE5 SHL DUP2 MSTORE PUSH1 0x20 PUSH1 0x4 DUP3 ADD MSTORE PUSH1 0xC PUSH1 0x24 DUP3 ADD MSTORE PUSH12 0x24B73B30B634B2102824A717 PUSH1 0xA1 SHL PUSH1 0x44 DUP3 ADD MSTORE PUSH1 0x64 SWAP1 REVERT JUMPDEST CALLVALUE PUSH2 0x124 JUMPI PUSH1 0x20 PUSH2 0x11A PUSH2 0x14FF CALLDATASIZE PUSH2 0x1505 JUMP JUMPDEST SWAP1 PUSH2 0x1739 JUMP JUMPDEST PUSH1 0x40 SWAP1 PUSH1 0x3 NOT ADD SLT PUSH2 0x124 JUMPI PUSH1 0x4 CALLDATALOAD SWAP1 PUSH1 0x24 CALLDATALOAD SWAP1 JUMP JUMPDEST SWAP1 PUSH1 0x1F DUP1 NOT SWAP2 ADD AND DUP2 ADD SWAP1 DUP2 LT PUSH1 0x1 PUSH1 0x1 PUSH1 0x40 SHL SUB DUP3 GT OR PUSH2 0x47E JUMPI PUSH1 0x40 MSTORE JUMP JUMPDEST SWAP1 PUSH1 0x40 PUSH1 0x3 NOT DUP4 ADD SLT PUSH2 0x124 JUMPI PUSH1 0x4 CALLDATALOAD SWAP2 PUSH1 0x24 CALLDATALOAD PUSH1 0x1 PUSH1 0x1 PUSH1 0x40 SHL SUB DUP2 GT PUSH2 0x124 JUMPI DUP2 PUSH1 0x23 DUP3 ADD SLT ISZERO PUSH2 0x124 JUMPI DUP1 PUSH1 0x4 ADD CALLDATALOAD SWAP1 PUSH1 0x1 PUSH1 0x1 PUSH1 0x40 SHL SUB DUP3 GT PUSH2 0x47E JUMPI PUSH1 0x40 MLOAD SWAP3 PUSH2 0x1595 PUSH1 0x1F DUP5 ADD PUSH1 0x1F NOT AND PUSH1 0x20 ADD DUP6 PUSH2 0x151B JUMP JUMPDEST DUP3 DUP5 MSTORE PUSH1 0x24 DUP4 DUP4 ADD ADD GT PUSH2 0x124 JUMPI DUP2 PUSH0 SWAP3 PUSH1 0x24 PUSH1 0x20 SWAP4 ADD DUP4 DUP7 ADD CALLDATACOPY DUP4 ADD ADD MSTORE SWAP1 JUMP JUMPDEST SWAP1 PUSH1 0x20 DUP1 DUP4 MLOAD SWAP3 DUP4 DUP2 MSTORE ADD SWAP3 ADD SWAP1 PUSH0 JUMPDEST DUP2 DUP2 LT PUSH2 0x15D4 JUMPI POP POP POP SWAP1 JUMP JUMPDEST DUP3 MLOAD DUP5 MSTORE PUSH1 0x20 SWAP4 DUP5 ADD SWAP4 SWAP1 SWAP3 ADD SWAP2 PUSH1 0x1 ADD PUSH2 0x15C7 JUMP JUMPDEST PUSH1 0x40 SWAP1 PUSH1 0x3 NOT ADD SLT PUSH2 0x124 JUMPI PUSH1 0x4 CALLDATALOAD SWAP1 PUSH1 0x24 CALLDATALOAD PUSH1 0x1 PUSH1 0x1 PUSH1 0xA0 SHL SUB DUP2 AND DUP2 SUB PUSH2 0x124 JUMPI SWAP1 JUMP JUMPDEST SWAP1 DUP1 PUSH1 0x1F DUP4 ADD SLT ISZERO PUSH2 0x124 JUMPI DUP2 CALLDATALOAD SWAP2 PUSH1 0x1 PUSH1 0x1 PUSH1 0x40 SHL SUB DUP4 GT PUSH2 0x47E JUMPI DUP3 PUSH1 0x5 SHL SWAP1 PUSH1 0x20 DUP3 ADD SWAP4 PUSH2 0x1644 PUSH1 0x40 MLOAD SWAP6 DUP7 PUSH2 0x151B JUMP JUMPDEST DUP5 MSTORE PUSH1 0x20 DUP1 DUP6 ADD SWAP3 DUP3 ADD ADD SWAP3 DUP4 GT PUSH2 0x124 JUMPI PUSH1 0x20 ADD SWAP1 JUMPDEST DUP3 DUP3 LT PUSH2 0x1668 JUMPI POP POP POP SWAP1 JUMP JUMPDEST DUP2 CALLDATALOAD DUP2 MSTORE PUSH1 0x20 SWAP2 DUP3 ADD SWAP2 ADD PUSH2 0x165B JUMP JUMPDEST ISZERO PUSH2 0x167F JUMPI JUMP JUMPDEST PUSH1 0x40 MLOAD PUSH3 0x461BCD PUSH1 0xE5 SHL DUP2 MSTORE PUSH1 0x20 PUSH1 0x4 DUP3 ADD MSTORE PUSH1 0x1E PUSH1 0x24 DUP3 ADD MSTORE PUSH32 0x50617469656E74207265636F726420646F6573206E6F742065786973742E0000 PUSH1 0x44 DUP3 ADD MSTORE PUSH1 0x64 SWAP1 REVERT JUMPDEST ISZERO PUSH2 0x16CB JUMPI JUMP JUMPDEST PUSH1 0x40 MLOAD PUSH3 0x461BCD PUSH1 0xE5 SHL DUP2 MSTORE PUSH1 0x20 PUSH1 0x4 DUP3 ADD MSTORE PUSH1 0x19 PUSH1 0x24 DUP3 ADD MSTORE PUSH32 0x4E6F7420617574686F72697A656420746F207665726966792E00000000000000 PUSH1 0x44 DUP3 ADD MSTORE PUSH1 0x64 SWAP1 REVERT JUMPDEST DUP1 SLOAD DUP3 LT ISZERO PUSH2 0x1725 JUMPI PUSH0 MSTORE PUSH1 0x20 PUSH0 KECCAK256 ADD SWAP1 PUSH0 SWAP1 JUMP JUMPDEST PUSH4 0x4E487B71 PUSH1 0xE0 SHL PUSH0 MSTORE PUSH1 0x32 PUSH1 0x4 MSTORE PUSH1 0x24 PUSH0 REVERT JUMPDEST PUSH2 0x1746 PUSH1 0x1 SLOAD DUP3 LT PUSH2 0x1678 JUMP JUMPDEST PUSH0 MSTORE PUSH0 PUSH1 0x20 MSTORE PUSH1 0x40 PUSH0 KECCAK256 SWAP1 ORIGIN CALLER EQ DUP1 ISZERO PUSH2 0x17C1 JUMPI JUMPDEST PUSH2 0x1764 SWAP1 PUSH2 0x16C4 JUMP JUMPDEST PUSH1 0xF PUSH0 SWAP3 ADD SWAP1 DUP2 SLOAD SWAP3 JUMPDEST DUP4 DUP2 LT PUSH2 0x177D JUMPI POP POP POP POP PUSH0 SWAP1 JUMP JUMPDEST PUSH1 0x40 MLOAD PUSH1 0x20 DUP2 ADD SWAP1 DUP4 DUP3 MSTORE PUSH1 0x20 DUP2 MSTORE PUSH2 0x1797 PUSH1 0x40 DUP3 PUSH2 0x151B JUMP JUMPDEST MLOAD SWAP1 KECCAK256 PUSH2 0x17A4 DUP3 DUP6 PUSH2 0x1710 JUMP JUMPDEST SWAP1 SLOAD SWAP1 PUSH1 0x3 SHL SHR EQ PUSH2 0x17B8 JUMPI PUSH1 0x1 ADD PUSH2 0x176E JUMP JUMPDEST POP POP POP POP PUSH1 0x1 SWAP1 JUMP JUMPDEST POP PUSH2 0x1764 PUSH2 0x17CF CALLER DUP5 PUSH2 0x1B04 JUMP JUMPDEST SWAP1 POP PUSH2 0x175B JUMP JUMPDEST SWAP1 PUSH1 0x40 MLOAD SWAP2 DUP3 DUP2 SLOAD SWAP2 DUP3 DUP3 MSTORE PUSH1 0x20 DUP3 ADD SWAP1 PUSH0 MSTORE PUSH1 0x20 PUSH0 KECCAK256 SWAP3 PUSH0 JUMPDEST DUP2 DUP2 LT PUSH2 0x1807 JUMPI POP POP PUSH2 0x1805 SWAP3 POP SUB DUP4 PUSH2 0x151B JUMP JUMPDEST JUMP JUMPDEST DUP5 SLOAD DUP4 MSTORE PUSH1 0x1 SWAP5 DUP6 ADD SWAP5 DUP8 SWAP5 POP PUSH1 0x20 SWAP1 SWAP4 ADD SWAP3 ADD PUSH2 0x17F0 JUMP JUMPDEST PUSH2 0x182D PUSH1 0x1 SLOAD DUP3 LT PUSH2 0x1678 JUMP JUMPDEST PUSH0 MSTORE PUSH0 PUSH1 0x20 MSTORE PUSH1 0x40 PUSH0 KECCAK256 SWAP1 ORIGIN CALLER EQ DUP1 ISZERO PUSH2 0x189F JUMPI JUMPDEST PUSH2 0x184B SWAP1 PUSH2 0x16C4 JUMP JUMPDEST PUSH1 0xE PUSH0 SWAP3 ADD SWAP1 DUP2 SLOAD SWAP3 JUMPDEST DUP4 DUP2 LT PUSH2 0x1864 JUMPI POP POP POP POP PUSH0 SWAP1 JUMP JUMPDEST PUSH1 0x40 MLOAD PUSH1 0x20 DUP2 ADD SWAP1 DUP4 DUP3 MSTORE PUSH1 0x20 DUP2 MSTORE PUSH2 0x187E PUSH1 0x40 DUP3 PUSH2 0x151B JUMP JUMPDEST MLOAD SWAP1 KECCAK256 PUSH2 0x188B DUP3 DUP6 PUSH2 0x1710 JUMP JUMPDEST SWAP1 SLOAD SWAP1 PUSH1 0x3 SHL SHR EQ PUSH2 0x17B8 JUMPI PUSH1 0x1 ADD PUSH2 0x1855 JUMP JUMPDEST POP PUSH2 0x184B PUSH2 0x18AD CALLER DUP5 PUSH2 0x1B04 JUMP JUMPDEST SWAP1 POP PUSH2 0x1842 JUMP JUMPDEST PUSH2 0x18C1 PUSH1 0x1 SLOAD DUP3 LT PUSH2 0x1678 JUMP JUMPDEST PUSH0 MSTORE PUSH0 PUSH1 0x20 MSTORE PUSH1 0x40 PUSH0 KECCAK256 SWAP1 ORIGIN CALLER EQ DUP1 ISZERO PUSH2 0x1933 JUMPI JUMPDEST PUSH2 0x18DF SWAP1 PUSH2 0x16C4 JUMP JUMPDEST PUSH1 0xC PUSH0 SWAP3 ADD SWAP1 DUP2 SLOAD SWAP3 JUMPDEST DUP4 DUP2 LT PUSH2 0x18F8 JUMPI POP POP POP POP PUSH0 SWAP1 JUMP JUMPDEST PUSH1 0x40 MLOAD PUSH1 0x20 DUP2 ADD SWAP1 DUP4 DUP3 MSTORE PUSH1 0x20 DUP2 MSTORE PUSH2 0x1912 PUSH1 0x40 DUP3 PUSH2 0x151B JUMP JUMPDEST MLOAD SWAP1 KECCAK256 PUSH2 0x191F DUP3 DUP6 PUSH2 0x1710 JUMP JUMPDEST SWAP1 SLOAD SWAP1 PUSH1 0x3 SHL SHR EQ PUSH2 0x17B8 JUMPI PUSH1 0x1 ADD PUSH2 0x18E9 JUMP JUMPDEST POP PUSH2 0x18DF PUSH2 0x1941 CALLER DUP5 PUSH2 0x1B04 JUMP JUMPDEST SWAP1 POP PUSH2 0x18D6 JUMP JUMPDEST PUSH2 0x1955 PUSH1 0x1 SLOAD DUP3 LT PUSH2 0x1678 JUMP JUMPDEST PUSH0 MSTORE PUSH0 PUSH1 0x20 MSTORE PUSH1 0x40 PUSH0 KECCAK256 SWAP1 ORIGIN CALLER EQ DUP1 ISZERO PUSH2 0x19C7 JUMPI JUMPDEST PUSH2 0x1973 SWAP1 PUSH2 0x16C4 JUMP JUMPDEST PUSH1 0xA PUSH0 SWAP3 ADD SWAP1 DUP2 SLOAD SWAP3 JUMPDEST DUP4 DUP2 LT PUSH2 0x198C JUMPI POP POP POP POP PUSH0 SWAP1 JUMP JUMPDEST PUSH1 0x40 MLOAD PUSH1 0x20 DUP2 ADD SWAP1 DUP4 DUP3 MSTORE PUSH1 0x20 DUP2 MSTORE PUSH2 0x19A6 PUSH1 0x40 DUP3 PUSH2 0x151B JUMP JUMPDEST MLOAD SWAP1 KECCAK256 PUSH2 0x19B3 DUP3 DUP6 PUSH2 0x1710 JUMP JUMPDEST SWAP1 SLOAD SWAP1 PUSH1 0x3 SHL SHR EQ PUSH2 0x17B8 JUMPI PUSH1 0x1 ADD PUSH2 0x197D JUMP JUMPDEST POP PUSH2 0x1973 PUSH2 0x19D5 CALLER DUP5 PUSH2 0x1B04 JUMP JUMPDEST SWAP1 POP PUSH2 0x196A JUMP JUMPDEST PUSH2 0x19E9 PUSH1 0x1 SLOAD DUP3 LT PUSH2 0x1678 JUMP JUMPDEST PUSH0 MSTORE PUSH0 PUSH1 0x20 MSTORE PUSH1 0x40 PUSH0 KECCAK256 SWAP1 ORIGIN CALLER EQ DUP1 ISZERO PUSH2 0x1A5B JUMPI JUMPDEST PUSH2 0x1A07 SWAP1 PUSH2 0x16C4 JUMP JUMPDEST PUSH1 0xB PUSH0 SWAP3 ADD SWAP1 DUP2 SLOAD SWAP3 JUMPDEST DUP4 DUP2 LT PUSH2 0x1A20 JUMPI POP POP POP POP PUSH0 SWAP1 JUMP JUMPDEST PUSH1 0x40 MLOAD PUSH1 0x20 DUP2 ADD SWAP1 DUP4 DUP3 MSTORE PUSH1 0x20 DUP2 MSTORE PUSH2 0x1A3A PUSH1 0x40 DUP3 PUSH2 0x151B JUMP JUMPDEST MLOAD SWAP1 KECCAK256 PUSH2 0x1A47 DUP3 DUP6 PUSH2 0x1710 JUMP JUMPDEST SWAP1 SLOAD SWAP1 PUSH1 0x3 SHL SHR EQ PUSH2 0x17B8 JUMPI PUSH1 0x1 ADD PUSH2 0x1A11 JUMP JUMPDEST POP PUSH2 0x1A07 PUSH2 0x1A69 CALLER DUP5 PUSH2 0x1B04 JUMP JUMPDEST SWAP1 POP PUSH2 0x19FE JUMP JUMPDEST PUSH2 0x1A7D PUSH1 0x1 SLOAD DUP3 LT PUSH2 0x1678 JUMP JUMPDEST PUSH0 MSTORE PUSH0 PUSH1 0x20 MSTORE PUSH1 0x40 PUSH0 KECCAK256 SWAP1 ORIGIN CALLER EQ DUP1 ISZERO PUSH2 0x1AEF JUMPI JUMPDEST PUSH2 0x1A9B SWAP1 PUSH2 0x16C4 JUMP JUMPDEST PUSH1 0x12 PUSH0 SWAP3 ADD SWAP1 DUP2 SLOAD SWAP3 JUMPDEST DUP4 DUP2 LT PUSH2 0x1AB4 JUMPI POP POP POP POP PUSH0 SWAP1 JUMP JUMPDEST PUSH1 0x40 MLOAD PUSH1 0x20 DUP2 ADD SWAP1 DUP4 DUP3 MSTORE PUSH1 0x20 DUP2 MSTORE PUSH2 0x1ACE PUSH1 0x40 DUP3 PUSH2 0x151B JUMP JUMPDEST MLOAD SWAP1 KECCAK256 PUSH2 0x1ADB DUP3 DUP6 PUSH2 0x1710 JUMP JUMPDEST SWAP1 SLOAD SWAP1 PUSH1 0x3 SHL SHR EQ PUSH2 0x17B8 JUMPI PUSH1 0x1 ADD PUSH2 0x1AA5 JUMP JUMPDEST POP PUSH2 0x1A9B PUSH2 0x1AFD CALLER DUP5 PUSH2 0x1B04 JUMP JUMPDEST SWAP1 POP PUSH2 0x1A92 JUMP JUMPDEST SWAP1 PUSH0 JUMPDEST PUSH1 0x16 DUP4 ADD DUP1 SLOAD DUP3 LT ISZERO PUSH2 0x1B4A JUMPI DUP2 PUSH2 0x1B1E SWAP2 PUSH2 0x1710 JUMP JUMPDEST SWAP1 SLOAD PUSH1 0x3 SWAP2 SWAP1 SWAP2 SHL SHR PUSH1 0x1 PUSH1 0x1 PUSH1 0xA0 SHL SUB SWAP1 DUP2 AND SWAP1 DUP4 AND EQ PUSH2 0x1B42 JUMPI PUSH1 0x1 ADD PUSH2 0x1B07 JUMP JUMPDEST POP POP POP PUSH1 0x1 SWAP1 JUMP JUMPDEST POP POP POP POP PUSH0 SWAP1 JUMP INVALID LOG2 PUSH5 0x6970667358 0x22 SLT KECCAK256 NUMBER CALLDATACOPY SHL 0xB8 XOR PUSH12 0x2E2916435CDDDBB2441B137E 0xE CALLCODE 0xF9 SWAP13 0xCF 0x28 0xFB DUP16 MULMOD 0xC4 RETURNDATACOPY SWAP13 BALANCE 0xE2 PUSH5 0x736F6C6343 STOP ADDMOD BYTE STOP CALLER "
				},
				"gasEstimates": {
					"creation": {
						"codeDepositCost": "1409600",
						"executionCost": "1481",
						"totalCost": "1411081"
					},
					"external": {
						"addPatientRecord(bytes32,bytes32,bytes32,bytes32,bytes32,bytes32,bytes32,bytes32,bytes32[],bytes32[],bytes32[],bytes32,bytes32[],bytes32[],uint256,bytes32,bytes32[],bytes32,bytes32)": "infinite",
						"emergencyAccess(uint256,string)": "infinite",
						"getNormalRecords(uint256)": "17495",
						"grantAccess(uint256,address)": "53357",
						"nextPatientId()": "2495",
						"patientRecords(uint256)": "36890",
						"revokeAccess(uint256,address)": "infinite",
						"setEmergencyPin(uint256,string)": "infinite",
						"updatePatientRecord(uint256,bytes32,bytes32,bytes32,bytes32,bytes32,bytes32,bytes32,bytes32,bytes32[],bytes32[],bytes32[],bytes32,bytes32[],bytes32[],uint256,bytes32,bytes32[],bytes32,bytes32)": "infinite",
						"verifyAllergy(uint256,bytes32)": "infinite",
						"verifyBloodType(uint256,bytes32)": "infinite",
						"verifyMedicalHistory(uint256,bytes32)": "infinite",
						"verifyMedications(uint256,bytes32)": "infinite",
						"verifydietPlanHash(uint256,bytes32)": "infinite",
						"verifydoctorNotesHash(uint256,bytes32)": "infinite",
						"verifyfitnessLevelHash(uint256,bytes32)": "infinite",
						"verifyinsuranceIDhash(uint256,bytes32)": "infinite",
						"verifynationalID(uint256,bytes32)": "infinite",
						"verifyorganDonorStatus(uint256,bytes32)": "infinite",
						"verifyvaccinationRecordsHash(uint256,bytes32)": "infinite",
						"verifywearableDeviceDataHash(uint256,bytes32)": "infinite"
					},
					"internal": {
						"isAuthorized(struct hsh.PatientRecord storage pointer,address)": "infinite"
					}
				},
				"methodIdentifiers": {
					"addPatientRecord(bytes32,bytes32,bytes32,bytes32,bytes32,bytes32,bytes32,bytes32,bytes32[],bytes32[],bytes32[],bytes32,bytes32[],bytes32[],uint256,bytes32,bytes32[],bytes32,bytes32)": "7d6b63da",
					"emergencyAccess(uint256,string)": "3c2bc6a1",
					"getNormalRecords(uint256)": "b1ddd00e",
					"grantAccess(uint256,address)": "65dd152c",
					"nextPatientId()": "b1131795",
					"patientRecords(uint256)": "d3d188a1",
					"revokeAccess(uint256,address)": "d9a5ec1b",
					"setEmergencyPin(uint256,string)": "b38deff0",
					"updatePatientRecord(uint256,bytes32,bytes32,bytes32,bytes32,bytes32,bytes32,bytes32,bytes32,bytes32[],bytes32[],bytes32[],bytes32,bytes32[],bytes32[],uint256,bytes32,bytes32[],bytes32,bytes32)": "f23b525a",
					"verifyAllergy(uint256,bytes32)": "7f153a38",
					"verifyBloodType(uint256,bytes32)": "403ae760",
					"verifyMedicalHistory(uint256,bytes32)": "99473b68",
					"verifyMedications(uint256,bytes32)": "541ccefe",
					"verifydietPlanHash(uint256,bytes32)": "c556b6a8",
					"verifydoctorNotesHash(uint256,bytes32)": "c73b6156",
					"verifyfitnessLevelHash(uint256,bytes32)": "b072215e",
					"verifyinsuranceIDhash(uint256,bytes32)": "d267124d",
					"verifynationalID(uint256,bytes32)": "bb17c815",
					"verifyorganDonorStatus(uint256,bytes32)": "47003829",
					"verifyvaccinationRecordsHash(uint256,bytes32)": "1f36bc11",
					"verifywearableDeviceDataHash(uint256,bytes32)": "ffe77a9c"
				}
			},
			"storageLayout": {
				"storage": [
					{
						"astId": 62,
						"contract": "hsh.sol:hsh",
						"label": "patientRecords",
						"offset": 0,
						"slot": "0",
						"type": "t_mapping(t_uint256,t_struct(PatientRecord)57_storage)"
					},
					{
						"astId": 64,
						"contract": "hsh.sol:hsh",
						"label": "nextPatientId",
						"offset": 0,
						"slot": "1",
						"type": "t_uint256"
					},
					{
						"astId": 1220,
						"contract": "hsh.sol:hsh",
						"label": "emergencyPins",
						"offset": 0,
						"slot": "2",
						"type": "t_mapping(t_uint256,t_bytes32)"
					}
				],
				"types": {
					"t_address": {
						"encoding": "inplace",
						"label": "address",
						"numberOfBytes": "20"
					},
					"t_array(t_address)dyn_storage": {
						"base": "t_address",
						"encoding": "dynamic_array",
						"label": "address[]",
						"numberOfBytes": "32"
					},
					"t_array(t_bytes32)dyn_storage": {
						"base": "t_bytes32",
						"encoding": "dynamic_array",
						"label": "bytes32[]",
						"numberOfBytes": "32"
					},
					"t_bytes32": {
						"encoding": "inplace",
						"label": "bytes32",
						"numberOfBytes": "32"
					},
					"t_mapping(t_uint256,t_bytes32)": {
						"encoding": "mapping",
						"key": "t_uint256",
						"label": "mapping(uint256 => bytes32)",
						"numberOfBytes": "32",
						"value": "t_bytes32"
					},
					"t_mapping(t_uint256,t_struct(PatientRecord)57_storage)": {
						"encoding": "mapping",
						"key": "t_uint256",
						"label": "mapping(uint256 => struct hsh.PatientRecord)",
						"numberOfBytes": "32",
						"value": "t_struct(PatientRecord)57_storage"
					},
					"t_struct(PatientRecord)57_storage": {
						"encoding": "inplace",
						"label": "struct hsh.PatientRecord",
						"members": [
							{
								"astId": 3,
								"contract": "hsh.sol:hsh",
								"label": "patientId",
								"offset": 0,
								"slot": "0",
								"type": "t_uint256"
							},
							{
								"astId": 5,
								"contract": "hsh.sol:hsh",
								"label": "owner",
								"offset": 0,
								"slot": "1",
								"type": "t_address"
							},
							{
								"astId": 7,
								"contract": "hsh.sol:hsh",
								"label": "nationalIDhash",
								"offset": 0,
								"slot": "2",
								"type": "t_bytes32"
							},
							{
								"astId": 9,
								"contract": "hsh.sol:hsh",
								"label": "insuranceIDhash",
								"offset": 0,
								"slot": "3",
								"type": "t_bytes32"
							},
							{
								"astId": 11,
								"contract": "hsh.sol:hsh",
								"label": "nameHash",
								"offset": 0,
								"slot": "4",
								"type": "t_bytes32"
							},
							{
								"astId": 13,
								"contract": "hsh.sol:hsh",
								"label": "dobHash",
								"offset": 0,
								"slot": "5",
								"type": "t_bytes32"
							},
							{
								"astId": 15,
								"contract": "hsh.sol:hsh",
								"label": "genderHash",
								"offset": 0,
								"slot": "6",
								"type": "t_bytes32"
							},
							{
								"astId": 17,
								"contract": "hsh.sol:hsh",
								"label": "bloodTypeHash",
								"offset": 0,
								"slot": "7",
								"type": "t_bytes32"
							},
							{
								"astId": 19,
								"contract": "hsh.sol:hsh",
								"label": "phoneHash",
								"offset": 0,
								"slot": "8",
								"type": "t_bytes32"
							},
							{
								"astId": 21,
								"contract": "hsh.sol:hsh",
								"label": "addressHash",
								"offset": 0,
								"slot": "9",
								"type": "t_bytes32"
							},
							{
								"astId": 24,
								"contract": "hsh.sol:hsh",
								"label": "allergiesHash",
								"offset": 0,
								"slot": "10",
								"type": "t_array(t_bytes32)dyn_storage"
							},
							{
								"astId": 27,
								"contract": "hsh.sol:hsh",
								"label": "medicalHistoryHash",
								"offset": 0,
								"slot": "11",
								"type": "t_array(t_bytes32)dyn_storage"
							},
							{
								"astId": 30,
								"contract": "hsh.sol:hsh",
								"label": "medicationsHash",
								"offset": 0,
								"slot": "12",
								"type": "t_array(t_bytes32)dyn_storage"
							},
							{
								"astId": 32,
								"contract": "hsh.sol:hsh",
								"label": "emergencyContactHash",
								"offset": 0,
								"slot": "13",
								"type": "t_bytes32"
							},
							{
								"astId": 35,
								"contract": "hsh.sol:hsh",
								"label": "organDonorStatus",
								"offset": 0,
								"slot": "14",
								"type": "t_array(t_bytes32)dyn_storage"
							},
							{
								"astId": 38,
								"contract": "hsh.sol:hsh",
								"label": "vaccinationRecordsHash",
								"offset": 0,
								"slot": "15",
								"type": "t_array(t_bytes32)dyn_storage"
							},
							{
								"astId": 40,
								"contract": "hsh.sol:hsh",
								"label": "lastcheckupTimestamp",
								"offset": 0,
								"slot": "16",
								"type": "t_uint256"
							},
							{
								"astId": 42,
								"contract": "hsh.sol:hsh",
								"label": "doctorNotesHash",
								"offset": 0,
								"slot": "17",
								"type": "t_bytes32"
							},
							{
								"astId": 45,
								"contract": "hsh.sol:hsh",
								"label": "wearableDeviceDataHash",
								"offset": 0,
								"slot": "18",
								"type": "t_array(t_bytes32)dyn_storage"
							},
							{
								"astId": 47,
								"contract": "hsh.sol:hsh",
								"label": "fitnessLevelHash",
								"offset": 0,
								"slot": "19",
								"type": "t_bytes32"
							},
							{
								"astId": 49,
								"contract": "hsh.sol:hsh",
								"label": "dietPlanHash",
								"offset": 0,
								"slot": "20",
								"type": "t_bytes32"
							},
							{
								"astId": 51,
								"contract": "hsh.sol:hsh",
								"label": "accessLevel",
								"offset": 0,
								"slot": "21",
								"type": "t_uint256"
							},
							{
								"astId": 54,
								"contract": "hsh.sol:hsh",
								"label": "authorizedProviders",
								"offset": 0,
								"slot": "22",
								"type": "t_array(t_address)dyn_storage"
							},
							{
								"astId": 56,
								"contract": "hsh.sol:hsh",
								"label": "timestamp",
								"offset": 0,
								"slot": "23",
								"type": "t_uint256"
							}
						],
						"numberOfBytes": "768"
					},
					"t_uint256": {
						"encoding": "inplace",
						"label": "uint256",
						"numberOfBytes": "32"
					}
				}
			},
			"userdoc": {
				"kind": "user",
				"methods": {},
				"version": 1
			}
		}
	}
}