{
	"data": {
		"bytecode": {
			"linkReferences": {},
			"object": "6080604052346101305761001233610134565b507f72606200fac42b7dc86b75901d61ecfab2a4a1a6eded478b97a428094891abed5f81815260208190527f01269c68c28a67305f4a2d47532888d6c961251cfcb06c9cdb6066d32b24b32180545f8051602061139783398151915291829055909290917fbd79b86ffe0ab8e8776151514217cd7cacd52c909f66475c3af44e129f0b00ff9080a47f0af1dac7dea2fd7f7738119cec7df099dfad49aa9d2e7d17ba6b60f63ae7411f5f81815260208190527fdf1cb6f79b8687a60e91aced08290a53cb47a179b80c0c7c836d1c923c9a564880545f8051602061139783398151915291829055909290917fbd79b86ffe0ab8e8776151514217cd7cacd52c909f66475c3af44e129f0b00ff9080a46040516111aa90816101cd8239f35b5f80fd5b6001600160a01b0381165f9081525f80516020611377833981519152602052604090205460ff166101c7576001600160a01b03165f8181525f8051602061137783398151915260205260408120805460ff191660011790553391905f80516020611397833981519152907f2f8788117e7eff1d82e926ec794901d17c78024a50270940304540a733656f0d9080a4600190565b505f9056fe6080806040526004361015610012575f80fd5b5f3560e01c90816301ffc9a714610cd9575080631d9486de14610c29578063248a9ca314610bf75780632f2ff15d14610bba57806336568abe14610b765780633c2bc6a114610acb57806365dd152c146108ec57806375b238fc146108b257806391d148541461086a578063a217fddf14610850578063ac5cb97d14610816578063b1131795146107f9578063b38deff014610757578063b63149151461044b578063b9fff11b14610399578063d3d188a11461032d578063d547741f146102e9578063dba454621461012b5763fec331f2146100ed575f80fd5b34610127575f3660031901126101275760206040517f0af1dac7dea2fd7f7738119cec7df099dfad49aa9d2e7d17ba6b60f63ae7411f8152f35b5f80fd5b346101275761013936610dba565b815f52600160205261015b60018060a01b03600160405f200154163314610f35565b6101686003548310610ee9565b815f526001602052600260405f20019181519267ffffffffffffffff84116102d5576101948154610e11565b601f811161029a575b50602093601f811160011461021957807f080568d98c5c4be465f3f47ef6da4b979fdc4ca568775898275584974a140f0f955f9161020e575b508160011b915f199060031b1c19161790555b805f52600160205242600460405f20015561020960405192839283610fb8565b0390a1005b9050840151866101d6565b601f19811694825f52805f20955f5b81811061028257509582916001937f080568d98c5c4be465f3f47ef6da4b979fdc4ca568775898275584974a140f0f981061026a575b5050811b0190556101e9565b8601515f1960f88460031b161c19169055868061025e565b86830151885560019097019660209283019201610228565b6102c590825f5260205f20601f870160051c810191602088106102cb575b601f0160051c0190610fa2565b8461019d565b90915081906102b8565b634e487b7160e01b5f52604160045260245ffd5b346101275760403660031901126101275761032b600435610308610d2c565b90610326610321825f525f602052600160405f20015490565b610fcf565b61108f565b005b34610127576020366003190112610127576004355f52600160205260405f20805460018060a01b036001830154169161038f600461036d60028401610e49565b9201549160405194859485526020850152608060408501526080840190610ded565b9060608301520390f35b3461012757602036600319011261012757600435805f52600160205260018060a01b03600160405f200154163314801561043b575b15610404575f5260016020526104006103ec600260405f2001610e49565b604051918291602083526020830190610ded565b0390f35b60405162461bcd60e51b815260206004820152600f60248201526e2737ba1030baba3437b934bd32b21760891b6044820152606490fd5b50610446338261110f565b6103ce565b346101275760203660031901126101275760043567ffffffffffffffff81116101275761047c903690600401610d64565b335f9081527f01269c68c28a67305f4a2d47532888d6c961251cfcb06c9cdb6066d32b24b320602052604090205460ff1615610712576003549060206040516104c58282610d42565b5f81525f3681376040519160a0830183811067ffffffffffffffff8211176102d5576040528483528083019133835260408401858152606085019182526080850193428552875f526001845260405f2095518655600186019060018060a01b039051166bffffffffffffffffffffffff60a01b82541617905560028501905180519067ffffffffffffffff82116102d55781906105628454610e11565b601f81116106e4575b508590601f8311600114610681575f92610676575b50508160011b915f199060031b1c19161790555b51805191600385019167ffffffffffffffff84116102d557600160401b84116102d5578190835485855580861061065b575b5001915f52805f20905f5b84811061064057888888600489519101556003545f19811461062c577f0787c9ae7718043965d54a360ce99ba2770a327db7605042c3bf617652f739629160016106279201600355604051918291339583610fb8565b0390a2005b634e487b7160e01b5f52601160045260245ffd5b83516001600160a01b031683820155928101926001016105d1565b61067090855f5286845f209182019101610fa2565b896105c6565b015190508980610580565b5f8581528781209350601f198516905b888282106106ce5750509084600195949392106106b6575b505050811b019055610594565b01515f1960f88460031b161c191690558980806106a9565b6001859682939686015181550195019301610691565b61070c90855f52875f20601f850160051c8101918986106102cb57601f0160051c0190610fa2565b8a61056b565b60405162461bcd60e51b815260206004820152601960248201527f4e6f74206120726567697374657265642070617469656e742e000000000000006044820152606490fd5b34610127577f77a8ab2ef0d4890818f6e3342f66cd90c0f63167cf0b1507a8ee9132c9e7eaf3602061078836610dba565b815f52600183526107a960018060a01b03600160405f200154163314610f35565b6107b66003548310610ee9565b6040516107e184828180820195805191829101875e81015f838201520301601f198101835282610d42565b519020815f526002835260405f2055604051908152a1005b34610127575f366003190112610127576020600354604051908152f35b34610127575f3660031901126101275760206040517f72606200fac42b7dc86b75901d61ecfab2a4a1a6eded478b97a428094891abed8152f35b34610127575f3660031901126101275760206040515f8152f35b3461012757604036600319011261012757610883610d2c565b6004355f525f60205260405f209060018060a01b03165f52602052602060ff60405f2054166040519015158152f35b34610127575f3660031901126101275760206040517fa49807205ce4d355092ef5a8a18f56e8913cf4a201fbe287825b095693c217758152f35b3461012757604036600319011261012757600435610908610d2c565b90805f52600160205261092b60018060a01b03600160405f200154163314610f35565b6109386003548210610ee9565b6001600160a01b0382165f9081527fdf1cb6f79b8687a60e91aced08290a53cb47a179b80c0c7c836d1c923c9a5647602052604090205460ff1615610a8657906001600160a01b03165f5b825f526001602052600360405f200154811015610a0d57825f526001602052816109b382600360405f2001610f79565b905460039190911b1c6001600160a01b0316146109d257600101610983565b60405162461bcd60e51b815260206004820152601360248201527220b63932b0b23c9030baba3437b934bd32b21760691b6044820152606490fd5b5090805f526001602052600360405f200190815490600160401b8210156102d557610a61827f3c3a9147a1fc73dd51a32f4d10c43d457e8cb826eb6f35cac6349eb965ba82b4946001602095018155610f79565b81546001600160a01b0360039290921b91821b19169086901b179055604051908152a2005b60405162461bcd60e51b815260206004820152601860248201527f4e6f742061207265676973746572656420646f63746f722e00000000000000006044820152606490fd5b3461012757610ad936610dba565b610ae66003548310610ee9565b604051610b126020828180820195805191829101875e81015f838201520301601f198101835282610d42565b519020815f52600260205260405f205403610b40575f5260016020526104006103ec600260405f2001610e49565b60405162461bcd60e51b815260206004820152600e60248201526d24b731b7b93932b1ba102824a71760911b6044820152606490fd5b3461012757604036600319011261012757610b8f610d2c565b336001600160a01b03821603610bab5761032b9060043561108f565b63334bd91960e11b5f5260045ffd5b346101275760403660031901126101275761032b600435610bd9610d2c565b90610bf2610321825f525f602052600160405f20015490565b611007565b34610127576020366003190112610127576020610c216004355f525f602052600160405f20015490565b604051908152f35b34610127576040366003190112610127576004356001600160a01b038116810361012757335f9081527f7d7ffb7a348e1c6a02869081a26547b49160dd3df72d1d75a570eb9b698292ec6020526040902054602435919060ff1615610ca45781610bf261032161032b945f525f602052600160405f20015490565b60405162461bcd60e51b815260206004820152600d60248201526c2737ba1030b71030b236b4b71760991b6044820152606490fd5b34610127576020366003190112610127576004359063ffffffff60e01b821680920361012757602091637965db0b60e01b8114908115610d1b575b5015158152f35b6301ffc9a760e01b14905083610d14565b602435906001600160a01b038216820361012757565b90601f8019910116810190811067ffffffffffffffff8211176102d557604052565b81601f820112156101275780359067ffffffffffffffff82116102d55760405192610d99601f8401601f191660200185610d42565b8284526020838301011161012757815f926020809301838601378301015290565b90604060031983011261012757600435916024359067ffffffffffffffff821161012757610dea91600401610d64565b90565b805180835260209291819084018484015e5f828201840152601f01601f1916010190565b90600182811c92168015610e3f575b6020831014610e2b57565b634e487b7160e01b5f52602260045260245ffd5b91607f1691610e20565b9060405191825f825492610e5c84610e11565b8084529360018116908115610ec75750600114610e83575b50610e8192500383610d42565b565b90505f9291925260205f20905f915b818310610eab575050906020610e81928201015f610e74565b6020919350806001915483858901015201910190918492610e92565b905060209250610e8194915060ff191682840152151560051b8201015f610e74565b15610ef057565b60405162461bcd60e51b815260206004820152601e60248201527f50617469656e74207265636f726420646f6573206e6f742065786973742e00006044820152606490fd5b15610f3c57565b60405162461bcd60e51b81526020600482015260156024820152742737ba103a3432903932b1b7b9321037bbb732b91760591b6044820152606490fd5b8054821015610f8e575f5260205f2001905f90565b634e487b7160e01b5f52603260045260245ffd5b818110610fad575050565b5f8155600101610fa2565b604090610dea939281528160208201520190610ded565b5f8181526020818152604080832033845290915290205460ff1615610ff15750565b63e2517d3f60e01b5f523360045260245260445ffd5b5f818152602081815260408083206001600160a01b038616845290915290205460ff16611089575f818152602081815260408083206001600160a01b0395909516808452949091528120805460ff19166001179055339291907f2f8788117e7eff1d82e926ec794901d17c78024a50270940304540a733656f0d9080a4600190565b50505f90565b5f818152602081815260408083206001600160a01b038616845290915290205460ff1615611089575f818152602081815260408083206001600160a01b0395909516808452949091528120805460ff19169055339291907ff6391f5c32d9c69d2a47ea670b442974b53935d1edc7fd64eb21e047a839171b9080a4600190565b905f5b825f526001602052600360405f20015481101561116d57825f52600160205261114181600360405f2001610f79565b905460039190911b1c6001600160a01b039081169083161461116557600101611112565b505050600190565b5050505f9056fea26469706673582212202100fcf8ecca15297d98360de5e56dbfac486eeee1e0e245405b6c4c77e2e11f64736f6c634300081a00337d7ffb7a348e1c6a02869081a26547b49160dd3df72d1d75a570eb9b698292eca49807205ce4d355092ef5a8a18f56e8913cf4a201fbe287825b095693c21775",
			"opcodes": "PUSH1 0x80 PUSH1 0x40 MSTORE CALLVALUE PUSH2 0x130 JUMPI PUSH2 0x12 CALLER PUSH2 0x134 JUMP JUMPDEST POP PUSH32 0x72606200FAC42B7DC86B75901D61ECFAB2A4A1A6EDED478B97A428094891ABED PUSH0 DUP2 DUP2 MSTORE PUSH1 0x20 DUP2 SWAP1 MSTORE PUSH32 0x1269C68C28A67305F4A2D47532888D6C961251CFCB06C9CDB6066D32B24B321 DUP1 SLOAD PUSH0 DUP1 MLOAD PUSH1 0x20 PUSH2 0x1397 DUP4 CODECOPY DUP2 MLOAD SWAP2 MSTORE SWAP2 DUP3 SWAP1 SSTORE SWAP1 SWAP3 SWAP1 SWAP2 PUSH32 0xBD79B86FFE0AB8E8776151514217CD7CACD52C909F66475C3AF44E129F0B00FF SWAP1 DUP1 LOG4 PUSH32 0xAF1DAC7DEA2FD7F7738119CEC7DF099DFAD49AA9D2E7D17BA6B60F63AE7411F PUSH0 DUP2 DUP2 MSTORE PUSH1 0x20 DUP2 SWAP1 MSTORE PUSH32 0xDF1CB6F79B8687A60E91ACED08290A53CB47A179B80C0C7C836D1C923C9A5648 DUP1 SLOAD PUSH0 DUP1 MLOAD PUSH1 0x20 PUSH2 0x1397 DUP4 CODECOPY DUP2 MLOAD SWAP2 MSTORE SWAP2 DUP3 SWAP1 SSTORE SWAP1 SWAP3 SWAP1 SWAP2 PUSH32 0xBD79B86FFE0AB8E8776151514217CD7CACD52C909F66475C3AF44E129F0B00FF SWAP1 DUP1 LOG4 PUSH1 0x40 MLOAD PUSH2 0x11AA SWAP1 DUP2 PUSH2 0x1CD DUP3 CODECOPY RETURN JUMPDEST PUSH0 DUP1 REVERT JUMPDEST PUSH1 0x1 PUSH1 0x1 PUSH1 0xA0 SHL SUB DUP2 AND PUSH0 SWAP1 DUP2 MSTORE PUSH0 DUP1 MLOAD PUSH1 0x20 PUSH2 0x1377 DUP4 CODECOPY DUP2 MLOAD SWAP2 MSTORE PUSH1 0x20 MSTORE PUSH1 0x40 SWAP1 KECCAK256 SLOAD PUSH1 0xFF AND PUSH2 0x1C7 JUMPI PUSH1 0x1 PUSH1 0x1 PUSH1 0xA0 SHL SUB AND PUSH0 DUP2 DUP2 MSTORE PUSH0 DUP1 MLOAD PUSH1 0x20 PUSH2 0x1377 DUP4 CODECOPY DUP2 MLOAD SWAP2 MSTORE PUSH1 0x20 MSTORE PUSH1 0x40 DUP2 KECCAK256 DUP1 SLOAD PUSH1 0xFF NOT AND PUSH1 0x1 OR SWAP1 SSTORE CALLER SWAP2 SWAP1 PUSH0 DUP1 MLOAD PUSH1 0x20 PUSH2 0x1397 DUP4 CODECOPY DUP2 MLOAD SWAP2 MSTORE SWAP1 PUSH32 0x2F8788117E7EFF1D82E926EC794901D17C78024A50270940304540A733656F0D SWAP1 DUP1 LOG4 PUSH1 0x1 SWAP1 JUMP JUMPDEST POP PUSH0 SWAP1 JUMP INVALID PUSH1 0x80 DUP1 PUSH1 0x40 MSTORE PUSH1 0x4 CALLDATASIZE LT ISZERO PUSH2 0x12 JUMPI PUSH0 DUP1 REVERT JUMPDEST PUSH0 CALLDATALOAD PUSH1 0xE0 SHR SWAP1 DUP2 PUSH4 0x1FFC9A7 EQ PUSH2 0xCD9 JUMPI POP DUP1 PUSH4 0x1D9486DE EQ PUSH2 0xC29 JUMPI DUP1 PUSH4 0x248A9CA3 EQ PUSH2 0xBF7 JUMPI DUP1 PUSH4 0x2F2FF15D EQ PUSH2 0xBBA JUMPI DUP1 PUSH4 0x36568ABE EQ PUSH2 0xB76 JUMPI DUP1 PUSH4 0x3C2BC6A1 EQ PUSH2 0xACB JUMPI DUP1 PUSH4 0x65DD152C EQ PUSH2 0x8EC JUMPI DUP1 PUSH4 0x75B238FC EQ PUSH2 0x8B2 JUMPI DUP1 PUSH4 0x91D14854 EQ PUSH2 0x86A JUMPI DUP1 PUSH4 0xA217FDDF EQ PUSH2 0x850 JUMPI DUP1 PUSH4 0xAC5CB97D EQ PUSH2 0x816 JUMPI DUP1 PUSH4 0xB1131795 EQ PUSH2 0x7F9 JUMPI DUP1 PUSH4 0xB38DEFF0 EQ PUSH2 0x757 JUMPI DUP1 PUSH4 0xB6314915 EQ PUSH2 0x44B JUMPI DUP1 PUSH4 0xB9FFF11B EQ PUSH2 0x399 JUMPI DUP1 PUSH4 0xD3D188A1 EQ PUSH2 0x32D JUMPI DUP1 PUSH4 0xD547741F EQ PUSH2 0x2E9 JUMPI DUP1 PUSH4 0xDBA45462 EQ PUSH2 0x12B JUMPI PUSH4 0xFEC331F2 EQ PUSH2 0xED JUMPI PUSH0 DUP1 REVERT JUMPDEST CALLVALUE PUSH2 0x127 JUMPI PUSH0 CALLDATASIZE PUSH1 0x3 NOT ADD SLT PUSH2 0x127 JUMPI PUSH1 0x20 PUSH1 0x40 MLOAD PUSH32 0xAF1DAC7DEA2FD7F7738119CEC7DF099DFAD49AA9D2E7D17BA6B60F63AE7411F DUP2 MSTORE RETURN JUMPDEST PUSH0 DUP1 REVERT JUMPDEST CALLVALUE PUSH2 0x127 JUMPI PUSH2 0x139 CALLDATASIZE PUSH2 0xDBA JUMP JUMPDEST DUP2 PUSH0 MSTORE PUSH1 0x1 PUSH1 0x20 MSTORE PUSH2 0x15B PUSH1 0x1 DUP1 PUSH1 0xA0 SHL SUB PUSH1 0x1 PUSH1 0x40 PUSH0 KECCAK256 ADD SLOAD AND CALLER EQ PUSH2 0xF35 JUMP JUMPDEST PUSH2 0x168 PUSH1 0x3 SLOAD DUP4 LT PUSH2 0xEE9 JUMP JUMPDEST DUP2 PUSH0 MSTORE PUSH1 0x1 PUSH1 0x20 MSTORE PUSH1 0x2 PUSH1 0x40 PUSH0 KECCAK256 ADD SWAP2 DUP2 MLOAD SWAP3 PUSH8 0xFFFFFFFFFFFFFFFF DUP5 GT PUSH2 0x2D5 JUMPI PUSH2 0x194 DUP2 SLOAD PUSH2 0xE11 JUMP JUMPDEST PUSH1 0x1F DUP2 GT PUSH2 0x29A JUMPI JUMPDEST POP PUSH1 0x20 SWAP4 PUSH1 0x1F DUP2 GT PUSH1 0x1 EQ PUSH2 0x219 JUMPI DUP1 PUSH32 0x80568D98C5C4BE465F3F47EF6DA4B979FDC4CA568775898275584974A140F0F SWAP6 PUSH0 SWAP2 PUSH2 0x20E JUMPI JUMPDEST POP DUP2 PUSH1 0x1 SHL SWAP2 PUSH0 NOT SWAP1 PUSH1 0x3 SHL SHR NOT AND OR SWAP1 SSTORE JUMPDEST DUP1 PUSH0 MSTORE PUSH1 0x1 PUSH1 0x20 MSTORE TIMESTAMP PUSH1 0x4 PUSH1 0x40 PUSH0 KECCAK256 ADD SSTORE PUSH2 0x209 PUSH1 0x40 MLOAD SWAP3 DUP4 SWAP3 DUP4 PUSH2 0xFB8 JUMP JUMPDEST SUB SWAP1 LOG1 STOP JUMPDEST SWAP1 POP DUP5 ADD MLOAD DUP7 PUSH2 0x1D6 JUMP JUMPDEST PUSH1 0x1F NOT DUP2 AND SWAP5 DUP3 PUSH0 MSTORE DUP1 PUSH0 KECCAK256 SWAP6 PUSH0 JUMPDEST DUP2 DUP2 LT PUSH2 0x282 JUMPI POP SWAP6 DUP3 SWAP2 PUSH1 0x1 SWAP4 PUSH32 0x80568D98C5C4BE465F3F47EF6DA4B979FDC4CA568775898275584974A140F0F SWAP9 LT PUSH2 0x26A JUMPI JUMPDEST POP POP DUP2 SHL ADD SWAP1 SSTORE PUSH2 0x1E9 JUMP JUMPDEST DUP7 ADD MLOAD PUSH0 NOT PUSH1 0xF8 DUP5 PUSH1 0x3 SHL AND SHR NOT AND SWAP1 SSTORE DUP7 DUP1 PUSH2 0x25E JUMP JUMPDEST DUP7 DUP4 ADD MLOAD DUP9 SSTORE PUSH1 0x1 SWAP1 SWAP8 ADD SWAP7 PUSH1 0x20 SWAP3 DUP4 ADD SWAP3 ADD PUSH2 0x228 JUMP JUMPDEST PUSH2 0x2C5 SWAP1 DUP3 PUSH0 MSTORE PUSH1 0x20 PUSH0 KECCAK256 PUSH1 0x1F DUP8 ADD PUSH1 0x5 SHR DUP2 ADD SWAP2 PUSH1 0x20 DUP9 LT PUSH2 0x2CB JUMPI JUMPDEST PUSH1 0x1F ADD PUSH1 0x5 SHR ADD SWAP1 PUSH2 0xFA2 JUMP JUMPDEST DUP5 PUSH2 0x19D JUMP JUMPDEST SWAP1 SWAP2 POP DUP2 SWAP1 PUSH2 0x2B8 JUMP JUMPDEST PUSH4 0x4E487B71 PUSH1 0xE0 SHL PUSH0 MSTORE PUSH1 0x41 PUSH1 0x4 MSTORE PUSH1 0x24 PUSH0 REVERT JUMPDEST CALLVALUE PUSH2 0x127 JUMPI PUSH1 0x40 CALLDATASIZE PUSH1 0x3 NOT ADD SLT PUSH2 0x127 JUMPI PUSH2 0x32B PUSH1 0x4 CALLDATALOAD PUSH2 0x308 PUSH2 0xD2C JUMP JUMPDEST SWAP1 PUSH2 0x326 PUSH2 0x321 DUP3 PUSH0 MSTORE PUSH0 PUSH1 0x20 MSTORE PUSH1 0x1 PUSH1 0x40 PUSH0 KECCAK256 ADD SLOAD SWAP1 JUMP JUMPDEST PUSH2 0xFCF JUMP JUMPDEST PUSH2 0x108F JUMP JUMPDEST STOP JUMPDEST CALLVALUE PUSH2 0x127 JUMPI PUSH1 0x20 CALLDATASIZE PUSH1 0x3 NOT ADD SLT PUSH2 0x127 JUMPI PUSH1 0x4 CALLDATALOAD PUSH0 MSTORE PUSH1 0x1 PUSH1 0x20 MSTORE PUSH1 0x40 PUSH0 KECCAK256 DUP1 SLOAD PUSH1 0x1 DUP1 PUSH1 0xA0 SHL SUB PUSH1 0x1 DUP4 ADD SLOAD AND SWAP2 PUSH2 0x38F PUSH1 0x4 PUSH2 0x36D PUSH1 0x2 DUP5 ADD PUSH2 0xE49 JUMP JUMPDEST SWAP3 ADD SLOAD SWAP2 PUSH1 0x40 MLOAD SWAP5 DUP6 SWAP5 DUP6 MSTORE PUSH1 0x20 DUP6 ADD MSTORE PUSH1 0x80 PUSH1 0x40 DUP6 ADD MSTORE PUSH1 0x80 DUP5 ADD SWAP1 PUSH2 0xDED JUMP JUMPDEST SWAP1 PUSH1 0x60 DUP4 ADD MSTORE SUB SWAP1 RETURN JUMPDEST CALLVALUE PUSH2 0x127 JUMPI PUSH1 0x20 CALLDATASIZE PUSH1 0x3 NOT ADD SLT PUSH2 0x127 JUMPI PUSH1 0x4 CALLDATALOAD DUP1 PUSH0 MSTORE PUSH1 0x1 PUSH1 0x20 MSTORE PUSH1 0x1 DUP1 PUSH1 0xA0 SHL SUB PUSH1 0x1 PUSH1 0x40 PUSH0 KECCAK256 ADD SLOAD AND CALLER EQ DUP1 ISZERO PUSH2 0x43B JUMPI JUMPDEST ISZERO PUSH2 0x404 JUMPI PUSH0 MSTORE PUSH1 0x1 PUSH1 0x20 MSTORE PUSH2 0x400 PUSH2 0x3EC PUSH1 0x2 PUSH1 0x40 PUSH0 KECCAK256 ADD PUSH2 0xE49 JUMP JUMPDEST PUSH1 0x40 MLOAD SWAP2 DUP3 SWAP2 PUSH1 0x20 DUP4 MSTORE PUSH1 0x20 DUP4 ADD SWAP1 PUSH2 0xDED JUMP JUMPDEST SUB SWAP1 RETURN JUMPDEST PUSH1 0x40 MLOAD PUSH3 0x461BCD PUSH1 0xE5 SHL DUP2 MSTORE PUSH1 0x20 PUSH1 0x4 DUP3 ADD MSTORE PUSH1 0xF PUSH1 0x24 DUP3 ADD MSTORE PUSH15 0x2737BA1030BABA3437B934BD32B217 PUSH1 0x89 SHL PUSH1 0x44 DUP3 ADD MSTORE PUSH1 0x64 SWAP1 REVERT JUMPDEST POP PUSH2 0x446 CALLER DUP3 PUSH2 0x110F JUMP JUMPDEST PUSH2 0x3CE JUMP JUMPDEST CALLVALUE PUSH2 0x127 JUMPI PUSH1 0x20 CALLDATASIZE PUSH1 0x3 NOT ADD SLT PUSH2 0x127 JUMPI PUSH1 0x4 CALLDATALOAD PUSH8 0xFFFFFFFFFFFFFFFF DUP2 GT PUSH2 0x127 JUMPI PUSH2 0x47C SWAP1 CALLDATASIZE SWAP1 PUSH1 0x4 ADD PUSH2 0xD64 JUMP JUMPDEST CALLER PUSH0 SWAP1 DUP2 MSTORE PUSH32 0x1269C68C28A67305F4A2D47532888D6C961251CFCB06C9CDB6066D32B24B320 PUSH1 0x20 MSTORE PUSH1 0x40 SWAP1 KECCAK256 SLOAD PUSH1 0xFF AND ISZERO PUSH2 0x712 JUMPI PUSH1 0x3 SLOAD SWAP1 PUSH1 0x20 PUSH1 0x40 MLOAD PUSH2 0x4C5 DUP3 DUP3 PUSH2 0xD42 JUMP JUMPDEST PUSH0 DUP2 MSTORE PUSH0 CALLDATASIZE DUP2 CALLDATACOPY PUSH1 0x40 MLOAD SWAP2 PUSH1 0xA0 DUP4 ADD DUP4 DUP2 LT PUSH8 0xFFFFFFFFFFFFFFFF DUP3 GT OR PUSH2 0x2D5 JUMPI PUSH1 0x40 MSTORE DUP5 DUP4 MSTORE DUP1 DUP4 ADD SWAP2 CALLER DUP4 MSTORE PUSH1 0x40 DUP5 ADD DUP6 DUP2 MSTORE PUSH1 0x60 DUP6 ADD SWAP2 DUP3 MSTORE PUSH1 0x80 DUP6 ADD SWAP4 TIMESTAMP DUP6 MSTORE DUP8 PUSH0 MSTORE PUSH1 0x1 DUP5 MSTORE PUSH1 0x40 PUSH0 KECCAK256 SWAP6 MLOAD DUP7 SSTORE PUSH1 0x1 DUP7 ADD SWAP1 PUSH1 0x1 DUP1 PUSH1 0xA0 SHL SUB SWAP1 MLOAD AND PUSH12 0xFFFFFFFFFFFFFFFFFFFFFFFF PUSH1 0xA0 SHL DUP3 SLOAD AND OR SWAP1 SSTORE PUSH1 0x2 DUP6 ADD SWAP1 MLOAD DUP1 MLOAD SWAP1 PUSH8 0xFFFFFFFFFFFFFFFF DUP3 GT PUSH2 0x2D5 JUMPI DUP2 SWAP1 PUSH2 0x562 DUP5 SLOAD PUSH2 0xE11 JUMP JUMPDEST PUSH1 0x1F DUP2 GT PUSH2 0x6E4 JUMPI JUMPDEST POP DUP6 SWAP1 PUSH1 0x1F DUP4 GT PUSH1 0x1 EQ PUSH2 0x681 JUMPI PUSH0 SWAP3 PUSH2 0x676 JUMPI JUMPDEST POP POP DUP2 PUSH1 0x1 SHL SWAP2 PUSH0 NOT SWAP1 PUSH1 0x3 SHL SHR NOT AND OR SWAP1 SSTORE JUMPDEST MLOAD DUP1 MLOAD SWAP2 PUSH1 0x3 DUP6 ADD SWAP2 PUSH8 0xFFFFFFFFFFFFFFFF DUP5 GT PUSH2 0x2D5 JUMPI PUSH1 0x1 PUSH1 0x40 SHL DUP5 GT PUSH2 0x2D5 JUMPI DUP2 SWAP1 DUP4 SLOAD DUP6 DUP6 SSTORE DUP1 DUP7 LT PUSH2 0x65B JUMPI JUMPDEST POP ADD SWAP2 PUSH0 MSTORE DUP1 PUSH0 KECCAK256 SWAP1 PUSH0 JUMPDEST DUP5 DUP2 LT PUSH2 0x640 JUMPI DUP9 DUP9 DUP9 PUSH1 0x4 DUP10 MLOAD SWAP2 ADD SSTORE PUSH1 0x3 SLOAD PUSH0 NOT DUP2 EQ PUSH2 0x62C JUMPI PUSH32 0x787C9AE7718043965D54A360CE99BA2770A327DB7605042C3BF617652F73962 SWAP2 PUSH1 0x1 PUSH2 0x627 SWAP3 ADD PUSH1 0x3 SSTORE PUSH1 0x40 MLOAD SWAP2 DUP3 SWAP2 CALLER SWAP6 DUP4 PUSH2 0xFB8 JUMP JUMPDEST SUB SWAP1 LOG2 STOP JUMPDEST PUSH4 0x4E487B71 PUSH1 0xE0 SHL PUSH0 MSTORE PUSH1 0x11 PUSH1 0x4 MSTORE PUSH1 0x24 PUSH0 REVERT JUMPDEST DUP4 MLOAD PUSH1 0x1 PUSH1 0x1 PUSH1 0xA0 SHL SUB AND DUP4 DUP3 ADD SSTORE SWAP3 DUP2 ADD SWAP3 PUSH1 0x1 ADD PUSH2 0x5D1 JUMP JUMPDEST PUSH2 0x670 SWAP1 DUP6 PUSH0 MSTORE DUP7 DUP5 PUSH0 KECCAK256 SWAP2 DUP3 ADD SWAP2 ADD PUSH2 0xFA2 JUMP JUMPDEST DUP10 PUSH2 0x5C6 JUMP JUMPDEST ADD MLOAD SWAP1 POP DUP10 DUP1 PUSH2 0x580 JUMP JUMPDEST PUSH0 DUP6 DUP2 MSTORE DUP8 DUP2 KECCAK256 SWAP4 POP PUSH1 0x1F NOT DUP6 AND SWAP1 JUMPDEST DUP9 DUP3 DUP3 LT PUSH2 0x6CE JUMPI POP POP SWAP1 DUP5 PUSH1 0x1 SWAP6 SWAP5 SWAP4 SWAP3 LT PUSH2 0x6B6 JUMPI JUMPDEST POP POP POP DUP2 SHL ADD SWAP1 SSTORE PUSH2 0x594 JUMP JUMPDEST ADD MLOAD PUSH0 NOT PUSH1 0xF8 DUP5 PUSH1 0x3 SHL AND SHR NOT AND SWAP1 SSTORE DUP10 DUP1 DUP1 PUSH2 0x6A9 JUMP JUMPDEST PUSH1 0x1 DUP6 SWAP7 DUP3 SWAP4 SWAP7 DUP7 ADD MLOAD DUP2 SSTORE ADD SWAP6 ADD SWAP4 ADD PUSH2 0x691 JUMP JUMPDEST PUSH2 0x70C SWAP1 DUP6 PUSH0 MSTORE DUP8 PUSH0 KECCAK256 PUSH1 0x1F DUP6 ADD PUSH1 0x5 SHR DUP2 ADD SWAP2 DUP10 DUP7 LT PUSH2 0x2CB JUMPI PUSH1 0x1F ADD PUSH1 0x5 SHR ADD SWAP1 PUSH2 0xFA2 JUMP JUMPDEST DUP11 PUSH2 0x56B JUMP JUMPDEST PUSH1 0x40 MLOAD PUSH3 0x461BCD PUSH1 0xE5 SHL DUP2 MSTORE PUSH1 0x20 PUSH1 0x4 DUP3 ADD MSTORE PUSH1 0x19 PUSH1 0x24 DUP3 ADD MSTORE PUSH32 0x4E6F74206120726567697374657265642070617469656E742E00000000000000 PUSH1 0x44 DUP3 ADD MSTORE PUSH1 0x64 SWAP1 REVERT JUMPDEST CALLVALUE PUSH2 0x127 JUMPI PUSH32 0x77A8AB2EF0D4890818F6E3342F66CD90C0F63167CF0B1507A8EE9132C9E7EAF3 PUSH1 0x20 PUSH2 0x788 CALLDATASIZE PUSH2 0xDBA JUMP JUMPDEST DUP2 PUSH0 MSTORE PUSH1 0x1 DUP4 MSTORE PUSH2 0x7A9 PUSH1 0x1 DUP1 PUSH1 0xA0 SHL SUB PUSH1 0x1 PUSH1 0x40 PUSH0 KECCAK256 ADD SLOAD AND CALLER EQ PUSH2 0xF35 JUMP JUMPDEST PUSH2 0x7B6 PUSH1 0x3 SLOAD DUP4 LT PUSH2 0xEE9 JUMP JUMPDEST PUSH1 0x40 MLOAD PUSH2 0x7E1 DUP5 DUP3 DUP2 DUP1 DUP3 ADD SWAP6 DUP1 MLOAD SWAP2 DUP3 SWAP2 ADD DUP8 MCOPY DUP2 ADD PUSH0 DUP4 DUP3 ADD MSTORE SUB ADD PUSH1 0x1F NOT DUP2 ADD DUP4 MSTORE DUP3 PUSH2 0xD42 JUMP JUMPDEST MLOAD SWAP1 KECCAK256 DUP2 PUSH0 MSTORE PUSH1 0x2 DUP4 MSTORE PUSH1 0x40 PUSH0 KECCAK256 SSTORE PUSH1 0x40 MLOAD SWAP1 DUP2 MSTORE LOG1 STOP JUMPDEST CALLVALUE PUSH2 0x127 JUMPI PUSH0 CALLDATASIZE PUSH1 0x3 NOT ADD SLT PUSH2 0x127 JUMPI PUSH1 0x20 PUSH1 0x3 SLOAD PUSH1 0x40 MLOAD SWAP1 DUP2 MSTORE RETURN JUMPDEST CALLVALUE PUSH2 0x127 JUMPI PUSH0 CALLDATASIZE PUSH1 0x3 NOT ADD SLT PUSH2 0x127 JUMPI PUSH1 0x20 PUSH1 0x40 MLOAD PUSH32 0x72606200FAC42B7DC86B75901D61ECFAB2A4A1A6EDED478B97A428094891ABED DUP2 MSTORE RETURN JUMPDEST CALLVALUE PUSH2 0x127 JUMPI PUSH0 CALLDATASIZE PUSH1 0x3 NOT ADD SLT PUSH2 0x127 JUMPI PUSH1 0x20 PUSH1 0x40 MLOAD PUSH0 DUP2 MSTORE RETURN JUMPDEST CALLVALUE PUSH2 0x127 JUMPI PUSH1 0x40 CALLDATASIZE PUSH1 0x3 NOT ADD SLT PUSH2 0x127 JUMPI PUSH2 0x883 PUSH2 0xD2C JUMP JUMPDEST PUSH1 0x4 CALLDATALOAD PUSH0 MSTORE PUSH0 PUSH1 0x20 MSTORE PUSH1 0x40 PUSH0 KECCAK256 SWAP1 PUSH1 0x1 DUP1 PUSH1 0xA0 SHL SUB AND PUSH0 MSTORE PUSH1 0x20 MSTORE PUSH1 0x20 PUSH1 0xFF PUSH1 0x40 PUSH0 KECCAK256 SLOAD AND PUSH1 0x40 MLOAD SWAP1 ISZERO ISZERO DUP2 MSTORE RETURN JUMPDEST CALLVALUE PUSH2 0x127 JUMPI PUSH0 CALLDATASIZE PUSH1 0x3 NOT ADD SLT PUSH2 0x127 JUMPI PUSH1 0x20 PUSH1 0x40 MLOAD PUSH32 0xA49807205CE4D355092EF5A8A18F56E8913CF4A201FBE287825B095693C21775 DUP2 MSTORE RETURN JUMPDEST CALLVALUE PUSH2 0x127 JUMPI PUSH1 0x40 CALLDATASIZE PUSH1 0x3 NOT ADD SLT PUSH2 0x127 JUMPI PUSH1 0x4 CALLDATALOAD PUSH2 0x908 PUSH2 0xD2C JUMP JUMPDEST SWAP1 DUP1 PUSH0 MSTORE PUSH1 0x1 PUSH1 0x20 MSTORE PUSH2 0x92B PUSH1 0x1 DUP1 PUSH1 0xA0 SHL SUB PUSH1 0x1 PUSH1 0x40 PUSH0 KECCAK256 ADD SLOAD AND CALLER EQ PUSH2 0xF35 JUMP JUMPDEST PUSH2 0x938 PUSH1 0x3 SLOAD DUP3 LT PUSH2 0xEE9 JUMP JUMPDEST PUSH1 0x1 PUSH1 0x1 PUSH1 0xA0 SHL SUB DUP3 AND PUSH0 SWAP1 DUP2 MSTORE PUSH32 0xDF1CB6F79B8687A60E91ACED08290A53CB47A179B80C0C7C836D1C923C9A5647 PUSH1 0x20 MSTORE PUSH1 0x40 SWAP1 KECCAK256 SLOAD PUSH1 0xFF AND ISZERO PUSH2 0xA86 JUMPI SWAP1 PUSH1 0x1 PUSH1 0x1 PUSH1 0xA0 SHL SUB AND PUSH0 JUMPDEST DUP3 PUSH0 MSTORE PUSH1 0x1 PUSH1 0x20 MSTORE PUSH1 0x3 PUSH1 0x40 PUSH0 KECCAK256 ADD SLOAD DUP2 LT ISZERO PUSH2 0xA0D JUMPI DUP3 PUSH0 MSTORE PUSH1 0x1 PUSH1 0x20 MSTORE DUP2 PUSH2 0x9B3 DUP3 PUSH1 0x3 PUSH1 0x40 PUSH0 KECCAK256 ADD PUSH2 0xF79 JUMP JUMPDEST SWAP1 SLOAD PUSH1 0x3 SWAP2 SWAP1 SWAP2 SHL SHR PUSH1 0x1 PUSH1 0x1 PUSH1 0xA0 SHL SUB AND EQ PUSH2 0x9D2 JUMPI PUSH1 0x1 ADD PUSH2 0x983 JUMP JUMPDEST PUSH1 0x40 MLOAD PUSH3 0x461BCD PUSH1 0xE5 SHL DUP2 MSTORE PUSH1 0x20 PUSH1 0x4 DUP3 ADD MSTORE PUSH1 0x13 PUSH1 0x24 DUP3 ADD MSTORE PUSH19 0x20B63932B0B23C9030BABA3437B934BD32B217 PUSH1 0x69 SHL PUSH1 0x44 DUP3 ADD MSTORE PUSH1 0x64 SWAP1 REVERT JUMPDEST POP SWAP1 DUP1 PUSH0 MSTORE PUSH1 0x1 PUSH1 0x20 MSTORE PUSH1 0x3 PUSH1 0x40 PUSH0 KECCAK256 ADD SWAP1 DUP2 SLOAD SWAP1 PUSH1 0x1 PUSH1 0x40 SHL DUP3 LT ISZERO PUSH2 0x2D5 JUMPI PUSH2 0xA61 DUP3 PUSH32 0x3C3A9147A1FC73DD51A32F4D10C43D457E8CB826EB6F35CAC6349EB965BA82B4 SWAP5 PUSH1 0x1 PUSH1 0x20 SWAP6 ADD DUP2 SSTORE PUSH2 0xF79 JUMP JUMPDEST DUP2 SLOAD PUSH1 0x1 PUSH1 0x1 PUSH1 0xA0 SHL SUB PUSH1 0x3 SWAP3 SWAP1 SWAP3 SHL SWAP2 DUP3 SHL NOT AND SWAP1 DUP7 SWAP1 SHL OR SWAP1 SSTORE PUSH1 0x40 MLOAD SWAP1 DUP2 MSTORE LOG2 STOP JUMPDEST PUSH1 0x40 MLOAD PUSH3 0x461BCD PUSH1 0xE5 SHL DUP2 MSTORE PUSH1 0x20 PUSH1 0x4 DUP3 ADD MSTORE PUSH1 0x18 PUSH1 0x24 DUP3 ADD MSTORE PUSH32 0x4E6F742061207265676973746572656420646F63746F722E0000000000000000 PUSH1 0x44 DUP3 ADD MSTORE PUSH1 0x64 SWAP1 REVERT JUMPDEST CALLVALUE PUSH2 0x127 JUMPI PUSH2 0xAD9 CALLDATASIZE PUSH2 0xDBA JUMP JUMPDEST PUSH2 0xAE6 PUSH1 0x3 SLOAD DUP4 LT PUSH2 0xEE9 JUMP JUMPDEST PUSH1 0x40 MLOAD PUSH2 0xB12 PUSH1 0x20 DUP3 DUP2 DUP1 DUP3 ADD SWAP6 DUP1 MLOAD SWAP2 DUP3 SWAP2 ADD DUP8 MCOPY DUP2 ADD PUSH0 DUP4 DUP3 ADD MSTORE SUB ADD PUSH1 0x1F NOT DUP2 ADD DUP4 MSTORE DUP3 PUSH2 0xD42 JUMP JUMPDEST MLOAD SWAP1 KECCAK256 DUP2 PUSH0 MSTORE PUSH1 0x2 PUSH1 0x20 MSTORE PUSH1 0x40 PUSH0 KECCAK256 SLOAD SUB PUSH2 0xB40 JUMPI PUSH0 MSTORE PUSH1 0x1 PUSH1 0x20 MSTORE PUSH2 0x400 PUSH2 0x3EC PUSH1 0x2 PUSH1 0x40 PUSH0 KECCAK256 ADD PUSH2 0xE49 JUMP JUMPDEST PUSH1 0x40 MLOAD PUSH3 0x461BCD PUSH1 0xE5 SHL DUP2 MSTORE PUSH1 0x20 PUSH1 0x4 DUP3 ADD MSTORE PUSH1 0xE PUSH1 0x24 DUP3 ADD MSTORE PUSH14 0x24B731B7B93932B1BA102824A717 PUSH1 0x91 SHL PUSH1 0x44 DUP3 ADD MSTORE PUSH1 0x64 SWAP1 REVERT JUMPDEST CALLVALUE PUSH2 0x127 JUMPI PUSH1 0x40 CALLDATASIZE PUSH1 0x3 NOT ADD SLT PUSH2 0x127 JUMPI PUSH2 0xB8F PUSH2 0xD2C JUMP JUMPDEST CALLER PUSH1 0x1 PUSH1 0x1 PUSH1 0xA0 SHL SUB DUP3 AND SUB PUSH2 0xBAB JUMPI PUSH2 0x32B SWAP1 PUSH1 0x4 CALLDATALOAD PUSH2 0x108F JUMP JUMPDEST PUSH4 0x334BD919 PUSH1 0xE1 SHL PUSH0 MSTORE PUSH1 0x4 PUSH0 REVERT JUMPDEST CALLVALUE PUSH2 0x127 JUMPI PUSH1 0x40 CALLDATASIZE PUSH1 0x3 NOT ADD SLT PUSH2 0x127 JUMPI PUSH2 0x32B PUSH1 0x4 CALLDATALOAD PUSH2 0xBD9 PUSH2 0xD2C JUMP JUMPDEST SWAP1 PUSH2 0xBF2 PUSH2 0x321 DUP3 PUSH0 MSTORE PUSH0 PUSH1 0x20 MSTORE PUSH1 0x1 PUSH1 0x40 PUSH0 KECCAK256 ADD SLOAD SWAP1 JUMP JUMPDEST PUSH2 0x1007 JUMP JUMPDEST CALLVALUE PUSH2 0x127 JUMPI PUSH1 0x20 CALLDATASIZE PUSH1 0x3 NOT ADD SLT PUSH2 0x127 JUMPI PUSH1 0x20 PUSH2 0xC21 PUSH1 0x4 CALLDATALOAD PUSH0 MSTORE PUSH0 PUSH1 0x20 MSTORE PUSH1 0x1 PUSH1 0x40 PUSH0 KECCAK256 ADD SLOAD SWAP1 JUMP JUMPDEST PUSH1 0x40 MLOAD SWAP1 DUP2 MSTORE RETURN JUMPDEST CALLVALUE PUSH2 0x127 JUMPI PUSH1 0x40 CALLDATASIZE PUSH1 0x3 NOT ADD SLT PUSH2 0x127 JUMPI PUSH1 0x4 CALLDATALOAD PUSH1 0x1 PUSH1 0x1 PUSH1 0xA0 SHL SUB DUP2 AND DUP2 SUB PUSH2 0x127 JUMPI CALLER PUSH0 SWAP1 DUP2 MSTORE PUSH32 0x7D7FFB7A348E1C6A02869081A26547B49160DD3DF72D1D75A570EB9B698292EC PUSH1 0x20 MSTORE PUSH1 0x40 SWAP1 KECCAK256 SLOAD PUSH1 0x24 CALLDATALOAD SWAP2 SWAP1 PUSH1 0xFF AND ISZERO PUSH2 0xCA4 JUMPI DUP2 PUSH2 0xBF2 PUSH2 0x321 PUSH2 0x32B SWAP5 PUSH0 MSTORE PUSH0 PUSH1 0x20 MSTORE PUSH1 0x1 PUSH1 0x40 PUSH0 KECCAK256 ADD SLOAD SWAP1 JUMP JUMPDEST PUSH1 0x40 MLOAD PUSH3 0x461BCD PUSH1 0xE5 SHL DUP2 MSTORE PUSH1 0x20 PUSH1 0x4 DUP3 ADD MSTORE PUSH1 0xD PUSH1 0x24 DUP3 ADD MSTORE PUSH13 0x2737BA1030B71030B236B4B717 PUSH1 0x99 SHL PUSH1 0x44 DUP3 ADD MSTORE PUSH1 0x64 SWAP1 REVERT JUMPDEST CALLVALUE PUSH2 0x127 JUMPI PUSH1 0x20 CALLDATASIZE PUSH1 0x3 NOT ADD SLT PUSH2 0x127 JUMPI PUSH1 0x4 CALLDATALOAD SWAP1 PUSH4 0xFFFFFFFF PUSH1 0xE0 SHL DUP3 AND DUP1 SWAP3 SUB PUSH2 0x127 JUMPI PUSH1 0x20 SWAP2 PUSH4 0x7965DB0B PUSH1 0xE0 SHL DUP2 EQ SWAP1 DUP2 ISZERO PUSH2 0xD1B JUMPI JUMPDEST POP ISZERO ISZERO DUP2 MSTORE RETURN JUMPDEST PUSH4 0x1FFC9A7 PUSH1 0xE0 SHL EQ SWAP1 POP DUP4 PUSH2 0xD14 JUMP JUMPDEST PUSH1 0x24 CALLDATALOAD SWAP1 PUSH1 0x1 PUSH1 0x1 PUSH1 0xA0 SHL SUB DUP3 AND DUP3 SUB PUSH2 0x127 JUMPI JUMP JUMPDEST SWAP1 PUSH1 0x1F DUP1 NOT SWAP2 ADD AND DUP2 ADD SWAP1 DUP2 LT PUSH8 0xFFFFFFFFFFFFFFFF DUP3 GT OR PUSH2 0x2D5 JUMPI PUSH1 0x40 MSTORE JUMP JUMPDEST DUP2 PUSH1 0x1F DUP3 ADD SLT ISZERO PUSH2 0x127 JUMPI DUP1 CALLDATALOAD SWAP1 PUSH8 0xFFFFFFFFFFFFFFFF DUP3 GT PUSH2 0x2D5 JUMPI PUSH1 0x40 MLOAD SWAP3 PUSH2 0xD99 PUSH1 0x1F DUP5 ADD PUSH1 0x1F NOT AND PUSH1 0x20 ADD DUP6 PUSH2 0xD42 JUMP JUMPDEST DUP3 DUP5 MSTORE PUSH1 0x20 DUP4 DUP4 ADD ADD GT PUSH2 0x127 JUMPI DUP2 PUSH0 SWAP3 PUSH1 0x20 DUP1 SWAP4 ADD DUP4 DUP7 ADD CALLDATACOPY DUP4 ADD ADD MSTORE SWAP1 JUMP JUMPDEST SWAP1 PUSH1 0x40 PUSH1 0x3 NOT DUP4 ADD SLT PUSH2 0x127 JUMPI PUSH1 0x4 CALLDATALOAD SWAP2 PUSH1 0x24 CALLDATALOAD SWAP1 PUSH8 0xFFFFFFFFFFFFFFFF DUP3 GT PUSH2 0x127 JUMPI PUSH2 0xDEA SWAP2 PUSH1 0x4 ADD PUSH2 0xD64 JUMP JUMPDEST SWAP1 JUMP JUMPDEST DUP1 MLOAD DUP1 DUP4 MSTORE PUSH1 0x20 SWAP3 SWAP2 DUP2 SWAP1 DUP5 ADD DUP5 DUP5 ADD MCOPY PUSH0 DUP3 DUP3 ADD DUP5 ADD MSTORE PUSH1 0x1F ADD PUSH1 0x1F NOT AND ADD ADD SWAP1 JUMP JUMPDEST SWAP1 PUSH1 0x1 DUP3 DUP2 SHR SWAP3 AND DUP1 ISZERO PUSH2 0xE3F JUMPI JUMPDEST PUSH1 0x20 DUP4 LT EQ PUSH2 0xE2B JUMPI JUMP JUMPDEST PUSH4 0x4E487B71 PUSH1 0xE0 SHL PUSH0 MSTORE PUSH1 0x22 PUSH1 0x4 MSTORE PUSH1 0x24 PUSH0 REVERT JUMPDEST SWAP2 PUSH1 0x7F AND SWAP2 PUSH2 0xE20 JUMP JUMPDEST SWAP1 PUSH1 0x40 MLOAD SWAP2 DUP3 PUSH0 DUP3 SLOAD SWAP3 PUSH2 0xE5C DUP5 PUSH2 0xE11 JUMP JUMPDEST DUP1 DUP5 MSTORE SWAP4 PUSH1 0x1 DUP2 AND SWAP1 DUP2 ISZERO PUSH2 0xEC7 JUMPI POP PUSH1 0x1 EQ PUSH2 0xE83 JUMPI JUMPDEST POP PUSH2 0xE81 SWAP3 POP SUB DUP4 PUSH2 0xD42 JUMP JUMPDEST JUMP JUMPDEST SWAP1 POP PUSH0 SWAP3 SWAP2 SWAP3 MSTORE PUSH1 0x20 PUSH0 KECCAK256 SWAP1 PUSH0 SWAP2 JUMPDEST DUP2 DUP4 LT PUSH2 0xEAB JUMPI POP POP SWAP1 PUSH1 0x20 PUSH2 0xE81 SWAP3 DUP3 ADD ADD PUSH0 PUSH2 0xE74 JUMP JUMPDEST PUSH1 0x20 SWAP2 SWAP4 POP DUP1 PUSH1 0x1 SWAP2 SLOAD DUP4 DUP6 DUP10 ADD ADD MSTORE ADD SWAP2 ADD SWAP1 SWAP2 DUP5 SWAP3 PUSH2 0xE92 JUMP JUMPDEST SWAP1 POP PUSH1 0x20 SWAP3 POP PUSH2 0xE81 SWAP5 SWAP2 POP PUSH1 0xFF NOT AND DUP3 DUP5 ADD MSTORE ISZERO ISZERO PUSH1 0x5 SHL DUP3 ADD ADD PUSH0 PUSH2 0xE74 JUMP JUMPDEST ISZERO PUSH2 0xEF0 JUMPI JUMP JUMPDEST PUSH1 0x40 MLOAD PUSH3 0x461BCD PUSH1 0xE5 SHL DUP2 MSTORE PUSH1 0x20 PUSH1 0x4 DUP3 ADD MSTORE PUSH1 0x1E PUSH1 0x24 DUP3 ADD MSTORE PUSH32 0x50617469656E74207265636F726420646F6573206E6F742065786973742E0000 PUSH1 0x44 DUP3 ADD MSTORE PUSH1 0x64 SWAP1 REVERT JUMPDEST ISZERO PUSH2 0xF3C JUMPI JUMP JUMPDEST PUSH1 0x40 MLOAD PUSH3 0x461BCD PUSH1 0xE5 SHL DUP2 MSTORE PUSH1 0x20 PUSH1 0x4 DUP3 ADD MSTORE PUSH1 0x15 PUSH1 0x24 DUP3 ADD MSTORE PUSH21 0x2737BA103A3432903932B1B7B9321037BBB732B917 PUSH1 0x59 SHL PUSH1 0x44 DUP3 ADD MSTORE PUSH1 0x64 SWAP1 REVERT JUMPDEST DUP1 SLOAD DUP3 LT ISZERO PUSH2 0xF8E JUMPI PUSH0 MSTORE PUSH1 0x20 PUSH0 KECCAK256 ADD SWAP1 PUSH0 SWAP1 JUMP JUMPDEST PUSH4 0x4E487B71 PUSH1 0xE0 SHL PUSH0 MSTORE PUSH1 0x32 PUSH1 0x4 MSTORE PUSH1 0x24 PUSH0 REVERT JUMPDEST DUP2 DUP2 LT PUSH2 0xFAD JUMPI POP POP JUMP JUMPDEST PUSH0 DUP2 SSTORE PUSH1 0x1 ADD PUSH2 0xFA2 JUMP JUMPDEST PUSH1 0x40 SWAP1 PUSH2 0xDEA SWAP4 SWAP3 DUP2 MSTORE DUP2 PUSH1 0x20 DUP3 ADD MSTORE ADD SWAP1 PUSH2 0xDED JUMP JUMPDEST PUSH0 DUP2 DUP2 MSTORE PUSH1 0x20 DUP2 DUP2 MSTORE PUSH1 0x40 DUP1 DUP4 KECCAK256 CALLER DUP5 MSTORE SWAP1 SWAP2 MSTORE SWAP1 KECCAK256 SLOAD PUSH1 0xFF AND ISZERO PUSH2 0xFF1 JUMPI POP JUMP JUMPDEST PUSH4 0xE2517D3F PUSH1 0xE0 SHL PUSH0 MSTORE CALLER PUSH1 0x4 MSTORE PUSH1 0x24 MSTORE PUSH1 0x44 PUSH0 REVERT JUMPDEST PUSH0 DUP2 DUP2 MSTORE PUSH1 0x20 DUP2 DUP2 MSTORE PUSH1 0x40 DUP1 DUP4 KECCAK256 PUSH1 0x1 PUSH1 0x1 PUSH1 0xA0 SHL SUB DUP7 AND DUP5 MSTORE SWAP1 SWAP2 MSTORE SWAP1 KECCAK256 SLOAD PUSH1 0xFF AND PUSH2 0x1089 JUMPI PUSH0 DUP2 DUP2 MSTORE PUSH1 0x20 DUP2 DUP2 MSTORE PUSH1 0x40 DUP1 DUP4 KECCAK256 PUSH1 0x1 PUSH1 0x1 PUSH1 0xA0 SHL SUB SWAP6 SWAP1 SWAP6 AND DUP1 DUP5 MSTORE SWAP5 SWAP1 SWAP2 MSTORE DUP2 KECCAK256 DUP1 SLOAD PUSH1 0xFF NOT AND PUSH1 0x1 OR SWAP1 SSTORE CALLER SWAP3 SWAP2 SWAP1 PUSH32 0x2F8788117E7EFF1D82E926EC794901D17C78024A50270940304540A733656F0D SWAP1 DUP1 LOG4 PUSH1 0x1 SWAP1 JUMP JUMPDEST POP POP PUSH0 SWAP1 JUMP JUMPDEST PUSH0 DUP2 DUP2 MSTORE PUSH1 0x20 DUP2 DUP2 MSTORE PUSH1 0x40 DUP1 DUP4 KECCAK256 PUSH1 0x1 PUSH1 0x1 PUSH1 0xA0 SHL SUB DUP7 AND DUP5 MSTORE SWAP1 SWAP2 MSTORE SWAP1 KECCAK256 SLOAD PUSH1 0xFF AND ISZERO PUSH2 0x1089 JUMPI PUSH0 DUP2 DUP2 MSTORE PUSH1 0x20 DUP2 DUP2 MSTORE PUSH1 0x40 DUP1 DUP4 KECCAK256 PUSH1 0x1 PUSH1 0x1 PUSH1 0xA0 SHL SUB SWAP6 SWAP1 SWAP6 AND DUP1 DUP5 MSTORE SWAP5 SWAP1 SWAP2 MSTORE DUP2 KECCAK256 DUP1 SLOAD PUSH1 0xFF NOT AND SWAP1 SSTORE CALLER SWAP3 SWAP2 SWAP1 PUSH32 0xF6391F5C32D9C69D2A47EA670B442974B53935D1EDC7FD64EB21E047A839171B SWAP1 DUP1 LOG4 PUSH1 0x1 SWAP1 JUMP JUMPDEST SWAP1 PUSH0 JUMPDEST DUP3 PUSH0 MSTORE PUSH1 0x1 PUSH1 0x20 MSTORE PUSH1 0x3 PUSH1 0x40 PUSH0 KECCAK256 ADD SLOAD DUP2 LT ISZERO PUSH2 0x116D JUMPI DUP3 PUSH0 MSTORE PUSH1 0x1 PUSH1 0x20 MSTORE PUSH2 0x1141 DUP2 PUSH1 0x3 PUSH1 0x40 PUSH0 KECCAK256 ADD PUSH2 0xF79 JUMP JUMPDEST SWAP1 SLOAD PUSH1 0x3 SWAP2 SWAP1 SWAP2 SHL SHR PUSH1 0x1 PUSH1 0x1 PUSH1 0xA0 SHL SUB SWAP1 DUP2 AND SWAP1 DUP4 AND EQ PUSH2 0x1165 JUMPI PUSH1 0x1 ADD PUSH2 0x1112 JUMP JUMPDEST POP POP POP PUSH1 0x1 SWAP1 JUMP JUMPDEST POP POP POP PUSH0 SWAP1 JUMP INVALID LOG2 PUSH5 0x6970667358 0x22 SLT KECCAK256 0x21 STOP 0xFC 0xF8 0xEC 0xCA ISZERO 0x29 PUSH30 0x98360DE5E56DBFAC486EEEE1E0E245405B6C4C77E2E11F64736F6C634300 ADDMOD BYTE STOP CALLER PUSH30 0x7FFB7A348E1C6A02869081A26547B49160DD3DF72D1D75A570EB9B698292 0xEC LOG4 SWAP9 SMOD KECCAK256 TLOAD 0xE4 0xD3 SSTORE MULMOD 0x2E CREATE2 0xA8 LOG1 DUP16 JUMP 0xE8 SWAP2 EXTCODECOPY DELEGATECALL LOG2 ADD 0xFB 0xE2 DUP8 DUP3 JUMPDEST MULMOD JUMP SWAP4 0xC2 OR PUSH22 0x0 "
		},
		"gasEstimates": {
			"creation": {
				"codeDepositCost": "904400",
				"executionCost": "infinite",
				"totalCost": "infinite"
			},
			"external": {
				"ADMIN_ROLE()": "307",
				"DEFAULT_ADMIN_ROLE()": "350",
				"DOCTOR_ROLE()": "546",
				"PATIENT_ROLE()": "373",
				"addPatientRecord(string)": "infinite",
				"assignRole(address,bytes32)": "35460",
				"emergencyAccess(uint256,string)": "infinite",
				"getPatientRecord(uint256)": "infinite",
				"getRoleAdmin(bytes32)": "2385",
				"grantAccess(uint256,address)": "infinite",
				"grantRole(bytes32,address)": "33333",
				"hasRole(bytes32,address)": "2660",
				"nextPatientId()": "2498",
				"patientRecords(uint256)": "infinite",
				"renounceRole(bytes32,address)": "28923",
				"revokeRole(bytes32,address)": "33616",
				"setEmergencyPin(uint256,string)": "infinite",
				"supportsInterface(bytes4)": "270",
				"updatePatientRecord(uint256,string)": "infinite"
			},
			"internal": {
				"isAuthorized(uint256,address)": "infinite"
			}
		},
		"methodIdentifiers": {
			"ADMIN_ROLE()": "75b238fc",
			"DEFAULT_ADMIN_ROLE()": "a217fddf",
			"DOCTOR_ROLE()": "fec331f2",
			"PATIENT_ROLE()": "ac5cb97d",
			"addPatientRecord(string)": "b6314915",
			"assignRole(address,bytes32)": "1d9486de",
			"emergencyAccess(uint256,string)": "3c2bc6a1",
			"getPatientRecord(uint256)": "b9fff11b",
			"getRoleAdmin(bytes32)": "248a9ca3",
			"grantAccess(uint256,address)": "65dd152c",
			"grantRole(bytes32,address)": "2f2ff15d",
			"hasRole(bytes32,address)": "91d14854",
			"nextPatientId()": "b1131795",
			"patientRecords(uint256)": "d3d188a1",
			"renounceRole(bytes32,address)": "36568abe",
			"revokeRole(bytes32,address)": "d547741f",
			"setEmergencyPin(uint256,string)": "b38deff0",
			"supportsInterface(bytes4)": "01ffc9a7",
			"updatePatientRecord(uint256,string)": "dba45462"
		}
	},
	"abi": [
		{
			"inputs": [],
			"stateMutability": "nonpayable",
			"type": "constructor"
		},
		{
			"inputs": [],
			"name": "AccessControlBadConfirmation",
			"type": "error"
		},
		{
			"inputs": [
				{
					"internalType": "address",
					"name": "account",
					"type": "address"
				},
				{
					"internalType": "bytes32",
					"name": "neededRole",
					"type": "bytes32"
				}
			],
			"name": "AccessControlUnauthorizedAccount",
			"type": "error"
		},
		{
			"anonymous": false,
			"inputs": [
				{
					"indexed": false,
					"internalType": "uint256",
					"name": "patientId",
					"type": "uint256"
				},
				{
					"indexed": true,
					"internalType": "address",
					"name": "doctor",
					"type": "address"
				}
			],
			"name": "AccessGranted",
			"type": "event"
		},
		{
			"anonymous": false,
			"inputs": [
				{
					"indexed": false,
					"internalType": "uint256",
					"name": "patientId",
					"type": "uint256"
				}
			],
			"name": "EmergencyPinSet",
			"type": "event"
		},
		{
			"anonymous": false,
			"inputs": [
				{
					"indexed": false,
					"internalType": "uint256",
					"name": "patientId",
					"type": "uint256"
				},
				{
					"indexed": true,
					"internalType": "address",
					"name": "owner",
					"type": "address"
				},
				{
					"indexed": false,
					"internalType": "string",
					"name": "ipfsHash",
					"type": "string"
				}
			],
			"name": "PatientRecordAdded",
			"type": "event"
		},
		{
			"anonymous": false,
			"inputs": [
				{
					"indexed": false,
					"internalType": "uint256",
					"name": "patientId",
					"type": "uint256"
				},
				{
					"indexed": false,
					"internalType": "string",
					"name": "newIpfsHash",
					"type": "string"
				}
			],
			"name": "PatientRecordUpdated",
			"type": "event"
		},
		{
			"anonymous": false,
			"inputs": [
				{
					"indexed": true,
					"internalType": "bytes32",
					"name": "role",
					"type": "bytes32"
				},
				{
					"indexed": true,
					"internalType": "bytes32",
					"name": "previousAdminRole",
					"type": "bytes32"
				},
				{
					"indexed": true,
					"internalType": "bytes32",
					"name": "newAdminRole",
					"type": "bytes32"
				}
			],
			"name": "RoleAdminChanged",
			"type": "event"
		},
		{
			"anonymous": false,
			"inputs": [
				{
					"indexed": true,
					"internalType": "bytes32",
					"name": "role",
					"type": "bytes32"
				},
				{
					"indexed": true,
					"internalType": "address",
					"name": "account",
					"type": "address"
				},
				{
					"indexed": true,
					"internalType": "address",
					"name": "sender",
					"type": "address"
				}
			],
			"name": "RoleGranted",
			"type": "event"
		},
		{
			"anonymous": false,
			"inputs": [
				{
					"indexed": true,
					"internalType": "bytes32",
					"name": "role",
					"type": "bytes32"
				},
				{
					"indexed": true,
					"internalType": "address",
					"name": "account",
					"type": "address"
				},
				{
					"indexed": true,
					"internalType": "address",
					"name": "sender",
					"type": "address"
				}
			],
			"name": "RoleRevoked",
			"type": "event"
		},
		{
			"inputs": [],
			"name": "ADMIN_ROLE",
			"outputs": [
				{
					"internalType": "bytes32",
					"name": "",
					"type": "bytes32"
				}
			],
			"stateMutability": "view",
			"type": "function"
		},
		{
			"inputs": [],
			"name": "DEFAULT_ADMIN_ROLE",
			"outputs": [
				{
					"internalType": "bytes32",
					"name": "",
					"type": "bytes32"
				}
			],
			"stateMutability": "view",
			"type": "function"
		},
		{
			"inputs": [],
			"name": "DOCTOR_ROLE",
			"outputs": [
				{
					"internalType": "bytes32",
					"name": "",
					"type": "bytes32"
				}
			],
			"stateMutability": "view",
			"type": "function"
		},
		{
			"inputs": [],
			"name": "PATIENT_ROLE",
			"outputs": [
				{
					"internalType": "bytes32",
					"name": "",
					"type": "bytes32"
				}
			],
			"stateMutability": "view",
			"type": "function"
		},
		{
			"inputs": [
				{
					"internalType": "string",
					"name": "_ipfsHash",
					"type": "string"
				}
			],
			"name": "addPatientRecord",
			"outputs": [],
			"stateMutability": "nonpayable",
			"type": "function"
		},
		{
			"inputs": [
				{
					"internalType": "address",
					"name": "_account",
					"type": "address"
				},
				{
					"internalType": "bytes32",
					"name": "_role",
					"type": "bytes32"
				}
			],
			"name": "assignRole",
			"outputs": [],
			"stateMutability": "nonpayable",
			"type": "function"
		},
		{
			"inputs": [
				{
					"internalType": "uint256",
					"name": "_patientId",
					"type": "uint256"
				},
				{
					"internalType": "string",
					"name": "_pin",
					"type": "string"
				}
			],
			"name": "emergencyAccess",
			"outputs": [
				{
					"internalType": "string",
					"name": "",
					"type": "string"
				}
			],
			"stateMutability": "view",
			"type": "function"
		},
		{
			"inputs": [
				{
					"internalType": "uint256",
					"name": "_patientId",
					"type": "uint256"
				}
			],
			"name": "getPatientRecord",
			"outputs": [
				{
					"internalType": "string",
					"name": "",
					"type": "string"
				}
			],
			"stateMutability": "view",
			"type": "function"
		},
		{
			"inputs": [
				{
					"internalType": "bytes32",
					"name": "role",
					"type": "bytes32"
				}
			],
			"name": "getRoleAdmin",
			"outputs": [
				{
					"internalType": "bytes32",
					"name": "",
					"type": "bytes32"
				}
			],
			"stateMutability": "view",
			"type": "function"
		},
		{
			"inputs": [
				{
					"internalType": "uint256",
					"name": "_patientId",
					"type": "uint256"
				},
				{
					"internalType": "address",
					"name": "_doctor",
					"type": "address"
				}
			],
			"name": "grantAccess",
			"outputs": [],
			"stateMutability": "nonpayable",
			"type": "function"
		},
		{
			"inputs": [
				{
					"internalType": "bytes32",
					"name": "role",
					"type": "bytes32"
				},
				{
					"internalType": "address",
					"name": "account",
					"type": "address"
				}
			],
			"name": "grantRole",
			"outputs": [],
			"stateMutability": "nonpayable",
			"type": "function"
		},
		{
			"inputs": [
				{
					"internalType": "bytes32",
					"name": "role",
					"type": "bytes32"
				},
				{
					"internalType": "address",
					"name": "account",
					"type": "address"
				}
			],
			"name": "hasRole",
			"outputs": [
				{
					"internalType": "bool",
					"name": "",
					"type": "bool"
				}
			],
			"stateMutability": "view",
			"type": "function"
		},
		{
			"inputs": [],
			"name": "nextPatientId",
			"outputs": [
				{
					"internalType": "uint256",
					"name": "",
					"type": "uint256"
				}
			],
			"stateMutability": "view",
			"type": "function"
		},
		{
			"inputs": [
				{
					"internalType": "uint256",
					"name": "",
					"type": "uint256"
				}
			],
			"name": "patientRecords",
			"outputs": [
				{
					"internalType": "uint256",
					"name": "patientId",
					"type": "uint256"
				},
				{
					"internalType": "address",
					"name": "owner",
					"type": "address"
				},
				{
					"internalType": "string",
					"name": "ipfsHash",
					"type": "string"
				},
				{
					"internalType": "uint256",
					"name": "timestamp",
					"type": "uint256"
				}
			],
			"stateMutability": "view",
			"type": "function"
		},
		{
			"inputs": [
				{
					"internalType": "bytes32",
					"name": "role",
					"type": "bytes32"
				},
				{
					"internalType": "address",
					"name": "callerConfirmation",
					"type": "address"
				}
			],
			"name": "renounceRole",
			"outputs": [],
			"stateMutability": "nonpayable",
			"type": "function"
		},
		{
			"inputs": [
				{
					"internalType": "bytes32",
					"name": "role",
					"type": "bytes32"
				},
				{
					"internalType": "address",
					"name": "account",
					"type": "address"
				}
			],
			"name": "revokeRole",
			"outputs": [],
			"stateMutability": "nonpayable",
			"type": "function"
		},
		{
			"inputs": [
				{
					"internalType": "uint256",
					"name": "_patientId",
					"type": "uint256"
				},
				{
					"internalType": "string",
					"name": "_pin",
					"type": "string"
				}
			],
			"name": "setEmergencyPin",
			"outputs": [],
			"stateMutability": "nonpayable",
			"type": "function"
		},
		{
			"inputs": [
				{
					"internalType": "bytes4",
					"name": "interfaceId",
					"type": "bytes4"
				}
			],
			"name": "supportsInterface",
			"outputs": [
				{
					"internalType": "bool",
					"name": "",
					"type": "bool"
				}
			],
			"stateMutability": "view",
			"type": "function"
		},
		{
			"inputs": [
				{
					"internalType": "uint256",
					"name": "_patientId",
					"type": "uint256"
				},
				{
					"internalType": "string",
					"name": "_newIpfsHash",
					"type": "string"
				}
			],
			"name": "updatePatientRecord",
			"outputs": [],
			"stateMutability": "nonpayable",
			"type": "function"
		}
	]
}