{
	"data": {
		"bytecode": {
			"linkReferences": {},
			"object": "60808060405234601557610b5b908161001a8239f35b5f80fdfe60806040526004361015610011575f80fd5b5f3560e01c80631b424e7a146106ff5780633c2bc6a11461065357806363893e461461052a57806365dd152c1461042257806365e87a191461030e578063b1131795146102f1578063b38deff014610273578063b39e07e4146101f9578063d3d188a1146101915763d9a5ec1b14610087575f80fd5b3461018d576100953661099f565b815f525f6020526100b660018060a01b03600160405f200154163314610ad9565b6100c360015483106109c5565b5f828152602081815260408083206001600160a01b038516845260030190915290205460ff1615610148575f828152602081815260408083206001600160a01b03909416808452600394909401825291829020805460ff1916905590519182527f125883b94692baebecad9f111ed97ffa626523bbbadc6b0ef85ee1b56b9e52d591a2005b60405162461bcd60e51b815260206004820152601760248201527f50726f7669646572206e6f7420617574686f72697a65640000000000000000006044820152606490fd5b5f80fd5b3461018d57602036600319011261018d576004355f525f60205260c060405f2080549060018060a01b036001820154169060028101546005820154906007600684015493015493604051958652602086015260408501526060840152608083015260a0820152f35b3461018d57602036600319011261018d5760043561021a60015482106109c5565b5f525f6020526040805f2060018060a01b036001820154163314801561025a575b61024490610a09565b6006600282015491015482519182526020820152f35b50335f908152600382016020528290205460ff1661023b565b3461018d5761028136610878565b815f525f6020526102a260018060a01b03600160405f200154163314610ad9565b6102af60015483106109c5565b6040516102db6020828180820195805191829101875e81015f838201520301601f1981018352826107ec565b519020905f525f602052600760405f2001555f80f35b3461018d575f36600319011261018d576020600154604051908152f35b3461018d57608036600319011261018d5760243560043560443567ffffffffffffffff811161018d576103459036906004016108c3565b60643567ffffffffffffffff811161018d579061036784923690600401610920565b90835f525f60205261038960018060a01b03600160405f200154163314610ad9565b61039660015485106109c5565b6103a38151835114610a65565b835f525f60205260405f209383600286015542600686015560045f9501945b83518110156103f457806103d860019285610ab1565b516103ed886103e78489610ab1565b51610a46565b55016103c2565b507f0fef1e979d0b74e703ce41335e4adc7465be6b6511ce6870d8d76b85a2cd987c602085604051908152a2005b3461018d576104303661099f565b815f525f60205261045160018060a01b03600160405f200154163314610ad9565b61045e60015483106109c5565b5f828152602081815260408083206001600160a01b038516845260030190915290205460ff166104e5575f828152602081815260408083206001600160a01b03909416808452600394909401825291829020805460ff1916600117905590519182527f3c3a9147a1fc73dd51a32f4d10c43d457e8cb826eb6f35cac6349eb965ba82b491a2005b60405162461bcd60e51b815260206004820152601b60248201527f50726f766964657220616c726561647920617574686f72697a656400000000006044820152606490fd5b3461018d57606036600319011261018d5760043560243567ffffffffffffffff811161018d5761055e9036906004016108c3565b60443567ffffffffffffffff811161018d5761057f83913690600401610920565b61058c8351825114610a65565b60015492835f525f60205260405f209380855560018501336bffffffffffffffffffffffff60a01b82541617905583600286015542600686015560045f9501945b83518110156105f957806105e360019285610ab1565b516105f2886103e78489610ab1565b55016105cd565b50836001545f19811461063f577fbbf4486ce56a8bb18798d25a2ef88158d76aac87bfb156491906d126855f4428916001604092016001558151903382526020820152a2005b634e487b7160e01b5f52601160045260245ffd5b3461018d5761066136610878565b9061066f60015482106109c5565b5f525f60205260405f20906040516106a66020828180820195805191829101875e81015f838201520301601f1981018352826107ec565b5190206007820154036106c25760026020910154604051908152f35b60405162461bcd60e51b815260206004820152601560248201527424b73b30b634b21032b6b2b933b2b731bc902824a760591b6044820152606490fd5b3461018d57606036600319011261018d5760043560243567ffffffffffffffff811161018d57610733903690600401610822565b9060443567ffffffffffffffff811161018d5760209261075a6107c9923690600401610822565b9261076860015482106109c5565b5f525f8452600460405f209360018060a01b03600186015416331480156107d3575b61079390610a09565b6040516107be87828180820195805191829101875e81015f838201520301601f1981018352826107ec565b519020930190610a46565b5414604051908152f35b50335f908152600386018752604090205460ff1661078a565b90601f8019910116810190811067ffffffffffffffff82111761080e57604052565b634e487b7160e01b5f52604160045260245ffd5b81601f8201121561018d5780359067ffffffffffffffff821161080e5760405192610857601f8401601f1916602001856107ec565b8284526020838301011161018d57815f926020809301838601378301015290565b90604060031983011261018d57600435916024359067ffffffffffffffff821161018d576108a891600401610822565b90565b67ffffffffffffffff811161080e5760051b60200190565b9080601f8301121561018d5781356108da816108ab565b926108e860405194856107ec565b81845260208085019260051b82010192831161018d57602001905b8282106109105750505090565b8135815260209182019101610903565b9080601f8301121561018d578135610937816108ab565b9261094560405194856107ec565b81845260208085019260051b8201019183831161018d5760208201905b83821061097157505050505090565b813567ffffffffffffffff811161018d5760209161099487848094880101610822565b815201910190610962565b604090600319011261018d57600435906024356001600160a01b038116810361018d5790565b156109cc57565b60405162461bcd60e51b8152602060048201526015602482015274149958dbdc9908191bd95cc81b9bdd08195e1a5cdd605a1b6044820152606490fd5b15610a1057565b60405162461bcd60e51b815260206004820152600e60248201526d139bdd08185d5d1a1bdc9a5e995960921b6044820152606490fd5b6040518151909260209284929081908501845e82019081520301902090565b15610a6c57565b60405162461bcd60e51b815260206004820152601860248201527f4d69736d6174636820696e206669656c6420636f756e747300000000000000006044820152606490fd5b8051821015610ac55760209160051b010190565b634e487b7160e01b5f52603260045260245ffd5b15610ae057565b60405162461bcd60e51b815260206004820152601760248201527f4f6e6c792070617469656e742063616e206d6f646966790000000000000000006044820152606490fdfea2646970667358221220748fa4ea6050d1a8fd87e3a23da4eb6c47e53f2c8096b6c2c24ce70af63384ff64736f6c634300081a0033",
			"opcodes": "PUSH1 0x80 DUP1 PUSH1 0x40 MSTORE CALLVALUE PUSH1 0x15 JUMPI PUSH2 0xB5B SWAP1 DUP2 PUSH2 0x1A DUP3 CODECOPY RETURN JUMPDEST PUSH0 DUP1 REVERT INVALID PUSH1 0x80 PUSH1 0x40 MSTORE PUSH1 0x4 CALLDATASIZE LT ISZERO PUSH2 0x11 JUMPI PUSH0 DUP1 REVERT JUMPDEST PUSH0 CALLDATALOAD PUSH1 0xE0 SHR DUP1 PUSH4 0x1B424E7A EQ PUSH2 0x6FF JUMPI DUP1 PUSH4 0x3C2BC6A1 EQ PUSH2 0x653 JUMPI DUP1 PUSH4 0x63893E46 EQ PUSH2 0x52A JUMPI DUP1 PUSH4 0x65DD152C EQ PUSH2 0x422 JUMPI DUP1 PUSH4 0x65E87A19 EQ PUSH2 0x30E JUMPI DUP1 PUSH4 0xB1131795 EQ PUSH2 0x2F1 JUMPI DUP1 PUSH4 0xB38DEFF0 EQ PUSH2 0x273 JUMPI DUP1 PUSH4 0xB39E07E4 EQ PUSH2 0x1F9 JUMPI DUP1 PUSH4 0xD3D188A1 EQ PUSH2 0x191 JUMPI PUSH4 0xD9A5EC1B EQ PUSH2 0x87 JUMPI PUSH0 DUP1 REVERT JUMPDEST CALLVALUE PUSH2 0x18D JUMPI PUSH2 0x95 CALLDATASIZE PUSH2 0x99F JUMP JUMPDEST DUP2 PUSH0 MSTORE PUSH0 PUSH1 0x20 MSTORE PUSH2 0xB6 PUSH1 0x1 DUP1 PUSH1 0xA0 SHL SUB PUSH1 0x1 PUSH1 0x40 PUSH0 KECCAK256 ADD SLOAD AND CALLER EQ PUSH2 0xAD9 JUMP JUMPDEST PUSH2 0xC3 PUSH1 0x1 SLOAD DUP4 LT PUSH2 0x9C5 JUMP JUMPDEST PUSH0 DUP3 DUP2 MSTORE PUSH1 0x20 DUP2 DUP2 MSTORE PUSH1 0x40 DUP1 DUP4 KECCAK256 PUSH1 0x1 PUSH1 0x1 PUSH1 0xA0 SHL SUB DUP6 AND DUP5 MSTORE PUSH1 0x3 ADD SWAP1 SWAP2 MSTORE SWAP1 KECCAK256 SLOAD PUSH1 0xFF AND ISZERO PUSH2 0x148 JUMPI PUSH0 DUP3 DUP2 MSTORE PUSH1 0x20 DUP2 DUP2 MSTORE PUSH1 0x40 DUP1 DUP4 KECCAK256 PUSH1 0x1 PUSH1 0x1 PUSH1 0xA0 SHL SUB SWAP1 SWAP5 AND DUP1 DUP5 MSTORE PUSH1 0x3 SWAP5 SWAP1 SWAP5 ADD DUP3 MSTORE SWAP2 DUP3 SWAP1 KECCAK256 DUP1 SLOAD PUSH1 0xFF NOT AND SWAP1 SSTORE SWAP1 MLOAD SWAP2 DUP3 MSTORE PUSH32 0x125883B94692BAEBECAD9F111ED97FFA626523BBBADC6B0EF85EE1B56B9E52D5 SWAP2 LOG2 STOP JUMPDEST PUSH1 0x40 MLOAD PUSH3 0x461BCD PUSH1 0xE5 SHL DUP2 MSTORE PUSH1 0x20 PUSH1 0x4 DUP3 ADD MSTORE PUSH1 0x17 PUSH1 0x24 DUP3 ADD MSTORE PUSH32 0x50726F7669646572206E6F7420617574686F72697A6564000000000000000000 PUSH1 0x44 DUP3 ADD MSTORE PUSH1 0x64 SWAP1 REVERT JUMPDEST PUSH0 DUP1 REVERT JUMPDEST CALLVALUE PUSH2 0x18D JUMPI PUSH1 0x20 CALLDATASIZE PUSH1 0x3 NOT ADD SLT PUSH2 0x18D JUMPI PUSH1 0x4 CALLDATALOAD PUSH0 MSTORE PUSH0 PUSH1 0x20 MSTORE PUSH1 0xC0 PUSH1 0x40 PUSH0 KECCAK256 DUP1 SLOAD SWAP1 PUSH1 0x1 DUP1 PUSH1 0xA0 SHL SUB PUSH1 0x1 DUP3 ADD SLOAD AND SWAP1 PUSH1 0x2 DUP2 ADD SLOAD PUSH1 0x5 DUP3 ADD SLOAD SWAP1 PUSH1 0x7 PUSH1 0x6 DUP5 ADD SLOAD SWAP4 ADD SLOAD SWAP4 PUSH1 0x40 MLOAD SWAP6 DUP7 MSTORE PUSH1 0x20 DUP7 ADD MSTORE PUSH1 0x40 DUP6 ADD MSTORE PUSH1 0x60 DUP5 ADD MSTORE PUSH1 0x80 DUP4 ADD MSTORE PUSH1 0xA0 DUP3 ADD MSTORE RETURN JUMPDEST CALLVALUE PUSH2 0x18D JUMPI PUSH1 0x20 CALLDATASIZE PUSH1 0x3 NOT ADD SLT PUSH2 0x18D JUMPI PUSH1 0x4 CALLDATALOAD PUSH2 0x21A PUSH1 0x1 SLOAD DUP3 LT PUSH2 0x9C5 JUMP JUMPDEST PUSH0 MSTORE PUSH0 PUSH1 0x20 MSTORE PUSH1 0x40 DUP1 PUSH0 KECCAK256 PUSH1 0x1 DUP1 PUSH1 0xA0 SHL SUB PUSH1 0x1 DUP3 ADD SLOAD AND CALLER EQ DUP1 ISZERO PUSH2 0x25A JUMPI JUMPDEST PUSH2 0x244 SWAP1 PUSH2 0xA09 JUMP JUMPDEST PUSH1 0x6 PUSH1 0x2 DUP3 ADD SLOAD SWAP2 ADD SLOAD DUP3 MLOAD SWAP2 DUP3 MSTORE PUSH1 0x20 DUP3 ADD MSTORE RETURN JUMPDEST POP CALLER PUSH0 SWAP1 DUP2 MSTORE PUSH1 0x3 DUP3 ADD PUSH1 0x20 MSTORE DUP3 SWAP1 KECCAK256 SLOAD PUSH1 0xFF AND PUSH2 0x23B JUMP JUMPDEST CALLVALUE PUSH2 0x18D JUMPI PUSH2 0x281 CALLDATASIZE PUSH2 0x878 JUMP JUMPDEST DUP2 PUSH0 MSTORE PUSH0 PUSH1 0x20 MSTORE PUSH2 0x2A2 PUSH1 0x1 DUP1 PUSH1 0xA0 SHL SUB PUSH1 0x1 PUSH1 0x40 PUSH0 KECCAK256 ADD SLOAD AND CALLER EQ PUSH2 0xAD9 JUMP JUMPDEST PUSH2 0x2AF PUSH1 0x1 SLOAD DUP4 LT PUSH2 0x9C5 JUMP JUMPDEST PUSH1 0x40 MLOAD PUSH2 0x2DB PUSH1 0x20 DUP3 DUP2 DUP1 DUP3 ADD SWAP6 DUP1 MLOAD SWAP2 DUP3 SWAP2 ADD DUP8 MCOPY DUP2 ADD PUSH0 DUP4 DUP3 ADD MSTORE SUB ADD PUSH1 0x1F NOT DUP2 ADD DUP4 MSTORE DUP3 PUSH2 0x7EC JUMP JUMPDEST MLOAD SWAP1 KECCAK256 SWAP1 PUSH0 MSTORE PUSH0 PUSH1 0x20 MSTORE PUSH1 0x7 PUSH1 0x40 PUSH0 KECCAK256 ADD SSTORE PUSH0 DUP1 RETURN JUMPDEST CALLVALUE PUSH2 0x18D JUMPI PUSH0 CALLDATASIZE PUSH1 0x3 NOT ADD SLT PUSH2 0x18D JUMPI PUSH1 0x20 PUSH1 0x1 SLOAD PUSH1 0x40 MLOAD SWAP1 DUP2 MSTORE RETURN JUMPDEST CALLVALUE PUSH2 0x18D JUMPI PUSH1 0x80 CALLDATASIZE PUSH1 0x3 NOT ADD SLT PUSH2 0x18D JUMPI PUSH1 0x24 CALLDATALOAD PUSH1 0x4 CALLDATALOAD PUSH1 0x44 CALLDATALOAD PUSH8 0xFFFFFFFFFFFFFFFF DUP2 GT PUSH2 0x18D JUMPI PUSH2 0x345 SWAP1 CALLDATASIZE SWAP1 PUSH1 0x4 ADD PUSH2 0x8C3 JUMP JUMPDEST PUSH1 0x64 CALLDATALOAD PUSH8 0xFFFFFFFFFFFFFFFF DUP2 GT PUSH2 0x18D JUMPI SWAP1 PUSH2 0x367 DUP5 SWAP3 CALLDATASIZE SWAP1 PUSH1 0x4 ADD PUSH2 0x920 JUMP JUMPDEST SWAP1 DUP4 PUSH0 MSTORE PUSH0 PUSH1 0x20 MSTORE PUSH2 0x389 PUSH1 0x1 DUP1 PUSH1 0xA0 SHL SUB PUSH1 0x1 PUSH1 0x40 PUSH0 KECCAK256 ADD SLOAD AND CALLER EQ PUSH2 0xAD9 JUMP JUMPDEST PUSH2 0x396 PUSH1 0x1 SLOAD DUP6 LT PUSH2 0x9C5 JUMP JUMPDEST PUSH2 0x3A3 DUP2 MLOAD DUP4 MLOAD EQ PUSH2 0xA65 JUMP JUMPDEST DUP4 PUSH0 MSTORE PUSH0 PUSH1 0x20 MSTORE PUSH1 0x40 PUSH0 KECCAK256 SWAP4 DUP4 PUSH1 0x2 DUP7 ADD SSTORE TIMESTAMP PUSH1 0x6 DUP7 ADD SSTORE PUSH1 0x4 PUSH0 SWAP6 ADD SWAP5 JUMPDEST DUP4 MLOAD DUP2 LT ISZERO PUSH2 0x3F4 JUMPI DUP1 PUSH2 0x3D8 PUSH1 0x1 SWAP3 DUP6 PUSH2 0xAB1 JUMP JUMPDEST MLOAD PUSH2 0x3ED DUP9 PUSH2 0x3E7 DUP5 DUP10 PUSH2 0xAB1 JUMP JUMPDEST MLOAD PUSH2 0xA46 JUMP JUMPDEST SSTORE ADD PUSH2 0x3C2 JUMP JUMPDEST POP PUSH32 0xFEF1E979D0B74E703CE41335E4ADC7465BE6B6511CE6870D8D76B85A2CD987C PUSH1 0x20 DUP6 PUSH1 0x40 MLOAD SWAP1 DUP2 MSTORE LOG2 STOP JUMPDEST CALLVALUE PUSH2 0x18D JUMPI PUSH2 0x430 CALLDATASIZE PUSH2 0x99F JUMP JUMPDEST DUP2 PUSH0 MSTORE PUSH0 PUSH1 0x20 MSTORE PUSH2 0x451 PUSH1 0x1 DUP1 PUSH1 0xA0 SHL SUB PUSH1 0x1 PUSH1 0x40 PUSH0 KECCAK256 ADD SLOAD AND CALLER EQ PUSH2 0xAD9 JUMP JUMPDEST PUSH2 0x45E PUSH1 0x1 SLOAD DUP4 LT PUSH2 0x9C5 JUMP JUMPDEST PUSH0 DUP3 DUP2 MSTORE PUSH1 0x20 DUP2 DUP2 MSTORE PUSH1 0x40 DUP1 DUP4 KECCAK256 PUSH1 0x1 PUSH1 0x1 PUSH1 0xA0 SHL SUB DUP6 AND DUP5 MSTORE PUSH1 0x3 ADD SWAP1 SWAP2 MSTORE SWAP1 KECCAK256 SLOAD PUSH1 0xFF AND PUSH2 0x4E5 JUMPI PUSH0 DUP3 DUP2 MSTORE PUSH1 0x20 DUP2 DUP2 MSTORE PUSH1 0x40 DUP1 DUP4 KECCAK256 PUSH1 0x1 PUSH1 0x1 PUSH1 0xA0 SHL SUB SWAP1 SWAP5 AND DUP1 DUP5 MSTORE PUSH1 0x3 SWAP5 SWAP1 SWAP5 ADD DUP3 MSTORE SWAP2 DUP3 SWAP1 KECCAK256 DUP1 SLOAD PUSH1 0xFF NOT AND PUSH1 0x1 OR SWAP1 SSTORE SWAP1 MLOAD SWAP2 DUP3 MSTORE PUSH32 0x3C3A9147A1FC73DD51A32F4D10C43D457E8CB826EB6F35CAC6349EB965BA82B4 SWAP2 LOG2 STOP JUMPDEST PUSH1 0x40 MLOAD PUSH3 0x461BCD PUSH1 0xE5 SHL DUP2 MSTORE PUSH1 0x20 PUSH1 0x4 DUP3 ADD MSTORE PUSH1 0x1B PUSH1 0x24 DUP3 ADD MSTORE PUSH32 0x50726F766964657220616C726561647920617574686F72697A65640000000000 PUSH1 0x44 DUP3 ADD MSTORE PUSH1 0x64 SWAP1 REVERT JUMPDEST CALLVALUE PUSH2 0x18D JUMPI PUSH1 0x60 CALLDATASIZE PUSH1 0x3 NOT ADD SLT PUSH2 0x18D JUMPI PUSH1 0x4 CALLDATALOAD PUSH1 0x24 CALLDATALOAD PUSH8 0xFFFFFFFFFFFFFFFF DUP2 GT PUSH2 0x18D JUMPI PUSH2 0x55E SWAP1 CALLDATASIZE SWAP1 PUSH1 0x4 ADD PUSH2 0x8C3 JUMP JUMPDEST PUSH1 0x44 CALLDATALOAD PUSH8 0xFFFFFFFFFFFFFFFF DUP2 GT PUSH2 0x18D JUMPI PUSH2 0x57F DUP4 SWAP2 CALLDATASIZE SWAP1 PUSH1 0x4 ADD PUSH2 0x920 JUMP JUMPDEST PUSH2 0x58C DUP4 MLOAD DUP3 MLOAD EQ PUSH2 0xA65 JUMP JUMPDEST PUSH1 0x1 SLOAD SWAP3 DUP4 PUSH0 MSTORE PUSH0 PUSH1 0x20 MSTORE PUSH1 0x40 PUSH0 KECCAK256 SWAP4 DUP1 DUP6 SSTORE PUSH1 0x1 DUP6 ADD CALLER PUSH12 0xFFFFFFFFFFFFFFFFFFFFFFFF PUSH1 0xA0 SHL DUP3 SLOAD AND OR SWAP1 SSTORE DUP4 PUSH1 0x2 DUP7 ADD SSTORE TIMESTAMP PUSH1 0x6 DUP7 ADD SSTORE PUSH1 0x4 PUSH0 SWAP6 ADD SWAP5 JUMPDEST DUP4 MLOAD DUP2 LT ISZERO PUSH2 0x5F9 JUMPI DUP1 PUSH2 0x5E3 PUSH1 0x1 SWAP3 DUP6 PUSH2 0xAB1 JUMP JUMPDEST MLOAD PUSH2 0x5F2 DUP9 PUSH2 0x3E7 DUP5 DUP10 PUSH2 0xAB1 JUMP JUMPDEST SSTORE ADD PUSH2 0x5CD JUMP JUMPDEST POP DUP4 PUSH1 0x1 SLOAD PUSH0 NOT DUP2 EQ PUSH2 0x63F JUMPI PUSH32 0xBBF4486CE56A8BB18798D25A2EF88158D76AAC87BFB156491906D126855F4428 SWAP2 PUSH1 0x1 PUSH1 0x40 SWAP3 ADD PUSH1 0x1 SSTORE DUP2 MLOAD SWAP1 CALLER DUP3 MSTORE PUSH1 0x20 DUP3 ADD MSTORE LOG2 STOP JUMPDEST PUSH4 0x4E487B71 PUSH1 0xE0 SHL PUSH0 MSTORE PUSH1 0x11 PUSH1 0x4 MSTORE PUSH1 0x24 PUSH0 REVERT JUMPDEST CALLVALUE PUSH2 0x18D JUMPI PUSH2 0x661 CALLDATASIZE PUSH2 0x878 JUMP JUMPDEST SWAP1 PUSH2 0x66F PUSH1 0x1 SLOAD DUP3 LT PUSH2 0x9C5 JUMP JUMPDEST PUSH0 MSTORE PUSH0 PUSH1 0x20 MSTORE PUSH1 0x40 PUSH0 KECCAK256 SWAP1 PUSH1 0x40 MLOAD PUSH2 0x6A6 PUSH1 0x20 DUP3 DUP2 DUP1 DUP3 ADD SWAP6 DUP1 MLOAD SWAP2 DUP3 SWAP2 ADD DUP8 MCOPY DUP2 ADD PUSH0 DUP4 DUP3 ADD MSTORE SUB ADD PUSH1 0x1F NOT DUP2 ADD DUP4 MSTORE DUP3 PUSH2 0x7EC JUMP JUMPDEST MLOAD SWAP1 KECCAK256 PUSH1 0x7 DUP3 ADD SLOAD SUB PUSH2 0x6C2 JUMPI PUSH1 0x2 PUSH1 0x20 SWAP2 ADD SLOAD PUSH1 0x40 MLOAD SWAP1 DUP2 MSTORE RETURN JUMPDEST PUSH1 0x40 MLOAD PUSH3 0x461BCD PUSH1 0xE5 SHL DUP2 MSTORE PUSH1 0x20 PUSH1 0x4 DUP3 ADD MSTORE PUSH1 0x15 PUSH1 0x24 DUP3 ADD MSTORE PUSH21 0x24B73B30B634B21032B6B2B933B2B731BC902824A7 PUSH1 0x59 SHL PUSH1 0x44 DUP3 ADD MSTORE PUSH1 0x64 SWAP1 REVERT JUMPDEST CALLVALUE PUSH2 0x18D JUMPI PUSH1 0x60 CALLDATASIZE PUSH1 0x3 NOT ADD SLT PUSH2 0x18D JUMPI PUSH1 0x4 CALLDATALOAD PUSH1 0x24 CALLDATALOAD PUSH8 0xFFFFFFFFFFFFFFFF DUP2 GT PUSH2 0x18D JUMPI PUSH2 0x733 SWAP1 CALLDATASIZE SWAP1 PUSH1 0x4 ADD PUSH2 0x822 JUMP JUMPDEST SWAP1 PUSH1 0x44 CALLDATALOAD PUSH8 0xFFFFFFFFFFFFFFFF DUP2 GT PUSH2 0x18D JUMPI PUSH1 0x20 SWAP3 PUSH2 0x75A PUSH2 0x7C9 SWAP3 CALLDATASIZE SWAP1 PUSH1 0x4 ADD PUSH2 0x822 JUMP JUMPDEST SWAP3 PUSH2 0x768 PUSH1 0x1 SLOAD DUP3 LT PUSH2 0x9C5 JUMP JUMPDEST PUSH0 MSTORE PUSH0 DUP5 MSTORE PUSH1 0x4 PUSH1 0x40 PUSH0 KECCAK256 SWAP4 PUSH1 0x1 DUP1 PUSH1 0xA0 SHL SUB PUSH1 0x1 DUP7 ADD SLOAD AND CALLER EQ DUP1 ISZERO PUSH2 0x7D3 JUMPI JUMPDEST PUSH2 0x793 SWAP1 PUSH2 0xA09 JUMP JUMPDEST PUSH1 0x40 MLOAD PUSH2 0x7BE DUP8 DUP3 DUP2 DUP1 DUP3 ADD SWAP6 DUP1 MLOAD SWAP2 DUP3 SWAP2 ADD DUP8 MCOPY DUP2 ADD PUSH0 DUP4 DUP3 ADD MSTORE SUB ADD PUSH1 0x1F NOT DUP2 ADD DUP4 MSTORE DUP3 PUSH2 0x7EC JUMP JUMPDEST MLOAD SWAP1 KECCAK256 SWAP4 ADD SWAP1 PUSH2 0xA46 JUMP JUMPDEST SLOAD EQ PUSH1 0x40 MLOAD SWAP1 DUP2 MSTORE RETURN JUMPDEST POP CALLER PUSH0 SWAP1 DUP2 MSTORE PUSH1 0x3 DUP7 ADD DUP8 MSTORE PUSH1 0x40 SWAP1 KECCAK256 SLOAD PUSH1 0xFF AND PUSH2 0x78A JUMP JUMPDEST SWAP1 PUSH1 0x1F DUP1 NOT SWAP2 ADD AND DUP2 ADD SWAP1 DUP2 LT PUSH8 0xFFFFFFFFFFFFFFFF DUP3 GT OR PUSH2 0x80E JUMPI PUSH1 0x40 MSTORE JUMP JUMPDEST PUSH4 0x4E487B71 PUSH1 0xE0 SHL PUSH0 MSTORE PUSH1 0x41 PUSH1 0x4 MSTORE PUSH1 0x24 PUSH0 REVERT JUMPDEST DUP2 PUSH1 0x1F DUP3 ADD SLT ISZERO PUSH2 0x18D JUMPI DUP1 CALLDATALOAD SWAP1 PUSH8 0xFFFFFFFFFFFFFFFF DUP3 GT PUSH2 0x80E JUMPI PUSH1 0x40 MLOAD SWAP3 PUSH2 0x857 PUSH1 0x1F DUP5 ADD PUSH1 0x1F NOT AND PUSH1 0x20 ADD DUP6 PUSH2 0x7EC JUMP JUMPDEST DUP3 DUP5 MSTORE PUSH1 0x20 DUP4 DUP4 ADD ADD GT PUSH2 0x18D JUMPI DUP2 PUSH0 SWAP3 PUSH1 0x20 DUP1 SWAP4 ADD DUP4 DUP7 ADD CALLDATACOPY DUP4 ADD ADD MSTORE SWAP1 JUMP JUMPDEST SWAP1 PUSH1 0x40 PUSH1 0x3 NOT DUP4 ADD SLT PUSH2 0x18D JUMPI PUSH1 0x4 CALLDATALOAD SWAP2 PUSH1 0x24 CALLDATALOAD SWAP1 PUSH8 0xFFFFFFFFFFFFFFFF DUP3 GT PUSH2 0x18D JUMPI PUSH2 0x8A8 SWAP2 PUSH1 0x4 ADD PUSH2 0x822 JUMP JUMPDEST SWAP1 JUMP JUMPDEST PUSH8 0xFFFFFFFFFFFFFFFF DUP2 GT PUSH2 0x80E JUMPI PUSH1 0x5 SHL PUSH1 0x20 ADD SWAP1 JUMP JUMPDEST SWAP1 DUP1 PUSH1 0x1F DUP4 ADD SLT ISZERO PUSH2 0x18D JUMPI DUP2 CALLDATALOAD PUSH2 0x8DA DUP2 PUSH2 0x8AB JUMP JUMPDEST SWAP3 PUSH2 0x8E8 PUSH1 0x40 MLOAD SWAP5 DUP6 PUSH2 0x7EC JUMP JUMPDEST DUP2 DUP5 MSTORE PUSH1 0x20 DUP1 DUP6 ADD SWAP3 PUSH1 0x5 SHL DUP3 ADD ADD SWAP3 DUP4 GT PUSH2 0x18D JUMPI PUSH1 0x20 ADD SWAP1 JUMPDEST DUP3 DUP3 LT PUSH2 0x910 JUMPI POP POP POP SWAP1 JUMP JUMPDEST DUP2 CALLDATALOAD DUP2 MSTORE PUSH1 0x20 SWAP2 DUP3 ADD SWAP2 ADD PUSH2 0x903 JUMP JUMPDEST SWAP1 DUP1 PUSH1 0x1F DUP4 ADD SLT ISZERO PUSH2 0x18D JUMPI DUP2 CALLDATALOAD PUSH2 0x937 DUP2 PUSH2 0x8AB JUMP JUMPDEST SWAP3 PUSH2 0x945 PUSH1 0x40 MLOAD SWAP5 DUP6 PUSH2 0x7EC JUMP JUMPDEST DUP2 DUP5 MSTORE PUSH1 0x20 DUP1 DUP6 ADD SWAP3 PUSH1 0x5 SHL DUP3 ADD ADD SWAP2 DUP4 DUP4 GT PUSH2 0x18D JUMPI PUSH1 0x20 DUP3 ADD SWAP1 JUMPDEST DUP4 DUP3 LT PUSH2 0x971 JUMPI POP POP POP POP POP SWAP1 JUMP JUMPDEST DUP2 CALLDATALOAD PUSH8 0xFFFFFFFFFFFFFFFF DUP2 GT PUSH2 0x18D JUMPI PUSH1 0x20 SWAP2 PUSH2 0x994 DUP8 DUP5 DUP1 SWAP5 DUP9 ADD ADD PUSH2 0x822 JUMP JUMPDEST DUP2 MSTORE ADD SWAP2 ADD SWAP1 PUSH2 0x962 JUMP JUMPDEST PUSH1 0x40 SWAP1 PUSH1 0x3 NOT ADD SLT PUSH2 0x18D JUMPI PUSH1 0x4 CALLDATALOAD SWAP1 PUSH1 0x24 CALLDATALOAD PUSH1 0x1 PUSH1 0x1 PUSH1 0xA0 SHL SUB DUP2 AND DUP2 SUB PUSH2 0x18D JUMPI SWAP1 JUMP JUMPDEST ISZERO PUSH2 0x9CC JUMPI JUMP JUMPDEST PUSH1 0x40 MLOAD PUSH3 0x461BCD PUSH1 0xE5 SHL DUP2 MSTORE PUSH1 0x20 PUSH1 0x4 DUP3 ADD MSTORE PUSH1 0x15 PUSH1 0x24 DUP3 ADD MSTORE PUSH21 0x149958DBDC9908191BD95CC81B9BDD08195E1A5CDD PUSH1 0x5A SHL PUSH1 0x44 DUP3 ADD MSTORE PUSH1 0x64 SWAP1 REVERT JUMPDEST ISZERO PUSH2 0xA10 JUMPI JUMP JUMPDEST PUSH1 0x40 MLOAD PUSH3 0x461BCD PUSH1 0xE5 SHL DUP2 MSTORE PUSH1 0x20 PUSH1 0x4 DUP3 ADD MSTORE PUSH1 0xE PUSH1 0x24 DUP3 ADD MSTORE PUSH14 0x139BDD08185D5D1A1BDC9A5E9959 PUSH1 0x92 SHL PUSH1 0x44 DUP3 ADD MSTORE PUSH1 0x64 SWAP1 REVERT JUMPDEST PUSH1 0x40 MLOAD DUP2 MLOAD SWAP1 SWAP3 PUSH1 0x20 SWAP3 DUP5 SWAP3 SWAP1 DUP2 SWAP1 DUP6 ADD DUP5 MCOPY DUP3 ADD SWAP1 DUP2 MSTORE SUB ADD SWAP1 KECCAK256 SWAP1 JUMP JUMPDEST ISZERO PUSH2 0xA6C JUMPI JUMP JUMPDEST PUSH1 0x40 MLOAD PUSH3 0x461BCD PUSH1 0xE5 SHL DUP2 MSTORE PUSH1 0x20 PUSH1 0x4 DUP3 ADD MSTORE PUSH1 0x18 PUSH1 0x24 DUP3 ADD MSTORE PUSH32 0x4D69736D6174636820696E206669656C6420636F756E74730000000000000000 PUSH1 0x44 DUP3 ADD MSTORE PUSH1 0x64 SWAP1 REVERT JUMPDEST DUP1 MLOAD DUP3 LT ISZERO PUSH2 0xAC5 JUMPI PUSH1 0x20 SWAP2 PUSH1 0x5 SHL ADD ADD SWAP1 JUMP JUMPDEST PUSH4 0x4E487B71 PUSH1 0xE0 SHL PUSH0 MSTORE PUSH1 0x32 PUSH1 0x4 MSTORE PUSH1 0x24 PUSH0 REVERT JUMPDEST ISZERO PUSH2 0xAE0 JUMPI JUMP JUMPDEST PUSH1 0x40 MLOAD PUSH3 0x461BCD PUSH1 0xE5 SHL DUP2 MSTORE PUSH1 0x20 PUSH1 0x4 DUP3 ADD MSTORE PUSH1 0x17 PUSH1 0x24 DUP3 ADD MSTORE PUSH32 0x4F6E6C792070617469656E742063616E206D6F64696679000000000000000000 PUSH1 0x44 DUP3 ADD MSTORE PUSH1 0x64 SWAP1 REVERT INVALID LOG2 PUSH5 0x6970667358 0x22 SLT KECCAK256 PUSH21 0x8FA4EA6050D1A8FD87E3A23DA4EB6C47E53F2C8096 0xB6 0xC2 0xC2 0x4C 0xE7 EXP 0xF6 CALLER DUP5 SELFDESTRUCT PUSH5 0x736F6C6343 STOP ADDMOD BYTE STOP CALLER "
		},
		"gasEstimates": {
			"creation": {
				"codeDepositCost": "581400",
				"executionCost": "620",
				"totalCost": "582020"
			},
			"external": {
				"addPatientRecord(bytes32,bytes32[],string[])": "infinite",
				"emergencyAccess(uint256,string)": "infinite",
				"getRecordReference(uint256)": "11139",
				"grantAccess(uint256,address)": "32742",
				"nextPatientId()": "2358",
				"patientRecords(uint256)": "13141",
				"revokeAccess(uint256,address)": "32868",
				"setEmergencyPin(uint256,string)": "infinite",
				"updatePatientRecord(uint256,bytes32,bytes32[],string[])": "infinite",
				"verifyRecordField(uint256,string,string)": "infinite"
			}
		},
		"methodIdentifiers": {
			"addPatientRecord(bytes32,bytes32[],string[])": "63893e46",
			"emergencyAccess(uint256,string)": "3c2bc6a1",
			"getRecordReference(uint256)": "b39e07e4",
			"grantAccess(uint256,address)": "65dd152c",
			"nextPatientId()": "b1131795",
			"patientRecords(uint256)": "d3d188a1",
			"revokeAccess(uint256,address)": "d9a5ec1b",
			"setEmergencyPin(uint256,string)": "b38deff0",
			"updatePatientRecord(uint256,bytes32,bytes32[],string[])": "65e87a19",
			"verifyRecordField(uint256,string,string)": "1b424e7a"
		}
	},
	"abi": [
		{
			"anonymous": false,
			"inputs": [
				{
					"indexed": true,
					"internalType": "uint256",
					"name": "patientId",
					"type": "uint256"
				},
				{
					"indexed": false,
					"internalType": "address",
					"name": "provider",
					"type": "address"
				}
			],
			"name": "AccessGranted",
			"type": "event"
		},
		{
			"anonymous": false,
			"inputs": [
				{
					"indexed": true,
					"internalType": "uint256",
					"name": "patientId",
					"type": "uint256"
				},
				{
					"indexed": false,
					"internalType": "address",
					"name": "provider",
					"type": "address"
				}
			],
			"name": "AccessRevoked",
			"type": "event"
		},
		{
			"anonymous": false,
			"inputs": [
				{
					"indexed": true,
					"internalType": "uint256",
					"name": "patientId",
					"type": "uint256"
				},
				{
					"indexed": false,
					"internalType": "address",
					"name": "owner",
					"type": "address"
				},
				{
					"indexed": false,
					"internalType": "bytes32",
					"name": "ipfsHash",
					"type": "bytes32"
				}
			],
			"name": "RecordAdded",
			"type": "event"
		},
		{
			"anonymous": false,
			"inputs": [
				{
					"indexed": true,
					"internalType": "uint256",
					"name": "patientId",
					"type": "uint256"
				},
				{
					"indexed": false,
					"internalType": "bytes32",
					"name": "ipfsHash",
					"type": "bytes32"
				}
			],
			"name": "RecordUpdated",
			"type": "event"
		},
		{
			"inputs": [
				{
					"internalType": "bytes32",
					"name": "_ipfsHash",
					"type": "bytes32"
				},
				{
					"internalType": "bytes32[]",
					"name": "_fieldHashes",
					"type": "bytes32[]"
				},
				{
					"internalType": "string[]",
					"name": "_fieldNames",
					"type": "string[]"
				}
			],
			"name": "addPatientRecord",
			"outputs": [],
			"stateMutability": "nonpayable",
			"type": "function"
		},
		{
			"inputs": [
				{
					"internalType": "uint256",
					"name": "_patientId",
					"type": "uint256"
				},
				{
					"internalType": "string",
					"name": "_pin",
					"type": "string"
				}
			],
			"name": "emergencyAccess",
			"outputs": [
				{
					"internalType": "bytes32",
					"name": "ipfsHash",
					"type": "bytes32"
				}
			],
			"stateMutability": "view",
			"type": "function"
		},
		{
			"inputs": [
				{
					"internalType": "uint256",
					"name": "_patientId",
					"type": "uint256"
				}
			],
			"name": "getRecordReference",
			"outputs": [
				{
					"internalType": "bytes32",
					"name": "ipfsHash",
					"type": "bytes32"
				},
				{
					"internalType": "uint256",
					"name": "timestamp",
					"type": "uint256"
				}
			],
			"stateMutability": "view",
			"type": "function"
		},
		{
			"inputs": [
				{
					"internalType": "uint256",
					"name": "_patientId",
					"type": "uint256"
				},
				{
					"internalType": "address",
					"name": "_provider",
					"type": "address"
				}
			],
			"name": "grantAccess",
			"outputs": [],
			"stateMutability": "nonpayable",
			"type": "function"
		},
		{
			"inputs": [],
			"name": "nextPatientId",
			"outputs": [
				{
					"internalType": "uint256",
					"name": "",
					"type": "uint256"
				}
			],
			"stateMutability": "view",
			"type": "function"
		},
		{
			"inputs": [
				{
					"internalType": "uint256",
					"name": "",
					"type": "uint256"
				}
			],
			"name": "patientRecords",
			"outputs": [
				{
					"internalType": "uint256",
					"name": "patientId",
					"type": "uint256"
				},
				{
					"internalType": "address",
					"name": "owner",
					"type": "address"
				},
				{
					"internalType": "bytes32",
					"name": "ipfsHash",
					"type": "bytes32"
				},
				{
					"internalType": "uint256",
					"name": "accessLevel",
					"type": "uint256"
				},
				{
					"internalType": "uint256",
					"name": "timestamp",
					"type": "uint256"
				},
				{
					"internalType": "bytes32",
					"name": "emergencyPinHash",
					"type": "bytes32"
				}
			],
			"stateMutability": "view",
			"type": "function"
		},
		{
			"inputs": [
				{
					"internalType": "uint256",
					"name": "_patientId",
					"type": "uint256"
				},
				{
					"internalType": "address",
					"name": "_provider",
					"type": "address"
				}
			],
			"name": "revokeAccess",
			"outputs": [],
			"stateMutability": "nonpayable",
			"type": "function"
		},
		{
			"inputs": [
				{
					"internalType": "uint256",
					"name": "_patientId",
					"type": "uint256"
				},
				{
					"internalType": "string",
					"name": "_pin",
					"type": "string"
				}
			],
			"name": "setEmergencyPin",
			"outputs": [],
			"stateMutability": "nonpayable",
			"type": "function"
		},
		{
			"inputs": [
				{
					"internalType": "uint256",
					"name": "_patientId",
					"type": "uint256"
				},
				{
					"internalType": "bytes32",
					"name": "_ipfsHash",
					"type": "bytes32"
				},
				{
					"internalType": "bytes32[]",
					"name": "_fieldHashes",
					"type": "bytes32[]"
				},
				{
					"internalType": "string[]",
					"name": "_fieldNames",
					"type": "string[]"
				}
			],
			"name": "updatePatientRecord",
			"outputs": [],
			"stateMutability": "nonpayable",
			"type": "function"
		},
		{
			"inputs": [
				{
					"internalType": "uint256",
					"name": "_patientId",
					"type": "uint256"
				},
				{
					"internalType": "string",
					"name": "_fieldName",
					"type": "string"
				},
				{
					"internalType": "string",
					"name": "_fieldValue",
					"type": "string"
				}
			],
			"name": "verifyRecordField",
			"outputs": [
				{
					"internalType": "bool",
					"name": "",
					"type": "bool"
				}
			],
			"stateMutability": "view",
			"type": "function"
		}
	]
}