{
	"data": {
		"bytecode": {
			"linkReferences": {},
			"object": "60808060405234601557611b88908161001a8239f35b5f80fdfe6101a06040526004361015610012575f80fd5b5f3560e01c80631f36bc11146114ec5780633c2bc6a11461127f578063403ae76014611243578063470038291461122a578063541ccefe1461121157806365dd152c1461113e5780637d6b63da14610ae15780637f153a3814610ac857806399473b6814610aaf578063b072215e14610a73578063b113179514610a56578063b1ddd00e146109dc578063b38deff014610981578063bb17c81514610945578063c556b6a814610909578063c73b6156146108cd578063d267124d14610855578063d3d188a11461072a578063d9a5ec1b14610609578063f23b525a146101285763ffe77a9c14610101575f80fd5b3461012457602061011a61011436611505565b90611a70565b6040519015158152f35b5f80fd5b346101245761028036600319011261012457600435610124356001600160401b0381116101245761015d903690600401611610565b90610144356001600160401b0381116101245761017e903690600401611610565b610164356001600160401b0381116101245761019e903690600401611610565b6101a4356001600160401b038111610124576101be903690600401611610565b906101c4356001600160401b038111610124576101df903690600401611610565b92610224356001600160401b03811161012457610200903690600401611610565b94805f525f60205260018060a01b03600160405f2001541633036105b45761022b6001548210611678565b5f525f60205260405f2095602435600288015560443560038801556064356004880155608435600588015560a435600688015560c435600788015560e4356008880155610104356009880155600a87018151916001600160401b03831161047e57600160401b831161047e57815483835580841061058e575b50602001905f5260205f205f5b83811061057a5750505050600b86018151916001600160401b03831161047e57600160401b831161047e578154838355808410610554575b50602001905f5260205f205f5b8381106105405750505050600c85018151916001600160401b03831161047e57600160401b831161047e57815483835580841061051a575b50602001905f5260205f205f5b838110610506575050505061018435600d850155600e84018151916001600160401b03831161047e57600160401b831161047e5781548383558084106104e0575b50602001905f5260205f205f5b8381106104cc5750505050600f83018151916001600160401b03831161047e57600160401b831161047e5781548383558084106104a6575b50602001905f5260205f205f5b8381106104925785856101e4356010830155610204356011830155601282018151916001600160401b03831161047e57600160401b831161047e578154838355808410610458575b50602001905f5260205f205f5b83811061044457610244356013860155610264356014860155426017860155005b600190602084519401938184015501610423565b825f528360205f2091820191015b8181106104735750610416565b5f8155600101610466565b634e487b7160e01b5f52604160045260245ffd5b6001906020845194019381840155016103ce565b825f528360205f2091820191015b8181106104c157506103c1565b5f81556001016104b4565b600190602084519401938184015501610389565b825f528360205f2091820191015b8181106104fb575061037c565b5f81556001016104ee565b60019060208451940193818401550161033b565b825f528360205f2091820191015b818110610535575061032e565b5f8155600101610528565b6001906020845194019381840155016102f6565b825f528360205f2091820191015b81811061056f57506102e9565b5f8155600101610562565b6001906020845194019381840155016102b1565b825f528360205f2091820191015b8181106105a957506102a4565b5f815560010161059c565b60405162461bcd60e51b815260206004820152602760248201527f4f6e6c79207468652070617469656e742063616e2075706461746520746865206044820152663932b1b7b9321760c91b6064820152608490fd5b3461012457610617366115ea565b906106256001548210611678565b5f908152602081905260408120601601916001600160a01b0316905b82548082101561072857826106568386611710565b905460039190911b1c6001600160a01b0316146106765750600101610641565b5f19810192508211610714576106ab6106926106cf9385611710565b905460039190911b1c6001600160a01b03169184611710565b81546001600160a01b0393841660039290921b91821b9390911b1916919091179055565b80548015610700575f1901906106e58282611710565b81546001600160a01b0360039290921b9190911b1916905555005b634e487b7160e01b5f52603160045260245ffd5b634e487b7160e01b5f52601160045260245ffd5b005b34610124576020366003190112610124576004355f525f602052601760156014601360116010600d6009600860076006600560046003600260405f209e8f9e8f9e8f9e8f9e8f9e8f9e8f9e8f9e8f9e8f9e8f9e8f9e8f9e8f9e8f549f60018060a01b0360018201541660c05201549f01549f01549f01549f01549f01549f01549f01549f01549f01549f01549f01549f01549f01549f015460805260405160a05260a0515260c051602060a0510152604060a0510152606060a0510152608060a051015260a08051015260c060a051015260e060a051015261010060a051015261012060a051015261014060a051015261016060a051015261018060a05101526101a060a05101526101c060a05101526101e060a051015260805161020060a051015261022060a051f35b3461012457602061086536611505565b906108736001548210611678565b5f525f8252600360405f209132331480156108b8575b610892906116c4565b6040518481019182528481526108a960408261151b565b51902091015414604051908152f35b506108926108c63385611b04565b9050610889565b346101245760206108dd36611505565b906108eb6001548210611678565b5f525f8252601160405f209132331480156108b857610892906116c4565b3461012457602061091936611505565b906109276001548210611678565b5f525f8252601460405f209132331480156108b857610892906116c4565b3461012457602061095536611505565b906109636001548210611678565b5f525f8252600260405f209132331480156108b857610892906116c4565b346101245761098f3661153c565b61099c6001548310611678565b6040516109c86020828180820195805191829101875e81015f838201520301601f19810183528261151b565b519020905f52600260205260405f20555f80f35b34610124576020366003190112610124576004356109fd6001548210611678565b5f525f60205260e060405f20600481015490600581015490600681015460088201546009830154916010600d85015494015494604051968752602087015260408601526060850152608084015260a083015260c0820152f35b34610124575f366003190112610124576020600154604051908152f35b34610124576020610a8336611505565b90610a916001548210611678565b5f525f8252601360405f209132331480156108b857610892906116c4565b3461012457602061011a610ac236611505565b906119dc565b3461012457602061011a610adb36611505565b90611948565b346101245761026036600319011261012457610104356001600160401b03811161012457610b13903690600401611610565b610124356001600160401b03811161012457610b33903690600401611610565b90610144356001600160401b03811161012457610b54903690600401611610565b91610184356001600160401b03811161012457610b75903690600401611610565b906101a4356001600160401b03811161012457610b96903690600401611610565b610204356001600160401b03811161012457610bb6903690600401611610565b906001549360209660405194610bcc898761151b565b5f86525f3681376040519761030089018981106001600160401b0382111761047e57604052878952338a8a015260043560408a015260243560608a015260443560808a015260643560a08a015260843560c08a015260a43560e08a015260c4356101008a015260e4356101208a0152610140890152610160880152610180870152610164356101a08701526101c08601526101e08501526101c4356102008501526101e43561022085015261024084015261022435610260840152610244356102808401525f6102a08401526102c0830152426102e08301525f525f825260405f2091815183556001830160018060a01b0382840151166bffffffffffffffffffffffff60a01b82541617905560408201516002840155606082015160038401556080820151600484015560a0820151600584015560c0820151600684015560e08201516007840155610100820151600884015561012082015160098401556101408201518051906001600160401b03821161047e57600160401b821161047e578290600a86015483600a880155808410611112575b5001600a85015f52825f205f5b8381106111005750505050600b8301610160830151908151916001600160401b03831161047e57600160401b831161047e57839082548484558085106110d8575b5001905f52825f205f5b8381106110c65750505050600c8301610180830151908151916001600160401b03831161047e57600160401b831161047e578390825484845580851061109e575b5001905f52825f205f5b83811061108c57505050506101a0820151600d840155600e83016101c0830151908151916001600160401b03831161047e57600160401b831161047e5783908254848455808510611064575b5001905f52825f205f5b8381106110525750505050600f83016101e0830151908151916001600160401b03831161047e57600160401b831161047e578390825484845580851061102a575b5001905f52825f205f5b83811061101857505050506102008201516010840155610220820151601184015560128301610240830151908151916001600160401b03831161047e57600160401b831161047e5783908254848455808510610ff0575b5001905f52825f205f5b838110610fde5750505050610260820151601384015561028082015160148401556102a08201516015840155601683016102c0830151918251926001600160401b03841161047e57600160401b841161047e5781908354858555808610610fb6575b5001915f52805f20905f5b848110610f9b576102e086015160178801556001545f198114610714576001016001555f80f35b83516001600160a01b03168382015592810192600101610f74565b845f5285835f2091820191015b818110610fd05750610f69565b5f8155849350600101610fc3565b82518282015591840191600101610f07565b835f5284835f2091820191015b81811061100a5750610efd565b5f8155869350600101610ffd565b82518282015591840191600101610ea6565b835f5284835f2091820191015b8181106110445750610e9c565b5f8155869350600101611037565b82518282015591840191600101610e5b565b835f5284835f2091820191015b81811061107e5750610e51565b5f8155869350600101611071565b82518282015591840191600101610e05565b835f5284835f2091820191015b8181106110b85750610dfb565b5f81558693506001016110ab565b82518282015591840191600101610dba565b835f5284835f2091820191015b8181106110f25750610db0565b5f81558693506001016110e5565b82518282015591840191600101610d6f565b600a87015f52825f20908482015b8183018110611130575050610d62565b5f8155869450600101611120565b346101245761114c366115ea565b9061115a6001548210611678565b5f908152602081905260408120601601805492916001600160a01b038316905b8481106111a2575050600160401b83101561047e57826106ab91600161072895018155611710565b816111ad8285611710565b905460039190911b1c6001600160a01b0316146111cc5760010161117a565b60405162461bcd60e51b815260206004820152601c60248201527f50726f766964657220616c726561647920686173206163636573732e000000006044820152606490fd5b3461012457602061011a61122436611505565b906118b4565b3461012457602061011a61123d36611505565b90611820565b3461012457602061125336611505565b906112616001548210611678565b5f525f8252600760405f209132331480156108b857610892906116c4565b346101245761128d3661153c565b61129a6001548310611678565b6040516112c66020828180820195805191829101875e81015f838201520301601f19810183528261151b565b519020815f52600260205260405f2054036114b8575f525f60205260405f206002810154906003810154610160526004810154610180526005810154906006810154926007820154600883015493600984015495600d85015492601086015497601187015497601388015461014052601488015461010052600a880161134b906117d6565b92611358600b8a016117d6565b94611365600c8b016117d6565b96611372600e8c016117d6565b9961137f600f8d016117d6565b9b60120161138c906117d6565b60e052604051610120526101205152610160516101205160200152610180516101205160400152610120516060015261012051608001526101205160a001526101205160c001526101205160e001526101205161010001610260905261012051610260016113f9916115b7565b610120518103610120516101200152611411916115b7565b610120518103610120516101400152611429916115b7565b9061012051610160015261012051810361012051610180015261144b916115b7565b610120518103610120516101a00152611463916115b7565b91610120516101c00152610120516101e0015261012051810361012051610200015260e05190611492916115b7565b610140516101205161022001526101005161012051610240015261012051900361012051f35b60405162461bcd60e51b815260206004820152600c60248201526b24b73b30b634b2102824a71760a11b6044820152606490fd5b3461012457602061011a6114ff36611505565b90611739565b6040906003190112610124576004359060243590565b90601f801991011681019081106001600160401b0382111761047e57604052565b90604060031983011261012457600435916024356001600160401b0381116101245781602382011215610124578060040135906001600160401b03821161047e5760405192611595601f8401601f19166020018561151b565b8284526024838301011161012457815f92602460209301838601378301015290565b90602080835192838152019201905f5b8181106115d45750505090565b82518452602093840193909201916001016115c7565b604090600319011261012457600435906024356001600160a01b03811681036101245790565b9080601f83011215610124578135916001600160401b03831161047e578260051b906020820193611644604051958661151b565b845260208085019282010192831161012457602001905b8282106116685750505090565b813581526020918201910161165b565b1561167f57565b60405162461bcd60e51b815260206004820152601e60248201527f50617469656e74207265636f726420646f6573206e6f742065786973742e00006044820152606490fd5b156116cb57565b60405162461bcd60e51b815260206004820152601960248201527f4e6f7420617574686f72697a656420746f207665726966792e000000000000006044820152606490fd5b8054821015611725575f5260205f2001905f90565b634e487b7160e01b5f52603260045260245ffd5b6117466001548210611678565b5f525f60205260405f209032331480156117c1575b611764906116c4565b600f5f9201908154925b83811061177d57505050505f90565b60405160208101908382526020815261179760408261151b565b5190206117a48285611710565b90549060031b1c146117b85760010161176e565b50505050600190565b506117646117cf3384611b04565b905061175b565b90604051918281549182825260208201905f5260205f20925f5b8181106118075750506118059250038361151b565b565b84548352600194850194879450602090930192016117f0565b61182d6001548210611678565b5f525f60205260405f2090323314801561189f575b61184b906116c4565b600e5f9201908154925b83811061186457505050505f90565b60405160208101908382526020815261187e60408261151b565b51902061188b8285611710565b90549060031b1c146117b857600101611855565b5061184b6118ad3384611b04565b9050611842565b6118c16001548210611678565b5f525f60205260405f20903233148015611933575b6118df906116c4565b600c5f9201908154925b8381106118f857505050505f90565b60405160208101908382526020815261191260408261151b565b51902061191f8285611710565b90549060031b1c146117b8576001016118e9565b506118df6119413384611b04565b90506118d6565b6119556001548210611678565b5f525f60205260405f209032331480156119c7575b611973906116c4565b600a5f9201908154925b83811061198c57505050505f90565b6040516020810190838252602081526119a660408261151b565b5190206119b38285611710565b90549060031b1c146117b85760010161197d565b506119736119d53384611b04565b905061196a565b6119e96001548210611678565b5f525f60205260405f20903233148015611a5b575b611a07906116c4565b600b5f9201908154925b838110611a2057505050505f90565b604051602081019083825260208152611a3a60408261151b565b519020611a478285611710565b90549060031b1c146117b857600101611a11565b50611a07611a693384611b04565b90506119fe565b611a7d6001548210611678565b5f525f60205260405f20903233148015611aef575b611a9b906116c4565b60125f9201908154925b838110611ab457505050505f90565b604051602081019083825260208152611ace60408261151b565b519020611adb8285611710565b90549060031b1c146117b857600101611aa5565b50611a9b611afd3384611b04565b9050611a92565b905f5b601683018054821015611b4a5781611b1e91611710565b905460039190911b1c6001600160a01b0390811690831614611b4257600101611b07565b505050600190565b505050505f9056fea264697066735822122043371bb8186b2e2916435cdddbb2441b137e0ef2f99ccf28fb8f09c43e9c31e264736f6c634300081a0033",
			"opcodes": "PUSH1 0x80 DUP1 PUSH1 0x40 MSTORE CALLVALUE PUSH1 0x15 JUMPI PUSH2 0x1B88 SWAP1 DUP2 PUSH2 0x1A DUP3 CODECOPY RETURN JUMPDEST PUSH0 DUP1 REVERT INVALID PUSH2 0x1A0 PUSH1 0x40 MSTORE PUSH1 0x4 CALLDATASIZE LT ISZERO PUSH2 0x12 JUMPI PUSH0 DUP1 REVERT JUMPDEST PUSH0 CALLDATALOAD PUSH1 0xE0 SHR DUP1 PUSH4 0x1F36BC11 EQ PUSH2 0x14EC JUMPI DUP1 PUSH4 0x3C2BC6A1 EQ PUSH2 0x127F JUMPI DUP1 PUSH4 0x403AE760 EQ PUSH2 0x1243 JUMPI DUP1 PUSH4 0x47003829 EQ PUSH2 0x122A JUMPI DUP1 PUSH4 0x541CCEFE EQ PUSH2 0x1211 JUMPI DUP1 PUSH4 0x65DD152C EQ PUSH2 0x113E JUMPI DUP1 PUSH4 0x7D6B63DA EQ PUSH2 0xAE1 JUMPI DUP1 PUSH4 0x7F153A38 EQ PUSH2 0xAC8 JUMPI DUP1 PUSH4 0x99473B68 EQ PUSH2 0xAAF JUMPI DUP1 PUSH4 0xB072215E EQ PUSH2 0xA73 JUMPI DUP1 PUSH4 0xB1131795 EQ PUSH2 0xA56 JUMPI DUP1 PUSH4 0xB1DDD00E EQ PUSH2 0x9DC JUMPI DUP1 PUSH4 0xB38DEFF0 EQ PUSH2 0x981 JUMPI DUP1 PUSH4 0xBB17C815 EQ PUSH2 0x945 JUMPI DUP1 PUSH4 0xC556B6A8 EQ PUSH2 0x909 JUMPI DUP1 PUSH4 0xC73B6156 EQ PUSH2 0x8CD JUMPI DUP1 PUSH4 0xD267124D EQ PUSH2 0x855 JUMPI DUP1 PUSH4 0xD3D188A1 EQ PUSH2 0x72A JUMPI DUP1 PUSH4 0xD9A5EC1B EQ PUSH2 0x609 JUMPI DUP1 PUSH4 0xF23B525A EQ PUSH2 0x128 JUMPI PUSH4 0xFFE77A9C EQ PUSH2 0x101 JUMPI PUSH0 DUP1 REVERT JUMPDEST CALLVALUE PUSH2 0x124 JUMPI PUSH1 0x20 PUSH2 0x11A PUSH2 0x114 CALLDATASIZE PUSH2 0x1505 JUMP JUMPDEST SWAP1 PUSH2 0x1A70 JUMP JUMPDEST PUSH1 0x40 MLOAD SWAP1 ISZERO ISZERO DUP2 MSTORE RETURN JUMPDEST PUSH0 DUP1 REVERT JUMPDEST CALLVALUE PUSH2 0x124 JUMPI PUSH2 0x280 CALLDATASIZE PUSH1 0x3 NOT ADD SLT PUSH2 0x124 JUMPI PUSH1 0x4 CALLDATALOAD PUSH2 0x124 CALLDATALOAD PUSH1 0x1 PUSH1 0x1 PUSH1 0x40 SHL SUB DUP2 GT PUSH2 0x124 JUMPI PUSH2 0x15D SWAP1 CALLDATASIZE SWAP1 PUSH1 0x4 ADD PUSH2 0x1610 JUMP JUMPDEST SWAP1 PUSH2 0x144 CALLDATALOAD PUSH1 0x1 PUSH1 0x1 PUSH1 0x40 SHL SUB DUP2 GT PUSH2 0x124 JUMPI PUSH2 0x17E SWAP1 CALLDATASIZE SWAP1 PUSH1 0x4 ADD PUSH2 0x1610 JUMP JUMPDEST PUSH2 0x164 CALLDATALOAD PUSH1 0x1 PUSH1 0x1 PUSH1 0x40 SHL SUB DUP2 GT PUSH2 0x124 JUMPI PUSH2 0x19E SWAP1 CALLDATASIZE SWAP1 PUSH1 0x4 ADD PUSH2 0x1610 JUMP JUMPDEST PUSH2 0x1A4 CALLDATALOAD PUSH1 0x1 PUSH1 0x1 PUSH1 0x40 SHL SUB DUP2 GT PUSH2 0x124 JUMPI PUSH2 0x1BE SWAP1 CALLDATASIZE SWAP1 PUSH1 0x4 ADD PUSH2 0x1610 JUMP JUMPDEST SWAP1 PUSH2 0x1C4 CALLDATALOAD PUSH1 0x1 PUSH1 0x1 PUSH1 0x40 SHL SUB DUP2 GT PUSH2 0x124 JUMPI PUSH2 0x1DF SWAP1 CALLDATASIZE SWAP1 PUSH1 0x4 ADD PUSH2 0x1610 JUMP JUMPDEST SWAP3 PUSH2 0x224 CALLDATALOAD PUSH1 0x1 PUSH1 0x1 PUSH1 0x40 SHL SUB DUP2 GT PUSH2 0x124 JUMPI PUSH2 0x200 SWAP1 CALLDATASIZE SWAP1 PUSH1 0x4 ADD PUSH2 0x1610 JUMP JUMPDEST SWAP5 DUP1 PUSH0 MSTORE PUSH0 PUSH1 0x20 MSTORE PUSH1 0x1 DUP1 PUSH1 0xA0 SHL SUB PUSH1 0x1 PUSH1 0x40 PUSH0 KECCAK256 ADD SLOAD AND CALLER SUB PUSH2 0x5B4 JUMPI PUSH2 0x22B PUSH1 0x1 SLOAD DUP3 LT PUSH2 0x1678 JUMP JUMPDEST PUSH0 MSTORE PUSH0 PUSH1 0x20 MSTORE PUSH1 0x40 PUSH0 KECCAK256 SWAP6 PUSH1 0x24 CALLDATALOAD PUSH1 0x2 DUP9 ADD SSTORE PUSH1 0x44 CALLDATALOAD PUSH1 0x3 DUP9 ADD SSTORE PUSH1 0x64 CALLDATALOAD PUSH1 0x4 DUP9 ADD SSTORE PUSH1 0x84 CALLDATALOAD PUSH1 0x5 DUP9 ADD SSTORE PUSH1 0xA4 CALLDATALOAD PUSH1 0x6 DUP9 ADD SSTORE PUSH1 0xC4 CALLDATALOAD PUSH1 0x7 DUP9 ADD SSTORE PUSH1 0xE4 CALLDATALOAD PUSH1 0x8 DUP9 ADD SSTORE PUSH2 0x104 CALLDATALOAD PUSH1 0x9 DUP9 ADD SSTORE PUSH1 0xA DUP8 ADD DUP2 MLOAD SWAP2 PUSH1 0x1 PUSH1 0x1 PUSH1 0x40 SHL SUB DUP4 GT PUSH2 0x47E JUMPI PUSH1 0x1 PUSH1 0x40 SHL DUP4 GT PUSH2 0x47E JUMPI DUP2 SLOAD DUP4 DUP4 SSTORE DUP1 DUP5 LT PUSH2 0x58E JUMPI JUMPDEST POP PUSH1 0x20 ADD SWAP1 PUSH0 MSTORE PUSH1 0x20 PUSH0 KECCAK256 PUSH0 JUMPDEST DUP4 DUP2 LT PUSH2 0x57A JUMPI POP POP POP POP PUSH1 0xB DUP7 ADD DUP2 MLOAD SWAP2 PUSH1 0x1 PUSH1 0x1 PUSH1 0x40 SHL SUB DUP4 GT PUSH2 0x47E JUMPI PUSH1 0x1 PUSH1 0x40 SHL DUP4 GT PUSH2 0x47E JUMPI DUP2 SLOAD DUP4 DUP4 SSTORE DUP1 DUP5 LT PUSH2 0x554 JUMPI JUMPDEST POP PUSH1 0x20 ADD SWAP1 PUSH0 MSTORE PUSH1 0x20 PUSH0 KECCAK256 PUSH0 JUMPDEST DUP4 DUP2 LT PUSH2 0x540 JUMPI POP POP POP POP PUSH1 0xC DUP6 ADD DUP2 MLOAD SWAP2 PUSH1 0x1 PUSH1 0x1 PUSH1 0x40 SHL SUB DUP4 GT PUSH2 0x47E JUMPI PUSH1 0x1 PUSH1 0x40 SHL DUP4 GT PUSH2 0x47E JUMPI DUP2 SLOAD DUP4 DUP4 SSTORE DUP1 DUP5 LT PUSH2 0x51A JUMPI JUMPDEST POP PUSH1 0x20 ADD SWAP1 PUSH0 MSTORE PUSH1 0x20 PUSH0 KECCAK256 PUSH0 JUMPDEST DUP4 DUP2 LT PUSH2 0x506 JUMPI POP POP POP POP PUSH2 0x184 CALLDATALOAD PUSH1 0xD DUP6 ADD SSTORE PUSH1 0xE DUP5 ADD DUP2 MLOAD SWAP2 PUSH1 0x1 PUSH1 0x1 PUSH1 0x40 SHL SUB DUP4 GT PUSH2 0x47E JUMPI PUSH1 0x1 PUSH1 0x40 SHL DUP4 GT PUSH2 0x47E JUMPI DUP2 SLOAD DUP4 DUP4 SSTORE DUP1 DUP5 LT PUSH2 0x4E0 JUMPI JUMPDEST POP PUSH1 0x20 ADD SWAP1 PUSH0 MSTORE PUSH1 0x20 PUSH0 KECCAK256 PUSH0 JUMPDEST DUP4 DUP2 LT PUSH2 0x4CC JUMPI POP POP POP POP PUSH1 0xF DUP4 ADD DUP2 MLOAD SWAP2 PUSH1 0x1 PUSH1 0x1 PUSH1 0x40 SHL SUB DUP4 GT PUSH2 0x47E JUMPI PUSH1 0x1 PUSH1 0x40 SHL DUP4 GT PUSH2 0x47E JUMPI DUP2 SLOAD DUP4 DUP4 SSTORE DUP1 DUP5 LT PUSH2 0x4A6 JUMPI JUMPDEST POP PUSH1 0x20 ADD SWAP1 PUSH0 MSTORE PUSH1 0x20 PUSH0 KECCAK256 PUSH0 JUMPDEST DUP4 DUP2 LT PUSH2 0x492 JUMPI DUP6 DUP6 PUSH2 0x1E4 CALLDATALOAD PUSH1 0x10 DUP4 ADD SSTORE PUSH2 0x204 CALLDATALOAD PUSH1 0x11 DUP4 ADD SSTORE PUSH1 0x12 DUP3 ADD DUP2 MLOAD SWAP2 PUSH1 0x1 PUSH1 0x1 PUSH1 0x40 SHL SUB DUP4 GT PUSH2 0x47E JUMPI PUSH1 0x1 PUSH1 0x40 SHL DUP4 GT PUSH2 0x47E JUMPI DUP2 SLOAD DUP4 DUP4 SSTORE DUP1 DUP5 LT PUSH2 0x458 JUMPI JUMPDEST POP PUSH1 0x20 ADD SWAP1 PUSH0 MSTORE PUSH1 0x20 PUSH0 KECCAK256 PUSH0 JUMPDEST DUP4 DUP2 LT PUSH2 0x444 JUMPI PUSH2 0x244 CALLDATALOAD PUSH1 0x13 DUP7 ADD SSTORE PUSH2 0x264 CALLDATALOAD PUSH1 0x14 DUP7 ADD SSTORE TIMESTAMP PUSH1 0x17 DUP7 ADD SSTORE STOP JUMPDEST PUSH1 0x1 SWAP1 PUSH1 0x20 DUP5 MLOAD SWAP5 ADD SWAP4 DUP2 DUP5 ADD SSTORE ADD PUSH2 0x423 JUMP JUMPDEST DUP3 PUSH0 MSTORE DUP4 PUSH1 0x20 PUSH0 KECCAK256 SWAP2 DUP3 ADD SWAP2 ADD JUMPDEST DUP2 DUP2 LT PUSH2 0x473 JUMPI POP PUSH2 0x416 JUMP JUMPDEST PUSH0 DUP2 SSTORE PUSH1 0x1 ADD PUSH2 0x466 JUMP JUMPDEST PUSH4 0x4E487B71 PUSH1 0xE0 SHL PUSH0 MSTORE PUSH1 0x41 PUSH1 0x4 MSTORE PUSH1 0x24 PUSH0 REVERT JUMPDEST PUSH1 0x1 SWAP1 PUSH1 0x20 DUP5 MLOAD SWAP5 ADD SWAP4 DUP2 DUP5 ADD SSTORE ADD PUSH2 0x3CE JUMP JUMPDEST DUP3 PUSH0 MSTORE DUP4 PUSH1 0x20 PUSH0 KECCAK256 SWAP2 DUP3 ADD SWAP2 ADD JUMPDEST DUP2 DUP2 LT PUSH2 0x4C1 JUMPI POP PUSH2 0x3C1 JUMP JUMPDEST PUSH0 DUP2 SSTORE PUSH1 0x1 ADD PUSH2 0x4B4 JUMP JUMPDEST PUSH1 0x1 SWAP1 PUSH1 0x20 DUP5 MLOAD SWAP5 ADD SWAP4 DUP2 DUP5 ADD SSTORE ADD PUSH2 0x389 JUMP JUMPDEST DUP3 PUSH0 MSTORE DUP4 PUSH1 0x20 PUSH0 KECCAK256 SWAP2 DUP3 ADD SWAP2 ADD JUMPDEST DUP2 DUP2 LT PUSH2 0x4FB JUMPI POP PUSH2 0x37C JUMP JUMPDEST PUSH0 DUP2 SSTORE PUSH1 0x1 ADD PUSH2 0x4EE JUMP JUMPDEST PUSH1 0x1 SWAP1 PUSH1 0x20 DUP5 MLOAD SWAP5 ADD SWAP4 DUP2 DUP5 ADD SSTORE ADD PUSH2 0x33B JUMP JUMPDEST DUP3 PUSH0 MSTORE DUP4 PUSH1 0x20 PUSH0 KECCAK256 SWAP2 DUP3 ADD SWAP2 ADD JUMPDEST DUP2 DUP2 LT PUSH2 0x535 JUMPI POP PUSH2 0x32E JUMP JUMPDEST PUSH0 DUP2 SSTORE PUSH1 0x1 ADD PUSH2 0x528 JUMP JUMPDEST PUSH1 0x1 SWAP1 PUSH1 0x20 DUP5 MLOAD SWAP5 ADD SWAP4 DUP2 DUP5 ADD SSTORE ADD PUSH2 0x2F6 JUMP JUMPDEST DUP3 PUSH0 MSTORE DUP4 PUSH1 0x20 PUSH0 KECCAK256 SWAP2 DUP3 ADD SWAP2 ADD JUMPDEST DUP2 DUP2 LT PUSH2 0x56F JUMPI POP PUSH2 0x2E9 JUMP JUMPDEST PUSH0 DUP2 SSTORE PUSH1 0x1 ADD PUSH2 0x562 JUMP JUMPDEST PUSH1 0x1 SWAP1 PUSH1 0x20 DUP5 MLOAD SWAP5 ADD SWAP4 DUP2 DUP5 ADD SSTORE ADD PUSH2 0x2B1 JUMP JUMPDEST DUP3 PUSH0 MSTORE DUP4 PUSH1 0x20 PUSH0 KECCAK256 SWAP2 DUP3 ADD SWAP2 ADD JUMPDEST DUP2 DUP2 LT PUSH2 0x5A9 JUMPI POP PUSH2 0x2A4 JUMP JUMPDEST PUSH0 DUP2 SSTORE PUSH1 0x1 ADD PUSH2 0x59C JUMP JUMPDEST PUSH1 0x40 MLOAD PUSH3 0x461BCD PUSH1 0xE5 SHL DUP2 MSTORE PUSH1 0x20 PUSH1 0x4 DUP3 ADD MSTORE PUSH1 0x27 PUSH1 0x24 DUP3 ADD MSTORE PUSH32 0x4F6E6C79207468652070617469656E742063616E207570646174652074686520 PUSH1 0x44 DUP3 ADD MSTORE PUSH7 0x3932B1B7B93217 PUSH1 0xC9 SHL PUSH1 0x64 DUP3 ADD MSTORE PUSH1 0x84 SWAP1 REVERT JUMPDEST CALLVALUE PUSH2 0x124 JUMPI PUSH2 0x617 CALLDATASIZE PUSH2 0x15EA JUMP JUMPDEST SWAP1 PUSH2 0x625 PUSH1 0x1 SLOAD DUP3 LT PUSH2 0x1678 JUMP JUMPDEST PUSH0 SWAP1 DUP2 MSTORE PUSH1 0x20 DUP2 SWAP1 MSTORE PUSH1 0x40 DUP2 KECCAK256 PUSH1 0x16 ADD SWAP2 PUSH1 0x1 PUSH1 0x1 PUSH1 0xA0 SHL SUB AND SWAP1 JUMPDEST DUP3 SLOAD DUP1 DUP3 LT ISZERO PUSH2 0x728 JUMPI DUP3 PUSH2 0x656 DUP4 DUP7 PUSH2 0x1710 JUMP JUMPDEST SWAP1 SLOAD PUSH1 0x3 SWAP2 SWAP1 SWAP2 SHL SHR PUSH1 0x1 PUSH1 0x1 PUSH1 0xA0 SHL SUB AND EQ PUSH2 0x676 JUMPI POP PUSH1 0x1 ADD PUSH2 0x641 JUMP JUMPDEST PUSH0 NOT DUP2 ADD SWAP3 POP DUP3 GT PUSH2 0x714 JUMPI PUSH2 0x6AB PUSH2 0x692 PUSH2 0x6CF SWAP4 DUP6 PUSH2 0x1710 JUMP JUMPDEST SWAP1 SLOAD PUSH1 0x3 SWAP2 SWAP1 SWAP2 SHL SHR PUSH1 0x1 PUSH1 0x1 PUSH1 0xA0 SHL SUB AND SWAP2 DUP5 PUSH2 0x1710 JUMP JUMPDEST DUP2 SLOAD PUSH1 0x1 PUSH1 0x1 PUSH1 0xA0 SHL SUB SWAP4 DUP5 AND PUSH1 0x3 SWAP3 SWAP1 SWAP3 SHL SWAP2 DUP3 SHL SWAP4 SWAP1 SWAP2 SHL NOT AND SWAP2 SWAP1 SWAP2 OR SWAP1 SSTORE JUMP JUMPDEST DUP1 SLOAD DUP1 ISZERO PUSH2 0x700 JUMPI PUSH0 NOT ADD SWAP1 PUSH2 0x6E5 DUP3 DUP3 PUSH2 0x1710 JUMP JUMPDEST DUP2 SLOAD PUSH1 0x1 PUSH1 0x1 PUSH1 0xA0 SHL SUB PUSH1 0x3 SWAP3 SWAP1 SWAP3 SHL SWAP2 SWAP1 SWAP2 SHL NOT AND SWAP1 SSTORE SSTORE STOP JUMPDEST PUSH4 0x4E487B71 PUSH1 0xE0 SHL PUSH0 MSTORE PUSH1 0x31 PUSH1 0x4 MSTORE PUSH1 0x24 PUSH0 REVERT JUMPDEST PUSH4 0x4E487B71 PUSH1 0xE0 SHL PUSH0 MSTORE PUSH1 0x11 PUSH1 0x4 MSTORE PUSH1 0x24 PUSH0 REVERT JUMPDEST STOP JUMPDEST CALLVALUE PUSH2 0x124 JUMPI PUSH1 0x20 CALLDATASIZE PUSH1 0x3 NOT ADD SLT PUSH2 0x124 JUMPI PUSH1 0x4 CALLDATALOAD PUSH0 MSTORE PUSH0 PUSH1 0x20 MSTORE PUSH1 0x17 PUSH1 0x15 PUSH1 0x14 PUSH1 0x13 PUSH1 0x11 PUSH1 0x10 PUSH1 0xD PUSH1 0x9 PUSH1 0x8 PUSH1 0x7 PUSH1 0x6 PUSH1 0x5 PUSH1 0x4 PUSH1 0x3 PUSH1 0x2 PUSH1 0x40 PUSH0 KECCAK256 SWAP15 DUP16 SWAP15 DUP16 SWAP15 DUP16 SWAP15 DUP16 SWAP15 DUP16 SWAP15 DUP16 SWAP15 DUP16 SWAP15 DUP16 SWAP15 DUP16 SWAP15 DUP16 SWAP15 DUP16 SWAP15 DUP16 SWAP15 DUP16 SWAP15 DUP16 SWAP15 DUP16 SLOAD SWAP16 PUSH1 0x1 DUP1 PUSH1 0xA0 SHL SUB PUSH1 0x1 DUP3 ADD SLOAD AND PUSH1 0xC0 MSTORE ADD SLOAD SWAP16 ADD SLOAD SWAP16 ADD SLOAD SWAP16 ADD SLOAD SWAP16 ADD SLOAD SWAP16 ADD SLOAD SWAP16 ADD SLOAD SWAP16 ADD SLOAD SWAP16 ADD SLOAD SWAP16 ADD SLOAD SWAP16 ADD SLOAD SWAP16 ADD SLOAD SWAP16 ADD SLOAD SWAP16 ADD SLOAD SWAP16 ADD SLOAD PUSH1 0x80 MSTORE PUSH1 0x40 MLOAD PUSH1 0xA0 MSTORE PUSH1 0xA0 MLOAD MSTORE PUSH1 0xC0 MLOAD PUSH1 0x20 PUSH1 0xA0 MLOAD ADD MSTORE PUSH1 0x40 PUSH1 0xA0 MLOAD ADD MSTORE PUSH1 0x60 PUSH1 0xA0 MLOAD ADD MSTORE PUSH1 0x80 PUSH1 0xA0 MLOAD ADD MSTORE PUSH1 0xA0 DUP1 MLOAD ADD MSTORE PUSH1 0xC0 PUSH1 0xA0 MLOAD ADD MSTORE PUSH1 0xE0 PUSH1 0xA0 MLOAD ADD MSTORE PUSH2 0x100 PUSH1 0xA0 MLOAD ADD MSTORE PUSH2 0x120 PUSH1 0xA0 MLOAD ADD MSTORE PUSH2 0x140 PUSH1 0xA0 MLOAD ADD MSTORE PUSH2 0x160 PUSH1 0xA0 MLOAD ADD MSTORE PUSH2 0x180 PUSH1 0xA0 MLOAD ADD MSTORE PUSH2 0x1A0 PUSH1 0xA0 MLOAD ADD MSTORE PUSH2 0x1C0 PUSH1 0xA0 MLOAD ADD MSTORE PUSH2 0x1E0 PUSH1 0xA0 MLOAD ADD MSTORE PUSH1 0x80 MLOAD PUSH2 0x200 PUSH1 0xA0 MLOAD ADD MSTORE PUSH2 0x220 PUSH1 0xA0 MLOAD RETURN JUMPDEST CALLVALUE PUSH2 0x124 JUMPI PUSH1 0x20 PUSH2 0x865 CALLDATASIZE PUSH2 0x1505 JUMP JUMPDEST SWAP1 PUSH2 0x873 PUSH1 0x1 SLOAD DUP3 LT PUSH2 0x1678 JUMP JUMPDEST PUSH0 MSTORE PUSH0 DUP3 MSTORE PUSH1 0x3 PUSH1 0x40 PUSH0 KECCAK256 SWAP2 ORIGIN CALLER EQ DUP1 ISZERO PUSH2 0x8B8 JUMPI JUMPDEST PUSH2 0x892 SWAP1 PUSH2 0x16C4 JUMP JUMPDEST PUSH1 0x40 MLOAD DUP5 DUP2 ADD SWAP2 DUP3 MSTORE DUP5 DUP2 MSTORE PUSH2 0x8A9 PUSH1 0x40 DUP3 PUSH2 0x151B JUMP JUMPDEST MLOAD SWAP1 KECCAK256 SWAP2 ADD SLOAD EQ PUSH1 0x40 MLOAD SWAP1 DUP2 MSTORE RETURN JUMPDEST POP PUSH2 0x892 PUSH2 0x8C6 CALLER DUP6 PUSH2 0x1B04 JUMP JUMPDEST SWAP1 POP PUSH2 0x889 JUMP JUMPDEST CALLVALUE PUSH2 0x124 JUMPI PUSH1 0x20 PUSH2 0x8DD CALLDATASIZE PUSH2 0x1505 JUMP JUMPDEST SWAP1 PUSH2 0x8EB PUSH1 0x1 SLOAD DUP3 LT PUSH2 0x1678 JUMP JUMPDEST PUSH0 MSTORE PUSH0 DUP3 MSTORE PUSH1 0x11 PUSH1 0x40 PUSH0 KECCAK256 SWAP2 ORIGIN CALLER EQ DUP1 ISZERO PUSH2 0x8B8 JUMPI PUSH2 0x892 SWAP1 PUSH2 0x16C4 JUMP JUMPDEST CALLVALUE PUSH2 0x124 JUMPI PUSH1 0x20 PUSH2 0x919 CALLDATASIZE PUSH2 0x1505 JUMP JUMPDEST SWAP1 PUSH2 0x927 PUSH1 0x1 SLOAD DUP3 LT PUSH2 0x1678 JUMP JUMPDEST PUSH0 MSTORE PUSH0 DUP3 MSTORE PUSH1 0x14 PUSH1 0x40 PUSH0 KECCAK256 SWAP2 ORIGIN CALLER EQ DUP1 ISZERO PUSH2 0x8B8 JUMPI PUSH2 0x892 SWAP1 PUSH2 0x16C4 JUMP JUMPDEST CALLVALUE PUSH2 0x124 JUMPI PUSH1 0x20 PUSH2 0x955 CALLDATASIZE PUSH2 0x1505 JUMP JUMPDEST SWAP1 PUSH2 0x963 PUSH1 0x1 SLOAD DUP3 LT PUSH2 0x1678 JUMP JUMPDEST PUSH0 MSTORE PUSH0 DUP3 MSTORE PUSH1 0x2 PUSH1 0x40 PUSH0 KECCAK256 SWAP2 ORIGIN CALLER EQ DUP1 ISZERO PUSH2 0x8B8 JUMPI PUSH2 0x892 SWAP1 PUSH2 0x16C4 JUMP JUMPDEST CALLVALUE PUSH2 0x124 JUMPI PUSH2 0x98F CALLDATASIZE PUSH2 0x153C JUMP JUMPDEST PUSH2 0x99C PUSH1 0x1 SLOAD DUP4 LT PUSH2 0x1678 JUMP JUMPDEST PUSH1 0x40 MLOAD PUSH2 0x9C8 PUSH1 0x20 DUP3 DUP2 DUP1 DUP3 ADD SWAP6 DUP1 MLOAD SWAP2 DUP3 SWAP2 ADD DUP8 MCOPY DUP2 ADD PUSH0 DUP4 DUP3 ADD MSTORE SUB ADD PUSH1 0x1F NOT DUP2 ADD DUP4 MSTORE DUP3 PUSH2 0x151B JUMP JUMPDEST MLOAD SWAP1 KECCAK256 SWAP1 PUSH0 MSTORE PUSH1 0x2 PUSH1 0x20 MSTORE PUSH1 0x40 PUSH0 KECCAK256 SSTORE PUSH0 DUP1 RETURN JUMPDEST CALLVALUE PUSH2 0x124 JUMPI PUSH1 0x20 CALLDATASIZE PUSH1 0x3 NOT ADD SLT PUSH2 0x124 JUMPI PUSH1 0x4 CALLDATALOAD PUSH2 0x9FD PUSH1 0x1 SLOAD DUP3 LT PUSH2 0x1678 JUMP JUMPDEST PUSH0 MSTORE PUSH0 PUSH1 0x20 MSTORE PUSH1 0xE0 PUSH1 0x40 PUSH0 KECCAK256 PUSH1 0x4 DUP2 ADD SLOAD SWAP1 PUSH1 0x5 DUP2 ADD SLOAD SWAP1 PUSH1 0x6 DUP2 ADD SLOAD PUSH1 0x8 DUP3 ADD SLOAD PUSH1 0x9 DUP4 ADD SLOAD SWAP2 PUSH1 0x10 PUSH1 0xD DUP6 ADD SLOAD SWAP5 ADD SLOAD SWAP5 PUSH1 0x40 MLOAD SWAP7 DUP8 MSTORE PUSH1 0x20 DUP8 ADD MSTORE PUSH1 0x40 DUP7 ADD MSTORE PUSH1 0x60 DUP6 ADD MSTORE PUSH1 0x80 DUP5 ADD MSTORE PUSH1 0xA0 DUP4 ADD MSTORE PUSH1 0xC0 DUP3 ADD MSTORE RETURN JUMPDEST CALLVALUE PUSH2 0x124 JUMPI PUSH0 CALLDATASIZE PUSH1 0x3 NOT ADD SLT PUSH2 0x124 JUMPI PUSH1 0x20 PUSH1 0x1 SLOAD PUSH1 0x40 MLOAD SWAP1 DUP2 MSTORE RETURN JUMPDEST CALLVALUE PUSH2 0x124 JUMPI PUSH1 0x20 PUSH2 0xA83 CALLDATASIZE PUSH2 0x1505 JUMP JUMPDEST SWAP1 PUSH2 0xA91 PUSH1 0x1 SLOAD DUP3 LT PUSH2 0x1678 JUMP JUMPDEST PUSH0 MSTORE PUSH0 DUP3 MSTORE PUSH1 0x13 PUSH1 0x40 PUSH0 KECCAK256 SWAP2 ORIGIN CALLER EQ DUP1 ISZERO PUSH2 0x8B8 JUMPI PUSH2 0x892 SWAP1 PUSH2 0x16C4 JUMP JUMPDEST CALLVALUE PUSH2 0x124 JUMPI PUSH1 0x20 PUSH2 0x11A PUSH2 0xAC2 CALLDATASIZE PUSH2 0x1505 JUMP JUMPDEST SWAP1 PUSH2 0x19DC JUMP JUMPDEST CALLVALUE PUSH2 0x124 JUMPI PUSH1 0x20 PUSH2 0x11A PUSH2 0xADB CALLDATASIZE PUSH2 0x1505 JUMP JUMPDEST SWAP1 PUSH2 0x1948 JUMP JUMPDEST CALLVALUE PUSH2 0x124 JUMPI PUSH2 0x260 CALLDATASIZE PUSH1 0x3 NOT ADD SLT PUSH2 0x124 JUMPI PUSH2 0x104 CALLDATALOAD PUSH1 0x1 PUSH1 0x1 PUSH1 0x40 SHL SUB DUP2 GT PUSH2 0x124 JUMPI PUSH2 0xB13 SWAP1 CALLDATASIZE SWAP1 PUSH1 0x4 ADD PUSH2 0x1610 JUMP JUMPDEST PUSH2 0x124 CALLDATALOAD PUSH1 0x1 PUSH1 0x1 PUSH1 0x40 SHL SUB DUP2 GT PUSH2 0x124 JUMPI PUSH2 0xB33 SWAP1 CALLDATASIZE SWAP1 PUSH1 0x4 ADD PUSH2 0x1610 JUMP JUMPDEST SWAP1 PUSH2 0x144 CALLDATALOAD PUSH1 0x1 PUSH1 0x1 PUSH1 0x40 SHL SUB DUP2 GT PUSH2 0x124 JUMPI PUSH2 0xB54 SWAP1 CALLDATASIZE SWAP1 PUSH1 0x4 ADD PUSH2 0x1610 JUMP JUMPDEST SWAP2 PUSH2 0x184 CALLDATALOAD PUSH1 0x1 PUSH1 0x1 PUSH1 0x40 SHL SUB DUP2 GT PUSH2 0x124 JUMPI PUSH2 0xB75 SWAP1 CALLDATASIZE SWAP1 PUSH1 0x4 ADD PUSH2 0x1610 JUMP JUMPDEST SWAP1 PUSH2 0x1A4 CALLDATALOAD PUSH1 0x1 PUSH1 0x1 PUSH1 0x40 SHL SUB DUP2 GT PUSH2 0x124 JUMPI PUSH2 0xB96 SWAP1 CALLDATASIZE SWAP1 PUSH1 0x4 ADD PUSH2 0x1610 JUMP JUMPDEST PUSH2 0x204 CALLDATALOAD PUSH1 0x1 PUSH1 0x1 PUSH1 0x40 SHL SUB DUP2 GT PUSH2 0x124 JUMPI PUSH2 0xBB6 SWAP1 CALLDATASIZE SWAP1 PUSH1 0x4 ADD PUSH2 0x1610 JUMP JUMPDEST SWAP1 PUSH1 0x1 SLOAD SWAP4 PUSH1 0x20 SWAP7 PUSH1 0x40 MLOAD SWAP5 PUSH2 0xBCC DUP10 DUP8 PUSH2 0x151B JUMP JUMPDEST PUSH0 DUP7 MSTORE PUSH0 CALLDATASIZE DUP2 CALLDATACOPY PUSH1 0x40 MLOAD SWAP8 PUSH2 0x300 DUP10 ADD DUP10 DUP2 LT PUSH1 0x1 PUSH1 0x1 PUSH1 0x40 SHL SUB DUP3 GT OR PUSH2 0x47E JUMPI PUSH1 0x40 MSTORE DUP8 DUP10 MSTORE CALLER DUP11 DUP11 ADD MSTORE PUSH1 0x4 CALLDATALOAD PUSH1 0x40 DUP11 ADD MSTORE PUSH1 0x24 CALLDATALOAD PUSH1 0x60 DUP11 ADD MSTORE PUSH1 0x44 CALLDATALOAD PUSH1 0x80 DUP11 ADD MSTORE PUSH1 0x64 CALLDATALOAD PUSH1 0xA0 DUP11 ADD MSTORE PUSH1 0x84 CALLDATALOAD PUSH1 0xC0 DUP11 ADD MSTORE PUSH1 0xA4 CALLDATALOAD PUSH1 0xE0 DUP11 ADD MSTORE PUSH1 0xC4 CALLDATALOAD PUSH2 0x100 DUP11 ADD MSTORE PUSH1 0xE4 CALLDATALOAD PUSH2 0x120 DUP11 ADD MSTORE PUSH2 0x140 DUP10 ADD MSTORE PUSH2 0x160 DUP9 ADD MSTORE PUSH2 0x180 DUP8 ADD MSTORE PUSH2 0x164 CALLDATALOAD PUSH2 0x1A0 DUP8 ADD MSTORE PUSH2 0x1C0 DUP7 ADD MSTORE PUSH2 0x1E0 DUP6 ADD MSTORE PUSH2 0x1C4 CALLDATALOAD PUSH2 0x200 DUP6 ADD MSTORE PUSH2 0x1E4 CALLDATALOAD PUSH2 0x220 DUP6 ADD MSTORE PUSH2 0x240 DUP5 ADD MSTORE PUSH2 0x224 CALLDATALOAD PUSH2 0x260 DUP5 ADD MSTORE PUSH2 0x244 CALLDATALOAD PUSH2 0x280 DUP5 ADD MSTORE PUSH0 PUSH2 0x2A0 DUP5 ADD MSTORE PUSH2 0x2C0 DUP4 ADD MSTORE TIMESTAMP PUSH2 0x2E0 DUP4 ADD MSTORE PUSH0 MSTORE PUSH0 DUP3 MSTORE PUSH1 0x40 PUSH0 KECCAK256 SWAP2 DUP2 MLOAD DUP4 SSTORE PUSH1 0x1 DUP4 ADD PUSH1 0x1 DUP1 PUSH1 0xA0 SHL SUB DUP3 DUP5 ADD MLOAD AND PUSH12 0xFFFFFFFFFFFFFFFFFFFFFFFF PUSH1 0xA0 SHL DUP3 SLOAD AND OR SWAP1 SSTORE PUSH1 0x40 DUP3 ADD MLOAD PUSH1 0x2 DUP5 ADD SSTORE PUSH1 0x60 DUP3 ADD MLOAD PUSH1 0x3 DUP5 ADD SSTORE PUSH1 0x80 DUP3 ADD MLOAD PUSH1 0x4 DUP5 ADD SSTORE PUSH1 0xA0 DUP3 ADD MLOAD PUSH1 0x5 DUP5 ADD SSTORE PUSH1 0xC0 DUP3 ADD MLOAD PUSH1 0x6 DUP5 ADD SSTORE PUSH1 0xE0 DUP3 ADD MLOAD PUSH1 0x7 DUP5 ADD SSTORE PUSH2 0x100 DUP3 ADD MLOAD PUSH1 0x8 DUP5 ADD SSTORE PUSH2 0x120 DUP3 ADD MLOAD PUSH1 0x9 DUP5 ADD SSTORE PUSH2 0x140 DUP3 ADD MLOAD DUP1 MLOAD SWAP1 PUSH1 0x1 PUSH1 0x1 PUSH1 0x40 SHL SUB DUP3 GT PUSH2 0x47E JUMPI PUSH1 0x1 PUSH1 0x40 SHL DUP3 GT PUSH2 0x47E JUMPI DUP3 SWAP1 PUSH1 0xA DUP7 ADD SLOAD DUP4 PUSH1 0xA DUP9 ADD SSTORE DUP1 DUP5 LT PUSH2 0x1112 JUMPI JUMPDEST POP ADD PUSH1 0xA DUP6 ADD PUSH0 MSTORE DUP3 PUSH0 KECCAK256 PUSH0 JUMPDEST DUP4 DUP2 LT PUSH2 0x1100 JUMPI POP POP POP POP PUSH1 0xB DUP4 ADD PUSH2 0x160 DUP4 ADD MLOAD SWAP1 DUP2 MLOAD SWAP2 PUSH1 0x1 PUSH1 0x1 PUSH1 0x40 SHL SUB DUP4 GT PUSH2 0x47E JUMPI PUSH1 0x1 PUSH1 0x40 SHL DUP4 GT PUSH2 0x47E JUMPI DUP4 SWAP1 DUP3 SLOAD DUP5 DUP5 SSTORE DUP1 DUP6 LT PUSH2 0x10D8 JUMPI JUMPDEST POP ADD SWAP1 PUSH0 MSTORE DUP3 PUSH0 KECCAK256 PUSH0 JUMPDEST DUP4 DUP2 LT PUSH2 0x10C6 JUMPI POP POP POP POP PUSH1 0xC DUP4 ADD PUSH2 0x180 DUP4 ADD MLOAD SWAP1 DUP2 MLOAD SWAP2 PUSH1 0x1 PUSH1 0x1 PUSH1 0x40 SHL SUB DUP4 GT PUSH2 0x47E JUMPI PUSH1 0x1 PUSH1 0x40 SHL DUP4 GT PUSH2 0x47E JUMPI DUP4 SWAP1 DUP3 SLOAD DUP5 DUP5 SSTORE DUP1 DUP6 LT PUSH2 0x109E JUMPI JUMPDEST POP ADD SWAP1 PUSH0 MSTORE DUP3 PUSH0 KECCAK256 PUSH0 JUMPDEST DUP4 DUP2 LT PUSH2 0x108C JUMPI POP POP POP POP PUSH2 0x1A0 DUP3 ADD MLOAD PUSH1 0xD DUP5 ADD SSTORE PUSH1 0xE DUP4 ADD PUSH2 0x1C0 DUP4 ADD MLOAD SWAP1 DUP2 MLOAD SWAP2 PUSH1 0x1 PUSH1 0x1 PUSH1 0x40 SHL SUB DUP4 GT PUSH2 0x47E JUMPI PUSH1 0x1 PUSH1 0x40 SHL DUP4 GT PUSH2 0x47E JUMPI DUP4 SWAP1 DUP3 SLOAD DUP5 DUP5 SSTORE DUP1 DUP6 LT PUSH2 0x1064 JUMPI JUMPDEST POP ADD SWAP1 PUSH0 MSTORE DUP3 PUSH0 KECCAK256 PUSH0 JUMPDEST DUP4 DUP2 LT PUSH2 0x1052 JUMPI POP POP POP POP PUSH1 0xF DUP4 ADD PUSH2 0x1E0 DUP4 ADD MLOAD SWAP1 DUP2 MLOAD SWAP2 PUSH1 0x1 PUSH1 0x1 PUSH1 0x40 SHL SUB DUP4 GT PUSH2 0x47E JUMPI PUSH1 0x1 PUSH1 0x40 SHL DUP4 GT PUSH2 0x47E JUMPI DUP4 SWAP1 DUP3 SLOAD DUP5 DUP5 SSTORE DUP1 DUP6 LT PUSH2 0x102A JUMPI JUMPDEST POP ADD SWAP1 PUSH0 MSTORE DUP3 PUSH0 KECCAK256 PUSH0 JUMPDEST DUP4 DUP2 LT PUSH2 0x1018 JUMPI POP POP POP POP PUSH2 0x200 DUP3 ADD MLOAD PUSH1 0x10 DUP5 ADD SSTORE PUSH2 0x220 DUP3 ADD MLOAD PUSH1 0x11 DUP5 ADD SSTORE PUSH1 0x12 DUP4 ADD PUSH2 0x240 DUP4 ADD MLOAD SWAP1 DUP2 MLOAD SWAP2 PUSH1 0x1 PUSH1 0x1 PUSH1 0x40 SHL SUB DUP4 GT PUSH2 0x47E JUMPI PUSH1 0x1 PUSH1 0x40 SHL DUP4 GT PUSH2 0x47E JUMPI DUP4 SWAP1 DUP3 SLOAD DUP5 DUP5 SSTORE DUP1 DUP6 LT PUSH2 0xFF0 JUMPI JUMPDEST POP ADD SWAP1 PUSH0 MSTORE DUP3 PUSH0 KECCAK256 PUSH0 JUMPDEST DUP4 DUP2 LT PUSH2 0xFDE JUMPI POP POP POP POP PUSH2 0x260 DUP3 ADD MLOAD PUSH1 0x13 DUP5 ADD SSTORE PUSH2 0x280 DUP3 ADD MLOAD PUSH1 0x14 DUP5 ADD SSTORE PUSH2 0x2A0 DUP3 ADD MLOAD PUSH1 0x15 DUP5 ADD SSTORE PUSH1 0x16 DUP4 ADD PUSH2 0x2C0 DUP4 ADD MLOAD SWAP2 DUP3 MLOAD SWAP3 PUSH1 0x1 PUSH1 0x1 PUSH1 0x40 SHL SUB DUP5 GT PUSH2 0x47E JUMPI PUSH1 0x1 PUSH1 0x40 SHL DUP5 GT PUSH2 0x47E JUMPI DUP2 SWAP1 DUP4 SLOAD DUP6 DUP6 SSTORE DUP1 DUP7 LT PUSH2 0xFB6 JUMPI JUMPDEST POP ADD SWAP2 PUSH0 MSTORE DUP1 PUSH0 KECCAK256 SWAP1 PUSH0 JUMPDEST DUP5 DUP2 LT PUSH2 0xF9B JUMPI PUSH2 0x2E0 DUP7 ADD MLOAD PUSH1 0x17 DUP9 ADD SSTORE PUSH1 0x1 SLOAD PUSH0 NOT DUP2 EQ PUSH2 0x714 JUMPI PUSH1 0x1 ADD PUSH1 0x1 SSTORE PUSH0 DUP1 RETURN JUMPDEST DUP4 MLOAD PUSH1 0x1 PUSH1 0x1 PUSH1 0xA0 SHL SUB AND DUP4 DUP3 ADD SSTORE SWAP3 DUP2 ADD SWAP3 PUSH1 0x1 ADD PUSH2 0xF74 JUMP JUMPDEST DUP5 PUSH0 MSTORE DUP6 DUP4 PUSH0 KECCAK256 SWAP2 DUP3 ADD SWAP2 ADD JUMPDEST DUP2 DUP2 LT PUSH2 0xFD0 JUMPI POP PUSH2 0xF69 JUMP JUMPDEST PUSH0 DUP2 SSTORE DUP5 SWAP4 POP PUSH1 0x1 ADD PUSH2 0xFC3 JUMP JUMPDEST DUP3 MLOAD DUP3 DUP3 ADD SSTORE SWAP2 DUP5 ADD SWAP2 PUSH1 0x1 ADD PUSH2 0xF07 JUMP JUMPDEST DUP4 PUSH0 MSTORE DUP5 DUP4 PUSH0 KECCAK256 SWAP2 DUP3 ADD SWAP2 ADD JUMPDEST DUP2 DUP2 LT PUSH2 0x100A JUMPI POP PUSH2 0xEFD JUMP JUMPDEST PUSH0 DUP2 SSTORE DUP7 SWAP4 POP PUSH1 0x1 ADD PUSH2 0xFFD JUMP JUMPDEST DUP3 MLOAD DUP3 DUP3 ADD SSTORE SWAP2 DUP5 ADD SWAP2 PUSH1 0x1 ADD PUSH2 0xEA6 JUMP JUMPDEST DUP4 PUSH0 MSTORE DUP5 DUP4 PUSH0 KECCAK256 SWAP2 DUP3 ADD SWAP2 ADD JUMPDEST DUP2 DUP2 LT PUSH2 0x1044 JUMPI POP PUSH2 0xE9C JUMP JUMPDEST PUSH0 DUP2 SSTORE DUP7 SWAP4 POP PUSH1 0x1 ADD PUSH2 0x1037 JUMP JUMPDEST DUP3 MLOAD DUP3 DUP3 ADD SSTORE SWAP2 DUP5 ADD SWAP2 PUSH1 0x1 ADD PUSH2 0xE5B JUMP JUMPDEST DUP4 PUSH0 MSTORE DUP5 DUP4 PUSH0 KECCAK256 SWAP2 DUP3 ADD SWAP2 ADD JUMPDEST DUP2 DUP2 LT PUSH2 0x107E JUMPI POP PUSH2 0xE51 JUMP JUMPDEST PUSH0 DUP2 SSTORE DUP7 SWAP4 POP PUSH1 0x1 ADD PUSH2 0x1071 JUMP JUMPDEST DUP3 MLOAD DUP3 DUP3 ADD SSTORE SWAP2 DUP5 ADD SWAP2 PUSH1 0x1 ADD PUSH2 0xE05 JUMP JUMPDEST DUP4 PUSH0 MSTORE DUP5 DUP4 PUSH0 KECCAK256 SWAP2 DUP3 ADD SWAP2 ADD JUMPDEST DUP2 DUP2 LT PUSH2 0x10B8 JUMPI POP PUSH2 0xDFB JUMP JUMPDEST PUSH0 DUP2 SSTORE DUP7 SWAP4 POP PUSH1 0x1 ADD PUSH2 0x10AB JUMP JUMPDEST DUP3 MLOAD DUP3 DUP3 ADD SSTORE SWAP2 DUP5 ADD SWAP2 PUSH1 0x1 ADD PUSH2 0xDBA JUMP JUMPDEST DUP4 PUSH0 MSTORE DUP5 DUP4 PUSH0 KECCAK256 SWAP2 DUP3 ADD SWAP2 ADD JUMPDEST DUP2 DUP2 LT PUSH2 0x10F2 JUMPI POP PUSH2 0xDB0 JUMP JUMPDEST PUSH0 DUP2 SSTORE DUP7 SWAP4 POP PUSH1 0x1 ADD PUSH2 0x10E5 JUMP JUMPDEST DUP3 MLOAD DUP3 DUP3 ADD SSTORE SWAP2 DUP5 ADD SWAP2 PUSH1 0x1 ADD PUSH2 0xD6F JUMP JUMPDEST PUSH1 0xA DUP8 ADD PUSH0 MSTORE DUP3 PUSH0 KECCAK256 SWAP1 DUP5 DUP3 ADD JUMPDEST DUP2 DUP4 ADD DUP2 LT PUSH2 0x1130 JUMPI POP POP PUSH2 0xD62 JUMP JUMPDEST PUSH0 DUP2 SSTORE DUP7 SWAP5 POP PUSH1 0x1 ADD PUSH2 0x1120 JUMP JUMPDEST CALLVALUE PUSH2 0x124 JUMPI PUSH2 0x114C CALLDATASIZE PUSH2 0x15EA JUMP JUMPDEST SWAP1 PUSH2 0x115A PUSH1 0x1 SLOAD DUP3 LT PUSH2 0x1678 JUMP JUMPDEST PUSH0 SWAP1 DUP2 MSTORE PUSH1 0x20 DUP2 SWAP1 MSTORE PUSH1 0x40 DUP2 KECCAK256 PUSH1 0x16 ADD DUP1 SLOAD SWAP3 SWAP2 PUSH1 0x1 PUSH1 0x1 PUSH1 0xA0 SHL SUB DUP4 AND SWAP1 JUMPDEST DUP5 DUP2 LT PUSH2 0x11A2 JUMPI POP POP PUSH1 0x1 PUSH1 0x40 SHL DUP4 LT ISZERO PUSH2 0x47E JUMPI DUP3 PUSH2 0x6AB SWAP2 PUSH1 0x1 PUSH2 0x728 SWAP6 ADD DUP2 SSTORE PUSH2 0x1710 JUMP JUMPDEST DUP2 PUSH2 0x11AD DUP3 DUP6 PUSH2 0x1710 JUMP JUMPDEST SWAP1 SLOAD PUSH1 0x3 SWAP2 SWAP1 SWAP2 SHL SHR PUSH1 0x1 PUSH1 0x1 PUSH1 0xA0 SHL SUB AND EQ PUSH2 0x11CC JUMPI PUSH1 0x1 ADD PUSH2 0x117A JUMP JUMPDEST PUSH1 0x40 MLOAD PUSH3 0x461BCD PUSH1 0xE5 SHL DUP2 MSTORE PUSH1 0x20 PUSH1 0x4 DUP3 ADD MSTORE PUSH1 0x1C PUSH1 0x24 DUP3 ADD MSTORE PUSH32 0x50726F766964657220616C726561647920686173206163636573732E00000000 PUSH1 0x44 DUP3 ADD MSTORE PUSH1 0x64 SWAP1 REVERT JUMPDEST CALLVALUE PUSH2 0x124 JUMPI PUSH1 0x20 PUSH2 0x11A PUSH2 0x1224 CALLDATASIZE PUSH2 0x1505 JUMP JUMPDEST SWAP1 PUSH2 0x18B4 JUMP JUMPDEST CALLVALUE PUSH2 0x124 JUMPI PUSH1 0x20 PUSH2 0x11A PUSH2 0x123D CALLDATASIZE PUSH2 0x1505 JUMP JUMPDEST SWAP1 PUSH2 0x1820 JUMP JUMPDEST CALLVALUE PUSH2 0x124 JUMPI PUSH1 0x20 PUSH2 0x1253 CALLDATASIZE PUSH2 0x1505 JUMP JUMPDEST SWAP1 PUSH2 0x1261 PUSH1 0x1 SLOAD DUP3 LT PUSH2 0x1678 JUMP JUMPDEST PUSH0 MSTORE PUSH0 DUP3 MSTORE PUSH1 0x7 PUSH1 0x40 PUSH0 KECCAK256 SWAP2 ORIGIN CALLER EQ DUP1 ISZERO PUSH2 0x8B8 JUMPI PUSH2 0x892 SWAP1 PUSH2 0x16C4 JUMP JUMPDEST CALLVALUE PUSH2 0x124 JUMPI PUSH2 0x128D CALLDATASIZE PUSH2 0x153C JUMP JUMPDEST PUSH2 0x129A PUSH1 0x1 SLOAD DUP4 LT PUSH2 0x1678 JUMP JUMPDEST PUSH1 0x40 MLOAD PUSH2 0x12C6 PUSH1 0x20 DUP3 DUP2 DUP1 DUP3 ADD SWAP6 DUP1 MLOAD SWAP2 DUP3 SWAP2 ADD DUP8 MCOPY DUP2 ADD PUSH0 DUP4 DUP3 ADD MSTORE SUB ADD PUSH1 0x1F NOT DUP2 ADD DUP4 MSTORE DUP3 PUSH2 0x151B JUMP JUMPDEST MLOAD SWAP1 KECCAK256 DUP2 PUSH0 MSTORE PUSH1 0x2 PUSH1 0x20 MSTORE PUSH1 0x40 PUSH0 KECCAK256 SLOAD SUB PUSH2 0x14B8 JUMPI PUSH0 MSTORE PUSH0 PUSH1 0x20 MSTORE PUSH1 0x40 PUSH0 KECCAK256 PUSH1 0x2 DUP2 ADD SLOAD SWAP1 PUSH1 0x3 DUP2 ADD SLOAD PUSH2 0x160 MSTORE PUSH1 0x4 DUP2 ADD SLOAD PUSH2 0x180 MSTORE PUSH1 0x5 DUP2 ADD SLOAD SWAP1 PUSH1 0x6 DUP2 ADD SLOAD SWAP3 PUSH1 0x7 DUP3 ADD SLOAD PUSH1 0x8 DUP4 ADD SLOAD SWAP4 PUSH1 0x9 DUP5 ADD SLOAD SWAP6 PUSH1 0xD DUP6 ADD SLOAD SWAP3 PUSH1 0x10 DUP7 ADD SLOAD SWAP8 PUSH1 0x11 DUP8 ADD SLOAD SWAP8 PUSH1 0x13 DUP9 ADD SLOAD PUSH2 0x140 MSTORE PUSH1 0x14 DUP9 ADD SLOAD PUSH2 0x100 MSTORE PUSH1 0xA DUP9 ADD PUSH2 0x134B SWAP1 PUSH2 0x17D6 JUMP JUMPDEST SWAP3 PUSH2 0x1358 PUSH1 0xB DUP11 ADD PUSH2 0x17D6 JUMP JUMPDEST SWAP5 PUSH2 0x1365 PUSH1 0xC DUP12 ADD PUSH2 0x17D6 JUMP JUMPDEST SWAP7 PUSH2 0x1372 PUSH1 0xE DUP13 ADD PUSH2 0x17D6 JUMP JUMPDEST SWAP10 PUSH2 0x137F PUSH1 0xF DUP14 ADD PUSH2 0x17D6 JUMP JUMPDEST SWAP12 PUSH1 0x12 ADD PUSH2 0x138C SWAP1 PUSH2 0x17D6 JUMP JUMPDEST PUSH1 0xE0 MSTORE PUSH1 0x40 MLOAD PUSH2 0x120 MSTORE PUSH2 0x120 MLOAD MSTORE PUSH2 0x160 MLOAD PUSH2 0x120 MLOAD PUSH1 0x20 ADD MSTORE PUSH2 0x180 MLOAD PUSH2 0x120 MLOAD PUSH1 0x40 ADD MSTORE PUSH2 0x120 MLOAD PUSH1 0x60 ADD MSTORE PUSH2 0x120 MLOAD PUSH1 0x80 ADD MSTORE PUSH2 0x120 MLOAD PUSH1 0xA0 ADD MSTORE PUSH2 0x120 MLOAD PUSH1 0xC0 ADD MSTORE PUSH2 0x120 MLOAD PUSH1 0xE0 ADD MSTORE PUSH2 0x120 MLOAD PUSH2 0x100 ADD PUSH2 0x260 SWAP1 MSTORE PUSH2 0x120 MLOAD PUSH2 0x260 ADD PUSH2 0x13F9 SWAP2 PUSH2 0x15B7 JUMP JUMPDEST PUSH2 0x120 MLOAD DUP2 SUB PUSH2 0x120 MLOAD PUSH2 0x120 ADD MSTORE PUSH2 0x1411 SWAP2 PUSH2 0x15B7 JUMP JUMPDEST PUSH2 0x120 MLOAD DUP2 SUB PUSH2 0x120 MLOAD PUSH2 0x140 ADD MSTORE PUSH2 0x1429 SWAP2 PUSH2 0x15B7 JUMP JUMPDEST SWAP1 PUSH2 0x120 MLOAD PUSH2 0x160 ADD MSTORE PUSH2 0x120 MLOAD DUP2 SUB PUSH2 0x120 MLOAD PUSH2 0x180 ADD MSTORE PUSH2 0x144B SWAP2 PUSH2 0x15B7 JUMP JUMPDEST PUSH2 0x120 MLOAD DUP2 SUB PUSH2 0x120 MLOAD PUSH2 0x1A0 ADD MSTORE PUSH2 0x1463 SWAP2 PUSH2 0x15B7 JUMP JUMPDEST SWAP2 PUSH2 0x120 MLOAD PUSH2 0x1C0 ADD MSTORE PUSH2 0x120 MLOAD PUSH2 0x1E0 ADD MSTORE PUSH2 0x120 MLOAD DUP2 SUB PUSH2 0x120 MLOAD PUSH2 0x200 ADD MSTORE PUSH1 0xE0 MLOAD SWAP1 PUSH2 0x1492 SWAP2 PUSH2 0x15B7 JUMP JUMPDEST PUSH2 0x140 MLOAD PUSH2 0x120 MLOAD PUSH2 0x220 ADD MSTORE PUSH2 0x100 MLOAD PUSH2 0x120 MLOAD PUSH2 0x240 ADD MSTORE PUSH2 0x120 MLOAD SWAP1 SUB PUSH2 0x120 MLOAD RETURN JUMPDEST PUSH1 0x40 MLOAD PUSH3 0x461BCD PUSH1 0xE5 SHL DUP2 MSTORE PUSH1 0x20 PUSH1 0x4 DUP3 ADD MSTORE PUSH1 0xC PUSH1 0x24 DUP3 ADD MSTORE PUSH12 0x24B73B30B634B2102824A717 PUSH1 0xA1 SHL PUSH1 0x44 DUP3 ADD MSTORE PUSH1 0x64 SWAP1 REVERT JUMPDEST CALLVALUE PUSH2 0x124 JUMPI PUSH1 0x20 PUSH2 0x11A PUSH2 0x14FF CALLDATASIZE PUSH2 0x1505 JUMP JUMPDEST SWAP1 PUSH2 0x1739 JUMP JUMPDEST PUSH1 0x40 SWAP1 PUSH1 0x3 NOT ADD SLT PUSH2 0x124 JUMPI PUSH1 0x4 CALLDATALOAD SWAP1 PUSH1 0x24 CALLDATALOAD SWAP1 JUMP JUMPDEST SWAP1 PUSH1 0x1F DUP1 NOT SWAP2 ADD AND DUP2 ADD SWAP1 DUP2 LT PUSH1 0x1 PUSH1 0x1 PUSH1 0x40 SHL SUB DUP3 GT OR PUSH2 0x47E JUMPI PUSH1 0x40 MSTORE JUMP JUMPDEST SWAP1 PUSH1 0x40 PUSH1 0x3 NOT DUP4 ADD SLT PUSH2 0x124 JUMPI PUSH1 0x4 CALLDATALOAD SWAP2 PUSH1 0x24 CALLDATALOAD PUSH1 0x1 PUSH1 0x1 PUSH1 0x40 SHL SUB DUP2 GT PUSH2 0x124 JUMPI DUP2 PUSH1 0x23 DUP3 ADD SLT ISZERO PUSH2 0x124 JUMPI DUP1 PUSH1 0x4 ADD CALLDATALOAD SWAP1 PUSH1 0x1 PUSH1 0x1 PUSH1 0x40 SHL SUB DUP3 GT PUSH2 0x47E JUMPI PUSH1 0x40 MLOAD SWAP3 PUSH2 0x1595 PUSH1 0x1F DUP5 ADD PUSH1 0x1F NOT AND PUSH1 0x20 ADD DUP6 PUSH2 0x151B JUMP JUMPDEST DUP3 DUP5 MSTORE PUSH1 0x24 DUP4 DUP4 ADD ADD GT PUSH2 0x124 JUMPI DUP2 PUSH0 SWAP3 PUSH1 0x24 PUSH1 0x20 SWAP4 ADD DUP4 DUP7 ADD CALLDATACOPY DUP4 ADD ADD MSTORE SWAP1 JUMP JUMPDEST SWAP1 PUSH1 0x20 DUP1 DUP4 MLOAD SWAP3 DUP4 DUP2 MSTORE ADD SWAP3 ADD SWAP1 PUSH0 JUMPDEST DUP2 DUP2 LT PUSH2 0x15D4 JUMPI POP POP POP SWAP1 JUMP JUMPDEST DUP3 MLOAD DUP5 MSTORE PUSH1 0x20 SWAP4 DUP5 ADD SWAP4 SWAP1 SWAP3 ADD SWAP2 PUSH1 0x1 ADD PUSH2 0x15C7 JUMP JUMPDEST PUSH1 0x40 SWAP1 PUSH1 0x3 NOT ADD SLT PUSH2 0x124 JUMPI PUSH1 0x4 CALLDATALOAD SWAP1 PUSH1 0x24 CALLDATALOAD PUSH1 0x1 PUSH1 0x1 PUSH1 0xA0 SHL SUB DUP2 AND DUP2 SUB PUSH2 0x124 JUMPI SWAP1 JUMP JUMPDEST SWAP1 DUP1 PUSH1 0x1F DUP4 ADD SLT ISZERO PUSH2 0x124 JUMPI DUP2 CALLDATALOAD SWAP2 PUSH1 0x1 PUSH1 0x1 PUSH1 0x40 SHL SUB DUP4 GT PUSH2 0x47E JUMPI DUP3 PUSH1 0x5 SHL SWAP1 PUSH1 0x20 DUP3 ADD SWAP4 PUSH2 0x1644 PUSH1 0x40 MLOAD SWAP6 DUP7 PUSH2 0x151B JUMP JUMPDEST DUP5 MSTORE PUSH1 0x20 DUP1 DUP6 ADD SWAP3 DUP3 ADD ADD SWAP3 DUP4 GT PUSH2 0x124 JUMPI PUSH1 0x20 ADD SWAP1 JUMPDEST DUP3 DUP3 LT PUSH2 0x1668 JUMPI POP POP POP SWAP1 JUMP JUMPDEST DUP2 CALLDATALOAD DUP2 MSTORE PUSH1 0x20 SWAP2 DUP3 ADD SWAP2 ADD PUSH2 0x165B JUMP JUMPDEST ISZERO PUSH2 0x167F JUMPI JUMP JUMPDEST PUSH1 0x40 MLOAD PUSH3 0x461BCD PUSH1 0xE5 SHL DUP2 MSTORE PUSH1 0x20 PUSH1 0x4 DUP3 ADD MSTORE PUSH1 0x1E PUSH1 0x24 DUP3 ADD MSTORE PUSH32 0x50617469656E74207265636F726420646F6573206E6F742065786973742E0000 PUSH1 0x44 DUP3 ADD MSTORE PUSH1 0x64 SWAP1 REVERT JUMPDEST ISZERO PUSH2 0x16CB JUMPI JUMP JUMPDEST PUSH1 0x40 MLOAD PUSH3 0x461BCD PUSH1 0xE5 SHL DUP2 MSTORE PUSH1 0x20 PUSH1 0x4 DUP3 ADD MSTORE PUSH1 0x19 PUSH1 0x24 DUP3 ADD MSTORE PUSH32 0x4E6F7420617574686F72697A656420746F207665726966792E00000000000000 PUSH1 0x44 DUP3 ADD MSTORE PUSH1 0x64 SWAP1 REVERT JUMPDEST DUP1 SLOAD DUP3 LT ISZERO PUSH2 0x1725 JUMPI PUSH0 MSTORE PUSH1 0x20 PUSH0 KECCAK256 ADD SWAP1 PUSH0 SWAP1 JUMP JUMPDEST PUSH4 0x4E487B71 PUSH1 0xE0 SHL PUSH0 MSTORE PUSH1 0x32 PUSH1 0x4 MSTORE PUSH1 0x24 PUSH0 REVERT JUMPDEST PUSH2 0x1746 PUSH1 0x1 SLOAD DUP3 LT PUSH2 0x1678 JUMP JUMPDEST PUSH0 MSTORE PUSH0 PUSH1 0x20 MSTORE PUSH1 0x40 PUSH0 KECCAK256 SWAP1 ORIGIN CALLER EQ DUP1 ISZERO PUSH2 0x17C1 JUMPI JUMPDEST PUSH2 0x1764 SWAP1 PUSH2 0x16C4 JUMP JUMPDEST PUSH1 0xF PUSH0 SWAP3 ADD SWAP1 DUP2 SLOAD SWAP3 JUMPDEST DUP4 DUP2 LT PUSH2 0x177D JUMPI POP POP POP POP PUSH0 SWAP1 JUMP JUMPDEST PUSH1 0x40 MLOAD PUSH1 0x20 DUP2 ADD SWAP1 DUP4 DUP3 MSTORE PUSH1 0x20 DUP2 MSTORE PUSH2 0x1797 PUSH1 0x40 DUP3 PUSH2 0x151B JUMP JUMPDEST MLOAD SWAP1 KECCAK256 PUSH2 0x17A4 DUP3 DUP6 PUSH2 0x1710 JUMP JUMPDEST SWAP1 SLOAD SWAP1 PUSH1 0x3 SHL SHR EQ PUSH2 0x17B8 JUMPI PUSH1 0x1 ADD PUSH2 0x176E JUMP JUMPDEST POP POP POP POP PUSH1 0x1 SWAP1 JUMP JUMPDEST POP PUSH2 0x1764 PUSH2 0x17CF CALLER DUP5 PUSH2 0x1B04 JUMP JUMPDEST SWAP1 POP PUSH2 0x175B JUMP JUMPDEST SWAP1 PUSH1 0x40 MLOAD SWAP2 DUP3 DUP2 SLOAD SWAP2 DUP3 DUP3 MSTORE PUSH1 0x20 DUP3 ADD SWAP1 PUSH0 MSTORE PUSH1 0x20 PUSH0 KECCAK256 SWAP3 PUSH0 JUMPDEST DUP2 DUP2 LT PUSH2 0x1807 JUMPI POP POP PUSH2 0x1805 SWAP3 POP SUB DUP4 PUSH2 0x151B JUMP JUMPDEST JUMP JUMPDEST DUP5 SLOAD DUP4 MSTORE PUSH1 0x1 SWAP5 DUP6 ADD SWAP5 DUP8 SWAP5 POP PUSH1 0x20 SWAP1 SWAP4 ADD SWAP3 ADD PUSH2 0x17F0 JUMP JUMPDEST PUSH2 0x182D PUSH1 0x1 SLOAD DUP3 LT PUSH2 0x1678 JUMP JUMPDEST PUSH0 MSTORE PUSH0 PUSH1 0x20 MSTORE PUSH1 0x40 PUSH0 KECCAK256 SWAP1 ORIGIN CALLER EQ DUP1 ISZERO PUSH2 0x189F JUMPI JUMPDEST PUSH2 0x184B SWAP1 PUSH2 0x16C4 JUMP JUMPDEST PUSH1 0xE PUSH0 SWAP3 ADD SWAP1 DUP2 SLOAD SWAP3 JUMPDEST DUP4 DUP2 LT PUSH2 0x1864 JUMPI POP POP POP POP PUSH0 SWAP1 JUMP JUMPDEST PUSH1 0x40 MLOAD PUSH1 0x20 DUP2 ADD SWAP1 DUP4 DUP3 MSTORE PUSH1 0x20 DUP2 MSTORE PUSH2 0x187E PUSH1 0x40 DUP3 PUSH2 0x151B JUMP JUMPDEST MLOAD SWAP1 KECCAK256 PUSH2 0x188B DUP3 DUP6 PUSH2 0x1710 JUMP JUMPDEST SWAP1 SLOAD SWAP1 PUSH1 0x3 SHL SHR EQ PUSH2 0x17B8 JUMPI PUSH1 0x1 ADD PUSH2 0x1855 JUMP JUMPDEST POP PUSH2 0x184B PUSH2 0x18AD CALLER DUP5 PUSH2 0x1B04 JUMP JUMPDEST SWAP1 POP PUSH2 0x1842 JUMP JUMPDEST PUSH2 0x18C1 PUSH1 0x1 SLOAD DUP3 LT PUSH2 0x1678 JUMP JUMPDEST PUSH0 MSTORE PUSH0 PUSH1 0x20 MSTORE PUSH1 0x40 PUSH0 KECCAK256 SWAP1 ORIGIN CALLER EQ DUP1 ISZERO PUSH2 0x1933 JUMPI JUMPDEST PUSH2 0x18DF SWAP1 PUSH2 0x16C4 JUMP JUMPDEST PUSH1 0xC PUSH0 SWAP3 ADD SWAP1 DUP2 SLOAD SWAP3 JUMPDEST DUP4 DUP2 LT PUSH2 0x18F8 JUMPI POP POP POP POP PUSH0 SWAP1 JUMP JUMPDEST PUSH1 0x40 MLOAD PUSH1 0x20 DUP2 ADD SWAP1 DUP4 DUP3 MSTORE PUSH1 0x20 DUP2 MSTORE PUSH2 0x1912 PUSH1 0x40 DUP3 PUSH2 0x151B JUMP JUMPDEST MLOAD SWAP1 KECCAK256 PUSH2 0x191F DUP3 DUP6 PUSH2 0x1710 JUMP JUMPDEST SWAP1 SLOAD SWAP1 PUSH1 0x3 SHL SHR EQ PUSH2 0x17B8 JUMPI PUSH1 0x1 ADD PUSH2 0x18E9 JUMP JUMPDEST POP PUSH2 0x18DF PUSH2 0x1941 CALLER DUP5 PUSH2 0x1B04 JUMP JUMPDEST SWAP1 POP PUSH2 0x18D6 JUMP JUMPDEST PUSH2 0x1955 PUSH1 0x1 SLOAD DUP3 LT PUSH2 0x1678 JUMP JUMPDEST PUSH0 MSTORE PUSH0 PUSH1 0x20 MSTORE PUSH1 0x40 PUSH0 KECCAK256 SWAP1 ORIGIN CALLER EQ DUP1 ISZERO PUSH2 0x19C7 JUMPI JUMPDEST PUSH2 0x1973 SWAP1 PUSH2 0x16C4 JUMP JUMPDEST PUSH1 0xA PUSH0 SWAP3 ADD SWAP1 DUP2 SLOAD SWAP3 JUMPDEST DUP4 DUP2 LT PUSH2 0x198C JUMPI POP POP POP POP PUSH0 SWAP1 JUMP JUMPDEST PUSH1 0x40 MLOAD PUSH1 0x20 DUP2 ADD SWAP1 DUP4 DUP3 MSTORE PUSH1 0x20 DUP2 MSTORE PUSH2 0x19A6 PUSH1 0x40 DUP3 PUSH2 0x151B JUMP JUMPDEST MLOAD SWAP1 KECCAK256 PUSH2 0x19B3 DUP3 DUP6 PUSH2 0x1710 JUMP JUMPDEST SWAP1 SLOAD SWAP1 PUSH1 0x3 SHL SHR EQ PUSH2 0x17B8 JUMPI PUSH1 0x1 ADD PUSH2 0x197D JUMP JUMPDEST POP PUSH2 0x1973 PUSH2 0x19D5 CALLER DUP5 PUSH2 0x1B04 JUMP JUMPDEST SWAP1 POP PUSH2 0x196A JUMP JUMPDEST PUSH2 0x19E9 PUSH1 0x1 SLOAD DUP3 LT PUSH2 0x1678 JUMP JUMPDEST PUSH0 MSTORE PUSH0 PUSH1 0x20 MSTORE PUSH1 0x40 PUSH0 KECCAK256 SWAP1 ORIGIN CALLER EQ DUP1 ISZERO PUSH2 0x1A5B JUMPI JUMPDEST PUSH2 0x1A07 SWAP1 PUSH2 0x16C4 JUMP JUMPDEST PUSH1 0xB PUSH0 SWAP3 ADD SWAP1 DUP2 SLOAD SWAP3 JUMPDEST DUP4 DUP2 LT PUSH2 0x1A20 JUMPI POP POP POP POP PUSH0 SWAP1 JUMP JUMPDEST PUSH1 0x40 MLOAD PUSH1 0x20 DUP2 ADD SWAP1 DUP4 DUP3 MSTORE PUSH1 0x20 DUP2 MSTORE PUSH2 0x1A3A PUSH1 0x40 DUP3 PUSH2 0x151B JUMP JUMPDEST MLOAD SWAP1 KECCAK256 PUSH2 0x1A47 DUP3 DUP6 PUSH2 0x1710 JUMP JUMPDEST SWAP1 SLOAD SWAP1 PUSH1 0x3 SHL SHR EQ PUSH2 0x17B8 JUMPI PUSH1 0x1 ADD PUSH2 0x1A11 JUMP JUMPDEST POP PUSH2 0x1A07 PUSH2 0x1A69 CALLER DUP5 PUSH2 0x1B04 JUMP JUMPDEST SWAP1 POP PUSH2 0x19FE JUMP JUMPDEST PUSH2 0x1A7D PUSH1 0x1 SLOAD DUP3 LT PUSH2 0x1678 JUMP JUMPDEST PUSH0 MSTORE PUSH0 PUSH1 0x20 MSTORE PUSH1 0x40 PUSH0 KECCAK256 SWAP1 ORIGIN CALLER EQ DUP1 ISZERO PUSH2 0x1AEF JUMPI JUMPDEST PUSH2 0x1A9B SWAP1 PUSH2 0x16C4 JUMP JUMPDEST PUSH1 0x12 PUSH0 SWAP3 ADD SWAP1 DUP2 SLOAD SWAP3 JUMPDEST DUP4 DUP2 LT PUSH2 0x1AB4 JUMPI POP POP POP POP PUSH0 SWAP1 JUMP JUMPDEST PUSH1 0x40 MLOAD PUSH1 0x20 DUP2 ADD SWAP1 DUP4 DUP3 MSTORE PUSH1 0x20 DUP2 MSTORE PUSH2 0x1ACE PUSH1 0x40 DUP3 PUSH2 0x151B JUMP JUMPDEST MLOAD SWAP1 KECCAK256 PUSH2 0x1ADB DUP3 DUP6 PUSH2 0x1710 JUMP JUMPDEST SWAP1 SLOAD SWAP1 PUSH1 0x3 SHL SHR EQ PUSH2 0x17B8 JUMPI PUSH1 0x1 ADD PUSH2 0x1AA5 JUMP JUMPDEST POP PUSH2 0x1A9B PUSH2 0x1AFD CALLER DUP5 PUSH2 0x1B04 JUMP JUMPDEST SWAP1 POP PUSH2 0x1A92 JUMP JUMPDEST SWAP1 PUSH0 JUMPDEST PUSH1 0x16 DUP4 ADD DUP1 SLOAD DUP3 LT ISZERO PUSH2 0x1B4A JUMPI DUP2 PUSH2 0x1B1E SWAP2 PUSH2 0x1710 JUMP JUMPDEST SWAP1 SLOAD PUSH1 0x3 SWAP2 SWAP1 SWAP2 SHL SHR PUSH1 0x1 PUSH1 0x1 PUSH1 0xA0 SHL SUB SWAP1 DUP2 AND SWAP1 DUP4 AND EQ PUSH2 0x1B42 JUMPI PUSH1 0x1 ADD PUSH2 0x1B07 JUMP JUMPDEST POP POP POP PUSH1 0x1 SWAP1 JUMP JUMPDEST POP POP POP POP PUSH0 SWAP1 JUMP INVALID LOG2 PUSH5 0x6970667358 0x22 SLT KECCAK256 NUMBER CALLDATACOPY SHL 0xB8 XOR PUSH12 0x2E2916435CDDDBB2441B137E 0xE CALLCODE 0xF9 SWAP13 0xCF 0x28 0xFB DUP16 MULMOD 0xC4 RETURNDATACOPY SWAP13 BALANCE 0xE2 PUSH5 0x736F6C6343 STOP ADDMOD BYTE STOP CALLER "
		},
		"gasEstimates": {
			"creation": {
				"codeDepositCost": "1409600",
				"executionCost": "1481",
				"totalCost": "1411081"
			},
			"external": {
				"addPatientRecord(bytes32,bytes32,bytes32,bytes32,bytes32,bytes32,bytes32,bytes32,bytes32[],bytes32[],bytes32[],bytes32,bytes32[],bytes32[],uint256,bytes32,bytes32[],bytes32,bytes32)": "infinite",
				"emergencyAccess(uint256,string)": "infinite",
				"getNormalRecords(uint256)": "17495",
				"grantAccess(uint256,address)": "53357",
				"nextPatientId()": "2495",
				"patientRecords(uint256)": "36890",
				"revokeAccess(uint256,address)": "infinite",
				"setEmergencyPin(uint256,string)": "infinite",
				"updatePatientRecord(uint256,bytes32,bytes32,bytes32,bytes32,bytes32,bytes32,bytes32,bytes32,bytes32[],bytes32[],bytes32[],bytes32,bytes32[],bytes32[],uint256,bytes32,bytes32[],bytes32,bytes32)": "infinite",
				"verifyAllergy(uint256,bytes32)": "infinite",
				"verifyBloodType(uint256,bytes32)": "infinite",
				"verifyMedicalHistory(uint256,bytes32)": "infinite",
				"verifyMedications(uint256,bytes32)": "infinite",
				"verifydietPlanHash(uint256,bytes32)": "infinite",
				"verifydoctorNotesHash(uint256,bytes32)": "infinite",
				"verifyfitnessLevelHash(uint256,bytes32)": "infinite",
				"verifyinsuranceIDhash(uint256,bytes32)": "infinite",
				"verifynationalID(uint256,bytes32)": "infinite",
				"verifyorganDonorStatus(uint256,bytes32)": "infinite",
				"verifyvaccinationRecordsHash(uint256,bytes32)": "infinite",
				"verifywearableDeviceDataHash(uint256,bytes32)": "infinite"
			},
			"internal": {
				"isAuthorized(struct hsh.PatientRecord storage pointer,address)": "infinite"
			}
		},
		"methodIdentifiers": {
			"addPatientRecord(bytes32,bytes32,bytes32,bytes32,bytes32,bytes32,bytes32,bytes32,bytes32[],bytes32[],bytes32[],bytes32,bytes32[],bytes32[],uint256,bytes32,bytes32[],bytes32,bytes32)": "7d6b63da",
			"emergencyAccess(uint256,string)": "3c2bc6a1",
			"getNormalRecords(uint256)": "b1ddd00e",
			"grantAccess(uint256,address)": "65dd152c",
			"nextPatientId()": "b1131795",
			"patientRecords(uint256)": "d3d188a1",
			"revokeAccess(uint256,address)": "d9a5ec1b",
			"setEmergencyPin(uint256,string)": "b38deff0",
			"updatePatientRecord(uint256,bytes32,bytes32,bytes32,bytes32,bytes32,bytes32,bytes32,bytes32,bytes32[],bytes32[],bytes32[],bytes32,bytes32[],bytes32[],uint256,bytes32,bytes32[],bytes32,bytes32)": "f23b525a",
			"verifyAllergy(uint256,bytes32)": "7f153a38",
			"verifyBloodType(uint256,bytes32)": "403ae760",
			"verifyMedicalHistory(uint256,bytes32)": "99473b68",
			"verifyMedications(uint256,bytes32)": "541ccefe",
			"verifydietPlanHash(uint256,bytes32)": "c556b6a8",
			"verifydoctorNotesHash(uint256,bytes32)": "c73b6156",
			"verifyfitnessLevelHash(uint256,bytes32)": "b072215e",
			"verifyinsuranceIDhash(uint256,bytes32)": "d267124d",
			"verifynationalID(uint256,bytes32)": "bb17c815",
			"verifyorganDonorStatus(uint256,bytes32)": "47003829",
			"verifyvaccinationRecordsHash(uint256,bytes32)": "1f36bc11",
			"verifywearableDeviceDataHash(uint256,bytes32)": "ffe77a9c"
		}
	},
	"abi": [
		{
			"inputs": [
				{
					"internalType": "bytes32",
					"name": "_nationalIDhash",
					"type": "bytes32"
				},
				{
					"internalType": "bytes32",
					"name": "_insuranceIDhash",
					"type": "bytes32"
				},
				{
					"internalType": "bytes32",
					"name": "_nameHash",
					"type": "bytes32"
				},
				{
					"internalType": "bytes32",
					"name": "_dobHash",
					"type": "bytes32"
				},
				{
					"internalType": "bytes32",
					"name": "_genderHash",
					"type": "bytes32"
				},
				{
					"internalType": "bytes32",
					"name": "_bloodTypeHash",
					"type": "bytes32"
				},
				{
					"internalType": "bytes32",
					"name": "_phoneHash",
					"type": "bytes32"
				},
				{
					"internalType": "bytes32",
					"name": "_addressHash",
					"type": "bytes32"
				},
				{
					"internalType": "bytes32[]",
					"name": "_allergiesHash",
					"type": "bytes32[]"
				},
				{
					"internalType": "bytes32[]",
					"name": "_medicalHistoryHash",
					"type": "bytes32[]"
				},
				{
					"internalType": "bytes32[]",
					"name": "_medicationsHash",
					"type": "bytes32[]"
				},
				{
					"internalType": "bytes32",
					"name": "_emergencyContactHash",
					"type": "bytes32"
				},
				{
					"internalType": "bytes32[]",
					"name": "_organDonorStatus",
					"type": "bytes32[]"
				},
				{
					"internalType": "bytes32[]",
					"name": "_vaccinationRecordsHash",
					"type": "bytes32[]"
				},
				{
					"internalType": "uint256",
					"name": "_lastcheckupTimestamp",
					"type": "uint256"
				},
				{
					"internalType": "bytes32",
					"name": "_doctorNotesHash",
					"type": "bytes32"
				},
				{
					"internalType": "bytes32[]",
					"name": "_wearableDeviceDataHash",
					"type": "bytes32[]"
				},
				{
					"internalType": "bytes32",
					"name": "_fitnessLevelHash",
					"type": "bytes32"
				},
				{
					"internalType": "bytes32",
					"name": "_dietPlanHash",
					"type": "bytes32"
				}
			],
			"name": "addPatientRecord",
			"outputs": [],
			"stateMutability": "nonpayable",
			"type": "function"
		},
		{
			"inputs": [
				{
					"internalType": "uint256",
					"name": "_patientId",
					"type": "uint256"
				},
				{
					"internalType": "string",
					"name": "_pin",
					"type": "string"
				}
			],
			"name": "emergencyAccess",
			"outputs": [
				{
					"internalType": "bytes32",
					"name": "nationalIDhash",
					"type": "bytes32"
				},
				{
					"internalType": "bytes32",
					"name": "insuranceIDhash",
					"type": "bytes32"
				},
				{
					"internalType": "bytes32",
					"name": "nameHash",
					"type": "bytes32"
				},
				{
					"internalType": "bytes32",
					"name": "dobHash",
					"type": "bytes32"
				},
				{
					"internalType": "bytes32",
					"name": "genderHash",
					"type": "bytes32"
				},
				{
					"internalType": "bytes32",
					"name": "bloodTypeHash",
					"type": "bytes32"
				},
				{
					"internalType": "bytes32",
					"name": "phoneHash",
					"type": "bytes32"
				},
				{
					"internalType": "bytes32",
					"name": "addressHash",
					"type": "bytes32"
				},
				{
					"internalType": "bytes32[]",
					"name": "allergiesHash",
					"type": "bytes32[]"
				},
				{
					"internalType": "bytes32[]",
					"name": "medicalHistoryHash",
					"type": "bytes32[]"
				},
				{
					"internalType": "bytes32[]",
					"name": "medicationsHash",
					"type": "bytes32[]"
				},
				{
					"internalType": "bytes32",
					"name": "emergencyContactHash",
					"type": "bytes32"
				},
				{
					"internalType": "bytes32[]",
					"name": "organDonorStatus",
					"type": "bytes32[]"
				},
				{
					"internalType": "bytes32[]",
					"name": "vaccinationRecordsHash",
					"type": "bytes32[]"
				},
				{
					"internalType": "uint256",
					"name": "lastcheckupTimestamp",
					"type": "uint256"
				},
				{
					"internalType": "bytes32",
					"name": "doctorNotesHash",
					"type": "bytes32"
				},
				{
					"internalType": "bytes32[]",
					"name": "wearableDeviceDataHash",
					"type": "bytes32[]"
				},
				{
					"internalType": "bytes32",
					"name": "fitnessLevelHash",
					"type": "bytes32"
				},
				{
					"internalType": "bytes32",
					"name": "dietPlanHash",
					"type": "bytes32"
				}
			],
			"stateMutability": "view",
			"type": "function"
		},
		{
			"inputs": [
				{
					"internalType": "uint256",
					"name": "_patientId",
					"type": "uint256"
				}
			],
			"name": "getNormalRecords",
			"outputs": [
				{
					"internalType": "bytes32",
					"name": "nameHash",
					"type": "bytes32"
				},
				{
					"internalType": "bytes32",
					"name": "dobHash",
					"type": "bytes32"
				},
				{
					"internalType": "bytes32",
					"name": "genderHash",
					"type": "bytes32"
				},
				{
					"internalType": "bytes32",
					"name": "phoneHash",
					"type": "bytes32"
				},
				{
					"internalType": "bytes32",
					"name": "addressHash",
					"type": "bytes32"
				},
				{
					"internalType": "bytes32",
					"name": "emergencyContactHash",
					"type": "bytes32"
				},
				{
					"internalType": "uint256",
					"name": "lastcheckupTimestamp",
					"type": "uint256"
				}
			],
			"stateMutability": "view",
			"type": "function"
		},
		{
			"inputs": [
				{
					"internalType": "uint256",
					"name": "_patientId",
					"type": "uint256"
				},
				{
					"internalType": "address",
					"name": "_provider",
					"type": "address"
				}
			],
			"name": "grantAccess",
			"outputs": [],
			"stateMutability": "nonpayable",
			"type": "function"
		},
		{
			"inputs": [],
			"name": "nextPatientId",
			"outputs": [
				{
					"internalType": "uint256",
					"name": "",
					"type": "uint256"
				}
			],
			"stateMutability": "view",
			"type": "function"
		},
		{
			"inputs": [
				{
					"internalType": "uint256",
					"name": "",
					"type": "uint256"
				}
			],
			"name": "patientRecords",
			"outputs": [
				{
					"internalType": "uint256",
					"name": "patientId",
					"type": "uint256"
				},
				{
					"internalType": "address",
					"name": "owner",
					"type": "address"
				},
				{
					"internalType": "bytes32",
					"name": "nationalIDhash",
					"type": "bytes32"
				},
				{
					"internalType": "bytes32",
					"name": "insuranceIDhash",
					"type": "bytes32"
				},
				{
					"internalType": "bytes32",
					"name": "nameHash",
					"type": "bytes32"
				},
				{
					"internalType": "bytes32",
					"name": "dobHash",
					"type": "bytes32"
				},
				{
					"internalType": "bytes32",
					"name": "genderHash",
					"type": "bytes32"
				},
				{
					"internalType": "bytes32",
					"name": "bloodTypeHash",
					"type": "bytes32"
				},
				{
					"internalType": "bytes32",
					"name": "phoneHash",
					"type": "bytes32"
				},
				{
					"internalType": "bytes32",
					"name": "addressHash",
					"type": "bytes32"
				},
				{
					"internalType": "bytes32",
					"name": "emergencyContactHash",
					"type": "bytes32"
				},
				{
					"internalType": "uint256",
					"name": "lastcheckupTimestamp",
					"type": "uint256"
				},
				{
					"internalType": "bytes32",
					"name": "doctorNotesHash",
					"type": "bytes32"
				},
				{
					"internalType": "bytes32",
					"name": "fitnessLevelHash",
					"type": "bytes32"
				},
				{
					"internalType": "bytes32",
					"name": "dietPlanHash",
					"type": "bytes32"
				},
				{
					"internalType": "uint256",
					"name": "accessLevel",
					"type": "uint256"
				},
				{
					"internalType": "uint256",
					"name": "timestamp",
					"type": "uint256"
				}
			],
			"stateMutability": "view",
			"type": "function"
		},
		{
			"inputs": [
				{
					"internalType": "uint256",
					"name": "_patientId",
					"type": "uint256"
				},
				{
					"internalType": "address",
					"name": "_provider",
					"type": "address"
				}
			],
			"name": "revokeAccess",
			"outputs": [],
			"stateMutability": "nonpayable",
			"type": "function"
		},
		{
			"inputs": [
				{
					"internalType": "uint256",
					"name": "_patientId",
					"type": "uint256"
				},
				{
					"internalType": "string",
					"name": "_pin",
					"type": "string"
				}
			],
			"name": "setEmergencyPin",
			"outputs": [],
			"stateMutability": "nonpayable",
			"type": "function"
		},
		{
			"inputs": [
				{
					"internalType": "uint256",
					"name": "_patientId",
					"type": "uint256"
				},
				{
					"internalType": "bytes32",
					"name": "_nationalIDhash",
					"type": "bytes32"
				},
				{
					"internalType": "bytes32",
					"name": "_insuranceIDhash",
					"type": "bytes32"
				},
				{
					"internalType": "bytes32",
					"name": "_nameHash",
					"type": "bytes32"
				},
				{
					"internalType": "bytes32",
					"name": "_dobHash",
					"type": "bytes32"
				},
				{
					"internalType": "bytes32",
					"name": "_genderHash",
					"type": "bytes32"
				},
				{
					"internalType": "bytes32",
					"name": "_bloodTypeHash",
					"type": "bytes32"
				},
				{
					"internalType": "bytes32",
					"name": "_phoneHash",
					"type": "bytes32"
				},
				{
					"internalType": "bytes32",
					"name": "_addressHash",
					"type": "bytes32"
				},
				{
					"internalType": "bytes32[]",
					"name": "_allergiesHash",
					"type": "bytes32[]"
				},
				{
					"internalType": "bytes32[]",
					"name": "_medicalHistoryHash",
					"type": "bytes32[]"
				},
				{
					"internalType": "bytes32[]",
					"name": "_medicationsHash",
					"type": "bytes32[]"
				},
				{
					"internalType": "bytes32",
					"name": "_emergencyContactHash",
					"type": "bytes32"
				},
				{
					"internalType": "bytes32[]",
					"name": "_organDonorStatus",
					"type": "bytes32[]"
				},
				{
					"internalType": "bytes32[]",
					"name": "_vaccinationRecordsHash",
					"type": "bytes32[]"
				},
				{
					"internalType": "uint256",
					"name": "_lastcheckupTimestamp",
					"type": "uint256"
				},
				{
					"internalType": "bytes32",
					"name": "_doctorNotesHash",
					"type": "bytes32"
				},
				{
					"internalType": "bytes32[]",
					"name": "_wearableDeviceDataHash",
					"type": "bytes32[]"
				},
				{
					"internalType": "bytes32",
					"name": "_fitnessLevelHash",
					"type": "bytes32"
				},
				{
					"internalType": "bytes32",
					"name": "_dietPlanHash",
					"type": "bytes32"
				}
			],
			"name": "updatePatientRecord",
			"outputs": [],
			"stateMutability": "nonpayable",
			"type": "function"
		},
		{
			"inputs": [
				{
					"internalType": "uint256",
					"name": "_patientId",
					"type": "uint256"
				},
				{
					"internalType": "bytes32",
					"name": "_proof",
					"type": "bytes32"
				}
			],
			"name": "verifyAllergy",
			"outputs": [
				{
					"internalType": "bool",
					"name": "",
					"type": "bool"
				}
			],
			"stateMutability": "view",
			"type": "function"
		},
		{
			"inputs": [
				{
					"internalType": "uint256",
					"name": "_patientId",
					"type": "uint256"
				},
				{
					"internalType": "bytes32",
					"name": "_proof",
					"type": "bytes32"
				}
			],
			"name": "verifyBloodType",
			"outputs": [
				{
					"internalType": "bool",
					"name": "",
					"type": "bool"
				}
			],
			"stateMutability": "view",
			"type": "function"
		},
		{
			"inputs": [
				{
					"internalType": "uint256",
					"name": "_patientId",
					"type": "uint256"
				},
				{
					"internalType": "bytes32",
					"name": "_proof",
					"type": "bytes32"
				}
			],
			"name": "verifyMedicalHistory",
			"outputs": [
				{
					"internalType": "bool",
					"name": "",
					"type": "bool"
				}
			],
			"stateMutability": "view",
			"type": "function"
		},
		{
			"inputs": [
				{
					"internalType": "uint256",
					"name": "_patientId",
					"type": "uint256"
				},
				{
					"internalType": "bytes32",
					"name": "_proof",
					"type": "bytes32"
				}
			],
			"name": "verifyMedications",
			"outputs": [
				{
					"internalType": "bool",
					"name": "",
					"type": "bool"
				}
			],
			"stateMutability": "view",
			"type": "function"
		},
		{
			"inputs": [
				{
					"internalType": "uint256",
					"name": "_patientId",
					"type": "uint256"
				},
				{
					"internalType": "bytes32",
					"name": "_proof",
					"type": "bytes32"
				}
			],
			"name": "verifydietPlanHash",
			"outputs": [
				{
					"internalType": "bool",
					"name": "",
					"type": "bool"
				}
			],
			"stateMutability": "view",
			"type": "function"
		},
		{
			"inputs": [
				{
					"internalType": "uint256",
					"name": "_patientId",
					"type": "uint256"
				},
				{
					"internalType": "bytes32",
					"name": "_proof",
					"type": "bytes32"
				}
			],
			"name": "verifydoctorNotesHash",
			"outputs": [
				{
					"internalType": "bool",
					"name": "",
					"type": "bool"
				}
			],
			"stateMutability": "view",
			"type": "function"
		},
		{
			"inputs": [
				{
					"internalType": "uint256",
					"name": "_patientId",
					"type": "uint256"
				},
				{
					"internalType": "bytes32",
					"name": "_proof",
					"type": "bytes32"
				}
			],
			"name": "verifyfitnessLevelHash",
			"outputs": [
				{
					"internalType": "bool",
					"name": "",
					"type": "bool"
				}
			],
			"stateMutability": "view",
			"type": "function"
		},
		{
			"inputs": [
				{
					"internalType": "uint256",
					"name": "_patientId",
					"type": "uint256"
				},
				{
					"internalType": "bytes32",
					"name": "_proof",
					"type": "bytes32"
				}
			],
			"name": "verifyinsuranceIDhash",
			"outputs": [
				{
					"internalType": "bool",
					"name": "",
					"type": "bool"
				}
			],
			"stateMutability": "view",
			"type": "function"
		},
		{
			"inputs": [
				{
					"internalType": "uint256",
					"name": "_patientId",
					"type": "uint256"
				},
				{
					"internalType": "bytes32",
					"name": "_proof",
					"type": "bytes32"
				}
			],
			"name": "verifynationalID",
			"outputs": [
				{
					"internalType": "bool",
					"name": "",
					"type": "bool"
				}
			],
			"stateMutability": "view",
			"type": "function"
		},
		{
			"inputs": [
				{
					"internalType": "uint256",
					"name": "_patientId",
					"type": "uint256"
				},
				{
					"internalType": "bytes32",
					"name": "_proof",
					"type": "bytes32"
				}
			],
			"name": "verifyorganDonorStatus",
			"outputs": [
				{
					"internalType": "bool",
					"name": "",
					"type": "bool"
				}
			],
			"stateMutability": "view",
			"type": "function"
		},
		{
			"inputs": [
				{
					"internalType": "uint256",
					"name": "_patientId",
					"type": "uint256"
				},
				{
					"internalType": "bytes32",
					"name": "_proof",
					"type": "bytes32"
				}
			],
			"name": "verifyvaccinationRecordsHash",
			"outputs": [
				{
					"internalType": "bool",
					"name": "",
					"type": "bool"
				}
			],
			"stateMutability": "view",
			"type": "function"
		},
		{
			"inputs": [
				{
					"internalType": "uint256",
					"name": "_patientId",
					"type": "uint256"
				},
				{
					"internalType": "bytes32",
					"name": "_proof",
					"type": "bytes32"
				}
			],
			"name": "verifywearableDeviceDataHash",
			"outputs": [
				{
					"internalType": "bool",
					"name": "",
					"type": "bool"
				}
			],
			"stateMutability": "view",
			"type": "function"
		}
	]
}