{
	"data": {
		"bytecode": {
			"linkReferences": {},
			"object": "608034605f57601f6107b638819003918201601f19168301916001600160401b03831184841017606357808492602094604052833981010312605f57515f80546001600160a01b0319163317905560015560405161073e90816100788239f35b5f80fd5b634e487b7160e01b5f52604160045260245ffdfe60806040526004361015610011575f80fd5b5f3560e01c80630ae5e739146105cf578063122a183a146103a0578063283d98af1461027a57806336677f34146101f55780636823b4ea146101c857806385e68531146100ff5780638da5cb5b146100d85763f18ad6fb14610071575f80fd5b346100d4575f3660031901126100d4575f546001600160a01b0316331480156100bc575b61009e906106c6565b60606002546003546004549060405192835260208301526040820152f35b50335f9081526005602052604090205460ff16610095565b5f80fd5b346100d4575f3660031901126100d4575f546040516001600160a01b039091168152602090f35b346100d45760203660031901126100d4576004356001600160a01b038116908190036100d45761013960018060a01b035f5416331461066e565b805f52600560205260ff60405f2054161561018e576020817f1b9b72fde9da721e70e6aca3b0cf4cbe73e82765ef1f280157740376531bfdd8925f526005825260405f2060ff198154169055604051908152a1005b60405162461bcd60e51b8152602060048201526012602482015271141c9bdd9a59195c881b9bdd08199bdd5b9960721b6044820152606490fd5b346100d45760203660031901126100d4576101ed60018060a01b035f5416331461066e565b600435600155005b346100d45760203660031901126100d4576001546004350361023d577f0a3c2c470ed60b3661c58daac42324a1aec25592b9f249e1042b5b923bf675796020604051338152a1005b60405162461bcd60e51b815260206004820152601560248201527424b73b30b634b21032b6b2b933b2b731bc902824a760591b6044820152606490fd5b346100d45760603660031901126100d457600435602435906044356102a960018060a01b035f5416331461066e565b60405191606083019083821067ffffffffffffffff83111761038c577f68bc20e52b10ffc43a05dfe035d47bc00f739dcc31815fa1585438ad5e475d2894856080809693866040839685988252838152866020820152015280600255836003558660045560405190604082526009604083015268416c6c65726769657360b81b60608301526020820152a16040519060408252600f60408301526e4d65646963616c20486973746f727960881b60608301526020820152a16040519060408252600b60408301526a4d656469636174696f6e7360a81b60608301526020820152a1005b634e487b7160e01b5f52604160045260245ffd5b346100d45760403660031901126100d45760043567ffffffffffffffff81116100d457366023820112156100d45780600401359067ffffffffffffffff821161038c57604051916103fb601f8201601f19166020018461064c565b808352602083019136602483830101116100d457815f926024602093018537840101525f546001600160a01b0316331480156105b7575b61043b906106c6565b604051602081019061046560208286518087875e81015f838201520301601f19810183528261064c565b519020604051602081019068416c6c65726769657360b81b82526009815261048e60298261064c565b519020036104aa57505060206002545b60405190602435148152f35b60405160208101906104d460208286518087875e81015f838201520301601f19810183528261064c565b51902060405160208101906d4d65646963616c486973746f727960901b8252600e8152610502602e8261064c565b51902003610516575050602060035461049e565b61053f6020604051809382820195518091875e81015f838201520301601f19810183528261064c565b51902060405160208101906a4d656469636174696f6e7360a81b8252600b815261056a602b8261064c565b5190200361057c57602060045461049e565b60405162461bcd60e51b8152602060048201526013602482015272496e76616c6964207265636f7264207479706560681b6044820152606490fd5b50335f9081526005602052604090205460ff16610432565b346100d45760203660031901126100d4576004356001600160a01b038116908190036100d45760207fdeb5c31899474fe8c086c95ff9344480d19365676a6a1d22d37bb8e3e7c0ef189161062d60018060a01b035f5416331461066e565b805f526005825260405f20600160ff19825416179055604051908152a1005b90601f8019910116810190811067ffffffffffffffff82111761038c57604052565b1561067557565b60405162461bcd60e51b8152602060048201526024808201527f4f6e6c792070617469656e742063616e20706572666f726d20746869732061636044820152633a34b7b760e11b6064820152608490fd5b156106cd57565b60405162461bcd60e51b8152602060048201526013602482015272556e617574686f72697a65642061636365737360681b6044820152606490fdfea264697066735822122022e4a8d0312e627734e0bdcb56a8e41034cefc249c2162399b8beb79819a106264736f6c634300081a0033",
			"opcodes": "PUSH1 0x80 CALLVALUE PUSH1 0x5F JUMPI PUSH1 0x1F PUSH2 0x7B6 CODESIZE DUP2 SWAP1 SUB SWAP2 DUP3 ADD PUSH1 0x1F NOT AND DUP4 ADD SWAP2 PUSH1 0x1 PUSH1 0x1 PUSH1 0x40 SHL SUB DUP4 GT DUP5 DUP5 LT OR PUSH1 0x63 JUMPI DUP1 DUP5 SWAP3 PUSH1 0x20 SWAP5 PUSH1 0x40 MSTORE DUP4 CODECOPY DUP2 ADD SUB SLT PUSH1 0x5F JUMPI MLOAD PUSH0 DUP1 SLOAD PUSH1 0x1 PUSH1 0x1 PUSH1 0xA0 SHL SUB NOT AND CALLER OR SWAP1 SSTORE PUSH1 0x1 SSTORE PUSH1 0x40 MLOAD PUSH2 0x73E SWAP1 DUP2 PUSH2 0x78 DUP3 CODECOPY RETURN JUMPDEST PUSH0 DUP1 REVERT JUMPDEST PUSH4 0x4E487B71 PUSH1 0xE0 SHL PUSH0 MSTORE PUSH1 0x41 PUSH1 0x4 MSTORE PUSH1 0x24 PUSH0 REVERT INVALID PUSH1 0x80 PUSH1 0x40 MSTORE PUSH1 0x4 CALLDATASIZE LT ISZERO PUSH2 0x11 JUMPI PUSH0 DUP1 REVERT JUMPDEST PUSH0 CALLDATALOAD PUSH1 0xE0 SHR DUP1 PUSH4 0xAE5E739 EQ PUSH2 0x5CF JUMPI DUP1 PUSH4 0x122A183A EQ PUSH2 0x3A0 JUMPI DUP1 PUSH4 0x283D98AF EQ PUSH2 0x27A JUMPI DUP1 PUSH4 0x36677F34 EQ PUSH2 0x1F5 JUMPI DUP1 PUSH4 0x6823B4EA EQ PUSH2 0x1C8 JUMPI DUP1 PUSH4 0x85E68531 EQ PUSH2 0xFF JUMPI DUP1 PUSH4 0x8DA5CB5B EQ PUSH2 0xD8 JUMPI PUSH4 0xF18AD6FB EQ PUSH2 0x71 JUMPI PUSH0 DUP1 REVERT JUMPDEST CALLVALUE PUSH2 0xD4 JUMPI PUSH0 CALLDATASIZE PUSH1 0x3 NOT ADD SLT PUSH2 0xD4 JUMPI PUSH0 SLOAD PUSH1 0x1 PUSH1 0x1 PUSH1 0xA0 SHL SUB AND CALLER EQ DUP1 ISZERO PUSH2 0xBC JUMPI JUMPDEST PUSH2 0x9E SWAP1 PUSH2 0x6C6 JUMP JUMPDEST PUSH1 0x60 PUSH1 0x2 SLOAD PUSH1 0x3 SLOAD PUSH1 0x4 SLOAD SWAP1 PUSH1 0x40 MLOAD SWAP3 DUP4 MSTORE PUSH1 0x20 DUP4 ADD MSTORE PUSH1 0x40 DUP3 ADD MSTORE RETURN JUMPDEST POP CALLER PUSH0 SWAP1 DUP2 MSTORE PUSH1 0x5 PUSH1 0x20 MSTORE PUSH1 0x40 SWAP1 KECCAK256 SLOAD PUSH1 0xFF AND PUSH2 0x95 JUMP JUMPDEST PUSH0 DUP1 REVERT JUMPDEST CALLVALUE PUSH2 0xD4 JUMPI PUSH0 CALLDATASIZE PUSH1 0x3 NOT ADD SLT PUSH2 0xD4 JUMPI PUSH0 SLOAD PUSH1 0x40 MLOAD PUSH1 0x1 PUSH1 0x1 PUSH1 0xA0 SHL SUB SWAP1 SWAP2 AND DUP2 MSTORE PUSH1 0x20 SWAP1 RETURN JUMPDEST CALLVALUE PUSH2 0xD4 JUMPI PUSH1 0x20 CALLDATASIZE PUSH1 0x3 NOT ADD SLT PUSH2 0xD4 JUMPI PUSH1 0x4 CALLDATALOAD PUSH1 0x1 PUSH1 0x1 PUSH1 0xA0 SHL SUB DUP2 AND SWAP1 DUP2 SWAP1 SUB PUSH2 0xD4 JUMPI PUSH2 0x139 PUSH1 0x1 DUP1 PUSH1 0xA0 SHL SUB PUSH0 SLOAD AND CALLER EQ PUSH2 0x66E JUMP JUMPDEST DUP1 PUSH0 MSTORE PUSH1 0x5 PUSH1 0x20 MSTORE PUSH1 0xFF PUSH1 0x40 PUSH0 KECCAK256 SLOAD AND ISZERO PUSH2 0x18E JUMPI PUSH1 0x20 DUP2 PUSH32 0x1B9B72FDE9DA721E70E6ACA3B0CF4CBE73E82765EF1F280157740376531BFDD8 SWAP3 PUSH0 MSTORE PUSH1 0x5 DUP3 MSTORE PUSH1 0x40 PUSH0 KECCAK256 PUSH1 0xFF NOT DUP2 SLOAD AND SWAP1 SSTORE PUSH1 0x40 MLOAD SWAP1 DUP2 MSTORE LOG1 STOP JUMPDEST PUSH1 0x40 MLOAD PUSH3 0x461BCD PUSH1 0xE5 SHL DUP2 MSTORE PUSH1 0x20 PUSH1 0x4 DUP3 ADD MSTORE PUSH1 0x12 PUSH1 0x24 DUP3 ADD MSTORE PUSH18 0x141C9BDD9A59195C881B9BDD08199BDD5B99 PUSH1 0x72 SHL PUSH1 0x44 DUP3 ADD MSTORE PUSH1 0x64 SWAP1 REVERT JUMPDEST CALLVALUE PUSH2 0xD4 JUMPI PUSH1 0x20 CALLDATASIZE PUSH1 0x3 NOT ADD SLT PUSH2 0xD4 JUMPI PUSH2 0x1ED PUSH1 0x1 DUP1 PUSH1 0xA0 SHL SUB PUSH0 SLOAD AND CALLER EQ PUSH2 0x66E JUMP JUMPDEST PUSH1 0x4 CALLDATALOAD PUSH1 0x1 SSTORE STOP JUMPDEST CALLVALUE PUSH2 0xD4 JUMPI PUSH1 0x20 CALLDATASIZE PUSH1 0x3 NOT ADD SLT PUSH2 0xD4 JUMPI PUSH1 0x1 SLOAD PUSH1 0x4 CALLDATALOAD SUB PUSH2 0x23D JUMPI PUSH32 0xA3C2C470ED60B3661C58DAAC42324A1AEC25592B9F249E1042B5B923BF67579 PUSH1 0x20 PUSH1 0x40 MLOAD CALLER DUP2 MSTORE LOG1 STOP JUMPDEST PUSH1 0x40 MLOAD PUSH3 0x461BCD PUSH1 0xE5 SHL DUP2 MSTORE PUSH1 0x20 PUSH1 0x4 DUP3 ADD MSTORE PUSH1 0x15 PUSH1 0x24 DUP3 ADD MSTORE PUSH21 0x24B73B30B634B21032B6B2B933B2B731BC902824A7 PUSH1 0x59 SHL PUSH1 0x44 DUP3 ADD MSTORE PUSH1 0x64 SWAP1 REVERT JUMPDEST CALLVALUE PUSH2 0xD4 JUMPI PUSH1 0x60 CALLDATASIZE PUSH1 0x3 NOT ADD SLT PUSH2 0xD4 JUMPI PUSH1 0x4 CALLDATALOAD PUSH1 0x24 CALLDATALOAD SWAP1 PUSH1 0x44 CALLDATALOAD PUSH2 0x2A9 PUSH1 0x1 DUP1 PUSH1 0xA0 SHL SUB PUSH0 SLOAD AND CALLER EQ PUSH2 0x66E JUMP JUMPDEST PUSH1 0x40 MLOAD SWAP2 PUSH1 0x60 DUP4 ADD SWAP1 DUP4 DUP3 LT PUSH8 0xFFFFFFFFFFFFFFFF DUP4 GT OR PUSH2 0x38C JUMPI PUSH32 0x68BC20E52B10FFC43A05DFE035D47BC00F739DCC31815FA1585438AD5E475D28 SWAP5 DUP6 PUSH1 0x80 DUP1 SWAP7 SWAP4 DUP7 PUSH1 0x40 DUP4 SWAP7 DUP6 SWAP9 DUP3 MSTORE DUP4 DUP2 MSTORE DUP7 PUSH1 0x20 DUP3 ADD MSTORE ADD MSTORE DUP1 PUSH1 0x2 SSTORE DUP4 PUSH1 0x3 SSTORE DUP7 PUSH1 0x4 SSTORE PUSH1 0x40 MLOAD SWAP1 PUSH1 0x40 DUP3 MSTORE PUSH1 0x9 PUSH1 0x40 DUP4 ADD MSTORE PUSH9 0x416C6C657267696573 PUSH1 0xB8 SHL PUSH1 0x60 DUP4 ADD MSTORE PUSH1 0x20 DUP3 ADD MSTORE LOG1 PUSH1 0x40 MLOAD SWAP1 PUSH1 0x40 DUP3 MSTORE PUSH1 0xF PUSH1 0x40 DUP4 ADD MSTORE PUSH15 0x4D65646963616C20486973746F7279 PUSH1 0x88 SHL PUSH1 0x60 DUP4 ADD MSTORE PUSH1 0x20 DUP3 ADD MSTORE LOG1 PUSH1 0x40 MLOAD SWAP1 PUSH1 0x40 DUP3 MSTORE PUSH1 0xB PUSH1 0x40 DUP4 ADD MSTORE PUSH11 0x4D656469636174696F6E73 PUSH1 0xA8 SHL PUSH1 0x60 DUP4 ADD MSTORE PUSH1 0x20 DUP3 ADD MSTORE LOG1 STOP JUMPDEST PUSH4 0x4E487B71 PUSH1 0xE0 SHL PUSH0 MSTORE PUSH1 0x41 PUSH1 0x4 MSTORE PUSH1 0x24 PUSH0 REVERT JUMPDEST CALLVALUE PUSH2 0xD4 JUMPI PUSH1 0x40 CALLDATASIZE PUSH1 0x3 NOT ADD SLT PUSH2 0xD4 JUMPI PUSH1 0x4 CALLDATALOAD PUSH8 0xFFFFFFFFFFFFFFFF DUP2 GT PUSH2 0xD4 JUMPI CALLDATASIZE PUSH1 0x23 DUP3 ADD SLT ISZERO PUSH2 0xD4 JUMPI DUP1 PUSH1 0x4 ADD CALLDATALOAD SWAP1 PUSH8 0xFFFFFFFFFFFFFFFF DUP3 GT PUSH2 0x38C JUMPI PUSH1 0x40 MLOAD SWAP2 PUSH2 0x3FB PUSH1 0x1F DUP3 ADD PUSH1 0x1F NOT AND PUSH1 0x20 ADD DUP5 PUSH2 0x64C JUMP JUMPDEST DUP1 DUP4 MSTORE PUSH1 0x20 DUP4 ADD SWAP2 CALLDATASIZE PUSH1 0x24 DUP4 DUP4 ADD ADD GT PUSH2 0xD4 JUMPI DUP2 PUSH0 SWAP3 PUSH1 0x24 PUSH1 0x20 SWAP4 ADD DUP6 CALLDATACOPY DUP5 ADD ADD MSTORE PUSH0 SLOAD PUSH1 0x1 PUSH1 0x1 PUSH1 0xA0 SHL SUB AND CALLER EQ DUP1 ISZERO PUSH2 0x5B7 JUMPI JUMPDEST PUSH2 0x43B SWAP1 PUSH2 0x6C6 JUMP JUMPDEST PUSH1 0x40 MLOAD PUSH1 0x20 DUP2 ADD SWAP1 PUSH2 0x465 PUSH1 0x20 DUP3 DUP7 MLOAD DUP1 DUP8 DUP8 MCOPY DUP2 ADD PUSH0 DUP4 DUP3 ADD MSTORE SUB ADD PUSH1 0x1F NOT DUP2 ADD DUP4 MSTORE DUP3 PUSH2 0x64C JUMP JUMPDEST MLOAD SWAP1 KECCAK256 PUSH1 0x40 MLOAD PUSH1 0x20 DUP2 ADD SWAP1 PUSH9 0x416C6C657267696573 PUSH1 0xB8 SHL DUP3 MSTORE PUSH1 0x9 DUP2 MSTORE PUSH2 0x48E PUSH1 0x29 DUP3 PUSH2 0x64C JUMP JUMPDEST MLOAD SWAP1 KECCAK256 SUB PUSH2 0x4AA JUMPI POP POP PUSH1 0x20 PUSH1 0x2 SLOAD JUMPDEST PUSH1 0x40 MLOAD SWAP1 PUSH1 0x24 CALLDATALOAD EQ DUP2 MSTORE RETURN JUMPDEST PUSH1 0x40 MLOAD PUSH1 0x20 DUP2 ADD SWAP1 PUSH2 0x4D4 PUSH1 0x20 DUP3 DUP7 MLOAD DUP1 DUP8 DUP8 MCOPY DUP2 ADD PUSH0 DUP4 DUP3 ADD MSTORE SUB ADD PUSH1 0x1F NOT DUP2 ADD DUP4 MSTORE DUP3 PUSH2 0x64C JUMP JUMPDEST MLOAD SWAP1 KECCAK256 PUSH1 0x40 MLOAD PUSH1 0x20 DUP2 ADD SWAP1 PUSH14 0x4D65646963616C486973746F7279 PUSH1 0x90 SHL DUP3 MSTORE PUSH1 0xE DUP2 MSTORE PUSH2 0x502 PUSH1 0x2E DUP3 PUSH2 0x64C JUMP JUMPDEST MLOAD SWAP1 KECCAK256 SUB PUSH2 0x516 JUMPI POP POP PUSH1 0x20 PUSH1 0x3 SLOAD PUSH2 0x49E JUMP JUMPDEST PUSH2 0x53F PUSH1 0x20 PUSH1 0x40 MLOAD DUP1 SWAP4 DUP3 DUP3 ADD SWAP6 MLOAD DUP1 SWAP2 DUP8 MCOPY DUP2 ADD PUSH0 DUP4 DUP3 ADD MSTORE SUB ADD PUSH1 0x1F NOT DUP2 ADD DUP4 MSTORE DUP3 PUSH2 0x64C JUMP JUMPDEST MLOAD SWAP1 KECCAK256 PUSH1 0x40 MLOAD PUSH1 0x20 DUP2 ADD SWAP1 PUSH11 0x4D656469636174696F6E73 PUSH1 0xA8 SHL DUP3 MSTORE PUSH1 0xB DUP2 MSTORE PUSH2 0x56A PUSH1 0x2B DUP3 PUSH2 0x64C JUMP JUMPDEST MLOAD SWAP1 KECCAK256 SUB PUSH2 0x57C JUMPI PUSH1 0x20 PUSH1 0x4 SLOAD PUSH2 0x49E JUMP JUMPDEST PUSH1 0x40 MLOAD PUSH3 0x461BCD PUSH1 0xE5 SHL DUP2 MSTORE PUSH1 0x20 PUSH1 0x4 DUP3 ADD MSTORE PUSH1 0x13 PUSH1 0x24 DUP3 ADD MSTORE PUSH19 0x496E76616C6964207265636F72642074797065 PUSH1 0x68 SHL PUSH1 0x44 DUP3 ADD MSTORE PUSH1 0x64 SWAP1 REVERT JUMPDEST POP CALLER PUSH0 SWAP1 DUP2 MSTORE PUSH1 0x5 PUSH1 0x20 MSTORE PUSH1 0x40 SWAP1 KECCAK256 SLOAD PUSH1 0xFF AND PUSH2 0x432 JUMP JUMPDEST CALLVALUE PUSH2 0xD4 JUMPI PUSH1 0x20 CALLDATASIZE PUSH1 0x3 NOT ADD SLT PUSH2 0xD4 JUMPI PUSH1 0x4 CALLDATALOAD PUSH1 0x1 PUSH1 0x1 PUSH1 0xA0 SHL SUB DUP2 AND SWAP1 DUP2 SWAP1 SUB PUSH2 0xD4 JUMPI PUSH1 0x20 PUSH32 0xDEB5C31899474FE8C086C95FF9344480D19365676A6A1D22D37BB8E3E7C0EF18 SWAP2 PUSH2 0x62D PUSH1 0x1 DUP1 PUSH1 0xA0 SHL SUB PUSH0 SLOAD AND CALLER EQ PUSH2 0x66E JUMP JUMPDEST DUP1 PUSH0 MSTORE PUSH1 0x5 DUP3 MSTORE PUSH1 0x40 PUSH0 KECCAK256 PUSH1 0x1 PUSH1 0xFF NOT DUP3 SLOAD AND OR SWAP1 SSTORE PUSH1 0x40 MLOAD SWAP1 DUP2 MSTORE LOG1 STOP JUMPDEST SWAP1 PUSH1 0x1F DUP1 NOT SWAP2 ADD AND DUP2 ADD SWAP1 DUP2 LT PUSH8 0xFFFFFFFFFFFFFFFF DUP3 GT OR PUSH2 0x38C JUMPI PUSH1 0x40 MSTORE JUMP JUMPDEST ISZERO PUSH2 0x675 JUMPI JUMP JUMPDEST PUSH1 0x40 MLOAD PUSH3 0x461BCD PUSH1 0xE5 SHL DUP2 MSTORE PUSH1 0x20 PUSH1 0x4 DUP3 ADD MSTORE PUSH1 0x24 DUP1 DUP3 ADD MSTORE PUSH32 0x4F6E6C792070617469656E742063616E20706572666F726D2074686973206163 PUSH1 0x44 DUP3 ADD MSTORE PUSH4 0x3A34B7B7 PUSH1 0xE1 SHL PUSH1 0x64 DUP3 ADD MSTORE PUSH1 0x84 SWAP1 REVERT JUMPDEST ISZERO PUSH2 0x6CD JUMPI JUMP JUMPDEST PUSH1 0x40 MLOAD PUSH3 0x461BCD PUSH1 0xE5 SHL DUP2 MSTORE PUSH1 0x20 PUSH1 0x4 DUP3 ADD MSTORE PUSH1 0x13 PUSH1 0x24 DUP3 ADD MSTORE PUSH19 0x556E617574686F72697A656420616363657373 PUSH1 0x68 SHL PUSH1 0x44 DUP3 ADD MSTORE PUSH1 0x64 SWAP1 REVERT INVALID LOG2 PUSH5 0x6970667358 0x22 SLT KECCAK256 0x22 0xE4 0xA8 0xD0 BALANCE 0x2E PUSH3 0x7734E0 0xBD 0xCB JUMP 0xA8 0xE4 LT CALLVALUE 0xCE 0xFC 0x24 SWAP13 0x21 PUSH3 0x399B8B 0xEB PUSH26 0x819A106264736F6C634300081A00330000000000000000000000 "
		},
		"gasEstimates": {
			"creation": {
				"codeDepositCost": "370800",
				"executionCost": "infinite",
				"totalCost": "infinite"
			},
			"external": {
				"emergencyAccess(bytes32)": "3345",
				"getRecord()": "11016",
				"grantAccess(address)": "27660",
				"owner()": "2403",
				"revokeAccess(address)": "29950",
				"setEmergencyPin(bytes32)": "24484",
				"updateRecord(bytes32,bytes32,bytes32)": "74344",
				"verifyRecord(string,bytes32)": "infinite"
			}
		},
		"methodIdentifiers": {
			"emergencyAccess(bytes32)": "36677f34",
			"getRecord()": "f18ad6fb",
			"grantAccess(address)": "0ae5e739",
			"owner()": "8da5cb5b",
			"revokeAccess(address)": "85e68531",
			"setEmergencyPin(bytes32)": "6823b4ea",
			"updateRecord(bytes32,bytes32,bytes32)": "283d98af",
			"verifyRecord(string,bytes32)": "122a183a"
		}
	},
	"abi": [
		{
			"inputs": [
				{
					"internalType": "bytes32",
					"name": "_emergencyPinHash",
					"type": "bytes32"
				}
			],
			"stateMutability": "nonpayable",
			"type": "constructor"
		},
		{
			"anonymous": false,
			"inputs": [
				{
					"indexed": false,
					"internalType": "address",
					"name": "provider",
					"type": "address"
				}
			],
			"name": "AccessGranted",
			"type": "event"
		},
		{
			"anonymous": false,
			"inputs": [
				{
					"indexed": false,
					"internalType": "address",
					"name": "provider",
					"type": "address"
				}
			],
			"name": "AccessRevoked",
			"type": "event"
		},
		{
			"anonymous": false,
			"inputs": [
				{
					"indexed": false,
					"internalType": "address",
					"name": "provider",
					"type": "address"
				}
			],
			"name": "EmergencyAccessUsed",
			"type": "event"
		},
		{
			"anonymous": false,
			"inputs": [
				{
					"indexed": false,
					"internalType": "string",
					"name": "recordType",
					"type": "string"
				},
				{
					"indexed": false,
					"internalType": "bytes32",
					"name": "recordHash",
					"type": "bytes32"
				}
			],
			"name": "RecordUpdated",
			"type": "event"
		},
		{
			"inputs": [
				{
					"internalType": "bytes32",
					"name": "providedPinHash",
					"type": "bytes32"
				}
			],
			"name": "emergencyAccess",
			"outputs": [],
			"stateMutability": "nonpayable",
			"type": "function"
		},
		{
			"inputs": [],
			"name": "getRecord",
			"outputs": [
				{
					"internalType": "bytes32",
					"name": "",
					"type": "bytes32"
				},
				{
					"internalType": "bytes32",
					"name": "",
					"type": "bytes32"
				},
				{
					"internalType": "bytes32",
					"name": "",
					"type": "bytes32"
				}
			],
			"stateMutability": "view",
			"type": "function"
		},
		{
			"inputs": [
				{
					"internalType": "address",
					"name": "_provider",
					"type": "address"
				}
			],
			"name": "grantAccess",
			"outputs": [],
			"stateMutability": "nonpayable",
			"type": "function"
		},
		{
			"inputs": [],
			"name": "owner",
			"outputs": [
				{
					"internalType": "address",
					"name": "",
					"type": "address"
				}
			],
			"stateMutability": "view",
			"type": "function"
		},
		{
			"inputs": [
				{
					"internalType": "address",
					"name": "_provider",
					"type": "address"
				}
			],
			"name": "revokeAccess",
			"outputs": [],
			"stateMutability": "nonpayable",
			"type": "function"
		},
		{
			"inputs": [
				{
					"internalType": "bytes32",
					"name": "_newPinHash",
					"type": "bytes32"
				}
			],
			"name": "setEmergencyPin",
			"outputs": [],
			"stateMutability": "nonpayable",
			"type": "function"
		},
		{
			"inputs": [
				{
					"internalType": "bytes32",
					"name": "_allergiesHash",
					"type": "bytes32"
				},
				{
					"internalType": "bytes32",
					"name": "_medicalHistoryHash",
					"type": "bytes32"
				},
				{
					"internalType": "bytes32",
					"name": "_medicationsHash",
					"type": "bytes32"
				}
			],
			"name": "updateRecord",
			"outputs": [],
			"stateMutability": "nonpayable",
			"type": "function"
		},
		{
			"inputs": [
				{
					"internalType": "string",
					"name": "recordType",
					"type": "string"
				},
				{
					"internalType": "bytes32",
					"name": "providedHash",
					"type": "bytes32"
				}
			],
			"name": "verifyRecord",
			"outputs": [
				{
					"internalType": "bool",
					"name": "",
					"type": "bool"
				}
			],
			"stateMutability": "view",
			"type": "function"
		}
	]
}